{
	"contracts/StructsEnumsModifiers.sol": {
		"StructsEnumsModifiers": {
			"abi": [
				{
					"inputs": [],
					"stateMutability": "nonpayable",
					"type": "constructor"
				},
				{
					"inputs": [
						{
							"internalType": "uint256",
							"name": "_orderId",
							"type": "uint256"
						}
					],
					"name": "advanceOrder",
					"outputs": [],
					"stateMutability": "nonpayable",
					"type": "function"
				},
				{
					"inputs": [
						{
							"internalType": "string",
							"name": "_zipCode",
							"type": "string"
						},
						{
							"internalType": "uint256[]",
							"name": "_products",
							"type": "uint256[]"
						}
					],
					"name": "createOrder",
					"outputs": [
						{
							"internalType": "uint256",
							"name": "",
							"type": "uint256"
						}
					],
					"stateMutability": "nonpayable",
					"type": "function"
				},
				{
					"inputs": [
						{
							"internalType": "uint256",
							"name": "",
							"type": "uint256"
						}
					],
					"name": "orders",
					"outputs": [
						{
							"internalType": "address",
							"name": "customer",
							"type": "address"
						},
						{
							"internalType": "string",
							"name": "zipCode",
							"type": "string"
						},
						{
							"internalType": "enum StructsEnumsModifiers.Status",
							"name": "status",
							"type": "uint8"
						}
					],
					"stateMutability": "view",
					"type": "function"
				},
				{
					"inputs": [],
					"name": "owner",
					"outputs": [
						{
							"internalType": "address",
							"name": "",
							"type": "address"
						}
					],
					"stateMutability": "view",
					"type": "function"
				},
				{
					"inputs": [
						{
							"internalType": "uint256",
							"name": "_orderId",
							"type": "uint256"
						},
						{
							"internalType": "string",
							"name": "_zip",
							"type": "string"
						}
					],
					"name": "updateZip",
					"outputs": [],
					"stateMutability": "nonpayable",
					"type": "function"
				}
			],
			"devdoc": {
				"kind": "dev",
				"methods": {},
				"version": 1
			},
			"evm": {
				"assembly": "    /* \"contracts/StructsEnumsModifiers.sol\":64:1721  contract StructsEnumsModifiers {... */\n  mstore(0x40, 0x80)\n    /* \"contracts/StructsEnumsModifiers.sol\":373:422  constructor() {... */\n  callvalue\n  dup1\n  iszero\n  tag_1\n  jumpi\n  0x00\n  dup1\n  revert\ntag_1:\n  pop\n    /* \"contracts/StructsEnumsModifiers.sol\":405:415  msg.sender */\n  caller\n    /* \"contracts/StructsEnumsModifiers.sol\":397:402  owner */\n  0x01\n  0x00\n    /* \"contracts/StructsEnumsModifiers.sol\":397:415  owner = msg.sender */\n  0x0100\n  exp\n  dup2\n  sload\n  dup2\n  0xffffffffffffffffffffffffffffffffffffffff\n  mul\n  not\n  and\n  swap1\n  dup4\n  0xffffffffffffffffffffffffffffffffffffffff\n  and\n  mul\n  or\n  swap1\n  sstore\n  pop\n    /* \"contracts/StructsEnumsModifiers.sol\":64:1721  contract StructsEnumsModifiers {... */\n  dataSize(sub_0)\n  dup1\n  dataOffset(sub_0)\n  0x00\n  codecopy\n  0x00\n  return\nstop\n\nsub_0: assembly {\n        /* \"contracts/StructsEnumsModifiers.sol\":64:1721  contract StructsEnumsModifiers {... */\n      mstore(0x40, 0x80)\n      callvalue\n      dup1\n      iszero\n      tag_1\n      jumpi\n      0x00\n      dup1\n      revert\n    tag_1:\n      pop\n      jumpi(tag_2, lt(calldatasize, 0x04))\n      shr(0xe0, calldataload(0x00))\n      dup1\n      0x577dc0a0\n      eq\n      tag_3\n      jumpi\n      dup1\n      0x6d9a65d8\n      eq\n      tag_4\n      jumpi\n      dup1\n      0x8da5cb5b\n      eq\n      tag_5\n      jumpi\n      dup1\n      0xa85c38ef\n      eq\n      tag_6\n      jumpi\n      dup1\n      0xafe13a62\n      eq\n      tag_7\n      jumpi\n    tag_2:\n      0x00\n      dup1\n      revert\n        /* \"contracts/StructsEnumsModifiers.sol\":1433:1708  function updateZip(uint256 _orderId, string memory _zip) external {... */\n    tag_3:\n      tag_8\n      0x04\n      dup1\n      calldatasize\n      sub\n      dup2\n      add\n      swap1\n      tag_9\n      swap2\n      swap1\n      tag_10\n      jump\t// in\n    tag_9:\n      tag_11\n      jump\t// in\n    tag_8:\n      stop\n        /* \"contracts/StructsEnumsModifiers.sol\":428:823  function createOrder(string memory _zipCode, uint256[] memory _products) external returns(uint256){... */\n    tag_4:\n      tag_12\n      0x04\n      dup1\n      calldatasize\n      sub\n      dup2\n      add\n      swap1\n      tag_13\n      swap2\n      swap1\n      tag_14\n      jump\t// in\n    tag_13:\n      tag_15\n      jump\t// in\n    tag_12:\n      mload(0x40)\n      tag_16\n      swap2\n      swap1\n      tag_17\n      jump\t// in\n    tag_16:\n      mload(0x40)\n      dup1\n      swap2\n      sub\n      swap1\n      return\n        /* \"contracts/StructsEnumsModifiers.sol\":346:366  address public owner */\n    tag_5:\n      tag_18\n      tag_19\n      jump\t// in\n    tag_18:\n      mload(0x40)\n      tag_20\n      swap2\n      swap1\n      tag_21\n      jump\t// in\n    tag_20:\n      mload(0x40)\n      dup1\n      swap2\n      sub\n      swap1\n      return\n        /* \"contracts/StructsEnumsModifiers.sol\":319:340  Order[] public orders */\n    tag_6:\n      tag_22\n      0x04\n      dup1\n      calldatasize\n      sub\n      dup2\n      add\n      swap1\n      tag_23\n      swap2\n      swap1\n      tag_24\n      jump\t// in\n    tag_23:\n      tag_25\n      jump\t// in\n    tag_22:\n      mload(0x40)\n      tag_26\n      swap4\n      swap3\n      swap2\n      swap1\n      tag_27\n      jump\t// in\n    tag_26:\n      mload(0x40)\n      dup1\n      swap2\n      sub\n      swap1\n      return\n        /* \"contracts/StructsEnumsModifiers.sol\":829:1428  function advanceOrder(uint256 _orderId) external {... */\n    tag_7:\n      tag_28\n      0x04\n      dup1\n      calldatasize\n      sub\n      dup2\n      add\n      swap1\n      tag_29\n      swap2\n      swap1\n      tag_24\n      jump\t// in\n    tag_29:\n      tag_30\n      jump\t// in\n    tag_28:\n      stop\n        /* \"contracts/StructsEnumsModifiers.sol\":1433:1708  function updateZip(uint256 _orderId, string memory _zip) external {... */\n    tag_11:\n        /* \"contracts/StructsEnumsModifiers.sol\":1528:1534  orders */\n      0x00\n        /* \"contracts/StructsEnumsModifiers.sol\":1528:1541  orders.length */\n      dup1\n      sload\n      swap1\n      pop\n        /* \"contracts/StructsEnumsModifiers.sol\":1516:1524  _orderId */\n      dup3\n        /* \"contracts/StructsEnumsModifiers.sol\":1516:1541  _orderId <= orders.length */\n      gt\n      iszero\n        /* \"contracts/StructsEnumsModifiers.sol\":1508:1566  require(_orderId <= orders.length, \"Not a valid order id\") */\n      tag_32\n      jumpi\n      mload(0x40)\n      0x08c379a000000000000000000000000000000000000000000000000000000000\n      dup2\n      mstore\n      0x04\n      add\n      tag_33\n      swap1\n      tag_34\n      jump\t// in\n    tag_33:\n      mload(0x40)\n      dup1\n      swap2\n      sub\n      swap1\n      revert\n    tag_32:\n        /* \"contracts/StructsEnumsModifiers.sol\":1612:1622  msg.sender */\n      caller\n        /* \"contracts/StructsEnumsModifiers.sol\":1583:1622  orders[_orderId].customer == msg.sender */\n      0xffffffffffffffffffffffffffffffffffffffff\n      and\n        /* \"contracts/StructsEnumsModifiers.sol\":1583:1589  orders */\n      0x00\n        /* \"contracts/StructsEnumsModifiers.sol\":1590:1598  _orderId */\n      dup4\n        /* \"contracts/StructsEnumsModifiers.sol\":1583:1599  orders[_orderId] */\n      dup2\n      sload\n      dup2\n      lt\n      tag_35\n      jumpi\n      tag_36\n      tag_37\n      jump\t// in\n    tag_36:\n    tag_35:\n      swap1\n      0x00\n      mstore\n      keccak256(0x00, 0x20)\n      swap1\n      0x04\n      mul\n      add\n        /* \"contracts/StructsEnumsModifiers.sol\":1583:1608  orders[_orderId].customer */\n      0x00\n      add\n      0x00\n      swap1\n      sload\n      swap1\n      0x0100\n      exp\n      swap1\n      div\n      0xffffffffffffffffffffffffffffffffffffffff\n      and\n        /* \"contracts/StructsEnumsModifiers.sol\":1583:1622  orders[_orderId].customer == msg.sender */\n      0xffffffffffffffffffffffffffffffffffffffff\n      and\n      eq\n        /* \"contracts/StructsEnumsModifiers.sol\":1575:1661  require(orders[_orderId].customer == msg.sender, \"You are not the owner of the order\") */\n      tag_39\n      jumpi\n      mload(0x40)\n      0x08c379a000000000000000000000000000000000000000000000000000000000\n      dup2\n      mstore\n      0x04\n      add\n      tag_40\n      swap1\n      tag_41\n      jump\t// in\n    tag_40:\n      mload(0x40)\n      dup1\n      swap2\n      sub\n      swap1\n      revert\n    tag_39:\n        /* \"contracts/StructsEnumsModifiers.sol\":1698:1702  _zip */\n      dup1\n        /* \"contracts/StructsEnumsModifiers.sol\":1671:1677  orders */\n      0x00\n        /* \"contracts/StructsEnumsModifiers.sol\":1678:1686  _orderId */\n      dup4\n        /* \"contracts/StructsEnumsModifiers.sol\":1671:1687  orders[_orderId] */\n      dup2\n      sload\n      dup2\n      lt\n      tag_42\n      jumpi\n      tag_43\n      tag_37\n      jump\t// in\n    tag_43:\n    tag_42:\n      swap1\n      0x00\n      mstore\n      keccak256(0x00, 0x20)\n      swap1\n      0x04\n      mul\n      add\n        /* \"contracts/StructsEnumsModifiers.sol\":1671:1695  orders[_orderId].zipCode */\n      0x01\n      add\n        /* \"contracts/StructsEnumsModifiers.sol\":1671:1702  orders[_orderId].zipCode = _zip */\n      swap1\n      dup1\n      mload\n      swap1\n      0x20\n      add\n      swap1\n      tag_45\n      swap3\n      swap2\n      swap1\n      tag_46\n      jump\t// in\n    tag_45:\n      pop\n        /* \"contracts/StructsEnumsModifiers.sol\":1433:1708  function updateZip(uint256 _orderId, string memory _zip) external {... */\n      pop\n      pop\n      jump\t// out\n        /* \"contracts/StructsEnumsModifiers.sol\":428:823  function createOrder(string memory _zipCode, uint256[] memory _products) external returns(uint256){... */\n    tag_15:\n        /* \"contracts/StructsEnumsModifiers.sol\":518:525  uint256 */\n      0x00\n        /* \"contracts/StructsEnumsModifiers.sol\":563:564  0 */\n      dup1\n        /* \"contracts/StructsEnumsModifiers.sol\":544:553  _products */\n      dup3\n        /* \"contracts/StructsEnumsModifiers.sol\":544:560  _products.length */\n      mload\n        /* \"contracts/StructsEnumsModifiers.sol\":544:564  _products.length > 0 */\n      gt\n        /* \"contracts/StructsEnumsModifiers.sol\":536:580  require(_products.length > 0, \"No products\") */\n      tag_48\n      jumpi\n      mload(0x40)\n      0x08c379a000000000000000000000000000000000000000000000000000000000\n      dup2\n      mstore\n      0x04\n      add\n      tag_49\n      swap1\n      tag_50\n      jump\t// in\n    tag_49:\n      mload(0x40)\n      dup1\n      swap2\n      sub\n      swap1\n      revert\n    tag_48:\n        /* \"contracts/StructsEnumsModifiers.sol\":591:609  Order memory order */\n      tag_51\n      tag_52\n      jump\t// in\n    tag_51:\n        /* \"contracts/StructsEnumsModifiers.sol\":636:646  msg.sender */\n      caller\n        /* \"contracts/StructsEnumsModifiers.sol\":619:624  order */\n      dup2\n        /* \"contracts/StructsEnumsModifiers.sol\":619:633  order.customer */\n      0x00\n      add\n        /* \"contracts/StructsEnumsModifiers.sol\":619:646  order.customer = msg.sender */\n      swap1\n      0xffffffffffffffffffffffffffffffffffffffff\n      and\n      swap1\n      dup2\n      0xffffffffffffffffffffffffffffffffffffffff\n      and\n      dup2\n      mstore\n      pop\n      pop\n        /* \"contracts/StructsEnumsModifiers.sol\":672:680  _zipCode */\n      dup4\n        /* \"contracts/StructsEnumsModifiers.sol\":656:661  order */\n      dup2\n        /* \"contracts/StructsEnumsModifiers.sol\":656:669  order.zipCode */\n      0x20\n      add\n        /* \"contracts/StructsEnumsModifiers.sol\":656:680  order.zipCode = _zipCode */\n      dup2\n      swap1\n      mstore\n      pop\n        /* \"contracts/StructsEnumsModifiers.sol\":707:716  _products */\n      dup3\n        /* \"contracts/StructsEnumsModifiers.sol\":690:695  order */\n      dup2\n        /* \"contracts/StructsEnumsModifiers.sol\":690:704  order.products */\n      0x40\n      add\n        /* \"contracts/StructsEnumsModifiers.sol\":690:716  order.products = _products */\n      dup2\n      swap1\n      mstore\n      pop\n        /* \"contracts/StructsEnumsModifiers.sol\":741:753  Status.Taken */\n      0x00\n        /* \"contracts/StructsEnumsModifiers.sol\":726:731  order */\n      dup2\n        /* \"contracts/StructsEnumsModifiers.sol\":726:738  order.status */\n      0x60\n      add\n        /* \"contracts/StructsEnumsModifiers.sol\":726:753  order.status = Status.Taken */\n      swap1\n      0x03\n      dup2\n      gt\n      iszero\n      tag_53\n      jumpi\n      tag_54\n      tag_55\n      jump\t// in\n    tag_54:\n    tag_53:\n      swap1\n      dup2\n      0x03\n      dup2\n      gt\n      iszero\n      tag_56\n      jumpi\n      tag_57\n      tag_55\n      jump\t// in\n    tag_57:\n    tag_56:\n      dup2\n      mstore\n      pop\n      pop\n        /* \"contracts/StructsEnumsModifiers.sol\":763:769  orders */\n      0x00\n        /* \"contracts/StructsEnumsModifiers.sol\":775:780  order */\n      dup2\n        /* \"contracts/StructsEnumsModifiers.sol\":763:781  orders.push(order) */\n      swap1\n      dup1\n      0x01\n      dup2\n      sload\n      add\n      dup1\n      dup3\n      sstore\n      dup1\n      swap2\n      pop\n      pop\n      0x01\n      swap1\n      sub\n      swap1\n      0x00\n      mstore\n      keccak256(0x00, 0x20)\n      swap1\n      0x04\n      mul\n      add\n      0x00\n      swap1\n      swap2\n      swap1\n      swap2\n      swap1\n      swap2\n      pop\n      0x00\n      dup3\n      add\n      mload\n      dup2\n      0x00\n      add\n      exp(0x0100, 0x00)\n      dup2\n      sload\n      dup2\n      0xffffffffffffffffffffffffffffffffffffffff\n      mul\n      not\n      and\n      swap1\n      dup4\n      0xffffffffffffffffffffffffffffffffffffffff\n      and\n      mul\n      or\n      swap1\n      sstore\n      pop\n      0x20\n      dup3\n      add\n      mload\n      dup2\n      0x01\n      add\n      swap1\n      dup1\n      mload\n      swap1\n      0x20\n      add\n      swap1\n      tag_59\n      swap3\n      swap2\n      swap1\n      tag_46\n      jump\t// in\n    tag_59:\n      pop\n      0x40\n      dup3\n      add\n      mload\n      dup2\n      0x02\n      add\n      swap1\n      dup1\n      mload\n      swap1\n      0x20\n      add\n      swap1\n      tag_60\n      swap3\n      swap2\n      swap1\n      tag_61\n      jump\t// in\n    tag_60:\n      pop\n      0x60\n      dup3\n      add\n      mload\n      dup2\n      0x03\n      add\n      exp(0x0100, 0x00)\n      dup2\n      sload\n      dup2\n      0xff\n      mul\n      not\n      and\n      swap1\n      dup4\n      0x03\n      dup2\n      gt\n      iszero\n      tag_62\n      jumpi\n      tag_63\n      tag_55\n      jump\t// in\n    tag_63:\n    tag_62:\n      mul\n      or\n      swap1\n      sstore\n      pop\n      pop\n      pop\n        /* \"contracts/StructsEnumsModifiers.sol\":815:816  1 */\n      0x01\n        /* \"contracts/StructsEnumsModifiers.sol\":799:805  orders */\n      0x00\n        /* \"contracts/StructsEnumsModifiers.sol\":799:812  orders.length */\n      dup1\n      sload\n      swap1\n      pop\n        /* \"contracts/StructsEnumsModifiers.sol\":799:816  orders.length - 1 */\n      tag_64\n      swap2\n      swap1\n      tag_65\n      jump\t// in\n    tag_64:\n        /* \"contracts/StructsEnumsModifiers.sol\":792:816  return orders.length - 1 */\n      swap2\n      pop\n      pop\n        /* \"contracts/StructsEnumsModifiers.sol\":428:823  function createOrder(string memory _zipCode, uint256[] memory _products) external returns(uint256){... */\n      swap3\n      swap2\n      pop\n      pop\n      jump\t// out\n        /* \"contracts/StructsEnumsModifiers.sol\":346:366  address public owner */\n    tag_19:\n      0x01\n      0x00\n      swap1\n      sload\n      swap1\n      0x0100\n      exp\n      swap1\n      div\n      0xffffffffffffffffffffffffffffffffffffffff\n      and\n      dup2\n      jump\t// out\n        /* \"contracts/StructsEnumsModifiers.sol\":319:340  Order[] public orders */\n    tag_25:\n      0x00\n      dup2\n      dup2\n      sload\n      dup2\n      lt\n      tag_66\n      jumpi\n      0x00\n      dup1\n      revert\n    tag_66:\n      swap1\n      0x00\n      mstore\n      keccak256(0x00, 0x20)\n      swap1\n      0x04\n      mul\n      add\n      0x00\n      swap2\n      pop\n      swap1\n      pop\n      dup1\n      0x00\n      add\n      0x00\n      swap1\n      sload\n      swap1\n      0x0100\n      exp\n      swap1\n      div\n      0xffffffffffffffffffffffffffffffffffffffff\n      and\n      swap1\n      dup1\n      0x01\n      add\n      dup1\n      sload\n      tag_68\n      swap1\n      tag_69\n      jump\t// in\n    tag_68:\n      dup1\n      0x1f\n      add\n      0x20\n      dup1\n      swap2\n      div\n      mul\n      0x20\n      add\n      mload(0x40)\n      swap1\n      dup2\n      add\n      0x40\n      mstore\n      dup1\n      swap3\n      swap2\n      swap1\n      dup2\n      dup2\n      mstore\n      0x20\n      add\n      dup3\n      dup1\n      sload\n      tag_70\n      swap1\n      tag_69\n      jump\t// in\n    tag_70:\n      dup1\n      iszero\n      tag_71\n      jumpi\n      dup1\n      0x1f\n      lt\n      tag_72\n      jumpi\n      0x0100\n      dup1\n      dup4\n      sload\n      div\n      mul\n      dup4\n      mstore\n      swap2\n      0x20\n      add\n      swap2\n      jump(tag_71)\n    tag_72:\n      dup3\n      add\n      swap2\n      swap1\n      0x00\n      mstore\n      keccak256(0x00, 0x20)\n      swap1\n    tag_73:\n      dup2\n      sload\n      dup2\n      mstore\n      swap1\n      0x01\n      add\n      swap1\n      0x20\n      add\n      dup1\n      dup4\n      gt\n      tag_73\n      jumpi\n      dup3\n      swap1\n      sub\n      0x1f\n      and\n      dup3\n      add\n      swap2\n    tag_71:\n      pop\n      pop\n      pop\n      pop\n      pop\n      swap1\n      dup1\n      0x03\n      add\n      0x00\n      swap1\n      sload\n      swap1\n      0x0100\n      exp\n      swap1\n      div\n      0xff\n      and\n      swap1\n      pop\n      dup4\n      jump\t// out\n        /* \"contracts/StructsEnumsModifiers.sol\":829:1428  function advanceOrder(uint256 _orderId) external {... */\n    tag_30:\n        /* \"contracts/StructsEnumsModifiers.sol\":910:915  owner */\n      0x01\n      0x00\n      swap1\n      sload\n      swap1\n      0x0100\n      exp\n      swap1\n      div\n      0xffffffffffffffffffffffffffffffffffffffff\n      and\n        /* \"contracts/StructsEnumsModifiers.sol\":896:915  msg.sender == owner */\n      0xffffffffffffffffffffffffffffffffffffffff\n      and\n        /* \"contracts/StructsEnumsModifiers.sol\":896:906  msg.sender */\n      caller\n        /* \"contracts/StructsEnumsModifiers.sol\":896:915  msg.sender == owner */\n      0xffffffffffffffffffffffffffffffffffffffff\n      and\n      eq\n        /* \"contracts/StructsEnumsModifiers.sol\":888:942  require(msg.sender == owner, \"You're not authorized.\") */\n      tag_75\n      jumpi\n      mload(0x40)\n      0x08c379a000000000000000000000000000000000000000000000000000000000\n      dup2\n      mstore\n      0x04\n      add\n      tag_76\n      swap1\n      tag_77\n      jump\t// in\n    tag_76:\n      mload(0x40)\n      dup1\n      swap2\n      sub\n      swap1\n      revert\n    tag_75:\n        /* \"contracts/StructsEnumsModifiers.sol\":971:977  orders */\n      0x00\n        /* \"contracts/StructsEnumsModifiers.sol\":971:984  orders.length */\n      dup1\n      sload\n      swap1\n      pop\n        /* \"contracts/StructsEnumsModifiers.sol\":960:968  _orderId */\n      dup2\n        /* \"contracts/StructsEnumsModifiers.sol\":960:984  _orderId < orders.length */\n      lt\n        /* \"contracts/StructsEnumsModifiers.sol\":952:1009  require(_orderId < orders.length, \"Not a valid order id\") */\n      tag_78\n      jumpi\n      mload(0x40)\n      0x08c379a000000000000000000000000000000000000000000000000000000000\n      dup2\n      mstore\n      0x04\n      add\n      tag_79\n      swap1\n      tag_34\n      jump\t// in\n    tag_79:\n      mload(0x40)\n      dup1\n      swap2\n      sub\n      swap1\n      revert\n    tag_78:\n        /* \"contracts/StructsEnumsModifiers.sol\":1020:1039  Order storage order */\n      0x00\n        /* \"contracts/StructsEnumsModifiers.sol\":1042:1048  orders */\n      dup1\n        /* \"contracts/StructsEnumsModifiers.sol\":1049:1057  _orderId */\n      dup3\n        /* \"contracts/StructsEnumsModifiers.sol\":1042:1058  orders[_orderId] */\n      dup2\n      sload\n      dup2\n      lt\n      tag_80\n      jumpi\n      tag_81\n      tag_37\n      jump\t// in\n    tag_81:\n    tag_80:\n      swap1\n      0x00\n      mstore\n      keccak256(0x00, 0x20)\n      swap1\n      0x04\n      mul\n      add\n        /* \"contracts/StructsEnumsModifiers.sol\":1020:1058  Order storage order = orders[_orderId] */\n      swap1\n      pop\n        /* \"contracts/StructsEnumsModifiers.sol\":1092:1106  Status.Shipped */\n      0x03\n        /* \"contracts/StructsEnumsModifiers.sol\":1076:1106  order.status != Status.Shipped */\n      dup1\n      dup2\n      gt\n      iszero\n      tag_83\n      jumpi\n      tag_84\n      tag_55\n      jump\t// in\n    tag_84:\n    tag_83:\n        /* \"contracts/StructsEnumsModifiers.sol\":1076:1081  order */\n      dup2\n        /* \"contracts/StructsEnumsModifiers.sol\":1076:1088  order.status */\n      0x03\n      add\n      0x00\n      swap1\n      sload\n      swap1\n      0x0100\n      exp\n      swap1\n      div\n      0xff\n      and\n        /* \"contracts/StructsEnumsModifiers.sol\":1076:1106  order.status != Status.Shipped */\n      0x03\n      dup2\n      gt\n      iszero\n      tag_85\n      jumpi\n      tag_86\n      tag_55\n      jump\t// in\n    tag_86:\n    tag_85:\n      eq\n      iszero\n        /* \"contracts/StructsEnumsModifiers.sol\":1068:1136  require(order.status != Status.Shipped, \"Order is already shipped.\") */\n      tag_87\n      jumpi\n      mload(0x40)\n      0x08c379a000000000000000000000000000000000000000000000000000000000\n      dup2\n      mstore\n      0x04\n      add\n      tag_88\n      swap1\n      tag_89\n      jump\t// in\n    tag_88:\n      mload(0x40)\n      dup1\n      swap2\n      sub\n      swap1\n      revert\n    tag_87:\n        /* \"contracts/StructsEnumsModifiers.sol\":1166:1178  Status.Taken */\n      0x00\n        /* \"contracts/StructsEnumsModifiers.sol\":1150:1178  order.status == Status.Taken */\n      0x03\n      dup2\n      gt\n      iszero\n      tag_90\n      jumpi\n      tag_91\n      tag_55\n      jump\t// in\n    tag_91:\n    tag_90:\n        /* \"contracts/StructsEnumsModifiers.sol\":1150:1155  order */\n      dup2\n        /* \"contracts/StructsEnumsModifiers.sol\":1150:1162  order.status */\n      0x03\n      add\n      0x00\n      swap1\n      sload\n      swap1\n      0x0100\n      exp\n      swap1\n      div\n      0xff\n      and\n        /* \"contracts/StructsEnumsModifiers.sol\":1150:1178  order.status == Status.Taken */\n      0x03\n      dup2\n      gt\n      iszero\n      tag_92\n      jumpi\n      tag_93\n      tag_55\n      jump\t// in\n    tag_93:\n    tag_92:\n      eq\n        /* \"contracts/StructsEnumsModifiers.sol\":1147:1422  if(order.status == Status.Taken) {... */\n      iszero\n      tag_94\n      jumpi\n        /* \"contracts/StructsEnumsModifiers.sol\":1209:1225  Status.Preparing */\n      0x01\n        /* \"contracts/StructsEnumsModifiers.sol\":1194:1199  order */\n      dup2\n        /* \"contracts/StructsEnumsModifiers.sol\":1194:1206  order.status */\n      0x03\n      add\n      0x00\n        /* \"contracts/StructsEnumsModifiers.sol\":1194:1225  order.status = Status.Preparing */\n      0x0100\n      exp\n      dup2\n      sload\n      dup2\n      0xff\n      mul\n      not\n      and\n      swap1\n      dup4\n      0x03\n      dup2\n      gt\n      iszero\n      tag_95\n      jumpi\n      tag_96\n      tag_55\n      jump\t// in\n    tag_96:\n    tag_95:\n      mul\n      or\n      swap1\n      sstore\n      pop\n        /* \"contracts/StructsEnumsModifiers.sol\":1147:1422  if(order.status == Status.Taken) {... */\n      jump(tag_97)\n    tag_94:\n        /* \"contracts/StructsEnumsModifiers.sol\":1261:1277  Status.Preparing */\n      0x01\n        /* \"contracts/StructsEnumsModifiers.sol\":1245:1277  order.status == Status.Preparing */\n      0x03\n      dup2\n      gt\n      iszero\n      tag_98\n      jumpi\n      tag_99\n      tag_55\n      jump\t// in\n    tag_99:\n    tag_98:\n        /* \"contracts/StructsEnumsModifiers.sol\":1245:1250  order */\n      dup2\n        /* \"contracts/StructsEnumsModifiers.sol\":1245:1257  order.status */\n      0x03\n      add\n      0x00\n      swap1\n      sload\n      swap1\n      0x0100\n      exp\n      swap1\n      div\n      0xff\n      and\n        /* \"contracts/StructsEnumsModifiers.sol\":1245:1277  order.status == Status.Preparing */\n      0x03\n      dup2\n      gt\n      iszero\n      tag_100\n      jumpi\n      tag_101\n      tag_55\n      jump\t// in\n    tag_101:\n    tag_100:\n      eq\n        /* \"contracts/StructsEnumsModifiers.sol\":1242:1422  if(order.status == Status.Preparing){... */\n      iszero\n      tag_102\n      jumpi\n        /* \"contracts/StructsEnumsModifiers.sol\":1307:1319  Status.Boxed */\n      0x02\n        /* \"contracts/StructsEnumsModifiers.sol\":1292:1297  order */\n      dup2\n        /* \"contracts/StructsEnumsModifiers.sol\":1292:1304  order.status */\n      0x03\n      add\n      0x00\n        /* \"contracts/StructsEnumsModifiers.sol\":1292:1319  order.status = Status.Boxed */\n      0x0100\n      exp\n      dup2\n      sload\n      dup2\n      0xff\n      mul\n      not\n      and\n      swap1\n      dup4\n      0x03\n      dup2\n      gt\n      iszero\n      tag_103\n      jumpi\n      tag_104\n      tag_55\n      jump\t// in\n    tag_104:\n    tag_103:\n      mul\n      or\n      swap1\n      sstore\n      pop\n        /* \"contracts/StructsEnumsModifiers.sol\":1242:1422  if(order.status == Status.Preparing){... */\n      jump(tag_105)\n    tag_102:\n        /* \"contracts/StructsEnumsModifiers.sol\":1355:1367  Status.Boxed */\n      0x02\n        /* \"contracts/StructsEnumsModifiers.sol\":1339:1367  order.status == Status.Boxed */\n      0x03\n      dup2\n      gt\n      iszero\n      tag_106\n      jumpi\n      tag_107\n      tag_55\n      jump\t// in\n    tag_107:\n    tag_106:\n        /* \"contracts/StructsEnumsModifiers.sol\":1339:1344  order */\n      dup2\n        /* \"contracts/StructsEnumsModifiers.sol\":1339:1351  order.status */\n      0x03\n      add\n      0x00\n      swap1\n      sload\n      swap1\n      0x0100\n      exp\n      swap1\n      div\n      0xff\n      and\n        /* \"contracts/StructsEnumsModifiers.sol\":1339:1367  order.status == Status.Boxed */\n      0x03\n      dup2\n      gt\n      iszero\n      tag_108\n      jumpi\n      tag_109\n      tag_55\n      jump\t// in\n    tag_109:\n    tag_108:\n      eq\n        /* \"contracts/StructsEnumsModifiers.sol\":1336:1422  if(order.status == Status.Boxed){... */\n      iszero\n      tag_110\n      jumpi\n        /* \"contracts/StructsEnumsModifiers.sol\":1397:1411  Status.Shipped */\n      0x03\n        /* \"contracts/StructsEnumsModifiers.sol\":1382:1387  order */\n      dup2\n        /* \"contracts/StructsEnumsModifiers.sol\":1382:1394  order.status */\n      0x03\n      add\n      0x00\n        /* \"contracts/StructsEnumsModifiers.sol\":1382:1411  order.status = Status.Shipped */\n      0x0100\n      exp\n      dup2\n      sload\n      dup2\n      0xff\n      mul\n      not\n      and\n      swap1\n      dup4\n      0x03\n      dup2\n      gt\n      iszero\n      tag_111\n      jumpi\n      tag_112\n      tag_55\n      jump\t// in\n    tag_112:\n    tag_111:\n      mul\n      or\n      swap1\n      sstore\n      pop\n        /* \"contracts/StructsEnumsModifiers.sol\":1336:1422  if(order.status == Status.Boxed){... */\n    tag_110:\n        /* \"contracts/StructsEnumsModifiers.sol\":1242:1422  if(order.status == Status.Preparing){... */\n    tag_105:\n        /* \"contracts/StructsEnumsModifiers.sol\":1147:1422  if(order.status == Status.Taken) {... */\n    tag_97:\n        /* \"contracts/StructsEnumsModifiers.sol\":878:1428  {... */\n      pop\n        /* \"contracts/StructsEnumsModifiers.sol\":829:1428  function advanceOrder(uint256 _orderId) external {... */\n      pop\n      jump\t// out\n    tag_46:\n      dup3\n      dup1\n      sload\n      tag_113\n      swap1\n      tag_69\n      jump\t// in\n    tag_113:\n      swap1\n      0x00\n      mstore\n      keccak256(0x00, 0x20)\n      swap1\n      0x1f\n      add\n      0x20\n      swap1\n      div\n      dup2\n      add\n      swap3\n      dup3\n      tag_115\n      jumpi\n      0x00\n      dup6\n      sstore\n      jump(tag_114)\n    tag_115:\n      dup3\n      0x1f\n      lt\n      tag_116\n      jumpi\n      dup1\n      mload\n      not(0xff)\n      and\n      dup4\n      dup1\n      add\n      or\n      dup6\n      sstore\n      jump(tag_114)\n    tag_116:\n      dup3\n      dup1\n      add\n      0x01\n      add\n      dup6\n      sstore\n      dup3\n      iszero\n      tag_114\n      jumpi\n      swap2\n      dup3\n      add\n    tag_117:\n      dup3\n      dup2\n      gt\n      iszero\n      tag_118\n      jumpi\n      dup3\n      mload\n      dup3\n      sstore\n      swap2\n      0x20\n      add\n      swap2\n      swap1\n      0x01\n      add\n      swap1\n      jump(tag_117)\n    tag_118:\n    tag_114:\n      pop\n      swap1\n      pop\n      tag_119\n      swap2\n      swap1\n      tag_120\n      jump\t// in\n    tag_119:\n      pop\n      swap1\n      jump\t// out\n    tag_52:\n      mload(0x40)\n      dup1\n      0x80\n      add\n      0x40\n      mstore\n      dup1\n      and(0xffffffffffffffffffffffffffffffffffffffff, 0x00)\n      dup2\n      mstore\n      0x20\n      add\n      0x60\n      dup2\n      mstore\n      0x20\n      add\n      0x60\n      dup2\n      mstore\n      0x20\n      add\n      0x00\n      0x03\n      dup2\n      gt\n      iszero\n      tag_121\n      jumpi\n      tag_122\n      tag_55\n      jump\t// in\n    tag_122:\n    tag_121:\n      dup2\n      mstore\n      pop\n      swap1\n      jump\t// out\n    tag_61:\n      dup3\n      dup1\n      sload\n      dup3\n      dup3\n      sstore\n      swap1\n      0x00\n      mstore\n      keccak256(0x00, 0x20)\n      swap1\n      dup2\n      add\n      swap3\n      dup3\n      iszero\n      tag_123\n      jumpi\n      swap2\n      0x20\n      mul\n      dup3\n      add\n    tag_124:\n      dup3\n      dup2\n      gt\n      iszero\n      tag_125\n      jumpi\n      dup3\n      mload\n      dup3\n      sstore\n      swap2\n      0x20\n      add\n      swap2\n      swap1\n      0x01\n      add\n      swap1\n      jump(tag_124)\n    tag_125:\n    tag_123:\n      pop\n      swap1\n      pop\n      tag_126\n      swap2\n      swap1\n      tag_120\n      jump\t// in\n    tag_126:\n      pop\n      swap1\n      jump\t// out\n    tag_120:\n    tag_127:\n      dup1\n      dup3\n      gt\n      iszero\n      tag_128\n      jumpi\n      0x00\n      dup2\n      0x00\n      swap1\n      sstore\n      pop\n      0x01\n      add\n      jump(tag_127)\n    tag_128:\n      pop\n      swap1\n      jump\t// out\n        /* \"#utility.yul\":24:746   */\n    tag_130:\n        /* \"#utility.yul\":120:125   */\n      0x00\n        /* \"#utility.yul\":145:226   */\n      tag_132\n        /* \"#utility.yul\":161:225   */\n      tag_133\n        /* \"#utility.yul\":218:224   */\n      dup5\n        /* \"#utility.yul\":161:225   */\n      tag_134\n      jump\t// in\n    tag_133:\n        /* \"#utility.yul\":145:226   */\n      tag_135\n      jump\t// in\n    tag_132:\n        /* \"#utility.yul\":136:226   */\n      swap1\n      pop\n        /* \"#utility.yul\":246:251   */\n      dup1\n        /* \"#utility.yul\":275:281   */\n      dup4\n        /* \"#utility.yul\":268:273   */\n      dup3\n        /* \"#utility.yul\":261:282   */\n      mstore\n        /* \"#utility.yul\":309:313   */\n      0x20\n        /* \"#utility.yul\":302:307   */\n      dup3\n        /* \"#utility.yul\":298:314   */\n      add\n        /* \"#utility.yul\":291:314   */\n      swap1\n      pop\n        /* \"#utility.yul\":335:341   */\n      dup3\n        /* \"#utility.yul\":385:388   */\n      dup6\n        /* \"#utility.yul\":377:381   */\n      0x20\n        /* \"#utility.yul\":369:375   */\n      dup7\n        /* \"#utility.yul\":365:382   */\n      mul\n        /* \"#utility.yul\":360:363   */\n      dup3\n        /* \"#utility.yul\":356:383   */\n      add\n        /* \"#utility.yul\":353:389   */\n      gt\n        /* \"#utility.yul\":350:493   */\n      iszero\n      tag_136\n      jumpi\n        /* \"#utility.yul\":404:483   */\n      tag_137\n      tag_138\n      jump\t// in\n    tag_137:\n        /* \"#utility.yul\":350:493   */\n    tag_136:\n        /* \"#utility.yul\":517:518   */\n      0x00\n        /* \"#utility.yul\":502:740   */\n    tag_139:\n        /* \"#utility.yul\":527:533   */\n      dup6\n        /* \"#utility.yul\":524:525   */\n      dup2\n        /* \"#utility.yul\":521:534   */\n      lt\n        /* \"#utility.yul\":502:740   */\n      iszero\n      tag_141\n      jumpi\n        /* \"#utility.yul\":595:598   */\n      dup2\n        /* \"#utility.yul\":624:661   */\n      tag_142\n        /* \"#utility.yul\":657:660   */\n      dup9\n        /* \"#utility.yul\":645:655   */\n      dup3\n        /* \"#utility.yul\":624:661   */\n      tag_143\n      jump\t// in\n    tag_142:\n        /* \"#utility.yul\":619:622   */\n      dup5\n        /* \"#utility.yul\":612:662   */\n      mstore\n        /* \"#utility.yul\":691:695   */\n      0x20\n        /* \"#utility.yul\":686:689   */\n      dup5\n        /* \"#utility.yul\":682:696   */\n      add\n        /* \"#utility.yul\":675:696   */\n      swap4\n      pop\n        /* \"#utility.yul\":725:729   */\n      0x20\n        /* \"#utility.yul\":720:723   */\n      dup4\n        /* \"#utility.yul\":716:730   */\n      add\n        /* \"#utility.yul\":709:730   */\n      swap3\n      pop\n        /* \"#utility.yul\":562:740   */\n      pop\n        /* \"#utility.yul\":549:550   */\n      0x01\n        /* \"#utility.yul\":546:547   */\n      dup2\n        /* \"#utility.yul\":542:551   */\n      add\n        /* \"#utility.yul\":537:551   */\n      swap1\n      pop\n        /* \"#utility.yul\":502:740   */\n      jump(tag_139)\n    tag_141:\n        /* \"#utility.yul\":506:520   */\n      pop\n        /* \"#utility.yul\":126:746   */\n      pop\n      pop\n        /* \"#utility.yul\":24:746   */\n      swap4\n      swap3\n      pop\n      pop\n      pop\n      jump\t// out\n        /* \"#utility.yul\":752:1164   */\n    tag_144:\n        /* \"#utility.yul\":830:835   */\n      0x00\n        /* \"#utility.yul\":855:921   */\n      tag_146\n        /* \"#utility.yul\":871:920   */\n      tag_147\n        /* \"#utility.yul\":913:919   */\n      dup5\n        /* \"#utility.yul\":871:920   */\n      tag_148\n      jump\t// in\n    tag_147:\n        /* \"#utility.yul\":855:921   */\n      tag_135\n      jump\t// in\n    tag_146:\n        /* \"#utility.yul\":846:921   */\n      swap1\n      pop\n        /* \"#utility.yul\":944:950   */\n      dup3\n        /* \"#utility.yul\":937:942   */\n      dup2\n        /* \"#utility.yul\":930:951   */\n      mstore\n        /* \"#utility.yul\":982:986   */\n      0x20\n        /* \"#utility.yul\":975:980   */\n      dup2\n        /* \"#utility.yul\":971:987   */\n      add\n        /* \"#utility.yul\":1020:1023   */\n      dup5\n        /* \"#utility.yul\":1011:1017   */\n      dup5\n        /* \"#utility.yul\":1006:1009   */\n      dup5\n        /* \"#utility.yul\":1002:1018   */\n      add\n        /* \"#utility.yul\":999:1024   */\n      gt\n        /* \"#utility.yul\":996:1108   */\n      iszero\n      tag_149\n      jumpi\n        /* \"#utility.yul\":1027:1106   */\n      tag_150\n      tag_151\n      jump\t// in\n    tag_150:\n        /* \"#utility.yul\":996:1108   */\n    tag_149:\n        /* \"#utility.yul\":1117:1158   */\n      tag_152\n        /* \"#utility.yul\":1151:1157   */\n      dup5\n        /* \"#utility.yul\":1146:1149   */\n      dup3\n        /* \"#utility.yul\":1141:1144   */\n      dup6\n        /* \"#utility.yul\":1117:1158   */\n      tag_153\n      jump\t// in\n    tag_152:\n        /* \"#utility.yul\":836:1164   */\n      pop\n        /* \"#utility.yul\":752:1164   */\n      swap4\n      swap3\n      pop\n      pop\n      pop\n      jump\t// out\n        /* \"#utility.yul\":1187:1557   */\n    tag_154:\n        /* \"#utility.yul\":1258:1263   */\n      0x00\n        /* \"#utility.yul\":1307:1310   */\n      dup3\n        /* \"#utility.yul\":1300:1304   */\n      0x1f\n        /* \"#utility.yul\":1292:1298   */\n      dup4\n        /* \"#utility.yul\":1288:1305   */\n      add\n        /* \"#utility.yul\":1284:1311   */\n      slt\n        /* \"#utility.yul\":1274:1396   */\n      tag_156\n      jumpi\n        /* \"#utility.yul\":1315:1394   */\n      tag_157\n      tag_158\n      jump\t// in\n    tag_157:\n        /* \"#utility.yul\":1274:1396   */\n    tag_156:\n        /* \"#utility.yul\":1432:1438   */\n      dup2\n        /* \"#utility.yul\":1419:1439   */\n      calldataload\n        /* \"#utility.yul\":1457:1551   */\n      tag_159\n        /* \"#utility.yul\":1547:1550   */\n      dup5\n        /* \"#utility.yul\":1539:1545   */\n      dup3\n        /* \"#utility.yul\":1532:1536   */\n      0x20\n        /* \"#utility.yul\":1524:1530   */\n      dup7\n        /* \"#utility.yul\":1520:1537   */\n      add\n        /* \"#utility.yul\":1457:1551   */\n      tag_130\n      jump\t// in\n    tag_159:\n        /* \"#utility.yul\":1448:1551   */\n      swap2\n      pop\n        /* \"#utility.yul\":1264:1557   */\n      pop\n        /* \"#utility.yul\":1187:1557   */\n      swap3\n      swap2\n      pop\n      pop\n      jump\t// out\n        /* \"#utility.yul\":1577:1917   */\n    tag_160:\n        /* \"#utility.yul\":1633:1638   */\n      0x00\n        /* \"#utility.yul\":1682:1685   */\n      dup3\n        /* \"#utility.yul\":1675:1679   */\n      0x1f\n        /* \"#utility.yul\":1667:1673   */\n      dup4\n        /* \"#utility.yul\":1663:1680   */\n      add\n        /* \"#utility.yul\":1659:1686   */\n      slt\n        /* \"#utility.yul\":1649:1771   */\n      tag_162\n      jumpi\n        /* \"#utility.yul\":1690:1769   */\n      tag_163\n      tag_158\n      jump\t// in\n    tag_163:\n        /* \"#utility.yul\":1649:1771   */\n    tag_162:\n        /* \"#utility.yul\":1807:1813   */\n      dup2\n        /* \"#utility.yul\":1794:1814   */\n      calldataload\n        /* \"#utility.yul\":1832:1911   */\n      tag_164\n        /* \"#utility.yul\":1907:1910   */\n      dup5\n        /* \"#utility.yul\":1899:1905   */\n      dup3\n        /* \"#utility.yul\":1892:1896   */\n      0x20\n        /* \"#utility.yul\":1884:1890   */\n      dup7\n        /* \"#utility.yul\":1880:1897   */\n      add\n        /* \"#utility.yul\":1832:1911   */\n      tag_144\n      jump\t// in\n    tag_164:\n        /* \"#utility.yul\":1823:1911   */\n      swap2\n      pop\n        /* \"#utility.yul\":1639:1917   */\n      pop\n        /* \"#utility.yul\":1577:1917   */\n      swap3\n      swap2\n      pop\n      pop\n      jump\t// out\n        /* \"#utility.yul\":1923:2062   */\n    tag_143:\n        /* \"#utility.yul\":1969:1974   */\n      0x00\n        /* \"#utility.yul\":2007:2013   */\n      dup2\n        /* \"#utility.yul\":1994:2014   */\n      calldataload\n        /* \"#utility.yul\":1985:2014   */\n      swap1\n      pop\n        /* \"#utility.yul\":2023:2056   */\n      tag_166\n        /* \"#utility.yul\":2050:2055   */\n      dup2\n        /* \"#utility.yul\":2023:2056   */\n      tag_167\n      jump\t// in\n    tag_166:\n        /* \"#utility.yul\":1923:2062   */\n      swap3\n      swap2\n      pop\n      pop\n      jump\t// out\n        /* \"#utility.yul\":2068:2932   */\n    tag_14:\n        /* \"#utility.yul\":2171:2177   */\n      0x00\n        /* \"#utility.yul\":2179:2185   */\n      dup1\n        /* \"#utility.yul\":2228:2230   */\n      0x40\n        /* \"#utility.yul\":2216:2225   */\n      dup4\n        /* \"#utility.yul\":2207:2214   */\n      dup6\n        /* \"#utility.yul\":2203:2226   */\n      sub\n        /* \"#utility.yul\":2199:2231   */\n      slt\n        /* \"#utility.yul\":2196:2315   */\n      iszero\n      tag_169\n      jumpi\n        /* \"#utility.yul\":2234:2313   */\n      tag_170\n      tag_171\n      jump\t// in\n    tag_170:\n        /* \"#utility.yul\":2196:2315   */\n    tag_169:\n        /* \"#utility.yul\":2382:2383   */\n      0x00\n        /* \"#utility.yul\":2371:2380   */\n      dup4\n        /* \"#utility.yul\":2367:2384   */\n      add\n        /* \"#utility.yul\":2354:2385   */\n      calldataload\n        /* \"#utility.yul\":2412:2430   */\n      0xffffffffffffffff\n        /* \"#utility.yul\":2404:2410   */\n      dup2\n        /* \"#utility.yul\":2401:2431   */\n      gt\n        /* \"#utility.yul\":2398:2515   */\n      iszero\n      tag_172\n      jumpi\n        /* \"#utility.yul\":2434:2513   */\n      tag_173\n      tag_174\n      jump\t// in\n    tag_173:\n        /* \"#utility.yul\":2398:2515   */\n    tag_172:\n        /* \"#utility.yul\":2539:2602   */\n      tag_175\n        /* \"#utility.yul\":2594:2601   */\n      dup6\n        /* \"#utility.yul\":2585:2591   */\n      dup3\n        /* \"#utility.yul\":2574:2583   */\n      dup7\n        /* \"#utility.yul\":2570:2592   */\n      add\n        /* \"#utility.yul\":2539:2602   */\n      tag_160\n      jump\t// in\n    tag_175:\n        /* \"#utility.yul\":2529:2602   */\n      swap3\n      pop\n        /* \"#utility.yul\":2325:2612   */\n      pop\n        /* \"#utility.yul\":2679:2681   */\n      0x20\n        /* \"#utility.yul\":2668:2677   */\n      dup4\n        /* \"#utility.yul\":2664:2682   */\n      add\n        /* \"#utility.yul\":2651:2683   */\n      calldataload\n        /* \"#utility.yul\":2710:2728   */\n      0xffffffffffffffff\n        /* \"#utility.yul\":2702:2708   */\n      dup2\n        /* \"#utility.yul\":2699:2729   */\n      gt\n        /* \"#utility.yul\":2696:2813   */\n      iszero\n      tag_176\n      jumpi\n        /* \"#utility.yul\":2732:2811   */\n      tag_177\n      tag_174\n      jump\t// in\n    tag_177:\n        /* \"#utility.yul\":2696:2813   */\n    tag_176:\n        /* \"#utility.yul\":2837:2915   */\n      tag_178\n        /* \"#utility.yul\":2907:2914   */\n      dup6\n        /* \"#utility.yul\":2898:2904   */\n      dup3\n        /* \"#utility.yul\":2887:2896   */\n      dup7\n        /* \"#utility.yul\":2883:2905   */\n      add\n        /* \"#utility.yul\":2837:2915   */\n      tag_154\n      jump\t// in\n    tag_178:\n        /* \"#utility.yul\":2827:2915   */\n      swap2\n      pop\n        /* \"#utility.yul\":2622:2925   */\n      pop\n        /* \"#utility.yul\":2068:2932   */\n      swap3\n      pop\n      swap3\n      swap1\n      pop\n      jump\t// out\n        /* \"#utility.yul\":2938:3267   */\n    tag_24:\n        /* \"#utility.yul\":2997:3003   */\n      0x00\n        /* \"#utility.yul\":3046:3048   */\n      0x20\n        /* \"#utility.yul\":3034:3043   */\n      dup3\n        /* \"#utility.yul\":3025:3032   */\n      dup5\n        /* \"#utility.yul\":3021:3044   */\n      sub\n        /* \"#utility.yul\":3017:3049   */\n      slt\n        /* \"#utility.yul\":3014:3133   */\n      iszero\n      tag_180\n      jumpi\n        /* \"#utility.yul\":3052:3131   */\n      tag_181\n      tag_171\n      jump\t// in\n    tag_181:\n        /* \"#utility.yul\":3014:3133   */\n    tag_180:\n        /* \"#utility.yul\":3172:3173   */\n      0x00\n        /* \"#utility.yul\":3197:3250   */\n      tag_182\n        /* \"#utility.yul\":3242:3249   */\n      dup5\n        /* \"#utility.yul\":3233:3239   */\n      dup3\n        /* \"#utility.yul\":3222:3231   */\n      dup6\n        /* \"#utility.yul\":3218:3240   */\n      add\n        /* \"#utility.yul\":3197:3250   */\n      tag_143\n      jump\t// in\n    tag_182:\n        /* \"#utility.yul\":3187:3250   */\n      swap2\n      pop\n        /* \"#utility.yul\":3143:3260   */\n      pop\n        /* \"#utility.yul\":2938:3267   */\n      swap3\n      swap2\n      pop\n      pop\n      jump\t// out\n        /* \"#utility.yul\":3273:3927   */\n    tag_10:\n        /* \"#utility.yul\":3351:3357   */\n      0x00\n        /* \"#utility.yul\":3359:3365   */\n      dup1\n        /* \"#utility.yul\":3408:3410   */\n      0x40\n        /* \"#utility.yul\":3396:3405   */\n      dup4\n        /* \"#utility.yul\":3387:3394   */\n      dup6\n        /* \"#utility.yul\":3383:3406   */\n      sub\n        /* \"#utility.yul\":3379:3411   */\n      slt\n        /* \"#utility.yul\":3376:3495   */\n      iszero\n      tag_184\n      jumpi\n        /* \"#utility.yul\":3414:3493   */\n      tag_185\n      tag_171\n      jump\t// in\n    tag_185:\n        /* \"#utility.yul\":3376:3495   */\n    tag_184:\n        /* \"#utility.yul\":3534:3535   */\n      0x00\n        /* \"#utility.yul\":3559:3612   */\n      tag_186\n        /* \"#utility.yul\":3604:3611   */\n      dup6\n        /* \"#utility.yul\":3595:3601   */\n      dup3\n        /* \"#utility.yul\":3584:3593   */\n      dup7\n        /* \"#utility.yul\":3580:3602   */\n      add\n        /* \"#utility.yul\":3559:3612   */\n      tag_143\n      jump\t// in\n    tag_186:\n        /* \"#utility.yul\":3549:3612   */\n      swap3\n      pop\n        /* \"#utility.yul\":3505:3622   */\n      pop\n        /* \"#utility.yul\":3689:3691   */\n      0x20\n        /* \"#utility.yul\":3678:3687   */\n      dup4\n        /* \"#utility.yul\":3674:3692   */\n      add\n        /* \"#utility.yul\":3661:3693   */\n      calldataload\n        /* \"#utility.yul\":3720:3738   */\n      0xffffffffffffffff\n        /* \"#utility.yul\":3712:3718   */\n      dup2\n        /* \"#utility.yul\":3709:3739   */\n      gt\n        /* \"#utility.yul\":3706:3823   */\n      iszero\n      tag_187\n      jumpi\n        /* \"#utility.yul\":3742:3821   */\n      tag_188\n      tag_174\n      jump\t// in\n    tag_188:\n        /* \"#utility.yul\":3706:3823   */\n    tag_187:\n        /* \"#utility.yul\":3847:3910   */\n      tag_189\n        /* \"#utility.yul\":3902:3909   */\n      dup6\n        /* \"#utility.yul\":3893:3899   */\n      dup3\n        /* \"#utility.yul\":3882:3891   */\n      dup7\n        /* \"#utility.yul\":3878:3900   */\n      add\n        /* \"#utility.yul\":3847:3910   */\n      tag_160\n      jump\t// in\n    tag_189:\n        /* \"#utility.yul\":3837:3910   */\n      swap2\n      pop\n        /* \"#utility.yul\":3632:3920   */\n      pop\n        /* \"#utility.yul\":3273:3927   */\n      swap3\n      pop\n      swap3\n      swap1\n      pop\n      jump\t// out\n        /* \"#utility.yul\":3933:4051   */\n    tag_190:\n        /* \"#utility.yul\":4020:4044   */\n      tag_192\n        /* \"#utility.yul\":4038:4043   */\n      dup2\n        /* \"#utility.yul\":4020:4044   */\n      tag_193\n      jump\t// in\n    tag_192:\n        /* \"#utility.yul\":4015:4018   */\n      dup3\n        /* \"#utility.yul\":4008:4045   */\n      mstore\n        /* \"#utility.yul\":3933:4051   */\n      pop\n      pop\n      jump\t// out\n        /* \"#utility.yul\":4057:4200   */\n    tag_194:\n        /* \"#utility.yul\":4150:4193   */\n      tag_196\n        /* \"#utility.yul\":4187:4192   */\n      dup2\n        /* \"#utility.yul\":4150:4193   */\n      tag_197\n      jump\t// in\n    tag_196:\n        /* \"#utility.yul\":4145:4148   */\n      dup3\n        /* \"#utility.yul\":4138:4194   */\n      mstore\n        /* \"#utility.yul\":4057:4200   */\n      pop\n      pop\n      jump\t// out\n        /* \"#utility.yul\":4206:4570   */\n    tag_198:\n        /* \"#utility.yul\":4294:4297   */\n      0x00\n        /* \"#utility.yul\":4322:4361   */\n      tag_200\n        /* \"#utility.yul\":4355:4360   */\n      dup3\n        /* \"#utility.yul\":4322:4361   */\n      tag_201\n      jump\t// in\n    tag_200:\n        /* \"#utility.yul\":4377:4448   */\n      tag_202\n        /* \"#utility.yul\":4441:4447   */\n      dup2\n        /* \"#utility.yul\":4436:4439   */\n      dup6\n        /* \"#utility.yul\":4377:4448   */\n      tag_203\n      jump\t// in\n    tag_202:\n        /* \"#utility.yul\":4370:4448   */\n      swap4\n      pop\n        /* \"#utility.yul\":4457:4509   */\n      tag_204\n        /* \"#utility.yul\":4502:4508   */\n      dup2\n        /* \"#utility.yul\":4497:4500   */\n      dup6\n        /* \"#utility.yul\":4490:4494   */\n      0x20\n        /* \"#utility.yul\":4483:4488   */\n      dup7\n        /* \"#utility.yul\":4479:4495   */\n      add\n        /* \"#utility.yul\":4457:4509   */\n      tag_205\n      jump\t// in\n    tag_204:\n        /* \"#utility.yul\":4534:4563   */\n      tag_206\n        /* \"#utility.yul\":4556:4562   */\n      dup2\n        /* \"#utility.yul\":4534:4563   */\n      tag_207\n      jump\t// in\n    tag_206:\n        /* \"#utility.yul\":4529:4532   */\n      dup5\n        /* \"#utility.yul\":4525:4564   */\n      add\n        /* \"#utility.yul\":4518:4564   */\n      swap2\n      pop\n        /* \"#utility.yul\":4298:4570   */\n      pop\n        /* \"#utility.yul\":4206:4570   */\n      swap3\n      swap2\n      pop\n      pop\n      jump\t// out\n        /* \"#utility.yul\":4576:4942   */\n    tag_208:\n        /* \"#utility.yul\":4718:4721   */\n      0x00\n        /* \"#utility.yul\":4739:4806   */\n      tag_210\n        /* \"#utility.yul\":4803:4805   */\n      0x19\n        /* \"#utility.yul\":4798:4801   */\n      dup4\n        /* \"#utility.yul\":4739:4806   */\n      tag_203\n      jump\t// in\n    tag_210:\n        /* \"#utility.yul\":4732:4806   */\n      swap2\n      pop\n        /* \"#utility.yul\":4815:4908   */\n      tag_211\n        /* \"#utility.yul\":4904:4907   */\n      dup3\n        /* \"#utility.yul\":4815:4908   */\n      tag_212\n      jump\t// in\n    tag_211:\n        /* \"#utility.yul\":4933:4935   */\n      0x20\n        /* \"#utility.yul\":4928:4931   */\n      dup3\n        /* \"#utility.yul\":4924:4936   */\n      add\n        /* \"#utility.yul\":4917:4936   */\n      swap1\n      pop\n        /* \"#utility.yul\":4576:4942   */\n      swap2\n      swap1\n      pop\n      jump\t// out\n        /* \"#utility.yul\":4948:5314   */\n    tag_213:\n        /* \"#utility.yul\":5090:5093   */\n      0x00\n        /* \"#utility.yul\":5111:5178   */\n      tag_215\n        /* \"#utility.yul\":5175:5177   */\n      0x0b\n        /* \"#utility.yul\":5170:5173   */\n      dup4\n        /* \"#utility.yul\":5111:5178   */\n      tag_203\n      jump\t// in\n    tag_215:\n        /* \"#utility.yul\":5104:5178   */\n      swap2\n      pop\n        /* \"#utility.yul\":5187:5280   */\n      tag_216\n        /* \"#utility.yul\":5276:5279   */\n      dup3\n        /* \"#utility.yul\":5187:5280   */\n      tag_217\n      jump\t// in\n    tag_216:\n        /* \"#utility.yul\":5305:5307   */\n      0x20\n        /* \"#utility.yul\":5300:5303   */\n      dup3\n        /* \"#utility.yul\":5296:5308   */\n      add\n        /* \"#utility.yul\":5289:5308   */\n      swap1\n      pop\n        /* \"#utility.yul\":4948:5314   */\n      swap2\n      swap1\n      pop\n      jump\t// out\n        /* \"#utility.yul\":5320:5686   */\n    tag_218:\n        /* \"#utility.yul\":5462:5465   */\n      0x00\n        /* \"#utility.yul\":5483:5550   */\n      tag_220\n        /* \"#utility.yul\":5547:5549   */\n      0x16\n        /* \"#utility.yul\":5542:5545   */\n      dup4\n        /* \"#utility.yul\":5483:5550   */\n      tag_203\n      jump\t// in\n    tag_220:\n        /* \"#utility.yul\":5476:5550   */\n      swap2\n      pop\n        /* \"#utility.yul\":5559:5652   */\n      tag_221\n        /* \"#utility.yul\":5648:5651   */\n      dup3\n        /* \"#utility.yul\":5559:5652   */\n      tag_222\n      jump\t// in\n    tag_221:\n        /* \"#utility.yul\":5677:5679   */\n      0x20\n        /* \"#utility.yul\":5672:5675   */\n      dup3\n        /* \"#utility.yul\":5668:5680   */\n      add\n        /* \"#utility.yul\":5661:5680   */\n      swap1\n      pop\n        /* \"#utility.yul\":5320:5686   */\n      swap2\n      swap1\n      pop\n      jump\t// out\n        /* \"#utility.yul\":5692:6058   */\n    tag_223:\n        /* \"#utility.yul\":5834:5837   */\n      0x00\n        /* \"#utility.yul\":5855:5922   */\n      tag_225\n        /* \"#utility.yul\":5919:5921   */\n      0x14\n        /* \"#utility.yul\":5914:5917   */\n      dup4\n        /* \"#utility.yul\":5855:5922   */\n      tag_203\n      jump\t// in\n    tag_225:\n        /* \"#utility.yul\":5848:5922   */\n      swap2\n      pop\n        /* \"#utility.yul\":5931:6024   */\n      tag_226\n        /* \"#utility.yul\":6020:6023   */\n      dup3\n        /* \"#utility.yul\":5931:6024   */\n      tag_227\n      jump\t// in\n    tag_226:\n        /* \"#utility.yul\":6049:6051   */\n      0x20\n        /* \"#utility.yul\":6044:6047   */\n      dup3\n        /* \"#utility.yul\":6040:6052   */\n      add\n        /* \"#utility.yul\":6033:6052   */\n      swap1\n      pop\n        /* \"#utility.yul\":5692:6058   */\n      swap2\n      swap1\n      pop\n      jump\t// out\n        /* \"#utility.yul\":6064:6430   */\n    tag_228:\n        /* \"#utility.yul\":6206:6209   */\n      0x00\n        /* \"#utility.yul\":6227:6294   */\n      tag_230\n        /* \"#utility.yul\":6291:6293   */\n      0x22\n        /* \"#utility.yul\":6286:6289   */\n      dup4\n        /* \"#utility.yul\":6227:6294   */\n      tag_203\n      jump\t// in\n    tag_230:\n        /* \"#utility.yul\":6220:6294   */\n      swap2\n      pop\n        /* \"#utility.yul\":6303:6396   */\n      tag_231\n        /* \"#utility.yul\":6392:6395   */\n      dup3\n        /* \"#utility.yul\":6303:6396   */\n      tag_232\n      jump\t// in\n    tag_231:\n        /* \"#utility.yul\":6421:6423   */\n      0x40\n        /* \"#utility.yul\":6416:6419   */\n      dup3\n        /* \"#utility.yul\":6412:6424   */\n      add\n        /* \"#utility.yul\":6405:6424   */\n      swap1\n      pop\n        /* \"#utility.yul\":6064:6430   */\n      swap2\n      swap1\n      pop\n      jump\t// out\n        /* \"#utility.yul\":6436:6554   */\n    tag_233:\n        /* \"#utility.yul\":6523:6547   */\n      tag_235\n        /* \"#utility.yul\":6541:6546   */\n      dup2\n        /* \"#utility.yul\":6523:6547   */\n      tag_236\n      jump\t// in\n    tag_235:\n        /* \"#utility.yul\":6518:6521   */\n      dup3\n        /* \"#utility.yul\":6511:6548   */\n      mstore\n        /* \"#utility.yul\":6436:6554   */\n      pop\n      pop\n      jump\t// out\n        /* \"#utility.yul\":6560:6782   */\n    tag_21:\n        /* \"#utility.yul\":6653:6657   */\n      0x00\n        /* \"#utility.yul\":6691:6693   */\n      0x20\n        /* \"#utility.yul\":6680:6689   */\n      dup3\n        /* \"#utility.yul\":6676:6694   */\n      add\n        /* \"#utility.yul\":6668:6694   */\n      swap1\n      pop\n        /* \"#utility.yul\":6704:6775   */\n      tag_238\n        /* \"#utility.yul\":6772:6773   */\n      0x00\n        /* \"#utility.yul\":6761:6770   */\n      dup4\n        /* \"#utility.yul\":6757:6774   */\n      add\n        /* \"#utility.yul\":6748:6754   */\n      dup5\n        /* \"#utility.yul\":6704:6775   */\n      tag_190\n      jump\t// in\n    tag_238:\n        /* \"#utility.yul\":6560:6782   */\n      swap3\n      swap2\n      pop\n      pop\n      jump\t// out\n        /* \"#utility.yul\":6788:7333   */\n    tag_27:\n        /* \"#utility.yul\":6963:6967   */\n      0x00\n        /* \"#utility.yul\":7001:7003   */\n      0x60\n        /* \"#utility.yul\":6990:6999   */\n      dup3\n        /* \"#utility.yul\":6986:7004   */\n      add\n        /* \"#utility.yul\":6978:7004   */\n      swap1\n      pop\n        /* \"#utility.yul\":7014:7085   */\n      tag_240\n        /* \"#utility.yul\":7082:7083   */\n      0x00\n        /* \"#utility.yul\":7071:7080   */\n      dup4\n        /* \"#utility.yul\":7067:7084   */\n      add\n        /* \"#utility.yul\":7058:7064   */\n      dup7\n        /* \"#utility.yul\":7014:7085   */\n      tag_190\n      jump\t// in\n    tag_240:\n        /* \"#utility.yul\":7132:7141   */\n      dup2\n        /* \"#utility.yul\":7126:7130   */\n      dup2\n        /* \"#utility.yul\":7122:7142   */\n      sub\n        /* \"#utility.yul\":7117:7119   */\n      0x20\n        /* \"#utility.yul\":7106:7115   */\n      dup4\n        /* \"#utility.yul\":7102:7120   */\n      add\n        /* \"#utility.yul\":7095:7143   */\n      mstore\n        /* \"#utility.yul\":7160:7238   */\n      tag_241\n        /* \"#utility.yul\":7233:7237   */\n      dup2\n        /* \"#utility.yul\":7224:7230   */\n      dup6\n        /* \"#utility.yul\":7160:7238   */\n      tag_198\n      jump\t// in\n    tag_241:\n        /* \"#utility.yul\":7152:7238   */\n      swap1\n      pop\n        /* \"#utility.yul\":7248:7326   */\n      tag_242\n        /* \"#utility.yul\":7322:7324   */\n      0x40\n        /* \"#utility.yul\":7311:7320   */\n      dup4\n        /* \"#utility.yul\":7307:7325   */\n      add\n        /* \"#utility.yul\":7298:7304   */\n      dup5\n        /* \"#utility.yul\":7248:7326   */\n      tag_194\n      jump\t// in\n    tag_242:\n        /* \"#utility.yul\":6788:7333   */\n      swap5\n      swap4\n      pop\n      pop\n      pop\n      pop\n      jump\t// out\n        /* \"#utility.yul\":7339:7758   */\n    tag_89:\n        /* \"#utility.yul\":7505:7509   */\n      0x00\n        /* \"#utility.yul\":7543:7545   */\n      0x20\n        /* \"#utility.yul\":7532:7541   */\n      dup3\n        /* \"#utility.yul\":7528:7546   */\n      add\n        /* \"#utility.yul\":7520:7546   */\n      swap1\n      pop\n        /* \"#utility.yul\":7592:7601   */\n      dup2\n        /* \"#utility.yul\":7586:7590   */\n      dup2\n        /* \"#utility.yul\":7582:7602   */\n      sub\n        /* \"#utility.yul\":7578:7579   */\n      0x00\n        /* \"#utility.yul\":7567:7576   */\n      dup4\n        /* \"#utility.yul\":7563:7580   */\n      add\n        /* \"#utility.yul\":7556:7603   */\n      mstore\n        /* \"#utility.yul\":7620:7751   */\n      tag_244\n        /* \"#utility.yul\":7746:7750   */\n      dup2\n        /* \"#utility.yul\":7620:7751   */\n      tag_208\n      jump\t// in\n    tag_244:\n        /* \"#utility.yul\":7612:7751   */\n      swap1\n      pop\n        /* \"#utility.yul\":7339:7758   */\n      swap2\n      swap1\n      pop\n      jump\t// out\n        /* \"#utility.yul\":7764:8183   */\n    tag_50:\n        /* \"#utility.yul\":7930:7934   */\n      0x00\n        /* \"#utility.yul\":7968:7970   */\n      0x20\n        /* \"#utility.yul\":7957:7966   */\n      dup3\n        /* \"#utility.yul\":7953:7971   */\n      add\n        /* \"#utility.yul\":7945:7971   */\n      swap1\n      pop\n        /* \"#utility.yul\":8017:8026   */\n      dup2\n        /* \"#utility.yul\":8011:8015   */\n      dup2\n        /* \"#utility.yul\":8007:8027   */\n      sub\n        /* \"#utility.yul\":8003:8004   */\n      0x00\n        /* \"#utility.yul\":7992:8001   */\n      dup4\n        /* \"#utility.yul\":7988:8005   */\n      add\n        /* \"#utility.yul\":7981:8028   */\n      mstore\n        /* \"#utility.yul\":8045:8176   */\n      tag_246\n        /* \"#utility.yul\":8171:8175   */\n      dup2\n        /* \"#utility.yul\":8045:8176   */\n      tag_213\n      jump\t// in\n    tag_246:\n        /* \"#utility.yul\":8037:8176   */\n      swap1\n      pop\n        /* \"#utility.yul\":7764:8183   */\n      swap2\n      swap1\n      pop\n      jump\t// out\n        /* \"#utility.yul\":8189:8608   */\n    tag_77:\n        /* \"#utility.yul\":8355:8359   */\n      0x00\n        /* \"#utility.yul\":8393:8395   */\n      0x20\n        /* \"#utility.yul\":8382:8391   */\n      dup3\n        /* \"#utility.yul\":8378:8396   */\n      add\n        /* \"#utility.yul\":8370:8396   */\n      swap1\n      pop\n        /* \"#utility.yul\":8442:8451   */\n      dup2\n        /* \"#utility.yul\":8436:8440   */\n      dup2\n        /* \"#utility.yul\":8432:8452   */\n      sub\n        /* \"#utility.yul\":8428:8429   */\n      0x00\n        /* \"#utility.yul\":8417:8426   */\n      dup4\n        /* \"#utility.yul\":8413:8430   */\n      add\n        /* \"#utility.yul\":8406:8453   */\n      mstore\n        /* \"#utility.yul\":8470:8601   */\n      tag_248\n        /* \"#utility.yul\":8596:8600   */\n      dup2\n        /* \"#utility.yul\":8470:8601   */\n      tag_218\n      jump\t// in\n    tag_248:\n        /* \"#utility.yul\":8462:8601   */\n      swap1\n      pop\n        /* \"#utility.yul\":8189:8608   */\n      swap2\n      swap1\n      pop\n      jump\t// out\n        /* \"#utility.yul\":8614:9033   */\n    tag_34:\n        /* \"#utility.yul\":8780:8784   */\n      0x00\n        /* \"#utility.yul\":8818:8820   */\n      0x20\n        /* \"#utility.yul\":8807:8816   */\n      dup3\n        /* \"#utility.yul\":8803:8821   */\n      add\n        /* \"#utility.yul\":8795:8821   */\n      swap1\n      pop\n        /* \"#utility.yul\":8867:8876   */\n      dup2\n        /* \"#utility.yul\":8861:8865   */\n      dup2\n        /* \"#utility.yul\":8857:8877   */\n      sub\n        /* \"#utility.yul\":8853:8854   */\n      0x00\n        /* \"#utility.yul\":8842:8851   */\n      dup4\n        /* \"#utility.yul\":8838:8855   */\n      add\n        /* \"#utility.yul\":8831:8878   */\n      mstore\n        /* \"#utility.yul\":8895:9026   */\n      tag_250\n        /* \"#utility.yul\":9021:9025   */\n      dup2\n        /* \"#utility.yul\":8895:9026   */\n      tag_223\n      jump\t// in\n    tag_250:\n        /* \"#utility.yul\":8887:9026   */\n      swap1\n      pop\n        /* \"#utility.yul\":8614:9033   */\n      swap2\n      swap1\n      pop\n      jump\t// out\n        /* \"#utility.yul\":9039:9458   */\n    tag_41:\n        /* \"#utility.yul\":9205:9209   */\n      0x00\n        /* \"#utility.yul\":9243:9245   */\n      0x20\n        /* \"#utility.yul\":9232:9241   */\n      dup3\n        /* \"#utility.yul\":9228:9246   */\n      add\n        /* \"#utility.yul\":9220:9246   */\n      swap1\n      pop\n        /* \"#utility.yul\":9292:9301   */\n      dup2\n        /* \"#utility.yul\":9286:9290   */\n      dup2\n        /* \"#utility.yul\":9282:9302   */\n      sub\n        /* \"#utility.yul\":9278:9279   */\n      0x00\n        /* \"#utility.yul\":9267:9276   */\n      dup4\n        /* \"#utility.yul\":9263:9280   */\n      add\n        /* \"#utility.yul\":9256:9303   */\n      mstore\n        /* \"#utility.yul\":9320:9451   */\n      tag_252\n        /* \"#utility.yul\":9446:9450   */\n      dup2\n        /* \"#utility.yul\":9320:9451   */\n      tag_228\n      jump\t// in\n    tag_252:\n        /* \"#utility.yul\":9312:9451   */\n      swap1\n      pop\n        /* \"#utility.yul\":9039:9458   */\n      swap2\n      swap1\n      pop\n      jump\t// out\n        /* \"#utility.yul\":9464:9686   */\n    tag_17:\n        /* \"#utility.yul\":9557:9561   */\n      0x00\n        /* \"#utility.yul\":9595:9597   */\n      0x20\n        /* \"#utility.yul\":9584:9593   */\n      dup3\n        /* \"#utility.yul\":9580:9598   */\n      add\n        /* \"#utility.yul\":9572:9598   */\n      swap1\n      pop\n        /* \"#utility.yul\":9608:9679   */\n      tag_254\n        /* \"#utility.yul\":9676:9677   */\n      0x00\n        /* \"#utility.yul\":9665:9674   */\n      dup4\n        /* \"#utility.yul\":9661:9678   */\n      add\n        /* \"#utility.yul\":9652:9658   */\n      dup5\n        /* \"#utility.yul\":9608:9679   */\n      tag_233\n      jump\t// in\n    tag_254:\n        /* \"#utility.yul\":9464:9686   */\n      swap3\n      swap2\n      pop\n      pop\n      jump\t// out\n        /* \"#utility.yul\":9692:9821   */\n    tag_135:\n        /* \"#utility.yul\":9726:9732   */\n      0x00\n        /* \"#utility.yul\":9753:9773   */\n      tag_256\n      tag_257\n      jump\t// in\n    tag_256:\n        /* \"#utility.yul\":9743:9773   */\n      swap1\n      pop\n        /* \"#utility.yul\":9782:9815   */\n      tag_258\n        /* \"#utility.yul\":9810:9814   */\n      dup3\n        /* \"#utility.yul\":9802:9808   */\n      dup3\n        /* \"#utility.yul\":9782:9815   */\n      tag_259\n      jump\t// in\n    tag_258:\n        /* \"#utility.yul\":9692:9821   */\n      swap2\n      swap1\n      pop\n      jump\t// out\n        /* \"#utility.yul\":9827:9902   */\n    tag_257:\n        /* \"#utility.yul\":9860:9866   */\n      0x00\n        /* \"#utility.yul\":9893:9895   */\n      0x40\n        /* \"#utility.yul\":9887:9896   */\n      mload\n        /* \"#utility.yul\":9877:9896   */\n      swap1\n      pop\n        /* \"#utility.yul\":9827:9902   */\n      swap1\n      jump\t// out\n        /* \"#utility.yul\":9908:10219   */\n    tag_134:\n        /* \"#utility.yul\":9985:9989   */\n      0x00\n        /* \"#utility.yul\":10075:10093   */\n      0xffffffffffffffff\n        /* \"#utility.yul\":10067:10073   */\n      dup3\n        /* \"#utility.yul\":10064:10094   */\n      gt\n        /* \"#utility.yul\":10061:10117   */\n      iszero\n      tag_262\n      jumpi\n        /* \"#utility.yul\":10097:10115   */\n      tag_263\n      tag_264\n      jump\t// in\n    tag_263:\n        /* \"#utility.yul\":10061:10117   */\n    tag_262:\n        /* \"#utility.yul\":10147:10151   */\n      0x20\n        /* \"#utility.yul\":10139:10145   */\n      dup3\n        /* \"#utility.yul\":10135:10152   */\n      mul\n        /* \"#utility.yul\":10127:10152   */\n      swap1\n      pop\n        /* \"#utility.yul\":10207:10211   */\n      0x20\n        /* \"#utility.yul\":10201:10205   */\n      dup2\n        /* \"#utility.yul\":10197:10212   */\n      add\n        /* \"#utility.yul\":10189:10212   */\n      swap1\n      pop\n        /* \"#utility.yul\":9908:10219   */\n      swap2\n      swap1\n      pop\n      jump\t// out\n        /* \"#utility.yul\":10225:10533   */\n    tag_148:\n        /* \"#utility.yul\":10287:10291   */\n      0x00\n        /* \"#utility.yul\":10377:10395   */\n      0xffffffffffffffff\n        /* \"#utility.yul\":10369:10375   */\n      dup3\n        /* \"#utility.yul\":10366:10396   */\n      gt\n        /* \"#utility.yul\":10363:10419   */\n      iszero\n      tag_266\n      jumpi\n        /* \"#utility.yul\":10399:10417   */\n      tag_267\n      tag_264\n      jump\t// in\n    tag_267:\n        /* \"#utility.yul\":10363:10419   */\n    tag_266:\n        /* \"#utility.yul\":10437:10466   */\n      tag_268\n        /* \"#utility.yul\":10459:10465   */\n      dup3\n        /* \"#utility.yul\":10437:10466   */\n      tag_207\n      jump\t// in\n    tag_268:\n        /* \"#utility.yul\":10429:10466   */\n      swap1\n      pop\n        /* \"#utility.yul\":10521:10525   */\n      0x20\n        /* \"#utility.yul\":10515:10519   */\n      dup2\n        /* \"#utility.yul\":10511:10526   */\n      add\n        /* \"#utility.yul\":10503:10526   */\n      swap1\n      pop\n        /* \"#utility.yul\":10225:10533   */\n      swap2\n      swap1\n      pop\n      jump\t// out\n        /* \"#utility.yul\":10539:10638   */\n    tag_201:\n        /* \"#utility.yul\":10591:10597   */\n      0x00\n        /* \"#utility.yul\":10625:10630   */\n      dup2\n        /* \"#utility.yul\":10619:10631   */\n      mload\n        /* \"#utility.yul\":10609:10631   */\n      swap1\n      pop\n        /* \"#utility.yul\":10539:10638   */\n      swap2\n      swap1\n      pop\n      jump\t// out\n        /* \"#utility.yul\":10644:10813   */\n    tag_203:\n        /* \"#utility.yul\":10728:10739   */\n      0x00\n        /* \"#utility.yul\":10762:10768   */\n      dup3\n        /* \"#utility.yul\":10757:10760   */\n      dup3\n        /* \"#utility.yul\":10750:10769   */\n      mstore\n        /* \"#utility.yul\":10802:10806   */\n      0x20\n        /* \"#utility.yul\":10797:10800   */\n      dup3\n        /* \"#utility.yul\":10793:10807   */\n      add\n        /* \"#utility.yul\":10778:10807   */\n      swap1\n      pop\n        /* \"#utility.yul\":10644:10813   */\n      swap3\n      swap2\n      pop\n      pop\n      jump\t// out\n        /* \"#utility.yul\":10819:11010   */\n    tag_65:\n        /* \"#utility.yul\":10859:10863   */\n      0x00\n        /* \"#utility.yul\":10879:10899   */\n      tag_272\n        /* \"#utility.yul\":10897:10898   */\n      dup3\n        /* \"#utility.yul\":10879:10899   */\n      tag_236\n      jump\t// in\n    tag_272:\n        /* \"#utility.yul\":10874:10899   */\n      swap2\n      pop\n        /* \"#utility.yul\":10913:10933   */\n      tag_273\n        /* \"#utility.yul\":10931:10932   */\n      dup4\n        /* \"#utility.yul\":10913:10933   */\n      tag_236\n      jump\t// in\n    tag_273:\n        /* \"#utility.yul\":10908:10933   */\n      swap3\n      pop\n        /* \"#utility.yul\":10952:10953   */\n      dup3\n        /* \"#utility.yul\":10949:10950   */\n      dup3\n        /* \"#utility.yul\":10946:10954   */\n      lt\n        /* \"#utility.yul\":10943:10977   */\n      iszero\n      tag_274\n      jumpi\n        /* \"#utility.yul\":10957:10975   */\n      tag_275\n      tag_276\n      jump\t// in\n    tag_275:\n        /* \"#utility.yul\":10943:10977   */\n    tag_274:\n        /* \"#utility.yul\":11002:11003   */\n      dup3\n        /* \"#utility.yul\":10999:11000   */\n      dup3\n        /* \"#utility.yul\":10995:11004   */\n      sub\n        /* \"#utility.yul\":10987:11004   */\n      swap1\n      pop\n        /* \"#utility.yul\":10819:11010   */\n      swap3\n      swap2\n      pop\n      pop\n      jump\t// out\n        /* \"#utility.yul\":11016:11112   */\n    tag_193:\n        /* \"#utility.yul\":11053:11060   */\n      0x00\n        /* \"#utility.yul\":11082:11106   */\n      tag_278\n        /* \"#utility.yul\":11100:11105   */\n      dup3\n        /* \"#utility.yul\":11082:11106   */\n      tag_279\n      jump\t// in\n    tag_278:\n        /* \"#utility.yul\":11071:11106   */\n      swap1\n      pop\n        /* \"#utility.yul\":11016:11112   */\n      swap2\n      swap1\n      pop\n      jump\t// out\n        /* \"#utility.yul\":11118:11245   */\n    tag_280:\n        /* \"#utility.yul\":11163:11170   */\n      0x00\n        /* \"#utility.yul\":11192:11197   */\n      dup2\n        /* \"#utility.yul\":11181:11197   */\n      swap1\n      pop\n        /* \"#utility.yul\":11198:11239   */\n      tag_282\n        /* \"#utility.yul\":11233:11238   */\n      dup3\n        /* \"#utility.yul\":11198:11239   */\n      tag_283\n      jump\t// in\n    tag_282:\n        /* \"#utility.yul\":11118:11245   */\n      swap2\n      swap1\n      pop\n      jump\t// out\n        /* \"#utility.yul\":11251:11377   */\n    tag_279:\n        /* \"#utility.yul\":11288:11295   */\n      0x00\n        /* \"#utility.yul\":11328:11370   */\n      0xffffffffffffffffffffffffffffffffffffffff\n        /* \"#utility.yul\":11321:11326   */\n      dup3\n        /* \"#utility.yul\":11317:11371   */\n      and\n        /* \"#utility.yul\":11306:11371   */\n      swap1\n      pop\n        /* \"#utility.yul\":11251:11377   */\n      swap2\n      swap1\n      pop\n      jump\t// out\n        /* \"#utility.yul\":11383:11460   */\n    tag_236:\n        /* \"#utility.yul\":11420:11427   */\n      0x00\n        /* \"#utility.yul\":11449:11454   */\n      dup2\n        /* \"#utility.yul\":11438:11454   */\n      swap1\n      pop\n        /* \"#utility.yul\":11383:11460   */\n      swap2\n      swap1\n      pop\n      jump\t// out\n        /* \"#utility.yul\":11466:11593   */\n    tag_197:\n        /* \"#utility.yul\":11522:11531   */\n      0x00\n        /* \"#utility.yul\":11555:11587   */\n      tag_287\n        /* \"#utility.yul\":11581:11586   */\n      dup3\n        /* \"#utility.yul\":11555:11587   */\n      tag_280\n      jump\t// in\n    tag_287:\n        /* \"#utility.yul\":11542:11587   */\n      swap1\n      pop\n        /* \"#utility.yul\":11466:11593   */\n      swap2\n      swap1\n      pop\n      jump\t// out\n        /* \"#utility.yul\":11599:11753   */\n    tag_153:\n        /* \"#utility.yul\":11683:11689   */\n      dup3\n        /* \"#utility.yul\":11678:11681   */\n      dup2\n        /* \"#utility.yul\":11673:11676   */\n      dup4\n        /* \"#utility.yul\":11660:11690   */\n      calldatacopy\n        /* \"#utility.yul\":11745:11746   */\n      0x00\n        /* \"#utility.yul\":11736:11742   */\n      dup4\n        /* \"#utility.yul\":11731:11734   */\n      dup4\n        /* \"#utility.yul\":11727:11743   */\n      add\n        /* \"#utility.yul\":11720:11747   */\n      mstore\n        /* \"#utility.yul\":11599:11753   */\n      pop\n      pop\n      pop\n      jump\t// out\n        /* \"#utility.yul\":11759:12066   */\n    tag_205:\n        /* \"#utility.yul\":11827:11828   */\n      0x00\n        /* \"#utility.yul\":11837:11950   */\n    tag_290:\n        /* \"#utility.yul\":11851:11857   */\n      dup4\n        /* \"#utility.yul\":11848:11849   */\n      dup2\n        /* \"#utility.yul\":11845:11858   */\n      lt\n        /* \"#utility.yul\":11837:11950   */\n      iszero\n      tag_292\n      jumpi\n        /* \"#utility.yul\":11936:11937   */\n      dup1\n        /* \"#utility.yul\":11931:11934   */\n      dup3\n        /* \"#utility.yul\":11927:11938   */\n      add\n        /* \"#utility.yul\":11921:11939   */\n      mload\n        /* \"#utility.yul\":11917:11918   */\n      dup2\n        /* \"#utility.yul\":11912:11915   */\n      dup5\n        /* \"#utility.yul\":11908:11919   */\n      add\n        /* \"#utility.yul\":11901:11940   */\n      mstore\n        /* \"#utility.yul\":11873:11875   */\n      0x20\n        /* \"#utility.yul\":11870:11871   */\n      dup2\n        /* \"#utility.yul\":11866:11876   */\n      add\n        /* \"#utility.yul\":11861:11876   */\n      swap1\n      pop\n        /* \"#utility.yul\":11837:11950   */\n      jump(tag_290)\n    tag_292:\n        /* \"#utility.yul\":11968:11974   */\n      dup4\n        /* \"#utility.yul\":11965:11966   */\n      dup2\n        /* \"#utility.yul\":11962:11975   */\n      gt\n        /* \"#utility.yul\":11959:12060   */\n      iszero\n      tag_293\n      jumpi\n        /* \"#utility.yul\":12048:12049   */\n      0x00\n        /* \"#utility.yul\":12039:12045   */\n      dup5\n        /* \"#utility.yul\":12034:12037   */\n      dup5\n        /* \"#utility.yul\":12030:12046   */\n      add\n        /* \"#utility.yul\":12023:12050   */\n      mstore\n        /* \"#utility.yul\":11959:12060   */\n    tag_293:\n        /* \"#utility.yul\":11808:12066   */\n      pop\n        /* \"#utility.yul\":11759:12066   */\n      pop\n      pop\n      pop\n      jump\t// out\n        /* \"#utility.yul\":12072:12392   */\n    tag_69:\n        /* \"#utility.yul\":12116:12122   */\n      0x00\n        /* \"#utility.yul\":12153:12154   */\n      0x02\n        /* \"#utility.yul\":12147:12151   */\n      dup3\n        /* \"#utility.yul\":12143:12155   */\n      div\n        /* \"#utility.yul\":12133:12155   */\n      swap1\n      pop\n        /* \"#utility.yul\":12200:12201   */\n      0x01\n        /* \"#utility.yul\":12194:12198   */\n      dup3\n        /* \"#utility.yul\":12190:12202   */\n      and\n        /* \"#utility.yul\":12221:12239   */\n      dup1\n        /* \"#utility.yul\":12211:12292   */\n      tag_295\n      jumpi\n        /* \"#utility.yul\":12277:12281   */\n      0x7f\n        /* \"#utility.yul\":12269:12275   */\n      dup3\n        /* \"#utility.yul\":12265:12282   */\n      and\n        /* \"#utility.yul\":12255:12282   */\n      swap2\n      pop\n        /* \"#utility.yul\":12211:12292   */\n    tag_295:\n        /* \"#utility.yul\":12339:12341   */\n      0x20\n        /* \"#utility.yul\":12331:12337   */\n      dup3\n        /* \"#utility.yul\":12328:12342   */\n      lt\n        /* \"#utility.yul\":12308:12326   */\n      dup2\n        /* \"#utility.yul\":12305:12343   */\n      eq\n        /* \"#utility.yul\":12302:12386   */\n      iszero\n      tag_296\n      jumpi\n        /* \"#utility.yul\":12358:12376   */\n      tag_297\n      tag_298\n      jump\t// in\n    tag_297:\n        /* \"#utility.yul\":12302:12386   */\n    tag_296:\n        /* \"#utility.yul\":12123:12392   */\n      pop\n        /* \"#utility.yul\":12072:12392   */\n      swap2\n      swap1\n      pop\n      jump\t// out\n        /* \"#utility.yul\":12398:12679   */\n    tag_259:\n        /* \"#utility.yul\":12481:12508   */\n      tag_300\n        /* \"#utility.yul\":12503:12507   */\n      dup3\n        /* \"#utility.yul\":12481:12508   */\n      tag_207\n      jump\t// in\n    tag_300:\n        /* \"#utility.yul\":12473:12479   */\n      dup2\n        /* \"#utility.yul\":12469:12509   */\n      add\n        /* \"#utility.yul\":12611:12617   */\n      dup2\n        /* \"#utility.yul\":12599:12609   */\n      dup2\n        /* \"#utility.yul\":12596:12618   */\n      lt\n        /* \"#utility.yul\":12575:12593   */\n      0xffffffffffffffff\n        /* \"#utility.yul\":12563:12573   */\n      dup3\n        /* \"#utility.yul\":12560:12594   */\n      gt\n        /* \"#utility.yul\":12557:12619   */\n      or\n        /* \"#utility.yul\":12554:12642   */\n      iszero\n      tag_301\n      jumpi\n        /* \"#utility.yul\":12622:12640   */\n      tag_302\n      tag_264\n      jump\t// in\n    tag_302:\n        /* \"#utility.yul\":12554:12642   */\n    tag_301:\n        /* \"#utility.yul\":12662:12672   */\n      dup1\n        /* \"#utility.yul\":12658:12660   */\n      0x40\n        /* \"#utility.yul\":12651:12673   */\n      mstore\n        /* \"#utility.yul\":12441:12679   */\n      pop\n        /* \"#utility.yul\":12398:12679   */\n      pop\n      pop\n      jump\t// out\n        /* \"#utility.yul\":12685:12865   */\n    tag_276:\n        /* \"#utility.yul\":12733:12810   */\n      0x4e487b7100000000000000000000000000000000000000000000000000000000\n        /* \"#utility.yul\":12730:12731   */\n      0x00\n        /* \"#utility.yul\":12723:12811   */\n      mstore\n        /* \"#utility.yul\":12830:12834   */\n      0x11\n        /* \"#utility.yul\":12827:12828   */\n      0x04\n        /* \"#utility.yul\":12820:12835   */\n      mstore\n        /* \"#utility.yul\":12854:12858   */\n      0x24\n        /* \"#utility.yul\":12851:12852   */\n      0x00\n        /* \"#utility.yul\":12844:12859   */\n      revert\n        /* \"#utility.yul\":12871:13051   */\n    tag_55:\n        /* \"#utility.yul\":12919:12996   */\n      0x4e487b7100000000000000000000000000000000000000000000000000000000\n        /* \"#utility.yul\":12916:12917   */\n      0x00\n        /* \"#utility.yul\":12909:12997   */\n      mstore\n        /* \"#utility.yul\":13016:13020   */\n      0x21\n        /* \"#utility.yul\":13013:13014   */\n      0x04\n        /* \"#utility.yul\":13006:13021   */\n      mstore\n        /* \"#utility.yul\":13040:13044   */\n      0x24\n        /* \"#utility.yul\":13037:13038   */\n      0x00\n        /* \"#utility.yul\":13030:13045   */\n      revert\n        /* \"#utility.yul\":13057:13237   */\n    tag_298:\n        /* \"#utility.yul\":13105:13182   */\n      0x4e487b7100000000000000000000000000000000000000000000000000000000\n        /* \"#utility.yul\":13102:13103   */\n      0x00\n        /* \"#utility.yul\":13095:13183   */\n      mstore\n        /* \"#utility.yul\":13202:13206   */\n      0x22\n        /* \"#utility.yul\":13199:13200   */\n      0x04\n        /* \"#utility.yul\":13192:13207   */\n      mstore\n        /* \"#utility.yul\":13226:13230   */\n      0x24\n        /* \"#utility.yul\":13223:13224   */\n      0x00\n        /* \"#utility.yul\":13216:13231   */\n      revert\n        /* \"#utility.yul\":13243:13423   */\n    tag_37:\n        /* \"#utility.yul\":13291:13368   */\n      0x4e487b7100000000000000000000000000000000000000000000000000000000\n        /* \"#utility.yul\":13288:13289   */\n      0x00\n        /* \"#utility.yul\":13281:13369   */\n      mstore\n        /* \"#utility.yul\":13388:13392   */\n      0x32\n        /* \"#utility.yul\":13385:13386   */\n      0x04\n        /* \"#utility.yul\":13378:13393   */\n      mstore\n        /* \"#utility.yul\":13412:13416   */\n      0x24\n        /* \"#utility.yul\":13409:13410   */\n      0x00\n        /* \"#utility.yul\":13402:13417   */\n      revert\n        /* \"#utility.yul\":13429:13609   */\n    tag_264:\n        /* \"#utility.yul\":13477:13554   */\n      0x4e487b7100000000000000000000000000000000000000000000000000000000\n        /* \"#utility.yul\":13474:13475   */\n      0x00\n        /* \"#utility.yul\":13467:13555   */\n      mstore\n        /* \"#utility.yul\":13574:13578   */\n      0x41\n        /* \"#utility.yul\":13571:13572   */\n      0x04\n        /* \"#utility.yul\":13564:13579   */\n      mstore\n        /* \"#utility.yul\":13598:13602   */\n      0x24\n        /* \"#utility.yul\":13595:13596   */\n      0x00\n        /* \"#utility.yul\":13588:13603   */\n      revert\n        /* \"#utility.yul\":13615:13732   */\n    tag_158:\n        /* \"#utility.yul\":13724:13725   */\n      0x00\n        /* \"#utility.yul\":13721:13722   */\n      dup1\n        /* \"#utility.yul\":13714:13726   */\n      revert\n        /* \"#utility.yul\":13738:13855   */\n    tag_138:\n        /* \"#utility.yul\":13847:13848   */\n      0x00\n        /* \"#utility.yul\":13844:13845   */\n      dup1\n        /* \"#utility.yul\":13837:13849   */\n      revert\n        /* \"#utility.yul\":13861:13978   */\n    tag_151:\n        /* \"#utility.yul\":13970:13971   */\n      0x00\n        /* \"#utility.yul\":13967:13968   */\n      dup1\n        /* \"#utility.yul\":13960:13972   */\n      revert\n        /* \"#utility.yul\":13984:14101   */\n    tag_174:\n        /* \"#utility.yul\":14093:14094   */\n      0x00\n        /* \"#utility.yul\":14090:14091   */\n      dup1\n        /* \"#utility.yul\":14083:14095   */\n      revert\n        /* \"#utility.yul\":14107:14224   */\n    tag_171:\n        /* \"#utility.yul\":14216:14217   */\n      0x00\n        /* \"#utility.yul\":14213:14214   */\n      dup1\n        /* \"#utility.yul\":14206:14218   */\n      revert\n        /* \"#utility.yul\":14230:14332   */\n    tag_207:\n        /* \"#utility.yul\":14271:14277   */\n      0x00\n        /* \"#utility.yul\":14322:14324   */\n      0x1f\n        /* \"#utility.yul\":14318:14325   */\n      not\n        /* \"#utility.yul\":14313:14315   */\n      0x1f\n        /* \"#utility.yul\":14306:14311   */\n      dup4\n        /* \"#utility.yul\":14302:14316   */\n      add\n        /* \"#utility.yul\":14298:14326   */\n      and\n        /* \"#utility.yul\":14288:14326   */\n      swap1\n      pop\n        /* \"#utility.yul\":14230:14332   */\n      swap2\n      swap1\n      pop\n      jump\t// out\n        /* \"#utility.yul\":14338:14513   */\n    tag_212:\n        /* \"#utility.yul\":14478:14505   */\n      0x4f7264657220697320616c726561647920736869707065642e00000000000000\n        /* \"#utility.yul\":14474:14475   */\n      0x00\n        /* \"#utility.yul\":14466:14472   */\n      dup3\n        /* \"#utility.yul\":14462:14476   */\n      add\n        /* \"#utility.yul\":14455:14506   */\n      mstore\n        /* \"#utility.yul\":14338:14513   */\n      pop\n      jump\t// out\n        /* \"#utility.yul\":14519:14680   */\n    tag_217:\n        /* \"#utility.yul\":14659:14672   */\n      0x4e6f2070726f6475637473000000000000000000000000000000000000000000\n        /* \"#utility.yul\":14655:14656   */\n      0x00\n        /* \"#utility.yul\":14647:14653   */\n      dup3\n        /* \"#utility.yul\":14643:14657   */\n      add\n        /* \"#utility.yul\":14636:14673   */\n      mstore\n        /* \"#utility.yul\":14519:14680   */\n      pop\n      jump\t// out\n        /* \"#utility.yul\":14686:14858   */\n    tag_222:\n        /* \"#utility.yul\":14826:14850   */\n      0x596f75277265206e6f7420617574686f72697a65642e00000000000000000000\n        /* \"#utility.yul\":14822:14823   */\n      0x00\n        /* \"#utility.yul\":14814:14820   */\n      dup3\n        /* \"#utility.yul\":14810:14824   */\n      add\n        /* \"#utility.yul\":14803:14851   */\n      mstore\n        /* \"#utility.yul\":14686:14858   */\n      pop\n      jump\t// out\n        /* \"#utility.yul\":14864:15034   */\n    tag_227:\n        /* \"#utility.yul\":15004:15026   */\n      0x4e6f7420612076616c6964206f72646572206964000000000000000000000000\n        /* \"#utility.yul\":15000:15001   */\n      0x00\n        /* \"#utility.yul\":14992:14998   */\n      dup3\n        /* \"#utility.yul\":14988:15002   */\n      add\n        /* \"#utility.yul\":14981:15027   */\n      mstore\n        /* \"#utility.yul\":14864:15034   */\n      pop\n      jump\t// out\n        /* \"#utility.yul\":15040:15261   */\n    tag_232:\n        /* \"#utility.yul\":15180:15214   */\n      0x596f7520617265206e6f7420746865206f776e6572206f6620746865206f7264\n        /* \"#utility.yul\":15176:15177   */\n      0x00\n        /* \"#utility.yul\":15168:15174   */\n      dup3\n        /* \"#utility.yul\":15164:15178   */\n      add\n        /* \"#utility.yul\":15157:15215   */\n      mstore\n        /* \"#utility.yul\":15249:15253   */\n      0x6572000000000000000000000000000000000000000000000000000000000000\n        /* \"#utility.yul\":15244:15246   */\n      0x20\n        /* \"#utility.yul\":15236:15242   */\n      dup3\n        /* \"#utility.yul\":15232:15247   */\n      add\n        /* \"#utility.yul\":15225:15254   */\n      mstore\n        /* \"#utility.yul\":15040:15261   */\n      pop\n      jump\t// out\n        /* \"#utility.yul\":15267:15380   */\n    tag_283:\n        /* \"#utility.yul\":15348:15349   */\n      0x04\n        /* \"#utility.yul\":15341:15346   */\n      dup2\n        /* \"#utility.yul\":15338:15350   */\n      lt\n        /* \"#utility.yul\":15328:15374   */\n      tag_320\n      jumpi\n        /* \"#utility.yul\":15354:15372   */\n      tag_321\n      tag_55\n      jump\t// in\n    tag_321:\n        /* \"#utility.yul\":15328:15374   */\n    tag_320:\n        /* \"#utility.yul\":15267:15380   */\n      pop\n      jump\t// out\n        /* \"#utility.yul\":15386:15508   */\n    tag_167:\n        /* \"#utility.yul\":15459:15483   */\n      tag_323\n        /* \"#utility.yul\":15477:15482   */\n      dup2\n        /* \"#utility.yul\":15459:15483   */\n      tag_236\n      jump\t// in\n    tag_323:\n        /* \"#utility.yul\":15452:15457   */\n      dup2\n        /* \"#utility.yul\":15449:15484   */\n      eq\n        /* \"#utility.yul\":15439:15502   */\n      tag_324\n      jumpi\n        /* \"#utility.yul\":15498:15499   */\n      0x00\n        /* \"#utility.yul\":15495:15496   */\n      dup1\n        /* \"#utility.yul\":15488:15500   */\n      revert\n        /* \"#utility.yul\":15439:15502   */\n    tag_324:\n        /* \"#utility.yul\":15386:15508   */\n      pop\n      jump\t// out\n\n    auxdata: 0xa26469706673582212204a99c4098f5d7116ad71a1ebadad26f6dce747e5ddf5e17185f963bb7735dead64736f6c63430008070033\n}\n",
				"bytecode": {
					"linkReferences": {},
					"object": "608060405234801561001057600080fd5b5033600160006101000a81548173ffffffffffffffffffffffffffffffffffffffff021916908373ffffffffffffffffffffffffffffffffffffffff1602179055506111b8806100616000396000f3fe608060405234801561001057600080fd5b50600436106100575760003560e01c8063577dc0a01461005c5780636d9a65d8146100785780638da5cb5b146100a8578063a85c38ef146100c6578063afe13a62146100f8575b600080fd5b61007660048036038101906100719190610af2565b610114565b005b610092600480360381019061008d9190610a4d565b61024d565b60405161009f9190610d5c565b60405180910390f35b6100b061040f565b6040516100bd9190610c63565b60405180910390f35b6100e060048036038101906100db9190610ac5565b610435565b6040516100ef93929190610c7e565b60405180910390f35b610112600480360381019061010d9190610ac5565b610524565b005b60008054905082111561015c576040517f08c379a000000000000000000000000000000000000000000000000000000000815260040161015390610d1c565b60405180910390fd5b3373ffffffffffffffffffffffffffffffffffffffff166000838154811061018757610186610fdc565b5b906000526020600020906004020160000160009054906101000a900473ffffffffffffffffffffffffffffffffffffffff1673ffffffffffffffffffffffffffffffffffffffff161461020f576040517f08c379a000000000000000000000000000000000000000000000000000000000815260040161020690610d3c565b60405180910390fd5b806000838154811061022457610223610fdc565b5b906000526020600020906004020160010190805190602001906102489291906107ea565b505050565b600080825111610292576040517f08c379a000000000000000000000000000000000000000000000000000000000815260040161028990610cdc565b60405180910390fd5b61029a610870565b33816000019073ffffffffffffffffffffffffffffffffffffffff16908173ffffffffffffffffffffffffffffffffffffffff16815250508381602001819052508281604001819052506000816060019060038111156102fd576102fc610f7e565b5b9081600381111561031157610310610f7e565b5b81525050600081908060018154018082558091505060019003906000526020600020906004020160009091909190915060008201518160000160006101000a81548173ffffffffffffffffffffffffffffffffffffffff021916908373ffffffffffffffffffffffffffffffffffffffff16021790555060208201518160010190805190602001906103a49291906107ea565b5060408201518160020190805190602001906103c19291906108c0565b5060608201518160030160006101000a81548160ff021916908360038111156103ed576103ec610f7e565b5b0217905550505060016000805490506104069190610e15565b91505092915050565b600160009054906101000a900473ffffffffffffffffffffffffffffffffffffffff1681565b6000818154811061044557600080fd5b90600052602060002090600402016000915090508060000160009054906101000a900473ffffffffffffffffffffffffffffffffffffffff169080600101805461048e90610eec565b80601f01602080910402602001604051908101604052809291908181526020018280546104ba90610eec565b80156105075780601f106104dc57610100808354040283529160200191610507565b820191906000526020600020905b8154815290600101906020018083116104ea57829003601f168201915b5050505050908060030160009054906101000a900460ff16905083565b600160009054906101000a900473ffffffffffffffffffffffffffffffffffffffff1673ffffffffffffffffffffffffffffffffffffffff163373ffffffffffffffffffffffffffffffffffffffff16146105b4576040517f08c379a00000000000000000000000000000000000000000000000000000000081526004016105ab90610cfc565b60405180910390fd5b60008054905081106105fb576040517f08c379a00000000000000000000000000000000000000000000000000000000081526004016105f290610d1c565b60405180910390fd5b60008082815481106106105761060f610fdc565b5b9060005260206000209060040201905060038081111561063357610632610f7e565b5b8160030160009054906101000a900460ff16600381111561065757610656610f7e565b5b1415610698576040517f08c379a000000000000000000000000000000000000000000000000000000000815260040161068f90610cbc565b60405180910390fd5b600060038111156106ac576106ab610f7e565b5b8160030160009054906101000a900460ff1660038111156106d0576106cf610f7e565b5b14156107085760018160030160006101000a81548160ff021916908360038111156106fe576106fd610f7e565b5b02179055506107e6565b6001600381111561071c5761071b610f7e565b5b8160030160009054906101000a900460ff1660038111156107405761073f610f7e565b5b14156107785760028160030160006101000a81548160ff0219169083600381111561076e5761076d610f7e565b5b02179055506107e5565b6002600381111561078c5761078b610f7e565b5b8160030160009054906101000a900460ff1660038111156107b0576107af610f7e565b5b14156107e45760038160030160006101000a81548160ff021916908360038111156107de576107dd610f7e565b5b02179055505b5b5b5050565b8280546107f690610eec565b90600052602060002090601f016020900481019282610818576000855561085f565b82601f1061083157805160ff191683800117855561085f565b8280016001018555821561085f579182015b8281111561085e578251825591602001919060010190610843565b5b50905061086c919061090d565b5090565b6040518060800160405280600073ffffffffffffffffffffffffffffffffffffffff1681526020016060815260200160608152602001600060038111156108ba576108b9610f7e565b5b81525090565b8280548282559060005260206000209081019282156108fc579160200282015b828111156108fb5782518255916020019190600101906108e0565b5b509050610909919061090d565b5090565b5b8082111561092657600081600090555060010161090e565b5090565b600061093d61093884610d9c565b610d77565b905080838252602082019050828560208602820111156109605761095f61103f565b5b60005b8581101561099057816109768882610a38565b845260208401935060208301925050600181019050610963565b5050509392505050565b60006109ad6109a884610dc8565b610d77565b9050828152602081018484840111156109c9576109c8611044565b5b6109d4848285610eaa565b509392505050565b600082601f8301126109f1576109f061103a565b5b8135610a0184826020860161092a565b91505092915050565b600082601f830112610a1f57610a1e61103a565b5b8135610a2f84826020860161099a565b91505092915050565b600081359050610a478161116b565b92915050565b60008060408385031215610a6457610a6361104e565b5b600083013567ffffffffffffffff811115610a8257610a81611049565b5b610a8e85828601610a0a565b925050602083013567ffffffffffffffff811115610aaf57610aae611049565b5b610abb858286016109dc565b9150509250929050565b600060208284031215610adb57610ada61104e565b5b6000610ae984828501610a38565b91505092915050565b60008060408385031215610b0957610b0861104e565b5b6000610b1785828601610a38565b925050602083013567ffffffffffffffff811115610b3857610b37611049565b5b610b4485828601610a0a565b9150509250929050565b610b5781610e49565b82525050565b610b6681610e98565b82525050565b6000610b7782610df9565b610b818185610e04565b9350610b91818560208601610eb9565b610b9a81611053565b840191505092915050565b6000610bb2601983610e04565b9150610bbd82611064565b602082019050919050565b6000610bd5600b83610e04565b9150610be08261108d565b602082019050919050565b6000610bf8601683610e04565b9150610c03826110b6565b602082019050919050565b6000610c1b601483610e04565b9150610c26826110df565b602082019050919050565b6000610c3e602283610e04565b9150610c4982611108565b604082019050919050565b610c5d81610e8e565b82525050565b6000602082019050610c786000830184610b4e565b92915050565b6000606082019050610c936000830186610b4e565b8181036020830152610ca58185610b6c565b9050610cb46040830184610b5d565b949350505050565b60006020820190508181036000830152610cd581610ba5565b9050919050565b60006020820190508181036000830152610cf581610bc8565b9050919050565b60006020820190508181036000830152610d1581610beb565b9050919050565b60006020820190508181036000830152610d3581610c0e565b9050919050565b60006020820190508181036000830152610d5581610c31565b9050919050565b6000602082019050610d716000830184610c54565b92915050565b6000610d81610d92565b9050610d8d8282610f1e565b919050565b6000604051905090565b600067ffffffffffffffff821115610db757610db661100b565b5b602082029050602081019050919050565b600067ffffffffffffffff821115610de357610de261100b565b5b610dec82611053565b9050602081019050919050565b600081519050919050565b600082825260208201905092915050565b6000610e2082610e8e565b9150610e2b83610e8e565b925082821015610e3e57610e3d610f4f565b5b828203905092915050565b6000610e5482610e6e565b9050919050565b6000819050610e6982611157565b919050565b600073ffffffffffffffffffffffffffffffffffffffff82169050919050565b6000819050919050565b6000610ea382610e5b565b9050919050565b82818337600083830152505050565b60005b83811015610ed7578082015181840152602081019050610ebc565b83811115610ee6576000848401525b50505050565b60006002820490506001821680610f0457607f821691505b60208210811415610f1857610f17610fad565b5b50919050565b610f2782611053565b810181811067ffffffffffffffff82111715610f4657610f4561100b565b5b80604052505050565b7f4e487b7100000000000000000000000000000000000000000000000000000000600052601160045260246000fd5b7f4e487b7100000000000000000000000000000000000000000000000000000000600052602160045260246000fd5b7f4e487b7100000000000000000000000000000000000000000000000000000000600052602260045260246000fd5b7f4e487b7100000000000000000000000000000000000000000000000000000000600052603260045260246000fd5b7f4e487b7100000000000000000000000000000000000000000000000000000000600052604160045260246000fd5b600080fd5b600080fd5b600080fd5b600080fd5b600080fd5b6000601f19601f8301169050919050565b7f4f7264657220697320616c726561647920736869707065642e00000000000000600082015250565b7f4e6f2070726f6475637473000000000000000000000000000000000000000000600082015250565b7f596f75277265206e6f7420617574686f72697a65642e00000000000000000000600082015250565b7f4e6f7420612076616c6964206f72646572206964000000000000000000000000600082015250565b7f596f7520617265206e6f7420746865206f776e6572206f6620746865206f726460008201527f6572000000000000000000000000000000000000000000000000000000000000602082015250565b6004811061116857611167610f7e565b5b50565b61117481610e8e565b811461117f57600080fd5b5056fea26469706673582212204a99c4098f5d7116ad71a1ebadad26f6dce747e5ddf5e17185f963bb7735dead64736f6c63430008070033",
					"opcodes": "PUSH1 0x80 PUSH1 0x40 MSTORE CALLVALUE DUP1 ISZERO PUSH2 0x10 JUMPI PUSH1 0x0 DUP1 REVERT JUMPDEST POP CALLER PUSH1 0x1 PUSH1 0x0 PUSH2 0x100 EXP DUP2 SLOAD DUP2 PUSH20 0xFFFFFFFFFFFFFFFFFFFFFFFFFFFFFFFFFFFFFFFF MUL NOT AND SWAP1 DUP4 PUSH20 0xFFFFFFFFFFFFFFFFFFFFFFFFFFFFFFFFFFFFFFFF AND MUL OR SWAP1 SSTORE POP PUSH2 0x11B8 DUP1 PUSH2 0x61 PUSH1 0x0 CODECOPY PUSH1 0x0 RETURN INVALID PUSH1 0x80 PUSH1 0x40 MSTORE CALLVALUE DUP1 ISZERO PUSH2 0x10 JUMPI PUSH1 0x0 DUP1 REVERT JUMPDEST POP PUSH1 0x4 CALLDATASIZE LT PUSH2 0x57 JUMPI PUSH1 0x0 CALLDATALOAD PUSH1 0xE0 SHR DUP1 PUSH4 0x577DC0A0 EQ PUSH2 0x5C JUMPI DUP1 PUSH4 0x6D9A65D8 EQ PUSH2 0x78 JUMPI DUP1 PUSH4 0x8DA5CB5B EQ PUSH2 0xA8 JUMPI DUP1 PUSH4 0xA85C38EF EQ PUSH2 0xC6 JUMPI DUP1 PUSH4 0xAFE13A62 EQ PUSH2 0xF8 JUMPI JUMPDEST PUSH1 0x0 DUP1 REVERT JUMPDEST PUSH2 0x76 PUSH1 0x4 DUP1 CALLDATASIZE SUB DUP2 ADD SWAP1 PUSH2 0x71 SWAP2 SWAP1 PUSH2 0xAF2 JUMP JUMPDEST PUSH2 0x114 JUMP JUMPDEST STOP JUMPDEST PUSH2 0x92 PUSH1 0x4 DUP1 CALLDATASIZE SUB DUP2 ADD SWAP1 PUSH2 0x8D SWAP2 SWAP1 PUSH2 0xA4D JUMP JUMPDEST PUSH2 0x24D JUMP JUMPDEST PUSH1 0x40 MLOAD PUSH2 0x9F SWAP2 SWAP1 PUSH2 0xD5C JUMP JUMPDEST PUSH1 0x40 MLOAD DUP1 SWAP2 SUB SWAP1 RETURN JUMPDEST PUSH2 0xB0 PUSH2 0x40F JUMP JUMPDEST PUSH1 0x40 MLOAD PUSH2 0xBD SWAP2 SWAP1 PUSH2 0xC63 JUMP JUMPDEST PUSH1 0x40 MLOAD DUP1 SWAP2 SUB SWAP1 RETURN JUMPDEST PUSH2 0xE0 PUSH1 0x4 DUP1 CALLDATASIZE SUB DUP2 ADD SWAP1 PUSH2 0xDB SWAP2 SWAP1 PUSH2 0xAC5 JUMP JUMPDEST PUSH2 0x435 JUMP JUMPDEST PUSH1 0x40 MLOAD PUSH2 0xEF SWAP4 SWAP3 SWAP2 SWAP1 PUSH2 0xC7E JUMP JUMPDEST PUSH1 0x40 MLOAD DUP1 SWAP2 SUB SWAP1 RETURN JUMPDEST PUSH2 0x112 PUSH1 0x4 DUP1 CALLDATASIZE SUB DUP2 ADD SWAP1 PUSH2 0x10D SWAP2 SWAP1 PUSH2 0xAC5 JUMP JUMPDEST PUSH2 0x524 JUMP JUMPDEST STOP JUMPDEST PUSH1 0x0 DUP1 SLOAD SWAP1 POP DUP3 GT ISZERO PUSH2 0x15C JUMPI PUSH1 0x40 MLOAD PUSH32 0x8C379A000000000000000000000000000000000000000000000000000000000 DUP2 MSTORE PUSH1 0x4 ADD PUSH2 0x153 SWAP1 PUSH2 0xD1C JUMP JUMPDEST PUSH1 0x40 MLOAD DUP1 SWAP2 SUB SWAP1 REVERT JUMPDEST CALLER PUSH20 0xFFFFFFFFFFFFFFFFFFFFFFFFFFFFFFFFFFFFFFFF AND PUSH1 0x0 DUP4 DUP2 SLOAD DUP2 LT PUSH2 0x187 JUMPI PUSH2 0x186 PUSH2 0xFDC JUMP JUMPDEST JUMPDEST SWAP1 PUSH1 0x0 MSTORE PUSH1 0x20 PUSH1 0x0 KECCAK256 SWAP1 PUSH1 0x4 MUL ADD PUSH1 0x0 ADD PUSH1 0x0 SWAP1 SLOAD SWAP1 PUSH2 0x100 EXP SWAP1 DIV PUSH20 0xFFFFFFFFFFFFFFFFFFFFFFFFFFFFFFFFFFFFFFFF AND PUSH20 0xFFFFFFFFFFFFFFFFFFFFFFFFFFFFFFFFFFFFFFFF AND EQ PUSH2 0x20F JUMPI PUSH1 0x40 MLOAD PUSH32 0x8C379A000000000000000000000000000000000000000000000000000000000 DUP2 MSTORE PUSH1 0x4 ADD PUSH2 0x206 SWAP1 PUSH2 0xD3C JUMP JUMPDEST PUSH1 0x40 MLOAD DUP1 SWAP2 SUB SWAP1 REVERT JUMPDEST DUP1 PUSH1 0x0 DUP4 DUP2 SLOAD DUP2 LT PUSH2 0x224 JUMPI PUSH2 0x223 PUSH2 0xFDC JUMP JUMPDEST JUMPDEST SWAP1 PUSH1 0x0 MSTORE PUSH1 0x20 PUSH1 0x0 KECCAK256 SWAP1 PUSH1 0x4 MUL ADD PUSH1 0x1 ADD SWAP1 DUP1 MLOAD SWAP1 PUSH1 0x20 ADD SWAP1 PUSH2 0x248 SWAP3 SWAP2 SWAP1 PUSH2 0x7EA JUMP JUMPDEST POP POP POP JUMP JUMPDEST PUSH1 0x0 DUP1 DUP3 MLOAD GT PUSH2 0x292 JUMPI PUSH1 0x40 MLOAD PUSH32 0x8C379A000000000000000000000000000000000000000000000000000000000 DUP2 MSTORE PUSH1 0x4 ADD PUSH2 0x289 SWAP1 PUSH2 0xCDC JUMP JUMPDEST PUSH1 0x40 MLOAD DUP1 SWAP2 SUB SWAP1 REVERT JUMPDEST PUSH2 0x29A PUSH2 0x870 JUMP JUMPDEST CALLER DUP2 PUSH1 0x0 ADD SWAP1 PUSH20 0xFFFFFFFFFFFFFFFFFFFFFFFFFFFFFFFFFFFFFFFF AND SWAP1 DUP2 PUSH20 0xFFFFFFFFFFFFFFFFFFFFFFFFFFFFFFFFFFFFFFFF AND DUP2 MSTORE POP POP DUP4 DUP2 PUSH1 0x20 ADD DUP2 SWAP1 MSTORE POP DUP3 DUP2 PUSH1 0x40 ADD DUP2 SWAP1 MSTORE POP PUSH1 0x0 DUP2 PUSH1 0x60 ADD SWAP1 PUSH1 0x3 DUP2 GT ISZERO PUSH2 0x2FD JUMPI PUSH2 0x2FC PUSH2 0xF7E JUMP JUMPDEST JUMPDEST SWAP1 DUP2 PUSH1 0x3 DUP2 GT ISZERO PUSH2 0x311 JUMPI PUSH2 0x310 PUSH2 0xF7E JUMP JUMPDEST JUMPDEST DUP2 MSTORE POP POP PUSH1 0x0 DUP2 SWAP1 DUP1 PUSH1 0x1 DUP2 SLOAD ADD DUP1 DUP3 SSTORE DUP1 SWAP2 POP POP PUSH1 0x1 SWAP1 SUB SWAP1 PUSH1 0x0 MSTORE PUSH1 0x20 PUSH1 0x0 KECCAK256 SWAP1 PUSH1 0x4 MUL ADD PUSH1 0x0 SWAP1 SWAP2 SWAP1 SWAP2 SWAP1 SWAP2 POP PUSH1 0x0 DUP3 ADD MLOAD DUP2 PUSH1 0x0 ADD PUSH1 0x0 PUSH2 0x100 EXP DUP2 SLOAD DUP2 PUSH20 0xFFFFFFFFFFFFFFFFFFFFFFFFFFFFFFFFFFFFFFFF MUL NOT AND SWAP1 DUP4 PUSH20 0xFFFFFFFFFFFFFFFFFFFFFFFFFFFFFFFFFFFFFFFF AND MUL OR SWAP1 SSTORE POP PUSH1 0x20 DUP3 ADD MLOAD DUP2 PUSH1 0x1 ADD SWAP1 DUP1 MLOAD SWAP1 PUSH1 0x20 ADD SWAP1 PUSH2 0x3A4 SWAP3 SWAP2 SWAP1 PUSH2 0x7EA JUMP JUMPDEST POP PUSH1 0x40 DUP3 ADD MLOAD DUP2 PUSH1 0x2 ADD SWAP1 DUP1 MLOAD SWAP1 PUSH1 0x20 ADD SWAP1 PUSH2 0x3C1 SWAP3 SWAP2 SWAP1 PUSH2 0x8C0 JUMP JUMPDEST POP PUSH1 0x60 DUP3 ADD MLOAD DUP2 PUSH1 0x3 ADD PUSH1 0x0 PUSH2 0x100 EXP DUP2 SLOAD DUP2 PUSH1 0xFF MUL NOT AND SWAP1 DUP4 PUSH1 0x3 DUP2 GT ISZERO PUSH2 0x3ED JUMPI PUSH2 0x3EC PUSH2 0xF7E JUMP JUMPDEST JUMPDEST MUL OR SWAP1 SSTORE POP POP POP PUSH1 0x1 PUSH1 0x0 DUP1 SLOAD SWAP1 POP PUSH2 0x406 SWAP2 SWAP1 PUSH2 0xE15 JUMP JUMPDEST SWAP2 POP POP SWAP3 SWAP2 POP POP JUMP JUMPDEST PUSH1 0x1 PUSH1 0x0 SWAP1 SLOAD SWAP1 PUSH2 0x100 EXP SWAP1 DIV PUSH20 0xFFFFFFFFFFFFFFFFFFFFFFFFFFFFFFFFFFFFFFFF AND DUP2 JUMP JUMPDEST PUSH1 0x0 DUP2 DUP2 SLOAD DUP2 LT PUSH2 0x445 JUMPI PUSH1 0x0 DUP1 REVERT JUMPDEST SWAP1 PUSH1 0x0 MSTORE PUSH1 0x20 PUSH1 0x0 KECCAK256 SWAP1 PUSH1 0x4 MUL ADD PUSH1 0x0 SWAP2 POP SWAP1 POP DUP1 PUSH1 0x0 ADD PUSH1 0x0 SWAP1 SLOAD SWAP1 PUSH2 0x100 EXP SWAP1 DIV PUSH20 0xFFFFFFFFFFFFFFFFFFFFFFFFFFFFFFFFFFFFFFFF AND SWAP1 DUP1 PUSH1 0x1 ADD DUP1 SLOAD PUSH2 0x48E SWAP1 PUSH2 0xEEC JUMP JUMPDEST DUP1 PUSH1 0x1F ADD PUSH1 0x20 DUP1 SWAP2 DIV MUL PUSH1 0x20 ADD PUSH1 0x40 MLOAD SWAP1 DUP2 ADD PUSH1 0x40 MSTORE DUP1 SWAP3 SWAP2 SWAP1 DUP2 DUP2 MSTORE PUSH1 0x20 ADD DUP3 DUP1 SLOAD PUSH2 0x4BA SWAP1 PUSH2 0xEEC JUMP JUMPDEST DUP1 ISZERO PUSH2 0x507 JUMPI DUP1 PUSH1 0x1F LT PUSH2 0x4DC JUMPI PUSH2 0x100 DUP1 DUP4 SLOAD DIV MUL DUP4 MSTORE SWAP2 PUSH1 0x20 ADD SWAP2 PUSH2 0x507 JUMP JUMPDEST DUP3 ADD SWAP2 SWAP1 PUSH1 0x0 MSTORE PUSH1 0x20 PUSH1 0x0 KECCAK256 SWAP1 JUMPDEST DUP2 SLOAD DUP2 MSTORE SWAP1 PUSH1 0x1 ADD SWAP1 PUSH1 0x20 ADD DUP1 DUP4 GT PUSH2 0x4EA JUMPI DUP3 SWAP1 SUB PUSH1 0x1F AND DUP3 ADD SWAP2 JUMPDEST POP POP POP POP POP SWAP1 DUP1 PUSH1 0x3 ADD PUSH1 0x0 SWAP1 SLOAD SWAP1 PUSH2 0x100 EXP SWAP1 DIV PUSH1 0xFF AND SWAP1 POP DUP4 JUMP JUMPDEST PUSH1 0x1 PUSH1 0x0 SWAP1 SLOAD SWAP1 PUSH2 0x100 EXP SWAP1 DIV PUSH20 0xFFFFFFFFFFFFFFFFFFFFFFFFFFFFFFFFFFFFFFFF AND PUSH20 0xFFFFFFFFFFFFFFFFFFFFFFFFFFFFFFFFFFFFFFFF AND CALLER PUSH20 0xFFFFFFFFFFFFFFFFFFFFFFFFFFFFFFFFFFFFFFFF AND EQ PUSH2 0x5B4 JUMPI PUSH1 0x40 MLOAD PUSH32 0x8C379A000000000000000000000000000000000000000000000000000000000 DUP2 MSTORE PUSH1 0x4 ADD PUSH2 0x5AB SWAP1 PUSH2 0xCFC JUMP JUMPDEST PUSH1 0x40 MLOAD DUP1 SWAP2 SUB SWAP1 REVERT JUMPDEST PUSH1 0x0 DUP1 SLOAD SWAP1 POP DUP2 LT PUSH2 0x5FB JUMPI PUSH1 0x40 MLOAD PUSH32 0x8C379A000000000000000000000000000000000000000000000000000000000 DUP2 MSTORE PUSH1 0x4 ADD PUSH2 0x5F2 SWAP1 PUSH2 0xD1C JUMP JUMPDEST PUSH1 0x40 MLOAD DUP1 SWAP2 SUB SWAP1 REVERT JUMPDEST PUSH1 0x0 DUP1 DUP3 DUP2 SLOAD DUP2 LT PUSH2 0x610 JUMPI PUSH2 0x60F PUSH2 0xFDC JUMP JUMPDEST JUMPDEST SWAP1 PUSH1 0x0 MSTORE PUSH1 0x20 PUSH1 0x0 KECCAK256 SWAP1 PUSH1 0x4 MUL ADD SWAP1 POP PUSH1 0x3 DUP1 DUP2 GT ISZERO PUSH2 0x633 JUMPI PUSH2 0x632 PUSH2 0xF7E JUMP JUMPDEST JUMPDEST DUP2 PUSH1 0x3 ADD PUSH1 0x0 SWAP1 SLOAD SWAP1 PUSH2 0x100 EXP SWAP1 DIV PUSH1 0xFF AND PUSH1 0x3 DUP2 GT ISZERO PUSH2 0x657 JUMPI PUSH2 0x656 PUSH2 0xF7E JUMP JUMPDEST JUMPDEST EQ ISZERO PUSH2 0x698 JUMPI PUSH1 0x40 MLOAD PUSH32 0x8C379A000000000000000000000000000000000000000000000000000000000 DUP2 MSTORE PUSH1 0x4 ADD PUSH2 0x68F SWAP1 PUSH2 0xCBC JUMP JUMPDEST PUSH1 0x40 MLOAD DUP1 SWAP2 SUB SWAP1 REVERT JUMPDEST PUSH1 0x0 PUSH1 0x3 DUP2 GT ISZERO PUSH2 0x6AC JUMPI PUSH2 0x6AB PUSH2 0xF7E JUMP JUMPDEST JUMPDEST DUP2 PUSH1 0x3 ADD PUSH1 0x0 SWAP1 SLOAD SWAP1 PUSH2 0x100 EXP SWAP1 DIV PUSH1 0xFF AND PUSH1 0x3 DUP2 GT ISZERO PUSH2 0x6D0 JUMPI PUSH2 0x6CF PUSH2 0xF7E JUMP JUMPDEST JUMPDEST EQ ISZERO PUSH2 0x708 JUMPI PUSH1 0x1 DUP2 PUSH1 0x3 ADD PUSH1 0x0 PUSH2 0x100 EXP DUP2 SLOAD DUP2 PUSH1 0xFF MUL NOT AND SWAP1 DUP4 PUSH1 0x3 DUP2 GT ISZERO PUSH2 0x6FE JUMPI PUSH2 0x6FD PUSH2 0xF7E JUMP JUMPDEST JUMPDEST MUL OR SWAP1 SSTORE POP PUSH2 0x7E6 JUMP JUMPDEST PUSH1 0x1 PUSH1 0x3 DUP2 GT ISZERO PUSH2 0x71C JUMPI PUSH2 0x71B PUSH2 0xF7E JUMP JUMPDEST JUMPDEST DUP2 PUSH1 0x3 ADD PUSH1 0x0 SWAP1 SLOAD SWAP1 PUSH2 0x100 EXP SWAP1 DIV PUSH1 0xFF AND PUSH1 0x3 DUP2 GT ISZERO PUSH2 0x740 JUMPI PUSH2 0x73F PUSH2 0xF7E JUMP JUMPDEST JUMPDEST EQ ISZERO PUSH2 0x778 JUMPI PUSH1 0x2 DUP2 PUSH1 0x3 ADD PUSH1 0x0 PUSH2 0x100 EXP DUP2 SLOAD DUP2 PUSH1 0xFF MUL NOT AND SWAP1 DUP4 PUSH1 0x3 DUP2 GT ISZERO PUSH2 0x76E JUMPI PUSH2 0x76D PUSH2 0xF7E JUMP JUMPDEST JUMPDEST MUL OR SWAP1 SSTORE POP PUSH2 0x7E5 JUMP JUMPDEST PUSH1 0x2 PUSH1 0x3 DUP2 GT ISZERO PUSH2 0x78C JUMPI PUSH2 0x78B PUSH2 0xF7E JUMP JUMPDEST JUMPDEST DUP2 PUSH1 0x3 ADD PUSH1 0x0 SWAP1 SLOAD SWAP1 PUSH2 0x100 EXP SWAP1 DIV PUSH1 0xFF AND PUSH1 0x3 DUP2 GT ISZERO PUSH2 0x7B0 JUMPI PUSH2 0x7AF PUSH2 0xF7E JUMP JUMPDEST JUMPDEST EQ ISZERO PUSH2 0x7E4 JUMPI PUSH1 0x3 DUP2 PUSH1 0x3 ADD PUSH1 0x0 PUSH2 0x100 EXP DUP2 SLOAD DUP2 PUSH1 0xFF MUL NOT AND SWAP1 DUP4 PUSH1 0x3 DUP2 GT ISZERO PUSH2 0x7DE JUMPI PUSH2 0x7DD PUSH2 0xF7E JUMP JUMPDEST JUMPDEST MUL OR SWAP1 SSTORE POP JUMPDEST JUMPDEST JUMPDEST POP POP JUMP JUMPDEST DUP3 DUP1 SLOAD PUSH2 0x7F6 SWAP1 PUSH2 0xEEC JUMP JUMPDEST SWAP1 PUSH1 0x0 MSTORE PUSH1 0x20 PUSH1 0x0 KECCAK256 SWAP1 PUSH1 0x1F ADD PUSH1 0x20 SWAP1 DIV DUP2 ADD SWAP3 DUP3 PUSH2 0x818 JUMPI PUSH1 0x0 DUP6 SSTORE PUSH2 0x85F JUMP JUMPDEST DUP3 PUSH1 0x1F LT PUSH2 0x831 JUMPI DUP1 MLOAD PUSH1 0xFF NOT AND DUP4 DUP1 ADD OR DUP6 SSTORE PUSH2 0x85F JUMP JUMPDEST DUP3 DUP1 ADD PUSH1 0x1 ADD DUP6 SSTORE DUP3 ISZERO PUSH2 0x85F JUMPI SWAP2 DUP3 ADD JUMPDEST DUP3 DUP2 GT ISZERO PUSH2 0x85E JUMPI DUP3 MLOAD DUP3 SSTORE SWAP2 PUSH1 0x20 ADD SWAP2 SWAP1 PUSH1 0x1 ADD SWAP1 PUSH2 0x843 JUMP JUMPDEST JUMPDEST POP SWAP1 POP PUSH2 0x86C SWAP2 SWAP1 PUSH2 0x90D JUMP JUMPDEST POP SWAP1 JUMP JUMPDEST PUSH1 0x40 MLOAD DUP1 PUSH1 0x80 ADD PUSH1 0x40 MSTORE DUP1 PUSH1 0x0 PUSH20 0xFFFFFFFFFFFFFFFFFFFFFFFFFFFFFFFFFFFFFFFF AND DUP2 MSTORE PUSH1 0x20 ADD PUSH1 0x60 DUP2 MSTORE PUSH1 0x20 ADD PUSH1 0x60 DUP2 MSTORE PUSH1 0x20 ADD PUSH1 0x0 PUSH1 0x3 DUP2 GT ISZERO PUSH2 0x8BA JUMPI PUSH2 0x8B9 PUSH2 0xF7E JUMP JUMPDEST JUMPDEST DUP2 MSTORE POP SWAP1 JUMP JUMPDEST DUP3 DUP1 SLOAD DUP3 DUP3 SSTORE SWAP1 PUSH1 0x0 MSTORE PUSH1 0x20 PUSH1 0x0 KECCAK256 SWAP1 DUP2 ADD SWAP3 DUP3 ISZERO PUSH2 0x8FC JUMPI SWAP2 PUSH1 0x20 MUL DUP3 ADD JUMPDEST DUP3 DUP2 GT ISZERO PUSH2 0x8FB JUMPI DUP3 MLOAD DUP3 SSTORE SWAP2 PUSH1 0x20 ADD SWAP2 SWAP1 PUSH1 0x1 ADD SWAP1 PUSH2 0x8E0 JUMP JUMPDEST JUMPDEST POP SWAP1 POP PUSH2 0x909 SWAP2 SWAP1 PUSH2 0x90D JUMP JUMPDEST POP SWAP1 JUMP JUMPDEST JUMPDEST DUP1 DUP3 GT ISZERO PUSH2 0x926 JUMPI PUSH1 0x0 DUP2 PUSH1 0x0 SWAP1 SSTORE POP PUSH1 0x1 ADD PUSH2 0x90E JUMP JUMPDEST POP SWAP1 JUMP JUMPDEST PUSH1 0x0 PUSH2 0x93D PUSH2 0x938 DUP5 PUSH2 0xD9C JUMP JUMPDEST PUSH2 0xD77 JUMP JUMPDEST SWAP1 POP DUP1 DUP4 DUP3 MSTORE PUSH1 0x20 DUP3 ADD SWAP1 POP DUP3 DUP6 PUSH1 0x20 DUP7 MUL DUP3 ADD GT ISZERO PUSH2 0x960 JUMPI PUSH2 0x95F PUSH2 0x103F JUMP JUMPDEST JUMPDEST PUSH1 0x0 JUMPDEST DUP6 DUP2 LT ISZERO PUSH2 0x990 JUMPI DUP2 PUSH2 0x976 DUP9 DUP3 PUSH2 0xA38 JUMP JUMPDEST DUP5 MSTORE PUSH1 0x20 DUP5 ADD SWAP4 POP PUSH1 0x20 DUP4 ADD SWAP3 POP POP PUSH1 0x1 DUP2 ADD SWAP1 POP PUSH2 0x963 JUMP JUMPDEST POP POP POP SWAP4 SWAP3 POP POP POP JUMP JUMPDEST PUSH1 0x0 PUSH2 0x9AD PUSH2 0x9A8 DUP5 PUSH2 0xDC8 JUMP JUMPDEST PUSH2 0xD77 JUMP JUMPDEST SWAP1 POP DUP3 DUP2 MSTORE PUSH1 0x20 DUP2 ADD DUP5 DUP5 DUP5 ADD GT ISZERO PUSH2 0x9C9 JUMPI PUSH2 0x9C8 PUSH2 0x1044 JUMP JUMPDEST JUMPDEST PUSH2 0x9D4 DUP5 DUP3 DUP6 PUSH2 0xEAA JUMP JUMPDEST POP SWAP4 SWAP3 POP POP POP JUMP JUMPDEST PUSH1 0x0 DUP3 PUSH1 0x1F DUP4 ADD SLT PUSH2 0x9F1 JUMPI PUSH2 0x9F0 PUSH2 0x103A JUMP JUMPDEST JUMPDEST DUP2 CALLDATALOAD PUSH2 0xA01 DUP5 DUP3 PUSH1 0x20 DUP7 ADD PUSH2 0x92A JUMP JUMPDEST SWAP2 POP POP SWAP3 SWAP2 POP POP JUMP JUMPDEST PUSH1 0x0 DUP3 PUSH1 0x1F DUP4 ADD SLT PUSH2 0xA1F JUMPI PUSH2 0xA1E PUSH2 0x103A JUMP JUMPDEST JUMPDEST DUP2 CALLDATALOAD PUSH2 0xA2F DUP5 DUP3 PUSH1 0x20 DUP7 ADD PUSH2 0x99A JUMP JUMPDEST SWAP2 POP POP SWAP3 SWAP2 POP POP JUMP JUMPDEST PUSH1 0x0 DUP2 CALLDATALOAD SWAP1 POP PUSH2 0xA47 DUP2 PUSH2 0x116B JUMP JUMPDEST SWAP3 SWAP2 POP POP JUMP JUMPDEST PUSH1 0x0 DUP1 PUSH1 0x40 DUP4 DUP6 SUB SLT ISZERO PUSH2 0xA64 JUMPI PUSH2 0xA63 PUSH2 0x104E JUMP JUMPDEST JUMPDEST PUSH1 0x0 DUP4 ADD CALLDATALOAD PUSH8 0xFFFFFFFFFFFFFFFF DUP2 GT ISZERO PUSH2 0xA82 JUMPI PUSH2 0xA81 PUSH2 0x1049 JUMP JUMPDEST JUMPDEST PUSH2 0xA8E DUP6 DUP3 DUP7 ADD PUSH2 0xA0A JUMP JUMPDEST SWAP3 POP POP PUSH1 0x20 DUP4 ADD CALLDATALOAD PUSH8 0xFFFFFFFFFFFFFFFF DUP2 GT ISZERO PUSH2 0xAAF JUMPI PUSH2 0xAAE PUSH2 0x1049 JUMP JUMPDEST JUMPDEST PUSH2 0xABB DUP6 DUP3 DUP7 ADD PUSH2 0x9DC JUMP JUMPDEST SWAP2 POP POP SWAP3 POP SWAP3 SWAP1 POP JUMP JUMPDEST PUSH1 0x0 PUSH1 0x20 DUP3 DUP5 SUB SLT ISZERO PUSH2 0xADB JUMPI PUSH2 0xADA PUSH2 0x104E JUMP JUMPDEST JUMPDEST PUSH1 0x0 PUSH2 0xAE9 DUP5 DUP3 DUP6 ADD PUSH2 0xA38 JUMP JUMPDEST SWAP2 POP POP SWAP3 SWAP2 POP POP JUMP JUMPDEST PUSH1 0x0 DUP1 PUSH1 0x40 DUP4 DUP6 SUB SLT ISZERO PUSH2 0xB09 JUMPI PUSH2 0xB08 PUSH2 0x104E JUMP JUMPDEST JUMPDEST PUSH1 0x0 PUSH2 0xB17 DUP6 DUP3 DUP7 ADD PUSH2 0xA38 JUMP JUMPDEST SWAP3 POP POP PUSH1 0x20 DUP4 ADD CALLDATALOAD PUSH8 0xFFFFFFFFFFFFFFFF DUP2 GT ISZERO PUSH2 0xB38 JUMPI PUSH2 0xB37 PUSH2 0x1049 JUMP JUMPDEST JUMPDEST PUSH2 0xB44 DUP6 DUP3 DUP7 ADD PUSH2 0xA0A JUMP JUMPDEST SWAP2 POP POP SWAP3 POP SWAP3 SWAP1 POP JUMP JUMPDEST PUSH2 0xB57 DUP2 PUSH2 0xE49 JUMP JUMPDEST DUP3 MSTORE POP POP JUMP JUMPDEST PUSH2 0xB66 DUP2 PUSH2 0xE98 JUMP JUMPDEST DUP3 MSTORE POP POP JUMP JUMPDEST PUSH1 0x0 PUSH2 0xB77 DUP3 PUSH2 0xDF9 JUMP JUMPDEST PUSH2 0xB81 DUP2 DUP6 PUSH2 0xE04 JUMP JUMPDEST SWAP4 POP PUSH2 0xB91 DUP2 DUP6 PUSH1 0x20 DUP7 ADD PUSH2 0xEB9 JUMP JUMPDEST PUSH2 0xB9A DUP2 PUSH2 0x1053 JUMP JUMPDEST DUP5 ADD SWAP2 POP POP SWAP3 SWAP2 POP POP JUMP JUMPDEST PUSH1 0x0 PUSH2 0xBB2 PUSH1 0x19 DUP4 PUSH2 0xE04 JUMP JUMPDEST SWAP2 POP PUSH2 0xBBD DUP3 PUSH2 0x1064 JUMP JUMPDEST PUSH1 0x20 DUP3 ADD SWAP1 POP SWAP2 SWAP1 POP JUMP JUMPDEST PUSH1 0x0 PUSH2 0xBD5 PUSH1 0xB DUP4 PUSH2 0xE04 JUMP JUMPDEST SWAP2 POP PUSH2 0xBE0 DUP3 PUSH2 0x108D JUMP JUMPDEST PUSH1 0x20 DUP3 ADD SWAP1 POP SWAP2 SWAP1 POP JUMP JUMPDEST PUSH1 0x0 PUSH2 0xBF8 PUSH1 0x16 DUP4 PUSH2 0xE04 JUMP JUMPDEST SWAP2 POP PUSH2 0xC03 DUP3 PUSH2 0x10B6 JUMP JUMPDEST PUSH1 0x20 DUP3 ADD SWAP1 POP SWAP2 SWAP1 POP JUMP JUMPDEST PUSH1 0x0 PUSH2 0xC1B PUSH1 0x14 DUP4 PUSH2 0xE04 JUMP JUMPDEST SWAP2 POP PUSH2 0xC26 DUP3 PUSH2 0x10DF JUMP JUMPDEST PUSH1 0x20 DUP3 ADD SWAP1 POP SWAP2 SWAP1 POP JUMP JUMPDEST PUSH1 0x0 PUSH2 0xC3E PUSH1 0x22 DUP4 PUSH2 0xE04 JUMP JUMPDEST SWAP2 POP PUSH2 0xC49 DUP3 PUSH2 0x1108 JUMP JUMPDEST PUSH1 0x40 DUP3 ADD SWAP1 POP SWAP2 SWAP1 POP JUMP JUMPDEST PUSH2 0xC5D DUP2 PUSH2 0xE8E JUMP JUMPDEST DUP3 MSTORE POP POP JUMP JUMPDEST PUSH1 0x0 PUSH1 0x20 DUP3 ADD SWAP1 POP PUSH2 0xC78 PUSH1 0x0 DUP4 ADD DUP5 PUSH2 0xB4E JUMP JUMPDEST SWAP3 SWAP2 POP POP JUMP JUMPDEST PUSH1 0x0 PUSH1 0x60 DUP3 ADD SWAP1 POP PUSH2 0xC93 PUSH1 0x0 DUP4 ADD DUP7 PUSH2 0xB4E JUMP JUMPDEST DUP2 DUP2 SUB PUSH1 0x20 DUP4 ADD MSTORE PUSH2 0xCA5 DUP2 DUP6 PUSH2 0xB6C JUMP JUMPDEST SWAP1 POP PUSH2 0xCB4 PUSH1 0x40 DUP4 ADD DUP5 PUSH2 0xB5D JUMP JUMPDEST SWAP5 SWAP4 POP POP POP POP JUMP JUMPDEST PUSH1 0x0 PUSH1 0x20 DUP3 ADD SWAP1 POP DUP2 DUP2 SUB PUSH1 0x0 DUP4 ADD MSTORE PUSH2 0xCD5 DUP2 PUSH2 0xBA5 JUMP JUMPDEST SWAP1 POP SWAP2 SWAP1 POP JUMP JUMPDEST PUSH1 0x0 PUSH1 0x20 DUP3 ADD SWAP1 POP DUP2 DUP2 SUB PUSH1 0x0 DUP4 ADD MSTORE PUSH2 0xCF5 DUP2 PUSH2 0xBC8 JUMP JUMPDEST SWAP1 POP SWAP2 SWAP1 POP JUMP JUMPDEST PUSH1 0x0 PUSH1 0x20 DUP3 ADD SWAP1 POP DUP2 DUP2 SUB PUSH1 0x0 DUP4 ADD MSTORE PUSH2 0xD15 DUP2 PUSH2 0xBEB JUMP JUMPDEST SWAP1 POP SWAP2 SWAP1 POP JUMP JUMPDEST PUSH1 0x0 PUSH1 0x20 DUP3 ADD SWAP1 POP DUP2 DUP2 SUB PUSH1 0x0 DUP4 ADD MSTORE PUSH2 0xD35 DUP2 PUSH2 0xC0E JUMP JUMPDEST SWAP1 POP SWAP2 SWAP1 POP JUMP JUMPDEST PUSH1 0x0 PUSH1 0x20 DUP3 ADD SWAP1 POP DUP2 DUP2 SUB PUSH1 0x0 DUP4 ADD MSTORE PUSH2 0xD55 DUP2 PUSH2 0xC31 JUMP JUMPDEST SWAP1 POP SWAP2 SWAP1 POP JUMP JUMPDEST PUSH1 0x0 PUSH1 0x20 DUP3 ADD SWAP1 POP PUSH2 0xD71 PUSH1 0x0 DUP4 ADD DUP5 PUSH2 0xC54 JUMP JUMPDEST SWAP3 SWAP2 POP POP JUMP JUMPDEST PUSH1 0x0 PUSH2 0xD81 PUSH2 0xD92 JUMP JUMPDEST SWAP1 POP PUSH2 0xD8D DUP3 DUP3 PUSH2 0xF1E JUMP JUMPDEST SWAP2 SWAP1 POP JUMP JUMPDEST PUSH1 0x0 PUSH1 0x40 MLOAD SWAP1 POP SWAP1 JUMP JUMPDEST PUSH1 0x0 PUSH8 0xFFFFFFFFFFFFFFFF DUP3 GT ISZERO PUSH2 0xDB7 JUMPI PUSH2 0xDB6 PUSH2 0x100B JUMP JUMPDEST JUMPDEST PUSH1 0x20 DUP3 MUL SWAP1 POP PUSH1 0x20 DUP2 ADD SWAP1 POP SWAP2 SWAP1 POP JUMP JUMPDEST PUSH1 0x0 PUSH8 0xFFFFFFFFFFFFFFFF DUP3 GT ISZERO PUSH2 0xDE3 JUMPI PUSH2 0xDE2 PUSH2 0x100B JUMP JUMPDEST JUMPDEST PUSH2 0xDEC DUP3 PUSH2 0x1053 JUMP JUMPDEST SWAP1 POP PUSH1 0x20 DUP2 ADD SWAP1 POP SWAP2 SWAP1 POP JUMP JUMPDEST PUSH1 0x0 DUP2 MLOAD SWAP1 POP SWAP2 SWAP1 POP JUMP JUMPDEST PUSH1 0x0 DUP3 DUP3 MSTORE PUSH1 0x20 DUP3 ADD SWAP1 POP SWAP3 SWAP2 POP POP JUMP JUMPDEST PUSH1 0x0 PUSH2 0xE20 DUP3 PUSH2 0xE8E JUMP JUMPDEST SWAP2 POP PUSH2 0xE2B DUP4 PUSH2 0xE8E JUMP JUMPDEST SWAP3 POP DUP3 DUP3 LT ISZERO PUSH2 0xE3E JUMPI PUSH2 0xE3D PUSH2 0xF4F JUMP JUMPDEST JUMPDEST DUP3 DUP3 SUB SWAP1 POP SWAP3 SWAP2 POP POP JUMP JUMPDEST PUSH1 0x0 PUSH2 0xE54 DUP3 PUSH2 0xE6E JUMP JUMPDEST SWAP1 POP SWAP2 SWAP1 POP JUMP JUMPDEST PUSH1 0x0 DUP2 SWAP1 POP PUSH2 0xE69 DUP3 PUSH2 0x1157 JUMP JUMPDEST SWAP2 SWAP1 POP JUMP JUMPDEST PUSH1 0x0 PUSH20 0xFFFFFFFFFFFFFFFFFFFFFFFFFFFFFFFFFFFFFFFF DUP3 AND SWAP1 POP SWAP2 SWAP1 POP JUMP JUMPDEST PUSH1 0x0 DUP2 SWAP1 POP SWAP2 SWAP1 POP JUMP JUMPDEST PUSH1 0x0 PUSH2 0xEA3 DUP3 PUSH2 0xE5B JUMP JUMPDEST SWAP1 POP SWAP2 SWAP1 POP JUMP JUMPDEST DUP3 DUP2 DUP4 CALLDATACOPY PUSH1 0x0 DUP4 DUP4 ADD MSTORE POP POP POP JUMP JUMPDEST PUSH1 0x0 JUMPDEST DUP4 DUP2 LT ISZERO PUSH2 0xED7 JUMPI DUP1 DUP3 ADD MLOAD DUP2 DUP5 ADD MSTORE PUSH1 0x20 DUP2 ADD SWAP1 POP PUSH2 0xEBC JUMP JUMPDEST DUP4 DUP2 GT ISZERO PUSH2 0xEE6 JUMPI PUSH1 0x0 DUP5 DUP5 ADD MSTORE JUMPDEST POP POP POP POP JUMP JUMPDEST PUSH1 0x0 PUSH1 0x2 DUP3 DIV SWAP1 POP PUSH1 0x1 DUP3 AND DUP1 PUSH2 0xF04 JUMPI PUSH1 0x7F DUP3 AND SWAP2 POP JUMPDEST PUSH1 0x20 DUP3 LT DUP2 EQ ISZERO PUSH2 0xF18 JUMPI PUSH2 0xF17 PUSH2 0xFAD JUMP JUMPDEST JUMPDEST POP SWAP2 SWAP1 POP JUMP JUMPDEST PUSH2 0xF27 DUP3 PUSH2 0x1053 JUMP JUMPDEST DUP2 ADD DUP2 DUP2 LT PUSH8 0xFFFFFFFFFFFFFFFF DUP3 GT OR ISZERO PUSH2 0xF46 JUMPI PUSH2 0xF45 PUSH2 0x100B JUMP JUMPDEST JUMPDEST DUP1 PUSH1 0x40 MSTORE POP POP POP JUMP JUMPDEST PUSH32 0x4E487B7100000000000000000000000000000000000000000000000000000000 PUSH1 0x0 MSTORE PUSH1 0x11 PUSH1 0x4 MSTORE PUSH1 0x24 PUSH1 0x0 REVERT JUMPDEST PUSH32 0x4E487B7100000000000000000000000000000000000000000000000000000000 PUSH1 0x0 MSTORE PUSH1 0x21 PUSH1 0x4 MSTORE PUSH1 0x24 PUSH1 0x0 REVERT JUMPDEST PUSH32 0x4E487B7100000000000000000000000000000000000000000000000000000000 PUSH1 0x0 MSTORE PUSH1 0x22 PUSH1 0x4 MSTORE PUSH1 0x24 PUSH1 0x0 REVERT JUMPDEST PUSH32 0x4E487B7100000000000000000000000000000000000000000000000000000000 PUSH1 0x0 MSTORE PUSH1 0x32 PUSH1 0x4 MSTORE PUSH1 0x24 PUSH1 0x0 REVERT JUMPDEST PUSH32 0x4E487B7100000000000000000000000000000000000000000000000000000000 PUSH1 0x0 MSTORE PUSH1 0x41 PUSH1 0x4 MSTORE PUSH1 0x24 PUSH1 0x0 REVERT JUMPDEST PUSH1 0x0 DUP1 REVERT JUMPDEST PUSH1 0x0 DUP1 REVERT JUMPDEST PUSH1 0x0 DUP1 REVERT JUMPDEST PUSH1 0x0 DUP1 REVERT JUMPDEST PUSH1 0x0 DUP1 REVERT JUMPDEST PUSH1 0x0 PUSH1 0x1F NOT PUSH1 0x1F DUP4 ADD AND SWAP1 POP SWAP2 SWAP1 POP JUMP JUMPDEST PUSH32 0x4F7264657220697320616C726561647920736869707065642E00000000000000 PUSH1 0x0 DUP3 ADD MSTORE POP JUMP JUMPDEST PUSH32 0x4E6F2070726F6475637473000000000000000000000000000000000000000000 PUSH1 0x0 DUP3 ADD MSTORE POP JUMP JUMPDEST PUSH32 0x596F75277265206E6F7420617574686F72697A65642E00000000000000000000 PUSH1 0x0 DUP3 ADD MSTORE POP JUMP JUMPDEST PUSH32 0x4E6F7420612076616C6964206F72646572206964000000000000000000000000 PUSH1 0x0 DUP3 ADD MSTORE POP JUMP JUMPDEST PUSH32 0x596F7520617265206E6F7420746865206F776E6572206F6620746865206F7264 PUSH1 0x0 DUP3 ADD MSTORE PUSH32 0x6572000000000000000000000000000000000000000000000000000000000000 PUSH1 0x20 DUP3 ADD MSTORE POP JUMP JUMPDEST PUSH1 0x4 DUP2 LT PUSH2 0x1168 JUMPI PUSH2 0x1167 PUSH2 0xF7E JUMP JUMPDEST JUMPDEST POP JUMP JUMPDEST PUSH2 0x1174 DUP2 PUSH2 0xE8E JUMP JUMPDEST DUP2 EQ PUSH2 0x117F JUMPI PUSH1 0x0 DUP1 REVERT JUMPDEST POP JUMP INVALID LOG2 PUSH5 0x6970667358 0x22 SLT KECCAK256 0x4A SWAP10 0xC4 MULMOD DUP16 0x5D PUSH18 0x16AD71A1EBADAD26F6DCE747E5DDF5E17185 0xF9 PUSH4 0xBB7735DE 0xAD PUSH5 0x736F6C6343 STOP ADDMOD SMOD STOP CALLER "
				},
				"gasEstimates": {
					"creation": {
						"codeDepositCost": "907200",
						"executionCost": "25208",
						"totalCost": "932408"
					},
					"external": {
						"advanceOrder(uint256)": "40152",
						"createOrder(string,uint256[])": "infinite",
						"orders(uint256)": "infinite",
						"owner()": "2536",
						"updateZip(uint256,string)": "infinite"
					}
				},
				"methodIdentifiers": {
					"advanceOrder(uint256)": "afe13a62",
					"createOrder(string,uint256[])": "6d9a65d8",
					"orders(uint256)": "a85c38ef",
					"owner()": "8da5cb5b",
					"updateZip(uint256,string)": "577dc0a0"
				}
			},
			"storageLayout": {
				"storage": [
					{
						"astId": 21,
						"contract": "contracts/StructsEnumsModifiers.sol:StructsEnumsModifiers",
						"label": "orders",
						"offset": 0,
						"slot": "0",
						"type": "t_array(t_struct(Order)17_storage)dyn_storage"
					},
					{
						"astId": 23,
						"contract": "contracts/StructsEnumsModifiers.sol:StructsEnumsModifiers",
						"label": "owner",
						"offset": 0,
						"slot": "1",
						"type": "t_address"
					}
				],
				"types": {
					"t_address": {
						"encoding": "inplace",
						"label": "address",
						"numberOfBytes": "20"
					},
					"t_array(t_struct(Order)17_storage)dyn_storage": {
						"base": "t_struct(Order)17_storage",
						"encoding": "dynamic_array",
						"label": "struct StructsEnumsModifiers.Order[]",
						"numberOfBytes": "32"
					},
					"t_array(t_uint256)dyn_storage": {
						"base": "t_uint256",
						"encoding": "dynamic_array",
						"label": "uint256[]",
						"numberOfBytes": "32"
					},
					"t_enum(Status)6": {
						"encoding": "inplace",
						"label": "enum StructsEnumsModifiers.Status",
						"numberOfBytes": "1"
					},
					"t_string_storage": {
						"encoding": "bytes",
						"label": "string",
						"numberOfBytes": "32"
					},
					"t_struct(Order)17_storage": {
						"encoding": "inplace",
						"label": "struct StructsEnumsModifiers.Order",
						"members": [
							{
								"astId": 8,
								"contract": "contracts/StructsEnumsModifiers.sol:StructsEnumsModifiers",
								"label": "customer",
								"offset": 0,
								"slot": "0",
								"type": "t_address"
							},
							{
								"astId": 10,
								"contract": "contracts/StructsEnumsModifiers.sol:StructsEnumsModifiers",
								"label": "zipCode",
								"offset": 0,
								"slot": "1",
								"type": "t_string_storage"
							},
							{
								"astId": 13,
								"contract": "contracts/StructsEnumsModifiers.sol:StructsEnumsModifiers",
								"label": "products",
								"offset": 0,
								"slot": "2",
								"type": "t_array(t_uint256)dyn_storage"
							},
							{
								"astId": 16,
								"contract": "contracts/StructsEnumsModifiers.sol:StructsEnumsModifiers",
								"label": "status",
								"offset": 0,
								"slot": "3",
								"type": "t_enum(Status)6"
							}
						],
						"numberOfBytes": "128"
					},
					"t_uint256": {
						"encoding": "inplace",
						"label": "uint256",
						"numberOfBytes": "32"
					}
				}
			},
			"userdoc": {
				"kind": "user",
				"methods": {},
				"version": 1
			}
		}
	}
}