{
	"contracts/StructsEnums.sol": {
		"StructsEnums": {
			"abi": [
				{
					"inputs": [],
					"stateMutability": "nonpayable",
					"type": "constructor"
				},
				{
					"inputs": [
						{
							"internalType": "uint256",
							"name": "_orderId",
							"type": "uint256"
						}
					],
					"name": "advanceOrder",
					"outputs": [],
					"stateMutability": "nonpayable",
					"type": "function"
				},
				{
					"inputs": [
						{
							"internalType": "string",
							"name": "_zipCode",
							"type": "string"
						},
						{
							"internalType": "uint256[]",
							"name": "_products",
							"type": "uint256[]"
						}
					],
					"name": "createOrder",
					"outputs": [
						{
							"internalType": "uint256",
							"name": "",
							"type": "uint256"
						}
					],
					"stateMutability": "nonpayable",
					"type": "function"
				},
				{
					"inputs": [
						{
							"internalType": "uint256",
							"name": "",
							"type": "uint256"
						}
					],
					"name": "orders",
					"outputs": [
						{
							"internalType": "address",
							"name": "customer",
							"type": "address"
						},
						{
							"internalType": "string",
							"name": "zipCode",
							"type": "string"
						},
						{
							"internalType": "enum StructsEnums.Status",
							"name": "status",
							"type": "uint8"
						}
					],
					"stateMutability": "view",
					"type": "function"
				},
				{
					"inputs": [],
					"name": "owner",
					"outputs": [
						{
							"internalType": "address",
							"name": "",
							"type": "address"
						}
					],
					"stateMutability": "view",
					"type": "function"
				}
			],
			"devdoc": {
				"kind": "dev",
				"methods": {},
				"version": 1
			},
			"evm": {
				"assembly": "    /* \"contracts/StructsEnums.sol\":64:1328  contract StructsEnums {... */\n  mstore(0x40, 0x80)\n    /* \"contracts/StructsEnums.sol\":364:413  constructor() {... */\n  callvalue\n  dup1\n  iszero\n  tag_1\n  jumpi\n  0x00\n  dup1\n  revert\ntag_1:\n  pop\n    /* \"contracts/StructsEnums.sol\":396:406  msg.sender */\n  caller\n    /* \"contracts/StructsEnums.sol\":388:393  owner */\n  0x01\n  0x00\n    /* \"contracts/StructsEnums.sol\":388:406  owner = msg.sender */\n  0x0100\n  exp\n  dup2\n  sload\n  dup2\n  0xffffffffffffffffffffffffffffffffffffffff\n  mul\n  not\n  and\n  swap1\n  dup4\n  0xffffffffffffffffffffffffffffffffffffffff\n  and\n  mul\n  or\n  swap1\n  sstore\n  pop\n    /* \"contracts/StructsEnums.sol\":64:1328  contract StructsEnums {... */\n  dataSize(sub_0)\n  dup1\n  dataOffset(sub_0)\n  0x00\n  codecopy\n  0x00\n  return\nstop\n\nsub_0: assembly {\n        /* \"contracts/StructsEnums.sol\":64:1328  contract StructsEnums {... */\n      mstore(0x40, 0x80)\n      callvalue\n      dup1\n      iszero\n      tag_1\n      jumpi\n      0x00\n      dup1\n      revert\n    tag_1:\n      pop\n      jumpi(tag_2, lt(calldatasize, 0x04))\n      shr(0xe0, calldataload(0x00))\n      dup1\n      0x6d9a65d8\n      eq\n      tag_3\n      jumpi\n      dup1\n      0x8da5cb5b\n      eq\n      tag_4\n      jumpi\n      dup1\n      0xa85c38ef\n      eq\n      tag_5\n      jumpi\n      dup1\n      0xafe13a62\n      eq\n      tag_6\n      jumpi\n    tag_2:\n      0x00\n      dup1\n      revert\n        /* \"contracts/StructsEnums.sol\":419:1129  function createOrder(string memory _zipCode, uint256[] memory _products) public returns(uint256){... */\n    tag_3:\n      tag_7\n      0x04\n      dup1\n      calldatasize\n      sub\n      dup2\n      add\n      swap1\n      tag_8\n      swap2\n      swap1\n      tag_9\n      jump\t// in\n    tag_8:\n      tag_10\n      jump\t// in\n    tag_7:\n      mload(0x40)\n      tag_11\n      swap2\n      swap1\n      tag_12\n      jump\t// in\n    tag_11:\n      mload(0x40)\n      dup1\n      swap2\n      sub\n      swap1\n      return\n        /* \"contracts/StructsEnums.sol\":337:357  address public owner */\n    tag_4:\n      tag_13\n      tag_14\n      jump\t// in\n    tag_13:\n      mload(0x40)\n      tag_15\n      swap2\n      swap1\n      tag_16\n      jump\t// in\n    tag_15:\n      mload(0x40)\n      dup1\n      swap2\n      sub\n      swap1\n      return\n        /* \"contracts/StructsEnums.sol\":310:331  Order[] public orders */\n    tag_5:\n      tag_17\n      0x04\n      dup1\n      calldatasize\n      sub\n      dup2\n      add\n      swap1\n      tag_18\n      swap2\n      swap1\n      tag_19\n      jump\t// in\n    tag_18:\n      tag_20\n      jump\t// in\n    tag_17:\n      mload(0x40)\n      tag_21\n      swap4\n      swap3\n      swap2\n      swap1\n      tag_22\n      jump\t// in\n    tag_21:\n      mload(0x40)\n      dup1\n      swap2\n      sub\n      swap1\n      return\n        /* \"contracts/StructsEnums.sol\":1135:1320  function advanceOrder(uint256 _orderId) public {... */\n    tag_6:\n      tag_23\n      0x04\n      dup1\n      calldatasize\n      sub\n      dup2\n      add\n      swap1\n      tag_24\n      swap2\n      swap1\n      tag_19\n      jump\t// in\n    tag_24:\n      tag_25\n      jump\t// in\n    tag_23:\n      stop\n        /* \"contracts/StructsEnums.sol\":419:1129  function createOrder(string memory _zipCode, uint256[] memory _products) public returns(uint256){... */\n    tag_10:\n        /* \"contracts/StructsEnums.sol\":507:514  uint256 */\n      0x00\n        /* \"contracts/StructsEnums.sol\":552:553  0 */\n      dup1\n        /* \"contracts/StructsEnums.sol\":533:542  _products */\n      dup3\n        /* \"contracts/StructsEnums.sol\":533:549  _products.length */\n      mload\n        /* \"contracts/StructsEnums.sol\":533:553  _products.length > 0 */\n      gt\n        /* \"contracts/StructsEnums.sol\":525:569  require(_products.length > 0, \"No products\") */\n      tag_27\n      jumpi\n      mload(0x40)\n      0x08c379a000000000000000000000000000000000000000000000000000000000\n      dup2\n      mstore\n      0x04\n      add\n      tag_28\n      swap1\n      tag_29\n      jump\t// in\n    tag_28:\n      mload(0x40)\n      dup1\n      swap2\n      sub\n      swap1\n      revert\n    tag_27:\n        /* \"contracts/StructsEnums.sol\":580:598  Order memory order */\n      tag_30\n      tag_31\n      jump\t// in\n    tag_30:\n        /* \"contracts/StructsEnums.sol\":625:635  msg.sender */\n      caller\n        /* \"contracts/StructsEnums.sol\":608:613  order */\n      dup2\n        /* \"contracts/StructsEnums.sol\":608:622  order.customer */\n      0x00\n      add\n        /* \"contracts/StructsEnums.sol\":608:635  order.customer = msg.sender */\n      swap1\n      0xffffffffffffffffffffffffffffffffffffffff\n      and\n      swap1\n      dup2\n      0xffffffffffffffffffffffffffffffffffffffff\n      and\n      dup2\n      mstore\n      pop\n      pop\n        /* \"contracts/StructsEnums.sol\":661:669  _zipCode */\n      dup4\n        /* \"contracts/StructsEnums.sol\":645:650  order */\n      dup2\n        /* \"contracts/StructsEnums.sol\":645:658  order.zipCode */\n      0x20\n      add\n        /* \"contracts/StructsEnums.sol\":645:669  order.zipCode = _zipCode */\n      dup2\n      swap1\n      mstore\n      pop\n        /* \"contracts/StructsEnums.sol\":696:705  _products */\n      dup3\n        /* \"contracts/StructsEnums.sol\":679:684  order */\n      dup2\n        /* \"contracts/StructsEnums.sol\":679:693  order.products */\n      0x40\n      add\n        /* \"contracts/StructsEnums.sol\":679:705  order.products = _products */\n      dup2\n      swap1\n      mstore\n      pop\n        /* \"contracts/StructsEnums.sol\":730:742  Status.Taken */\n      0x00\n        /* \"contracts/StructsEnums.sol\":715:720  order */\n      dup2\n        /* \"contracts/StructsEnums.sol\":715:727  order.status */\n      0x60\n      add\n        /* \"contracts/StructsEnums.sol\":715:742  order.status = Status.Taken */\n      swap1\n      0x03\n      dup2\n      gt\n      iszero\n      tag_32\n      jumpi\n      tag_33\n      tag_34\n      jump\t// in\n    tag_33:\n    tag_32:\n      swap1\n      dup2\n      0x03\n      dup2\n      gt\n      iszero\n      tag_35\n      jumpi\n      tag_36\n      tag_34\n      jump\t// in\n    tag_36:\n    tag_35:\n      dup2\n      mstore\n      pop\n      pop\n        /* \"contracts/StructsEnums.sol\":752:758  orders */\n      0x00\n        /* \"contracts/StructsEnums.sol\":764:769  order */\n      dup2\n        /* \"contracts/StructsEnums.sol\":752:770  orders.push(order) */\n      swap1\n      dup1\n      0x01\n      dup2\n      sload\n      add\n      dup1\n      dup3\n      sstore\n      dup1\n      swap2\n      pop\n      pop\n      0x01\n      swap1\n      sub\n      swap1\n      0x00\n      mstore\n      keccak256(0x00, 0x20)\n      swap1\n      0x04\n      mul\n      add\n      0x00\n      swap1\n      swap2\n      swap1\n      swap2\n      swap1\n      swap2\n      pop\n      0x00\n      dup3\n      add\n      mload\n      dup2\n      0x00\n      add\n      exp(0x0100, 0x00)\n      dup2\n      sload\n      dup2\n      0xffffffffffffffffffffffffffffffffffffffff\n      mul\n      not\n      and\n      swap1\n      dup4\n      0xffffffffffffffffffffffffffffffffffffffff\n      and\n      mul\n      or\n      swap1\n      sstore\n      pop\n      0x20\n      dup3\n      add\n      mload\n      dup2\n      0x01\n      add\n      swap1\n      dup1\n      mload\n      swap1\n      0x20\n      add\n      swap1\n      tag_38\n      swap3\n      swap2\n      swap1\n      tag_39\n      jump\t// in\n    tag_38:\n      pop\n      0x40\n      dup3\n      add\n      mload\n      dup2\n      0x02\n      add\n      swap1\n      dup1\n      mload\n      swap1\n      0x20\n      add\n      swap1\n      tag_40\n      swap3\n      swap2\n      swap1\n      tag_41\n      jump\t// in\n    tag_40:\n      pop\n      0x60\n      dup3\n      add\n      mload\n      dup2\n      0x03\n      add\n      exp(0x0100, 0x00)\n      dup2\n      sload\n      dup2\n      0xff\n      mul\n      not\n      and\n      swap1\n      dup4\n      0x03\n      dup2\n      gt\n      iszero\n      tag_42\n      jumpi\n      tag_43\n      tag_34\n      jump\t// in\n    tag_43:\n    tag_42:\n      mul\n      or\n      swap1\n      sstore\n      pop\n      pop\n      pop\n        /* \"contracts/StructsEnums.sol\":1121:1122  1 */\n      0x01\n        /* \"contracts/StructsEnums.sol\":1105:1111  orders */\n      0x00\n        /* \"contracts/StructsEnums.sol\":1105:1118  orders.length */\n      dup1\n      sload\n      swap1\n      pop\n        /* \"contracts/StructsEnums.sol\":1105:1122  orders.length - 1 */\n      tag_44\n      swap2\n      swap1\n      tag_45\n      jump\t// in\n    tag_44:\n        /* \"contracts/StructsEnums.sol\":1098:1122  return orders.length - 1 */\n      swap2\n      pop\n      pop\n        /* \"contracts/StructsEnums.sol\":419:1129  function createOrder(string memory _zipCode, uint256[] memory _products) public returns(uint256){... */\n      swap3\n      swap2\n      pop\n      pop\n      jump\t// out\n        /* \"contracts/StructsEnums.sol\":337:357  address public owner */\n    tag_14:\n      0x01\n      0x00\n      swap1\n      sload\n      swap1\n      0x0100\n      exp\n      swap1\n      div\n      0xffffffffffffffffffffffffffffffffffffffff\n      and\n      dup2\n      jump\t// out\n        /* \"contracts/StructsEnums.sol\":310:331  Order[] public orders */\n    tag_20:\n      0x00\n      dup2\n      dup2\n      sload\n      dup2\n      lt\n      tag_46\n      jumpi\n      0x00\n      dup1\n      revert\n    tag_46:\n      swap1\n      0x00\n      mstore\n      keccak256(0x00, 0x20)\n      swap1\n      0x04\n      mul\n      add\n      0x00\n      swap2\n      pop\n      swap1\n      pop\n      dup1\n      0x00\n      add\n      0x00\n      swap1\n      sload\n      swap1\n      0x0100\n      exp\n      swap1\n      div\n      0xffffffffffffffffffffffffffffffffffffffff\n      and\n      swap1\n      dup1\n      0x01\n      add\n      dup1\n      sload\n      tag_48\n      swap1\n      tag_49\n      jump\t// in\n    tag_48:\n      dup1\n      0x1f\n      add\n      0x20\n      dup1\n      swap2\n      div\n      mul\n      0x20\n      add\n      mload(0x40)\n      swap1\n      dup2\n      add\n      0x40\n      mstore\n      dup1\n      swap3\n      swap2\n      swap1\n      dup2\n      dup2\n      mstore\n      0x20\n      add\n      dup3\n      dup1\n      sload\n      tag_50\n      swap1\n      tag_49\n      jump\t// in\n    tag_50:\n      dup1\n      iszero\n      tag_51\n      jumpi\n      dup1\n      0x1f\n      lt\n      tag_52\n      jumpi\n      0x0100\n      dup1\n      dup4\n      sload\n      div\n      mul\n      dup4\n      mstore\n      swap2\n      0x20\n      add\n      swap2\n      jump(tag_51)\n    tag_52:\n      dup3\n      add\n      swap2\n      swap1\n      0x00\n      mstore\n      keccak256(0x00, 0x20)\n      swap1\n    tag_53:\n      dup2\n      sload\n      dup2\n      mstore\n      swap1\n      0x01\n      add\n      swap1\n      0x20\n      add\n      dup1\n      dup4\n      gt\n      tag_53\n      jumpi\n      dup3\n      swap1\n      sub\n      0x1f\n      and\n      dup3\n      add\n      swap2\n    tag_51:\n      pop\n      pop\n      pop\n      pop\n      pop\n      swap1\n      dup1\n      0x03\n      add\n      0x00\n      swap1\n      sload\n      swap1\n      0x0100\n      exp\n      swap1\n      div\n      0xff\n      and\n      swap1\n      pop\n      dup4\n      jump\t// out\n        /* \"contracts/StructsEnums.sol\":1135:1320  function advanceOrder(uint256 _orderId) public {... */\n    tag_25:\n        /* \"contracts/StructsEnums.sol\":1214:1219  owner */\n      0x01\n      0x00\n      swap1\n      sload\n      swap1\n      0x0100\n      exp\n      swap1\n      div\n      0xffffffffffffffffffffffffffffffffffffffff\n      and\n        /* \"contracts/StructsEnums.sol\":1200:1219  msg.sender == owner */\n      0xffffffffffffffffffffffffffffffffffffffff\n      and\n        /* \"contracts/StructsEnums.sol\":1200:1210  msg.sender */\n      caller\n        /* \"contracts/StructsEnums.sol\":1200:1219  msg.sender == owner */\n      0xffffffffffffffffffffffffffffffffffffffff\n      and\n      eq\n        /* \"contracts/StructsEnums.sol\":1192:1246  require(msg.sender == owner, \"You're not authorized.\") */\n      tag_55\n      jumpi\n      mload(0x40)\n      0x08c379a000000000000000000000000000000000000000000000000000000000\n      dup2\n      mstore\n      0x04\n      add\n      tag_56\n      swap1\n      tag_57\n      jump\t// in\n    tag_56:\n      mload(0x40)\n      dup1\n      swap2\n      sub\n      swap1\n      revert\n    tag_55:\n        /* \"contracts/StructsEnums.sol\":1275:1281  orders */\n      0x00\n        /* \"contracts/StructsEnums.sol\":1275:1288  orders.length */\n      dup1\n      sload\n      swap1\n      pop\n        /* \"contracts/StructsEnums.sol\":1264:1272  _orderId */\n      dup2\n        /* \"contracts/StructsEnums.sol\":1264:1288  _orderId < orders.length */\n      lt\n        /* \"contracts/StructsEnums.sol\":1256:1313  require(_orderId < orders.length, \"Not a valid order id\") */\n      tag_58\n      jumpi\n      mload(0x40)\n      0x08c379a000000000000000000000000000000000000000000000000000000000\n      dup2\n      mstore\n      0x04\n      add\n      tag_59\n      swap1\n      tag_60\n      jump\t// in\n    tag_59:\n      mload(0x40)\n      dup1\n      swap2\n      sub\n      swap1\n      revert\n    tag_58:\n        /* \"contracts/StructsEnums.sol\":1135:1320  function advanceOrder(uint256 _orderId) public {... */\n      pop\n      jump\t// out\n    tag_31:\n      mload(0x40)\n      dup1\n      0x80\n      add\n      0x40\n      mstore\n      dup1\n      and(0xffffffffffffffffffffffffffffffffffffffff, 0x00)\n      dup2\n      mstore\n      0x20\n      add\n      0x60\n      dup2\n      mstore\n      0x20\n      add\n      0x60\n      dup2\n      mstore\n      0x20\n      add\n      0x00\n      0x03\n      dup2\n      gt\n      iszero\n      tag_61\n      jumpi\n      tag_62\n      tag_34\n      jump\t// in\n    tag_62:\n    tag_61:\n      dup2\n      mstore\n      pop\n      swap1\n      jump\t// out\n    tag_39:\n      dup3\n      dup1\n      sload\n      tag_63\n      swap1\n      tag_49\n      jump\t// in\n    tag_63:\n      swap1\n      0x00\n      mstore\n      keccak256(0x00, 0x20)\n      swap1\n      0x1f\n      add\n      0x20\n      swap1\n      div\n      dup2\n      add\n      swap3\n      dup3\n      tag_65\n      jumpi\n      0x00\n      dup6\n      sstore\n      jump(tag_64)\n    tag_65:\n      dup3\n      0x1f\n      lt\n      tag_66\n      jumpi\n      dup1\n      mload\n      not(0xff)\n      and\n      dup4\n      dup1\n      add\n      or\n      dup6\n      sstore\n      jump(tag_64)\n    tag_66:\n      dup3\n      dup1\n      add\n      0x01\n      add\n      dup6\n      sstore\n      dup3\n      iszero\n      tag_64\n      jumpi\n      swap2\n      dup3\n      add\n    tag_67:\n      dup3\n      dup2\n      gt\n      iszero\n      tag_68\n      jumpi\n      dup3\n      mload\n      dup3\n      sstore\n      swap2\n      0x20\n      add\n      swap2\n      swap1\n      0x01\n      add\n      swap1\n      jump(tag_67)\n    tag_68:\n    tag_64:\n      pop\n      swap1\n      pop\n      tag_69\n      swap2\n      swap1\n      tag_70\n      jump\t// in\n    tag_69:\n      pop\n      swap1\n      jump\t// out\n    tag_41:\n      dup3\n      dup1\n      sload\n      dup3\n      dup3\n      sstore\n      swap1\n      0x00\n      mstore\n      keccak256(0x00, 0x20)\n      swap1\n      dup2\n      add\n      swap3\n      dup3\n      iszero\n      tag_71\n      jumpi\n      swap2\n      0x20\n      mul\n      dup3\n      add\n    tag_72:\n      dup3\n      dup2\n      gt\n      iszero\n      tag_73\n      jumpi\n      dup3\n      mload\n      dup3\n      sstore\n      swap2\n      0x20\n      add\n      swap2\n      swap1\n      0x01\n      add\n      swap1\n      jump(tag_72)\n    tag_73:\n    tag_71:\n      pop\n      swap1\n      pop\n      tag_74\n      swap2\n      swap1\n      tag_70\n      jump\t// in\n    tag_74:\n      pop\n      swap1\n      jump\t// out\n    tag_70:\n    tag_75:\n      dup1\n      dup3\n      gt\n      iszero\n      tag_76\n      jumpi\n      0x00\n      dup2\n      0x00\n      swap1\n      sstore\n      pop\n      0x01\n      add\n      jump(tag_75)\n    tag_76:\n      pop\n      swap1\n      jump\t// out\n        /* \"#utility.yul\":24:746   */\n    tag_78:\n        /* \"#utility.yul\":120:125   */\n      0x00\n        /* \"#utility.yul\":145:226   */\n      tag_80\n        /* \"#utility.yul\":161:225   */\n      tag_81\n        /* \"#utility.yul\":218:224   */\n      dup5\n        /* \"#utility.yul\":161:225   */\n      tag_82\n      jump\t// in\n    tag_81:\n        /* \"#utility.yul\":145:226   */\n      tag_83\n      jump\t// in\n    tag_80:\n        /* \"#utility.yul\":136:226   */\n      swap1\n      pop\n        /* \"#utility.yul\":246:251   */\n      dup1\n        /* \"#utility.yul\":275:281   */\n      dup4\n        /* \"#utility.yul\":268:273   */\n      dup3\n        /* \"#utility.yul\":261:282   */\n      mstore\n        /* \"#utility.yul\":309:313   */\n      0x20\n        /* \"#utility.yul\":302:307   */\n      dup3\n        /* \"#utility.yul\":298:314   */\n      add\n        /* \"#utility.yul\":291:314   */\n      swap1\n      pop\n        /* \"#utility.yul\":335:341   */\n      dup3\n        /* \"#utility.yul\":385:388   */\n      dup6\n        /* \"#utility.yul\":377:381   */\n      0x20\n        /* \"#utility.yul\":369:375   */\n      dup7\n        /* \"#utility.yul\":365:382   */\n      mul\n        /* \"#utility.yul\":360:363   */\n      dup3\n        /* \"#utility.yul\":356:383   */\n      add\n        /* \"#utility.yul\":353:389   */\n      gt\n        /* \"#utility.yul\":350:493   */\n      iszero\n      tag_84\n      jumpi\n        /* \"#utility.yul\":404:483   */\n      tag_85\n      tag_86\n      jump\t// in\n    tag_85:\n        /* \"#utility.yul\":350:493   */\n    tag_84:\n        /* \"#utility.yul\":517:518   */\n      0x00\n        /* \"#utility.yul\":502:740   */\n    tag_87:\n        /* \"#utility.yul\":527:533   */\n      dup6\n        /* \"#utility.yul\":524:525   */\n      dup2\n        /* \"#utility.yul\":521:534   */\n      lt\n        /* \"#utility.yul\":502:740   */\n      iszero\n      tag_89\n      jumpi\n        /* \"#utility.yul\":595:598   */\n      dup2\n        /* \"#utility.yul\":624:661   */\n      tag_90\n        /* \"#utility.yul\":657:660   */\n      dup9\n        /* \"#utility.yul\":645:655   */\n      dup3\n        /* \"#utility.yul\":624:661   */\n      tag_91\n      jump\t// in\n    tag_90:\n        /* \"#utility.yul\":619:622   */\n      dup5\n        /* \"#utility.yul\":612:662   */\n      mstore\n        /* \"#utility.yul\":691:695   */\n      0x20\n        /* \"#utility.yul\":686:689   */\n      dup5\n        /* \"#utility.yul\":682:696   */\n      add\n        /* \"#utility.yul\":675:696   */\n      swap4\n      pop\n        /* \"#utility.yul\":725:729   */\n      0x20\n        /* \"#utility.yul\":720:723   */\n      dup4\n        /* \"#utility.yul\":716:730   */\n      add\n        /* \"#utility.yul\":709:730   */\n      swap3\n      pop\n        /* \"#utility.yul\":562:740   */\n      pop\n        /* \"#utility.yul\":549:550   */\n      0x01\n        /* \"#utility.yul\":546:547   */\n      dup2\n        /* \"#utility.yul\":542:551   */\n      add\n        /* \"#utility.yul\":537:551   */\n      swap1\n      pop\n        /* \"#utility.yul\":502:740   */\n      jump(tag_87)\n    tag_89:\n        /* \"#utility.yul\":506:520   */\n      pop\n        /* \"#utility.yul\":126:746   */\n      pop\n      pop\n        /* \"#utility.yul\":24:746   */\n      swap4\n      swap3\n      pop\n      pop\n      pop\n      jump\t// out\n        /* \"#utility.yul\":752:1164   */\n    tag_92:\n        /* \"#utility.yul\":830:835   */\n      0x00\n        /* \"#utility.yul\":855:921   */\n      tag_94\n        /* \"#utility.yul\":871:920   */\n      tag_95\n        /* \"#utility.yul\":913:919   */\n      dup5\n        /* \"#utility.yul\":871:920   */\n      tag_96\n      jump\t// in\n    tag_95:\n        /* \"#utility.yul\":855:921   */\n      tag_83\n      jump\t// in\n    tag_94:\n        /* \"#utility.yul\":846:921   */\n      swap1\n      pop\n        /* \"#utility.yul\":944:950   */\n      dup3\n        /* \"#utility.yul\":937:942   */\n      dup2\n        /* \"#utility.yul\":930:951   */\n      mstore\n        /* \"#utility.yul\":982:986   */\n      0x20\n        /* \"#utility.yul\":975:980   */\n      dup2\n        /* \"#utility.yul\":971:987   */\n      add\n        /* \"#utility.yul\":1020:1023   */\n      dup5\n        /* \"#utility.yul\":1011:1017   */\n      dup5\n        /* \"#utility.yul\":1006:1009   */\n      dup5\n        /* \"#utility.yul\":1002:1018   */\n      add\n        /* \"#utility.yul\":999:1024   */\n      gt\n        /* \"#utility.yul\":996:1108   */\n      iszero\n      tag_97\n      jumpi\n        /* \"#utility.yul\":1027:1106   */\n      tag_98\n      tag_99\n      jump\t// in\n    tag_98:\n        /* \"#utility.yul\":996:1108   */\n    tag_97:\n        /* \"#utility.yul\":1117:1158   */\n      tag_100\n        /* \"#utility.yul\":1151:1157   */\n      dup5\n        /* \"#utility.yul\":1146:1149   */\n      dup3\n        /* \"#utility.yul\":1141:1144   */\n      dup6\n        /* \"#utility.yul\":1117:1158   */\n      tag_101\n      jump\t// in\n    tag_100:\n        /* \"#utility.yul\":836:1164   */\n      pop\n        /* \"#utility.yul\":752:1164   */\n      swap4\n      swap3\n      pop\n      pop\n      pop\n      jump\t// out\n        /* \"#utility.yul\":1187:1557   */\n    tag_102:\n        /* \"#utility.yul\":1258:1263   */\n      0x00\n        /* \"#utility.yul\":1307:1310   */\n      dup3\n        /* \"#utility.yul\":1300:1304   */\n      0x1f\n        /* \"#utility.yul\":1292:1298   */\n      dup4\n        /* \"#utility.yul\":1288:1305   */\n      add\n        /* \"#utility.yul\":1284:1311   */\n      slt\n        /* \"#utility.yul\":1274:1396   */\n      tag_104\n      jumpi\n        /* \"#utility.yul\":1315:1394   */\n      tag_105\n      tag_106\n      jump\t// in\n    tag_105:\n        /* \"#utility.yul\":1274:1396   */\n    tag_104:\n        /* \"#utility.yul\":1432:1438   */\n      dup2\n        /* \"#utility.yul\":1419:1439   */\n      calldataload\n        /* \"#utility.yul\":1457:1551   */\n      tag_107\n        /* \"#utility.yul\":1547:1550   */\n      dup5\n        /* \"#utility.yul\":1539:1545   */\n      dup3\n        /* \"#utility.yul\":1532:1536   */\n      0x20\n        /* \"#utility.yul\":1524:1530   */\n      dup7\n        /* \"#utility.yul\":1520:1537   */\n      add\n        /* \"#utility.yul\":1457:1551   */\n      tag_78\n      jump\t// in\n    tag_107:\n        /* \"#utility.yul\":1448:1551   */\n      swap2\n      pop\n        /* \"#utility.yul\":1264:1557   */\n      pop\n        /* \"#utility.yul\":1187:1557   */\n      swap3\n      swap2\n      pop\n      pop\n      jump\t// out\n        /* \"#utility.yul\":1577:1917   */\n    tag_108:\n        /* \"#utility.yul\":1633:1638   */\n      0x00\n        /* \"#utility.yul\":1682:1685   */\n      dup3\n        /* \"#utility.yul\":1675:1679   */\n      0x1f\n        /* \"#utility.yul\":1667:1673   */\n      dup4\n        /* \"#utility.yul\":1663:1680   */\n      add\n        /* \"#utility.yul\":1659:1686   */\n      slt\n        /* \"#utility.yul\":1649:1771   */\n      tag_110\n      jumpi\n        /* \"#utility.yul\":1690:1769   */\n      tag_111\n      tag_106\n      jump\t// in\n    tag_111:\n        /* \"#utility.yul\":1649:1771   */\n    tag_110:\n        /* \"#utility.yul\":1807:1813   */\n      dup2\n        /* \"#utility.yul\":1794:1814   */\n      calldataload\n        /* \"#utility.yul\":1832:1911   */\n      tag_112\n        /* \"#utility.yul\":1907:1910   */\n      dup5\n        /* \"#utility.yul\":1899:1905   */\n      dup3\n        /* \"#utility.yul\":1892:1896   */\n      0x20\n        /* \"#utility.yul\":1884:1890   */\n      dup7\n        /* \"#utility.yul\":1880:1897   */\n      add\n        /* \"#utility.yul\":1832:1911   */\n      tag_92\n      jump\t// in\n    tag_112:\n        /* \"#utility.yul\":1823:1911   */\n      swap2\n      pop\n        /* \"#utility.yul\":1639:1917   */\n      pop\n        /* \"#utility.yul\":1577:1917   */\n      swap3\n      swap2\n      pop\n      pop\n      jump\t// out\n        /* \"#utility.yul\":1923:2062   */\n    tag_91:\n        /* \"#utility.yul\":1969:1974   */\n      0x00\n        /* \"#utility.yul\":2007:2013   */\n      dup2\n        /* \"#utility.yul\":1994:2014   */\n      calldataload\n        /* \"#utility.yul\":1985:2014   */\n      swap1\n      pop\n        /* \"#utility.yul\":2023:2056   */\n      tag_114\n        /* \"#utility.yul\":2050:2055   */\n      dup2\n        /* \"#utility.yul\":2023:2056   */\n      tag_115\n      jump\t// in\n    tag_114:\n        /* \"#utility.yul\":1923:2062   */\n      swap3\n      swap2\n      pop\n      pop\n      jump\t// out\n        /* \"#utility.yul\":2068:2932   */\n    tag_9:\n        /* \"#utility.yul\":2171:2177   */\n      0x00\n        /* \"#utility.yul\":2179:2185   */\n      dup1\n        /* \"#utility.yul\":2228:2230   */\n      0x40\n        /* \"#utility.yul\":2216:2225   */\n      dup4\n        /* \"#utility.yul\":2207:2214   */\n      dup6\n        /* \"#utility.yul\":2203:2226   */\n      sub\n        /* \"#utility.yul\":2199:2231   */\n      slt\n        /* \"#utility.yul\":2196:2315   */\n      iszero\n      tag_117\n      jumpi\n        /* \"#utility.yul\":2234:2313   */\n      tag_118\n      tag_119\n      jump\t// in\n    tag_118:\n        /* \"#utility.yul\":2196:2315   */\n    tag_117:\n        /* \"#utility.yul\":2382:2383   */\n      0x00\n        /* \"#utility.yul\":2371:2380   */\n      dup4\n        /* \"#utility.yul\":2367:2384   */\n      add\n        /* \"#utility.yul\":2354:2385   */\n      calldataload\n        /* \"#utility.yul\":2412:2430   */\n      0xffffffffffffffff\n        /* \"#utility.yul\":2404:2410   */\n      dup2\n        /* \"#utility.yul\":2401:2431   */\n      gt\n        /* \"#utility.yul\":2398:2515   */\n      iszero\n      tag_120\n      jumpi\n        /* \"#utility.yul\":2434:2513   */\n      tag_121\n      tag_122\n      jump\t// in\n    tag_121:\n        /* \"#utility.yul\":2398:2515   */\n    tag_120:\n        /* \"#utility.yul\":2539:2602   */\n      tag_123\n        /* \"#utility.yul\":2594:2601   */\n      dup6\n        /* \"#utility.yul\":2585:2591   */\n      dup3\n        /* \"#utility.yul\":2574:2583   */\n      dup7\n        /* \"#utility.yul\":2570:2592   */\n      add\n        /* \"#utility.yul\":2539:2602   */\n      tag_108\n      jump\t// in\n    tag_123:\n        /* \"#utility.yul\":2529:2602   */\n      swap3\n      pop\n        /* \"#utility.yul\":2325:2612   */\n      pop\n        /* \"#utility.yul\":2679:2681   */\n      0x20\n        /* \"#utility.yul\":2668:2677   */\n      dup4\n        /* \"#utility.yul\":2664:2682   */\n      add\n        /* \"#utility.yul\":2651:2683   */\n      calldataload\n        /* \"#utility.yul\":2710:2728   */\n      0xffffffffffffffff\n        /* \"#utility.yul\":2702:2708   */\n      dup2\n        /* \"#utility.yul\":2699:2729   */\n      gt\n        /* \"#utility.yul\":2696:2813   */\n      iszero\n      tag_124\n      jumpi\n        /* \"#utility.yul\":2732:2811   */\n      tag_125\n      tag_122\n      jump\t// in\n    tag_125:\n        /* \"#utility.yul\":2696:2813   */\n    tag_124:\n        /* \"#utility.yul\":2837:2915   */\n      tag_126\n        /* \"#utility.yul\":2907:2914   */\n      dup6\n        /* \"#utility.yul\":2898:2904   */\n      dup3\n        /* \"#utility.yul\":2887:2896   */\n      dup7\n        /* \"#utility.yul\":2883:2905   */\n      add\n        /* \"#utility.yul\":2837:2915   */\n      tag_102\n      jump\t// in\n    tag_126:\n        /* \"#utility.yul\":2827:2915   */\n      swap2\n      pop\n        /* \"#utility.yul\":2622:2925   */\n      pop\n        /* \"#utility.yul\":2068:2932   */\n      swap3\n      pop\n      swap3\n      swap1\n      pop\n      jump\t// out\n        /* \"#utility.yul\":2938:3267   */\n    tag_19:\n        /* \"#utility.yul\":2997:3003   */\n      0x00\n        /* \"#utility.yul\":3046:3048   */\n      0x20\n        /* \"#utility.yul\":3034:3043   */\n      dup3\n        /* \"#utility.yul\":3025:3032   */\n      dup5\n        /* \"#utility.yul\":3021:3044   */\n      sub\n        /* \"#utility.yul\":3017:3049   */\n      slt\n        /* \"#utility.yul\":3014:3133   */\n      iszero\n      tag_128\n      jumpi\n        /* \"#utility.yul\":3052:3131   */\n      tag_129\n      tag_119\n      jump\t// in\n    tag_129:\n        /* \"#utility.yul\":3014:3133   */\n    tag_128:\n        /* \"#utility.yul\":3172:3173   */\n      0x00\n        /* \"#utility.yul\":3197:3250   */\n      tag_130\n        /* \"#utility.yul\":3242:3249   */\n      dup5\n        /* \"#utility.yul\":3233:3239   */\n      dup3\n        /* \"#utility.yul\":3222:3231   */\n      dup6\n        /* \"#utility.yul\":3218:3240   */\n      add\n        /* \"#utility.yul\":3197:3250   */\n      tag_91\n      jump\t// in\n    tag_130:\n        /* \"#utility.yul\":3187:3250   */\n      swap2\n      pop\n        /* \"#utility.yul\":3143:3260   */\n      pop\n        /* \"#utility.yul\":2938:3267   */\n      swap3\n      swap2\n      pop\n      pop\n      jump\t// out\n        /* \"#utility.yul\":3273:3391   */\n    tag_131:\n        /* \"#utility.yul\":3360:3384   */\n      tag_133\n        /* \"#utility.yul\":3378:3383   */\n      dup2\n        /* \"#utility.yul\":3360:3384   */\n      tag_134\n      jump\t// in\n    tag_133:\n        /* \"#utility.yul\":3355:3358   */\n      dup3\n        /* \"#utility.yul\":3348:3385   */\n      mstore\n        /* \"#utility.yul\":3273:3391   */\n      pop\n      pop\n      jump\t// out\n        /* \"#utility.yul\":3397:3540   */\n    tag_135:\n        /* \"#utility.yul\":3490:3533   */\n      tag_137\n        /* \"#utility.yul\":3527:3532   */\n      dup2\n        /* \"#utility.yul\":3490:3533   */\n      tag_138\n      jump\t// in\n    tag_137:\n        /* \"#utility.yul\":3485:3488   */\n      dup3\n        /* \"#utility.yul\":3478:3534   */\n      mstore\n        /* \"#utility.yul\":3397:3540   */\n      pop\n      pop\n      jump\t// out\n        /* \"#utility.yul\":3546:3910   */\n    tag_139:\n        /* \"#utility.yul\":3634:3637   */\n      0x00\n        /* \"#utility.yul\":3662:3701   */\n      tag_141\n        /* \"#utility.yul\":3695:3700   */\n      dup3\n        /* \"#utility.yul\":3662:3701   */\n      tag_142\n      jump\t// in\n    tag_141:\n        /* \"#utility.yul\":3717:3788   */\n      tag_143\n        /* \"#utility.yul\":3781:3787   */\n      dup2\n        /* \"#utility.yul\":3776:3779   */\n      dup6\n        /* \"#utility.yul\":3717:3788   */\n      tag_144\n      jump\t// in\n    tag_143:\n        /* \"#utility.yul\":3710:3788   */\n      swap4\n      pop\n        /* \"#utility.yul\":3797:3849   */\n      tag_145\n        /* \"#utility.yul\":3842:3848   */\n      dup2\n        /* \"#utility.yul\":3837:3840   */\n      dup6\n        /* \"#utility.yul\":3830:3834   */\n      0x20\n        /* \"#utility.yul\":3823:3828   */\n      dup7\n        /* \"#utility.yul\":3819:3835   */\n      add\n        /* \"#utility.yul\":3797:3849   */\n      tag_146\n      jump\t// in\n    tag_145:\n        /* \"#utility.yul\":3874:3903   */\n      tag_147\n        /* \"#utility.yul\":3896:3902   */\n      dup2\n        /* \"#utility.yul\":3874:3903   */\n      tag_148\n      jump\t// in\n    tag_147:\n        /* \"#utility.yul\":3869:3872   */\n      dup5\n        /* \"#utility.yul\":3865:3904   */\n      add\n        /* \"#utility.yul\":3858:3904   */\n      swap2\n      pop\n        /* \"#utility.yul\":3638:3910   */\n      pop\n        /* \"#utility.yul\":3546:3910   */\n      swap3\n      swap2\n      pop\n      pop\n      jump\t// out\n        /* \"#utility.yul\":3916:4282   */\n    tag_149:\n        /* \"#utility.yul\":4058:4061   */\n      0x00\n        /* \"#utility.yul\":4079:4146   */\n      tag_151\n        /* \"#utility.yul\":4143:4145   */\n      0x0b\n        /* \"#utility.yul\":4138:4141   */\n      dup4\n        /* \"#utility.yul\":4079:4146   */\n      tag_144\n      jump\t// in\n    tag_151:\n        /* \"#utility.yul\":4072:4146   */\n      swap2\n      pop\n        /* \"#utility.yul\":4155:4248   */\n      tag_152\n        /* \"#utility.yul\":4244:4247   */\n      dup3\n        /* \"#utility.yul\":4155:4248   */\n      tag_153\n      jump\t// in\n    tag_152:\n        /* \"#utility.yul\":4273:4275   */\n      0x20\n        /* \"#utility.yul\":4268:4271   */\n      dup3\n        /* \"#utility.yul\":4264:4276   */\n      add\n        /* \"#utility.yul\":4257:4276   */\n      swap1\n      pop\n        /* \"#utility.yul\":3916:4282   */\n      swap2\n      swap1\n      pop\n      jump\t// out\n        /* \"#utility.yul\":4288:4654   */\n    tag_154:\n        /* \"#utility.yul\":4430:4433   */\n      0x00\n        /* \"#utility.yul\":4451:4518   */\n      tag_156\n        /* \"#utility.yul\":4515:4517   */\n      0x16\n        /* \"#utility.yul\":4510:4513   */\n      dup4\n        /* \"#utility.yul\":4451:4518   */\n      tag_144\n      jump\t// in\n    tag_156:\n        /* \"#utility.yul\":4444:4518   */\n      swap2\n      pop\n        /* \"#utility.yul\":4527:4620   */\n      tag_157\n        /* \"#utility.yul\":4616:4619   */\n      dup3\n        /* \"#utility.yul\":4527:4620   */\n      tag_158\n      jump\t// in\n    tag_157:\n        /* \"#utility.yul\":4645:4647   */\n      0x20\n        /* \"#utility.yul\":4640:4643   */\n      dup3\n        /* \"#utility.yul\":4636:4648   */\n      add\n        /* \"#utility.yul\":4629:4648   */\n      swap1\n      pop\n        /* \"#utility.yul\":4288:4654   */\n      swap2\n      swap1\n      pop\n      jump\t// out\n        /* \"#utility.yul\":4660:5026   */\n    tag_159:\n        /* \"#utility.yul\":4802:4805   */\n      0x00\n        /* \"#utility.yul\":4823:4890   */\n      tag_161\n        /* \"#utility.yul\":4887:4889   */\n      0x14\n        /* \"#utility.yul\":4882:4885   */\n      dup4\n        /* \"#utility.yul\":4823:4890   */\n      tag_144\n      jump\t// in\n    tag_161:\n        /* \"#utility.yul\":4816:4890   */\n      swap2\n      pop\n        /* \"#utility.yul\":4899:4992   */\n      tag_162\n        /* \"#utility.yul\":4988:4991   */\n      dup3\n        /* \"#utility.yul\":4899:4992   */\n      tag_163\n      jump\t// in\n    tag_162:\n        /* \"#utility.yul\":5017:5019   */\n      0x20\n        /* \"#utility.yul\":5012:5015   */\n      dup3\n        /* \"#utility.yul\":5008:5020   */\n      add\n        /* \"#utility.yul\":5001:5020   */\n      swap1\n      pop\n        /* \"#utility.yul\":4660:5026   */\n      swap2\n      swap1\n      pop\n      jump\t// out\n        /* \"#utility.yul\":5032:5150   */\n    tag_164:\n        /* \"#utility.yul\":5119:5143   */\n      tag_166\n        /* \"#utility.yul\":5137:5142   */\n      dup2\n        /* \"#utility.yul\":5119:5143   */\n      tag_167\n      jump\t// in\n    tag_166:\n        /* \"#utility.yul\":5114:5117   */\n      dup3\n        /* \"#utility.yul\":5107:5144   */\n      mstore\n        /* \"#utility.yul\":5032:5150   */\n      pop\n      pop\n      jump\t// out\n        /* \"#utility.yul\":5156:5378   */\n    tag_16:\n        /* \"#utility.yul\":5249:5253   */\n      0x00\n        /* \"#utility.yul\":5287:5289   */\n      0x20\n        /* \"#utility.yul\":5276:5285   */\n      dup3\n        /* \"#utility.yul\":5272:5290   */\n      add\n        /* \"#utility.yul\":5264:5290   */\n      swap1\n      pop\n        /* \"#utility.yul\":5300:5371   */\n      tag_169\n        /* \"#utility.yul\":5368:5369   */\n      0x00\n        /* \"#utility.yul\":5357:5366   */\n      dup4\n        /* \"#utility.yul\":5353:5370   */\n      add\n        /* \"#utility.yul\":5344:5350   */\n      dup5\n        /* \"#utility.yul\":5300:5371   */\n      tag_131\n      jump\t// in\n    tag_169:\n        /* \"#utility.yul\":5156:5378   */\n      swap3\n      swap2\n      pop\n      pop\n      jump\t// out\n        /* \"#utility.yul\":5384:5929   */\n    tag_22:\n        /* \"#utility.yul\":5559:5563   */\n      0x00\n        /* \"#utility.yul\":5597:5599   */\n      0x60\n        /* \"#utility.yul\":5586:5595   */\n      dup3\n        /* \"#utility.yul\":5582:5600   */\n      add\n        /* \"#utility.yul\":5574:5600   */\n      swap1\n      pop\n        /* \"#utility.yul\":5610:5681   */\n      tag_171\n        /* \"#utility.yul\":5678:5679   */\n      0x00\n        /* \"#utility.yul\":5667:5676   */\n      dup4\n        /* \"#utility.yul\":5663:5680   */\n      add\n        /* \"#utility.yul\":5654:5660   */\n      dup7\n        /* \"#utility.yul\":5610:5681   */\n      tag_131\n      jump\t// in\n    tag_171:\n        /* \"#utility.yul\":5728:5737   */\n      dup2\n        /* \"#utility.yul\":5722:5726   */\n      dup2\n        /* \"#utility.yul\":5718:5738   */\n      sub\n        /* \"#utility.yul\":5713:5715   */\n      0x20\n        /* \"#utility.yul\":5702:5711   */\n      dup4\n        /* \"#utility.yul\":5698:5716   */\n      add\n        /* \"#utility.yul\":5691:5739   */\n      mstore\n        /* \"#utility.yul\":5756:5834   */\n      tag_172\n        /* \"#utility.yul\":5829:5833   */\n      dup2\n        /* \"#utility.yul\":5820:5826   */\n      dup6\n        /* \"#utility.yul\":5756:5834   */\n      tag_139\n      jump\t// in\n    tag_172:\n        /* \"#utility.yul\":5748:5834   */\n      swap1\n      pop\n        /* \"#utility.yul\":5844:5922   */\n      tag_173\n        /* \"#utility.yul\":5918:5920   */\n      0x40\n        /* \"#utility.yul\":5907:5916   */\n      dup4\n        /* \"#utility.yul\":5903:5921   */\n      add\n        /* \"#utility.yul\":5894:5900   */\n      dup5\n        /* \"#utility.yul\":5844:5922   */\n      tag_135\n      jump\t// in\n    tag_173:\n        /* \"#utility.yul\":5384:5929   */\n      swap5\n      swap4\n      pop\n      pop\n      pop\n      pop\n      jump\t// out\n        /* \"#utility.yul\":5935:6354   */\n    tag_29:\n        /* \"#utility.yul\":6101:6105   */\n      0x00\n        /* \"#utility.yul\":6139:6141   */\n      0x20\n        /* \"#utility.yul\":6128:6137   */\n      dup3\n        /* \"#utility.yul\":6124:6142   */\n      add\n        /* \"#utility.yul\":6116:6142   */\n      swap1\n      pop\n        /* \"#utility.yul\":6188:6197   */\n      dup2\n        /* \"#utility.yul\":6182:6186   */\n      dup2\n        /* \"#utility.yul\":6178:6198   */\n      sub\n        /* \"#utility.yul\":6174:6175   */\n      0x00\n        /* \"#utility.yul\":6163:6172   */\n      dup4\n        /* \"#utility.yul\":6159:6176   */\n      add\n        /* \"#utility.yul\":6152:6199   */\n      mstore\n        /* \"#utility.yul\":6216:6347   */\n      tag_175\n        /* \"#utility.yul\":6342:6346   */\n      dup2\n        /* \"#utility.yul\":6216:6347   */\n      tag_149\n      jump\t// in\n    tag_175:\n        /* \"#utility.yul\":6208:6347   */\n      swap1\n      pop\n        /* \"#utility.yul\":5935:6354   */\n      swap2\n      swap1\n      pop\n      jump\t// out\n        /* \"#utility.yul\":6360:6779   */\n    tag_57:\n        /* \"#utility.yul\":6526:6530   */\n      0x00\n        /* \"#utility.yul\":6564:6566   */\n      0x20\n        /* \"#utility.yul\":6553:6562   */\n      dup3\n        /* \"#utility.yul\":6549:6567   */\n      add\n        /* \"#utility.yul\":6541:6567   */\n      swap1\n      pop\n        /* \"#utility.yul\":6613:6622   */\n      dup2\n        /* \"#utility.yul\":6607:6611   */\n      dup2\n        /* \"#utility.yul\":6603:6623   */\n      sub\n        /* \"#utility.yul\":6599:6600   */\n      0x00\n        /* \"#utility.yul\":6588:6597   */\n      dup4\n        /* \"#utility.yul\":6584:6601   */\n      add\n        /* \"#utility.yul\":6577:6624   */\n      mstore\n        /* \"#utility.yul\":6641:6772   */\n      tag_177\n        /* \"#utility.yul\":6767:6771   */\n      dup2\n        /* \"#utility.yul\":6641:6772   */\n      tag_154\n      jump\t// in\n    tag_177:\n        /* \"#utility.yul\":6633:6772   */\n      swap1\n      pop\n        /* \"#utility.yul\":6360:6779   */\n      swap2\n      swap1\n      pop\n      jump\t// out\n        /* \"#utility.yul\":6785:7204   */\n    tag_60:\n        /* \"#utility.yul\":6951:6955   */\n      0x00\n        /* \"#utility.yul\":6989:6991   */\n      0x20\n        /* \"#utility.yul\":6978:6987   */\n      dup3\n        /* \"#utility.yul\":6974:6992   */\n      add\n        /* \"#utility.yul\":6966:6992   */\n      swap1\n      pop\n        /* \"#utility.yul\":7038:7047   */\n      dup2\n        /* \"#utility.yul\":7032:7036   */\n      dup2\n        /* \"#utility.yul\":7028:7048   */\n      sub\n        /* \"#utility.yul\":7024:7025   */\n      0x00\n        /* \"#utility.yul\":7013:7022   */\n      dup4\n        /* \"#utility.yul\":7009:7026   */\n      add\n        /* \"#utility.yul\":7002:7049   */\n      mstore\n        /* \"#utility.yul\":7066:7197   */\n      tag_179\n        /* \"#utility.yul\":7192:7196   */\n      dup2\n        /* \"#utility.yul\":7066:7197   */\n      tag_159\n      jump\t// in\n    tag_179:\n        /* \"#utility.yul\":7058:7197   */\n      swap1\n      pop\n        /* \"#utility.yul\":6785:7204   */\n      swap2\n      swap1\n      pop\n      jump\t// out\n        /* \"#utility.yul\":7210:7432   */\n    tag_12:\n        /* \"#utility.yul\":7303:7307   */\n      0x00\n        /* \"#utility.yul\":7341:7343   */\n      0x20\n        /* \"#utility.yul\":7330:7339   */\n      dup3\n        /* \"#utility.yul\":7326:7344   */\n      add\n        /* \"#utility.yul\":7318:7344   */\n      swap1\n      pop\n        /* \"#utility.yul\":7354:7425   */\n      tag_181\n        /* \"#utility.yul\":7422:7423   */\n      0x00\n        /* \"#utility.yul\":7411:7420   */\n      dup4\n        /* \"#utility.yul\":7407:7424   */\n      add\n        /* \"#utility.yul\":7398:7404   */\n      dup5\n        /* \"#utility.yul\":7354:7425   */\n      tag_164\n      jump\t// in\n    tag_181:\n        /* \"#utility.yul\":7210:7432   */\n      swap3\n      swap2\n      pop\n      pop\n      jump\t// out\n        /* \"#utility.yul\":7438:7567   */\n    tag_83:\n        /* \"#utility.yul\":7472:7478   */\n      0x00\n        /* \"#utility.yul\":7499:7519   */\n      tag_183\n      tag_184\n      jump\t// in\n    tag_183:\n        /* \"#utility.yul\":7489:7519   */\n      swap1\n      pop\n        /* \"#utility.yul\":7528:7561   */\n      tag_185\n        /* \"#utility.yul\":7556:7560   */\n      dup3\n        /* \"#utility.yul\":7548:7554   */\n      dup3\n        /* \"#utility.yul\":7528:7561   */\n      tag_186\n      jump\t// in\n    tag_185:\n        /* \"#utility.yul\":7438:7567   */\n      swap2\n      swap1\n      pop\n      jump\t// out\n        /* \"#utility.yul\":7573:7648   */\n    tag_184:\n        /* \"#utility.yul\":7606:7612   */\n      0x00\n        /* \"#utility.yul\":7639:7641   */\n      0x40\n        /* \"#utility.yul\":7633:7642   */\n      mload\n        /* \"#utility.yul\":7623:7642   */\n      swap1\n      pop\n        /* \"#utility.yul\":7573:7648   */\n      swap1\n      jump\t// out\n        /* \"#utility.yul\":7654:7965   */\n    tag_82:\n        /* \"#utility.yul\":7731:7735   */\n      0x00\n        /* \"#utility.yul\":7821:7839   */\n      0xffffffffffffffff\n        /* \"#utility.yul\":7813:7819   */\n      dup3\n        /* \"#utility.yul\":7810:7840   */\n      gt\n        /* \"#utility.yul\":7807:7863   */\n      iszero\n      tag_189\n      jumpi\n        /* \"#utility.yul\":7843:7861   */\n      tag_190\n      tag_191\n      jump\t// in\n    tag_190:\n        /* \"#utility.yul\":7807:7863   */\n    tag_189:\n        /* \"#utility.yul\":7893:7897   */\n      0x20\n        /* \"#utility.yul\":7885:7891   */\n      dup3\n        /* \"#utility.yul\":7881:7898   */\n      mul\n        /* \"#utility.yul\":7873:7898   */\n      swap1\n      pop\n        /* \"#utility.yul\":7953:7957   */\n      0x20\n        /* \"#utility.yul\":7947:7951   */\n      dup2\n        /* \"#utility.yul\":7943:7958   */\n      add\n        /* \"#utility.yul\":7935:7958   */\n      swap1\n      pop\n        /* \"#utility.yul\":7654:7965   */\n      swap2\n      swap1\n      pop\n      jump\t// out\n        /* \"#utility.yul\":7971:8279   */\n    tag_96:\n        /* \"#utility.yul\":8033:8037   */\n      0x00\n        /* \"#utility.yul\":8123:8141   */\n      0xffffffffffffffff\n        /* \"#utility.yul\":8115:8121   */\n      dup3\n        /* \"#utility.yul\":8112:8142   */\n      gt\n        /* \"#utility.yul\":8109:8165   */\n      iszero\n      tag_193\n      jumpi\n        /* \"#utility.yul\":8145:8163   */\n      tag_194\n      tag_191\n      jump\t// in\n    tag_194:\n        /* \"#utility.yul\":8109:8165   */\n    tag_193:\n        /* \"#utility.yul\":8183:8212   */\n      tag_195\n        /* \"#utility.yul\":8205:8211   */\n      dup3\n        /* \"#utility.yul\":8183:8212   */\n      tag_148\n      jump\t// in\n    tag_195:\n        /* \"#utility.yul\":8175:8212   */\n      swap1\n      pop\n        /* \"#utility.yul\":8267:8271   */\n      0x20\n        /* \"#utility.yul\":8261:8265   */\n      dup2\n        /* \"#utility.yul\":8257:8272   */\n      add\n        /* \"#utility.yul\":8249:8272   */\n      swap1\n      pop\n        /* \"#utility.yul\":7971:8279   */\n      swap2\n      swap1\n      pop\n      jump\t// out\n        /* \"#utility.yul\":8285:8384   */\n    tag_142:\n        /* \"#utility.yul\":8337:8343   */\n      0x00\n        /* \"#utility.yul\":8371:8376   */\n      dup2\n        /* \"#utility.yul\":8365:8377   */\n      mload\n        /* \"#utility.yul\":8355:8377   */\n      swap1\n      pop\n        /* \"#utility.yul\":8285:8384   */\n      swap2\n      swap1\n      pop\n      jump\t// out\n        /* \"#utility.yul\":8390:8559   */\n    tag_144:\n        /* \"#utility.yul\":8474:8485   */\n      0x00\n        /* \"#utility.yul\":8508:8514   */\n      dup3\n        /* \"#utility.yul\":8503:8506   */\n      dup3\n        /* \"#utility.yul\":8496:8515   */\n      mstore\n        /* \"#utility.yul\":8548:8552   */\n      0x20\n        /* \"#utility.yul\":8543:8546   */\n      dup3\n        /* \"#utility.yul\":8539:8553   */\n      add\n        /* \"#utility.yul\":8524:8553   */\n      swap1\n      pop\n        /* \"#utility.yul\":8390:8559   */\n      swap3\n      swap2\n      pop\n      pop\n      jump\t// out\n        /* \"#utility.yul\":8565:8756   */\n    tag_45:\n        /* \"#utility.yul\":8605:8609   */\n      0x00\n        /* \"#utility.yul\":8625:8645   */\n      tag_199\n        /* \"#utility.yul\":8643:8644   */\n      dup3\n        /* \"#utility.yul\":8625:8645   */\n      tag_167\n      jump\t// in\n    tag_199:\n        /* \"#utility.yul\":8620:8645   */\n      swap2\n      pop\n        /* \"#utility.yul\":8659:8679   */\n      tag_200\n        /* \"#utility.yul\":8677:8678   */\n      dup4\n        /* \"#utility.yul\":8659:8679   */\n      tag_167\n      jump\t// in\n    tag_200:\n        /* \"#utility.yul\":8654:8679   */\n      swap3\n      pop\n        /* \"#utility.yul\":8698:8699   */\n      dup3\n        /* \"#utility.yul\":8695:8696   */\n      dup3\n        /* \"#utility.yul\":8692:8700   */\n      lt\n        /* \"#utility.yul\":8689:8723   */\n      iszero\n      tag_201\n      jumpi\n        /* \"#utility.yul\":8703:8721   */\n      tag_202\n      tag_203\n      jump\t// in\n    tag_202:\n        /* \"#utility.yul\":8689:8723   */\n    tag_201:\n        /* \"#utility.yul\":8748:8749   */\n      dup3\n        /* \"#utility.yul\":8745:8746   */\n      dup3\n        /* \"#utility.yul\":8741:8750   */\n      sub\n        /* \"#utility.yul\":8733:8750   */\n      swap1\n      pop\n        /* \"#utility.yul\":8565:8756   */\n      swap3\n      swap2\n      pop\n      pop\n      jump\t// out\n        /* \"#utility.yul\":8762:8858   */\n    tag_134:\n        /* \"#utility.yul\":8799:8806   */\n      0x00\n        /* \"#utility.yul\":8828:8852   */\n      tag_205\n        /* \"#utility.yul\":8846:8851   */\n      dup3\n        /* \"#utility.yul\":8828:8852   */\n      tag_206\n      jump\t// in\n    tag_205:\n        /* \"#utility.yul\":8817:8852   */\n      swap1\n      pop\n        /* \"#utility.yul\":8762:8858   */\n      swap2\n      swap1\n      pop\n      jump\t// out\n        /* \"#utility.yul\":8864:8991   */\n    tag_207:\n        /* \"#utility.yul\":8909:8916   */\n      0x00\n        /* \"#utility.yul\":8938:8943   */\n      dup2\n        /* \"#utility.yul\":8927:8943   */\n      swap1\n      pop\n        /* \"#utility.yul\":8944:8985   */\n      tag_209\n        /* \"#utility.yul\":8979:8984   */\n      dup3\n        /* \"#utility.yul\":8944:8985   */\n      tag_210\n      jump\t// in\n    tag_209:\n        /* \"#utility.yul\":8864:8991   */\n      swap2\n      swap1\n      pop\n      jump\t// out\n        /* \"#utility.yul\":8997:9123   */\n    tag_206:\n        /* \"#utility.yul\":9034:9041   */\n      0x00\n        /* \"#utility.yul\":9074:9116   */\n      0xffffffffffffffffffffffffffffffffffffffff\n        /* \"#utility.yul\":9067:9072   */\n      dup3\n        /* \"#utility.yul\":9063:9117   */\n      and\n        /* \"#utility.yul\":9052:9117   */\n      swap1\n      pop\n        /* \"#utility.yul\":8997:9123   */\n      swap2\n      swap1\n      pop\n      jump\t// out\n        /* \"#utility.yul\":9129:9206   */\n    tag_167:\n        /* \"#utility.yul\":9166:9173   */\n      0x00\n        /* \"#utility.yul\":9195:9200   */\n      dup2\n        /* \"#utility.yul\":9184:9200   */\n      swap1\n      pop\n        /* \"#utility.yul\":9129:9206   */\n      swap2\n      swap1\n      pop\n      jump\t// out\n        /* \"#utility.yul\":9212:9339   */\n    tag_138:\n        /* \"#utility.yul\":9268:9277   */\n      0x00\n        /* \"#utility.yul\":9301:9333   */\n      tag_214\n        /* \"#utility.yul\":9327:9332   */\n      dup3\n        /* \"#utility.yul\":9301:9333   */\n      tag_207\n      jump\t// in\n    tag_214:\n        /* \"#utility.yul\":9288:9333   */\n      swap1\n      pop\n        /* \"#utility.yul\":9212:9339   */\n      swap2\n      swap1\n      pop\n      jump\t// out\n        /* \"#utility.yul\":9345:9499   */\n    tag_101:\n        /* \"#utility.yul\":9429:9435   */\n      dup3\n        /* \"#utility.yul\":9424:9427   */\n      dup2\n        /* \"#utility.yul\":9419:9422   */\n      dup4\n        /* \"#utility.yul\":9406:9436   */\n      calldatacopy\n        /* \"#utility.yul\":9491:9492   */\n      0x00\n        /* \"#utility.yul\":9482:9488   */\n      dup4\n        /* \"#utility.yul\":9477:9480   */\n      dup4\n        /* \"#utility.yul\":9473:9489   */\n      add\n        /* \"#utility.yul\":9466:9493   */\n      mstore\n        /* \"#utility.yul\":9345:9499   */\n      pop\n      pop\n      pop\n      jump\t// out\n        /* \"#utility.yul\":9505:9812   */\n    tag_146:\n        /* \"#utility.yul\":9573:9574   */\n      0x00\n        /* \"#utility.yul\":9583:9696   */\n    tag_217:\n        /* \"#utility.yul\":9597:9603   */\n      dup4\n        /* \"#utility.yul\":9594:9595   */\n      dup2\n        /* \"#utility.yul\":9591:9604   */\n      lt\n        /* \"#utility.yul\":9583:9696   */\n      iszero\n      tag_219\n      jumpi\n        /* \"#utility.yul\":9682:9683   */\n      dup1\n        /* \"#utility.yul\":9677:9680   */\n      dup3\n        /* \"#utility.yul\":9673:9684   */\n      add\n        /* \"#utility.yul\":9667:9685   */\n      mload\n        /* \"#utility.yul\":9663:9664   */\n      dup2\n        /* \"#utility.yul\":9658:9661   */\n      dup5\n        /* \"#utility.yul\":9654:9665   */\n      add\n        /* \"#utility.yul\":9647:9686   */\n      mstore\n        /* \"#utility.yul\":9619:9621   */\n      0x20\n        /* \"#utility.yul\":9616:9617   */\n      dup2\n        /* \"#utility.yul\":9612:9622   */\n      add\n        /* \"#utility.yul\":9607:9622   */\n      swap1\n      pop\n        /* \"#utility.yul\":9583:9696   */\n      jump(tag_217)\n    tag_219:\n        /* \"#utility.yul\":9714:9720   */\n      dup4\n        /* \"#utility.yul\":9711:9712   */\n      dup2\n        /* \"#utility.yul\":9708:9721   */\n      gt\n        /* \"#utility.yul\":9705:9806   */\n      iszero\n      tag_220\n      jumpi\n        /* \"#utility.yul\":9794:9795   */\n      0x00\n        /* \"#utility.yul\":9785:9791   */\n      dup5\n        /* \"#utility.yul\":9780:9783   */\n      dup5\n        /* \"#utility.yul\":9776:9792   */\n      add\n        /* \"#utility.yul\":9769:9796   */\n      mstore\n        /* \"#utility.yul\":9705:9806   */\n    tag_220:\n        /* \"#utility.yul\":9554:9812   */\n      pop\n        /* \"#utility.yul\":9505:9812   */\n      pop\n      pop\n      pop\n      jump\t// out\n        /* \"#utility.yul\":9818:10138   */\n    tag_49:\n        /* \"#utility.yul\":9862:9868   */\n      0x00\n        /* \"#utility.yul\":9899:9900   */\n      0x02\n        /* \"#utility.yul\":9893:9897   */\n      dup3\n        /* \"#utility.yul\":9889:9901   */\n      div\n        /* \"#utility.yul\":9879:9901   */\n      swap1\n      pop\n        /* \"#utility.yul\":9946:9947   */\n      0x01\n        /* \"#utility.yul\":9940:9944   */\n      dup3\n        /* \"#utility.yul\":9936:9948   */\n      and\n        /* \"#utility.yul\":9967:9985   */\n      dup1\n        /* \"#utility.yul\":9957:10038   */\n      tag_222\n      jumpi\n        /* \"#utility.yul\":10023:10027   */\n      0x7f\n        /* \"#utility.yul\":10015:10021   */\n      dup3\n        /* \"#utility.yul\":10011:10028   */\n      and\n        /* \"#utility.yul\":10001:10028   */\n      swap2\n      pop\n        /* \"#utility.yul\":9957:10038   */\n    tag_222:\n        /* \"#utility.yul\":10085:10087   */\n      0x20\n        /* \"#utility.yul\":10077:10083   */\n      dup3\n        /* \"#utility.yul\":10074:10088   */\n      lt\n        /* \"#utility.yul\":10054:10072   */\n      dup2\n        /* \"#utility.yul\":10051:10089   */\n      eq\n        /* \"#utility.yul\":10048:10132   */\n      iszero\n      tag_223\n      jumpi\n        /* \"#utility.yul\":10104:10122   */\n      tag_224\n      tag_225\n      jump\t// in\n    tag_224:\n        /* \"#utility.yul\":10048:10132   */\n    tag_223:\n        /* \"#utility.yul\":9869:10138   */\n      pop\n        /* \"#utility.yul\":9818:10138   */\n      swap2\n      swap1\n      pop\n      jump\t// out\n        /* \"#utility.yul\":10144:10425   */\n    tag_186:\n        /* \"#utility.yul\":10227:10254   */\n      tag_227\n        /* \"#utility.yul\":10249:10253   */\n      dup3\n        /* \"#utility.yul\":10227:10254   */\n      tag_148\n      jump\t// in\n    tag_227:\n        /* \"#utility.yul\":10219:10225   */\n      dup2\n        /* \"#utility.yul\":10215:10255   */\n      add\n        /* \"#utility.yul\":10357:10363   */\n      dup2\n        /* \"#utility.yul\":10345:10355   */\n      dup2\n        /* \"#utility.yul\":10342:10364   */\n      lt\n        /* \"#utility.yul\":10321:10339   */\n      0xffffffffffffffff\n        /* \"#utility.yul\":10309:10319   */\n      dup3\n        /* \"#utility.yul\":10306:10340   */\n      gt\n        /* \"#utility.yul\":10303:10365   */\n      or\n        /* \"#utility.yul\":10300:10388   */\n      iszero\n      tag_228\n      jumpi\n        /* \"#utility.yul\":10368:10386   */\n      tag_229\n      tag_191\n      jump\t// in\n    tag_229:\n        /* \"#utility.yul\":10300:10388   */\n    tag_228:\n        /* \"#utility.yul\":10408:10418   */\n      dup1\n        /* \"#utility.yul\":10404:10406   */\n      0x40\n        /* \"#utility.yul\":10397:10419   */\n      mstore\n        /* \"#utility.yul\":10187:10425   */\n      pop\n        /* \"#utility.yul\":10144:10425   */\n      pop\n      pop\n      jump\t// out\n        /* \"#utility.yul\":10431:10611   */\n    tag_203:\n        /* \"#utility.yul\":10479:10556   */\n      0x4e487b7100000000000000000000000000000000000000000000000000000000\n        /* \"#utility.yul\":10476:10477   */\n      0x00\n        /* \"#utility.yul\":10469:10557   */\n      mstore\n        /* \"#utility.yul\":10576:10580   */\n      0x11\n        /* \"#utility.yul\":10573:10574   */\n      0x04\n        /* \"#utility.yul\":10566:10581   */\n      mstore\n        /* \"#utility.yul\":10600:10604   */\n      0x24\n        /* \"#utility.yul\":10597:10598   */\n      0x00\n        /* \"#utility.yul\":10590:10605   */\n      revert\n        /* \"#utility.yul\":10617:10797   */\n    tag_34:\n        /* \"#utility.yul\":10665:10742   */\n      0x4e487b7100000000000000000000000000000000000000000000000000000000\n        /* \"#utility.yul\":10662:10663   */\n      0x00\n        /* \"#utility.yul\":10655:10743   */\n      mstore\n        /* \"#utility.yul\":10762:10766   */\n      0x21\n        /* \"#utility.yul\":10759:10760   */\n      0x04\n        /* \"#utility.yul\":10752:10767   */\n      mstore\n        /* \"#utility.yul\":10786:10790   */\n      0x24\n        /* \"#utility.yul\":10783:10784   */\n      0x00\n        /* \"#utility.yul\":10776:10791   */\n      revert\n        /* \"#utility.yul\":10803:10983   */\n    tag_225:\n        /* \"#utility.yul\":10851:10928   */\n      0x4e487b7100000000000000000000000000000000000000000000000000000000\n        /* \"#utility.yul\":10848:10849   */\n      0x00\n        /* \"#utility.yul\":10841:10929   */\n      mstore\n        /* \"#utility.yul\":10948:10952   */\n      0x22\n        /* \"#utility.yul\":10945:10946   */\n      0x04\n        /* \"#utility.yul\":10938:10953   */\n      mstore\n        /* \"#utility.yul\":10972:10976   */\n      0x24\n        /* \"#utility.yul\":10969:10970   */\n      0x00\n        /* \"#utility.yul\":10962:10977   */\n      revert\n        /* \"#utility.yul\":10989:11169   */\n    tag_191:\n        /* \"#utility.yul\":11037:11114   */\n      0x4e487b7100000000000000000000000000000000000000000000000000000000\n        /* \"#utility.yul\":11034:11035   */\n      0x00\n        /* \"#utility.yul\":11027:11115   */\n      mstore\n        /* \"#utility.yul\":11134:11138   */\n      0x41\n        /* \"#utility.yul\":11131:11132   */\n      0x04\n        /* \"#utility.yul\":11124:11139   */\n      mstore\n        /* \"#utility.yul\":11158:11162   */\n      0x24\n        /* \"#utility.yul\":11155:11156   */\n      0x00\n        /* \"#utility.yul\":11148:11163   */\n      revert\n        /* \"#utility.yul\":11175:11292   */\n    tag_106:\n        /* \"#utility.yul\":11284:11285   */\n      0x00\n        /* \"#utility.yul\":11281:11282   */\n      dup1\n        /* \"#utility.yul\":11274:11286   */\n      revert\n        /* \"#utility.yul\":11298:11415   */\n    tag_86:\n        /* \"#utility.yul\":11407:11408   */\n      0x00\n        /* \"#utility.yul\":11404:11405   */\n      dup1\n        /* \"#utility.yul\":11397:11409   */\n      revert\n        /* \"#utility.yul\":11421:11538   */\n    tag_99:\n        /* \"#utility.yul\":11530:11531   */\n      0x00\n        /* \"#utility.yul\":11527:11528   */\n      dup1\n        /* \"#utility.yul\":11520:11532   */\n      revert\n        /* \"#utility.yul\":11544:11661   */\n    tag_122:\n        /* \"#utility.yul\":11653:11654   */\n      0x00\n        /* \"#utility.yul\":11650:11651   */\n      dup1\n        /* \"#utility.yul\":11643:11655   */\n      revert\n        /* \"#utility.yul\":11667:11784   */\n    tag_119:\n        /* \"#utility.yul\":11776:11777   */\n      0x00\n        /* \"#utility.yul\":11773:11774   */\n      dup1\n        /* \"#utility.yul\":11766:11778   */\n      revert\n        /* \"#utility.yul\":11790:11892   */\n    tag_148:\n        /* \"#utility.yul\":11831:11837   */\n      0x00\n        /* \"#utility.yul\":11882:11884   */\n      0x1f\n        /* \"#utility.yul\":11878:11885   */\n      not\n        /* \"#utility.yul\":11873:11875   */\n      0x1f\n        /* \"#utility.yul\":11866:11871   */\n      dup4\n        /* \"#utility.yul\":11862:11876   */\n      add\n        /* \"#utility.yul\":11858:11886   */\n      and\n        /* \"#utility.yul\":11848:11886   */\n      swap1\n      pop\n        /* \"#utility.yul\":11790:11892   */\n      swap2\n      swap1\n      pop\n      jump\t// out\n        /* \"#utility.yul\":11898:12059   */\n    tag_153:\n        /* \"#utility.yul\":12038:12051   */\n      0x4e6f2070726f6475637473000000000000000000000000000000000000000000\n        /* \"#utility.yul\":12034:12035   */\n      0x00\n        /* \"#utility.yul\":12026:12032   */\n      dup3\n        /* \"#utility.yul\":12022:12036   */\n      add\n        /* \"#utility.yul\":12015:12052   */\n      mstore\n        /* \"#utility.yul\":11898:12059   */\n      pop\n      jump\t// out\n        /* \"#utility.yul\":12065:12237   */\n    tag_158:\n        /* \"#utility.yul\":12205:12229   */\n      0x596f75277265206e6f7420617574686f72697a65642e00000000000000000000\n        /* \"#utility.yul\":12201:12202   */\n      0x00\n        /* \"#utility.yul\":12193:12199   */\n      dup3\n        /* \"#utility.yul\":12189:12203   */\n      add\n        /* \"#utility.yul\":12182:12230   */\n      mstore\n        /* \"#utility.yul\":12065:12237   */\n      pop\n      jump\t// out\n        /* \"#utility.yul\":12243:12413   */\n    tag_163:\n        /* \"#utility.yul\":12383:12405   */\n      0x4e6f7420612076616c6964206f72646572206964000000000000000000000000\n        /* \"#utility.yul\":12379:12380   */\n      0x00\n        /* \"#utility.yul\":12371:12377   */\n      dup3\n        /* \"#utility.yul\":12367:12381   */\n      add\n        /* \"#utility.yul\":12360:12406   */\n      mstore\n        /* \"#utility.yul\":12243:12413   */\n      pop\n      jump\t// out\n        /* \"#utility.yul\":12419:12532   */\n    tag_210:\n        /* \"#utility.yul\":12500:12501   */\n      0x04\n        /* \"#utility.yul\":12493:12498   */\n      dup2\n        /* \"#utility.yul\":12490:12502   */\n      lt\n        /* \"#utility.yul\":12480:12526   */\n      tag_244\n      jumpi\n        /* \"#utility.yul\":12506:12524   */\n      tag_245\n      tag_34\n      jump\t// in\n    tag_245:\n        /* \"#utility.yul\":12480:12526   */\n    tag_244:\n        /* \"#utility.yul\":12419:12532   */\n      pop\n      jump\t// out\n        /* \"#utility.yul\":12538:12660   */\n    tag_115:\n        /* \"#utility.yul\":12611:12635   */\n      tag_247\n        /* \"#utility.yul\":12629:12634   */\n      dup2\n        /* \"#utility.yul\":12611:12635   */\n      tag_167\n      jump\t// in\n    tag_247:\n        /* \"#utility.yul\":12604:12609   */\n      dup2\n        /* \"#utility.yul\":12601:12636   */\n      eq\n        /* \"#utility.yul\":12591:12654   */\n      tag_248\n      jumpi\n        /* \"#utility.yul\":12650:12651   */\n      0x00\n        /* \"#utility.yul\":12647:12648   */\n      dup1\n        /* \"#utility.yul\":12640:12652   */\n      revert\n        /* \"#utility.yul\":12591:12654   */\n    tag_248:\n        /* \"#utility.yul\":12538:12660   */\n      pop\n      jump\t// out\n\n    auxdata: 0xa2646970667358221220ce0854f44115ef6ae2639c0c327bb126aeec4a3dee6c78ac5ee24553be268ab664736f6c63430008070033\n}\n",
				"bytecode": {
					"linkReferences": {},
					"object": "608060405234801561001057600080fd5b5033600160006101000a81548173ffffffffffffffffffffffffffffffffffffffff021916908373ffffffffffffffffffffffffffffffffffffffff160217905550610ce3806100616000396000f3fe608060405234801561001057600080fd5b506004361061004c5760003560e01c80636d9a65d8146100515780638da5cb5b14610081578063a85c38ef1461009f578063afe13a62146100d1575b600080fd5b61006b60048036038101906100669190610701565b6100ed565b604051610078919061092e565b60405180910390f35b6100896102af565b6040516100969190610875565b60405180910390f35b6100b960048036038101906100b49190610779565b6102d5565b6040516100c893929190610890565b60405180910390f35b6100eb60048036038101906100e69190610779565b6103c4565b005b600080825111610132576040517f08c379a0000000000000000000000000000000000000000000000000000000008152600401610129906108ce565b60405180910390fd5b61013a61049e565b33816000019073ffffffffffffffffffffffffffffffffffffffff16908173ffffffffffffffffffffffffffffffffffffffff168152505083816020018190525082816040018190525060008160600190600381111561019d5761019c610b50565b5b908160038111156101b1576101b0610b50565b5b81525050600081908060018154018082558091505060019003906000526020600020906004020160009091909190915060008201518160000160006101000a81548173ffffffffffffffffffffffffffffffffffffffff021916908373ffffffffffffffffffffffffffffffffffffffff16021790555060208201518160010190805190602001906102449291906104ee565b506040820151816002019080519060200190610261929190610574565b5060608201518160030160006101000a81548160ff0219169083600381111561028d5761028c610b50565b5b0217905550505060016000805490506102a691906109e7565b91505092915050565b600160009054906101000a900473ffffffffffffffffffffffffffffffffffffffff1681565b600081815481106102e557600080fd5b90600052602060002090600402016000915090508060000160009054906101000a900473ffffffffffffffffffffffffffffffffffffffff169080600101805461032e90610abe565b80601f016020809104026020016040519081016040528092919081815260200182805461035a90610abe565b80156103a75780601f1061037c576101008083540402835291602001916103a7565b820191906000526020600020905b81548152906001019060200180831161038a57829003601f168201915b5050505050908060030160009054906101000a900460ff16905083565b600160009054906101000a900473ffffffffffffffffffffffffffffffffffffffff1673ffffffffffffffffffffffffffffffffffffffff163373ffffffffffffffffffffffffffffffffffffffff1614610454576040517f08c379a000000000000000000000000000000000000000000000000000000000815260040161044b906108ee565b60405180910390fd5b600080549050811061049b576040517f08c379a00000000000000000000000000000000000000000000000000000000081526004016104929061090e565b60405180910390fd5b50565b6040518060800160405280600073ffffffffffffffffffffffffffffffffffffffff1681526020016060815260200160608152602001600060038111156104e8576104e7610b50565b5b81525090565b8280546104fa90610abe565b90600052602060002090601f01602090048101928261051c5760008555610563565b82601f1061053557805160ff1916838001178555610563565b82800160010185558215610563579182015b82811115610562578251825591602001919060010190610547565b5b50905061057091906105c1565b5090565b8280548282559060005260206000209081019282156105b0579160200282015b828111156105af578251825591602001919060010190610594565b5b5090506105bd91906105c1565b5090565b5b808211156105da5760008160009055506001016105c2565b5090565b60006105f16105ec8461096e565b610949565b9050808382526020820190508285602086028201111561061457610613610be2565b5b60005b85811015610644578161062a88826106ec565b845260208401935060208301925050600181019050610617565b5050509392505050565b600061066161065c8461099a565b610949565b90508281526020810184848401111561067d5761067c610be7565b5b610688848285610a7c565b509392505050565b600082601f8301126106a5576106a4610bdd565b5b81356106b58482602086016105de565b91505092915050565b600082601f8301126106d3576106d2610bdd565b5b81356106e384826020860161064e565b91505092915050565b6000813590506106fb81610c96565b92915050565b6000806040838503121561071857610717610bf1565b5b600083013567ffffffffffffffff81111561073657610735610bec565b5b610742858286016106be565b925050602083013567ffffffffffffffff81111561076357610762610bec565b5b61076f85828601610690565b9150509250929050565b60006020828403121561078f5761078e610bf1565b5b600061079d848285016106ec565b91505092915050565b6107af81610a1b565b82525050565b6107be81610a6a565b82525050565b60006107cf826109cb565b6107d981856109d6565b93506107e9818560208601610a8b565b6107f281610bf6565b840191505092915050565b600061080a600b836109d6565b915061081582610c07565b602082019050919050565b600061082d6016836109d6565b915061083882610c30565b602082019050919050565b60006108506014836109d6565b915061085b82610c59565b602082019050919050565b61086f81610a60565b82525050565b600060208201905061088a60008301846107a6565b92915050565b60006060820190506108a560008301866107a6565b81810360208301526108b781856107c4565b90506108c660408301846107b5565b949350505050565b600060208201905081810360008301526108e7816107fd565b9050919050565b6000602082019050818103600083015261090781610820565b9050919050565b6000602082019050818103600083015261092781610843565b9050919050565b60006020820190506109436000830184610866565b92915050565b6000610953610964565b905061095f8282610af0565b919050565b6000604051905090565b600067ffffffffffffffff82111561098957610988610bae565b5b602082029050602081019050919050565b600067ffffffffffffffff8211156109b5576109b4610bae565b5b6109be82610bf6565b9050602081019050919050565b600081519050919050565b600082825260208201905092915050565b60006109f282610a60565b91506109fd83610a60565b925082821015610a1057610a0f610b21565b5b828203905092915050565b6000610a2682610a40565b9050919050565b6000819050610a3b82610c82565b919050565b600073ffffffffffffffffffffffffffffffffffffffff82169050919050565b6000819050919050565b6000610a7582610a2d565b9050919050565b82818337600083830152505050565b60005b83811015610aa9578082015181840152602081019050610a8e565b83811115610ab8576000848401525b50505050565b60006002820490506001821680610ad657607f821691505b60208210811415610aea57610ae9610b7f565b5b50919050565b610af982610bf6565b810181811067ffffffffffffffff82111715610b1857610b17610bae565b5b80604052505050565b7f4e487b7100000000000000000000000000000000000000000000000000000000600052601160045260246000fd5b7f4e487b7100000000000000000000000000000000000000000000000000000000600052602160045260246000fd5b7f4e487b7100000000000000000000000000000000000000000000000000000000600052602260045260246000fd5b7f4e487b7100000000000000000000000000000000000000000000000000000000600052604160045260246000fd5b600080fd5b600080fd5b600080fd5b600080fd5b600080fd5b6000601f19601f8301169050919050565b7f4e6f2070726f6475637473000000000000000000000000000000000000000000600082015250565b7f596f75277265206e6f7420617574686f72697a65642e00000000000000000000600082015250565b7f4e6f7420612076616c6964206f72646572206964000000000000000000000000600082015250565b60048110610c9357610c92610b50565b5b50565b610c9f81610a60565b8114610caa57600080fd5b5056fea2646970667358221220ce0854f44115ef6ae2639c0c327bb126aeec4a3dee6c78ac5ee24553be268ab664736f6c63430008070033",
					"opcodes": "PUSH1 0x80 PUSH1 0x40 MSTORE CALLVALUE DUP1 ISZERO PUSH2 0x10 JUMPI PUSH1 0x0 DUP1 REVERT JUMPDEST POP CALLER PUSH1 0x1 PUSH1 0x0 PUSH2 0x100 EXP DUP2 SLOAD DUP2 PUSH20 0xFFFFFFFFFFFFFFFFFFFFFFFFFFFFFFFFFFFFFFFF MUL NOT AND SWAP1 DUP4 PUSH20 0xFFFFFFFFFFFFFFFFFFFFFFFFFFFFFFFFFFFFFFFF AND MUL OR SWAP1 SSTORE POP PUSH2 0xCE3 DUP1 PUSH2 0x61 PUSH1 0x0 CODECOPY PUSH1 0x0 RETURN INVALID PUSH1 0x80 PUSH1 0x40 MSTORE CALLVALUE DUP1 ISZERO PUSH2 0x10 JUMPI PUSH1 0x0 DUP1 REVERT JUMPDEST POP PUSH1 0x4 CALLDATASIZE LT PUSH2 0x4C JUMPI PUSH1 0x0 CALLDATALOAD PUSH1 0xE0 SHR DUP1 PUSH4 0x6D9A65D8 EQ PUSH2 0x51 JUMPI DUP1 PUSH4 0x8DA5CB5B EQ PUSH2 0x81 JUMPI DUP1 PUSH4 0xA85C38EF EQ PUSH2 0x9F JUMPI DUP1 PUSH4 0xAFE13A62 EQ PUSH2 0xD1 JUMPI JUMPDEST PUSH1 0x0 DUP1 REVERT JUMPDEST PUSH2 0x6B PUSH1 0x4 DUP1 CALLDATASIZE SUB DUP2 ADD SWAP1 PUSH2 0x66 SWAP2 SWAP1 PUSH2 0x701 JUMP JUMPDEST PUSH2 0xED JUMP JUMPDEST PUSH1 0x40 MLOAD PUSH2 0x78 SWAP2 SWAP1 PUSH2 0x92E JUMP JUMPDEST PUSH1 0x40 MLOAD DUP1 SWAP2 SUB SWAP1 RETURN JUMPDEST PUSH2 0x89 PUSH2 0x2AF JUMP JUMPDEST PUSH1 0x40 MLOAD PUSH2 0x96 SWAP2 SWAP1 PUSH2 0x875 JUMP JUMPDEST PUSH1 0x40 MLOAD DUP1 SWAP2 SUB SWAP1 RETURN JUMPDEST PUSH2 0xB9 PUSH1 0x4 DUP1 CALLDATASIZE SUB DUP2 ADD SWAP1 PUSH2 0xB4 SWAP2 SWAP1 PUSH2 0x779 JUMP JUMPDEST PUSH2 0x2D5 JUMP JUMPDEST PUSH1 0x40 MLOAD PUSH2 0xC8 SWAP4 SWAP3 SWAP2 SWAP1 PUSH2 0x890 JUMP JUMPDEST PUSH1 0x40 MLOAD DUP1 SWAP2 SUB SWAP1 RETURN JUMPDEST PUSH2 0xEB PUSH1 0x4 DUP1 CALLDATASIZE SUB DUP2 ADD SWAP1 PUSH2 0xE6 SWAP2 SWAP1 PUSH2 0x779 JUMP JUMPDEST PUSH2 0x3C4 JUMP JUMPDEST STOP JUMPDEST PUSH1 0x0 DUP1 DUP3 MLOAD GT PUSH2 0x132 JUMPI PUSH1 0x40 MLOAD PUSH32 0x8C379A000000000000000000000000000000000000000000000000000000000 DUP2 MSTORE PUSH1 0x4 ADD PUSH2 0x129 SWAP1 PUSH2 0x8CE JUMP JUMPDEST PUSH1 0x40 MLOAD DUP1 SWAP2 SUB SWAP1 REVERT JUMPDEST PUSH2 0x13A PUSH2 0x49E JUMP JUMPDEST CALLER DUP2 PUSH1 0x0 ADD SWAP1 PUSH20 0xFFFFFFFFFFFFFFFFFFFFFFFFFFFFFFFFFFFFFFFF AND SWAP1 DUP2 PUSH20 0xFFFFFFFFFFFFFFFFFFFFFFFFFFFFFFFFFFFFFFFF AND DUP2 MSTORE POP POP DUP4 DUP2 PUSH1 0x20 ADD DUP2 SWAP1 MSTORE POP DUP3 DUP2 PUSH1 0x40 ADD DUP2 SWAP1 MSTORE POP PUSH1 0x0 DUP2 PUSH1 0x60 ADD SWAP1 PUSH1 0x3 DUP2 GT ISZERO PUSH2 0x19D JUMPI PUSH2 0x19C PUSH2 0xB50 JUMP JUMPDEST JUMPDEST SWAP1 DUP2 PUSH1 0x3 DUP2 GT ISZERO PUSH2 0x1B1 JUMPI PUSH2 0x1B0 PUSH2 0xB50 JUMP JUMPDEST JUMPDEST DUP2 MSTORE POP POP PUSH1 0x0 DUP2 SWAP1 DUP1 PUSH1 0x1 DUP2 SLOAD ADD DUP1 DUP3 SSTORE DUP1 SWAP2 POP POP PUSH1 0x1 SWAP1 SUB SWAP1 PUSH1 0x0 MSTORE PUSH1 0x20 PUSH1 0x0 KECCAK256 SWAP1 PUSH1 0x4 MUL ADD PUSH1 0x0 SWAP1 SWAP2 SWAP1 SWAP2 SWAP1 SWAP2 POP PUSH1 0x0 DUP3 ADD MLOAD DUP2 PUSH1 0x0 ADD PUSH1 0x0 PUSH2 0x100 EXP DUP2 SLOAD DUP2 PUSH20 0xFFFFFFFFFFFFFFFFFFFFFFFFFFFFFFFFFFFFFFFF MUL NOT AND SWAP1 DUP4 PUSH20 0xFFFFFFFFFFFFFFFFFFFFFFFFFFFFFFFFFFFFFFFF AND MUL OR SWAP1 SSTORE POP PUSH1 0x20 DUP3 ADD MLOAD DUP2 PUSH1 0x1 ADD SWAP1 DUP1 MLOAD SWAP1 PUSH1 0x20 ADD SWAP1 PUSH2 0x244 SWAP3 SWAP2 SWAP1 PUSH2 0x4EE JUMP JUMPDEST POP PUSH1 0x40 DUP3 ADD MLOAD DUP2 PUSH1 0x2 ADD SWAP1 DUP1 MLOAD SWAP1 PUSH1 0x20 ADD SWAP1 PUSH2 0x261 SWAP3 SWAP2 SWAP1 PUSH2 0x574 JUMP JUMPDEST POP PUSH1 0x60 DUP3 ADD MLOAD DUP2 PUSH1 0x3 ADD PUSH1 0x0 PUSH2 0x100 EXP DUP2 SLOAD DUP2 PUSH1 0xFF MUL NOT AND SWAP1 DUP4 PUSH1 0x3 DUP2 GT ISZERO PUSH2 0x28D JUMPI PUSH2 0x28C PUSH2 0xB50 JUMP JUMPDEST JUMPDEST MUL OR SWAP1 SSTORE POP POP POP PUSH1 0x1 PUSH1 0x0 DUP1 SLOAD SWAP1 POP PUSH2 0x2A6 SWAP2 SWAP1 PUSH2 0x9E7 JUMP JUMPDEST SWAP2 POP POP SWAP3 SWAP2 POP POP JUMP JUMPDEST PUSH1 0x1 PUSH1 0x0 SWAP1 SLOAD SWAP1 PUSH2 0x100 EXP SWAP1 DIV PUSH20 0xFFFFFFFFFFFFFFFFFFFFFFFFFFFFFFFFFFFFFFFF AND DUP2 JUMP JUMPDEST PUSH1 0x0 DUP2 DUP2 SLOAD DUP2 LT PUSH2 0x2E5 JUMPI PUSH1 0x0 DUP1 REVERT JUMPDEST SWAP1 PUSH1 0x0 MSTORE PUSH1 0x20 PUSH1 0x0 KECCAK256 SWAP1 PUSH1 0x4 MUL ADD PUSH1 0x0 SWAP2 POP SWAP1 POP DUP1 PUSH1 0x0 ADD PUSH1 0x0 SWAP1 SLOAD SWAP1 PUSH2 0x100 EXP SWAP1 DIV PUSH20 0xFFFFFFFFFFFFFFFFFFFFFFFFFFFFFFFFFFFFFFFF AND SWAP1 DUP1 PUSH1 0x1 ADD DUP1 SLOAD PUSH2 0x32E SWAP1 PUSH2 0xABE JUMP JUMPDEST DUP1 PUSH1 0x1F ADD PUSH1 0x20 DUP1 SWAP2 DIV MUL PUSH1 0x20 ADD PUSH1 0x40 MLOAD SWAP1 DUP2 ADD PUSH1 0x40 MSTORE DUP1 SWAP3 SWAP2 SWAP1 DUP2 DUP2 MSTORE PUSH1 0x20 ADD DUP3 DUP1 SLOAD PUSH2 0x35A SWAP1 PUSH2 0xABE JUMP JUMPDEST DUP1 ISZERO PUSH2 0x3A7 JUMPI DUP1 PUSH1 0x1F LT PUSH2 0x37C JUMPI PUSH2 0x100 DUP1 DUP4 SLOAD DIV MUL DUP4 MSTORE SWAP2 PUSH1 0x20 ADD SWAP2 PUSH2 0x3A7 JUMP JUMPDEST DUP3 ADD SWAP2 SWAP1 PUSH1 0x0 MSTORE PUSH1 0x20 PUSH1 0x0 KECCAK256 SWAP1 JUMPDEST DUP2 SLOAD DUP2 MSTORE SWAP1 PUSH1 0x1 ADD SWAP1 PUSH1 0x20 ADD DUP1 DUP4 GT PUSH2 0x38A JUMPI DUP3 SWAP1 SUB PUSH1 0x1F AND DUP3 ADD SWAP2 JUMPDEST POP POP POP POP POP SWAP1 DUP1 PUSH1 0x3 ADD PUSH1 0x0 SWAP1 SLOAD SWAP1 PUSH2 0x100 EXP SWAP1 DIV PUSH1 0xFF AND SWAP1 POP DUP4 JUMP JUMPDEST PUSH1 0x1 PUSH1 0x0 SWAP1 SLOAD SWAP1 PUSH2 0x100 EXP SWAP1 DIV PUSH20 0xFFFFFFFFFFFFFFFFFFFFFFFFFFFFFFFFFFFFFFFF AND PUSH20 0xFFFFFFFFFFFFFFFFFFFFFFFFFFFFFFFFFFFFFFFF AND CALLER PUSH20 0xFFFFFFFFFFFFFFFFFFFFFFFFFFFFFFFFFFFFFFFF AND EQ PUSH2 0x454 JUMPI PUSH1 0x40 MLOAD PUSH32 0x8C379A000000000000000000000000000000000000000000000000000000000 DUP2 MSTORE PUSH1 0x4 ADD PUSH2 0x44B SWAP1 PUSH2 0x8EE JUMP JUMPDEST PUSH1 0x40 MLOAD DUP1 SWAP2 SUB SWAP1 REVERT JUMPDEST PUSH1 0x0 DUP1 SLOAD SWAP1 POP DUP2 LT PUSH2 0x49B JUMPI PUSH1 0x40 MLOAD PUSH32 0x8C379A000000000000000000000000000000000000000000000000000000000 DUP2 MSTORE PUSH1 0x4 ADD PUSH2 0x492 SWAP1 PUSH2 0x90E JUMP JUMPDEST PUSH1 0x40 MLOAD DUP1 SWAP2 SUB SWAP1 REVERT JUMPDEST POP JUMP JUMPDEST PUSH1 0x40 MLOAD DUP1 PUSH1 0x80 ADD PUSH1 0x40 MSTORE DUP1 PUSH1 0x0 PUSH20 0xFFFFFFFFFFFFFFFFFFFFFFFFFFFFFFFFFFFFFFFF AND DUP2 MSTORE PUSH1 0x20 ADD PUSH1 0x60 DUP2 MSTORE PUSH1 0x20 ADD PUSH1 0x60 DUP2 MSTORE PUSH1 0x20 ADD PUSH1 0x0 PUSH1 0x3 DUP2 GT ISZERO PUSH2 0x4E8 JUMPI PUSH2 0x4E7 PUSH2 0xB50 JUMP JUMPDEST JUMPDEST DUP2 MSTORE POP SWAP1 JUMP JUMPDEST DUP3 DUP1 SLOAD PUSH2 0x4FA SWAP1 PUSH2 0xABE JUMP JUMPDEST SWAP1 PUSH1 0x0 MSTORE PUSH1 0x20 PUSH1 0x0 KECCAK256 SWAP1 PUSH1 0x1F ADD PUSH1 0x20 SWAP1 DIV DUP2 ADD SWAP3 DUP3 PUSH2 0x51C JUMPI PUSH1 0x0 DUP6 SSTORE PUSH2 0x563 JUMP JUMPDEST DUP3 PUSH1 0x1F LT PUSH2 0x535 JUMPI DUP1 MLOAD PUSH1 0xFF NOT AND DUP4 DUP1 ADD OR DUP6 SSTORE PUSH2 0x563 JUMP JUMPDEST DUP3 DUP1 ADD PUSH1 0x1 ADD DUP6 SSTORE DUP3 ISZERO PUSH2 0x563 JUMPI SWAP2 DUP3 ADD JUMPDEST DUP3 DUP2 GT ISZERO PUSH2 0x562 JUMPI DUP3 MLOAD DUP3 SSTORE SWAP2 PUSH1 0x20 ADD SWAP2 SWAP1 PUSH1 0x1 ADD SWAP1 PUSH2 0x547 JUMP JUMPDEST JUMPDEST POP SWAP1 POP PUSH2 0x570 SWAP2 SWAP1 PUSH2 0x5C1 JUMP JUMPDEST POP SWAP1 JUMP JUMPDEST DUP3 DUP1 SLOAD DUP3 DUP3 SSTORE SWAP1 PUSH1 0x0 MSTORE PUSH1 0x20 PUSH1 0x0 KECCAK256 SWAP1 DUP2 ADD SWAP3 DUP3 ISZERO PUSH2 0x5B0 JUMPI SWAP2 PUSH1 0x20 MUL DUP3 ADD JUMPDEST DUP3 DUP2 GT ISZERO PUSH2 0x5AF JUMPI DUP3 MLOAD DUP3 SSTORE SWAP2 PUSH1 0x20 ADD SWAP2 SWAP1 PUSH1 0x1 ADD SWAP1 PUSH2 0x594 JUMP JUMPDEST JUMPDEST POP SWAP1 POP PUSH2 0x5BD SWAP2 SWAP1 PUSH2 0x5C1 JUMP JUMPDEST POP SWAP1 JUMP JUMPDEST JUMPDEST DUP1 DUP3 GT ISZERO PUSH2 0x5DA JUMPI PUSH1 0x0 DUP2 PUSH1 0x0 SWAP1 SSTORE POP PUSH1 0x1 ADD PUSH2 0x5C2 JUMP JUMPDEST POP SWAP1 JUMP JUMPDEST PUSH1 0x0 PUSH2 0x5F1 PUSH2 0x5EC DUP5 PUSH2 0x96E JUMP JUMPDEST PUSH2 0x949 JUMP JUMPDEST SWAP1 POP DUP1 DUP4 DUP3 MSTORE PUSH1 0x20 DUP3 ADD SWAP1 POP DUP3 DUP6 PUSH1 0x20 DUP7 MUL DUP3 ADD GT ISZERO PUSH2 0x614 JUMPI PUSH2 0x613 PUSH2 0xBE2 JUMP JUMPDEST JUMPDEST PUSH1 0x0 JUMPDEST DUP6 DUP2 LT ISZERO PUSH2 0x644 JUMPI DUP2 PUSH2 0x62A DUP9 DUP3 PUSH2 0x6EC JUMP JUMPDEST DUP5 MSTORE PUSH1 0x20 DUP5 ADD SWAP4 POP PUSH1 0x20 DUP4 ADD SWAP3 POP POP PUSH1 0x1 DUP2 ADD SWAP1 POP PUSH2 0x617 JUMP JUMPDEST POP POP POP SWAP4 SWAP3 POP POP POP JUMP JUMPDEST PUSH1 0x0 PUSH2 0x661 PUSH2 0x65C DUP5 PUSH2 0x99A JUMP JUMPDEST PUSH2 0x949 JUMP JUMPDEST SWAP1 POP DUP3 DUP2 MSTORE PUSH1 0x20 DUP2 ADD DUP5 DUP5 DUP5 ADD GT ISZERO PUSH2 0x67D JUMPI PUSH2 0x67C PUSH2 0xBE7 JUMP JUMPDEST JUMPDEST PUSH2 0x688 DUP5 DUP3 DUP6 PUSH2 0xA7C JUMP JUMPDEST POP SWAP4 SWAP3 POP POP POP JUMP JUMPDEST PUSH1 0x0 DUP3 PUSH1 0x1F DUP4 ADD SLT PUSH2 0x6A5 JUMPI PUSH2 0x6A4 PUSH2 0xBDD JUMP JUMPDEST JUMPDEST DUP2 CALLDATALOAD PUSH2 0x6B5 DUP5 DUP3 PUSH1 0x20 DUP7 ADD PUSH2 0x5DE JUMP JUMPDEST SWAP2 POP POP SWAP3 SWAP2 POP POP JUMP JUMPDEST PUSH1 0x0 DUP3 PUSH1 0x1F DUP4 ADD SLT PUSH2 0x6D3 JUMPI PUSH2 0x6D2 PUSH2 0xBDD JUMP JUMPDEST JUMPDEST DUP2 CALLDATALOAD PUSH2 0x6E3 DUP5 DUP3 PUSH1 0x20 DUP7 ADD PUSH2 0x64E JUMP JUMPDEST SWAP2 POP POP SWAP3 SWAP2 POP POP JUMP JUMPDEST PUSH1 0x0 DUP2 CALLDATALOAD SWAP1 POP PUSH2 0x6FB DUP2 PUSH2 0xC96 JUMP JUMPDEST SWAP3 SWAP2 POP POP JUMP JUMPDEST PUSH1 0x0 DUP1 PUSH1 0x40 DUP4 DUP6 SUB SLT ISZERO PUSH2 0x718 JUMPI PUSH2 0x717 PUSH2 0xBF1 JUMP JUMPDEST JUMPDEST PUSH1 0x0 DUP4 ADD CALLDATALOAD PUSH8 0xFFFFFFFFFFFFFFFF DUP2 GT ISZERO PUSH2 0x736 JUMPI PUSH2 0x735 PUSH2 0xBEC JUMP JUMPDEST JUMPDEST PUSH2 0x742 DUP6 DUP3 DUP7 ADD PUSH2 0x6BE JUMP JUMPDEST SWAP3 POP POP PUSH1 0x20 DUP4 ADD CALLDATALOAD PUSH8 0xFFFFFFFFFFFFFFFF DUP2 GT ISZERO PUSH2 0x763 JUMPI PUSH2 0x762 PUSH2 0xBEC JUMP JUMPDEST JUMPDEST PUSH2 0x76F DUP6 DUP3 DUP7 ADD PUSH2 0x690 JUMP JUMPDEST SWAP2 POP POP SWAP3 POP SWAP3 SWAP1 POP JUMP JUMPDEST PUSH1 0x0 PUSH1 0x20 DUP3 DUP5 SUB SLT ISZERO PUSH2 0x78F JUMPI PUSH2 0x78E PUSH2 0xBF1 JUMP JUMPDEST JUMPDEST PUSH1 0x0 PUSH2 0x79D DUP5 DUP3 DUP6 ADD PUSH2 0x6EC JUMP JUMPDEST SWAP2 POP POP SWAP3 SWAP2 POP POP JUMP JUMPDEST PUSH2 0x7AF DUP2 PUSH2 0xA1B JUMP JUMPDEST DUP3 MSTORE POP POP JUMP JUMPDEST PUSH2 0x7BE DUP2 PUSH2 0xA6A JUMP JUMPDEST DUP3 MSTORE POP POP JUMP JUMPDEST PUSH1 0x0 PUSH2 0x7CF DUP3 PUSH2 0x9CB JUMP JUMPDEST PUSH2 0x7D9 DUP2 DUP6 PUSH2 0x9D6 JUMP JUMPDEST SWAP4 POP PUSH2 0x7E9 DUP2 DUP6 PUSH1 0x20 DUP7 ADD PUSH2 0xA8B JUMP JUMPDEST PUSH2 0x7F2 DUP2 PUSH2 0xBF6 JUMP JUMPDEST DUP5 ADD SWAP2 POP POP SWAP3 SWAP2 POP POP JUMP JUMPDEST PUSH1 0x0 PUSH2 0x80A PUSH1 0xB DUP4 PUSH2 0x9D6 JUMP JUMPDEST SWAP2 POP PUSH2 0x815 DUP3 PUSH2 0xC07 JUMP JUMPDEST PUSH1 0x20 DUP3 ADD SWAP1 POP SWAP2 SWAP1 POP JUMP JUMPDEST PUSH1 0x0 PUSH2 0x82D PUSH1 0x16 DUP4 PUSH2 0x9D6 JUMP JUMPDEST SWAP2 POP PUSH2 0x838 DUP3 PUSH2 0xC30 JUMP JUMPDEST PUSH1 0x20 DUP3 ADD SWAP1 POP SWAP2 SWAP1 POP JUMP JUMPDEST PUSH1 0x0 PUSH2 0x850 PUSH1 0x14 DUP4 PUSH2 0x9D6 JUMP JUMPDEST SWAP2 POP PUSH2 0x85B DUP3 PUSH2 0xC59 JUMP JUMPDEST PUSH1 0x20 DUP3 ADD SWAP1 POP SWAP2 SWAP1 POP JUMP JUMPDEST PUSH2 0x86F DUP2 PUSH2 0xA60 JUMP JUMPDEST DUP3 MSTORE POP POP JUMP JUMPDEST PUSH1 0x0 PUSH1 0x20 DUP3 ADD SWAP1 POP PUSH2 0x88A PUSH1 0x0 DUP4 ADD DUP5 PUSH2 0x7A6 JUMP JUMPDEST SWAP3 SWAP2 POP POP JUMP JUMPDEST PUSH1 0x0 PUSH1 0x60 DUP3 ADD SWAP1 POP PUSH2 0x8A5 PUSH1 0x0 DUP4 ADD DUP7 PUSH2 0x7A6 JUMP JUMPDEST DUP2 DUP2 SUB PUSH1 0x20 DUP4 ADD MSTORE PUSH2 0x8B7 DUP2 DUP6 PUSH2 0x7C4 JUMP JUMPDEST SWAP1 POP PUSH2 0x8C6 PUSH1 0x40 DUP4 ADD DUP5 PUSH2 0x7B5 JUMP JUMPDEST SWAP5 SWAP4 POP POP POP POP JUMP JUMPDEST PUSH1 0x0 PUSH1 0x20 DUP3 ADD SWAP1 POP DUP2 DUP2 SUB PUSH1 0x0 DUP4 ADD MSTORE PUSH2 0x8E7 DUP2 PUSH2 0x7FD JUMP JUMPDEST SWAP1 POP SWAP2 SWAP1 POP JUMP JUMPDEST PUSH1 0x0 PUSH1 0x20 DUP3 ADD SWAP1 POP DUP2 DUP2 SUB PUSH1 0x0 DUP4 ADD MSTORE PUSH2 0x907 DUP2 PUSH2 0x820 JUMP JUMPDEST SWAP1 POP SWAP2 SWAP1 POP JUMP JUMPDEST PUSH1 0x0 PUSH1 0x20 DUP3 ADD SWAP1 POP DUP2 DUP2 SUB PUSH1 0x0 DUP4 ADD MSTORE PUSH2 0x927 DUP2 PUSH2 0x843 JUMP JUMPDEST SWAP1 POP SWAP2 SWAP1 POP JUMP JUMPDEST PUSH1 0x0 PUSH1 0x20 DUP3 ADD SWAP1 POP PUSH2 0x943 PUSH1 0x0 DUP4 ADD DUP5 PUSH2 0x866 JUMP JUMPDEST SWAP3 SWAP2 POP POP JUMP JUMPDEST PUSH1 0x0 PUSH2 0x953 PUSH2 0x964 JUMP JUMPDEST SWAP1 POP PUSH2 0x95F DUP3 DUP3 PUSH2 0xAF0 JUMP JUMPDEST SWAP2 SWAP1 POP JUMP JUMPDEST PUSH1 0x0 PUSH1 0x40 MLOAD SWAP1 POP SWAP1 JUMP JUMPDEST PUSH1 0x0 PUSH8 0xFFFFFFFFFFFFFFFF DUP3 GT ISZERO PUSH2 0x989 JUMPI PUSH2 0x988 PUSH2 0xBAE JUMP JUMPDEST JUMPDEST PUSH1 0x20 DUP3 MUL SWAP1 POP PUSH1 0x20 DUP2 ADD SWAP1 POP SWAP2 SWAP1 POP JUMP JUMPDEST PUSH1 0x0 PUSH8 0xFFFFFFFFFFFFFFFF DUP3 GT ISZERO PUSH2 0x9B5 JUMPI PUSH2 0x9B4 PUSH2 0xBAE JUMP JUMPDEST JUMPDEST PUSH2 0x9BE DUP3 PUSH2 0xBF6 JUMP JUMPDEST SWAP1 POP PUSH1 0x20 DUP2 ADD SWAP1 POP SWAP2 SWAP1 POP JUMP JUMPDEST PUSH1 0x0 DUP2 MLOAD SWAP1 POP SWAP2 SWAP1 POP JUMP JUMPDEST PUSH1 0x0 DUP3 DUP3 MSTORE PUSH1 0x20 DUP3 ADD SWAP1 POP SWAP3 SWAP2 POP POP JUMP JUMPDEST PUSH1 0x0 PUSH2 0x9F2 DUP3 PUSH2 0xA60 JUMP JUMPDEST SWAP2 POP PUSH2 0x9FD DUP4 PUSH2 0xA60 JUMP JUMPDEST SWAP3 POP DUP3 DUP3 LT ISZERO PUSH2 0xA10 JUMPI PUSH2 0xA0F PUSH2 0xB21 JUMP JUMPDEST JUMPDEST DUP3 DUP3 SUB SWAP1 POP SWAP3 SWAP2 POP POP JUMP JUMPDEST PUSH1 0x0 PUSH2 0xA26 DUP3 PUSH2 0xA40 JUMP JUMPDEST SWAP1 POP SWAP2 SWAP1 POP JUMP JUMPDEST PUSH1 0x0 DUP2 SWAP1 POP PUSH2 0xA3B DUP3 PUSH2 0xC82 JUMP JUMPDEST SWAP2 SWAP1 POP JUMP JUMPDEST PUSH1 0x0 PUSH20 0xFFFFFFFFFFFFFFFFFFFFFFFFFFFFFFFFFFFFFFFF DUP3 AND SWAP1 POP SWAP2 SWAP1 POP JUMP JUMPDEST PUSH1 0x0 DUP2 SWAP1 POP SWAP2 SWAP1 POP JUMP JUMPDEST PUSH1 0x0 PUSH2 0xA75 DUP3 PUSH2 0xA2D JUMP JUMPDEST SWAP1 POP SWAP2 SWAP1 POP JUMP JUMPDEST DUP3 DUP2 DUP4 CALLDATACOPY PUSH1 0x0 DUP4 DUP4 ADD MSTORE POP POP POP JUMP JUMPDEST PUSH1 0x0 JUMPDEST DUP4 DUP2 LT ISZERO PUSH2 0xAA9 JUMPI DUP1 DUP3 ADD MLOAD DUP2 DUP5 ADD MSTORE PUSH1 0x20 DUP2 ADD SWAP1 POP PUSH2 0xA8E JUMP JUMPDEST DUP4 DUP2 GT ISZERO PUSH2 0xAB8 JUMPI PUSH1 0x0 DUP5 DUP5 ADD MSTORE JUMPDEST POP POP POP POP JUMP JUMPDEST PUSH1 0x0 PUSH1 0x2 DUP3 DIV SWAP1 POP PUSH1 0x1 DUP3 AND DUP1 PUSH2 0xAD6 JUMPI PUSH1 0x7F DUP3 AND SWAP2 POP JUMPDEST PUSH1 0x20 DUP3 LT DUP2 EQ ISZERO PUSH2 0xAEA JUMPI PUSH2 0xAE9 PUSH2 0xB7F JUMP JUMPDEST JUMPDEST POP SWAP2 SWAP1 POP JUMP JUMPDEST PUSH2 0xAF9 DUP3 PUSH2 0xBF6 JUMP JUMPDEST DUP2 ADD DUP2 DUP2 LT PUSH8 0xFFFFFFFFFFFFFFFF DUP3 GT OR ISZERO PUSH2 0xB18 JUMPI PUSH2 0xB17 PUSH2 0xBAE JUMP JUMPDEST JUMPDEST DUP1 PUSH1 0x40 MSTORE POP POP POP JUMP JUMPDEST PUSH32 0x4E487B7100000000000000000000000000000000000000000000000000000000 PUSH1 0x0 MSTORE PUSH1 0x11 PUSH1 0x4 MSTORE PUSH1 0x24 PUSH1 0x0 REVERT JUMPDEST PUSH32 0x4E487B7100000000000000000000000000000000000000000000000000000000 PUSH1 0x0 MSTORE PUSH1 0x21 PUSH1 0x4 MSTORE PUSH1 0x24 PUSH1 0x0 REVERT JUMPDEST PUSH32 0x4E487B7100000000000000000000000000000000000000000000000000000000 PUSH1 0x0 MSTORE PUSH1 0x22 PUSH1 0x4 MSTORE PUSH1 0x24 PUSH1 0x0 REVERT JUMPDEST PUSH32 0x4E487B7100000000000000000000000000000000000000000000000000000000 PUSH1 0x0 MSTORE PUSH1 0x41 PUSH1 0x4 MSTORE PUSH1 0x24 PUSH1 0x0 REVERT JUMPDEST PUSH1 0x0 DUP1 REVERT JUMPDEST PUSH1 0x0 DUP1 REVERT JUMPDEST PUSH1 0x0 DUP1 REVERT JUMPDEST PUSH1 0x0 DUP1 REVERT JUMPDEST PUSH1 0x0 DUP1 REVERT JUMPDEST PUSH1 0x0 PUSH1 0x1F NOT PUSH1 0x1F DUP4 ADD AND SWAP1 POP SWAP2 SWAP1 POP JUMP JUMPDEST PUSH32 0x4E6F2070726F6475637473000000000000000000000000000000000000000000 PUSH1 0x0 DUP3 ADD MSTORE POP JUMP JUMPDEST PUSH32 0x596F75277265206E6F7420617574686F72697A65642E00000000000000000000 PUSH1 0x0 DUP3 ADD MSTORE POP JUMP JUMPDEST PUSH32 0x4E6F7420612076616C6964206F72646572206964000000000000000000000000 PUSH1 0x0 DUP3 ADD MSTORE POP JUMP JUMPDEST PUSH1 0x4 DUP2 LT PUSH2 0xC93 JUMPI PUSH2 0xC92 PUSH2 0xB50 JUMP JUMPDEST JUMPDEST POP JUMP JUMPDEST PUSH2 0xC9F DUP2 PUSH2 0xA60 JUMP JUMPDEST DUP2 EQ PUSH2 0xCAA JUMPI PUSH1 0x0 DUP1 REVERT JUMPDEST POP JUMP INVALID LOG2 PUSH5 0x6970667358 0x22 SLT KECCAK256 0xCE ADDMOD SLOAD DELEGATECALL COINBASE ISZERO 0xEF PUSH11 0xE2639C0C327BB126AEEC4A RETURNDATASIZE 0xEE PUSH13 0x78AC5EE24553BE268AB664736F PUSH13 0x63430008070033000000000000 "
				},
				"gasEstimates": {
					"creation": {
						"codeDepositCost": "659800",
						"executionCost": "24962",
						"totalCost": "684762"
					},
					"external": {
						"advanceOrder(uint256)": "5038",
						"createOrder(string,uint256[])": "infinite",
						"orders(uint256)": "infinite",
						"owner()": "2514"
					}
				},
				"methodIdentifiers": {
					"advanceOrder(uint256)": "afe13a62",
					"createOrder(string,uint256[])": "6d9a65d8",
					"orders(uint256)": "a85c38ef",
					"owner()": "8da5cb5b"
				}
			},
			"storageLayout": {
				"storage": [
					{
						"astId": 21,
						"contract": "contracts/StructsEnums.sol:StructsEnums",
						"label": "orders",
						"offset": 0,
						"slot": "0",
						"type": "t_array(t_struct(Order)17_storage)dyn_storage"
					},
					{
						"astId": 23,
						"contract": "contracts/StructsEnums.sol:StructsEnums",
						"label": "owner",
						"offset": 0,
						"slot": "1",
						"type": "t_address"
					}
				],
				"types": {
					"t_address": {
						"encoding": "inplace",
						"label": "address",
						"numberOfBytes": "20"
					},
					"t_array(t_struct(Order)17_storage)dyn_storage": {
						"base": "t_struct(Order)17_storage",
						"encoding": "dynamic_array",
						"label": "struct StructsEnums.Order[]",
						"numberOfBytes": "32"
					},
					"t_array(t_uint256)dyn_storage": {
						"base": "t_uint256",
						"encoding": "dynamic_array",
						"label": "uint256[]",
						"numberOfBytes": "32"
					},
					"t_enum(Status)6": {
						"encoding": "inplace",
						"label": "enum StructsEnums.Status",
						"numberOfBytes": "1"
					},
					"t_string_storage": {
						"encoding": "bytes",
						"label": "string",
						"numberOfBytes": "32"
					},
					"t_struct(Order)17_storage": {
						"encoding": "inplace",
						"label": "struct StructsEnums.Order",
						"members": [
							{
								"astId": 8,
								"contract": "contracts/StructsEnums.sol:StructsEnums",
								"label": "customer",
								"offset": 0,
								"slot": "0",
								"type": "t_address"
							},
							{
								"astId": 10,
								"contract": "contracts/StructsEnums.sol:StructsEnums",
								"label": "zipCode",
								"offset": 0,
								"slot": "1",
								"type": "t_string_storage"
							},
							{
								"astId": 13,
								"contract": "contracts/StructsEnums.sol:StructsEnums",
								"label": "products",
								"offset": 0,
								"slot": "2",
								"type": "t_array(t_uint256)dyn_storage"
							},
							{
								"astId": 16,
								"contract": "contracts/StructsEnums.sol:StructsEnums",
								"label": "status",
								"offset": 0,
								"slot": "3",
								"type": "t_enum(Status)6"
							}
						],
						"numberOfBytes": "128"
					},
					"t_uint256": {
						"encoding": "inplace",
						"label": "uint256",
						"numberOfBytes": "32"
					}
				}
			},
			"userdoc": {
				"kind": "user",
				"methods": {},
				"version": 1
			}
		}
	}
}