{
	"contracts/Functions.sol": {
		"Functions": {
			"abi": [
				{
					"inputs": [],
					"name": "luckyNumber",
					"outputs": [
						{
							"internalType": "uint256",
							"name": "",
							"type": "uint256"
						}
					],
					"stateMutability": "view",
					"type": "function"
				},
				{
					"inputs": [],
					"name": "nothing",
					"outputs": [
						{
							"internalType": "uint256",
							"name": "x",
							"type": "uint256"
						},
						{
							"internalType": "bool",
							"name": "y",
							"type": "bool"
						},
						{
							"internalType": "bool",
							"name": "z",
							"type": "bool"
						}
					],
					"stateMutability": "pure",
					"type": "function"
				},
				{
					"inputs": [
						{
							"internalType": "uint256",
							"name": "newNumber",
							"type": "uint256"
						}
					],
					"name": "setNumber",
					"outputs": [],
					"stateMutability": "nonpayable",
					"type": "function"
				},
				{
					"inputs": [
						{
							"internalType": "uint256",
							"name": "newX",
							"type": "uint256"
						}
					],
					"name": "setX",
					"outputs": [],
					"stateMutability": "nonpayable",
					"type": "function"
				},
				{
					"inputs": [],
					"name": "x",
					"outputs": [
						{
							"internalType": "uint256",
							"name": "",
							"type": "uint256"
						}
					],
					"stateMutability": "view",
					"type": "function"
				}
			],
			"devdoc": {
				"kind": "dev",
				"methods": {},
				"version": 1
			},
			"evm": {
				"assembly": "    /* \"contracts/Functions.sol\":64:669  contract Functions {... */\n  mstore(0x40, 0x80)\n    /* \"contracts/Functions.sol\":106:107  3 */\n  0x03\n    /* \"contracts/Functions.sol\":90:107  uint public x = 3 */\n  0x00\n  sstore\n    /* \"contracts/Functions.sol\":139:140  7 */\n  0x07\n    /* \"contracts/Functions.sol\":113:140  uint public luckyNumber = 7 */\n  0x01\n  sstore\n    /* \"contracts/Functions.sol\":64:669  contract Functions {... */\n  callvalue\n  dup1\n  iszero\n  tag_1\n  jumpi\n  0x00\n  dup1\n  revert\ntag_1:\n  pop\n  dataSize(sub_0)\n  dup1\n  dataOffset(sub_0)\n  0x00\n  codecopy\n  0x00\n  return\nstop\n\nsub_0: assembly {\n        /* \"contracts/Functions.sol\":64:669  contract Functions {... */\n      mstore(0x40, 0x80)\n      callvalue\n      dup1\n      iszero\n      tag_1\n      jumpi\n      0x00\n      dup1\n      revert\n    tag_1:\n      pop\n      jumpi(tag_2, lt(calldatasize, 0x04))\n      shr(0xe0, calldataload(0x00))\n      dup1\n      0x0c55699c\n      eq\n      tag_3\n      jumpi\n      dup1\n      0x3fb5c1cb\n      eq\n      tag_4\n      jumpi\n      dup1\n      0x4018d9aa\n      eq\n      tag_5\n      jumpi\n      dup1\n      0x448f30a3\n      eq\n      tag_6\n      jumpi\n      dup1\n      0xbf205ebc\n      eq\n      tag_7\n      jumpi\n    tag_2:\n      0x00\n      dup1\n      revert\n        /* \"contracts/Functions.sol\":90:107  uint public x = 3 */\n    tag_3:\n      tag_8\n      tag_9\n      jump\t// in\n    tag_8:\n      mload(0x40)\n      tag_10\n      swap2\n      swap1\n      tag_11\n      jump\t// in\n    tag_10:\n      mload(0x40)\n      dup1\n      swap2\n      sub\n      swap1\n      return\n        /* \"contracts/Functions.sol\":316:398  function setNumber(uint newNumber) public {... */\n    tag_4:\n      tag_12\n      0x04\n      dup1\n      calldatasize\n      sub\n      dup2\n      add\n      swap1\n      tag_13\n      swap2\n      swap1\n      tag_14\n      jump\t// in\n    tag_13:\n      tag_15\n      jump\t// in\n    tag_12:\n      stop\n        /* \"contracts/Functions.sol\":633:667  function setX(uint newX) public {} */\n    tag_5:\n      tag_16\n      0x04\n      dup1\n      calldatasize\n      sub\n      dup2\n      add\n      swap1\n      tag_17\n      swap2\n      swap1\n      tag_14\n      jump\t// in\n    tag_17:\n      tag_18\n      jump\t// in\n    tag_16:\n      stop\n        /* \"contracts/Functions.sol\":404:627  function nothing() public pure returns(uint x, bool y, bool z){ // Returns içerisinde değişken ismi eklersek fonksiyon içerisinde return kullanmamıza gerek yok.... */\n    tag_6:\n      tag_19\n      tag_20\n      jump\t// in\n    tag_19:\n      mload(0x40)\n      tag_21\n      swap4\n      swap3\n      swap2\n      swap1\n      tag_22\n      jump\t// in\n    tag_21:\n      mload(0x40)\n      dup1\n      swap2\n      sub\n      swap1\n      return\n        /* \"contracts/Functions.sol\":113:140  uint public luckyNumber = 7 */\n    tag_7:\n      tag_23\n      tag_24\n      jump\t// in\n    tag_23:\n      mload(0x40)\n      tag_25\n      swap2\n      swap1\n      tag_11\n      jump\t// in\n    tag_25:\n      mload(0x40)\n      dup1\n      swap2\n      sub\n      swap1\n      return\n        /* \"contracts/Functions.sol\":90:107  uint public x = 3 */\n    tag_9:\n      sload(0x00)\n      dup2\n      jump\t// out\n        /* \"contracts/Functions.sol\":316:398  function setNumber(uint newNumber) public {... */\n    tag_15:\n        /* \"contracts/Functions.sol\":382:391  newNumber */\n      dup1\n        /* \"contracts/Functions.sol\":368:379  luckyNumber */\n      0x01\n        /* \"contracts/Functions.sol\":368:391  luckyNumber = newNumber */\n      dup2\n      swap1\n      sstore\n      pop\n        /* \"contracts/Functions.sol\":316:398  function setNumber(uint newNumber) public {... */\n      pop\n      jump\t// out\n        /* \"contracts/Functions.sol\":633:667  function setX(uint newX) public {} */\n    tag_18:\n      pop\n      jump\t// out\n        /* \"contracts/Functions.sol\":404:627  function nothing() public pure returns(uint x, bool y, bool z){ // Returns içerisinde değişken ismi eklersek fonksiyon içerisinde return kullanmamıza gerek yok.... */\n    tag_20:\n        /* \"contracts/Functions.sol\":443:449  uint x */\n      0x00\n        /* \"contracts/Functions.sol\":451:457  bool y */\n      dup1\n        /* \"contracts/Functions.sol\":459:465  bool z */\n      0x00\n        /* \"contracts/Functions.sol\":582:583  6 */\n      0x06\n        /* \"contracts/Functions.sol\":578:583  x = 6 */\n      swap3\n      pop\n        /* \"contracts/Functions.sol\":597:602  false */\n      0x00\n        /* \"contracts/Functions.sol\":593:602  y = false */\n      swap2\n      pop\n        /* \"contracts/Functions.sol\":616:620  true */\n      0x01\n        /* \"contracts/Functions.sol\":612:620  z = true */\n      swap1\n      pop\n        /* \"contracts/Functions.sol\":404:627  function nothing() public pure returns(uint x, bool y, bool z){ // Returns içerisinde değişken ismi eklersek fonksiyon içerisinde return kullanmamıza gerek yok.... */\n      swap1\n      swap2\n      swap3\n      jump\t// out\n        /* \"contracts/Functions.sol\":113:140  uint public luckyNumber = 7 */\n    tag_24:\n      sload(0x01)\n      dup2\n      jump\t// out\n        /* \"#utility.yul\":7:146   */\n    tag_30:\n        /* \"#utility.yul\":53:58   */\n      0x00\n        /* \"#utility.yul\":91:97   */\n      dup2\n        /* \"#utility.yul\":78:98   */\n      calldataload\n        /* \"#utility.yul\":69:98   */\n      swap1\n      pop\n        /* \"#utility.yul\":107:140   */\n      tag_32\n        /* \"#utility.yul\":134:139   */\n      dup2\n        /* \"#utility.yul\":107:140   */\n      tag_33\n      jump\t// in\n    tag_32:\n        /* \"#utility.yul\":7:146   */\n      swap3\n      swap2\n      pop\n      pop\n      jump\t// out\n        /* \"#utility.yul\":152:481   */\n    tag_14:\n        /* \"#utility.yul\":211:217   */\n      0x00\n        /* \"#utility.yul\":260:262   */\n      0x20\n        /* \"#utility.yul\":248:257   */\n      dup3\n        /* \"#utility.yul\":239:246   */\n      dup5\n        /* \"#utility.yul\":235:258   */\n      sub\n        /* \"#utility.yul\":231:263   */\n      slt\n        /* \"#utility.yul\":228:347   */\n      iszero\n      tag_35\n      jumpi\n        /* \"#utility.yul\":266:345   */\n      tag_36\n      tag_37\n      jump\t// in\n    tag_36:\n        /* \"#utility.yul\":228:347   */\n    tag_35:\n        /* \"#utility.yul\":386:387   */\n      0x00\n        /* \"#utility.yul\":411:464   */\n      tag_38\n        /* \"#utility.yul\":456:463   */\n      dup5\n        /* \"#utility.yul\":447:453   */\n      dup3\n        /* \"#utility.yul\":436:445   */\n      dup6\n        /* \"#utility.yul\":432:454   */\n      add\n        /* \"#utility.yul\":411:464   */\n      tag_30\n      jump\t// in\n    tag_38:\n        /* \"#utility.yul\":401:464   */\n      swap2\n      pop\n        /* \"#utility.yul\":357:474   */\n      pop\n        /* \"#utility.yul\":152:481   */\n      swap3\n      swap2\n      pop\n      pop\n      jump\t// out\n        /* \"#utility.yul\":487:596   */\n    tag_39:\n        /* \"#utility.yul\":568:589   */\n      tag_41\n        /* \"#utility.yul\":583:588   */\n      dup2\n        /* \"#utility.yul\":568:589   */\n      tag_42\n      jump\t// in\n    tag_41:\n        /* \"#utility.yul\":563:566   */\n      dup3\n        /* \"#utility.yul\":556:590   */\n      mstore\n        /* \"#utility.yul\":487:596   */\n      pop\n      pop\n      jump\t// out\n        /* \"#utility.yul\":602:720   */\n    tag_43:\n        /* \"#utility.yul\":689:713   */\n      tag_45\n        /* \"#utility.yul\":707:712   */\n      dup2\n        /* \"#utility.yul\":689:713   */\n      tag_46\n      jump\t// in\n    tag_45:\n        /* \"#utility.yul\":684:687   */\n      dup3\n        /* \"#utility.yul\":677:714   */\n      mstore\n        /* \"#utility.yul\":602:720   */\n      pop\n      pop\n      jump\t// out\n        /* \"#utility.yul\":726:948   */\n    tag_11:\n        /* \"#utility.yul\":819:823   */\n      0x00\n        /* \"#utility.yul\":857:859   */\n      0x20\n        /* \"#utility.yul\":846:855   */\n      dup3\n        /* \"#utility.yul\":842:860   */\n      add\n        /* \"#utility.yul\":834:860   */\n      swap1\n      pop\n        /* \"#utility.yul\":870:941   */\n      tag_48\n        /* \"#utility.yul\":938:939   */\n      0x00\n        /* \"#utility.yul\":927:936   */\n      dup4\n        /* \"#utility.yul\":923:940   */\n      add\n        /* \"#utility.yul\":914:920   */\n      dup5\n        /* \"#utility.yul\":870:941   */\n      tag_43\n      jump\t// in\n    tag_48:\n        /* \"#utility.yul\":726:948   */\n      swap3\n      swap2\n      pop\n      pop\n      jump\t// out\n        /* \"#utility.yul\":954:1372   */\n    tag_22:\n        /* \"#utility.yul\":1091:1095   */\n      0x00\n        /* \"#utility.yul\":1129:1131   */\n      0x60\n        /* \"#utility.yul\":1118:1127   */\n      dup3\n        /* \"#utility.yul\":1114:1132   */\n      add\n        /* \"#utility.yul\":1106:1132   */\n      swap1\n      pop\n        /* \"#utility.yul\":1142:1213   */\n      tag_50\n        /* \"#utility.yul\":1210:1211   */\n      0x00\n        /* \"#utility.yul\":1199:1208   */\n      dup4\n        /* \"#utility.yul\":1195:1212   */\n      add\n        /* \"#utility.yul\":1186:1192   */\n      dup7\n        /* \"#utility.yul\":1142:1213   */\n      tag_43\n      jump\t// in\n    tag_50:\n        /* \"#utility.yul\":1223:1289   */\n      tag_51\n        /* \"#utility.yul\":1285:1287   */\n      0x20\n        /* \"#utility.yul\":1274:1283   */\n      dup4\n        /* \"#utility.yul\":1270:1288   */\n      add\n        /* \"#utility.yul\":1261:1267   */\n      dup6\n        /* \"#utility.yul\":1223:1289   */\n      tag_39\n      jump\t// in\n    tag_51:\n        /* \"#utility.yul\":1299:1365   */\n      tag_52\n        /* \"#utility.yul\":1361:1363   */\n      0x40\n        /* \"#utility.yul\":1350:1359   */\n      dup4\n        /* \"#utility.yul\":1346:1364   */\n      add\n        /* \"#utility.yul\":1337:1343   */\n      dup5\n        /* \"#utility.yul\":1299:1365   */\n      tag_39\n      jump\t// in\n    tag_52:\n        /* \"#utility.yul\":954:1372   */\n      swap5\n      swap4\n      pop\n      pop\n      pop\n      pop\n      jump\t// out\n        /* \"#utility.yul\":1459:1549   */\n    tag_42:\n        /* \"#utility.yul\":1493:1500   */\n      0x00\n        /* \"#utility.yul\":1536:1541   */\n      dup2\n        /* \"#utility.yul\":1529:1542   */\n      iszero\n        /* \"#utility.yul\":1522:1543   */\n      iszero\n        /* \"#utility.yul\":1511:1543   */\n      swap1\n      pop\n        /* \"#utility.yul\":1459:1549   */\n      swap2\n      swap1\n      pop\n      jump\t// out\n        /* \"#utility.yul\":1555:1632   */\n    tag_46:\n        /* \"#utility.yul\":1592:1599   */\n      0x00\n        /* \"#utility.yul\":1621:1626   */\n      dup2\n        /* \"#utility.yul\":1610:1626   */\n      swap1\n      pop\n        /* \"#utility.yul\":1555:1632   */\n      swap2\n      swap1\n      pop\n      jump\t// out\n        /* \"#utility.yul\":1761:1878   */\n    tag_37:\n        /* \"#utility.yul\":1870:1871   */\n      0x00\n        /* \"#utility.yul\":1867:1868   */\n      dup1\n        /* \"#utility.yul\":1860:1872   */\n      revert\n        /* \"#utility.yul\":1884:2006   */\n    tag_33:\n        /* \"#utility.yul\":1957:1981   */\n      tag_61\n        /* \"#utility.yul\":1975:1980   */\n      dup2\n        /* \"#utility.yul\":1957:1981   */\n      tag_46\n      jump\t// in\n    tag_61:\n        /* \"#utility.yul\":1950:1955   */\n      dup2\n        /* \"#utility.yul\":1947:1982   */\n      eq\n        /* \"#utility.yul\":1937:2000   */\n      tag_62\n      jumpi\n        /* \"#utility.yul\":1996:1997   */\n      0x00\n        /* \"#utility.yul\":1993:1994   */\n      dup1\n        /* \"#utility.yul\":1986:1998   */\n      revert\n        /* \"#utility.yul\":1937:2000   */\n    tag_62:\n        /* \"#utility.yul\":1884:2006   */\n      pop\n      jump\t// out\n\n    auxdata: 0xa2646970667358221220cdeadfb5815a3499172752eef9b1171edec13a82958463b89b9e7c1af3e276c264736f6c63430008070033\n}\n",
				"bytecode": {
					"linkReferences": {},
					"object": "60806040526003600055600760015534801561001a57600080fd5b506102398061002a6000396000f3fe608060405234801561001057600080fd5b50600436106100575760003560e01c80630c55699c1461005c5780633fb5c1cb1461007a5780634018d9aa14610096578063448f30a3146100b2578063bf205ebc146100d2575b600080fd5b6100646100f0565b604051610071919061017f565b60405180910390f35b610094600480360381019061008f9190610134565b6100f6565b005b6100b060048036038101906100ab9190610134565b610100565b005b6100ba610103565b6040516100c99392919061019a565b60405180910390f35b6100da610119565b6040516100e7919061017f565b60405180910390f35b60005481565b8060018190555050565b50565b6000806000600692506000915060019050909192565b60015481565b60008135905061012e816101ec565b92915050565b60006020828403121561014a576101496101e7565b5b60006101588482850161011f565b91505092915050565b61016a816101d1565b82525050565b610179816101dd565b82525050565b60006020820190506101946000830184610170565b92915050565b60006060820190506101af6000830186610170565b6101bc6020830185610161565b6101c96040830184610161565b949350505050565b60008115159050919050565b6000819050919050565b600080fd5b6101f5816101dd565b811461020057600080fd5b5056fea2646970667358221220cdeadfb5815a3499172752eef9b1171edec13a82958463b89b9e7c1af3e276c264736f6c63430008070033",
					"opcodes": "PUSH1 0x80 PUSH1 0x40 MSTORE PUSH1 0x3 PUSH1 0x0 SSTORE PUSH1 0x7 PUSH1 0x1 SSTORE CALLVALUE DUP1 ISZERO PUSH2 0x1A JUMPI PUSH1 0x0 DUP1 REVERT JUMPDEST POP PUSH2 0x239 DUP1 PUSH2 0x2A PUSH1 0x0 CODECOPY PUSH1 0x0 RETURN INVALID PUSH1 0x80 PUSH1 0x40 MSTORE CALLVALUE DUP1 ISZERO PUSH2 0x10 JUMPI PUSH1 0x0 DUP1 REVERT JUMPDEST POP PUSH1 0x4 CALLDATASIZE LT PUSH2 0x57 JUMPI PUSH1 0x0 CALLDATALOAD PUSH1 0xE0 SHR DUP1 PUSH4 0xC55699C EQ PUSH2 0x5C JUMPI DUP1 PUSH4 0x3FB5C1CB EQ PUSH2 0x7A JUMPI DUP1 PUSH4 0x4018D9AA EQ PUSH2 0x96 JUMPI DUP1 PUSH4 0x448F30A3 EQ PUSH2 0xB2 JUMPI DUP1 PUSH4 0xBF205EBC EQ PUSH2 0xD2 JUMPI JUMPDEST PUSH1 0x0 DUP1 REVERT JUMPDEST PUSH2 0x64 PUSH2 0xF0 JUMP JUMPDEST PUSH1 0x40 MLOAD PUSH2 0x71 SWAP2 SWAP1 PUSH2 0x17F JUMP JUMPDEST PUSH1 0x40 MLOAD DUP1 SWAP2 SUB SWAP1 RETURN JUMPDEST PUSH2 0x94 PUSH1 0x4 DUP1 CALLDATASIZE SUB DUP2 ADD SWAP1 PUSH2 0x8F SWAP2 SWAP1 PUSH2 0x134 JUMP JUMPDEST PUSH2 0xF6 JUMP JUMPDEST STOP JUMPDEST PUSH2 0xB0 PUSH1 0x4 DUP1 CALLDATASIZE SUB DUP2 ADD SWAP1 PUSH2 0xAB SWAP2 SWAP1 PUSH2 0x134 JUMP JUMPDEST PUSH2 0x100 JUMP JUMPDEST STOP JUMPDEST PUSH2 0xBA PUSH2 0x103 JUMP JUMPDEST PUSH1 0x40 MLOAD PUSH2 0xC9 SWAP4 SWAP3 SWAP2 SWAP1 PUSH2 0x19A JUMP JUMPDEST PUSH1 0x40 MLOAD DUP1 SWAP2 SUB SWAP1 RETURN JUMPDEST PUSH2 0xDA PUSH2 0x119 JUMP JUMPDEST PUSH1 0x40 MLOAD PUSH2 0xE7 SWAP2 SWAP1 PUSH2 0x17F JUMP JUMPDEST PUSH1 0x40 MLOAD DUP1 SWAP2 SUB SWAP1 RETURN JUMPDEST PUSH1 0x0 SLOAD DUP2 JUMP JUMPDEST DUP1 PUSH1 0x1 DUP2 SWAP1 SSTORE POP POP JUMP JUMPDEST POP JUMP JUMPDEST PUSH1 0x0 DUP1 PUSH1 0x0 PUSH1 0x6 SWAP3 POP PUSH1 0x0 SWAP2 POP PUSH1 0x1 SWAP1 POP SWAP1 SWAP2 SWAP3 JUMP JUMPDEST PUSH1 0x1 SLOAD DUP2 JUMP JUMPDEST PUSH1 0x0 DUP2 CALLDATALOAD SWAP1 POP PUSH2 0x12E DUP2 PUSH2 0x1EC JUMP JUMPDEST SWAP3 SWAP2 POP POP JUMP JUMPDEST PUSH1 0x0 PUSH1 0x20 DUP3 DUP5 SUB SLT ISZERO PUSH2 0x14A JUMPI PUSH2 0x149 PUSH2 0x1E7 JUMP JUMPDEST JUMPDEST PUSH1 0x0 PUSH2 0x158 DUP5 DUP3 DUP6 ADD PUSH2 0x11F JUMP JUMPDEST SWAP2 POP POP SWAP3 SWAP2 POP POP JUMP JUMPDEST PUSH2 0x16A DUP2 PUSH2 0x1D1 JUMP JUMPDEST DUP3 MSTORE POP POP JUMP JUMPDEST PUSH2 0x179 DUP2 PUSH2 0x1DD JUMP JUMPDEST DUP3 MSTORE POP POP JUMP JUMPDEST PUSH1 0x0 PUSH1 0x20 DUP3 ADD SWAP1 POP PUSH2 0x194 PUSH1 0x0 DUP4 ADD DUP5 PUSH2 0x170 JUMP JUMPDEST SWAP3 SWAP2 POP POP JUMP JUMPDEST PUSH1 0x0 PUSH1 0x60 DUP3 ADD SWAP1 POP PUSH2 0x1AF PUSH1 0x0 DUP4 ADD DUP7 PUSH2 0x170 JUMP JUMPDEST PUSH2 0x1BC PUSH1 0x20 DUP4 ADD DUP6 PUSH2 0x161 JUMP JUMPDEST PUSH2 0x1C9 PUSH1 0x40 DUP4 ADD DUP5 PUSH2 0x161 JUMP JUMPDEST SWAP5 SWAP4 POP POP POP POP JUMP JUMPDEST PUSH1 0x0 DUP2 ISZERO ISZERO SWAP1 POP SWAP2 SWAP1 POP JUMP JUMPDEST PUSH1 0x0 DUP2 SWAP1 POP SWAP2 SWAP1 POP JUMP JUMPDEST PUSH1 0x0 DUP1 REVERT JUMPDEST PUSH2 0x1F5 DUP2 PUSH2 0x1DD JUMP JUMPDEST DUP2 EQ PUSH2 0x200 JUMPI PUSH1 0x0 DUP1 REVERT JUMPDEST POP JUMP INVALID LOG2 PUSH5 0x6970667358 0x22 SLT KECCAK256 0xCD 0xEA 0xDF 0xB5 DUP2 GAS CALLVALUE SWAP10 OR 0x27 MSTORE 0xEE 0xF9 0xB1 OR 0x1E 0xDE 0xC1 GASPRICE DUP3 SWAP6 DUP5 PUSH4 0xB89B9E7C BYTE RETURN 0xE2 PUSH23 0xC264736F6C634300080700330000000000000000000000 "
				},
				"gasEstimates": {
					"creation": {
						"codeDepositCost": "113800",
						"executionCost": "44371",
						"totalCost": "158171"
					},
					"external": {
						"luckyNumber()": "2495",
						"nothing()": "infinite",
						"setNumber(uint256)": "22520",
						"setX(uint256)": "428",
						"x()": "2407"
					}
				},
				"methodIdentifiers": {
					"luckyNumber()": "bf205ebc",
					"nothing()": "448f30a3",
					"setNumber(uint256)": "3fb5c1cb",
					"setX(uint256)": "4018d9aa",
					"x()": "0c55699c"
				}
			},
			"storageLayout": {
				"storage": [
					{
						"astId": 4,
						"contract": "contracts/Functions.sol:Functions",
						"label": "x",
						"offset": 0,
						"slot": "0",
						"type": "t_uint256"
					},
					{
						"astId": 7,
						"contract": "contracts/Functions.sol:Functions",
						"label": "luckyNumber",
						"offset": 0,
						"slot": "1",
						"type": "t_uint256"
					}
				],
				"types": {
					"t_uint256": {
						"encoding": "inplace",
						"label": "uint256",
						"numberOfBytes": "32"
					}
				}
			},
			"userdoc": {
				"kind": "user",
				"methods": {},
				"version": 1
			}
		}
	}
}