{
	"contracts/Mapping.sol": {
		"NestedMapping": {
			"abi": [
				{
					"inputs": [
						{
							"internalType": "address",
							"name": "",
							"type": "address"
						},
						{
							"internalType": "address",
							"name": "",
							"type": "address"
						}
					],
					"name": "debts",
					"outputs": [
						{
							"internalType": "uint256",
							"name": "",
							"type": "uint256"
						}
					],
					"stateMutability": "view",
					"type": "function"
				},
				{
					"inputs": [
						{
							"internalType": "address",
							"name": "_berrower",
							"type": "address"
						},
						{
							"internalType": "uint256",
							"name": "_amount",
							"type": "uint256"
						}
					],
					"name": "inDebt",
					"outputs": [],
					"stateMutability": "nonpayable",
					"type": "function"
				},
				{
					"inputs": [
						{
							"internalType": "address",
							"name": "_berrower",
							"type": "address"
						},
						{
							"internalType": "uint256",
							"name": "_amount",
							"type": "uint256"
						}
					],
					"name": "incDebt",
					"outputs": [],
					"stateMutability": "nonpayable",
					"type": "function"
				}
			],
			"devdoc": {
				"kind": "dev",
				"methods": {},
				"version": 1
			},
			"evm": {
				"assembly": "    /* \"contracts/Mapping.sol\":680:1014  contract NestedMapping{... */\n  mstore(0x40, 0x80)\n  callvalue\n  dup1\n  iszero\n  tag_1\n  jumpi\n  0x00\n  dup1\n  revert\ntag_1:\n  pop\n  dataSize(sub_0)\n  dup1\n  dataOffset(sub_0)\n  0x00\n  codecopy\n  0x00\n  return\nstop\n\nsub_0: assembly {\n        /* \"contracts/Mapping.sol\":680:1014  contract NestedMapping{... */\n      mstore(0x40, 0x80)\n      callvalue\n      dup1\n      iszero\n      tag_1\n      jumpi\n      0x00\n      dup1\n      revert\n    tag_1:\n      pop\n      jumpi(tag_2, lt(calldatasize, 0x04))\n      shr(0xe0, calldataload(0x00))\n      dup1\n      0x4ac1c33d\n      eq\n      tag_3\n      jumpi\n      dup1\n      0x8d1e48da\n      eq\n      tag_4\n      jumpi\n      dup1\n      0xd877fe6d\n      eq\n      tag_5\n      jumpi\n    tag_2:\n      0x00\n      dup1\n      revert\n        /* \"contracts/Mapping.sol\":708:768  mapping(address => mapping(address => uint256)) public debts */\n    tag_3:\n      tag_6\n      0x04\n      dup1\n      calldatasize\n      sub\n      dup2\n      add\n      swap1\n      tag_7\n      swap2\n      swap1\n      tag_8\n      jump\t// in\n    tag_7:\n      tag_9\n      jump\t// in\n    tag_6:\n      mload(0x40)\n      tag_10\n      swap2\n      swap1\n      tag_11\n      jump\t// in\n    tag_10:\n      mload(0x40)\n      dup1\n      swap2\n      sub\n      swap1\n      return\n        /* \"contracts/Mapping.sol\":775:891  function incDebt(address _berrower, uint256 _amount) public {... */\n    tag_4:\n      tag_12\n      0x04\n      dup1\n      calldatasize\n      sub\n      dup2\n      add\n      swap1\n      tag_13\n      swap2\n      swap1\n      tag_14\n      jump\t// in\n    tag_13:\n      tag_15\n      jump\t// in\n    tag_12:\n      stop\n        /* \"contracts/Mapping.sol\":897:1012  function inDebt(address _berrower, uint256 _amount) public {... */\n    tag_5:\n      tag_16\n      0x04\n      dup1\n      calldatasize\n      sub\n      dup2\n      add\n      swap1\n      tag_17\n      swap2\n      swap1\n      tag_14\n      jump\t// in\n    tag_17:\n      tag_18\n      jump\t// in\n    tag_16:\n      stop\n        /* \"contracts/Mapping.sol\":708:768  mapping(address => mapping(address => uint256)) public debts */\n    tag_9:\n      mstore(0x20, 0x00)\n      dup2\n      0x00\n      mstore\n      mstore(0x20, keccak256(0x00, 0x40))\n      dup1\n      0x00\n      mstore\n      keccak256(0x00, 0x40)\n      0x00\n      swap2\n      pop\n      swap2\n      pop\n      pop\n      sload\n      dup2\n      jump\t// out\n        /* \"contracts/Mapping.sol\":775:891  function incDebt(address _berrower, uint256 _amount) public {... */\n    tag_15:\n        /* \"contracts/Mapping.sol\":877:884  _amount */\n      dup1\n        /* \"contracts/Mapping.sol\":845:850  debts */\n      0x00\n        /* \"contracts/Mapping.sol\":845:862  debts[msg.sender] */\n      dup1\n        /* \"contracts/Mapping.sol\":851:861  msg.sender */\n      caller\n        /* \"contracts/Mapping.sol\":845:862  debts[msg.sender] */\n      0xffffffffffffffffffffffffffffffffffffffff\n      and\n      0xffffffffffffffffffffffffffffffffffffffff\n      and\n      dup2\n      mstore\n      0x20\n      add\n      swap1\n      dup2\n      mstore\n      0x20\n      add\n      0x00\n      keccak256\n        /* \"contracts/Mapping.sol\":845:873  debts[msg.sender][_berrower] */\n      0x00\n        /* \"contracts/Mapping.sol\":863:872  _berrower */\n      dup5\n        /* \"contracts/Mapping.sol\":845:873  debts[msg.sender][_berrower] */\n      0xffffffffffffffffffffffffffffffffffffffff\n      and\n      0xffffffffffffffffffffffffffffffffffffffff\n      and\n      dup2\n      mstore\n      0x20\n      add\n      swap1\n      dup2\n      mstore\n      0x20\n      add\n      0x00\n      keccak256\n      0x00\n        /* \"contracts/Mapping.sol\":845:884  debts[msg.sender][_berrower] += _amount */\n      dup3\n      dup3\n      sload\n      tag_20\n      swap2\n      swap1\n      tag_21\n      jump\t// in\n    tag_20:\n      swap3\n      pop\n      pop\n      dup2\n      swap1\n      sstore\n      pop\n        /* \"contracts/Mapping.sol\":775:891  function incDebt(address _berrower, uint256 _amount) public {... */\n      pop\n      pop\n      jump\t// out\n        /* \"contracts/Mapping.sol\":897:1012  function inDebt(address _berrower, uint256 _amount) public {... */\n    tag_18:\n        /* \"contracts/Mapping.sol\":998:1005  _amount */\n      dup1\n        /* \"contracts/Mapping.sol\":966:971  debts */\n      0x00\n        /* \"contracts/Mapping.sol\":966:983  debts[msg.sender] */\n      dup1\n        /* \"contracts/Mapping.sol\":972:982  msg.sender */\n      caller\n        /* \"contracts/Mapping.sol\":966:983  debts[msg.sender] */\n      0xffffffffffffffffffffffffffffffffffffffff\n      and\n      0xffffffffffffffffffffffffffffffffffffffff\n      and\n      dup2\n      mstore\n      0x20\n      add\n      swap1\n      dup2\n      mstore\n      0x20\n      add\n      0x00\n      keccak256\n        /* \"contracts/Mapping.sol\":966:994  debts[msg.sender][_berrower] */\n      0x00\n        /* \"contracts/Mapping.sol\":984:993  _berrower */\n      dup5\n        /* \"contracts/Mapping.sol\":966:994  debts[msg.sender][_berrower] */\n      0xffffffffffffffffffffffffffffffffffffffff\n      and\n      0xffffffffffffffffffffffffffffffffffffffff\n      and\n      dup2\n      mstore\n      0x20\n      add\n      swap1\n      dup2\n      mstore\n      0x20\n      add\n      0x00\n      keccak256\n      0x00\n        /* \"contracts/Mapping.sol\":966:1005  debts[msg.sender][_berrower] += _amount */\n      dup3\n      dup3\n      sload\n      tag_23\n      swap2\n      swap1\n      tag_21\n      jump\t// in\n    tag_23:\n      swap3\n      pop\n      pop\n      dup2\n      swap1\n      sstore\n      pop\n        /* \"contracts/Mapping.sol\":897:1012  function inDebt(address _berrower, uint256 _amount) public {... */\n      pop\n      pop\n      jump\t// out\n        /* \"#utility.yul\":7:146   */\n    tag_25:\n        /* \"#utility.yul\":53:58   */\n      0x00\n        /* \"#utility.yul\":91:97   */\n      dup2\n        /* \"#utility.yul\":78:98   */\n      calldataload\n        /* \"#utility.yul\":69:98   */\n      swap1\n      pop\n        /* \"#utility.yul\":107:140   */\n      tag_27\n        /* \"#utility.yul\":134:139   */\n      dup2\n        /* \"#utility.yul\":107:140   */\n      tag_28\n      jump\t// in\n    tag_27:\n        /* \"#utility.yul\":7:146   */\n      swap3\n      swap2\n      pop\n      pop\n      jump\t// out\n        /* \"#utility.yul\":152:291   */\n    tag_29:\n        /* \"#utility.yul\":198:203   */\n      0x00\n        /* \"#utility.yul\":236:242   */\n      dup2\n        /* \"#utility.yul\":223:243   */\n      calldataload\n        /* \"#utility.yul\":214:243   */\n      swap1\n      pop\n        /* \"#utility.yul\":252:285   */\n      tag_31\n        /* \"#utility.yul\":279:284   */\n      dup2\n        /* \"#utility.yul\":252:285   */\n      tag_32\n      jump\t// in\n    tag_31:\n        /* \"#utility.yul\":152:291   */\n      swap3\n      swap2\n      pop\n      pop\n      jump\t// out\n        /* \"#utility.yul\":297:771   */\n    tag_8:\n        /* \"#utility.yul\":365:371   */\n      0x00\n        /* \"#utility.yul\":373:379   */\n      dup1\n        /* \"#utility.yul\":422:424   */\n      0x40\n        /* \"#utility.yul\":410:419   */\n      dup4\n        /* \"#utility.yul\":401:408   */\n      dup6\n        /* \"#utility.yul\":397:420   */\n      sub\n        /* \"#utility.yul\":393:425   */\n      slt\n        /* \"#utility.yul\":390:509   */\n      iszero\n      tag_34\n      jumpi\n        /* \"#utility.yul\":428:507   */\n      tag_35\n      tag_36\n      jump\t// in\n    tag_35:\n        /* \"#utility.yul\":390:509   */\n    tag_34:\n        /* \"#utility.yul\":548:549   */\n      0x00\n        /* \"#utility.yul\":573:626   */\n      tag_37\n        /* \"#utility.yul\":618:625   */\n      dup6\n        /* \"#utility.yul\":609:615   */\n      dup3\n        /* \"#utility.yul\":598:607   */\n      dup7\n        /* \"#utility.yul\":594:616   */\n      add\n        /* \"#utility.yul\":573:626   */\n      tag_25\n      jump\t// in\n    tag_37:\n        /* \"#utility.yul\":563:626   */\n      swap3\n      pop\n        /* \"#utility.yul\":519:636   */\n      pop\n        /* \"#utility.yul\":675:677   */\n      0x20\n        /* \"#utility.yul\":701:754   */\n      tag_38\n        /* \"#utility.yul\":746:753   */\n      dup6\n        /* \"#utility.yul\":737:743   */\n      dup3\n        /* \"#utility.yul\":726:735   */\n      dup7\n        /* \"#utility.yul\":722:744   */\n      add\n        /* \"#utility.yul\":701:754   */\n      tag_25\n      jump\t// in\n    tag_38:\n        /* \"#utility.yul\":691:754   */\n      swap2\n      pop\n        /* \"#utility.yul\":646:764   */\n      pop\n        /* \"#utility.yul\":297:771   */\n      swap3\n      pop\n      swap3\n      swap1\n      pop\n      jump\t// out\n        /* \"#utility.yul\":777:1251   */\n    tag_14:\n        /* \"#utility.yul\":845:851   */\n      0x00\n        /* \"#utility.yul\":853:859   */\n      dup1\n        /* \"#utility.yul\":902:904   */\n      0x40\n        /* \"#utility.yul\":890:899   */\n      dup4\n        /* \"#utility.yul\":881:888   */\n      dup6\n        /* \"#utility.yul\":877:900   */\n      sub\n        /* \"#utility.yul\":873:905   */\n      slt\n        /* \"#utility.yul\":870:989   */\n      iszero\n      tag_40\n      jumpi\n        /* \"#utility.yul\":908:987   */\n      tag_41\n      tag_36\n      jump\t// in\n    tag_41:\n        /* \"#utility.yul\":870:989   */\n    tag_40:\n        /* \"#utility.yul\":1028:1029   */\n      0x00\n        /* \"#utility.yul\":1053:1106   */\n      tag_42\n        /* \"#utility.yul\":1098:1105   */\n      dup6\n        /* \"#utility.yul\":1089:1095   */\n      dup3\n        /* \"#utility.yul\":1078:1087   */\n      dup7\n        /* \"#utility.yul\":1074:1096   */\n      add\n        /* \"#utility.yul\":1053:1106   */\n      tag_25\n      jump\t// in\n    tag_42:\n        /* \"#utility.yul\":1043:1106   */\n      swap3\n      pop\n        /* \"#utility.yul\":999:1116   */\n      pop\n        /* \"#utility.yul\":1155:1157   */\n      0x20\n        /* \"#utility.yul\":1181:1234   */\n      tag_43\n        /* \"#utility.yul\":1226:1233   */\n      dup6\n        /* \"#utility.yul\":1217:1223   */\n      dup3\n        /* \"#utility.yul\":1206:1215   */\n      dup7\n        /* \"#utility.yul\":1202:1224   */\n      add\n        /* \"#utility.yul\":1181:1234   */\n      tag_29\n      jump\t// in\n    tag_43:\n        /* \"#utility.yul\":1171:1234   */\n      swap2\n      pop\n        /* \"#utility.yul\":1126:1244   */\n      pop\n        /* \"#utility.yul\":777:1251   */\n      swap3\n      pop\n      swap3\n      swap1\n      pop\n      jump\t// out\n        /* \"#utility.yul\":1257:1375   */\n    tag_44:\n        /* \"#utility.yul\":1344:1368   */\n      tag_46\n        /* \"#utility.yul\":1362:1367   */\n      dup2\n        /* \"#utility.yul\":1344:1368   */\n      tag_47\n      jump\t// in\n    tag_46:\n        /* \"#utility.yul\":1339:1342   */\n      dup3\n        /* \"#utility.yul\":1332:1369   */\n      mstore\n        /* \"#utility.yul\":1257:1375   */\n      pop\n      pop\n      jump\t// out\n        /* \"#utility.yul\":1381:1603   */\n    tag_11:\n        /* \"#utility.yul\":1474:1478   */\n      0x00\n        /* \"#utility.yul\":1512:1514   */\n      0x20\n        /* \"#utility.yul\":1501:1510   */\n      dup3\n        /* \"#utility.yul\":1497:1515   */\n      add\n        /* \"#utility.yul\":1489:1515   */\n      swap1\n      pop\n        /* \"#utility.yul\":1525:1596   */\n      tag_49\n        /* \"#utility.yul\":1593:1594   */\n      0x00\n        /* \"#utility.yul\":1582:1591   */\n      dup4\n        /* \"#utility.yul\":1578:1595   */\n      add\n        /* \"#utility.yul\":1569:1575   */\n      dup5\n        /* \"#utility.yul\":1525:1596   */\n      tag_44\n      jump\t// in\n    tag_49:\n        /* \"#utility.yul\":1381:1603   */\n      swap3\n      swap2\n      pop\n      pop\n      jump\t// out\n        /* \"#utility.yul\":1690:1995   */\n    tag_21:\n        /* \"#utility.yul\":1730:1733   */\n      0x00\n        /* \"#utility.yul\":1749:1769   */\n      tag_53\n        /* \"#utility.yul\":1767:1768   */\n      dup3\n        /* \"#utility.yul\":1749:1769   */\n      tag_47\n      jump\t// in\n    tag_53:\n        /* \"#utility.yul\":1744:1769   */\n      swap2\n      pop\n        /* \"#utility.yul\":1783:1803   */\n      tag_54\n        /* \"#utility.yul\":1801:1802   */\n      dup4\n        /* \"#utility.yul\":1783:1803   */\n      tag_47\n      jump\t// in\n    tag_54:\n        /* \"#utility.yul\":1778:1803   */\n      swap3\n      pop\n        /* \"#utility.yul\":1937:1938   */\n      dup3\n        /* \"#utility.yul\":1869:1935   */\n      0xffffffffffffffffffffffffffffffffffffffffffffffffffffffffffffffff\n        /* \"#utility.yul\":1865:1939   */\n      sub\n        /* \"#utility.yul\":1862:1863   */\n      dup3\n        /* \"#utility.yul\":1859:1940   */\n      gt\n        /* \"#utility.yul\":1856:1963   */\n      iszero\n      tag_55\n      jumpi\n        /* \"#utility.yul\":1943:1961   */\n      tag_56\n      tag_57\n      jump\t// in\n    tag_56:\n        /* \"#utility.yul\":1856:1963   */\n    tag_55:\n        /* \"#utility.yul\":1987:1988   */\n      dup3\n        /* \"#utility.yul\":1984:1985   */\n      dup3\n        /* \"#utility.yul\":1980:1989   */\n      add\n        /* \"#utility.yul\":1973:1989   */\n      swap1\n      pop\n        /* \"#utility.yul\":1690:1995   */\n      swap3\n      swap2\n      pop\n      pop\n      jump\t// out\n        /* \"#utility.yul\":2001:2097   */\n    tag_58:\n        /* \"#utility.yul\":2038:2045   */\n      0x00\n        /* \"#utility.yul\":2067:2091   */\n      tag_60\n        /* \"#utility.yul\":2085:2090   */\n      dup3\n        /* \"#utility.yul\":2067:2091   */\n      tag_61\n      jump\t// in\n    tag_60:\n        /* \"#utility.yul\":2056:2091   */\n      swap1\n      pop\n        /* \"#utility.yul\":2001:2097   */\n      swap2\n      swap1\n      pop\n      jump\t// out\n        /* \"#utility.yul\":2103:2229   */\n    tag_61:\n        /* \"#utility.yul\":2140:2147   */\n      0x00\n        /* \"#utility.yul\":2180:2222   */\n      0xffffffffffffffffffffffffffffffffffffffff\n        /* \"#utility.yul\":2173:2178   */\n      dup3\n        /* \"#utility.yul\":2169:2223   */\n      and\n        /* \"#utility.yul\":2158:2223   */\n      swap1\n      pop\n        /* \"#utility.yul\":2103:2229   */\n      swap2\n      swap1\n      pop\n      jump\t// out\n        /* \"#utility.yul\":2235:2312   */\n    tag_47:\n        /* \"#utility.yul\":2272:2279   */\n      0x00\n        /* \"#utility.yul\":2301:2306   */\n      dup2\n        /* \"#utility.yul\":2290:2306   */\n      swap1\n      pop\n        /* \"#utility.yul\":2235:2312   */\n      swap2\n      swap1\n      pop\n      jump\t// out\n        /* \"#utility.yul\":2318:2498   */\n    tag_57:\n        /* \"#utility.yul\":2366:2443   */\n      0x4e487b7100000000000000000000000000000000000000000000000000000000\n        /* \"#utility.yul\":2363:2364   */\n      0x00\n        /* \"#utility.yul\":2356:2444   */\n      mstore\n        /* \"#utility.yul\":2463:2467   */\n      0x11\n        /* \"#utility.yul\":2460:2461   */\n      0x04\n        /* \"#utility.yul\":2453:2468   */\n      mstore\n        /* \"#utility.yul\":2487:2491   */\n      0x24\n        /* \"#utility.yul\":2484:2485   */\n      0x00\n        /* \"#utility.yul\":2477:2492   */\n      revert\n        /* \"#utility.yul\":2627:2744   */\n    tag_36:\n        /* \"#utility.yul\":2736:2737   */\n      0x00\n        /* \"#utility.yul\":2733:2734   */\n      dup1\n        /* \"#utility.yul\":2726:2738   */\n      revert\n        /* \"#utility.yul\":2750:2872   */\n    tag_28:\n        /* \"#utility.yul\":2823:2847   */\n      tag_69\n        /* \"#utility.yul\":2841:2846   */\n      dup2\n        /* \"#utility.yul\":2823:2847   */\n      tag_58\n      jump\t// in\n    tag_69:\n        /* \"#utility.yul\":2816:2821   */\n      dup2\n        /* \"#utility.yul\":2813:2848   */\n      eq\n        /* \"#utility.yul\":2803:2866   */\n      tag_70\n      jumpi\n        /* \"#utility.yul\":2862:2863   */\n      0x00\n        /* \"#utility.yul\":2859:2860   */\n      dup1\n        /* \"#utility.yul\":2852:2864   */\n      revert\n        /* \"#utility.yul\":2803:2866   */\n    tag_70:\n        /* \"#utility.yul\":2750:2872   */\n      pop\n      jump\t// out\n        /* \"#utility.yul\":2878:3000   */\n    tag_32:\n        /* \"#utility.yul\":2951:2975   */\n      tag_72\n        /* \"#utility.yul\":2969:2974   */\n      dup2\n        /* \"#utility.yul\":2951:2975   */\n      tag_47\n      jump\t// in\n    tag_72:\n        /* \"#utility.yul\":2944:2949   */\n      dup2\n        /* \"#utility.yul\":2941:2976   */\n      eq\n        /* \"#utility.yul\":2931:2994   */\n      tag_73\n      jumpi\n        /* \"#utility.yul\":2990:2991   */\n      0x00\n        /* \"#utility.yul\":2987:2988   */\n      dup1\n        /* \"#utility.yul\":2980:2992   */\n      revert\n        /* \"#utility.yul\":2931:2994   */\n    tag_73:\n        /* \"#utility.yul\":2878:3000   */\n      pop\n      jump\t// out\n\n    auxdata: 0xa2646970667358221220ace5e5c365a1f1d3706ae127b74319fb4f9ac2560b0797252ce0d590a30c23ce64736f6c63430008070033\n}\n",
				"bytecode": {
					"linkReferences": {},
					"object": "608060405234801561001057600080fd5b506103fd806100206000396000f3fe608060405234801561001057600080fd5b50600436106100415760003560e01c80634ac1c33d146100465780638d1e48da14610076578063d877fe6d14610092575b600080fd5b610060600480360381019061005b9190610229565b6100ae565b60405161006d91906102b8565b60405180910390f35b610090600480360381019061008b9190610269565b6100d3565b005b6100ac60048036038101906100a79190610269565b610169565b005b6000602052816000526040600020602052806000526040600020600091509150505481565b806000803373ffffffffffffffffffffffffffffffffffffffff1673ffffffffffffffffffffffffffffffffffffffff16815260200190815260200160002060008473ffffffffffffffffffffffffffffffffffffffff1673ffffffffffffffffffffffffffffffffffffffff168152602001908152602001600020600082825461015e91906102d3565b925050819055505050565b806000803373ffffffffffffffffffffffffffffffffffffffff1673ffffffffffffffffffffffffffffffffffffffff16815260200190815260200160002060008473ffffffffffffffffffffffffffffffffffffffff1673ffffffffffffffffffffffffffffffffffffffff16815260200190815260200160002060008282546101f491906102d3565b925050819055505050565b60008135905061020e81610399565b92915050565b600081359050610223816103b0565b92915050565b600080604083850312156102405761023f610394565b5b600061024e858286016101ff565b925050602061025f858286016101ff565b9150509250929050565b600080604083850312156102805761027f610394565b5b600061028e858286016101ff565b925050602061029f85828601610214565b9150509250929050565b6102b28161035b565b82525050565b60006020820190506102cd60008301846102a9565b92915050565b60006102de8261035b565b91506102e98361035b565b9250827fffffffffffffffffffffffffffffffffffffffffffffffffffffffffffffffff0382111561031e5761031d610365565b5b828201905092915050565b60006103348261033b565b9050919050565b600073ffffffffffffffffffffffffffffffffffffffff82169050919050565b6000819050919050565b7f4e487b7100000000000000000000000000000000000000000000000000000000600052601160045260246000fd5b600080fd5b6103a281610329565b81146103ad57600080fd5b50565b6103b98161035b565b81146103c457600080fd5b5056fea2646970667358221220ace5e5c365a1f1d3706ae127b74319fb4f9ac2560b0797252ce0d590a30c23ce64736f6c63430008070033",
					"opcodes": "PUSH1 0x80 PUSH1 0x40 MSTORE CALLVALUE DUP1 ISZERO PUSH2 0x10 JUMPI PUSH1 0x0 DUP1 REVERT JUMPDEST POP PUSH2 0x3FD DUP1 PUSH2 0x20 PUSH1 0x0 CODECOPY PUSH1 0x0 RETURN INVALID PUSH1 0x80 PUSH1 0x40 MSTORE CALLVALUE DUP1 ISZERO PUSH2 0x10 JUMPI PUSH1 0x0 DUP1 REVERT JUMPDEST POP PUSH1 0x4 CALLDATASIZE LT PUSH2 0x41 JUMPI PUSH1 0x0 CALLDATALOAD PUSH1 0xE0 SHR DUP1 PUSH4 0x4AC1C33D EQ PUSH2 0x46 JUMPI DUP1 PUSH4 0x8D1E48DA EQ PUSH2 0x76 JUMPI DUP1 PUSH4 0xD877FE6D EQ PUSH2 0x92 JUMPI JUMPDEST PUSH1 0x0 DUP1 REVERT JUMPDEST PUSH2 0x60 PUSH1 0x4 DUP1 CALLDATASIZE SUB DUP2 ADD SWAP1 PUSH2 0x5B SWAP2 SWAP1 PUSH2 0x229 JUMP JUMPDEST PUSH2 0xAE JUMP JUMPDEST PUSH1 0x40 MLOAD PUSH2 0x6D SWAP2 SWAP1 PUSH2 0x2B8 JUMP JUMPDEST PUSH1 0x40 MLOAD DUP1 SWAP2 SUB SWAP1 RETURN JUMPDEST PUSH2 0x90 PUSH1 0x4 DUP1 CALLDATASIZE SUB DUP2 ADD SWAP1 PUSH2 0x8B SWAP2 SWAP1 PUSH2 0x269 JUMP JUMPDEST PUSH2 0xD3 JUMP JUMPDEST STOP JUMPDEST PUSH2 0xAC PUSH1 0x4 DUP1 CALLDATASIZE SUB DUP2 ADD SWAP1 PUSH2 0xA7 SWAP2 SWAP1 PUSH2 0x269 JUMP JUMPDEST PUSH2 0x169 JUMP JUMPDEST STOP JUMPDEST PUSH1 0x0 PUSH1 0x20 MSTORE DUP2 PUSH1 0x0 MSTORE PUSH1 0x40 PUSH1 0x0 KECCAK256 PUSH1 0x20 MSTORE DUP1 PUSH1 0x0 MSTORE PUSH1 0x40 PUSH1 0x0 KECCAK256 PUSH1 0x0 SWAP2 POP SWAP2 POP POP SLOAD DUP2 JUMP JUMPDEST DUP1 PUSH1 0x0 DUP1 CALLER PUSH20 0xFFFFFFFFFFFFFFFFFFFFFFFFFFFFFFFFFFFFFFFF AND PUSH20 0xFFFFFFFFFFFFFFFFFFFFFFFFFFFFFFFFFFFFFFFF AND DUP2 MSTORE PUSH1 0x20 ADD SWAP1 DUP2 MSTORE PUSH1 0x20 ADD PUSH1 0x0 KECCAK256 PUSH1 0x0 DUP5 PUSH20 0xFFFFFFFFFFFFFFFFFFFFFFFFFFFFFFFFFFFFFFFF AND PUSH20 0xFFFFFFFFFFFFFFFFFFFFFFFFFFFFFFFFFFFFFFFF AND DUP2 MSTORE PUSH1 0x20 ADD SWAP1 DUP2 MSTORE PUSH1 0x20 ADD PUSH1 0x0 KECCAK256 PUSH1 0x0 DUP3 DUP3 SLOAD PUSH2 0x15E SWAP2 SWAP1 PUSH2 0x2D3 JUMP JUMPDEST SWAP3 POP POP DUP2 SWAP1 SSTORE POP POP POP JUMP JUMPDEST DUP1 PUSH1 0x0 DUP1 CALLER PUSH20 0xFFFFFFFFFFFFFFFFFFFFFFFFFFFFFFFFFFFFFFFF AND PUSH20 0xFFFFFFFFFFFFFFFFFFFFFFFFFFFFFFFFFFFFFFFF AND DUP2 MSTORE PUSH1 0x20 ADD SWAP1 DUP2 MSTORE PUSH1 0x20 ADD PUSH1 0x0 KECCAK256 PUSH1 0x0 DUP5 PUSH20 0xFFFFFFFFFFFFFFFFFFFFFFFFFFFFFFFFFFFFFFFF AND PUSH20 0xFFFFFFFFFFFFFFFFFFFFFFFFFFFFFFFFFFFFFFFF AND DUP2 MSTORE PUSH1 0x20 ADD SWAP1 DUP2 MSTORE PUSH1 0x20 ADD PUSH1 0x0 KECCAK256 PUSH1 0x0 DUP3 DUP3 SLOAD PUSH2 0x1F4 SWAP2 SWAP1 PUSH2 0x2D3 JUMP JUMPDEST SWAP3 POP POP DUP2 SWAP1 SSTORE POP POP POP JUMP JUMPDEST PUSH1 0x0 DUP2 CALLDATALOAD SWAP1 POP PUSH2 0x20E DUP2 PUSH2 0x399 JUMP JUMPDEST SWAP3 SWAP2 POP POP JUMP JUMPDEST PUSH1 0x0 DUP2 CALLDATALOAD SWAP1 POP PUSH2 0x223 DUP2 PUSH2 0x3B0 JUMP JUMPDEST SWAP3 SWAP2 POP POP JUMP JUMPDEST PUSH1 0x0 DUP1 PUSH1 0x40 DUP4 DUP6 SUB SLT ISZERO PUSH2 0x240 JUMPI PUSH2 0x23F PUSH2 0x394 JUMP JUMPDEST JUMPDEST PUSH1 0x0 PUSH2 0x24E DUP6 DUP3 DUP7 ADD PUSH2 0x1FF JUMP JUMPDEST SWAP3 POP POP PUSH1 0x20 PUSH2 0x25F DUP6 DUP3 DUP7 ADD PUSH2 0x1FF JUMP JUMPDEST SWAP2 POP POP SWAP3 POP SWAP3 SWAP1 POP JUMP JUMPDEST PUSH1 0x0 DUP1 PUSH1 0x40 DUP4 DUP6 SUB SLT ISZERO PUSH2 0x280 JUMPI PUSH2 0x27F PUSH2 0x394 JUMP JUMPDEST JUMPDEST PUSH1 0x0 PUSH2 0x28E DUP6 DUP3 DUP7 ADD PUSH2 0x1FF JUMP JUMPDEST SWAP3 POP POP PUSH1 0x20 PUSH2 0x29F DUP6 DUP3 DUP7 ADD PUSH2 0x214 JUMP JUMPDEST SWAP2 POP POP SWAP3 POP SWAP3 SWAP1 POP JUMP JUMPDEST PUSH2 0x2B2 DUP2 PUSH2 0x35B JUMP JUMPDEST DUP3 MSTORE POP POP JUMP JUMPDEST PUSH1 0x0 PUSH1 0x20 DUP3 ADD SWAP1 POP PUSH2 0x2CD PUSH1 0x0 DUP4 ADD DUP5 PUSH2 0x2A9 JUMP JUMPDEST SWAP3 SWAP2 POP POP JUMP JUMPDEST PUSH1 0x0 PUSH2 0x2DE DUP3 PUSH2 0x35B JUMP JUMPDEST SWAP2 POP PUSH2 0x2E9 DUP4 PUSH2 0x35B JUMP JUMPDEST SWAP3 POP DUP3 PUSH32 0xFFFFFFFFFFFFFFFFFFFFFFFFFFFFFFFFFFFFFFFFFFFFFFFFFFFFFFFFFFFFFFFF SUB DUP3 GT ISZERO PUSH2 0x31E JUMPI PUSH2 0x31D PUSH2 0x365 JUMP JUMPDEST JUMPDEST DUP3 DUP3 ADD SWAP1 POP SWAP3 SWAP2 POP POP JUMP JUMPDEST PUSH1 0x0 PUSH2 0x334 DUP3 PUSH2 0x33B JUMP JUMPDEST SWAP1 POP SWAP2 SWAP1 POP JUMP JUMPDEST PUSH1 0x0 PUSH20 0xFFFFFFFFFFFFFFFFFFFFFFFFFFFFFFFFFFFFFFFF DUP3 AND SWAP1 POP SWAP2 SWAP1 POP JUMP JUMPDEST PUSH1 0x0 DUP2 SWAP1 POP SWAP2 SWAP1 POP JUMP JUMPDEST PUSH32 0x4E487B7100000000000000000000000000000000000000000000000000000000 PUSH1 0x0 MSTORE PUSH1 0x11 PUSH1 0x4 MSTORE PUSH1 0x24 PUSH1 0x0 REVERT JUMPDEST PUSH1 0x0 DUP1 REVERT JUMPDEST PUSH2 0x3A2 DUP2 PUSH2 0x329 JUMP JUMPDEST DUP2 EQ PUSH2 0x3AD JUMPI PUSH1 0x0 DUP1 REVERT JUMPDEST POP JUMP JUMPDEST PUSH2 0x3B9 DUP2 PUSH2 0x35B JUMP JUMPDEST DUP2 EQ PUSH2 0x3C4 JUMPI PUSH1 0x0 DUP1 REVERT JUMPDEST POP JUMP INVALID LOG2 PUSH5 0x6970667358 0x22 SLT KECCAK256 0xAC 0xE5 0xE5 0xC3 PUSH6 0xA1F1D3706AE1 0x27 0xB7 NUMBER NOT 0xFB 0x4F SWAP11 0xC2 JUMP SIGNEXTEND SMOD SWAP8 0x25 0x2C 0xE0 0xD5 SWAP1 LOG3 0xC 0x23 0xCE PUSH5 0x736F6C6343 STOP ADDMOD SMOD STOP CALLER "
				},
				"gasEstimates": {
					"creation": {
						"codeDepositCost": "204200",
						"executionCost": "245",
						"totalCost": "204445"
					},
					"external": {
						"debts(address,address)": "infinite",
						"inDebt(address,uint256)": "infinite",
						"incDebt(address,uint256)": "infinite"
					}
				},
				"methodIdentifiers": {
					"debts(address,address)": "4ac1c33d",
					"inDebt(address,uint256)": "d877fe6d",
					"incDebt(address,uint256)": "8d1e48da"
				}
			},
			"storageLayout": {
				"storage": [
					{
						"astId": 80,
						"contract": "contracts/Mapping.sol:NestedMapping",
						"label": "debts",
						"offset": 0,
						"slot": "0",
						"type": "t_mapping(t_address,t_mapping(t_address,t_uint256))"
					}
				],
				"types": {
					"t_address": {
						"encoding": "inplace",
						"label": "address",
						"numberOfBytes": "20"
					},
					"t_mapping(t_address,t_mapping(t_address,t_uint256))": {
						"encoding": "mapping",
						"key": "t_address",
						"label": "mapping(address => mapping(address => uint256))",
						"numberOfBytes": "32",
						"value": "t_mapping(t_address,t_uint256)"
					},
					"t_mapping(t_address,t_uint256)": {
						"encoding": "mapping",
						"key": "t_address",
						"label": "mapping(address => uint256)",
						"numberOfBytes": "32",
						"value": "t_uint256"
					},
					"t_uint256": {
						"encoding": "inplace",
						"label": "uint256",
						"numberOfBytes": "32"
					}
				}
			},
			"userdoc": {
				"kind": "user",
				"methods": {},
				"version": 1
			}
		}
	}
}