{
	"contracts/Functions.sol": {
		"Functions": {
			"abi": [
				{
					"inputs": [
						{
							"internalType": "uint256",
							"name": "y",
							"type": "uint256"
						}
					],
					"name": "addNumber",
					"outputs": [
						{
							"internalType": "uint256",
							"name": "",
							"type": "uint256"
						}
					],
					"stateMutability": "view",
					"type": "function"
				},
				{
					"inputs": [],
					"name": "nothing",
					"outputs": [
						{
							"internalType": "uint256",
							"name": "x",
							"type": "uint256"
						},
						{
							"internalType": "bool",
							"name": "y",
							"type": "bool"
						},
						{
							"internalType": "bool",
							"name": "z",
							"type": "bool"
						}
					],
					"stateMutability": "pure",
					"type": "function"
				},
				{
					"inputs": [
						{
							"internalType": "uint256",
							"name": "newNumber",
							"type": "uint256"
						}
					],
					"name": "setNumber",
					"outputs": [],
					"stateMutability": "nonpayable",
					"type": "function"
				},
				{
					"inputs": [],
					"name": "showNumber",
					"outputs": [
						{
							"internalType": "uint256",
							"name": "",
							"type": "uint256"
						}
					],
					"stateMutability": "view",
					"type": "function"
				},
				{
					"inputs": [],
					"name": "x",
					"outputs": [
						{
							"internalType": "uint256",
							"name": "",
							"type": "uint256"
						}
					],
					"stateMutability": "view",
					"type": "function"
				}
			],
			"devdoc": {
				"kind": "dev",
				"methods": {},
				"version": 1
			},
			"evm": {
				"assembly": "    /* \"contracts/Functions.sol\":64:708  contract Functions {... */\n  mstore(0x40, 0x80)\n    /* \"contracts/Functions.sol\":106:107  3 */\n  0x03\n    /* \"contracts/Functions.sol\":90:107  uint public x = 3 */\n  0x00\n  sstore\n    /* \"contracts/Functions.sol\":214:215  7 */\n  0x07\n    /* \"contracts/Functions.sol\":195:215  uint luckyNumber = 7 */\n  0x01\n  sstore\n    /* \"contracts/Functions.sol\":64:708  contract Functions {... */\n  callvalue\n  dup1\n  iszero\n  tag_1\n  jumpi\n  0x00\n  dup1\n  revert\ntag_1:\n  pop\n  dataSize(sub_0)\n  dup1\n  dataOffset(sub_0)\n  0x00\n  codecopy\n  0x00\n  return\nstop\n\nsub_0: assembly {\n        /* \"contracts/Functions.sol\":64:708  contract Functions {... */\n      mstore(0x40, 0x80)\n      callvalue\n      dup1\n      iszero\n      tag_1\n      jumpi\n      0x00\n      dup1\n      revert\n    tag_1:\n      pop\n      jumpi(tag_2, lt(calldatasize, 0x04))\n      shr(0xe0, calldataload(0x00))\n      dup1\n      0x0c55699c\n      eq\n      tag_3\n      jumpi\n      dup1\n      0x3fb5c1cb\n      eq\n      tag_4\n      jumpi\n      dup1\n      0x448f30a3\n      eq\n      tag_5\n      jumpi\n      dup1\n      0x76dad223\n      eq\n      tag_6\n      jumpi\n      dup1\n      0xfce68023\n      eq\n      tag_7\n      jumpi\n    tag_2:\n      0x00\n      dup1\n      revert\n        /* \"contracts/Functions.sol\":90:107  uint public x = 3 */\n    tag_3:\n      tag_8\n      tag_9\n      jump\t// in\n    tag_8:\n      mload(0x40)\n      tag_10\n      swap2\n      swap1\n      tag_11\n      jump\t// in\n    tag_10:\n      mload(0x40)\n      dup1\n      swap2\n      sub\n      swap1\n      return\n        /* \"contracts/Functions.sol\":315:397  function setNumber(uint newNumber) public {... */\n    tag_4:\n      tag_12\n      0x04\n      dup1\n      calldatasize\n      sub\n      dup2\n      add\n      swap1\n      tag_13\n      swap2\n      swap1\n      tag_14\n      jump\t// in\n    tag_13:\n      tag_15\n      jump\t// in\n    tag_12:\n      stop\n        /* \"contracts/Functions.sol\":477:700  function nothing() public pure returns(uint x, bool y, bool z){ // Returns içerisinde değişken ismi eklersek fonksiyon içerisinde return kullanmamıza gerek yok.... */\n    tag_5:\n      tag_16\n      tag_17\n      jump\t// in\n    tag_16:\n      mload(0x40)\n      tag_18\n      swap4\n      swap3\n      swap2\n      swap1\n      tag_19\n      jump\t// in\n    tag_18:\n      mload(0x40)\n      dup1\n      swap2\n      sub\n      swap1\n      return\n        /* \"contracts/Functions.sol\":221:304  function showNumber() public view returns(uint) {... */\n    tag_6:\n      tag_20\n      tag_21\n      jump\t// in\n    tag_20:\n      mload(0x40)\n      tag_22\n      swap2\n      swap1\n      tag_11\n      jump\t// in\n    tag_22:\n      mload(0x40)\n      dup1\n      swap2\n      sub\n      swap1\n      return\n        /* \"contracts/Functions.sol\":403:471  function addNumber(uint y) public view returns(uint){... */\n    tag_7:\n      tag_23\n      0x04\n      dup1\n      calldatasize\n      sub\n      dup2\n      add\n      swap1\n      tag_24\n      swap2\n      swap1\n      tag_14\n      jump\t// in\n    tag_24:\n      tag_25\n      jump\t// in\n    tag_23:\n      mload(0x40)\n      tag_26\n      swap2\n      swap1\n      tag_11\n      jump\t// in\n    tag_26:\n      mload(0x40)\n      dup1\n      swap2\n      sub\n      swap1\n      return\n        /* \"contracts/Functions.sol\":90:107  uint public x = 3 */\n    tag_9:\n      sload(0x00)\n      dup2\n      jump\t// out\n        /* \"contracts/Functions.sol\":315:397  function setNumber(uint newNumber) public {... */\n    tag_15:\n        /* \"contracts/Functions.sol\":381:390  newNumber */\n      dup1\n        /* \"contracts/Functions.sol\":367:378  luckyNumber */\n      0x01\n        /* \"contracts/Functions.sol\":367:390  luckyNumber = newNumber */\n      dup2\n      swap1\n      sstore\n      pop\n        /* \"contracts/Functions.sol\":315:397  function setNumber(uint newNumber) public {... */\n      pop\n      jump\t// out\n        /* \"contracts/Functions.sol\":477:700  function nothing() public pure returns(uint x, bool y, bool z){ // Returns içerisinde değişken ismi eklersek fonksiyon içerisinde return kullanmamıza gerek yok.... */\n    tag_17:\n        /* \"contracts/Functions.sol\":516:522  uint x */\n      0x00\n        /* \"contracts/Functions.sol\":524:530  bool y */\n      dup1\n        /* \"contracts/Functions.sol\":532:538  bool z */\n      0x00\n        /* \"contracts/Functions.sol\":655:656  6 */\n      0x06\n        /* \"contracts/Functions.sol\":651:656  x = 6 */\n      swap3\n      pop\n        /* \"contracts/Functions.sol\":670:675  false */\n      0x00\n        /* \"contracts/Functions.sol\":666:675  y = false */\n      swap2\n      pop\n        /* \"contracts/Functions.sol\":689:693  true */\n      0x01\n        /* \"contracts/Functions.sol\":685:693  z = true */\n      swap1\n      pop\n        /* \"contracts/Functions.sol\":477:700  function nothing() public pure returns(uint x, bool y, bool z){ // Returns içerisinde değişken ismi eklersek fonksiyon içerisinde return kullanmamıza gerek yok.... */\n      swap1\n      swap2\n      swap3\n      jump\t// out\n        /* \"contracts/Functions.sol\":221:304  function showNumber() public view returns(uint) {... */\n    tag_21:\n        /* \"contracts/Functions.sol\":263:267  uint */\n      0x00\n        /* \"contracts/Functions.sol\":286:297  luckyNumber */\n      sload(0x01)\n        /* \"contracts/Functions.sol\":279:297  return luckyNumber */\n      swap1\n      pop\n        /* \"contracts/Functions.sol\":221:304  function showNumber() public view returns(uint) {... */\n      swap1\n      jump\t// out\n        /* \"contracts/Functions.sol\":403:471  function addNumber(uint y) public view returns(uint){... */\n    tag_25:\n        /* \"contracts/Functions.sol\":450:454  uint */\n      0x00\n        /* \"contracts/Functions.sol\":403:471  function addNumber(uint y) public view returns(uint){... */\n      swap2\n      swap1\n      pop\n      jump\t// out\n        /* \"#utility.yul\":7:146   */\n    tag_32:\n        /* \"#utility.yul\":53:58   */\n      0x00\n        /* \"#utility.yul\":91:97   */\n      dup2\n        /* \"#utility.yul\":78:98   */\n      calldataload\n        /* \"#utility.yul\":69:98   */\n      swap1\n      pop\n        /* \"#utility.yul\":107:140   */\n      tag_34\n        /* \"#utility.yul\":134:139   */\n      dup2\n        /* \"#utility.yul\":107:140   */\n      tag_35\n      jump\t// in\n    tag_34:\n        /* \"#utility.yul\":7:146   */\n      swap3\n      swap2\n      pop\n      pop\n      jump\t// out\n        /* \"#utility.yul\":152:481   */\n    tag_14:\n        /* \"#utility.yul\":211:217   */\n      0x00\n        /* \"#utility.yul\":260:262   */\n      0x20\n        /* \"#utility.yul\":248:257   */\n      dup3\n        /* \"#utility.yul\":239:246   */\n      dup5\n        /* \"#utility.yul\":235:258   */\n      sub\n        /* \"#utility.yul\":231:263   */\n      slt\n        /* \"#utility.yul\":228:347   */\n      iszero\n      tag_37\n      jumpi\n        /* \"#utility.yul\":266:345   */\n      tag_38\n      tag_39\n      jump\t// in\n    tag_38:\n        /* \"#utility.yul\":228:347   */\n    tag_37:\n        /* \"#utility.yul\":386:387   */\n      0x00\n        /* \"#utility.yul\":411:464   */\n      tag_40\n        /* \"#utility.yul\":456:463   */\n      dup5\n        /* \"#utility.yul\":447:453   */\n      dup3\n        /* \"#utility.yul\":436:445   */\n      dup6\n        /* \"#utility.yul\":432:454   */\n      add\n        /* \"#utility.yul\":411:464   */\n      tag_32\n      jump\t// in\n    tag_40:\n        /* \"#utility.yul\":401:464   */\n      swap2\n      pop\n        /* \"#utility.yul\":357:474   */\n      pop\n        /* \"#utility.yul\":152:481   */\n      swap3\n      swap2\n      pop\n      pop\n      jump\t// out\n        /* \"#utility.yul\":487:596   */\n    tag_41:\n        /* \"#utility.yul\":568:589   */\n      tag_43\n        /* \"#utility.yul\":583:588   */\n      dup2\n        /* \"#utility.yul\":568:589   */\n      tag_44\n      jump\t// in\n    tag_43:\n        /* \"#utility.yul\":563:566   */\n      dup3\n        /* \"#utility.yul\":556:590   */\n      mstore\n        /* \"#utility.yul\":487:596   */\n      pop\n      pop\n      jump\t// out\n        /* \"#utility.yul\":602:720   */\n    tag_45:\n        /* \"#utility.yul\":689:713   */\n      tag_47\n        /* \"#utility.yul\":707:712   */\n      dup2\n        /* \"#utility.yul\":689:713   */\n      tag_48\n      jump\t// in\n    tag_47:\n        /* \"#utility.yul\":684:687   */\n      dup3\n        /* \"#utility.yul\":677:714   */\n      mstore\n        /* \"#utility.yul\":602:720   */\n      pop\n      pop\n      jump\t// out\n        /* \"#utility.yul\":726:948   */\n    tag_11:\n        /* \"#utility.yul\":819:823   */\n      0x00\n        /* \"#utility.yul\":857:859   */\n      0x20\n        /* \"#utility.yul\":846:855   */\n      dup3\n        /* \"#utility.yul\":842:860   */\n      add\n        /* \"#utility.yul\":834:860   */\n      swap1\n      pop\n        /* \"#utility.yul\":870:941   */\n      tag_50\n        /* \"#utility.yul\":938:939   */\n      0x00\n        /* \"#utility.yul\":927:936   */\n      dup4\n        /* \"#utility.yul\":923:940   */\n      add\n        /* \"#utility.yul\":914:920   */\n      dup5\n        /* \"#utility.yul\":870:941   */\n      tag_45\n      jump\t// in\n    tag_50:\n        /* \"#utility.yul\":726:948   */\n      swap3\n      swap2\n      pop\n      pop\n      jump\t// out\n        /* \"#utility.yul\":954:1372   */\n    tag_19:\n        /* \"#utility.yul\":1091:1095   */\n      0x00\n        /* \"#utility.yul\":1129:1131   */\n      0x60\n        /* \"#utility.yul\":1118:1127   */\n      dup3\n        /* \"#utility.yul\":1114:1132   */\n      add\n        /* \"#utility.yul\":1106:1132   */\n      swap1\n      pop\n        /* \"#utility.yul\":1142:1213   */\n      tag_52\n        /* \"#utility.yul\":1210:1211   */\n      0x00\n        /* \"#utility.yul\":1199:1208   */\n      dup4\n        /* \"#utility.yul\":1195:1212   */\n      add\n        /* \"#utility.yul\":1186:1192   */\n      dup7\n        /* \"#utility.yul\":1142:1213   */\n      tag_45\n      jump\t// in\n    tag_52:\n        /* \"#utility.yul\":1223:1289   */\n      tag_53\n        /* \"#utility.yul\":1285:1287   */\n      0x20\n        /* \"#utility.yul\":1274:1283   */\n      dup4\n        /* \"#utility.yul\":1270:1288   */\n      add\n        /* \"#utility.yul\":1261:1267   */\n      dup6\n        /* \"#utility.yul\":1223:1289   */\n      tag_41\n      jump\t// in\n    tag_53:\n        /* \"#utility.yul\":1299:1365   */\n      tag_54\n        /* \"#utility.yul\":1361:1363   */\n      0x40\n        /* \"#utility.yul\":1350:1359   */\n      dup4\n        /* \"#utility.yul\":1346:1364   */\n      add\n        /* \"#utility.yul\":1337:1343   */\n      dup5\n        /* \"#utility.yul\":1299:1365   */\n      tag_41\n      jump\t// in\n    tag_54:\n        /* \"#utility.yul\":954:1372   */\n      swap5\n      swap4\n      pop\n      pop\n      pop\n      pop\n      jump\t// out\n        /* \"#utility.yul\":1459:1549   */\n    tag_44:\n        /* \"#utility.yul\":1493:1500   */\n      0x00\n        /* \"#utility.yul\":1536:1541   */\n      dup2\n        /* \"#utility.yul\":1529:1542   */\n      iszero\n        /* \"#utility.yul\":1522:1543   */\n      iszero\n        /* \"#utility.yul\":1511:1543   */\n      swap1\n      pop\n        /* \"#utility.yul\":1459:1549   */\n      swap2\n      swap1\n      pop\n      jump\t// out\n        /* \"#utility.yul\":1555:1632   */\n    tag_48:\n        /* \"#utility.yul\":1592:1599   */\n      0x00\n        /* \"#utility.yul\":1621:1626   */\n      dup2\n        /* \"#utility.yul\":1610:1626   */\n      swap1\n      pop\n        /* \"#utility.yul\":1555:1632   */\n      swap2\n      swap1\n      pop\n      jump\t// out\n        /* \"#utility.yul\":1761:1878   */\n    tag_39:\n        /* \"#utility.yul\":1870:1871   */\n      0x00\n        /* \"#utility.yul\":1867:1868   */\n      dup1\n        /* \"#utility.yul\":1860:1872   */\n      revert\n        /* \"#utility.yul\":1884:2006   */\n    tag_35:\n        /* \"#utility.yul\":1957:1981   */\n      tag_63\n        /* \"#utility.yul\":1975:1980   */\n      dup2\n        /* \"#utility.yul\":1957:1981   */\n      tag_48\n      jump\t// in\n    tag_63:\n        /* \"#utility.yul\":1950:1955   */\n      dup2\n        /* \"#utility.yul\":1947:1982   */\n      eq\n        /* \"#utility.yul\":1937:2000   */\n      tag_64\n      jumpi\n        /* \"#utility.yul\":1996:1997   */\n      0x00\n        /* \"#utility.yul\":1993:1994   */\n      dup1\n        /* \"#utility.yul\":1986:1998   */\n      revert\n        /* \"#utility.yul\":1937:2000   */\n    tag_64:\n        /* \"#utility.yul\":1884:2006   */\n      pop\n      jump\t// out\n\n    auxdata: 0xa264697066735822122023b34ef55ac53ee290747c2de1309c1aa9af8c7f022cff6c3cd5fbdca4b9da1a64736f6c63430008070033\n}\n",
				"bytecode": {
					"linkReferences": {},
					"object": "60806040526003600055600760015534801561001a57600080fd5b506102558061002a6000396000f3fe608060405234801561001057600080fd5b50600436106100575760003560e01c80630c55699c1461005c5780633fb5c1cb1461007a578063448f30a31461009657806376dad223146100b6578063fce68023146100d4575b600080fd5b610064610104565b604051610071919061019b565b60405180910390f35b610094600480360381019061008f9190610150565b61010a565b005b61009e610114565b6040516100ad939291906101b6565b60405180910390f35b6100be61012a565b6040516100cb919061019b565b60405180910390f35b6100ee60048036038101906100e99190610150565b610134565b6040516100fb919061019b565b60405180910390f35b60005481565b8060018190555050565b6000806000600692506000915060019050909192565b6000600154905090565b6000919050565b60008135905061014a81610208565b92915050565b60006020828403121561016657610165610203565b5b60006101748482850161013b565b91505092915050565b610186816101ed565b82525050565b610195816101f9565b82525050565b60006020820190506101b0600083018461018c565b92915050565b60006060820190506101cb600083018661018c565b6101d8602083018561017d565b6101e5604083018461017d565b949350505050565b60008115159050919050565b6000819050919050565b600080fd5b610211816101f9565b811461021c57600080fd5b5056fea264697066735822122023b34ef55ac53ee290747c2de1309c1aa9af8c7f022cff6c3cd5fbdca4b9da1a64736f6c63430008070033",
					"opcodes": "PUSH1 0x80 PUSH1 0x40 MSTORE PUSH1 0x3 PUSH1 0x0 SSTORE PUSH1 0x7 PUSH1 0x1 SSTORE CALLVALUE DUP1 ISZERO PUSH2 0x1A JUMPI PUSH1 0x0 DUP1 REVERT JUMPDEST POP PUSH2 0x255 DUP1 PUSH2 0x2A PUSH1 0x0 CODECOPY PUSH1 0x0 RETURN INVALID PUSH1 0x80 PUSH1 0x40 MSTORE CALLVALUE DUP1 ISZERO PUSH2 0x10 JUMPI PUSH1 0x0 DUP1 REVERT JUMPDEST POP PUSH1 0x4 CALLDATASIZE LT PUSH2 0x57 JUMPI PUSH1 0x0 CALLDATALOAD PUSH1 0xE0 SHR DUP1 PUSH4 0xC55699C EQ PUSH2 0x5C JUMPI DUP1 PUSH4 0x3FB5C1CB EQ PUSH2 0x7A JUMPI DUP1 PUSH4 0x448F30A3 EQ PUSH2 0x96 JUMPI DUP1 PUSH4 0x76DAD223 EQ PUSH2 0xB6 JUMPI DUP1 PUSH4 0xFCE68023 EQ PUSH2 0xD4 JUMPI JUMPDEST PUSH1 0x0 DUP1 REVERT JUMPDEST PUSH2 0x64 PUSH2 0x104 JUMP JUMPDEST PUSH1 0x40 MLOAD PUSH2 0x71 SWAP2 SWAP1 PUSH2 0x19B JUMP JUMPDEST PUSH1 0x40 MLOAD DUP1 SWAP2 SUB SWAP1 RETURN JUMPDEST PUSH2 0x94 PUSH1 0x4 DUP1 CALLDATASIZE SUB DUP2 ADD SWAP1 PUSH2 0x8F SWAP2 SWAP1 PUSH2 0x150 JUMP JUMPDEST PUSH2 0x10A JUMP JUMPDEST STOP JUMPDEST PUSH2 0x9E PUSH2 0x114 JUMP JUMPDEST PUSH1 0x40 MLOAD PUSH2 0xAD SWAP4 SWAP3 SWAP2 SWAP1 PUSH2 0x1B6 JUMP JUMPDEST PUSH1 0x40 MLOAD DUP1 SWAP2 SUB SWAP1 RETURN JUMPDEST PUSH2 0xBE PUSH2 0x12A JUMP JUMPDEST PUSH1 0x40 MLOAD PUSH2 0xCB SWAP2 SWAP1 PUSH2 0x19B JUMP JUMPDEST PUSH1 0x40 MLOAD DUP1 SWAP2 SUB SWAP1 RETURN JUMPDEST PUSH2 0xEE PUSH1 0x4 DUP1 CALLDATASIZE SUB DUP2 ADD SWAP1 PUSH2 0xE9 SWAP2 SWAP1 PUSH2 0x150 JUMP JUMPDEST PUSH2 0x134 JUMP JUMPDEST PUSH1 0x40 MLOAD PUSH2 0xFB SWAP2 SWAP1 PUSH2 0x19B JUMP JUMPDEST PUSH1 0x40 MLOAD DUP1 SWAP2 SUB SWAP1 RETURN JUMPDEST PUSH1 0x0 SLOAD DUP2 JUMP JUMPDEST DUP1 PUSH1 0x1 DUP2 SWAP1 SSTORE POP POP JUMP JUMPDEST PUSH1 0x0 DUP1 PUSH1 0x0 PUSH1 0x6 SWAP3 POP PUSH1 0x0 SWAP2 POP PUSH1 0x1 SWAP1 POP SWAP1 SWAP2 SWAP3 JUMP JUMPDEST PUSH1 0x0 PUSH1 0x1 SLOAD SWAP1 POP SWAP1 JUMP JUMPDEST PUSH1 0x0 SWAP2 SWAP1 POP JUMP JUMPDEST PUSH1 0x0 DUP2 CALLDATALOAD SWAP1 POP PUSH2 0x14A DUP2 PUSH2 0x208 JUMP JUMPDEST SWAP3 SWAP2 POP POP JUMP JUMPDEST PUSH1 0x0 PUSH1 0x20 DUP3 DUP5 SUB SLT ISZERO PUSH2 0x166 JUMPI PUSH2 0x165 PUSH2 0x203 JUMP JUMPDEST JUMPDEST PUSH1 0x0 PUSH2 0x174 DUP5 DUP3 DUP6 ADD PUSH2 0x13B JUMP JUMPDEST SWAP2 POP POP SWAP3 SWAP2 POP POP JUMP JUMPDEST PUSH2 0x186 DUP2 PUSH2 0x1ED JUMP JUMPDEST DUP3 MSTORE POP POP JUMP JUMPDEST PUSH2 0x195 DUP2 PUSH2 0x1F9 JUMP JUMPDEST DUP3 MSTORE POP POP JUMP JUMPDEST PUSH1 0x0 PUSH1 0x20 DUP3 ADD SWAP1 POP PUSH2 0x1B0 PUSH1 0x0 DUP4 ADD DUP5 PUSH2 0x18C JUMP JUMPDEST SWAP3 SWAP2 POP POP JUMP JUMPDEST PUSH1 0x0 PUSH1 0x60 DUP3 ADD SWAP1 POP PUSH2 0x1CB PUSH1 0x0 DUP4 ADD DUP7 PUSH2 0x18C JUMP JUMPDEST PUSH2 0x1D8 PUSH1 0x20 DUP4 ADD DUP6 PUSH2 0x17D JUMP JUMPDEST PUSH2 0x1E5 PUSH1 0x40 DUP4 ADD DUP5 PUSH2 0x17D JUMP JUMPDEST SWAP5 SWAP4 POP POP POP POP JUMP JUMPDEST PUSH1 0x0 DUP2 ISZERO ISZERO SWAP1 POP SWAP2 SWAP1 POP JUMP JUMPDEST PUSH1 0x0 DUP2 SWAP1 POP SWAP2 SWAP1 POP JUMP JUMPDEST PUSH1 0x0 DUP1 REVERT JUMPDEST PUSH2 0x211 DUP2 PUSH2 0x1F9 JUMP JUMPDEST DUP2 EQ PUSH2 0x21C JUMPI PUSH1 0x0 DUP1 REVERT JUMPDEST POP JUMP INVALID LOG2 PUSH5 0x6970667358 0x22 SLT KECCAK256 0x23 0xB3 0x4E CREATE2 GAS 0xC5 RETURNDATACOPY 0xE2 SWAP1 PUSH21 0x7C2DE1309C1AA9AF8C7F022CFF6C3CD5FBDCA4B9DA BYTE PUSH5 0x736F6C6343 STOP ADDMOD SMOD STOP CALLER "
				},
				"gasEstimates": {
					"creation": {
						"codeDepositCost": "119400",
						"executionCost": "44377",
						"totalCost": "163777"
					},
					"external": {
						"addNumber(uint256)": "infinite",
						"nothing()": "infinite",
						"setNumber(uint256)": "22520",
						"showNumber()": "2481",
						"x()": "2407"
					}
				},
				"methodIdentifiers": {
					"addNumber(uint256)": "fce68023",
					"nothing()": "448f30a3",
					"setNumber(uint256)": "3fb5c1cb",
					"showNumber()": "76dad223",
					"x()": "0c55699c"
				}
			},
			"storageLayout": {
				"storage": [
					{
						"astId": 4,
						"contract": "contracts/Functions.sol:Functions",
						"label": "x",
						"offset": 0,
						"slot": "0",
						"type": "t_uint256"
					},
					{
						"astId": 7,
						"contract": "contracts/Functions.sol:Functions",
						"label": "luckyNumber",
						"offset": 0,
						"slot": "1",
						"type": "t_uint256"
					}
				],
				"types": {
					"t_uint256": {
						"encoding": "inplace",
						"label": "uint256",
						"numberOfBytes": "32"
					}
				}
			},
			"userdoc": {
				"kind": "user",
				"methods": {},
				"version": 1
			}
		}
	}
}