{
	"contracts/Errors.sol": {
		"Errors": {
			"abi": [
				{
					"inputs": [],
					"name": "pay",
					"outputs": [],
					"stateMutability": "payable",
					"type": "function"
				},
				{
					"inputs": [
						{
							"internalType": "uint256",
							"name": "_amount",
							"type": "uint256"
						}
					],
					"name": "withdraw",
					"outputs": [],
					"stateMutability": "nonpayable",
					"type": "function"
				}
			],
			"devdoc": {
				"kind": "dev",
				"methods": {},
				"version": 1
			},
			"evm": {
				"assembly": "    /* \"contracts/Errors.sol\":64:376  contract Errors {... */\n  mstore(0x40, 0x80)\n  callvalue\n  dup1\n  iszero\n  tag_1\n  jumpi\n  0x00\n  dup1\n  revert\ntag_1:\n  pop\n  dataSize(sub_0)\n  dup1\n  dataOffset(sub_0)\n  0x00\n  codecopy\n  0x00\n  return\nstop\n\nsub_0: assembly {\n        /* \"contracts/Errors.sol\":64:376  contract Errors {... */\n      mstore(0x40, 0x80)\n      jumpi(tag_1, lt(calldatasize, 0x04))\n      shr(0xe0, calldataload(0x00))\n      dup1\n      0x1b9265b8\n      eq\n      tag_2\n      jumpi\n      dup1\n      0x2e1a7d4d\n      eq\n      tag_3\n      jumpi\n    tag_1:\n      0x00\n      dup1\n      revert\n        /* \"contracts/Errors.sol\":87:211  function pay() noZero(msg.value) external payable {... */\n    tag_2:\n      tag_4\n      tag_5\n      jump\t// in\n    tag_4:\n      stop\n        /* \"contracts/Errors.sol\":217:285  function withdraw(uint256 _amount) noZero(_amount) external {... */\n    tag_3:\n      callvalue\n      dup1\n      iszero\n      tag_6\n      jumpi\n      0x00\n      dup1\n      revert\n    tag_6:\n      pop\n      tag_7\n      0x04\n      dup1\n      calldatasize\n      sub\n      dup2\n      add\n      swap1\n      tag_8\n      swap2\n      swap1\n      tag_9\n      jump\t// in\n    tag_8:\n      tag_10\n      jump\t// in\n    tag_7:\n      stop\n        /* \"contracts/Errors.sol\":87:211  function pay() noZero(msg.value) external payable {... */\n    tag_5:\n        /* \"contracts/Errors.sol\":109:118  msg.value */\n      callvalue\n        /* \"contracts/Errors.sol\":353:354  0 */\n      0x00\n        /* \"contracts/Errors.sol\":342:349  _amount */\n      dup2\n        /* \"contracts/Errors.sol\":342:354  _amount != 0 */\n      eq\n      iszero\n        /* \"contracts/Errors.sol\":334:355  require(_amount != 0) */\n      tag_12\n      jumpi\n      0x00\n      dup1\n      revert\n    tag_12:\n        /* \"contracts/Errors.sol\":168:175  1 ether */\n      0x0de0b6b3a7640000\n        /* \"contracts/Errors.sol\":155:164  msg.value */\n      callvalue\n        /* \"contracts/Errors.sol\":155:175  msg.value == 1 ether */\n      eq\n        /* \"contracts/Errors.sol\":147:204  require(msg.value == 1 ether, \"Only payments in 1 ether\") */\n      tag_14\n      jumpi\n      mload(0x40)\n      0x08c379a000000000000000000000000000000000000000000000000000000000\n      dup2\n      mstore\n      0x04\n      add\n      tag_15\n      swap1\n      tag_16\n      jump\t// in\n    tag_15:\n      mload(0x40)\n      dup1\n      swap2\n      sub\n      swap1\n      revert\n    tag_14:\n        /* \"contracts/Errors.sol\":87:211  function pay() noZero(msg.value) external payable {... */\n      pop\n      jump\t// out\n        /* \"contracts/Errors.sol\":217:285  function withdraw(uint256 _amount) noZero(_amount) external {... */\n    tag_10:\n        /* \"contracts/Errors.sol\":259:266  _amount */\n      dup1\n        /* \"contracts/Errors.sol\":353:354  0 */\n      0x00\n        /* \"contracts/Errors.sol\":342:349  _amount */\n      dup2\n        /* \"contracts/Errors.sol\":342:354  _amount != 0 */\n      eq\n      iszero\n        /* \"contracts/Errors.sol\":334:355  require(_amount != 0) */\n      tag_18\n      jumpi\n      0x00\n      dup1\n      revert\n    tag_18:\n        /* \"contracts/Errors.sol\":217:285  function withdraw(uint256 _amount) noZero(_amount) external {... */\n      pop\n      pop\n      jump\t// out\n        /* \"#utility.yul\":7:146   */\n    tag_21:\n        /* \"#utility.yul\":53:58   */\n      0x00\n        /* \"#utility.yul\":91:97   */\n      dup2\n        /* \"#utility.yul\":78:98   */\n      calldataload\n        /* \"#utility.yul\":69:98   */\n      swap1\n      pop\n        /* \"#utility.yul\":107:140   */\n      tag_23\n        /* \"#utility.yul\":134:139   */\n      dup2\n        /* \"#utility.yul\":107:140   */\n      tag_24\n      jump\t// in\n    tag_23:\n        /* \"#utility.yul\":7:146   */\n      swap3\n      swap2\n      pop\n      pop\n      jump\t// out\n        /* \"#utility.yul\":152:481   */\n    tag_9:\n        /* \"#utility.yul\":211:217   */\n      0x00\n        /* \"#utility.yul\":260:262   */\n      0x20\n        /* \"#utility.yul\":248:257   */\n      dup3\n        /* \"#utility.yul\":239:246   */\n      dup5\n        /* \"#utility.yul\":235:258   */\n      sub\n        /* \"#utility.yul\":231:263   */\n      slt\n        /* \"#utility.yul\":228:347   */\n      iszero\n      tag_26\n      jumpi\n        /* \"#utility.yul\":266:345   */\n      tag_27\n      tag_28\n      jump\t// in\n    tag_27:\n        /* \"#utility.yul\":228:347   */\n    tag_26:\n        /* \"#utility.yul\":386:387   */\n      0x00\n        /* \"#utility.yul\":411:464   */\n      tag_29\n        /* \"#utility.yul\":456:463   */\n      dup5\n        /* \"#utility.yul\":447:453   */\n      dup3\n        /* \"#utility.yul\":436:445   */\n      dup6\n        /* \"#utility.yul\":432:454   */\n      add\n        /* \"#utility.yul\":411:464   */\n      tag_21\n      jump\t// in\n    tag_29:\n        /* \"#utility.yul\":401:464   */\n      swap2\n      pop\n        /* \"#utility.yul\":357:474   */\n      pop\n        /* \"#utility.yul\":152:481   */\n      swap3\n      swap2\n      pop\n      pop\n      jump\t// out\n        /* \"#utility.yul\":487:853   */\n    tag_30:\n        /* \"#utility.yul\":629:632   */\n      0x00\n        /* \"#utility.yul\":650:717   */\n      tag_32\n        /* \"#utility.yul\":714:716   */\n      0x18\n        /* \"#utility.yul\":709:712   */\n      dup4\n        /* \"#utility.yul\":650:717   */\n      tag_33\n      jump\t// in\n    tag_32:\n        /* \"#utility.yul\":643:717   */\n      swap2\n      pop\n        /* \"#utility.yul\":726:819   */\n      tag_34\n        /* \"#utility.yul\":815:818   */\n      dup3\n        /* \"#utility.yul\":726:819   */\n      tag_35\n      jump\t// in\n    tag_34:\n        /* \"#utility.yul\":844:846   */\n      0x20\n        /* \"#utility.yul\":839:842   */\n      dup3\n        /* \"#utility.yul\":835:847   */\n      add\n        /* \"#utility.yul\":828:847   */\n      swap1\n      pop\n        /* \"#utility.yul\":487:853   */\n      swap2\n      swap1\n      pop\n      jump\t// out\n        /* \"#utility.yul\":859:1278   */\n    tag_16:\n        /* \"#utility.yul\":1025:1029   */\n      0x00\n        /* \"#utility.yul\":1063:1065   */\n      0x20\n        /* \"#utility.yul\":1052:1061   */\n      dup3\n        /* \"#utility.yul\":1048:1066   */\n      add\n        /* \"#utility.yul\":1040:1066   */\n      swap1\n      pop\n        /* \"#utility.yul\":1112:1121   */\n      dup2\n        /* \"#utility.yul\":1106:1110   */\n      dup2\n        /* \"#utility.yul\":1102:1122   */\n      sub\n        /* \"#utility.yul\":1098:1099   */\n      0x00\n        /* \"#utility.yul\":1087:1096   */\n      dup4\n        /* \"#utility.yul\":1083:1100   */\n      add\n        /* \"#utility.yul\":1076:1123   */\n      mstore\n        /* \"#utility.yul\":1140:1271   */\n      tag_37\n        /* \"#utility.yul\":1266:1270   */\n      dup2\n        /* \"#utility.yul\":1140:1271   */\n      tag_30\n      jump\t// in\n    tag_37:\n        /* \"#utility.yul\":1132:1271   */\n      swap1\n      pop\n        /* \"#utility.yul\":859:1278   */\n      swap2\n      swap1\n      pop\n      jump\t// out\n        /* \"#utility.yul\":1365:1534   */\n    tag_33:\n        /* \"#utility.yul\":1449:1460   */\n      0x00\n        /* \"#utility.yul\":1483:1489   */\n      dup3\n        /* \"#utility.yul\":1478:1481   */\n      dup3\n        /* \"#utility.yul\":1471:1490   */\n      mstore\n        /* \"#utility.yul\":1523:1527   */\n      0x20\n        /* \"#utility.yul\":1518:1521   */\n      dup3\n        /* \"#utility.yul\":1514:1528   */\n      add\n        /* \"#utility.yul\":1499:1528   */\n      swap1\n      pop\n        /* \"#utility.yul\":1365:1534   */\n      swap3\n      swap2\n      pop\n      pop\n      jump\t// out\n        /* \"#utility.yul\":1540:1617   */\n    tag_41:\n        /* \"#utility.yul\":1577:1584   */\n      0x00\n        /* \"#utility.yul\":1606:1611   */\n      dup2\n        /* \"#utility.yul\":1595:1611   */\n      swap1\n      pop\n        /* \"#utility.yul\":1540:1617   */\n      swap2\n      swap1\n      pop\n      jump\t// out\n        /* \"#utility.yul\":1746:1863   */\n    tag_28:\n        /* \"#utility.yul\":1855:1856   */\n      0x00\n        /* \"#utility.yul\":1852:1853   */\n      dup1\n        /* \"#utility.yul\":1845:1857   */\n      revert\n        /* \"#utility.yul\":1869:2043   */\n    tag_35:\n        /* \"#utility.yul\":2009:2035   */\n      0x4f6e6c79207061796d656e747320696e20312065746865720000000000000000\n        /* \"#utility.yul\":2005:2006   */\n      0x00\n        /* \"#utility.yul\":1997:2003   */\n      dup3\n        /* \"#utility.yul\":1993:2007   */\n      add\n        /* \"#utility.yul\":1986:2036   */\n      mstore\n        /* \"#utility.yul\":1869:2043   */\n      pop\n      jump\t// out\n        /* \"#utility.yul\":2049:2171   */\n    tag_24:\n        /* \"#utility.yul\":2122:2146   */\n      tag_48\n        /* \"#utility.yul\":2140:2145   */\n      dup2\n        /* \"#utility.yul\":2122:2146   */\n      tag_41\n      jump\t// in\n    tag_48:\n        /* \"#utility.yul\":2115:2120   */\n      dup2\n        /* \"#utility.yul\":2112:2147   */\n      eq\n        /* \"#utility.yul\":2102:2165   */\n      tag_49\n      jumpi\n        /* \"#utility.yul\":2161:2162   */\n      0x00\n        /* \"#utility.yul\":2158:2159   */\n      dup1\n        /* \"#utility.yul\":2151:2163   */\n      revert\n        /* \"#utility.yul\":2102:2165   */\n    tag_49:\n        /* \"#utility.yul\":2049:2171   */\n      pop\n      jump\t// out\n\n    auxdata: 0xa264697066735822122094b60668b01b0612bf0dddcc2927dceea9c50eb1dac988d014faa97e842be31864736f6c63430008070033\n}\n",
				"bytecode": {
					"linkReferences": {},
					"object": "608060405234801561001057600080fd5b506101eb806100206000396000f3fe6080604052600436106100295760003560e01c80631b9265b81461002e5780632e1a7d4d14610038575b600080fd5b610036610061565b005b34801561004457600080fd5b5061005f600480360381019061005a91906100e5565b6100bd565b005b34600081141561007057600080fd5b670de0b6b3a764000034146100ba576040517f08c379a00000000000000000000000000000000000000000000000000000000081526004016100b190610135565b60405180910390fd5b50565b8060008114156100cc57600080fd5b5050565b6000813590506100df8161019e565b92915050565b6000602082840312156100fb576100fa610170565b5b6000610109848285016100d0565b91505092915050565b600061011f601883610155565b915061012a82610175565b602082019050919050565b6000602082019050818103600083015261014e81610112565b9050919050565b600082825260208201905092915050565b6000819050919050565b600080fd5b7f4f6e6c79207061796d656e747320696e20312065746865720000000000000000600082015250565b6101a781610166565b81146101b257600080fd5b5056fea264697066735822122094b60668b01b0612bf0dddcc2927dceea9c50eb1dac988d014faa97e842be31864736f6c63430008070033",
					"opcodes": "PUSH1 0x80 PUSH1 0x40 MSTORE CALLVALUE DUP1 ISZERO PUSH2 0x10 JUMPI PUSH1 0x0 DUP1 REVERT JUMPDEST POP PUSH2 0x1EB DUP1 PUSH2 0x20 PUSH1 0x0 CODECOPY PUSH1 0x0 RETURN INVALID PUSH1 0x80 PUSH1 0x40 MSTORE PUSH1 0x4 CALLDATASIZE LT PUSH2 0x29 JUMPI PUSH1 0x0 CALLDATALOAD PUSH1 0xE0 SHR DUP1 PUSH4 0x1B9265B8 EQ PUSH2 0x2E JUMPI DUP1 PUSH4 0x2E1A7D4D EQ PUSH2 0x38 JUMPI JUMPDEST PUSH1 0x0 DUP1 REVERT JUMPDEST PUSH2 0x36 PUSH2 0x61 JUMP JUMPDEST STOP JUMPDEST CALLVALUE DUP1 ISZERO PUSH2 0x44 JUMPI PUSH1 0x0 DUP1 REVERT JUMPDEST POP PUSH2 0x5F PUSH1 0x4 DUP1 CALLDATASIZE SUB DUP2 ADD SWAP1 PUSH2 0x5A SWAP2 SWAP1 PUSH2 0xE5 JUMP JUMPDEST PUSH2 0xBD JUMP JUMPDEST STOP JUMPDEST CALLVALUE PUSH1 0x0 DUP2 EQ ISZERO PUSH2 0x70 JUMPI PUSH1 0x0 DUP1 REVERT JUMPDEST PUSH8 0xDE0B6B3A7640000 CALLVALUE EQ PUSH2 0xBA JUMPI PUSH1 0x40 MLOAD PUSH32 0x8C379A000000000000000000000000000000000000000000000000000000000 DUP2 MSTORE PUSH1 0x4 ADD PUSH2 0xB1 SWAP1 PUSH2 0x135 JUMP JUMPDEST PUSH1 0x40 MLOAD DUP1 SWAP2 SUB SWAP1 REVERT JUMPDEST POP JUMP JUMPDEST DUP1 PUSH1 0x0 DUP2 EQ ISZERO PUSH2 0xCC JUMPI PUSH1 0x0 DUP1 REVERT JUMPDEST POP POP JUMP JUMPDEST PUSH1 0x0 DUP2 CALLDATALOAD SWAP1 POP PUSH2 0xDF DUP2 PUSH2 0x19E JUMP JUMPDEST SWAP3 SWAP2 POP POP JUMP JUMPDEST PUSH1 0x0 PUSH1 0x20 DUP3 DUP5 SUB SLT ISZERO PUSH2 0xFB JUMPI PUSH2 0xFA PUSH2 0x170 JUMP JUMPDEST JUMPDEST PUSH1 0x0 PUSH2 0x109 DUP5 DUP3 DUP6 ADD PUSH2 0xD0 JUMP JUMPDEST SWAP2 POP POP SWAP3 SWAP2 POP POP JUMP JUMPDEST PUSH1 0x0 PUSH2 0x11F PUSH1 0x18 DUP4 PUSH2 0x155 JUMP JUMPDEST SWAP2 POP PUSH2 0x12A DUP3 PUSH2 0x175 JUMP JUMPDEST PUSH1 0x20 DUP3 ADD SWAP1 POP SWAP2 SWAP1 POP JUMP JUMPDEST PUSH1 0x0 PUSH1 0x20 DUP3 ADD SWAP1 POP DUP2 DUP2 SUB PUSH1 0x0 DUP4 ADD MSTORE PUSH2 0x14E DUP2 PUSH2 0x112 JUMP JUMPDEST SWAP1 POP SWAP2 SWAP1 POP JUMP JUMPDEST PUSH1 0x0 DUP3 DUP3 MSTORE PUSH1 0x20 DUP3 ADD SWAP1 POP SWAP3 SWAP2 POP POP JUMP JUMPDEST PUSH1 0x0 DUP2 SWAP1 POP SWAP2 SWAP1 POP JUMP JUMPDEST PUSH1 0x0 DUP1 REVERT JUMPDEST PUSH32 0x4F6E6C79207061796D656E747320696E20312065746865720000000000000000 PUSH1 0x0 DUP3 ADD MSTORE POP JUMP JUMPDEST PUSH2 0x1A7 DUP2 PUSH2 0x166 JUMP JUMPDEST DUP2 EQ PUSH2 0x1B2 JUMPI PUSH1 0x0 DUP1 REVERT JUMPDEST POP JUMP INVALID LOG2 PUSH5 0x6970667358 0x22 SLT KECCAK256 SWAP5 0xB6 MOD PUSH9 0xB01B0612BF0DDDCC29 0x27 0xDC 0xEE 0xA9 0xC5 0xE 0xB1 0xDA 0xC9 DUP9 0xD0 EQ STATICCALL 0xA9 PUSH31 0x842BE31864736F6C6343000807003300000000000000000000000000000000 "
				},
				"gasEstimates": {
					"creation": {
						"codeDepositCost": "98200",
						"executionCost": "147",
						"totalCost": "98347"
					},
					"external": {
						"pay()": "437",
						"withdraw(uint256)": "437"
					}
				},
				"methodIdentifiers": {
					"pay()": "1b9265b8",
					"withdraw(uint256)": "2e1a7d4d"
				}
			},
			"storageLayout": {
				"storage": [],
				"types": null
			},
			"userdoc": {
				"kind": "user",
				"methods": {},
				"version": 1
			}
		}
	}
}