{
	"contracts/StructsEnums.sol": {
		"StructsEnums": {
			"abi": [
				{
					"inputs": [],
					"stateMutability": "nonpayable",
					"type": "constructor"
				},
				{
					"inputs": [
						{
							"internalType": "uint256",
							"name": "_orderId",
							"type": "uint256"
						}
					],
					"name": "advanceOrder",
					"outputs": [],
					"stateMutability": "nonpayable",
					"type": "function"
				},
				{
					"inputs": [
						{
							"internalType": "string",
							"name": "_zipCode",
							"type": "string"
						},
						{
							"internalType": "uint256[]",
							"name": "_products",
							"type": "uint256[]"
						}
					],
					"name": "createOrder",
					"outputs": [
						{
							"internalType": "uint256",
							"name": "",
							"type": "uint256"
						}
					],
					"stateMutability": "nonpayable",
					"type": "function"
				},
				{
					"inputs": [
						{
							"internalType": "uint256",
							"name": "",
							"type": "uint256"
						}
					],
					"name": "orders",
					"outputs": [
						{
							"internalType": "address",
							"name": "customer",
							"type": "address"
						},
						{
							"internalType": "string",
							"name": "zipCode",
							"type": "string"
						},
						{
							"internalType": "enum StructsEnums.Status",
							"name": "status",
							"type": "uint8"
						}
					],
					"stateMutability": "view",
					"type": "function"
				},
				{
					"inputs": [],
					"name": "owner",
					"outputs": [
						{
							"internalType": "address",
							"name": "",
							"type": "address"
						}
					],
					"stateMutability": "view",
					"type": "function"
				},
				{
					"inputs": [
						{
							"internalType": "uint256",
							"name": "_orderId",
							"type": "uint256"
						},
						{
							"internalType": "string",
							"name": "_zip",
							"type": "string"
						}
					],
					"name": "updateZip",
					"outputs": [],
					"stateMutability": "nonpayable",
					"type": "function"
				}
			],
			"devdoc": {
				"kind": "dev",
				"methods": {},
				"version": 1
			},
			"evm": {
				"assembly": "    /* \"contracts/StructsEnums.sol\":64:1816  contract StructsEnums {... */\n  mstore(0x40, 0x80)\n    /* \"contracts/StructsEnums.sol\":364:413  constructor() {... */\n  callvalue\n  dup1\n  iszero\n  tag_1\n  jumpi\n  0x00\n  dup1\n  revert\ntag_1:\n  pop\n    /* \"contracts/StructsEnums.sol\":396:406  msg.sender */\n  caller\n    /* \"contracts/StructsEnums.sol\":388:393  owner */\n  0x01\n  0x00\n    /* \"contracts/StructsEnums.sol\":388:406  owner = msg.sender */\n  0x0100\n  exp\n  dup2\n  sload\n  dup2\n  0xffffffffffffffffffffffffffffffffffffffff\n  mul\n  not\n  and\n  swap1\n  dup4\n  0xffffffffffffffffffffffffffffffffffffffff\n  and\n  mul\n  or\n  swap1\n  sstore\n  pop\n    /* \"contracts/StructsEnums.sol\":64:1816  contract StructsEnums {... */\n  dataSize(sub_0)\n  dup1\n  dataOffset(sub_0)\n  0x00\n  codecopy\n  0x00\n  return\nstop\n\nsub_0: assembly {\n        /* \"contracts/StructsEnums.sol\":64:1816  contract StructsEnums {... */\n      mstore(0x40, 0x80)\n      callvalue\n      dup1\n      iszero\n      tag_1\n      jumpi\n      0x00\n      dup1\n      revert\n    tag_1:\n      pop\n      jumpi(tag_2, lt(calldatasize, 0x04))\n      shr(0xe0, calldataload(0x00))\n      dup1\n      0x577dc0a0\n      eq\n      tag_3\n      jumpi\n      dup1\n      0x6d9a65d8\n      eq\n      tag_4\n      jumpi\n      dup1\n      0x8da5cb5b\n      eq\n      tag_5\n      jumpi\n      dup1\n      0xa85c38ef\n      eq\n      tag_6\n      jumpi\n      dup1\n      0xafe13a62\n      eq\n      tag_7\n      jumpi\n    tag_2:\n      0x00\n      dup1\n      revert\n        /* \"contracts/StructsEnums.sol\":1737:1807  function updateZip(uint256 _orderId, string memory _zip) public {... */\n    tag_3:\n      tag_8\n      0x04\n      dup1\n      calldatasize\n      sub\n      dup2\n      add\n      swap1\n      tag_9\n      swap2\n      swap1\n      tag_10\n      jump\t// in\n    tag_9:\n      tag_11\n      jump\t// in\n    tag_8:\n      stop\n        /* \"contracts/StructsEnums.sol\":419:1129  function createOrder(string memory _zipCode, uint256[] memory _products) public returns(uint256){... */\n    tag_4:\n      tag_12\n      0x04\n      dup1\n      calldatasize\n      sub\n      dup2\n      add\n      swap1\n      tag_13\n      swap2\n      swap1\n      tag_14\n      jump\t// in\n    tag_13:\n      tag_15\n      jump\t// in\n    tag_12:\n      mload(0x40)\n      tag_16\n      swap2\n      swap1\n      tag_17\n      jump\t// in\n    tag_16:\n      mload(0x40)\n      dup1\n      swap2\n      sub\n      swap1\n      return\n        /* \"contracts/StructsEnums.sol\":337:357  address public owner */\n    tag_5:\n      tag_18\n      tag_19\n      jump\t// in\n    tag_18:\n      mload(0x40)\n      tag_20\n      swap2\n      swap1\n      tag_21\n      jump\t// in\n    tag_20:\n      mload(0x40)\n      dup1\n      swap2\n      sub\n      swap1\n      return\n        /* \"contracts/StructsEnums.sol\":310:331  Order[] public orders */\n    tag_6:\n      tag_22\n      0x04\n      dup1\n      calldatasize\n      sub\n      dup2\n      add\n      swap1\n      tag_23\n      swap2\n      swap1\n      tag_24\n      jump\t// in\n    tag_23:\n      tag_25\n      jump\t// in\n    tag_22:\n      mload(0x40)\n      tag_26\n      swap4\n      swap3\n      swap2\n      swap1\n      tag_27\n      jump\t// in\n    tag_26:\n      mload(0x40)\n      dup1\n      swap2\n      sub\n      swap1\n      return\n        /* \"contracts/StructsEnums.sol\":1135:1732  function advanceOrder(uint256 _orderId) public {... */\n    tag_7:\n      tag_28\n      0x04\n      dup1\n      calldatasize\n      sub\n      dup2\n      add\n      swap1\n      tag_29\n      swap2\n      swap1\n      tag_24\n      jump\t// in\n    tag_29:\n      tag_30\n      jump\t// in\n    tag_28:\n      stop\n        /* \"contracts/StructsEnums.sol\":1737:1807  function updateZip(uint256 _orderId, string memory _zip) public {... */\n    tag_11:\n      pop\n      pop\n      jump\t// out\n        /* \"contracts/StructsEnums.sol\":419:1129  function createOrder(string memory _zipCode, uint256[] memory _products) public returns(uint256){... */\n    tag_15:\n        /* \"contracts/StructsEnums.sol\":507:514  uint256 */\n      0x00\n        /* \"contracts/StructsEnums.sol\":552:553  0 */\n      dup1\n        /* \"contracts/StructsEnums.sol\":533:542  _products */\n      dup3\n        /* \"contracts/StructsEnums.sol\":533:549  _products.length */\n      mload\n        /* \"contracts/StructsEnums.sol\":533:553  _products.length > 0 */\n      gt\n        /* \"contracts/StructsEnums.sol\":525:569  require(_products.length > 0, \"No products\") */\n      tag_33\n      jumpi\n      mload(0x40)\n      0x08c379a000000000000000000000000000000000000000000000000000000000\n      dup2\n      mstore\n      0x04\n      add\n      tag_34\n      swap1\n      tag_35\n      jump\t// in\n    tag_34:\n      mload(0x40)\n      dup1\n      swap2\n      sub\n      swap1\n      revert\n    tag_33:\n        /* \"contracts/StructsEnums.sol\":580:598  Order memory order */\n      tag_36\n      tag_37\n      jump\t// in\n    tag_36:\n        /* \"contracts/StructsEnums.sol\":625:635  msg.sender */\n      caller\n        /* \"contracts/StructsEnums.sol\":608:613  order */\n      dup2\n        /* \"contracts/StructsEnums.sol\":608:622  order.customer */\n      0x00\n      add\n        /* \"contracts/StructsEnums.sol\":608:635  order.customer = msg.sender */\n      swap1\n      0xffffffffffffffffffffffffffffffffffffffff\n      and\n      swap1\n      dup2\n      0xffffffffffffffffffffffffffffffffffffffff\n      and\n      dup2\n      mstore\n      pop\n      pop\n        /* \"contracts/StructsEnums.sol\":661:669  _zipCode */\n      dup4\n        /* \"contracts/StructsEnums.sol\":645:650  order */\n      dup2\n        /* \"contracts/StructsEnums.sol\":645:658  order.zipCode */\n      0x20\n      add\n        /* \"contracts/StructsEnums.sol\":645:669  order.zipCode = _zipCode */\n      dup2\n      swap1\n      mstore\n      pop\n        /* \"contracts/StructsEnums.sol\":696:705  _products */\n      dup3\n        /* \"contracts/StructsEnums.sol\":679:684  order */\n      dup2\n        /* \"contracts/StructsEnums.sol\":679:693  order.products */\n      0x40\n      add\n        /* \"contracts/StructsEnums.sol\":679:705  order.products = _products */\n      dup2\n      swap1\n      mstore\n      pop\n        /* \"contracts/StructsEnums.sol\":730:742  Status.Taken */\n      0x00\n        /* \"contracts/StructsEnums.sol\":715:720  order */\n      dup2\n        /* \"contracts/StructsEnums.sol\":715:727  order.status */\n      0x60\n      add\n        /* \"contracts/StructsEnums.sol\":715:742  order.status = Status.Taken */\n      swap1\n      0x03\n      dup2\n      gt\n      iszero\n      tag_38\n      jumpi\n      tag_39\n      tag_40\n      jump\t// in\n    tag_39:\n    tag_38:\n      swap1\n      dup2\n      0x03\n      dup2\n      gt\n      iszero\n      tag_41\n      jumpi\n      tag_42\n      tag_40\n      jump\t// in\n    tag_42:\n    tag_41:\n      dup2\n      mstore\n      pop\n      pop\n        /* \"contracts/StructsEnums.sol\":752:758  orders */\n      0x00\n        /* \"contracts/StructsEnums.sol\":764:769  order */\n      dup2\n        /* \"contracts/StructsEnums.sol\":752:770  orders.push(order) */\n      swap1\n      dup1\n      0x01\n      dup2\n      sload\n      add\n      dup1\n      dup3\n      sstore\n      dup1\n      swap2\n      pop\n      pop\n      0x01\n      swap1\n      sub\n      swap1\n      0x00\n      mstore\n      keccak256(0x00, 0x20)\n      swap1\n      0x04\n      mul\n      add\n      0x00\n      swap1\n      swap2\n      swap1\n      swap2\n      swap1\n      swap2\n      pop\n      0x00\n      dup3\n      add\n      mload\n      dup2\n      0x00\n      add\n      exp(0x0100, 0x00)\n      dup2\n      sload\n      dup2\n      0xffffffffffffffffffffffffffffffffffffffff\n      mul\n      not\n      and\n      swap1\n      dup4\n      0xffffffffffffffffffffffffffffffffffffffff\n      and\n      mul\n      or\n      swap1\n      sstore\n      pop\n      0x20\n      dup3\n      add\n      mload\n      dup2\n      0x01\n      add\n      swap1\n      dup1\n      mload\n      swap1\n      0x20\n      add\n      swap1\n      tag_44\n      swap3\n      swap2\n      swap1\n      tag_45\n      jump\t// in\n    tag_44:\n      pop\n      0x40\n      dup3\n      add\n      mload\n      dup2\n      0x02\n      add\n      swap1\n      dup1\n      mload\n      swap1\n      0x20\n      add\n      swap1\n      tag_46\n      swap3\n      swap2\n      swap1\n      tag_47\n      jump\t// in\n    tag_46:\n      pop\n      0x60\n      dup3\n      add\n      mload\n      dup2\n      0x03\n      add\n      exp(0x0100, 0x00)\n      dup2\n      sload\n      dup2\n      0xff\n      mul\n      not\n      and\n      swap1\n      dup4\n      0x03\n      dup2\n      gt\n      iszero\n      tag_48\n      jumpi\n      tag_49\n      tag_40\n      jump\t// in\n    tag_49:\n    tag_48:\n      mul\n      or\n      swap1\n      sstore\n      pop\n      pop\n      pop\n        /* \"contracts/StructsEnums.sol\":1121:1122  1 */\n      0x01\n        /* \"contracts/StructsEnums.sol\":1105:1111  orders */\n      0x00\n        /* \"contracts/StructsEnums.sol\":1105:1118  orders.length */\n      dup1\n      sload\n      swap1\n      pop\n        /* \"contracts/StructsEnums.sol\":1105:1122  orders.length - 1 */\n      tag_50\n      swap2\n      swap1\n      tag_51\n      jump\t// in\n    tag_50:\n        /* \"contracts/StructsEnums.sol\":1098:1122  return orders.length - 1 */\n      swap2\n      pop\n      pop\n        /* \"contracts/StructsEnums.sol\":419:1129  function createOrder(string memory _zipCode, uint256[] memory _products) public returns(uint256){... */\n      swap3\n      swap2\n      pop\n      pop\n      jump\t// out\n        /* \"contracts/StructsEnums.sol\":337:357  address public owner */\n    tag_19:\n      0x01\n      0x00\n      swap1\n      sload\n      swap1\n      0x0100\n      exp\n      swap1\n      div\n      0xffffffffffffffffffffffffffffffffffffffff\n      and\n      dup2\n      jump\t// out\n        /* \"contracts/StructsEnums.sol\":310:331  Order[] public orders */\n    tag_25:\n      0x00\n      dup2\n      dup2\n      sload\n      dup2\n      lt\n      tag_52\n      jumpi\n      0x00\n      dup1\n      revert\n    tag_52:\n      swap1\n      0x00\n      mstore\n      keccak256(0x00, 0x20)\n      swap1\n      0x04\n      mul\n      add\n      0x00\n      swap2\n      pop\n      swap1\n      pop\n      dup1\n      0x00\n      add\n      0x00\n      swap1\n      sload\n      swap1\n      0x0100\n      exp\n      swap1\n      div\n      0xffffffffffffffffffffffffffffffffffffffff\n      and\n      swap1\n      dup1\n      0x01\n      add\n      dup1\n      sload\n      tag_54\n      swap1\n      tag_55\n      jump\t// in\n    tag_54:\n      dup1\n      0x1f\n      add\n      0x20\n      dup1\n      swap2\n      div\n      mul\n      0x20\n      add\n      mload(0x40)\n      swap1\n      dup2\n      add\n      0x40\n      mstore\n      dup1\n      swap3\n      swap2\n      swap1\n      dup2\n      dup2\n      mstore\n      0x20\n      add\n      dup3\n      dup1\n      sload\n      tag_56\n      swap1\n      tag_55\n      jump\t// in\n    tag_56:\n      dup1\n      iszero\n      tag_57\n      jumpi\n      dup1\n      0x1f\n      lt\n      tag_58\n      jumpi\n      0x0100\n      dup1\n      dup4\n      sload\n      div\n      mul\n      dup4\n      mstore\n      swap2\n      0x20\n      add\n      swap2\n      jump(tag_57)\n    tag_58:\n      dup3\n      add\n      swap2\n      swap1\n      0x00\n      mstore\n      keccak256(0x00, 0x20)\n      swap1\n    tag_59:\n      dup2\n      sload\n      dup2\n      mstore\n      swap1\n      0x01\n      add\n      swap1\n      0x20\n      add\n      dup1\n      dup4\n      gt\n      tag_59\n      jumpi\n      dup3\n      swap1\n      sub\n      0x1f\n      and\n      dup3\n      add\n      swap2\n    tag_57:\n      pop\n      pop\n      pop\n      pop\n      pop\n      swap1\n      dup1\n      0x03\n      add\n      0x00\n      swap1\n      sload\n      swap1\n      0x0100\n      exp\n      swap1\n      div\n      0xff\n      and\n      swap1\n      pop\n      dup4\n      jump\t// out\n        /* \"contracts/StructsEnums.sol\":1135:1732  function advanceOrder(uint256 _orderId) public {... */\n    tag_30:\n        /* \"contracts/StructsEnums.sol\":1214:1219  owner */\n      0x01\n      0x00\n      swap1\n      sload\n      swap1\n      0x0100\n      exp\n      swap1\n      div\n      0xffffffffffffffffffffffffffffffffffffffff\n      and\n        /* \"contracts/StructsEnums.sol\":1200:1219  msg.sender == owner */\n      0xffffffffffffffffffffffffffffffffffffffff\n      and\n        /* \"contracts/StructsEnums.sol\":1200:1210  msg.sender */\n      caller\n        /* \"contracts/StructsEnums.sol\":1200:1219  msg.sender == owner */\n      0xffffffffffffffffffffffffffffffffffffffff\n      and\n      eq\n        /* \"contracts/StructsEnums.sol\":1192:1246  require(msg.sender == owner, \"You're not authorized.\") */\n      tag_61\n      jumpi\n      mload(0x40)\n      0x08c379a000000000000000000000000000000000000000000000000000000000\n      dup2\n      mstore\n      0x04\n      add\n      tag_62\n      swap1\n      tag_63\n      jump\t// in\n    tag_62:\n      mload(0x40)\n      dup1\n      swap2\n      sub\n      swap1\n      revert\n    tag_61:\n        /* \"contracts/StructsEnums.sol\":1275:1281  orders */\n      0x00\n        /* \"contracts/StructsEnums.sol\":1275:1288  orders.length */\n      dup1\n      sload\n      swap1\n      pop\n        /* \"contracts/StructsEnums.sol\":1264:1272  _orderId */\n      dup2\n        /* \"contracts/StructsEnums.sol\":1264:1288  _orderId < orders.length */\n      lt\n        /* \"contracts/StructsEnums.sol\":1256:1313  require(_orderId < orders.length, \"Not a valid order id\") */\n      tag_64\n      jumpi\n      mload(0x40)\n      0x08c379a000000000000000000000000000000000000000000000000000000000\n      dup2\n      mstore\n      0x04\n      add\n      tag_65\n      swap1\n      tag_66\n      jump\t// in\n    tag_65:\n      mload(0x40)\n      dup1\n      swap2\n      sub\n      swap1\n      revert\n    tag_64:\n        /* \"contracts/StructsEnums.sol\":1324:1343  Order storage order */\n      0x00\n        /* \"contracts/StructsEnums.sol\":1346:1352  orders */\n      dup1\n        /* \"contracts/StructsEnums.sol\":1353:1361  _orderId */\n      dup3\n        /* \"contracts/StructsEnums.sol\":1346:1362  orders[_orderId] */\n      dup2\n      sload\n      dup2\n      lt\n      tag_67\n      jumpi\n      tag_68\n      tag_69\n      jump\t// in\n    tag_68:\n    tag_67:\n      swap1\n      0x00\n      mstore\n      keccak256(0x00, 0x20)\n      swap1\n      0x04\n      mul\n      add\n        /* \"contracts/StructsEnums.sol\":1324:1362  Order storage order = orders[_orderId] */\n      swap1\n      pop\n        /* \"contracts/StructsEnums.sol\":1396:1410  Status.Shipped */\n      0x03\n        /* \"contracts/StructsEnums.sol\":1380:1410  order.status != Status.Shipped */\n      dup1\n      dup2\n      gt\n      iszero\n      tag_71\n      jumpi\n      tag_72\n      tag_40\n      jump\t// in\n    tag_72:\n    tag_71:\n        /* \"contracts/StructsEnums.sol\":1380:1385  order */\n      dup2\n        /* \"contracts/StructsEnums.sol\":1380:1392  order.status */\n      0x03\n      add\n      0x00\n      swap1\n      sload\n      swap1\n      0x0100\n      exp\n      swap1\n      div\n      0xff\n      and\n        /* \"contracts/StructsEnums.sol\":1380:1410  order.status != Status.Shipped */\n      0x03\n      dup2\n      gt\n      iszero\n      tag_73\n      jumpi\n      tag_74\n      tag_40\n      jump\t// in\n    tag_74:\n    tag_73:\n      eq\n      iszero\n        /* \"contracts/StructsEnums.sol\":1372:1440  require(order.status != Status.Shipped, \"Order is already shipped.\") */\n      tag_75\n      jumpi\n      mload(0x40)\n      0x08c379a000000000000000000000000000000000000000000000000000000000\n      dup2\n      mstore\n      0x04\n      add\n      tag_76\n      swap1\n      tag_77\n      jump\t// in\n    tag_76:\n      mload(0x40)\n      dup1\n      swap2\n      sub\n      swap1\n      revert\n    tag_75:\n        /* \"contracts/StructsEnums.sol\":1470:1482  Status.Taken */\n      0x00\n        /* \"contracts/StructsEnums.sol\":1454:1482  order.status == Status.Taken */\n      0x03\n      dup2\n      gt\n      iszero\n      tag_78\n      jumpi\n      tag_79\n      tag_40\n      jump\t// in\n    tag_79:\n    tag_78:\n        /* \"contracts/StructsEnums.sol\":1454:1459  order */\n      dup2\n        /* \"contracts/StructsEnums.sol\":1454:1466  order.status */\n      0x03\n      add\n      0x00\n      swap1\n      sload\n      swap1\n      0x0100\n      exp\n      swap1\n      div\n      0xff\n      and\n        /* \"contracts/StructsEnums.sol\":1454:1482  order.status == Status.Taken */\n      0x03\n      dup2\n      gt\n      iszero\n      tag_80\n      jumpi\n      tag_81\n      tag_40\n      jump\t// in\n    tag_81:\n    tag_80:\n      eq\n        /* \"contracts/StructsEnums.sol\":1451:1726  if(order.status == Status.Taken) {... */\n      iszero\n      tag_82\n      jumpi\n        /* \"contracts/StructsEnums.sol\":1513:1529  Status.Preparing */\n      0x01\n        /* \"contracts/StructsEnums.sol\":1498:1503  order */\n      dup2\n        /* \"contracts/StructsEnums.sol\":1498:1510  order.status */\n      0x03\n      add\n      0x00\n        /* \"contracts/StructsEnums.sol\":1498:1529  order.status = Status.Preparing */\n      0x0100\n      exp\n      dup2\n      sload\n      dup2\n      0xff\n      mul\n      not\n      and\n      swap1\n      dup4\n      0x03\n      dup2\n      gt\n      iszero\n      tag_83\n      jumpi\n      tag_84\n      tag_40\n      jump\t// in\n    tag_84:\n    tag_83:\n      mul\n      or\n      swap1\n      sstore\n      pop\n        /* \"contracts/StructsEnums.sol\":1451:1726  if(order.status == Status.Taken) {... */\n      jump(tag_85)\n    tag_82:\n        /* \"contracts/StructsEnums.sol\":1565:1581  Status.Preparing */\n      0x01\n        /* \"contracts/StructsEnums.sol\":1549:1581  order.status == Status.Preparing */\n      0x03\n      dup2\n      gt\n      iszero\n      tag_86\n      jumpi\n      tag_87\n      tag_40\n      jump\t// in\n    tag_87:\n    tag_86:\n        /* \"contracts/StructsEnums.sol\":1549:1554  order */\n      dup2\n        /* \"contracts/StructsEnums.sol\":1549:1561  order.status */\n      0x03\n      add\n      0x00\n      swap1\n      sload\n      swap1\n      0x0100\n      exp\n      swap1\n      div\n      0xff\n      and\n        /* \"contracts/StructsEnums.sol\":1549:1581  order.status == Status.Preparing */\n      0x03\n      dup2\n      gt\n      iszero\n      tag_88\n      jumpi\n      tag_89\n      tag_40\n      jump\t// in\n    tag_89:\n    tag_88:\n      eq\n        /* \"contracts/StructsEnums.sol\":1546:1726  if(order.status == Status.Preparing){... */\n      iszero\n      tag_90\n      jumpi\n        /* \"contracts/StructsEnums.sol\":1611:1623  Status.Boxed */\n      0x02\n        /* \"contracts/StructsEnums.sol\":1596:1601  order */\n      dup2\n        /* \"contracts/StructsEnums.sol\":1596:1608  order.status */\n      0x03\n      add\n      0x00\n        /* \"contracts/StructsEnums.sol\":1596:1623  order.status = Status.Boxed */\n      0x0100\n      exp\n      dup2\n      sload\n      dup2\n      0xff\n      mul\n      not\n      and\n      swap1\n      dup4\n      0x03\n      dup2\n      gt\n      iszero\n      tag_91\n      jumpi\n      tag_92\n      tag_40\n      jump\t// in\n    tag_92:\n    tag_91:\n      mul\n      or\n      swap1\n      sstore\n      pop\n        /* \"contracts/StructsEnums.sol\":1546:1726  if(order.status == Status.Preparing){... */\n      jump(tag_93)\n    tag_90:\n        /* \"contracts/StructsEnums.sol\":1659:1671  Status.Boxed */\n      0x02\n        /* \"contracts/StructsEnums.sol\":1643:1671  order.status == Status.Boxed */\n      0x03\n      dup2\n      gt\n      iszero\n      tag_94\n      jumpi\n      tag_95\n      tag_40\n      jump\t// in\n    tag_95:\n    tag_94:\n        /* \"contracts/StructsEnums.sol\":1643:1648  order */\n      dup2\n        /* \"contracts/StructsEnums.sol\":1643:1655  order.status */\n      0x03\n      add\n      0x00\n      swap1\n      sload\n      swap1\n      0x0100\n      exp\n      swap1\n      div\n      0xff\n      and\n        /* \"contracts/StructsEnums.sol\":1643:1671  order.status == Status.Boxed */\n      0x03\n      dup2\n      gt\n      iszero\n      tag_96\n      jumpi\n      tag_97\n      tag_40\n      jump\t// in\n    tag_97:\n    tag_96:\n      eq\n        /* \"contracts/StructsEnums.sol\":1640:1726  if(order.status == Status.Boxed){... */\n      iszero\n      tag_98\n      jumpi\n        /* \"contracts/StructsEnums.sol\":1701:1715  Status.Shipped */\n      0x03\n        /* \"contracts/StructsEnums.sol\":1686:1691  order */\n      dup2\n        /* \"contracts/StructsEnums.sol\":1686:1698  order.status */\n      0x03\n      add\n      0x00\n        /* \"contracts/StructsEnums.sol\":1686:1715  order.status = Status.Shipped */\n      0x0100\n      exp\n      dup2\n      sload\n      dup2\n      0xff\n      mul\n      not\n      and\n      swap1\n      dup4\n      0x03\n      dup2\n      gt\n      iszero\n      tag_99\n      jumpi\n      tag_100\n      tag_40\n      jump\t// in\n    tag_100:\n    tag_99:\n      mul\n      or\n      swap1\n      sstore\n      pop\n        /* \"contracts/StructsEnums.sol\":1640:1726  if(order.status == Status.Boxed){... */\n    tag_98:\n        /* \"contracts/StructsEnums.sol\":1546:1726  if(order.status == Status.Preparing){... */\n    tag_93:\n        /* \"contracts/StructsEnums.sol\":1451:1726  if(order.status == Status.Taken) {... */\n    tag_85:\n        /* \"contracts/StructsEnums.sol\":1182:1732  {... */\n      pop\n        /* \"contracts/StructsEnums.sol\":1135:1732  function advanceOrder(uint256 _orderId) public {... */\n      pop\n      jump\t// out\n    tag_37:\n      mload(0x40)\n      dup1\n      0x80\n      add\n      0x40\n      mstore\n      dup1\n      and(0xffffffffffffffffffffffffffffffffffffffff, 0x00)\n      dup2\n      mstore\n      0x20\n      add\n      0x60\n      dup2\n      mstore\n      0x20\n      add\n      0x60\n      dup2\n      mstore\n      0x20\n      add\n      0x00\n      0x03\n      dup2\n      gt\n      iszero\n      tag_101\n      jumpi\n      tag_102\n      tag_40\n      jump\t// in\n    tag_102:\n    tag_101:\n      dup2\n      mstore\n      pop\n      swap1\n      jump\t// out\n    tag_45:\n      dup3\n      dup1\n      sload\n      tag_103\n      swap1\n      tag_55\n      jump\t// in\n    tag_103:\n      swap1\n      0x00\n      mstore\n      keccak256(0x00, 0x20)\n      swap1\n      0x1f\n      add\n      0x20\n      swap1\n      div\n      dup2\n      add\n      swap3\n      dup3\n      tag_105\n      jumpi\n      0x00\n      dup6\n      sstore\n      jump(tag_104)\n    tag_105:\n      dup3\n      0x1f\n      lt\n      tag_106\n      jumpi\n      dup1\n      mload\n      not(0xff)\n      and\n      dup4\n      dup1\n      add\n      or\n      dup6\n      sstore\n      jump(tag_104)\n    tag_106:\n      dup3\n      dup1\n      add\n      0x01\n      add\n      dup6\n      sstore\n      dup3\n      iszero\n      tag_104\n      jumpi\n      swap2\n      dup3\n      add\n    tag_107:\n      dup3\n      dup2\n      gt\n      iszero\n      tag_108\n      jumpi\n      dup3\n      mload\n      dup3\n      sstore\n      swap2\n      0x20\n      add\n      swap2\n      swap1\n      0x01\n      add\n      swap1\n      jump(tag_107)\n    tag_108:\n    tag_104:\n      pop\n      swap1\n      pop\n      tag_109\n      swap2\n      swap1\n      tag_110\n      jump\t// in\n    tag_109:\n      pop\n      swap1\n      jump\t// out\n    tag_47:\n      dup3\n      dup1\n      sload\n      dup3\n      dup3\n      sstore\n      swap1\n      0x00\n      mstore\n      keccak256(0x00, 0x20)\n      swap1\n      dup2\n      add\n      swap3\n      dup3\n      iszero\n      tag_111\n      jumpi\n      swap2\n      0x20\n      mul\n      dup3\n      add\n    tag_112:\n      dup3\n      dup2\n      gt\n      iszero\n      tag_113\n      jumpi\n      dup3\n      mload\n      dup3\n      sstore\n      swap2\n      0x20\n      add\n      swap2\n      swap1\n      0x01\n      add\n      swap1\n      jump(tag_112)\n    tag_113:\n    tag_111:\n      pop\n      swap1\n      pop\n      tag_114\n      swap2\n      swap1\n      tag_110\n      jump\t// in\n    tag_114:\n      pop\n      swap1\n      jump\t// out\n    tag_110:\n    tag_115:\n      dup1\n      dup3\n      gt\n      iszero\n      tag_116\n      jumpi\n      0x00\n      dup2\n      0x00\n      swap1\n      sstore\n      pop\n      0x01\n      add\n      jump(tag_115)\n    tag_116:\n      pop\n      swap1\n      jump\t// out\n        /* \"#utility.yul\":24:746   */\n    tag_118:\n        /* \"#utility.yul\":120:125   */\n      0x00\n        /* \"#utility.yul\":145:226   */\n      tag_120\n        /* \"#utility.yul\":161:225   */\n      tag_121\n        /* \"#utility.yul\":218:224   */\n      dup5\n        /* \"#utility.yul\":161:225   */\n      tag_122\n      jump\t// in\n    tag_121:\n        /* \"#utility.yul\":145:226   */\n      tag_123\n      jump\t// in\n    tag_120:\n        /* \"#utility.yul\":136:226   */\n      swap1\n      pop\n        /* \"#utility.yul\":246:251   */\n      dup1\n        /* \"#utility.yul\":275:281   */\n      dup4\n        /* \"#utility.yul\":268:273   */\n      dup3\n        /* \"#utility.yul\":261:282   */\n      mstore\n        /* \"#utility.yul\":309:313   */\n      0x20\n        /* \"#utility.yul\":302:307   */\n      dup3\n        /* \"#utility.yul\":298:314   */\n      add\n        /* \"#utility.yul\":291:314   */\n      swap1\n      pop\n        /* \"#utility.yul\":335:341   */\n      dup3\n        /* \"#utility.yul\":385:388   */\n      dup6\n        /* \"#utility.yul\":377:381   */\n      0x20\n        /* \"#utility.yul\":369:375   */\n      dup7\n        /* \"#utility.yul\":365:382   */\n      mul\n        /* \"#utility.yul\":360:363   */\n      dup3\n        /* \"#utility.yul\":356:383   */\n      add\n        /* \"#utility.yul\":353:389   */\n      gt\n        /* \"#utility.yul\":350:493   */\n      iszero\n      tag_124\n      jumpi\n        /* \"#utility.yul\":404:483   */\n      tag_125\n      tag_126\n      jump\t// in\n    tag_125:\n        /* \"#utility.yul\":350:493   */\n    tag_124:\n        /* \"#utility.yul\":517:518   */\n      0x00\n        /* \"#utility.yul\":502:740   */\n    tag_127:\n        /* \"#utility.yul\":527:533   */\n      dup6\n        /* \"#utility.yul\":524:525   */\n      dup2\n        /* \"#utility.yul\":521:534   */\n      lt\n        /* \"#utility.yul\":502:740   */\n      iszero\n      tag_129\n      jumpi\n        /* \"#utility.yul\":595:598   */\n      dup2\n        /* \"#utility.yul\":624:661   */\n      tag_130\n        /* \"#utility.yul\":657:660   */\n      dup9\n        /* \"#utility.yul\":645:655   */\n      dup3\n        /* \"#utility.yul\":624:661   */\n      tag_131\n      jump\t// in\n    tag_130:\n        /* \"#utility.yul\":619:622   */\n      dup5\n        /* \"#utility.yul\":612:662   */\n      mstore\n        /* \"#utility.yul\":691:695   */\n      0x20\n        /* \"#utility.yul\":686:689   */\n      dup5\n        /* \"#utility.yul\":682:696   */\n      add\n        /* \"#utility.yul\":675:696   */\n      swap4\n      pop\n        /* \"#utility.yul\":725:729   */\n      0x20\n        /* \"#utility.yul\":720:723   */\n      dup4\n        /* \"#utility.yul\":716:730   */\n      add\n        /* \"#utility.yul\":709:730   */\n      swap3\n      pop\n        /* \"#utility.yul\":562:740   */\n      pop\n        /* \"#utility.yul\":549:550   */\n      0x01\n        /* \"#utility.yul\":546:547   */\n      dup2\n        /* \"#utility.yul\":542:551   */\n      add\n        /* \"#utility.yul\":537:551   */\n      swap1\n      pop\n        /* \"#utility.yul\":502:740   */\n      jump(tag_127)\n    tag_129:\n        /* \"#utility.yul\":506:520   */\n      pop\n        /* \"#utility.yul\":126:746   */\n      pop\n      pop\n        /* \"#utility.yul\":24:746   */\n      swap4\n      swap3\n      pop\n      pop\n      pop\n      jump\t// out\n        /* \"#utility.yul\":752:1164   */\n    tag_132:\n        /* \"#utility.yul\":830:835   */\n      0x00\n        /* \"#utility.yul\":855:921   */\n      tag_134\n        /* \"#utility.yul\":871:920   */\n      tag_135\n        /* \"#utility.yul\":913:919   */\n      dup5\n        /* \"#utility.yul\":871:920   */\n      tag_136\n      jump\t// in\n    tag_135:\n        /* \"#utility.yul\":855:921   */\n      tag_123\n      jump\t// in\n    tag_134:\n        /* \"#utility.yul\":846:921   */\n      swap1\n      pop\n        /* \"#utility.yul\":944:950   */\n      dup3\n        /* \"#utility.yul\":937:942   */\n      dup2\n        /* \"#utility.yul\":930:951   */\n      mstore\n        /* \"#utility.yul\":982:986   */\n      0x20\n        /* \"#utility.yul\":975:980   */\n      dup2\n        /* \"#utility.yul\":971:987   */\n      add\n        /* \"#utility.yul\":1020:1023   */\n      dup5\n        /* \"#utility.yul\":1011:1017   */\n      dup5\n        /* \"#utility.yul\":1006:1009   */\n      dup5\n        /* \"#utility.yul\":1002:1018   */\n      add\n        /* \"#utility.yul\":999:1024   */\n      gt\n        /* \"#utility.yul\":996:1108   */\n      iszero\n      tag_137\n      jumpi\n        /* \"#utility.yul\":1027:1106   */\n      tag_138\n      tag_139\n      jump\t// in\n    tag_138:\n        /* \"#utility.yul\":996:1108   */\n    tag_137:\n        /* \"#utility.yul\":1117:1158   */\n      tag_140\n        /* \"#utility.yul\":1151:1157   */\n      dup5\n        /* \"#utility.yul\":1146:1149   */\n      dup3\n        /* \"#utility.yul\":1141:1144   */\n      dup6\n        /* \"#utility.yul\":1117:1158   */\n      tag_141\n      jump\t// in\n    tag_140:\n        /* \"#utility.yul\":836:1164   */\n      pop\n        /* \"#utility.yul\":752:1164   */\n      swap4\n      swap3\n      pop\n      pop\n      pop\n      jump\t// out\n        /* \"#utility.yul\":1187:1557   */\n    tag_142:\n        /* \"#utility.yul\":1258:1263   */\n      0x00\n        /* \"#utility.yul\":1307:1310   */\n      dup3\n        /* \"#utility.yul\":1300:1304   */\n      0x1f\n        /* \"#utility.yul\":1292:1298   */\n      dup4\n        /* \"#utility.yul\":1288:1305   */\n      add\n        /* \"#utility.yul\":1284:1311   */\n      slt\n        /* \"#utility.yul\":1274:1396   */\n      tag_144\n      jumpi\n        /* \"#utility.yul\":1315:1394   */\n      tag_145\n      tag_146\n      jump\t// in\n    tag_145:\n        /* \"#utility.yul\":1274:1396   */\n    tag_144:\n        /* \"#utility.yul\":1432:1438   */\n      dup2\n        /* \"#utility.yul\":1419:1439   */\n      calldataload\n        /* \"#utility.yul\":1457:1551   */\n      tag_147\n        /* \"#utility.yul\":1547:1550   */\n      dup5\n        /* \"#utility.yul\":1539:1545   */\n      dup3\n        /* \"#utility.yul\":1532:1536   */\n      0x20\n        /* \"#utility.yul\":1524:1530   */\n      dup7\n        /* \"#utility.yul\":1520:1537   */\n      add\n        /* \"#utility.yul\":1457:1551   */\n      tag_118\n      jump\t// in\n    tag_147:\n        /* \"#utility.yul\":1448:1551   */\n      swap2\n      pop\n        /* \"#utility.yul\":1264:1557   */\n      pop\n        /* \"#utility.yul\":1187:1557   */\n      swap3\n      swap2\n      pop\n      pop\n      jump\t// out\n        /* \"#utility.yul\":1577:1917   */\n    tag_148:\n        /* \"#utility.yul\":1633:1638   */\n      0x00\n        /* \"#utility.yul\":1682:1685   */\n      dup3\n        /* \"#utility.yul\":1675:1679   */\n      0x1f\n        /* \"#utility.yul\":1667:1673   */\n      dup4\n        /* \"#utility.yul\":1663:1680   */\n      add\n        /* \"#utility.yul\":1659:1686   */\n      slt\n        /* \"#utility.yul\":1649:1771   */\n      tag_150\n      jumpi\n        /* \"#utility.yul\":1690:1769   */\n      tag_151\n      tag_146\n      jump\t// in\n    tag_151:\n        /* \"#utility.yul\":1649:1771   */\n    tag_150:\n        /* \"#utility.yul\":1807:1813   */\n      dup2\n        /* \"#utility.yul\":1794:1814   */\n      calldataload\n        /* \"#utility.yul\":1832:1911   */\n      tag_152\n        /* \"#utility.yul\":1907:1910   */\n      dup5\n        /* \"#utility.yul\":1899:1905   */\n      dup3\n        /* \"#utility.yul\":1892:1896   */\n      0x20\n        /* \"#utility.yul\":1884:1890   */\n      dup7\n        /* \"#utility.yul\":1880:1897   */\n      add\n        /* \"#utility.yul\":1832:1911   */\n      tag_132\n      jump\t// in\n    tag_152:\n        /* \"#utility.yul\":1823:1911   */\n      swap2\n      pop\n        /* \"#utility.yul\":1639:1917   */\n      pop\n        /* \"#utility.yul\":1577:1917   */\n      swap3\n      swap2\n      pop\n      pop\n      jump\t// out\n        /* \"#utility.yul\":1923:2062   */\n    tag_131:\n        /* \"#utility.yul\":1969:1974   */\n      0x00\n        /* \"#utility.yul\":2007:2013   */\n      dup2\n        /* \"#utility.yul\":1994:2014   */\n      calldataload\n        /* \"#utility.yul\":1985:2014   */\n      swap1\n      pop\n        /* \"#utility.yul\":2023:2056   */\n      tag_154\n        /* \"#utility.yul\":2050:2055   */\n      dup2\n        /* \"#utility.yul\":2023:2056   */\n      tag_155\n      jump\t// in\n    tag_154:\n        /* \"#utility.yul\":1923:2062   */\n      swap3\n      swap2\n      pop\n      pop\n      jump\t// out\n        /* \"#utility.yul\":2068:2932   */\n    tag_14:\n        /* \"#utility.yul\":2171:2177   */\n      0x00\n        /* \"#utility.yul\":2179:2185   */\n      dup1\n        /* \"#utility.yul\":2228:2230   */\n      0x40\n        /* \"#utility.yul\":2216:2225   */\n      dup4\n        /* \"#utility.yul\":2207:2214   */\n      dup6\n        /* \"#utility.yul\":2203:2226   */\n      sub\n        /* \"#utility.yul\":2199:2231   */\n      slt\n        /* \"#utility.yul\":2196:2315   */\n      iszero\n      tag_157\n      jumpi\n        /* \"#utility.yul\":2234:2313   */\n      tag_158\n      tag_159\n      jump\t// in\n    tag_158:\n        /* \"#utility.yul\":2196:2315   */\n    tag_157:\n        /* \"#utility.yul\":2382:2383   */\n      0x00\n        /* \"#utility.yul\":2371:2380   */\n      dup4\n        /* \"#utility.yul\":2367:2384   */\n      add\n        /* \"#utility.yul\":2354:2385   */\n      calldataload\n        /* \"#utility.yul\":2412:2430   */\n      0xffffffffffffffff\n        /* \"#utility.yul\":2404:2410   */\n      dup2\n        /* \"#utility.yul\":2401:2431   */\n      gt\n        /* \"#utility.yul\":2398:2515   */\n      iszero\n      tag_160\n      jumpi\n        /* \"#utility.yul\":2434:2513   */\n      tag_161\n      tag_162\n      jump\t// in\n    tag_161:\n        /* \"#utility.yul\":2398:2515   */\n    tag_160:\n        /* \"#utility.yul\":2539:2602   */\n      tag_163\n        /* \"#utility.yul\":2594:2601   */\n      dup6\n        /* \"#utility.yul\":2585:2591   */\n      dup3\n        /* \"#utility.yul\":2574:2583   */\n      dup7\n        /* \"#utility.yul\":2570:2592   */\n      add\n        /* \"#utility.yul\":2539:2602   */\n      tag_148\n      jump\t// in\n    tag_163:\n        /* \"#utility.yul\":2529:2602   */\n      swap3\n      pop\n        /* \"#utility.yul\":2325:2612   */\n      pop\n        /* \"#utility.yul\":2679:2681   */\n      0x20\n        /* \"#utility.yul\":2668:2677   */\n      dup4\n        /* \"#utility.yul\":2664:2682   */\n      add\n        /* \"#utility.yul\":2651:2683   */\n      calldataload\n        /* \"#utility.yul\":2710:2728   */\n      0xffffffffffffffff\n        /* \"#utility.yul\":2702:2708   */\n      dup2\n        /* \"#utility.yul\":2699:2729   */\n      gt\n        /* \"#utility.yul\":2696:2813   */\n      iszero\n      tag_164\n      jumpi\n        /* \"#utility.yul\":2732:2811   */\n      tag_165\n      tag_162\n      jump\t// in\n    tag_165:\n        /* \"#utility.yul\":2696:2813   */\n    tag_164:\n        /* \"#utility.yul\":2837:2915   */\n      tag_166\n        /* \"#utility.yul\":2907:2914   */\n      dup6\n        /* \"#utility.yul\":2898:2904   */\n      dup3\n        /* \"#utility.yul\":2887:2896   */\n      dup7\n        /* \"#utility.yul\":2883:2905   */\n      add\n        /* \"#utility.yul\":2837:2915   */\n      tag_142\n      jump\t// in\n    tag_166:\n        /* \"#utility.yul\":2827:2915   */\n      swap2\n      pop\n        /* \"#utility.yul\":2622:2925   */\n      pop\n        /* \"#utility.yul\":2068:2932   */\n      swap3\n      pop\n      swap3\n      swap1\n      pop\n      jump\t// out\n        /* \"#utility.yul\":2938:3267   */\n    tag_24:\n        /* \"#utility.yul\":2997:3003   */\n      0x00\n        /* \"#utility.yul\":3046:3048   */\n      0x20\n        /* \"#utility.yul\":3034:3043   */\n      dup3\n        /* \"#utility.yul\":3025:3032   */\n      dup5\n        /* \"#utility.yul\":3021:3044   */\n      sub\n        /* \"#utility.yul\":3017:3049   */\n      slt\n        /* \"#utility.yul\":3014:3133   */\n      iszero\n      tag_168\n      jumpi\n        /* \"#utility.yul\":3052:3131   */\n      tag_169\n      tag_159\n      jump\t// in\n    tag_169:\n        /* \"#utility.yul\":3014:3133   */\n    tag_168:\n        /* \"#utility.yul\":3172:3173   */\n      0x00\n        /* \"#utility.yul\":3197:3250   */\n      tag_170\n        /* \"#utility.yul\":3242:3249   */\n      dup5\n        /* \"#utility.yul\":3233:3239   */\n      dup3\n        /* \"#utility.yul\":3222:3231   */\n      dup6\n        /* \"#utility.yul\":3218:3240   */\n      add\n        /* \"#utility.yul\":3197:3250   */\n      tag_131\n      jump\t// in\n    tag_170:\n        /* \"#utility.yul\":3187:3250   */\n      swap2\n      pop\n        /* \"#utility.yul\":3143:3260   */\n      pop\n        /* \"#utility.yul\":2938:3267   */\n      swap3\n      swap2\n      pop\n      pop\n      jump\t// out\n        /* \"#utility.yul\":3273:3927   */\n    tag_10:\n        /* \"#utility.yul\":3351:3357   */\n      0x00\n        /* \"#utility.yul\":3359:3365   */\n      dup1\n        /* \"#utility.yul\":3408:3410   */\n      0x40\n        /* \"#utility.yul\":3396:3405   */\n      dup4\n        /* \"#utility.yul\":3387:3394   */\n      dup6\n        /* \"#utility.yul\":3383:3406   */\n      sub\n        /* \"#utility.yul\":3379:3411   */\n      slt\n        /* \"#utility.yul\":3376:3495   */\n      iszero\n      tag_172\n      jumpi\n        /* \"#utility.yul\":3414:3493   */\n      tag_173\n      tag_159\n      jump\t// in\n    tag_173:\n        /* \"#utility.yul\":3376:3495   */\n    tag_172:\n        /* \"#utility.yul\":3534:3535   */\n      0x00\n        /* \"#utility.yul\":3559:3612   */\n      tag_174\n        /* \"#utility.yul\":3604:3611   */\n      dup6\n        /* \"#utility.yul\":3595:3601   */\n      dup3\n        /* \"#utility.yul\":3584:3593   */\n      dup7\n        /* \"#utility.yul\":3580:3602   */\n      add\n        /* \"#utility.yul\":3559:3612   */\n      tag_131\n      jump\t// in\n    tag_174:\n        /* \"#utility.yul\":3549:3612   */\n      swap3\n      pop\n        /* \"#utility.yul\":3505:3622   */\n      pop\n        /* \"#utility.yul\":3689:3691   */\n      0x20\n        /* \"#utility.yul\":3678:3687   */\n      dup4\n        /* \"#utility.yul\":3674:3692   */\n      add\n        /* \"#utility.yul\":3661:3693   */\n      calldataload\n        /* \"#utility.yul\":3720:3738   */\n      0xffffffffffffffff\n        /* \"#utility.yul\":3712:3718   */\n      dup2\n        /* \"#utility.yul\":3709:3739   */\n      gt\n        /* \"#utility.yul\":3706:3823   */\n      iszero\n      tag_175\n      jumpi\n        /* \"#utility.yul\":3742:3821   */\n      tag_176\n      tag_162\n      jump\t// in\n    tag_176:\n        /* \"#utility.yul\":3706:3823   */\n    tag_175:\n        /* \"#utility.yul\":3847:3910   */\n      tag_177\n        /* \"#utility.yul\":3902:3909   */\n      dup6\n        /* \"#utility.yul\":3893:3899   */\n      dup3\n        /* \"#utility.yul\":3882:3891   */\n      dup7\n        /* \"#utility.yul\":3878:3900   */\n      add\n        /* \"#utility.yul\":3847:3910   */\n      tag_148\n      jump\t// in\n    tag_177:\n        /* \"#utility.yul\":3837:3910   */\n      swap2\n      pop\n        /* \"#utility.yul\":3632:3920   */\n      pop\n        /* \"#utility.yul\":3273:3927   */\n      swap3\n      pop\n      swap3\n      swap1\n      pop\n      jump\t// out\n        /* \"#utility.yul\":3933:4051   */\n    tag_178:\n        /* \"#utility.yul\":4020:4044   */\n      tag_180\n        /* \"#utility.yul\":4038:4043   */\n      dup2\n        /* \"#utility.yul\":4020:4044   */\n      tag_181\n      jump\t// in\n    tag_180:\n        /* \"#utility.yul\":4015:4018   */\n      dup3\n        /* \"#utility.yul\":4008:4045   */\n      mstore\n        /* \"#utility.yul\":3933:4051   */\n      pop\n      pop\n      jump\t// out\n        /* \"#utility.yul\":4057:4200   */\n    tag_182:\n        /* \"#utility.yul\":4150:4193   */\n      tag_184\n        /* \"#utility.yul\":4187:4192   */\n      dup2\n        /* \"#utility.yul\":4150:4193   */\n      tag_185\n      jump\t// in\n    tag_184:\n        /* \"#utility.yul\":4145:4148   */\n      dup3\n        /* \"#utility.yul\":4138:4194   */\n      mstore\n        /* \"#utility.yul\":4057:4200   */\n      pop\n      pop\n      jump\t// out\n        /* \"#utility.yul\":4206:4570   */\n    tag_186:\n        /* \"#utility.yul\":4294:4297   */\n      0x00\n        /* \"#utility.yul\":4322:4361   */\n      tag_188\n        /* \"#utility.yul\":4355:4360   */\n      dup3\n        /* \"#utility.yul\":4322:4361   */\n      tag_189\n      jump\t// in\n    tag_188:\n        /* \"#utility.yul\":4377:4448   */\n      tag_190\n        /* \"#utility.yul\":4441:4447   */\n      dup2\n        /* \"#utility.yul\":4436:4439   */\n      dup6\n        /* \"#utility.yul\":4377:4448   */\n      tag_191\n      jump\t// in\n    tag_190:\n        /* \"#utility.yul\":4370:4448   */\n      swap4\n      pop\n        /* \"#utility.yul\":4457:4509   */\n      tag_192\n        /* \"#utility.yul\":4502:4508   */\n      dup2\n        /* \"#utility.yul\":4497:4500   */\n      dup6\n        /* \"#utility.yul\":4490:4494   */\n      0x20\n        /* \"#utility.yul\":4483:4488   */\n      dup7\n        /* \"#utility.yul\":4479:4495   */\n      add\n        /* \"#utility.yul\":4457:4509   */\n      tag_193\n      jump\t// in\n    tag_192:\n        /* \"#utility.yul\":4534:4563   */\n      tag_194\n        /* \"#utility.yul\":4556:4562   */\n      dup2\n        /* \"#utility.yul\":4534:4563   */\n      tag_195\n      jump\t// in\n    tag_194:\n        /* \"#utility.yul\":4529:4532   */\n      dup5\n        /* \"#utility.yul\":4525:4564   */\n      add\n        /* \"#utility.yul\":4518:4564   */\n      swap2\n      pop\n        /* \"#utility.yul\":4298:4570   */\n      pop\n        /* \"#utility.yul\":4206:4570   */\n      swap3\n      swap2\n      pop\n      pop\n      jump\t// out\n        /* \"#utility.yul\":4576:4942   */\n    tag_196:\n        /* \"#utility.yul\":4718:4721   */\n      0x00\n        /* \"#utility.yul\":4739:4806   */\n      tag_198\n        /* \"#utility.yul\":4803:4805   */\n      0x19\n        /* \"#utility.yul\":4798:4801   */\n      dup4\n        /* \"#utility.yul\":4739:4806   */\n      tag_191\n      jump\t// in\n    tag_198:\n        /* \"#utility.yul\":4732:4806   */\n      swap2\n      pop\n        /* \"#utility.yul\":4815:4908   */\n      tag_199\n        /* \"#utility.yul\":4904:4907   */\n      dup3\n        /* \"#utility.yul\":4815:4908   */\n      tag_200\n      jump\t// in\n    tag_199:\n        /* \"#utility.yul\":4933:4935   */\n      0x20\n        /* \"#utility.yul\":4928:4931   */\n      dup3\n        /* \"#utility.yul\":4924:4936   */\n      add\n        /* \"#utility.yul\":4917:4936   */\n      swap1\n      pop\n        /* \"#utility.yul\":4576:4942   */\n      swap2\n      swap1\n      pop\n      jump\t// out\n        /* \"#utility.yul\":4948:5314   */\n    tag_201:\n        /* \"#utility.yul\":5090:5093   */\n      0x00\n        /* \"#utility.yul\":5111:5178   */\n      tag_203\n        /* \"#utility.yul\":5175:5177   */\n      0x0b\n        /* \"#utility.yul\":5170:5173   */\n      dup4\n        /* \"#utility.yul\":5111:5178   */\n      tag_191\n      jump\t// in\n    tag_203:\n        /* \"#utility.yul\":5104:5178   */\n      swap2\n      pop\n        /* \"#utility.yul\":5187:5280   */\n      tag_204\n        /* \"#utility.yul\":5276:5279   */\n      dup3\n        /* \"#utility.yul\":5187:5280   */\n      tag_205\n      jump\t// in\n    tag_204:\n        /* \"#utility.yul\":5305:5307   */\n      0x20\n        /* \"#utility.yul\":5300:5303   */\n      dup3\n        /* \"#utility.yul\":5296:5308   */\n      add\n        /* \"#utility.yul\":5289:5308   */\n      swap1\n      pop\n        /* \"#utility.yul\":4948:5314   */\n      swap2\n      swap1\n      pop\n      jump\t// out\n        /* \"#utility.yul\":5320:5686   */\n    tag_206:\n        /* \"#utility.yul\":5462:5465   */\n      0x00\n        /* \"#utility.yul\":5483:5550   */\n      tag_208\n        /* \"#utility.yul\":5547:5549   */\n      0x16\n        /* \"#utility.yul\":5542:5545   */\n      dup4\n        /* \"#utility.yul\":5483:5550   */\n      tag_191\n      jump\t// in\n    tag_208:\n        /* \"#utility.yul\":5476:5550   */\n      swap2\n      pop\n        /* \"#utility.yul\":5559:5652   */\n      tag_209\n        /* \"#utility.yul\":5648:5651   */\n      dup3\n        /* \"#utility.yul\":5559:5652   */\n      tag_210\n      jump\t// in\n    tag_209:\n        /* \"#utility.yul\":5677:5679   */\n      0x20\n        /* \"#utility.yul\":5672:5675   */\n      dup3\n        /* \"#utility.yul\":5668:5680   */\n      add\n        /* \"#utility.yul\":5661:5680   */\n      swap1\n      pop\n        /* \"#utility.yul\":5320:5686   */\n      swap2\n      swap1\n      pop\n      jump\t// out\n        /* \"#utility.yul\":5692:6058   */\n    tag_211:\n        /* \"#utility.yul\":5834:5837   */\n      0x00\n        /* \"#utility.yul\":5855:5922   */\n      tag_213\n        /* \"#utility.yul\":5919:5921   */\n      0x14\n        /* \"#utility.yul\":5914:5917   */\n      dup4\n        /* \"#utility.yul\":5855:5922   */\n      tag_191\n      jump\t// in\n    tag_213:\n        /* \"#utility.yul\":5848:5922   */\n      swap2\n      pop\n        /* \"#utility.yul\":5931:6024   */\n      tag_214\n        /* \"#utility.yul\":6020:6023   */\n      dup3\n        /* \"#utility.yul\":5931:6024   */\n      tag_215\n      jump\t// in\n    tag_214:\n        /* \"#utility.yul\":6049:6051   */\n      0x20\n        /* \"#utility.yul\":6044:6047   */\n      dup3\n        /* \"#utility.yul\":6040:6052   */\n      add\n        /* \"#utility.yul\":6033:6052   */\n      swap1\n      pop\n        /* \"#utility.yul\":5692:6058   */\n      swap2\n      swap1\n      pop\n      jump\t// out\n        /* \"#utility.yul\":6064:6182   */\n    tag_216:\n        /* \"#utility.yul\":6151:6175   */\n      tag_218\n        /* \"#utility.yul\":6169:6174   */\n      dup2\n        /* \"#utility.yul\":6151:6175   */\n      tag_219\n      jump\t// in\n    tag_218:\n        /* \"#utility.yul\":6146:6149   */\n      dup3\n        /* \"#utility.yul\":6139:6176   */\n      mstore\n        /* \"#utility.yul\":6064:6182   */\n      pop\n      pop\n      jump\t// out\n        /* \"#utility.yul\":6188:6410   */\n    tag_21:\n        /* \"#utility.yul\":6281:6285   */\n      0x00\n        /* \"#utility.yul\":6319:6321   */\n      0x20\n        /* \"#utility.yul\":6308:6317   */\n      dup3\n        /* \"#utility.yul\":6304:6322   */\n      add\n        /* \"#utility.yul\":6296:6322   */\n      swap1\n      pop\n        /* \"#utility.yul\":6332:6403   */\n      tag_221\n        /* \"#utility.yul\":6400:6401   */\n      0x00\n        /* \"#utility.yul\":6389:6398   */\n      dup4\n        /* \"#utility.yul\":6385:6402   */\n      add\n        /* \"#utility.yul\":6376:6382   */\n      dup5\n        /* \"#utility.yul\":6332:6403   */\n      tag_178\n      jump\t// in\n    tag_221:\n        /* \"#utility.yul\":6188:6410   */\n      swap3\n      swap2\n      pop\n      pop\n      jump\t// out\n        /* \"#utility.yul\":6416:6961   */\n    tag_27:\n        /* \"#utility.yul\":6591:6595   */\n      0x00\n        /* \"#utility.yul\":6629:6631   */\n      0x60\n        /* \"#utility.yul\":6618:6627   */\n      dup3\n        /* \"#utility.yul\":6614:6632   */\n      add\n        /* \"#utility.yul\":6606:6632   */\n      swap1\n      pop\n        /* \"#utility.yul\":6642:6713   */\n      tag_223\n        /* \"#utility.yul\":6710:6711   */\n      0x00\n        /* \"#utility.yul\":6699:6708   */\n      dup4\n        /* \"#utility.yul\":6695:6712   */\n      add\n        /* \"#utility.yul\":6686:6692   */\n      dup7\n        /* \"#utility.yul\":6642:6713   */\n      tag_178\n      jump\t// in\n    tag_223:\n        /* \"#utility.yul\":6760:6769   */\n      dup2\n        /* \"#utility.yul\":6754:6758   */\n      dup2\n        /* \"#utility.yul\":6750:6770   */\n      sub\n        /* \"#utility.yul\":6745:6747   */\n      0x20\n        /* \"#utility.yul\":6734:6743   */\n      dup4\n        /* \"#utility.yul\":6730:6748   */\n      add\n        /* \"#utility.yul\":6723:6771   */\n      mstore\n        /* \"#utility.yul\":6788:6866   */\n      tag_224\n        /* \"#utility.yul\":6861:6865   */\n      dup2\n        /* \"#utility.yul\":6852:6858   */\n      dup6\n        /* \"#utility.yul\":6788:6866   */\n      tag_186\n      jump\t// in\n    tag_224:\n        /* \"#utility.yul\":6780:6866   */\n      swap1\n      pop\n        /* \"#utility.yul\":6876:6954   */\n      tag_225\n        /* \"#utility.yul\":6950:6952   */\n      0x40\n        /* \"#utility.yul\":6939:6948   */\n      dup4\n        /* \"#utility.yul\":6935:6953   */\n      add\n        /* \"#utility.yul\":6926:6932   */\n      dup5\n        /* \"#utility.yul\":6876:6954   */\n      tag_182\n      jump\t// in\n    tag_225:\n        /* \"#utility.yul\":6416:6961   */\n      swap5\n      swap4\n      pop\n      pop\n      pop\n      pop\n      jump\t// out\n        /* \"#utility.yul\":6967:7386   */\n    tag_77:\n        /* \"#utility.yul\":7133:7137   */\n      0x00\n        /* \"#utility.yul\":7171:7173   */\n      0x20\n        /* \"#utility.yul\":7160:7169   */\n      dup3\n        /* \"#utility.yul\":7156:7174   */\n      add\n        /* \"#utility.yul\":7148:7174   */\n      swap1\n      pop\n        /* \"#utility.yul\":7220:7229   */\n      dup2\n        /* \"#utility.yul\":7214:7218   */\n      dup2\n        /* \"#utility.yul\":7210:7230   */\n      sub\n        /* \"#utility.yul\":7206:7207   */\n      0x00\n        /* \"#utility.yul\":7195:7204   */\n      dup4\n        /* \"#utility.yul\":7191:7208   */\n      add\n        /* \"#utility.yul\":7184:7231   */\n      mstore\n        /* \"#utility.yul\":7248:7379   */\n      tag_227\n        /* \"#utility.yul\":7374:7378   */\n      dup2\n        /* \"#utility.yul\":7248:7379   */\n      tag_196\n      jump\t// in\n    tag_227:\n        /* \"#utility.yul\":7240:7379   */\n      swap1\n      pop\n        /* \"#utility.yul\":6967:7386   */\n      swap2\n      swap1\n      pop\n      jump\t// out\n        /* \"#utility.yul\":7392:7811   */\n    tag_35:\n        /* \"#utility.yul\":7558:7562   */\n      0x00\n        /* \"#utility.yul\":7596:7598   */\n      0x20\n        /* \"#utility.yul\":7585:7594   */\n      dup3\n        /* \"#utility.yul\":7581:7599   */\n      add\n        /* \"#utility.yul\":7573:7599   */\n      swap1\n      pop\n        /* \"#utility.yul\":7645:7654   */\n      dup2\n        /* \"#utility.yul\":7639:7643   */\n      dup2\n        /* \"#utility.yul\":7635:7655   */\n      sub\n        /* \"#utility.yul\":7631:7632   */\n      0x00\n        /* \"#utility.yul\":7620:7629   */\n      dup4\n        /* \"#utility.yul\":7616:7633   */\n      add\n        /* \"#utility.yul\":7609:7656   */\n      mstore\n        /* \"#utility.yul\":7673:7804   */\n      tag_229\n        /* \"#utility.yul\":7799:7803   */\n      dup2\n        /* \"#utility.yul\":7673:7804   */\n      tag_201\n      jump\t// in\n    tag_229:\n        /* \"#utility.yul\":7665:7804   */\n      swap1\n      pop\n        /* \"#utility.yul\":7392:7811   */\n      swap2\n      swap1\n      pop\n      jump\t// out\n        /* \"#utility.yul\":7817:8236   */\n    tag_63:\n        /* \"#utility.yul\":7983:7987   */\n      0x00\n        /* \"#utility.yul\":8021:8023   */\n      0x20\n        /* \"#utility.yul\":8010:8019   */\n      dup3\n        /* \"#utility.yul\":8006:8024   */\n      add\n        /* \"#utility.yul\":7998:8024   */\n      swap1\n      pop\n        /* \"#utility.yul\":8070:8079   */\n      dup2\n        /* \"#utility.yul\":8064:8068   */\n      dup2\n        /* \"#utility.yul\":8060:8080   */\n      sub\n        /* \"#utility.yul\":8056:8057   */\n      0x00\n        /* \"#utility.yul\":8045:8054   */\n      dup4\n        /* \"#utility.yul\":8041:8058   */\n      add\n        /* \"#utility.yul\":8034:8081   */\n      mstore\n        /* \"#utility.yul\":8098:8229   */\n      tag_231\n        /* \"#utility.yul\":8224:8228   */\n      dup2\n        /* \"#utility.yul\":8098:8229   */\n      tag_206\n      jump\t// in\n    tag_231:\n        /* \"#utility.yul\":8090:8229   */\n      swap1\n      pop\n        /* \"#utility.yul\":7817:8236   */\n      swap2\n      swap1\n      pop\n      jump\t// out\n        /* \"#utility.yul\":8242:8661   */\n    tag_66:\n        /* \"#utility.yul\":8408:8412   */\n      0x00\n        /* \"#utility.yul\":8446:8448   */\n      0x20\n        /* \"#utility.yul\":8435:8444   */\n      dup3\n        /* \"#utility.yul\":8431:8449   */\n      add\n        /* \"#utility.yul\":8423:8449   */\n      swap1\n      pop\n        /* \"#utility.yul\":8495:8504   */\n      dup2\n        /* \"#utility.yul\":8489:8493   */\n      dup2\n        /* \"#utility.yul\":8485:8505   */\n      sub\n        /* \"#utility.yul\":8481:8482   */\n      0x00\n        /* \"#utility.yul\":8470:8479   */\n      dup4\n        /* \"#utility.yul\":8466:8483   */\n      add\n        /* \"#utility.yul\":8459:8506   */\n      mstore\n        /* \"#utility.yul\":8523:8654   */\n      tag_233\n        /* \"#utility.yul\":8649:8653   */\n      dup2\n        /* \"#utility.yul\":8523:8654   */\n      tag_211\n      jump\t// in\n    tag_233:\n        /* \"#utility.yul\":8515:8654   */\n      swap1\n      pop\n        /* \"#utility.yul\":8242:8661   */\n      swap2\n      swap1\n      pop\n      jump\t// out\n        /* \"#utility.yul\":8667:8889   */\n    tag_17:\n        /* \"#utility.yul\":8760:8764   */\n      0x00\n        /* \"#utility.yul\":8798:8800   */\n      0x20\n        /* \"#utility.yul\":8787:8796   */\n      dup3\n        /* \"#utility.yul\":8783:8801   */\n      add\n        /* \"#utility.yul\":8775:8801   */\n      swap1\n      pop\n        /* \"#utility.yul\":8811:8882   */\n      tag_235\n        /* \"#utility.yul\":8879:8880   */\n      0x00\n        /* \"#utility.yul\":8868:8877   */\n      dup4\n        /* \"#utility.yul\":8864:8881   */\n      add\n        /* \"#utility.yul\":8855:8861   */\n      dup5\n        /* \"#utility.yul\":8811:8882   */\n      tag_216\n      jump\t// in\n    tag_235:\n        /* \"#utility.yul\":8667:8889   */\n      swap3\n      swap2\n      pop\n      pop\n      jump\t// out\n        /* \"#utility.yul\":8895:9024   */\n    tag_123:\n        /* \"#utility.yul\":8929:8935   */\n      0x00\n        /* \"#utility.yul\":8956:8976   */\n      tag_237\n      tag_238\n      jump\t// in\n    tag_237:\n        /* \"#utility.yul\":8946:8976   */\n      swap1\n      pop\n        /* \"#utility.yul\":8985:9018   */\n      tag_239\n        /* \"#utility.yul\":9013:9017   */\n      dup3\n        /* \"#utility.yul\":9005:9011   */\n      dup3\n        /* \"#utility.yul\":8985:9018   */\n      tag_240\n      jump\t// in\n    tag_239:\n        /* \"#utility.yul\":8895:9024   */\n      swap2\n      swap1\n      pop\n      jump\t// out\n        /* \"#utility.yul\":9030:9105   */\n    tag_238:\n        /* \"#utility.yul\":9063:9069   */\n      0x00\n        /* \"#utility.yul\":9096:9098   */\n      0x40\n        /* \"#utility.yul\":9090:9099   */\n      mload\n        /* \"#utility.yul\":9080:9099   */\n      swap1\n      pop\n        /* \"#utility.yul\":9030:9105   */\n      swap1\n      jump\t// out\n        /* \"#utility.yul\":9111:9422   */\n    tag_122:\n        /* \"#utility.yul\":9188:9192   */\n      0x00\n        /* \"#utility.yul\":9278:9296   */\n      0xffffffffffffffff\n        /* \"#utility.yul\":9270:9276   */\n      dup3\n        /* \"#utility.yul\":9267:9297   */\n      gt\n        /* \"#utility.yul\":9264:9320   */\n      iszero\n      tag_243\n      jumpi\n        /* \"#utility.yul\":9300:9318   */\n      tag_244\n      tag_245\n      jump\t// in\n    tag_244:\n        /* \"#utility.yul\":9264:9320   */\n    tag_243:\n        /* \"#utility.yul\":9350:9354   */\n      0x20\n        /* \"#utility.yul\":9342:9348   */\n      dup3\n        /* \"#utility.yul\":9338:9355   */\n      mul\n        /* \"#utility.yul\":9330:9355   */\n      swap1\n      pop\n        /* \"#utility.yul\":9410:9414   */\n      0x20\n        /* \"#utility.yul\":9404:9408   */\n      dup2\n        /* \"#utility.yul\":9400:9415   */\n      add\n        /* \"#utility.yul\":9392:9415   */\n      swap1\n      pop\n        /* \"#utility.yul\":9111:9422   */\n      swap2\n      swap1\n      pop\n      jump\t// out\n        /* \"#utility.yul\":9428:9736   */\n    tag_136:\n        /* \"#utility.yul\":9490:9494   */\n      0x00\n        /* \"#utility.yul\":9580:9598   */\n      0xffffffffffffffff\n        /* \"#utility.yul\":9572:9578   */\n      dup3\n        /* \"#utility.yul\":9569:9599   */\n      gt\n        /* \"#utility.yul\":9566:9622   */\n      iszero\n      tag_247\n      jumpi\n        /* \"#utility.yul\":9602:9620   */\n      tag_248\n      tag_245\n      jump\t// in\n    tag_248:\n        /* \"#utility.yul\":9566:9622   */\n    tag_247:\n        /* \"#utility.yul\":9640:9669   */\n      tag_249\n        /* \"#utility.yul\":9662:9668   */\n      dup3\n        /* \"#utility.yul\":9640:9669   */\n      tag_195\n      jump\t// in\n    tag_249:\n        /* \"#utility.yul\":9632:9669   */\n      swap1\n      pop\n        /* \"#utility.yul\":9724:9728   */\n      0x20\n        /* \"#utility.yul\":9718:9722   */\n      dup2\n        /* \"#utility.yul\":9714:9729   */\n      add\n        /* \"#utility.yul\":9706:9729   */\n      swap1\n      pop\n        /* \"#utility.yul\":9428:9736   */\n      swap2\n      swap1\n      pop\n      jump\t// out\n        /* \"#utility.yul\":9742:9841   */\n    tag_189:\n        /* \"#utility.yul\":9794:9800   */\n      0x00\n        /* \"#utility.yul\":9828:9833   */\n      dup2\n        /* \"#utility.yul\":9822:9834   */\n      mload\n        /* \"#utility.yul\":9812:9834   */\n      swap1\n      pop\n        /* \"#utility.yul\":9742:9841   */\n      swap2\n      swap1\n      pop\n      jump\t// out\n        /* \"#utility.yul\":9847:10016   */\n    tag_191:\n        /* \"#utility.yul\":9931:9942   */\n      0x00\n        /* \"#utility.yul\":9965:9971   */\n      dup3\n        /* \"#utility.yul\":9960:9963   */\n      dup3\n        /* \"#utility.yul\":9953:9972   */\n      mstore\n        /* \"#utility.yul\":10005:10009   */\n      0x20\n        /* \"#utility.yul\":10000:10003   */\n      dup3\n        /* \"#utility.yul\":9996:10010   */\n      add\n        /* \"#utility.yul\":9981:10010   */\n      swap1\n      pop\n        /* \"#utility.yul\":9847:10016   */\n      swap3\n      swap2\n      pop\n      pop\n      jump\t// out\n        /* \"#utility.yul\":10022:10213   */\n    tag_51:\n        /* \"#utility.yul\":10062:10066   */\n      0x00\n        /* \"#utility.yul\":10082:10102   */\n      tag_253\n        /* \"#utility.yul\":10100:10101   */\n      dup3\n        /* \"#utility.yul\":10082:10102   */\n      tag_219\n      jump\t// in\n    tag_253:\n        /* \"#utility.yul\":10077:10102   */\n      swap2\n      pop\n        /* \"#utility.yul\":10116:10136   */\n      tag_254\n        /* \"#utility.yul\":10134:10135   */\n      dup4\n        /* \"#utility.yul\":10116:10136   */\n      tag_219\n      jump\t// in\n    tag_254:\n        /* \"#utility.yul\":10111:10136   */\n      swap3\n      pop\n        /* \"#utility.yul\":10155:10156   */\n      dup3\n        /* \"#utility.yul\":10152:10153   */\n      dup3\n        /* \"#utility.yul\":10149:10157   */\n      lt\n        /* \"#utility.yul\":10146:10180   */\n      iszero\n      tag_255\n      jumpi\n        /* \"#utility.yul\":10160:10178   */\n      tag_256\n      tag_257\n      jump\t// in\n    tag_256:\n        /* \"#utility.yul\":10146:10180   */\n    tag_255:\n        /* \"#utility.yul\":10205:10206   */\n      dup3\n        /* \"#utility.yul\":10202:10203   */\n      dup3\n        /* \"#utility.yul\":10198:10207   */\n      sub\n        /* \"#utility.yul\":10190:10207   */\n      swap1\n      pop\n        /* \"#utility.yul\":10022:10213   */\n      swap3\n      swap2\n      pop\n      pop\n      jump\t// out\n        /* \"#utility.yul\":10219:10315   */\n    tag_181:\n        /* \"#utility.yul\":10256:10263   */\n      0x00\n        /* \"#utility.yul\":10285:10309   */\n      tag_259\n        /* \"#utility.yul\":10303:10308   */\n      dup3\n        /* \"#utility.yul\":10285:10309   */\n      tag_260\n      jump\t// in\n    tag_259:\n        /* \"#utility.yul\":10274:10309   */\n      swap1\n      pop\n        /* \"#utility.yul\":10219:10315   */\n      swap2\n      swap1\n      pop\n      jump\t// out\n        /* \"#utility.yul\":10321:10448   */\n    tag_261:\n        /* \"#utility.yul\":10366:10373   */\n      0x00\n        /* \"#utility.yul\":10395:10400   */\n      dup2\n        /* \"#utility.yul\":10384:10400   */\n      swap1\n      pop\n        /* \"#utility.yul\":10401:10442   */\n      tag_263\n        /* \"#utility.yul\":10436:10441   */\n      dup3\n        /* \"#utility.yul\":10401:10442   */\n      tag_264\n      jump\t// in\n    tag_263:\n        /* \"#utility.yul\":10321:10448   */\n      swap2\n      swap1\n      pop\n      jump\t// out\n        /* \"#utility.yul\":10454:10580   */\n    tag_260:\n        /* \"#utility.yul\":10491:10498   */\n      0x00\n        /* \"#utility.yul\":10531:10573   */\n      0xffffffffffffffffffffffffffffffffffffffff\n        /* \"#utility.yul\":10524:10529   */\n      dup3\n        /* \"#utility.yul\":10520:10574   */\n      and\n        /* \"#utility.yul\":10509:10574   */\n      swap1\n      pop\n        /* \"#utility.yul\":10454:10580   */\n      swap2\n      swap1\n      pop\n      jump\t// out\n        /* \"#utility.yul\":10586:10663   */\n    tag_219:\n        /* \"#utility.yul\":10623:10630   */\n      0x00\n        /* \"#utility.yul\":10652:10657   */\n      dup2\n        /* \"#utility.yul\":10641:10657   */\n      swap1\n      pop\n        /* \"#utility.yul\":10586:10663   */\n      swap2\n      swap1\n      pop\n      jump\t// out\n        /* \"#utility.yul\":10669:10796   */\n    tag_185:\n        /* \"#utility.yul\":10725:10734   */\n      0x00\n        /* \"#utility.yul\":10758:10790   */\n      tag_268\n        /* \"#utility.yul\":10784:10789   */\n      dup3\n        /* \"#utility.yul\":10758:10790   */\n      tag_261\n      jump\t// in\n    tag_268:\n        /* \"#utility.yul\":10745:10790   */\n      swap1\n      pop\n        /* \"#utility.yul\":10669:10796   */\n      swap2\n      swap1\n      pop\n      jump\t// out\n        /* \"#utility.yul\":10802:10956   */\n    tag_141:\n        /* \"#utility.yul\":10886:10892   */\n      dup3\n        /* \"#utility.yul\":10881:10884   */\n      dup2\n        /* \"#utility.yul\":10876:10879   */\n      dup4\n        /* \"#utility.yul\":10863:10893   */\n      calldatacopy\n        /* \"#utility.yul\":10948:10949   */\n      0x00\n        /* \"#utility.yul\":10939:10945   */\n      dup4\n        /* \"#utility.yul\":10934:10937   */\n      dup4\n        /* \"#utility.yul\":10930:10946   */\n      add\n        /* \"#utility.yul\":10923:10950   */\n      mstore\n        /* \"#utility.yul\":10802:10956   */\n      pop\n      pop\n      pop\n      jump\t// out\n        /* \"#utility.yul\":10962:11269   */\n    tag_193:\n        /* \"#utility.yul\":11030:11031   */\n      0x00\n        /* \"#utility.yul\":11040:11153   */\n    tag_271:\n        /* \"#utility.yul\":11054:11060   */\n      dup4\n        /* \"#utility.yul\":11051:11052   */\n      dup2\n        /* \"#utility.yul\":11048:11061   */\n      lt\n        /* \"#utility.yul\":11040:11153   */\n      iszero\n      tag_273\n      jumpi\n        /* \"#utility.yul\":11139:11140   */\n      dup1\n        /* \"#utility.yul\":11134:11137   */\n      dup3\n        /* \"#utility.yul\":11130:11141   */\n      add\n        /* \"#utility.yul\":11124:11142   */\n      mload\n        /* \"#utility.yul\":11120:11121   */\n      dup2\n        /* \"#utility.yul\":11115:11118   */\n      dup5\n        /* \"#utility.yul\":11111:11122   */\n      add\n        /* \"#utility.yul\":11104:11143   */\n      mstore\n        /* \"#utility.yul\":11076:11078   */\n      0x20\n        /* \"#utility.yul\":11073:11074   */\n      dup2\n        /* \"#utility.yul\":11069:11079   */\n      add\n        /* \"#utility.yul\":11064:11079   */\n      swap1\n      pop\n        /* \"#utility.yul\":11040:11153   */\n      jump(tag_271)\n    tag_273:\n        /* \"#utility.yul\":11171:11177   */\n      dup4\n        /* \"#utility.yul\":11168:11169   */\n      dup2\n        /* \"#utility.yul\":11165:11178   */\n      gt\n        /* \"#utility.yul\":11162:11263   */\n      iszero\n      tag_274\n      jumpi\n        /* \"#utility.yul\":11251:11252   */\n      0x00\n        /* \"#utility.yul\":11242:11248   */\n      dup5\n        /* \"#utility.yul\":11237:11240   */\n      dup5\n        /* \"#utility.yul\":11233:11249   */\n      add\n        /* \"#utility.yul\":11226:11253   */\n      mstore\n        /* \"#utility.yul\":11162:11263   */\n    tag_274:\n        /* \"#utility.yul\":11011:11269   */\n      pop\n        /* \"#utility.yul\":10962:11269   */\n      pop\n      pop\n      pop\n      jump\t// out\n        /* \"#utility.yul\":11275:11595   */\n    tag_55:\n        /* \"#utility.yul\":11319:11325   */\n      0x00\n        /* \"#utility.yul\":11356:11357   */\n      0x02\n        /* \"#utility.yul\":11350:11354   */\n      dup3\n        /* \"#utility.yul\":11346:11358   */\n      div\n        /* \"#utility.yul\":11336:11358   */\n      swap1\n      pop\n        /* \"#utility.yul\":11403:11404   */\n      0x01\n        /* \"#utility.yul\":11397:11401   */\n      dup3\n        /* \"#utility.yul\":11393:11405   */\n      and\n        /* \"#utility.yul\":11424:11442   */\n      dup1\n        /* \"#utility.yul\":11414:11495   */\n      tag_276\n      jumpi\n        /* \"#utility.yul\":11480:11484   */\n      0x7f\n        /* \"#utility.yul\":11472:11478   */\n      dup3\n        /* \"#utility.yul\":11468:11485   */\n      and\n        /* \"#utility.yul\":11458:11485   */\n      swap2\n      pop\n        /* \"#utility.yul\":11414:11495   */\n    tag_276:\n        /* \"#utility.yul\":11542:11544   */\n      0x20\n        /* \"#utility.yul\":11534:11540   */\n      dup3\n        /* \"#utility.yul\":11531:11545   */\n      lt\n        /* \"#utility.yul\":11511:11529   */\n      dup2\n        /* \"#utility.yul\":11508:11546   */\n      eq\n        /* \"#utility.yul\":11505:11589   */\n      iszero\n      tag_277\n      jumpi\n        /* \"#utility.yul\":11561:11579   */\n      tag_278\n      tag_279\n      jump\t// in\n    tag_278:\n        /* \"#utility.yul\":11505:11589   */\n    tag_277:\n        /* \"#utility.yul\":11326:11595   */\n      pop\n        /* \"#utility.yul\":11275:11595   */\n      swap2\n      swap1\n      pop\n      jump\t// out\n        /* \"#utility.yul\":11601:11882   */\n    tag_240:\n        /* \"#utility.yul\":11684:11711   */\n      tag_281\n        /* \"#utility.yul\":11706:11710   */\n      dup3\n        /* \"#utility.yul\":11684:11711   */\n      tag_195\n      jump\t// in\n    tag_281:\n        /* \"#utility.yul\":11676:11682   */\n      dup2\n        /* \"#utility.yul\":11672:11712   */\n      add\n        /* \"#utility.yul\":11814:11820   */\n      dup2\n        /* \"#utility.yul\":11802:11812   */\n      dup2\n        /* \"#utility.yul\":11799:11821   */\n      lt\n        /* \"#utility.yul\":11778:11796   */\n      0xffffffffffffffff\n        /* \"#utility.yul\":11766:11776   */\n      dup3\n        /* \"#utility.yul\":11763:11797   */\n      gt\n        /* \"#utility.yul\":11760:11822   */\n      or\n        /* \"#utility.yul\":11757:11845   */\n      iszero\n      tag_282\n      jumpi\n        /* \"#utility.yul\":11825:11843   */\n      tag_283\n      tag_245\n      jump\t// in\n    tag_283:\n        /* \"#utility.yul\":11757:11845   */\n    tag_282:\n        /* \"#utility.yul\":11865:11875   */\n      dup1\n        /* \"#utility.yul\":11861:11863   */\n      0x40\n        /* \"#utility.yul\":11854:11876   */\n      mstore\n        /* \"#utility.yul\":11644:11882   */\n      pop\n        /* \"#utility.yul\":11601:11882   */\n      pop\n      pop\n      jump\t// out\n        /* \"#utility.yul\":11888:12068   */\n    tag_257:\n        /* \"#utility.yul\":11936:12013   */\n      0x4e487b7100000000000000000000000000000000000000000000000000000000\n        /* \"#utility.yul\":11933:11934   */\n      0x00\n        /* \"#utility.yul\":11926:12014   */\n      mstore\n        /* \"#utility.yul\":12033:12037   */\n      0x11\n        /* \"#utility.yul\":12030:12031   */\n      0x04\n        /* \"#utility.yul\":12023:12038   */\n      mstore\n        /* \"#utility.yul\":12057:12061   */\n      0x24\n        /* \"#utility.yul\":12054:12055   */\n      0x00\n        /* \"#utility.yul\":12047:12062   */\n      revert\n        /* \"#utility.yul\":12074:12254   */\n    tag_40:\n        /* \"#utility.yul\":12122:12199   */\n      0x4e487b7100000000000000000000000000000000000000000000000000000000\n        /* \"#utility.yul\":12119:12120   */\n      0x00\n        /* \"#utility.yul\":12112:12200   */\n      mstore\n        /* \"#utility.yul\":12219:12223   */\n      0x21\n        /* \"#utility.yul\":12216:12217   */\n      0x04\n        /* \"#utility.yul\":12209:12224   */\n      mstore\n        /* \"#utility.yul\":12243:12247   */\n      0x24\n        /* \"#utility.yul\":12240:12241   */\n      0x00\n        /* \"#utility.yul\":12233:12248   */\n      revert\n        /* \"#utility.yul\":12260:12440   */\n    tag_279:\n        /* \"#utility.yul\":12308:12385   */\n      0x4e487b7100000000000000000000000000000000000000000000000000000000\n        /* \"#utility.yul\":12305:12306   */\n      0x00\n        /* \"#utility.yul\":12298:12386   */\n      mstore\n        /* \"#utility.yul\":12405:12409   */\n      0x22\n        /* \"#utility.yul\":12402:12403   */\n      0x04\n        /* \"#utility.yul\":12395:12410   */\n      mstore\n        /* \"#utility.yul\":12429:12433   */\n      0x24\n        /* \"#utility.yul\":12426:12427   */\n      0x00\n        /* \"#utility.yul\":12419:12434   */\n      revert\n        /* \"#utility.yul\":12446:12626   */\n    tag_69:\n        /* \"#utility.yul\":12494:12571   */\n      0x4e487b7100000000000000000000000000000000000000000000000000000000\n        /* \"#utility.yul\":12491:12492   */\n      0x00\n        /* \"#utility.yul\":12484:12572   */\n      mstore\n        /* \"#utility.yul\":12591:12595   */\n      0x32\n        /* \"#utility.yul\":12588:12589   */\n      0x04\n        /* \"#utility.yul\":12581:12596   */\n      mstore\n        /* \"#utility.yul\":12615:12619   */\n      0x24\n        /* \"#utility.yul\":12612:12613   */\n      0x00\n        /* \"#utility.yul\":12605:12620   */\n      revert\n        /* \"#utility.yul\":12632:12812   */\n    tag_245:\n        /* \"#utility.yul\":12680:12757   */\n      0x4e487b7100000000000000000000000000000000000000000000000000000000\n        /* \"#utility.yul\":12677:12678   */\n      0x00\n        /* \"#utility.yul\":12670:12758   */\n      mstore\n        /* \"#utility.yul\":12777:12781   */\n      0x41\n        /* \"#utility.yul\":12774:12775   */\n      0x04\n        /* \"#utility.yul\":12767:12782   */\n      mstore\n        /* \"#utility.yul\":12801:12805   */\n      0x24\n        /* \"#utility.yul\":12798:12799   */\n      0x00\n        /* \"#utility.yul\":12791:12806   */\n      revert\n        /* \"#utility.yul\":12818:12935   */\n    tag_146:\n        /* \"#utility.yul\":12927:12928   */\n      0x00\n        /* \"#utility.yul\":12924:12925   */\n      dup1\n        /* \"#utility.yul\":12917:12929   */\n      revert\n        /* \"#utility.yul\":12941:13058   */\n    tag_126:\n        /* \"#utility.yul\":13050:13051   */\n      0x00\n        /* \"#utility.yul\":13047:13048   */\n      dup1\n        /* \"#utility.yul\":13040:13052   */\n      revert\n        /* \"#utility.yul\":13064:13181   */\n    tag_139:\n        /* \"#utility.yul\":13173:13174   */\n      0x00\n        /* \"#utility.yul\":13170:13171   */\n      dup1\n        /* \"#utility.yul\":13163:13175   */\n      revert\n        /* \"#utility.yul\":13187:13304   */\n    tag_162:\n        /* \"#utility.yul\":13296:13297   */\n      0x00\n        /* \"#utility.yul\":13293:13294   */\n      dup1\n        /* \"#utility.yul\":13286:13298   */\n      revert\n        /* \"#utility.yul\":13310:13427   */\n    tag_159:\n        /* \"#utility.yul\":13419:13420   */\n      0x00\n        /* \"#utility.yul\":13416:13417   */\n      dup1\n        /* \"#utility.yul\":13409:13421   */\n      revert\n        /* \"#utility.yul\":13433:13535   */\n    tag_195:\n        /* \"#utility.yul\":13474:13480   */\n      0x00\n        /* \"#utility.yul\":13525:13527   */\n      0x1f\n        /* \"#utility.yul\":13521:13528   */\n      not\n        /* \"#utility.yul\":13516:13518   */\n      0x1f\n        /* \"#utility.yul\":13509:13514   */\n      dup4\n        /* \"#utility.yul\":13505:13519   */\n      add\n        /* \"#utility.yul\":13501:13529   */\n      and\n        /* \"#utility.yul\":13491:13529   */\n      swap1\n      pop\n        /* \"#utility.yul\":13433:13535   */\n      swap2\n      swap1\n      pop\n      jump\t// out\n        /* \"#utility.yul\":13541:13716   */\n    tag_200:\n        /* \"#utility.yul\":13681:13708   */\n      0x4f7264657220697320616c726561647920736869707065642e00000000000000\n        /* \"#utility.yul\":13677:13678   */\n      0x00\n        /* \"#utility.yul\":13669:13675   */\n      dup3\n        /* \"#utility.yul\":13665:13679   */\n      add\n        /* \"#utility.yul\":13658:13709   */\n      mstore\n        /* \"#utility.yul\":13541:13716   */\n      pop\n      jump\t// out\n        /* \"#utility.yul\":13722:13883   */\n    tag_205:\n        /* \"#utility.yul\":13862:13875   */\n      0x4e6f2070726f6475637473000000000000000000000000000000000000000000\n        /* \"#utility.yul\":13858:13859   */\n      0x00\n        /* \"#utility.yul\":13850:13856   */\n      dup3\n        /* \"#utility.yul\":13846:13860   */\n      add\n        /* \"#utility.yul\":13839:13876   */\n      mstore\n        /* \"#utility.yul\":13722:13883   */\n      pop\n      jump\t// out\n        /* \"#utility.yul\":13889:14061   */\n    tag_210:\n        /* \"#utility.yul\":14029:14053   */\n      0x596f75277265206e6f7420617574686f72697a65642e00000000000000000000\n        /* \"#utility.yul\":14025:14026   */\n      0x00\n        /* \"#utility.yul\":14017:14023   */\n      dup3\n        /* \"#utility.yul\":14013:14027   */\n      add\n        /* \"#utility.yul\":14006:14054   */\n      mstore\n        /* \"#utility.yul\":13889:14061   */\n      pop\n      jump\t// out\n        /* \"#utility.yul\":14067:14237   */\n    tag_215:\n        /* \"#utility.yul\":14207:14229   */\n      0x4e6f7420612076616c6964206f72646572206964000000000000000000000000\n        /* \"#utility.yul\":14203:14204   */\n      0x00\n        /* \"#utility.yul\":14195:14201   */\n      dup3\n        /* \"#utility.yul\":14191:14205   */\n      add\n        /* \"#utility.yul\":14184:14230   */\n      mstore\n        /* \"#utility.yul\":14067:14237   */\n      pop\n      jump\t// out\n        /* \"#utility.yul\":14243:14356   */\n    tag_264:\n        /* \"#utility.yul\":14324:14325   */\n      0x04\n        /* \"#utility.yul\":14317:14322   */\n      dup2\n        /* \"#utility.yul\":14314:14326   */\n      lt\n        /* \"#utility.yul\":14304:14350   */\n      tag_300\n      jumpi\n        /* \"#utility.yul\":14330:14348   */\n      tag_301\n      tag_40\n      jump\t// in\n    tag_301:\n        /* \"#utility.yul\":14304:14350   */\n    tag_300:\n        /* \"#utility.yul\":14243:14356   */\n      pop\n      jump\t// out\n        /* \"#utility.yul\":14362:14484   */\n    tag_155:\n        /* \"#utility.yul\":14435:14459   */\n      tag_303\n        /* \"#utility.yul\":14453:14458   */\n      dup2\n        /* \"#utility.yul\":14435:14459   */\n      tag_219\n      jump\t// in\n    tag_303:\n        /* \"#utility.yul\":14428:14433   */\n      dup2\n        /* \"#utility.yul\":14425:14460   */\n      eq\n        /* \"#utility.yul\":14415:14478   */\n      tag_304\n      jumpi\n        /* \"#utility.yul\":14474:14475   */\n      0x00\n        /* \"#utility.yul\":14471:14472   */\n      dup1\n        /* \"#utility.yul\":14464:14476   */\n      revert\n        /* \"#utility.yul\":14415:14478   */\n    tag_304:\n        /* \"#utility.yul\":14362:14484   */\n      pop\n      jump\t// out\n\n    auxdata: 0xa2646970667358221220790342a29e1835bfd9c5516261741db6898028e9adb80036a63191cdde0f09ff64736f6c63430008070033\n}\n",
				"bytecode": {
					"linkReferences": {},
					"object": "608060405234801561001057600080fd5b5033600160006101000a81548173ffffffffffffffffffffffffffffffffffffffff021916908373ffffffffffffffffffffffffffffffffffffffff160217905550610ff1806100616000396000f3fe608060405234801561001057600080fd5b50600436106100575760003560e01c8063577dc0a01461005c5780636d9a65d8146100785780638da5cb5b146100a8578063a85c38ef146100c6578063afe13a62146100f8575b600080fd5b610076600480360381019061007191906109bd565b610114565b005b610092600480360381019061008d9190610918565b610118565b60405161009f9190610be4565b60405180910390f35b6100b06102da565b6040516100bd9190610b0b565b60405180910390f35b6100e060048036038101906100db9190610990565b610300565b6040516100ef93929190610b26565b60405180910390f35b610112600480360381019061010d9190610990565b6103ef565b005b5050565b60008082511161015d576040517f08c379a000000000000000000000000000000000000000000000000000000000815260040161015490610b84565b60405180910390fd5b6101656106b5565b33816000019073ffffffffffffffffffffffffffffffffffffffff16908173ffffffffffffffffffffffffffffffffffffffff16815250508381602001819052508281604001819052506000816060019060038111156101c8576101c7610e06565b5b908160038111156101dc576101db610e06565b5b81525050600081908060018154018082558091505060019003906000526020600020906004020160009091909190915060008201518160000160006101000a81548173ffffffffffffffffffffffffffffffffffffffff021916908373ffffffffffffffffffffffffffffffffffffffff160217905550602082015181600101908051906020019061026f929190610705565b50604082015181600201908051906020019061028c92919061078b565b5060608201518160030160006101000a81548160ff021916908360038111156102b8576102b7610e06565b5b0217905550505060016000805490506102d19190610c9d565b91505092915050565b600160009054906101000a900473ffffffffffffffffffffffffffffffffffffffff1681565b6000818154811061031057600080fd5b90600052602060002090600402016000915090508060000160009054906101000a900473ffffffffffffffffffffffffffffffffffffffff169080600101805461035990610d74565b80601f016020809104026020016040519081016040528092919081815260200182805461038590610d74565b80156103d25780601f106103a7576101008083540402835291602001916103d2565b820191906000526020600020905b8154815290600101906020018083116103b557829003601f168201915b5050505050908060030160009054906101000a900460ff16905083565b600160009054906101000a900473ffffffffffffffffffffffffffffffffffffffff1673ffffffffffffffffffffffffffffffffffffffff163373ffffffffffffffffffffffffffffffffffffffff161461047f576040517f08c379a000000000000000000000000000000000000000000000000000000000815260040161047690610ba4565b60405180910390fd5b60008054905081106104c6576040517f08c379a00000000000000000000000000000000000000000000000000000000081526004016104bd90610bc4565b60405180910390fd5b60008082815481106104db576104da610e64565b5b906000526020600020906004020190506003808111156104fe576104fd610e06565b5b8160030160009054906101000a900460ff16600381111561052257610521610e06565b5b1415610563576040517f08c379a000000000000000000000000000000000000000000000000000000000815260040161055a90610b64565b60405180910390fd5b6000600381111561057757610576610e06565b5b8160030160009054906101000a900460ff16600381111561059b5761059a610e06565b5b14156105d35760018160030160006101000a81548160ff021916908360038111156105c9576105c8610e06565b5b02179055506106b1565b600160038111156105e7576105e6610e06565b5b8160030160009054906101000a900460ff16600381111561060b5761060a610e06565b5b14156106435760028160030160006101000a81548160ff0219169083600381111561063957610638610e06565b5b02179055506106b0565b6002600381111561065757610656610e06565b5b8160030160009054906101000a900460ff16600381111561067b5761067a610e06565b5b14156106af5760038160030160006101000a81548160ff021916908360038111156106a9576106a8610e06565b5b02179055505b5b5b5050565b6040518060800160405280600073ffffffffffffffffffffffffffffffffffffffff1681526020016060815260200160608152602001600060038111156106ff576106fe610e06565b5b81525090565b82805461071190610d74565b90600052602060002090601f016020900481019282610733576000855561077a565b82601f1061074c57805160ff191683800117855561077a565b8280016001018555821561077a579182015b8281111561077957825182559160200191906001019061075e565b5b50905061078791906107d8565b5090565b8280548282559060005260206000209081019282156107c7579160200282015b828111156107c65782518255916020019190600101906107ab565b5b5090506107d491906107d8565b5090565b5b808211156107f15760008160009055506001016107d9565b5090565b600061080861080384610c24565b610bff565b9050808382526020820190508285602086028201111561082b5761082a610ec7565b5b60005b8581101561085b57816108418882610903565b84526020840193506020830192505060018101905061082e565b5050509392505050565b600061087861087384610c50565b610bff565b90508281526020810184848401111561089457610893610ecc565b5b61089f848285610d32565b509392505050565b600082601f8301126108bc576108bb610ec2565b5b81356108cc8482602086016107f5565b91505092915050565b600082601f8301126108ea576108e9610ec2565b5b81356108fa848260208601610865565b91505092915050565b60008135905061091281610fa4565b92915050565b6000806040838503121561092f5761092e610ed6565b5b600083013567ffffffffffffffff81111561094d5761094c610ed1565b5b610959858286016108d5565b925050602083013567ffffffffffffffff81111561097a57610979610ed1565b5b610986858286016108a7565b9150509250929050565b6000602082840312156109a6576109a5610ed6565b5b60006109b484828501610903565b91505092915050565b600080604083850312156109d4576109d3610ed6565b5b60006109e285828601610903565b925050602083013567ffffffffffffffff811115610a0357610a02610ed1565b5b610a0f858286016108d5565b9150509250929050565b610a2281610cd1565b82525050565b610a3181610d20565b82525050565b6000610a4282610c81565b610a4c8185610c8c565b9350610a5c818560208601610d41565b610a6581610edb565b840191505092915050565b6000610a7d601983610c8c565b9150610a8882610eec565b602082019050919050565b6000610aa0600b83610c8c565b9150610aab82610f15565b602082019050919050565b6000610ac3601683610c8c565b9150610ace82610f3e565b602082019050919050565b6000610ae6601483610c8c565b9150610af182610f67565b602082019050919050565b610b0581610d16565b82525050565b6000602082019050610b206000830184610a19565b92915050565b6000606082019050610b3b6000830186610a19565b8181036020830152610b4d8185610a37565b9050610b5c6040830184610a28565b949350505050565b60006020820190508181036000830152610b7d81610a70565b9050919050565b60006020820190508181036000830152610b9d81610a93565b9050919050565b60006020820190508181036000830152610bbd81610ab6565b9050919050565b60006020820190508181036000830152610bdd81610ad9565b9050919050565b6000602082019050610bf96000830184610afc565b92915050565b6000610c09610c1a565b9050610c158282610da6565b919050565b6000604051905090565b600067ffffffffffffffff821115610c3f57610c3e610e93565b5b602082029050602081019050919050565b600067ffffffffffffffff821115610c6b57610c6a610e93565b5b610c7482610edb565b9050602081019050919050565b600081519050919050565b600082825260208201905092915050565b6000610ca882610d16565b9150610cb383610d16565b925082821015610cc657610cc5610dd7565b5b828203905092915050565b6000610cdc82610cf6565b9050919050565b6000819050610cf182610f90565b919050565b600073ffffffffffffffffffffffffffffffffffffffff82169050919050565b6000819050919050565b6000610d2b82610ce3565b9050919050565b82818337600083830152505050565b60005b83811015610d5f578082015181840152602081019050610d44565b83811115610d6e576000848401525b50505050565b60006002820490506001821680610d8c57607f821691505b60208210811415610da057610d9f610e35565b5b50919050565b610daf82610edb565b810181811067ffffffffffffffff82111715610dce57610dcd610e93565b5b80604052505050565b7f4e487b7100000000000000000000000000000000000000000000000000000000600052601160045260246000fd5b7f4e487b7100000000000000000000000000000000000000000000000000000000600052602160045260246000fd5b7f4e487b7100000000000000000000000000000000000000000000000000000000600052602260045260246000fd5b7f4e487b7100000000000000000000000000000000000000000000000000000000600052603260045260246000fd5b7f4e487b7100000000000000000000000000000000000000000000000000000000600052604160045260246000fd5b600080fd5b600080fd5b600080fd5b600080fd5b600080fd5b6000601f19601f8301169050919050565b7f4f7264657220697320616c726561647920736869707065642e00000000000000600082015250565b7f4e6f2070726f6475637473000000000000000000000000000000000000000000600082015250565b7f596f75277265206e6f7420617574686f72697a65642e00000000000000000000600082015250565b7f4e6f7420612076616c6964206f72646572206964000000000000000000000000600082015250565b60048110610fa157610fa0610e06565b5b50565b610fad81610d16565b8114610fb857600080fd5b5056fea2646970667358221220790342a29e1835bfd9c5516261741db6898028e9adb80036a63191cdde0f09ff64736f6c63430008070033",
					"opcodes": "PUSH1 0x80 PUSH1 0x40 MSTORE CALLVALUE DUP1 ISZERO PUSH2 0x10 JUMPI PUSH1 0x0 DUP1 REVERT JUMPDEST POP CALLER PUSH1 0x1 PUSH1 0x0 PUSH2 0x100 EXP DUP2 SLOAD DUP2 PUSH20 0xFFFFFFFFFFFFFFFFFFFFFFFFFFFFFFFFFFFFFFFF MUL NOT AND SWAP1 DUP4 PUSH20 0xFFFFFFFFFFFFFFFFFFFFFFFFFFFFFFFFFFFFFFFF AND MUL OR SWAP1 SSTORE POP PUSH2 0xFF1 DUP1 PUSH2 0x61 PUSH1 0x0 CODECOPY PUSH1 0x0 RETURN INVALID PUSH1 0x80 PUSH1 0x40 MSTORE CALLVALUE DUP1 ISZERO PUSH2 0x10 JUMPI PUSH1 0x0 DUP1 REVERT JUMPDEST POP PUSH1 0x4 CALLDATASIZE LT PUSH2 0x57 JUMPI PUSH1 0x0 CALLDATALOAD PUSH1 0xE0 SHR DUP1 PUSH4 0x577DC0A0 EQ PUSH2 0x5C JUMPI DUP1 PUSH4 0x6D9A65D8 EQ PUSH2 0x78 JUMPI DUP1 PUSH4 0x8DA5CB5B EQ PUSH2 0xA8 JUMPI DUP1 PUSH4 0xA85C38EF EQ PUSH2 0xC6 JUMPI DUP1 PUSH4 0xAFE13A62 EQ PUSH2 0xF8 JUMPI JUMPDEST PUSH1 0x0 DUP1 REVERT JUMPDEST PUSH2 0x76 PUSH1 0x4 DUP1 CALLDATASIZE SUB DUP2 ADD SWAP1 PUSH2 0x71 SWAP2 SWAP1 PUSH2 0x9BD JUMP JUMPDEST PUSH2 0x114 JUMP JUMPDEST STOP JUMPDEST PUSH2 0x92 PUSH1 0x4 DUP1 CALLDATASIZE SUB DUP2 ADD SWAP1 PUSH2 0x8D SWAP2 SWAP1 PUSH2 0x918 JUMP JUMPDEST PUSH2 0x118 JUMP JUMPDEST PUSH1 0x40 MLOAD PUSH2 0x9F SWAP2 SWAP1 PUSH2 0xBE4 JUMP JUMPDEST PUSH1 0x40 MLOAD DUP1 SWAP2 SUB SWAP1 RETURN JUMPDEST PUSH2 0xB0 PUSH2 0x2DA JUMP JUMPDEST PUSH1 0x40 MLOAD PUSH2 0xBD SWAP2 SWAP1 PUSH2 0xB0B JUMP JUMPDEST PUSH1 0x40 MLOAD DUP1 SWAP2 SUB SWAP1 RETURN JUMPDEST PUSH2 0xE0 PUSH1 0x4 DUP1 CALLDATASIZE SUB DUP2 ADD SWAP1 PUSH2 0xDB SWAP2 SWAP1 PUSH2 0x990 JUMP JUMPDEST PUSH2 0x300 JUMP JUMPDEST PUSH1 0x40 MLOAD PUSH2 0xEF SWAP4 SWAP3 SWAP2 SWAP1 PUSH2 0xB26 JUMP JUMPDEST PUSH1 0x40 MLOAD DUP1 SWAP2 SUB SWAP1 RETURN JUMPDEST PUSH2 0x112 PUSH1 0x4 DUP1 CALLDATASIZE SUB DUP2 ADD SWAP1 PUSH2 0x10D SWAP2 SWAP1 PUSH2 0x990 JUMP JUMPDEST PUSH2 0x3EF JUMP JUMPDEST STOP JUMPDEST POP POP JUMP JUMPDEST PUSH1 0x0 DUP1 DUP3 MLOAD GT PUSH2 0x15D JUMPI PUSH1 0x40 MLOAD PUSH32 0x8C379A000000000000000000000000000000000000000000000000000000000 DUP2 MSTORE PUSH1 0x4 ADD PUSH2 0x154 SWAP1 PUSH2 0xB84 JUMP JUMPDEST PUSH1 0x40 MLOAD DUP1 SWAP2 SUB SWAP1 REVERT JUMPDEST PUSH2 0x165 PUSH2 0x6B5 JUMP JUMPDEST CALLER DUP2 PUSH1 0x0 ADD SWAP1 PUSH20 0xFFFFFFFFFFFFFFFFFFFFFFFFFFFFFFFFFFFFFFFF AND SWAP1 DUP2 PUSH20 0xFFFFFFFFFFFFFFFFFFFFFFFFFFFFFFFFFFFFFFFF AND DUP2 MSTORE POP POP DUP4 DUP2 PUSH1 0x20 ADD DUP2 SWAP1 MSTORE POP DUP3 DUP2 PUSH1 0x40 ADD DUP2 SWAP1 MSTORE POP PUSH1 0x0 DUP2 PUSH1 0x60 ADD SWAP1 PUSH1 0x3 DUP2 GT ISZERO PUSH2 0x1C8 JUMPI PUSH2 0x1C7 PUSH2 0xE06 JUMP JUMPDEST JUMPDEST SWAP1 DUP2 PUSH1 0x3 DUP2 GT ISZERO PUSH2 0x1DC JUMPI PUSH2 0x1DB PUSH2 0xE06 JUMP JUMPDEST JUMPDEST DUP2 MSTORE POP POP PUSH1 0x0 DUP2 SWAP1 DUP1 PUSH1 0x1 DUP2 SLOAD ADD DUP1 DUP3 SSTORE DUP1 SWAP2 POP POP PUSH1 0x1 SWAP1 SUB SWAP1 PUSH1 0x0 MSTORE PUSH1 0x20 PUSH1 0x0 KECCAK256 SWAP1 PUSH1 0x4 MUL ADD PUSH1 0x0 SWAP1 SWAP2 SWAP1 SWAP2 SWAP1 SWAP2 POP PUSH1 0x0 DUP3 ADD MLOAD DUP2 PUSH1 0x0 ADD PUSH1 0x0 PUSH2 0x100 EXP DUP2 SLOAD DUP2 PUSH20 0xFFFFFFFFFFFFFFFFFFFFFFFFFFFFFFFFFFFFFFFF MUL NOT AND SWAP1 DUP4 PUSH20 0xFFFFFFFFFFFFFFFFFFFFFFFFFFFFFFFFFFFFFFFF AND MUL OR SWAP1 SSTORE POP PUSH1 0x20 DUP3 ADD MLOAD DUP2 PUSH1 0x1 ADD SWAP1 DUP1 MLOAD SWAP1 PUSH1 0x20 ADD SWAP1 PUSH2 0x26F SWAP3 SWAP2 SWAP1 PUSH2 0x705 JUMP JUMPDEST POP PUSH1 0x40 DUP3 ADD MLOAD DUP2 PUSH1 0x2 ADD SWAP1 DUP1 MLOAD SWAP1 PUSH1 0x20 ADD SWAP1 PUSH2 0x28C SWAP3 SWAP2 SWAP1 PUSH2 0x78B JUMP JUMPDEST POP PUSH1 0x60 DUP3 ADD MLOAD DUP2 PUSH1 0x3 ADD PUSH1 0x0 PUSH2 0x100 EXP DUP2 SLOAD DUP2 PUSH1 0xFF MUL NOT AND SWAP1 DUP4 PUSH1 0x3 DUP2 GT ISZERO PUSH2 0x2B8 JUMPI PUSH2 0x2B7 PUSH2 0xE06 JUMP JUMPDEST JUMPDEST MUL OR SWAP1 SSTORE POP POP POP PUSH1 0x1 PUSH1 0x0 DUP1 SLOAD SWAP1 POP PUSH2 0x2D1 SWAP2 SWAP1 PUSH2 0xC9D JUMP JUMPDEST SWAP2 POP POP SWAP3 SWAP2 POP POP JUMP JUMPDEST PUSH1 0x1 PUSH1 0x0 SWAP1 SLOAD SWAP1 PUSH2 0x100 EXP SWAP1 DIV PUSH20 0xFFFFFFFFFFFFFFFFFFFFFFFFFFFFFFFFFFFFFFFF AND DUP2 JUMP JUMPDEST PUSH1 0x0 DUP2 DUP2 SLOAD DUP2 LT PUSH2 0x310 JUMPI PUSH1 0x0 DUP1 REVERT JUMPDEST SWAP1 PUSH1 0x0 MSTORE PUSH1 0x20 PUSH1 0x0 KECCAK256 SWAP1 PUSH1 0x4 MUL ADD PUSH1 0x0 SWAP2 POP SWAP1 POP DUP1 PUSH1 0x0 ADD PUSH1 0x0 SWAP1 SLOAD SWAP1 PUSH2 0x100 EXP SWAP1 DIV PUSH20 0xFFFFFFFFFFFFFFFFFFFFFFFFFFFFFFFFFFFFFFFF AND SWAP1 DUP1 PUSH1 0x1 ADD DUP1 SLOAD PUSH2 0x359 SWAP1 PUSH2 0xD74 JUMP JUMPDEST DUP1 PUSH1 0x1F ADD PUSH1 0x20 DUP1 SWAP2 DIV MUL PUSH1 0x20 ADD PUSH1 0x40 MLOAD SWAP1 DUP2 ADD PUSH1 0x40 MSTORE DUP1 SWAP3 SWAP2 SWAP1 DUP2 DUP2 MSTORE PUSH1 0x20 ADD DUP3 DUP1 SLOAD PUSH2 0x385 SWAP1 PUSH2 0xD74 JUMP JUMPDEST DUP1 ISZERO PUSH2 0x3D2 JUMPI DUP1 PUSH1 0x1F LT PUSH2 0x3A7 JUMPI PUSH2 0x100 DUP1 DUP4 SLOAD DIV MUL DUP4 MSTORE SWAP2 PUSH1 0x20 ADD SWAP2 PUSH2 0x3D2 JUMP JUMPDEST DUP3 ADD SWAP2 SWAP1 PUSH1 0x0 MSTORE PUSH1 0x20 PUSH1 0x0 KECCAK256 SWAP1 JUMPDEST DUP2 SLOAD DUP2 MSTORE SWAP1 PUSH1 0x1 ADD SWAP1 PUSH1 0x20 ADD DUP1 DUP4 GT PUSH2 0x3B5 JUMPI DUP3 SWAP1 SUB PUSH1 0x1F AND DUP3 ADD SWAP2 JUMPDEST POP POP POP POP POP SWAP1 DUP1 PUSH1 0x3 ADD PUSH1 0x0 SWAP1 SLOAD SWAP1 PUSH2 0x100 EXP SWAP1 DIV PUSH1 0xFF AND SWAP1 POP DUP4 JUMP JUMPDEST PUSH1 0x1 PUSH1 0x0 SWAP1 SLOAD SWAP1 PUSH2 0x100 EXP SWAP1 DIV PUSH20 0xFFFFFFFFFFFFFFFFFFFFFFFFFFFFFFFFFFFFFFFF AND PUSH20 0xFFFFFFFFFFFFFFFFFFFFFFFFFFFFFFFFFFFFFFFF AND CALLER PUSH20 0xFFFFFFFFFFFFFFFFFFFFFFFFFFFFFFFFFFFFFFFF AND EQ PUSH2 0x47F JUMPI PUSH1 0x40 MLOAD PUSH32 0x8C379A000000000000000000000000000000000000000000000000000000000 DUP2 MSTORE PUSH1 0x4 ADD PUSH2 0x476 SWAP1 PUSH2 0xBA4 JUMP JUMPDEST PUSH1 0x40 MLOAD DUP1 SWAP2 SUB SWAP1 REVERT JUMPDEST PUSH1 0x0 DUP1 SLOAD SWAP1 POP DUP2 LT PUSH2 0x4C6 JUMPI PUSH1 0x40 MLOAD PUSH32 0x8C379A000000000000000000000000000000000000000000000000000000000 DUP2 MSTORE PUSH1 0x4 ADD PUSH2 0x4BD SWAP1 PUSH2 0xBC4 JUMP JUMPDEST PUSH1 0x40 MLOAD DUP1 SWAP2 SUB SWAP1 REVERT JUMPDEST PUSH1 0x0 DUP1 DUP3 DUP2 SLOAD DUP2 LT PUSH2 0x4DB JUMPI PUSH2 0x4DA PUSH2 0xE64 JUMP JUMPDEST JUMPDEST SWAP1 PUSH1 0x0 MSTORE PUSH1 0x20 PUSH1 0x0 KECCAK256 SWAP1 PUSH1 0x4 MUL ADD SWAP1 POP PUSH1 0x3 DUP1 DUP2 GT ISZERO PUSH2 0x4FE JUMPI PUSH2 0x4FD PUSH2 0xE06 JUMP JUMPDEST JUMPDEST DUP2 PUSH1 0x3 ADD PUSH1 0x0 SWAP1 SLOAD SWAP1 PUSH2 0x100 EXP SWAP1 DIV PUSH1 0xFF AND PUSH1 0x3 DUP2 GT ISZERO PUSH2 0x522 JUMPI PUSH2 0x521 PUSH2 0xE06 JUMP JUMPDEST JUMPDEST EQ ISZERO PUSH2 0x563 JUMPI PUSH1 0x40 MLOAD PUSH32 0x8C379A000000000000000000000000000000000000000000000000000000000 DUP2 MSTORE PUSH1 0x4 ADD PUSH2 0x55A SWAP1 PUSH2 0xB64 JUMP JUMPDEST PUSH1 0x40 MLOAD DUP1 SWAP2 SUB SWAP1 REVERT JUMPDEST PUSH1 0x0 PUSH1 0x3 DUP2 GT ISZERO PUSH2 0x577 JUMPI PUSH2 0x576 PUSH2 0xE06 JUMP JUMPDEST JUMPDEST DUP2 PUSH1 0x3 ADD PUSH1 0x0 SWAP1 SLOAD SWAP1 PUSH2 0x100 EXP SWAP1 DIV PUSH1 0xFF AND PUSH1 0x3 DUP2 GT ISZERO PUSH2 0x59B JUMPI PUSH2 0x59A PUSH2 0xE06 JUMP JUMPDEST JUMPDEST EQ ISZERO PUSH2 0x5D3 JUMPI PUSH1 0x1 DUP2 PUSH1 0x3 ADD PUSH1 0x0 PUSH2 0x100 EXP DUP2 SLOAD DUP2 PUSH1 0xFF MUL NOT AND SWAP1 DUP4 PUSH1 0x3 DUP2 GT ISZERO PUSH2 0x5C9 JUMPI PUSH2 0x5C8 PUSH2 0xE06 JUMP JUMPDEST JUMPDEST MUL OR SWAP1 SSTORE POP PUSH2 0x6B1 JUMP JUMPDEST PUSH1 0x1 PUSH1 0x3 DUP2 GT ISZERO PUSH2 0x5E7 JUMPI PUSH2 0x5E6 PUSH2 0xE06 JUMP JUMPDEST JUMPDEST DUP2 PUSH1 0x3 ADD PUSH1 0x0 SWAP1 SLOAD SWAP1 PUSH2 0x100 EXP SWAP1 DIV PUSH1 0xFF AND PUSH1 0x3 DUP2 GT ISZERO PUSH2 0x60B JUMPI PUSH2 0x60A PUSH2 0xE06 JUMP JUMPDEST JUMPDEST EQ ISZERO PUSH2 0x643 JUMPI PUSH1 0x2 DUP2 PUSH1 0x3 ADD PUSH1 0x0 PUSH2 0x100 EXP DUP2 SLOAD DUP2 PUSH1 0xFF MUL NOT AND SWAP1 DUP4 PUSH1 0x3 DUP2 GT ISZERO PUSH2 0x639 JUMPI PUSH2 0x638 PUSH2 0xE06 JUMP JUMPDEST JUMPDEST MUL OR SWAP1 SSTORE POP PUSH2 0x6B0 JUMP JUMPDEST PUSH1 0x2 PUSH1 0x3 DUP2 GT ISZERO PUSH2 0x657 JUMPI PUSH2 0x656 PUSH2 0xE06 JUMP JUMPDEST JUMPDEST DUP2 PUSH1 0x3 ADD PUSH1 0x0 SWAP1 SLOAD SWAP1 PUSH2 0x100 EXP SWAP1 DIV PUSH1 0xFF AND PUSH1 0x3 DUP2 GT ISZERO PUSH2 0x67B JUMPI PUSH2 0x67A PUSH2 0xE06 JUMP JUMPDEST JUMPDEST EQ ISZERO PUSH2 0x6AF JUMPI PUSH1 0x3 DUP2 PUSH1 0x3 ADD PUSH1 0x0 PUSH2 0x100 EXP DUP2 SLOAD DUP2 PUSH1 0xFF MUL NOT AND SWAP1 DUP4 PUSH1 0x3 DUP2 GT ISZERO PUSH2 0x6A9 JUMPI PUSH2 0x6A8 PUSH2 0xE06 JUMP JUMPDEST JUMPDEST MUL OR SWAP1 SSTORE POP JUMPDEST JUMPDEST JUMPDEST POP POP JUMP JUMPDEST PUSH1 0x40 MLOAD DUP1 PUSH1 0x80 ADD PUSH1 0x40 MSTORE DUP1 PUSH1 0x0 PUSH20 0xFFFFFFFFFFFFFFFFFFFFFFFFFFFFFFFFFFFFFFFF AND DUP2 MSTORE PUSH1 0x20 ADD PUSH1 0x60 DUP2 MSTORE PUSH1 0x20 ADD PUSH1 0x60 DUP2 MSTORE PUSH1 0x20 ADD PUSH1 0x0 PUSH1 0x3 DUP2 GT ISZERO PUSH2 0x6FF JUMPI PUSH2 0x6FE PUSH2 0xE06 JUMP JUMPDEST JUMPDEST DUP2 MSTORE POP SWAP1 JUMP JUMPDEST DUP3 DUP1 SLOAD PUSH2 0x711 SWAP1 PUSH2 0xD74 JUMP JUMPDEST SWAP1 PUSH1 0x0 MSTORE PUSH1 0x20 PUSH1 0x0 KECCAK256 SWAP1 PUSH1 0x1F ADD PUSH1 0x20 SWAP1 DIV DUP2 ADD SWAP3 DUP3 PUSH2 0x733 JUMPI PUSH1 0x0 DUP6 SSTORE PUSH2 0x77A JUMP JUMPDEST DUP3 PUSH1 0x1F LT PUSH2 0x74C JUMPI DUP1 MLOAD PUSH1 0xFF NOT AND DUP4 DUP1 ADD OR DUP6 SSTORE PUSH2 0x77A JUMP JUMPDEST DUP3 DUP1 ADD PUSH1 0x1 ADD DUP6 SSTORE DUP3 ISZERO PUSH2 0x77A JUMPI SWAP2 DUP3 ADD JUMPDEST DUP3 DUP2 GT ISZERO PUSH2 0x779 JUMPI DUP3 MLOAD DUP3 SSTORE SWAP2 PUSH1 0x20 ADD SWAP2 SWAP1 PUSH1 0x1 ADD SWAP1 PUSH2 0x75E JUMP JUMPDEST JUMPDEST POP SWAP1 POP PUSH2 0x787 SWAP2 SWAP1 PUSH2 0x7D8 JUMP JUMPDEST POP SWAP1 JUMP JUMPDEST DUP3 DUP1 SLOAD DUP3 DUP3 SSTORE SWAP1 PUSH1 0x0 MSTORE PUSH1 0x20 PUSH1 0x0 KECCAK256 SWAP1 DUP2 ADD SWAP3 DUP3 ISZERO PUSH2 0x7C7 JUMPI SWAP2 PUSH1 0x20 MUL DUP3 ADD JUMPDEST DUP3 DUP2 GT ISZERO PUSH2 0x7C6 JUMPI DUP3 MLOAD DUP3 SSTORE SWAP2 PUSH1 0x20 ADD SWAP2 SWAP1 PUSH1 0x1 ADD SWAP1 PUSH2 0x7AB JUMP JUMPDEST JUMPDEST POP SWAP1 POP PUSH2 0x7D4 SWAP2 SWAP1 PUSH2 0x7D8 JUMP JUMPDEST POP SWAP1 JUMP JUMPDEST JUMPDEST DUP1 DUP3 GT ISZERO PUSH2 0x7F1 JUMPI PUSH1 0x0 DUP2 PUSH1 0x0 SWAP1 SSTORE POP PUSH1 0x1 ADD PUSH2 0x7D9 JUMP JUMPDEST POP SWAP1 JUMP JUMPDEST PUSH1 0x0 PUSH2 0x808 PUSH2 0x803 DUP5 PUSH2 0xC24 JUMP JUMPDEST PUSH2 0xBFF JUMP JUMPDEST SWAP1 POP DUP1 DUP4 DUP3 MSTORE PUSH1 0x20 DUP3 ADD SWAP1 POP DUP3 DUP6 PUSH1 0x20 DUP7 MUL DUP3 ADD GT ISZERO PUSH2 0x82B JUMPI PUSH2 0x82A PUSH2 0xEC7 JUMP JUMPDEST JUMPDEST PUSH1 0x0 JUMPDEST DUP6 DUP2 LT ISZERO PUSH2 0x85B JUMPI DUP2 PUSH2 0x841 DUP9 DUP3 PUSH2 0x903 JUMP JUMPDEST DUP5 MSTORE PUSH1 0x20 DUP5 ADD SWAP4 POP PUSH1 0x20 DUP4 ADD SWAP3 POP POP PUSH1 0x1 DUP2 ADD SWAP1 POP PUSH2 0x82E JUMP JUMPDEST POP POP POP SWAP4 SWAP3 POP POP POP JUMP JUMPDEST PUSH1 0x0 PUSH2 0x878 PUSH2 0x873 DUP5 PUSH2 0xC50 JUMP JUMPDEST PUSH2 0xBFF JUMP JUMPDEST SWAP1 POP DUP3 DUP2 MSTORE PUSH1 0x20 DUP2 ADD DUP5 DUP5 DUP5 ADD GT ISZERO PUSH2 0x894 JUMPI PUSH2 0x893 PUSH2 0xECC JUMP JUMPDEST JUMPDEST PUSH2 0x89F DUP5 DUP3 DUP6 PUSH2 0xD32 JUMP JUMPDEST POP SWAP4 SWAP3 POP POP POP JUMP JUMPDEST PUSH1 0x0 DUP3 PUSH1 0x1F DUP4 ADD SLT PUSH2 0x8BC JUMPI PUSH2 0x8BB PUSH2 0xEC2 JUMP JUMPDEST JUMPDEST DUP2 CALLDATALOAD PUSH2 0x8CC DUP5 DUP3 PUSH1 0x20 DUP7 ADD PUSH2 0x7F5 JUMP JUMPDEST SWAP2 POP POP SWAP3 SWAP2 POP POP JUMP JUMPDEST PUSH1 0x0 DUP3 PUSH1 0x1F DUP4 ADD SLT PUSH2 0x8EA JUMPI PUSH2 0x8E9 PUSH2 0xEC2 JUMP JUMPDEST JUMPDEST DUP2 CALLDATALOAD PUSH2 0x8FA DUP5 DUP3 PUSH1 0x20 DUP7 ADD PUSH2 0x865 JUMP JUMPDEST SWAP2 POP POP SWAP3 SWAP2 POP POP JUMP JUMPDEST PUSH1 0x0 DUP2 CALLDATALOAD SWAP1 POP PUSH2 0x912 DUP2 PUSH2 0xFA4 JUMP JUMPDEST SWAP3 SWAP2 POP POP JUMP JUMPDEST PUSH1 0x0 DUP1 PUSH1 0x40 DUP4 DUP6 SUB SLT ISZERO PUSH2 0x92F JUMPI PUSH2 0x92E PUSH2 0xED6 JUMP JUMPDEST JUMPDEST PUSH1 0x0 DUP4 ADD CALLDATALOAD PUSH8 0xFFFFFFFFFFFFFFFF DUP2 GT ISZERO PUSH2 0x94D JUMPI PUSH2 0x94C PUSH2 0xED1 JUMP JUMPDEST JUMPDEST PUSH2 0x959 DUP6 DUP3 DUP7 ADD PUSH2 0x8D5 JUMP JUMPDEST SWAP3 POP POP PUSH1 0x20 DUP4 ADD CALLDATALOAD PUSH8 0xFFFFFFFFFFFFFFFF DUP2 GT ISZERO PUSH2 0x97A JUMPI PUSH2 0x979 PUSH2 0xED1 JUMP JUMPDEST JUMPDEST PUSH2 0x986 DUP6 DUP3 DUP7 ADD PUSH2 0x8A7 JUMP JUMPDEST SWAP2 POP POP SWAP3 POP SWAP3 SWAP1 POP JUMP JUMPDEST PUSH1 0x0 PUSH1 0x20 DUP3 DUP5 SUB SLT ISZERO PUSH2 0x9A6 JUMPI PUSH2 0x9A5 PUSH2 0xED6 JUMP JUMPDEST JUMPDEST PUSH1 0x0 PUSH2 0x9B4 DUP5 DUP3 DUP6 ADD PUSH2 0x903 JUMP JUMPDEST SWAP2 POP POP SWAP3 SWAP2 POP POP JUMP JUMPDEST PUSH1 0x0 DUP1 PUSH1 0x40 DUP4 DUP6 SUB SLT ISZERO PUSH2 0x9D4 JUMPI PUSH2 0x9D3 PUSH2 0xED6 JUMP JUMPDEST JUMPDEST PUSH1 0x0 PUSH2 0x9E2 DUP6 DUP3 DUP7 ADD PUSH2 0x903 JUMP JUMPDEST SWAP3 POP POP PUSH1 0x20 DUP4 ADD CALLDATALOAD PUSH8 0xFFFFFFFFFFFFFFFF DUP2 GT ISZERO PUSH2 0xA03 JUMPI PUSH2 0xA02 PUSH2 0xED1 JUMP JUMPDEST JUMPDEST PUSH2 0xA0F DUP6 DUP3 DUP7 ADD PUSH2 0x8D5 JUMP JUMPDEST SWAP2 POP POP SWAP3 POP SWAP3 SWAP1 POP JUMP JUMPDEST PUSH2 0xA22 DUP2 PUSH2 0xCD1 JUMP JUMPDEST DUP3 MSTORE POP POP JUMP JUMPDEST PUSH2 0xA31 DUP2 PUSH2 0xD20 JUMP JUMPDEST DUP3 MSTORE POP POP JUMP JUMPDEST PUSH1 0x0 PUSH2 0xA42 DUP3 PUSH2 0xC81 JUMP JUMPDEST PUSH2 0xA4C DUP2 DUP6 PUSH2 0xC8C JUMP JUMPDEST SWAP4 POP PUSH2 0xA5C DUP2 DUP6 PUSH1 0x20 DUP7 ADD PUSH2 0xD41 JUMP JUMPDEST PUSH2 0xA65 DUP2 PUSH2 0xEDB JUMP JUMPDEST DUP5 ADD SWAP2 POP POP SWAP3 SWAP2 POP POP JUMP JUMPDEST PUSH1 0x0 PUSH2 0xA7D PUSH1 0x19 DUP4 PUSH2 0xC8C JUMP JUMPDEST SWAP2 POP PUSH2 0xA88 DUP3 PUSH2 0xEEC JUMP JUMPDEST PUSH1 0x20 DUP3 ADD SWAP1 POP SWAP2 SWAP1 POP JUMP JUMPDEST PUSH1 0x0 PUSH2 0xAA0 PUSH1 0xB DUP4 PUSH2 0xC8C JUMP JUMPDEST SWAP2 POP PUSH2 0xAAB DUP3 PUSH2 0xF15 JUMP JUMPDEST PUSH1 0x20 DUP3 ADD SWAP1 POP SWAP2 SWAP1 POP JUMP JUMPDEST PUSH1 0x0 PUSH2 0xAC3 PUSH1 0x16 DUP4 PUSH2 0xC8C JUMP JUMPDEST SWAP2 POP PUSH2 0xACE DUP3 PUSH2 0xF3E JUMP JUMPDEST PUSH1 0x20 DUP3 ADD SWAP1 POP SWAP2 SWAP1 POP JUMP JUMPDEST PUSH1 0x0 PUSH2 0xAE6 PUSH1 0x14 DUP4 PUSH2 0xC8C JUMP JUMPDEST SWAP2 POP PUSH2 0xAF1 DUP3 PUSH2 0xF67 JUMP JUMPDEST PUSH1 0x20 DUP3 ADD SWAP1 POP SWAP2 SWAP1 POP JUMP JUMPDEST PUSH2 0xB05 DUP2 PUSH2 0xD16 JUMP JUMPDEST DUP3 MSTORE POP POP JUMP JUMPDEST PUSH1 0x0 PUSH1 0x20 DUP3 ADD SWAP1 POP PUSH2 0xB20 PUSH1 0x0 DUP4 ADD DUP5 PUSH2 0xA19 JUMP JUMPDEST SWAP3 SWAP2 POP POP JUMP JUMPDEST PUSH1 0x0 PUSH1 0x60 DUP3 ADD SWAP1 POP PUSH2 0xB3B PUSH1 0x0 DUP4 ADD DUP7 PUSH2 0xA19 JUMP JUMPDEST DUP2 DUP2 SUB PUSH1 0x20 DUP4 ADD MSTORE PUSH2 0xB4D DUP2 DUP6 PUSH2 0xA37 JUMP JUMPDEST SWAP1 POP PUSH2 0xB5C PUSH1 0x40 DUP4 ADD DUP5 PUSH2 0xA28 JUMP JUMPDEST SWAP5 SWAP4 POP POP POP POP JUMP JUMPDEST PUSH1 0x0 PUSH1 0x20 DUP3 ADD SWAP1 POP DUP2 DUP2 SUB PUSH1 0x0 DUP4 ADD MSTORE PUSH2 0xB7D DUP2 PUSH2 0xA70 JUMP JUMPDEST SWAP1 POP SWAP2 SWAP1 POP JUMP JUMPDEST PUSH1 0x0 PUSH1 0x20 DUP3 ADD SWAP1 POP DUP2 DUP2 SUB PUSH1 0x0 DUP4 ADD MSTORE PUSH2 0xB9D DUP2 PUSH2 0xA93 JUMP JUMPDEST SWAP1 POP SWAP2 SWAP1 POP JUMP JUMPDEST PUSH1 0x0 PUSH1 0x20 DUP3 ADD SWAP1 POP DUP2 DUP2 SUB PUSH1 0x0 DUP4 ADD MSTORE PUSH2 0xBBD DUP2 PUSH2 0xAB6 JUMP JUMPDEST SWAP1 POP SWAP2 SWAP1 POP JUMP JUMPDEST PUSH1 0x0 PUSH1 0x20 DUP3 ADD SWAP1 POP DUP2 DUP2 SUB PUSH1 0x0 DUP4 ADD MSTORE PUSH2 0xBDD DUP2 PUSH2 0xAD9 JUMP JUMPDEST SWAP1 POP SWAP2 SWAP1 POP JUMP JUMPDEST PUSH1 0x0 PUSH1 0x20 DUP3 ADD SWAP1 POP PUSH2 0xBF9 PUSH1 0x0 DUP4 ADD DUP5 PUSH2 0xAFC JUMP JUMPDEST SWAP3 SWAP2 POP POP JUMP JUMPDEST PUSH1 0x0 PUSH2 0xC09 PUSH2 0xC1A JUMP JUMPDEST SWAP1 POP PUSH2 0xC15 DUP3 DUP3 PUSH2 0xDA6 JUMP JUMPDEST SWAP2 SWAP1 POP JUMP JUMPDEST PUSH1 0x0 PUSH1 0x40 MLOAD SWAP1 POP SWAP1 JUMP JUMPDEST PUSH1 0x0 PUSH8 0xFFFFFFFFFFFFFFFF DUP3 GT ISZERO PUSH2 0xC3F JUMPI PUSH2 0xC3E PUSH2 0xE93 JUMP JUMPDEST JUMPDEST PUSH1 0x20 DUP3 MUL SWAP1 POP PUSH1 0x20 DUP2 ADD SWAP1 POP SWAP2 SWAP1 POP JUMP JUMPDEST PUSH1 0x0 PUSH8 0xFFFFFFFFFFFFFFFF DUP3 GT ISZERO PUSH2 0xC6B JUMPI PUSH2 0xC6A PUSH2 0xE93 JUMP JUMPDEST JUMPDEST PUSH2 0xC74 DUP3 PUSH2 0xEDB JUMP JUMPDEST SWAP1 POP PUSH1 0x20 DUP2 ADD SWAP1 POP SWAP2 SWAP1 POP JUMP JUMPDEST PUSH1 0x0 DUP2 MLOAD SWAP1 POP SWAP2 SWAP1 POP JUMP JUMPDEST PUSH1 0x0 DUP3 DUP3 MSTORE PUSH1 0x20 DUP3 ADD SWAP1 POP SWAP3 SWAP2 POP POP JUMP JUMPDEST PUSH1 0x0 PUSH2 0xCA8 DUP3 PUSH2 0xD16 JUMP JUMPDEST SWAP2 POP PUSH2 0xCB3 DUP4 PUSH2 0xD16 JUMP JUMPDEST SWAP3 POP DUP3 DUP3 LT ISZERO PUSH2 0xCC6 JUMPI PUSH2 0xCC5 PUSH2 0xDD7 JUMP JUMPDEST JUMPDEST DUP3 DUP3 SUB SWAP1 POP SWAP3 SWAP2 POP POP JUMP JUMPDEST PUSH1 0x0 PUSH2 0xCDC DUP3 PUSH2 0xCF6 JUMP JUMPDEST SWAP1 POP SWAP2 SWAP1 POP JUMP JUMPDEST PUSH1 0x0 DUP2 SWAP1 POP PUSH2 0xCF1 DUP3 PUSH2 0xF90 JUMP JUMPDEST SWAP2 SWAP1 POP JUMP JUMPDEST PUSH1 0x0 PUSH20 0xFFFFFFFFFFFFFFFFFFFFFFFFFFFFFFFFFFFFFFFF DUP3 AND SWAP1 POP SWAP2 SWAP1 POP JUMP JUMPDEST PUSH1 0x0 DUP2 SWAP1 POP SWAP2 SWAP1 POP JUMP JUMPDEST PUSH1 0x0 PUSH2 0xD2B DUP3 PUSH2 0xCE3 JUMP JUMPDEST SWAP1 POP SWAP2 SWAP1 POP JUMP JUMPDEST DUP3 DUP2 DUP4 CALLDATACOPY PUSH1 0x0 DUP4 DUP4 ADD MSTORE POP POP POP JUMP JUMPDEST PUSH1 0x0 JUMPDEST DUP4 DUP2 LT ISZERO PUSH2 0xD5F JUMPI DUP1 DUP3 ADD MLOAD DUP2 DUP5 ADD MSTORE PUSH1 0x20 DUP2 ADD SWAP1 POP PUSH2 0xD44 JUMP JUMPDEST DUP4 DUP2 GT ISZERO PUSH2 0xD6E JUMPI PUSH1 0x0 DUP5 DUP5 ADD MSTORE JUMPDEST POP POP POP POP JUMP JUMPDEST PUSH1 0x0 PUSH1 0x2 DUP3 DIV SWAP1 POP PUSH1 0x1 DUP3 AND DUP1 PUSH2 0xD8C JUMPI PUSH1 0x7F DUP3 AND SWAP2 POP JUMPDEST PUSH1 0x20 DUP3 LT DUP2 EQ ISZERO PUSH2 0xDA0 JUMPI PUSH2 0xD9F PUSH2 0xE35 JUMP JUMPDEST JUMPDEST POP SWAP2 SWAP1 POP JUMP JUMPDEST PUSH2 0xDAF DUP3 PUSH2 0xEDB JUMP JUMPDEST DUP2 ADD DUP2 DUP2 LT PUSH8 0xFFFFFFFFFFFFFFFF DUP3 GT OR ISZERO PUSH2 0xDCE JUMPI PUSH2 0xDCD PUSH2 0xE93 JUMP JUMPDEST JUMPDEST DUP1 PUSH1 0x40 MSTORE POP POP POP JUMP JUMPDEST PUSH32 0x4E487B7100000000000000000000000000000000000000000000000000000000 PUSH1 0x0 MSTORE PUSH1 0x11 PUSH1 0x4 MSTORE PUSH1 0x24 PUSH1 0x0 REVERT JUMPDEST PUSH32 0x4E487B7100000000000000000000000000000000000000000000000000000000 PUSH1 0x0 MSTORE PUSH1 0x21 PUSH1 0x4 MSTORE PUSH1 0x24 PUSH1 0x0 REVERT JUMPDEST PUSH32 0x4E487B7100000000000000000000000000000000000000000000000000000000 PUSH1 0x0 MSTORE PUSH1 0x22 PUSH1 0x4 MSTORE PUSH1 0x24 PUSH1 0x0 REVERT JUMPDEST PUSH32 0x4E487B7100000000000000000000000000000000000000000000000000000000 PUSH1 0x0 MSTORE PUSH1 0x32 PUSH1 0x4 MSTORE PUSH1 0x24 PUSH1 0x0 REVERT JUMPDEST PUSH32 0x4E487B7100000000000000000000000000000000000000000000000000000000 PUSH1 0x0 MSTORE PUSH1 0x41 PUSH1 0x4 MSTORE PUSH1 0x24 PUSH1 0x0 REVERT JUMPDEST PUSH1 0x0 DUP1 REVERT JUMPDEST PUSH1 0x0 DUP1 REVERT JUMPDEST PUSH1 0x0 DUP1 REVERT JUMPDEST PUSH1 0x0 DUP1 REVERT JUMPDEST PUSH1 0x0 DUP1 REVERT JUMPDEST PUSH1 0x0 PUSH1 0x1F NOT PUSH1 0x1F DUP4 ADD AND SWAP1 POP SWAP2 SWAP1 POP JUMP JUMPDEST PUSH32 0x4F7264657220697320616C726561647920736869707065642E00000000000000 PUSH1 0x0 DUP3 ADD MSTORE POP JUMP JUMPDEST PUSH32 0x4E6F2070726F6475637473000000000000000000000000000000000000000000 PUSH1 0x0 DUP3 ADD MSTORE POP JUMP JUMPDEST PUSH32 0x596F75277265206E6F7420617574686F72697A65642E00000000000000000000 PUSH1 0x0 DUP3 ADD MSTORE POP JUMP JUMPDEST PUSH32 0x4E6F7420612076616C6964206F72646572206964000000000000000000000000 PUSH1 0x0 DUP3 ADD MSTORE POP JUMP JUMPDEST PUSH1 0x4 DUP2 LT PUSH2 0xFA1 JUMPI PUSH2 0xFA0 PUSH2 0xE06 JUMP JUMPDEST JUMPDEST POP JUMP JUMPDEST PUSH2 0xFAD DUP2 PUSH2 0xD16 JUMP JUMPDEST DUP2 EQ PUSH2 0xFB8 JUMPI PUSH1 0x0 DUP1 REVERT JUMPDEST POP JUMP INVALID LOG2 PUSH5 0x6970667358 0x22 SLT KECCAK256 PUSH26 0x342A29E1835BFD9C5516261741DB6898028E9ADB80036A63191 0xCD 0xDE 0xF MULMOD SELFDESTRUCT PUSH5 0x736F6C6343 STOP ADDMOD SMOD STOP CALLER "
				},
				"gasEstimates": {
					"creation": {
						"codeDepositCost": "816200",
						"executionCost": "25117",
						"totalCost": "841317"
					},
					"external": {
						"advanceOrder(uint256)": "40152",
						"createOrder(string,uint256[])": "infinite",
						"orders(uint256)": "infinite",
						"owner()": "2536",
						"updateZip(uint256,string)": "infinite"
					}
				},
				"methodIdentifiers": {
					"advanceOrder(uint256)": "afe13a62",
					"createOrder(string,uint256[])": "6d9a65d8",
					"orders(uint256)": "a85c38ef",
					"owner()": "8da5cb5b",
					"updateZip(uint256,string)": "577dc0a0"
				}
			},
			"storageLayout": {
				"storage": [
					{
						"astId": 21,
						"contract": "contracts/StructsEnums.sol:StructsEnums",
						"label": "orders",
						"offset": 0,
						"slot": "0",
						"type": "t_array(t_struct(Order)17_storage)dyn_storage"
					},
					{
						"astId": 23,
						"contract": "contracts/StructsEnums.sol:StructsEnums",
						"label": "owner",
						"offset": 0,
						"slot": "1",
						"type": "t_address"
					}
				],
				"types": {
					"t_address": {
						"encoding": "inplace",
						"label": "address",
						"numberOfBytes": "20"
					},
					"t_array(t_struct(Order)17_storage)dyn_storage": {
						"base": "t_struct(Order)17_storage",
						"encoding": "dynamic_array",
						"label": "struct StructsEnums.Order[]",
						"numberOfBytes": "32"
					},
					"t_array(t_uint256)dyn_storage": {
						"base": "t_uint256",
						"encoding": "dynamic_array",
						"label": "uint256[]",
						"numberOfBytes": "32"
					},
					"t_enum(Status)6": {
						"encoding": "inplace",
						"label": "enum StructsEnums.Status",
						"numberOfBytes": "1"
					},
					"t_string_storage": {
						"encoding": "bytes",
						"label": "string",
						"numberOfBytes": "32"
					},
					"t_struct(Order)17_storage": {
						"encoding": "inplace",
						"label": "struct StructsEnums.Order",
						"members": [
							{
								"astId": 8,
								"contract": "contracts/StructsEnums.sol:StructsEnums",
								"label": "customer",
								"offset": 0,
								"slot": "0",
								"type": "t_address"
							},
							{
								"astId": 10,
								"contract": "contracts/StructsEnums.sol:StructsEnums",
								"label": "zipCode",
								"offset": 0,
								"slot": "1",
								"type": "t_string_storage"
							},
							{
								"astId": 13,
								"contract": "contracts/StructsEnums.sol:StructsEnums",
								"label": "products",
								"offset": 0,
								"slot": "2",
								"type": "t_array(t_uint256)dyn_storage"
							},
							{
								"astId": 16,
								"contract": "contracts/StructsEnums.sol:StructsEnums",
								"label": "status",
								"offset": 0,
								"slot": "3",
								"type": "t_enum(Status)6"
							}
						],
						"numberOfBytes": "128"
					},
					"t_uint256": {
						"encoding": "inplace",
						"label": "uint256",
						"numberOfBytes": "32"
					}
				}
			},
			"userdoc": {
				"kind": "user",
				"methods": {},
				"version": 1
			}
		}
	}
}