{
	"contracts/Transfers.sol": {
		"Bank": {
			"abi": [
				{
					"inputs": [],
					"name": "sendEtherToContract",
					"outputs": [],
					"stateMutability": "payable",
					"type": "function"
				},
				{
					"inputs": [],
					"name": "showBalance",
					"outputs": [
						{
							"internalType": "uint256",
							"name": "",
							"type": "uint256"
						}
					],
					"stateMutability": "view",
					"type": "function"
				},
				{
					"inputs": [
						{
							"internalType": "address payable",
							"name": "to",
							"type": "address"
						},
						{
							"internalType": "uint256",
							"name": "amount",
							"type": "uint256"
						}
					],
					"name": "withdraw",
					"outputs": [],
					"stateMutability": "nonpayable",
					"type": "function"
				}
			],
			"devdoc": {
				"kind": "dev",
				"methods": {},
				"version": 1
			},
			"evm": {
				"assembly": "    /* \"contracts/Transfers.sol\":64:549  contract Bank {... */\n  mstore(0x40, 0x80)\n  callvalue\n  dup1\n  iszero\n  tag_1\n  jumpi\n  0x00\n  dup1\n  revert\ntag_1:\n  pop\n  dataSize(sub_0)\n  dup1\n  dataOffset(sub_0)\n  0x00\n  codecopy\n  0x00\n  return\nstop\n\nsub_0: assembly {\n        /* \"contracts/Transfers.sol\":64:549  contract Bank {... */\n      mstore(0x40, 0x80)\n      jumpi(tag_1, lt(calldatasize, 0x04))\n      shr(0xe0, calldataload(0x00))\n      dup1\n      0x325ec768\n      eq\n      tag_2\n      jumpi\n      dup1\n      0x81b2d07b\n      eq\n      tag_3\n      jumpi\n      dup1\n      0xf3fef3a3\n      eq\n      tag_4\n      jumpi\n    tag_1:\n      0x00\n      dup1\n      revert\n        /* \"contracts/Transfers.sol\":129:227  function sendEtherToContract() payable external {... */\n    tag_2:\n      tag_5\n      tag_6\n      jump\t// in\n    tag_5:\n      stop\n        /* \"contracts/Transfers.sol\":233:328  function showBalance() external view returns(uint) {... */\n    tag_3:\n      callvalue\n      dup1\n      iszero\n      tag_7\n      jumpi\n      0x00\n      dup1\n      revert\n    tag_7:\n      pop\n      tag_8\n      tag_9\n      jump\t// in\n    tag_8:\n      mload(0x40)\n      tag_10\n      swap2\n      swap1\n      tag_11\n      jump\t// in\n    tag_10:\n      mload(0x40)\n      dup1\n      swap2\n      sub\n      swap1\n      return\n        /* \"contracts/Transfers.sol\":334:546  function withdraw(address payable to, uint amount) external {... */\n    tag_4:\n      callvalue\n      dup1\n      iszero\n      tag_12\n      jumpi\n      0x00\n      dup1\n      revert\n    tag_12:\n      pop\n      tag_13\n      0x04\n      dup1\n      calldatasize\n      sub\n      dup2\n      add\n      swap1\n      tag_14\n      swap2\n      swap1\n      tag_15\n      jump\t// in\n    tag_14:\n      tag_16\n      jump\t// in\n    tag_13:\n      stop\n        /* \"contracts/Transfers.sol\":129:227  function sendEtherToContract() payable external {... */\n    tag_6:\n        /* \"contracts/Transfers.sol\":211:220  msg.value */\n      callvalue\n        /* \"contracts/Transfers.sol\":187:195  balances */\n      0x00\n        /* \"contracts/Transfers.sol\":187:207  balances[msg.sender] */\n      dup1\n        /* \"contracts/Transfers.sol\":196:206  msg.sender */\n      caller\n        /* \"contracts/Transfers.sol\":187:207  balances[msg.sender] */\n      0xffffffffffffffffffffffffffffffffffffffff\n      and\n      0xffffffffffffffffffffffffffffffffffffffff\n      and\n      dup2\n      mstore\n      0x20\n      add\n      swap1\n      dup2\n      mstore\n      0x20\n      add\n      0x00\n      keccak256\n      0x00\n        /* \"contracts/Transfers.sol\":187:220  balances[msg.sender] += msg.value */\n      dup3\n      dup3\n      sload\n      tag_18\n      swap2\n      swap1\n      tag_19\n      jump\t// in\n    tag_18:\n      swap3\n      pop\n      pop\n      dup2\n      swap1\n      sstore\n      pop\n        /* \"contracts/Transfers.sol\":129:227  function sendEtherToContract() payable external {... */\n      jump\t// out\n        /* \"contracts/Transfers.sol\":233:328  function showBalance() external view returns(uint) {... */\n    tag_9:\n        /* \"contracts/Transfers.sol\":278:282  uint */\n      0x00\n        /* \"contracts/Transfers.sol\":301:309  balances */\n      dup1\n        /* \"contracts/Transfers.sol\":301:321  balances[msg.sender] */\n      0x00\n        /* \"contracts/Transfers.sol\":310:320  msg.sender */\n      caller\n        /* \"contracts/Transfers.sol\":301:321  balances[msg.sender] */\n      0xffffffffffffffffffffffffffffffffffffffff\n      and\n      0xffffffffffffffffffffffffffffffffffffffff\n      and\n      dup2\n      mstore\n      0x20\n      add\n      swap1\n      dup2\n      mstore\n      0x20\n      add\n      0x00\n      keccak256\n      sload\n        /* \"contracts/Transfers.sol\":294:321  return balances[msg.sender] */\n      swap1\n      pop\n        /* \"contracts/Transfers.sol\":233:328  function showBalance() external view returns(uint) {... */\n      swap1\n      jump\t// out\n        /* \"contracts/Transfers.sol\":334:546  function withdraw(address payable to, uint amount) external {... */\n    tag_16:\n        /* \"contracts/Transfers.sol\":436:442  amount */\n      dup1\n        /* \"contracts/Transfers.sol\":412:420  balances */\n      0x00\n        /* \"contracts/Transfers.sol\":412:432  balances[msg.sender] */\n      dup1\n        /* \"contracts/Transfers.sol\":421:431  msg.sender */\n      caller\n        /* \"contracts/Transfers.sol\":412:432  balances[msg.sender] */\n      0xffffffffffffffffffffffffffffffffffffffff\n      and\n      0xffffffffffffffffffffffffffffffffffffffff\n      and\n      dup2\n      mstore\n      0x20\n      add\n      swap1\n      dup2\n      mstore\n      0x20\n      add\n      0x00\n      keccak256\n      sload\n        /* \"contracts/Transfers.sol\":412:442  balances[msg.sender] >= amount */\n      lt\n      iszero\n        /* \"contracts/Transfers.sol\":404:462  require(balances[msg.sender] >= amount, \"Yetersiz bakiye\") */\n      tag_22\n      jumpi\n      mload(0x40)\n      0x08c379a000000000000000000000000000000000000000000000000000000000\n      dup2\n      mstore\n      0x04\n      add\n      tag_23\n      swap1\n      tag_24\n      jump\t// in\n    tag_23:\n      mload(0x40)\n      dup1\n      swap2\n      sub\n      swap1\n      revert\n    tag_22:\n        /* \"contracts/Transfers.sol\":472:474  to */\n      dup2\n        /* \"contracts/Transfers.sol\":472:483  to.transfer */\n      0xffffffffffffffffffffffffffffffffffffffff\n      and\n        /* \"contracts/Transfers.sol\":472:505  to.transfer(balances[msg.sender]) */\n      0x08fc\n        /* \"contracts/Transfers.sol\":484:492  balances */\n      0x00\n        /* \"contracts/Transfers.sol\":484:504  balances[msg.sender] */\n      dup1\n        /* \"contracts/Transfers.sol\":493:503  msg.sender */\n      caller\n        /* \"contracts/Transfers.sol\":484:504  balances[msg.sender] */\n      0xffffffffffffffffffffffffffffffffffffffff\n      and\n      0xffffffffffffffffffffffffffffffffffffffff\n      and\n      dup2\n      mstore\n      0x20\n      add\n      swap1\n      dup2\n      mstore\n      0x20\n      add\n      0x00\n      keccak256\n      sload\n        /* \"contracts/Transfers.sol\":472:505  to.transfer(balances[msg.sender]) */\n      swap1\n      dup2\n      iszero\n      mul\n      swap1\n      mload(0x40)\n      0x00\n      mload(0x40)\n      dup1\n      dup4\n      sub\n      dup2\n      dup6\n      dup9\n      dup9\n      call\n      swap4\n      pop\n      pop\n      pop\n      pop\n      iszero\n      dup1\n      iszero\n      tag_26\n      jumpi\n      returndatasize\n      0x00\n      dup1\n      returndatacopy\n      revert(0x00, returndatasize)\n    tag_26:\n      pop\n        /* \"contracts/Transfers.sol\":538:539  0 */\n      0x00\n        /* \"contracts/Transfers.sol\":515:523  balances */\n      dup1\n        /* \"contracts/Transfers.sol\":515:535  balances[msg.sender] */\n      0x00\n        /* \"contracts/Transfers.sol\":524:534  msg.sender */\n      caller\n        /* \"contracts/Transfers.sol\":515:535  balances[msg.sender] */\n      0xffffffffffffffffffffffffffffffffffffffff\n      and\n      0xffffffffffffffffffffffffffffffffffffffff\n      and\n      dup2\n      mstore\n      0x20\n      add\n      swap1\n      dup2\n      mstore\n      0x20\n      add\n      0x00\n      keccak256\n        /* \"contracts/Transfers.sol\":515:539  balances[msg.sender] = 0 */\n      dup2\n      swap1\n      sstore\n      pop\n        /* \"contracts/Transfers.sol\":334:546  function withdraw(address payable to, uint amount) external {... */\n      pop\n      pop\n      jump\t// out\n        /* \"#utility.yul\":7:162   */\n    tag_28:\n        /* \"#utility.yul\":61:66   */\n      0x00\n        /* \"#utility.yul\":99:105   */\n      dup2\n        /* \"#utility.yul\":86:106   */\n      calldataload\n        /* \"#utility.yul\":77:106   */\n      swap1\n      pop\n        /* \"#utility.yul\":115:156   */\n      tag_30\n        /* \"#utility.yul\":150:155   */\n      dup2\n        /* \"#utility.yul\":115:156   */\n      tag_31\n      jump\t// in\n    tag_30:\n        /* \"#utility.yul\":7:162   */\n      swap3\n      swap2\n      pop\n      pop\n      jump\t// out\n        /* \"#utility.yul\":168:307   */\n    tag_32:\n        /* \"#utility.yul\":214:219   */\n      0x00\n        /* \"#utility.yul\":252:258   */\n      dup2\n        /* \"#utility.yul\":239:259   */\n      calldataload\n        /* \"#utility.yul\":230:259   */\n      swap1\n      pop\n        /* \"#utility.yul\":268:301   */\n      tag_34\n        /* \"#utility.yul\":295:300   */\n      dup2\n        /* \"#utility.yul\":268:301   */\n      tag_35\n      jump\t// in\n    tag_34:\n        /* \"#utility.yul\":168:307   */\n      swap3\n      swap2\n      pop\n      pop\n      jump\t// out\n        /* \"#utility.yul\":313:803   */\n    tag_15:\n        /* \"#utility.yul\":389:395   */\n      0x00\n        /* \"#utility.yul\":397:403   */\n      dup1\n        /* \"#utility.yul\":446:448   */\n      0x40\n        /* \"#utility.yul\":434:443   */\n      dup4\n        /* \"#utility.yul\":425:432   */\n      dup6\n        /* \"#utility.yul\":421:444   */\n      sub\n        /* \"#utility.yul\":417:449   */\n      slt\n        /* \"#utility.yul\":414:533   */\n      iszero\n      tag_37\n      jumpi\n        /* \"#utility.yul\":452:531   */\n      tag_38\n      tag_39\n      jump\t// in\n    tag_38:\n        /* \"#utility.yul\":414:533   */\n    tag_37:\n        /* \"#utility.yul\":572:573   */\n      0x00\n        /* \"#utility.yul\":597:658   */\n      tag_40\n        /* \"#utility.yul\":650:657   */\n      dup6\n        /* \"#utility.yul\":641:647   */\n      dup3\n        /* \"#utility.yul\":630:639   */\n      dup7\n        /* \"#utility.yul\":626:648   */\n      add\n        /* \"#utility.yul\":597:658   */\n      tag_28\n      jump\t// in\n    tag_40:\n        /* \"#utility.yul\":587:658   */\n      swap3\n      pop\n        /* \"#utility.yul\":543:668   */\n      pop\n        /* \"#utility.yul\":707:709   */\n      0x20\n        /* \"#utility.yul\":733:786   */\n      tag_41\n        /* \"#utility.yul\":778:785   */\n      dup6\n        /* \"#utility.yul\":769:775   */\n      dup3\n        /* \"#utility.yul\":758:767   */\n      dup7\n        /* \"#utility.yul\":754:776   */\n      add\n        /* \"#utility.yul\":733:786   */\n      tag_32\n      jump\t// in\n    tag_41:\n        /* \"#utility.yul\":723:786   */\n      swap2\n      pop\n        /* \"#utility.yul\":678:796   */\n      pop\n        /* \"#utility.yul\":313:803   */\n      swap3\n      pop\n      swap3\n      swap1\n      pop\n      jump\t// out\n        /* \"#utility.yul\":809:1175   */\n    tag_42:\n        /* \"#utility.yul\":951:954   */\n      0x00\n        /* \"#utility.yul\":972:1039   */\n      tag_44\n        /* \"#utility.yul\":1036:1038   */\n      0x0f\n        /* \"#utility.yul\":1031:1034   */\n      dup4\n        /* \"#utility.yul\":972:1039   */\n      tag_45\n      jump\t// in\n    tag_44:\n        /* \"#utility.yul\":965:1039   */\n      swap2\n      pop\n        /* \"#utility.yul\":1048:1141   */\n      tag_46\n        /* \"#utility.yul\":1137:1140   */\n      dup3\n        /* \"#utility.yul\":1048:1141   */\n      tag_47\n      jump\t// in\n    tag_46:\n        /* \"#utility.yul\":1166:1168   */\n      0x20\n        /* \"#utility.yul\":1161:1164   */\n      dup3\n        /* \"#utility.yul\":1157:1169   */\n      add\n        /* \"#utility.yul\":1150:1169   */\n      swap1\n      pop\n        /* \"#utility.yul\":809:1175   */\n      swap2\n      swap1\n      pop\n      jump\t// out\n        /* \"#utility.yul\":1181:1299   */\n    tag_48:\n        /* \"#utility.yul\":1268:1292   */\n      tag_50\n        /* \"#utility.yul\":1286:1291   */\n      dup2\n        /* \"#utility.yul\":1268:1292   */\n      tag_51\n      jump\t// in\n    tag_50:\n        /* \"#utility.yul\":1263:1266   */\n      dup3\n        /* \"#utility.yul\":1256:1293   */\n      mstore\n        /* \"#utility.yul\":1181:1299   */\n      pop\n      pop\n      jump\t// out\n        /* \"#utility.yul\":1305:1724   */\n    tag_24:\n        /* \"#utility.yul\":1471:1475   */\n      0x00\n        /* \"#utility.yul\":1509:1511   */\n      0x20\n        /* \"#utility.yul\":1498:1507   */\n      dup3\n        /* \"#utility.yul\":1494:1512   */\n      add\n        /* \"#utility.yul\":1486:1512   */\n      swap1\n      pop\n        /* \"#utility.yul\":1558:1567   */\n      dup2\n        /* \"#utility.yul\":1552:1556   */\n      dup2\n        /* \"#utility.yul\":1548:1568   */\n      sub\n        /* \"#utility.yul\":1544:1545   */\n      0x00\n        /* \"#utility.yul\":1533:1542   */\n      dup4\n        /* \"#utility.yul\":1529:1546   */\n      add\n        /* \"#utility.yul\":1522:1569   */\n      mstore\n        /* \"#utility.yul\":1586:1717   */\n      tag_53\n        /* \"#utility.yul\":1712:1716   */\n      dup2\n        /* \"#utility.yul\":1586:1717   */\n      tag_42\n      jump\t// in\n    tag_53:\n        /* \"#utility.yul\":1578:1717   */\n      swap1\n      pop\n        /* \"#utility.yul\":1305:1724   */\n      swap2\n      swap1\n      pop\n      jump\t// out\n        /* \"#utility.yul\":1730:1952   */\n    tag_11:\n        /* \"#utility.yul\":1823:1827   */\n      0x00\n        /* \"#utility.yul\":1861:1863   */\n      0x20\n        /* \"#utility.yul\":1850:1859   */\n      dup3\n        /* \"#utility.yul\":1846:1864   */\n      add\n        /* \"#utility.yul\":1838:1864   */\n      swap1\n      pop\n        /* \"#utility.yul\":1874:1945   */\n      tag_55\n        /* \"#utility.yul\":1942:1943   */\n      0x00\n        /* \"#utility.yul\":1931:1940   */\n      dup4\n        /* \"#utility.yul\":1927:1944   */\n      add\n        /* \"#utility.yul\":1918:1924   */\n      dup5\n        /* \"#utility.yul\":1874:1945   */\n      tag_48\n      jump\t// in\n    tag_55:\n        /* \"#utility.yul\":1730:1952   */\n      swap3\n      swap2\n      pop\n      pop\n      jump\t// out\n        /* \"#utility.yul\":2039:2208   */\n    tag_45:\n        /* \"#utility.yul\":2123:2134   */\n      0x00\n        /* \"#utility.yul\":2157:2163   */\n      dup3\n        /* \"#utility.yul\":2152:2155   */\n      dup3\n        /* \"#utility.yul\":2145:2164   */\n      mstore\n        /* \"#utility.yul\":2197:2201   */\n      0x20\n        /* \"#utility.yul\":2192:2195   */\n      dup3\n        /* \"#utility.yul\":2188:2202   */\n      add\n        /* \"#utility.yul\":2173:2202   */\n      swap1\n      pop\n        /* \"#utility.yul\":2039:2208   */\n      swap3\n      swap2\n      pop\n      pop\n      jump\t// out\n        /* \"#utility.yul\":2214:2519   */\n    tag_19:\n        /* \"#utility.yul\":2254:2257   */\n      0x00\n        /* \"#utility.yul\":2273:2293   */\n      tag_60\n        /* \"#utility.yul\":2291:2292   */\n      dup3\n        /* \"#utility.yul\":2273:2293   */\n      tag_51\n      jump\t// in\n    tag_60:\n        /* \"#utility.yul\":2268:2293   */\n      swap2\n      pop\n        /* \"#utility.yul\":2307:2327   */\n      tag_61\n        /* \"#utility.yul\":2325:2326   */\n      dup4\n        /* \"#utility.yul\":2307:2327   */\n      tag_51\n      jump\t// in\n    tag_61:\n        /* \"#utility.yul\":2302:2327   */\n      swap3\n      pop\n        /* \"#utility.yul\":2461:2462   */\n      dup3\n        /* \"#utility.yul\":2393:2459   */\n      0xffffffffffffffffffffffffffffffffffffffffffffffffffffffffffffffff\n        /* \"#utility.yul\":2389:2463   */\n      sub\n        /* \"#utility.yul\":2386:2387   */\n      dup3\n        /* \"#utility.yul\":2383:2464   */\n      gt\n        /* \"#utility.yul\":2380:2487   */\n      iszero\n      tag_62\n      jumpi\n        /* \"#utility.yul\":2467:2485   */\n      tag_63\n      tag_64\n      jump\t// in\n    tag_63:\n        /* \"#utility.yul\":2380:2487   */\n    tag_62:\n        /* \"#utility.yul\":2511:2512   */\n      dup3\n        /* \"#utility.yul\":2508:2509   */\n      dup3\n        /* \"#utility.yul\":2504:2513   */\n      add\n        /* \"#utility.yul\":2497:2513   */\n      swap1\n      pop\n        /* \"#utility.yul\":2214:2519   */\n      swap3\n      swap2\n      pop\n      pop\n      jump\t// out\n        /* \"#utility.yul\":2525:2629   */\n    tag_65:\n        /* \"#utility.yul\":2570:2577   */\n      0x00\n        /* \"#utility.yul\":2599:2623   */\n      tag_67\n        /* \"#utility.yul\":2617:2622   */\n      dup3\n        /* \"#utility.yul\":2599:2623   */\n      tag_68\n      jump\t// in\n    tag_67:\n        /* \"#utility.yul\":2588:2623   */\n      swap1\n      pop\n        /* \"#utility.yul\":2525:2629   */\n      swap2\n      swap1\n      pop\n      jump\t// out\n        /* \"#utility.yul\":2635:2761   */\n    tag_68:\n        /* \"#utility.yul\":2672:2679   */\n      0x00\n        /* \"#utility.yul\":2712:2754   */\n      0xffffffffffffffffffffffffffffffffffffffff\n        /* \"#utility.yul\":2705:2710   */\n      dup3\n        /* \"#utility.yul\":2701:2755   */\n      and\n        /* \"#utility.yul\":2690:2755   */\n      swap1\n      pop\n        /* \"#utility.yul\":2635:2761   */\n      swap2\n      swap1\n      pop\n      jump\t// out\n        /* \"#utility.yul\":2767:2844   */\n    tag_51:\n        /* \"#utility.yul\":2804:2811   */\n      0x00\n        /* \"#utility.yul\":2833:2838   */\n      dup2\n        /* \"#utility.yul\":2822:2838   */\n      swap1\n      pop\n        /* \"#utility.yul\":2767:2844   */\n      swap2\n      swap1\n      pop\n      jump\t// out\n        /* \"#utility.yul\":2850:3030   */\n    tag_64:\n        /* \"#utility.yul\":2898:2975   */\n      0x4e487b7100000000000000000000000000000000000000000000000000000000\n        /* \"#utility.yul\":2895:2896   */\n      0x00\n        /* \"#utility.yul\":2888:2976   */\n      mstore\n        /* \"#utility.yul\":2995:2999   */\n      0x11\n        /* \"#utility.yul\":2992:2993   */\n      0x04\n        /* \"#utility.yul\":2985:3000   */\n      mstore\n        /* \"#utility.yul\":3019:3023   */\n      0x24\n        /* \"#utility.yul\":3016:3017   */\n      0x00\n        /* \"#utility.yul\":3009:3024   */\n      revert\n        /* \"#utility.yul\":3159:3276   */\n    tag_39:\n        /* \"#utility.yul\":3268:3269   */\n      0x00\n        /* \"#utility.yul\":3265:3266   */\n      dup1\n        /* \"#utility.yul\":3258:3270   */\n      revert\n        /* \"#utility.yul\":3282:3447   */\n    tag_47:\n        /* \"#utility.yul\":3422:3439   */\n      0x596574657273697a2062616b6979650000000000000000000000000000000000\n        /* \"#utility.yul\":3418:3419   */\n      0x00\n        /* \"#utility.yul\":3410:3416   */\n      dup3\n        /* \"#utility.yul\":3406:3420   */\n      add\n        /* \"#utility.yul\":3399:3440   */\n      mstore\n        /* \"#utility.yul\":3282:3447   */\n      pop\n      jump\t// out\n        /* \"#utility.yul\":3453:3591   */\n    tag_31:\n        /* \"#utility.yul\":3534:3566   */\n      tag_77\n        /* \"#utility.yul\":3560:3565   */\n      dup2\n        /* \"#utility.yul\":3534:3566   */\n      tag_65\n      jump\t// in\n    tag_77:\n        /* \"#utility.yul\":3527:3532   */\n      dup2\n        /* \"#utility.yul\":3524:3567   */\n      eq\n        /* \"#utility.yul\":3514:3585   */\n      tag_78\n      jumpi\n        /* \"#utility.yul\":3581:3582   */\n      0x00\n        /* \"#utility.yul\":3578:3579   */\n      dup1\n        /* \"#utility.yul\":3571:3583   */\n      revert\n        /* \"#utility.yul\":3514:3585   */\n    tag_78:\n        /* \"#utility.yul\":3453:3591   */\n      pop\n      jump\t// out\n        /* \"#utility.yul\":3597:3719   */\n    tag_35:\n        /* \"#utility.yul\":3670:3694   */\n      tag_80\n        /* \"#utility.yul\":3688:3693   */\n      dup2\n        /* \"#utility.yul\":3670:3694   */\n      tag_51\n      jump\t// in\n    tag_80:\n        /* \"#utility.yul\":3663:3668   */\n      dup2\n        /* \"#utility.yul\":3660:3695   */\n      eq\n        /* \"#utility.yul\":3650:3713   */\n      tag_81\n      jumpi\n        /* \"#utility.yul\":3709:3710   */\n      0x00\n        /* \"#utility.yul\":3706:3707   */\n      dup1\n        /* \"#utility.yul\":3699:3711   */\n      revert\n        /* \"#utility.yul\":3650:3713   */\n    tag_81:\n        /* \"#utility.yul\":3597:3719   */\n      pop\n      jump\t// out\n\n    auxdata: 0xa2646970667358221220028ba6d8e7ede7a78fd04670a8a1e9c3ab7bab6eb92581392b67cbcea428455064736f6c63430008070033\n}\n",
				"bytecode": {
					"linkReferences": {},
					"object": "608060405234801561001057600080fd5b506104bd806100206000396000f3fe6080604052600436106100345760003560e01c8063325ec7681461003957806381b2d07b14610043578063f3fef3a31461006e575b600080fd5b610041610097565b005b34801561004f57600080fd5b506100586100ee565b604051610065919061033e565b60405180910390f35b34801561007a57600080fd5b50610095600480360381019061009091906102ac565b610134565b005b346000803373ffffffffffffffffffffffffffffffffffffffff1673ffffffffffffffffffffffffffffffffffffffff16815260200190815260200160002060008282546100e5919061036a565b92505081905550565b60008060003373ffffffffffffffffffffffffffffffffffffffff1673ffffffffffffffffffffffffffffffffffffffff16815260200190815260200160002054905090565b806000803373ffffffffffffffffffffffffffffffffffffffff1673ffffffffffffffffffffffffffffffffffffffff1681526020019081526020016000205410156101b5576040517f08c379a00000000000000000000000000000000000000000000000000000000081526004016101ac9061031e565b60405180910390fd5b8173ffffffffffffffffffffffffffffffffffffffff166108fc6000803373ffffffffffffffffffffffffffffffffffffffff1673ffffffffffffffffffffffffffffffffffffffff168152602001908152602001600020549081150290604051600060405180830381858888f19350505050158015610239573d6000803e3d6000fd5b5060008060003373ffffffffffffffffffffffffffffffffffffffff1673ffffffffffffffffffffffffffffffffffffffff168152602001908152602001600020819055505050565b60008135905061029181610459565b92915050565b6000813590506102a681610470565b92915050565b600080604083850312156102c3576102c261042b565b5b60006102d185828601610282565b92505060206102e285828601610297565b9150509250929050565b60006102f9600f83610359565b915061030482610430565b602082019050919050565b610318816103f2565b82525050565b60006020820190508181036000830152610337816102ec565b9050919050565b6000602082019050610353600083018461030f565b92915050565b600082825260208201905092915050565b6000610375826103f2565b9150610380836103f2565b9250827fffffffffffffffffffffffffffffffffffffffffffffffffffffffffffffffff038211156103b5576103b46103fc565b5b828201905092915050565b60006103cb826103d2565b9050919050565b600073ffffffffffffffffffffffffffffffffffffffff82169050919050565b6000819050919050565b7f4e487b7100000000000000000000000000000000000000000000000000000000600052601160045260246000fd5b600080fd5b7f596574657273697a2062616b6979650000000000000000000000000000000000600082015250565b610462816103c0565b811461046d57600080fd5b50565b610479816103f2565b811461048457600080fd5b5056fea2646970667358221220028ba6d8e7ede7a78fd04670a8a1e9c3ab7bab6eb92581392b67cbcea428455064736f6c63430008070033",
					"opcodes": "PUSH1 0x80 PUSH1 0x40 MSTORE CALLVALUE DUP1 ISZERO PUSH2 0x10 JUMPI PUSH1 0x0 DUP1 REVERT JUMPDEST POP PUSH2 0x4BD DUP1 PUSH2 0x20 PUSH1 0x0 CODECOPY PUSH1 0x0 RETURN INVALID PUSH1 0x80 PUSH1 0x40 MSTORE PUSH1 0x4 CALLDATASIZE LT PUSH2 0x34 JUMPI PUSH1 0x0 CALLDATALOAD PUSH1 0xE0 SHR DUP1 PUSH4 0x325EC768 EQ PUSH2 0x39 JUMPI DUP1 PUSH4 0x81B2D07B EQ PUSH2 0x43 JUMPI DUP1 PUSH4 0xF3FEF3A3 EQ PUSH2 0x6E JUMPI JUMPDEST PUSH1 0x0 DUP1 REVERT JUMPDEST PUSH2 0x41 PUSH2 0x97 JUMP JUMPDEST STOP JUMPDEST CALLVALUE DUP1 ISZERO PUSH2 0x4F JUMPI PUSH1 0x0 DUP1 REVERT JUMPDEST POP PUSH2 0x58 PUSH2 0xEE JUMP JUMPDEST PUSH1 0x40 MLOAD PUSH2 0x65 SWAP2 SWAP1 PUSH2 0x33E JUMP JUMPDEST PUSH1 0x40 MLOAD DUP1 SWAP2 SUB SWAP1 RETURN JUMPDEST CALLVALUE DUP1 ISZERO PUSH2 0x7A JUMPI PUSH1 0x0 DUP1 REVERT JUMPDEST POP PUSH2 0x95 PUSH1 0x4 DUP1 CALLDATASIZE SUB DUP2 ADD SWAP1 PUSH2 0x90 SWAP2 SWAP1 PUSH2 0x2AC JUMP JUMPDEST PUSH2 0x134 JUMP JUMPDEST STOP JUMPDEST CALLVALUE PUSH1 0x0 DUP1 CALLER PUSH20 0xFFFFFFFFFFFFFFFFFFFFFFFFFFFFFFFFFFFFFFFF AND PUSH20 0xFFFFFFFFFFFFFFFFFFFFFFFFFFFFFFFFFFFFFFFF AND DUP2 MSTORE PUSH1 0x20 ADD SWAP1 DUP2 MSTORE PUSH1 0x20 ADD PUSH1 0x0 KECCAK256 PUSH1 0x0 DUP3 DUP3 SLOAD PUSH2 0xE5 SWAP2 SWAP1 PUSH2 0x36A JUMP JUMPDEST SWAP3 POP POP DUP2 SWAP1 SSTORE POP JUMP JUMPDEST PUSH1 0x0 DUP1 PUSH1 0x0 CALLER PUSH20 0xFFFFFFFFFFFFFFFFFFFFFFFFFFFFFFFFFFFFFFFF AND PUSH20 0xFFFFFFFFFFFFFFFFFFFFFFFFFFFFFFFFFFFFFFFF AND DUP2 MSTORE PUSH1 0x20 ADD SWAP1 DUP2 MSTORE PUSH1 0x20 ADD PUSH1 0x0 KECCAK256 SLOAD SWAP1 POP SWAP1 JUMP JUMPDEST DUP1 PUSH1 0x0 DUP1 CALLER PUSH20 0xFFFFFFFFFFFFFFFFFFFFFFFFFFFFFFFFFFFFFFFF AND PUSH20 0xFFFFFFFFFFFFFFFFFFFFFFFFFFFFFFFFFFFFFFFF AND DUP2 MSTORE PUSH1 0x20 ADD SWAP1 DUP2 MSTORE PUSH1 0x20 ADD PUSH1 0x0 KECCAK256 SLOAD LT ISZERO PUSH2 0x1B5 JUMPI PUSH1 0x40 MLOAD PUSH32 0x8C379A000000000000000000000000000000000000000000000000000000000 DUP2 MSTORE PUSH1 0x4 ADD PUSH2 0x1AC SWAP1 PUSH2 0x31E JUMP JUMPDEST PUSH1 0x40 MLOAD DUP1 SWAP2 SUB SWAP1 REVERT JUMPDEST DUP2 PUSH20 0xFFFFFFFFFFFFFFFFFFFFFFFFFFFFFFFFFFFFFFFF AND PUSH2 0x8FC PUSH1 0x0 DUP1 CALLER PUSH20 0xFFFFFFFFFFFFFFFFFFFFFFFFFFFFFFFFFFFFFFFF AND PUSH20 0xFFFFFFFFFFFFFFFFFFFFFFFFFFFFFFFFFFFFFFFF AND DUP2 MSTORE PUSH1 0x20 ADD SWAP1 DUP2 MSTORE PUSH1 0x20 ADD PUSH1 0x0 KECCAK256 SLOAD SWAP1 DUP2 ISZERO MUL SWAP1 PUSH1 0x40 MLOAD PUSH1 0x0 PUSH1 0x40 MLOAD DUP1 DUP4 SUB DUP2 DUP6 DUP9 DUP9 CALL SWAP4 POP POP POP POP ISZERO DUP1 ISZERO PUSH2 0x239 JUMPI RETURNDATASIZE PUSH1 0x0 DUP1 RETURNDATACOPY RETURNDATASIZE PUSH1 0x0 REVERT JUMPDEST POP PUSH1 0x0 DUP1 PUSH1 0x0 CALLER PUSH20 0xFFFFFFFFFFFFFFFFFFFFFFFFFFFFFFFFFFFFFFFF AND PUSH20 0xFFFFFFFFFFFFFFFFFFFFFFFFFFFFFFFFFFFFFFFF AND DUP2 MSTORE PUSH1 0x20 ADD SWAP1 DUP2 MSTORE PUSH1 0x20 ADD PUSH1 0x0 KECCAK256 DUP2 SWAP1 SSTORE POP POP POP JUMP JUMPDEST PUSH1 0x0 DUP2 CALLDATALOAD SWAP1 POP PUSH2 0x291 DUP2 PUSH2 0x459 JUMP JUMPDEST SWAP3 SWAP2 POP POP JUMP JUMPDEST PUSH1 0x0 DUP2 CALLDATALOAD SWAP1 POP PUSH2 0x2A6 DUP2 PUSH2 0x470 JUMP JUMPDEST SWAP3 SWAP2 POP POP JUMP JUMPDEST PUSH1 0x0 DUP1 PUSH1 0x40 DUP4 DUP6 SUB SLT ISZERO PUSH2 0x2C3 JUMPI PUSH2 0x2C2 PUSH2 0x42B JUMP JUMPDEST JUMPDEST PUSH1 0x0 PUSH2 0x2D1 DUP6 DUP3 DUP7 ADD PUSH2 0x282 JUMP JUMPDEST SWAP3 POP POP PUSH1 0x20 PUSH2 0x2E2 DUP6 DUP3 DUP7 ADD PUSH2 0x297 JUMP JUMPDEST SWAP2 POP POP SWAP3 POP SWAP3 SWAP1 POP JUMP JUMPDEST PUSH1 0x0 PUSH2 0x2F9 PUSH1 0xF DUP4 PUSH2 0x359 JUMP JUMPDEST SWAP2 POP PUSH2 0x304 DUP3 PUSH2 0x430 JUMP JUMPDEST PUSH1 0x20 DUP3 ADD SWAP1 POP SWAP2 SWAP1 POP JUMP JUMPDEST PUSH2 0x318 DUP2 PUSH2 0x3F2 JUMP JUMPDEST DUP3 MSTORE POP POP JUMP JUMPDEST PUSH1 0x0 PUSH1 0x20 DUP3 ADD SWAP1 POP DUP2 DUP2 SUB PUSH1 0x0 DUP4 ADD MSTORE PUSH2 0x337 DUP2 PUSH2 0x2EC JUMP JUMPDEST SWAP1 POP SWAP2 SWAP1 POP JUMP JUMPDEST PUSH1 0x0 PUSH1 0x20 DUP3 ADD SWAP1 POP PUSH2 0x353 PUSH1 0x0 DUP4 ADD DUP5 PUSH2 0x30F JUMP JUMPDEST SWAP3 SWAP2 POP POP JUMP JUMPDEST PUSH1 0x0 DUP3 DUP3 MSTORE PUSH1 0x20 DUP3 ADD SWAP1 POP SWAP3 SWAP2 POP POP JUMP JUMPDEST PUSH1 0x0 PUSH2 0x375 DUP3 PUSH2 0x3F2 JUMP JUMPDEST SWAP2 POP PUSH2 0x380 DUP4 PUSH2 0x3F2 JUMP JUMPDEST SWAP3 POP DUP3 PUSH32 0xFFFFFFFFFFFFFFFFFFFFFFFFFFFFFFFFFFFFFFFFFFFFFFFFFFFFFFFFFFFFFFFF SUB DUP3 GT ISZERO PUSH2 0x3B5 JUMPI PUSH2 0x3B4 PUSH2 0x3FC JUMP JUMPDEST JUMPDEST DUP3 DUP3 ADD SWAP1 POP SWAP3 SWAP2 POP POP JUMP JUMPDEST PUSH1 0x0 PUSH2 0x3CB DUP3 PUSH2 0x3D2 JUMP JUMPDEST SWAP1 POP SWAP2 SWAP1 POP JUMP JUMPDEST PUSH1 0x0 PUSH20 0xFFFFFFFFFFFFFFFFFFFFFFFFFFFFFFFFFFFFFFFF DUP3 AND SWAP1 POP SWAP2 SWAP1 POP JUMP JUMPDEST PUSH1 0x0 DUP2 SWAP1 POP SWAP2 SWAP1 POP JUMP JUMPDEST PUSH32 0x4E487B7100000000000000000000000000000000000000000000000000000000 PUSH1 0x0 MSTORE PUSH1 0x11 PUSH1 0x4 MSTORE PUSH1 0x24 PUSH1 0x0 REVERT JUMPDEST PUSH1 0x0 DUP1 REVERT JUMPDEST PUSH32 0x596574657273697A2062616B6979650000000000000000000000000000000000 PUSH1 0x0 DUP3 ADD MSTORE POP JUMP JUMPDEST PUSH2 0x462 DUP2 PUSH2 0x3C0 JUMP JUMPDEST DUP2 EQ PUSH2 0x46D JUMPI PUSH1 0x0 DUP1 REVERT JUMPDEST POP JUMP JUMPDEST PUSH2 0x479 DUP2 PUSH2 0x3F2 JUMP JUMPDEST DUP2 EQ PUSH2 0x484 JUMPI PUSH1 0x0 DUP1 REVERT JUMPDEST POP JUMP INVALID LOG2 PUSH5 0x6970667358 0x22 SLT KECCAK256 MUL DUP12 0xA6 0xD8 0xE7 0xED 0xE7 0xA7 DUP16 0xD0 CHAINID PUSH17 0xA8A1E9C3AB7BAB6EB92581392B67CBCEA4 0x28 GASLIMIT POP PUSH5 0x736F6C6343 STOP ADDMOD SMOD STOP CALLER "
				},
				"gasEstimates": {
					"creation": {
						"codeDepositCost": "242600",
						"executionCost": "281",
						"totalCost": "242881"
					},
					"external": {
						"sendEtherToContract()": "infinite",
						"showBalance()": "2526",
						"withdraw(address,uint256)": "infinite"
					}
				},
				"methodIdentifiers": {
					"sendEtherToContract()": "325ec768",
					"showBalance()": "81b2d07b",
					"withdraw(address,uint256)": "f3fef3a3"
				}
			},
			"storageLayout": {
				"storage": [
					{
						"astId": 5,
						"contract": "contracts/Transfers.sol:Bank",
						"label": "balances",
						"offset": 0,
						"slot": "0",
						"type": "t_mapping(t_address,t_uint256)"
					}
				],
				"types": {
					"t_address": {
						"encoding": "inplace",
						"label": "address",
						"numberOfBytes": "20"
					},
					"t_mapping(t_address,t_uint256)": {
						"encoding": "mapping",
						"key": "t_address",
						"label": "mapping(address => uint256)",
						"numberOfBytes": "32",
						"value": "t_uint256"
					},
					"t_uint256": {
						"encoding": "inplace",
						"label": "uint256",
						"numberOfBytes": "32"
					}
				}
			},
			"userdoc": {
				"kind": "user",
				"methods": {},
				"version": 1
			}
		}
	}
}