{
	"contracts/StructsEnums.sol": {
		"StructsEnums": {
			"abi": [
				{
					"inputs": [],
					"stateMutability": "nonpayable",
					"type": "constructor"
				},
				{
					"inputs": [
						{
							"internalType": "uint256",
							"name": "_orderId",
							"type": "uint256"
						}
					],
					"name": "advanceOrder",
					"outputs": [],
					"stateMutability": "nonpayable",
					"type": "function"
				},
				{
					"inputs": [
						{
							"internalType": "string",
							"name": "_zipCode",
							"type": "string"
						},
						{
							"internalType": "uint256[]",
							"name": "_products",
							"type": "uint256[]"
						}
					],
					"name": "createOrder",
					"outputs": [
						{
							"internalType": "uint256",
							"name": "",
							"type": "uint256"
						}
					],
					"stateMutability": "nonpayable",
					"type": "function"
				},
				{
					"inputs": [
						{
							"internalType": "uint256",
							"name": "",
							"type": "uint256"
						}
					],
					"name": "orders",
					"outputs": [
						{
							"internalType": "address",
							"name": "customer",
							"type": "address"
						},
						{
							"internalType": "string",
							"name": "zipCode",
							"type": "string"
						},
						{
							"internalType": "enum StructsEnums.Status",
							"name": "status",
							"type": "uint8"
						}
					],
					"stateMutability": "view",
					"type": "function"
				},
				{
					"inputs": [],
					"name": "owner",
					"outputs": [
						{
							"internalType": "address",
							"name": "",
							"type": "address"
						}
					],
					"stateMutability": "view",
					"type": "function"
				}
			],
			"devdoc": {
				"kind": "dev",
				"methods": {},
				"version": 1
			},
			"evm": {
				"assembly": "    /* \"contracts/StructsEnums.sol\":64:1270  contract StructsEnums {... */\n  mstore(0x40, 0x80)\n    /* \"contracts/StructsEnums.sol\":364:413  constructor() {... */\n  callvalue\n  dup1\n  iszero\n  tag_1\n  jumpi\n  0x00\n  dup1\n  revert\ntag_1:\n  pop\n    /* \"contracts/StructsEnums.sol\":396:406  msg.sender */\n  caller\n    /* \"contracts/StructsEnums.sol\":388:393  owner */\n  0x01\n  0x00\n    /* \"contracts/StructsEnums.sol\":388:406  owner = msg.sender */\n  0x0100\n  exp\n  dup2\n  sload\n  dup2\n  0xffffffffffffffffffffffffffffffffffffffff\n  mul\n  not\n  and\n  swap1\n  dup4\n  0xffffffffffffffffffffffffffffffffffffffff\n  and\n  mul\n  or\n  swap1\n  sstore\n  pop\n    /* \"contracts/StructsEnums.sol\":64:1270  contract StructsEnums {... */\n  dataSize(sub_0)\n  dup1\n  dataOffset(sub_0)\n  0x00\n  codecopy\n  0x00\n  return\nstop\n\nsub_0: assembly {\n        /* \"contracts/StructsEnums.sol\":64:1270  contract StructsEnums {... */\n      mstore(0x40, 0x80)\n      callvalue\n      dup1\n      iszero\n      tag_1\n      jumpi\n      0x00\n      dup1\n      revert\n    tag_1:\n      pop\n      jumpi(tag_2, lt(calldatasize, 0x04))\n      shr(0xe0, calldataload(0x00))\n      dup1\n      0x6d9a65d8\n      eq\n      tag_3\n      jumpi\n      dup1\n      0x8da5cb5b\n      eq\n      tag_4\n      jumpi\n      dup1\n      0xa85c38ef\n      eq\n      tag_5\n      jumpi\n      dup1\n      0xafe13a62\n      eq\n      tag_6\n      jumpi\n    tag_2:\n      0x00\n      dup1\n      revert\n        /* \"contracts/StructsEnums.sol\":419:1129  function createOrder(string memory _zipCode, uint256[] memory _products) public returns(uint256){... */\n    tag_3:\n      tag_7\n      0x04\n      dup1\n      calldatasize\n      sub\n      dup2\n      add\n      swap1\n      tag_8\n      swap2\n      swap1\n      tag_9\n      jump\t// in\n    tag_8:\n      tag_10\n      jump\t// in\n    tag_7:\n      mload(0x40)\n      tag_11\n      swap2\n      swap1\n      tag_12\n      jump\t// in\n    tag_11:\n      mload(0x40)\n      dup1\n      swap2\n      sub\n      swap1\n      return\n        /* \"contracts/StructsEnums.sol\":337:357  address public owner */\n    tag_4:\n      tag_13\n      tag_14\n      jump\t// in\n    tag_13:\n      mload(0x40)\n      tag_15\n      swap2\n      swap1\n      tag_16\n      jump\t// in\n    tag_15:\n      mload(0x40)\n      dup1\n      swap2\n      sub\n      swap1\n      return\n        /* \"contracts/StructsEnums.sol\":310:331  Order[] public orders */\n    tag_5:\n      tag_17\n      0x04\n      dup1\n      calldatasize\n      sub\n      dup2\n      add\n      swap1\n      tag_18\n      swap2\n      swap1\n      tag_19\n      jump\t// in\n    tag_18:\n      tag_20\n      jump\t// in\n    tag_17:\n      mload(0x40)\n      tag_21\n      swap4\n      swap3\n      swap2\n      swap1\n      tag_22\n      jump\t// in\n    tag_21:\n      mload(0x40)\n      dup1\n      swap2\n      sub\n      swap1\n      return\n        /* \"contracts/StructsEnums.sol\":1135:1262  function advanceOrder(uint256 _orderId) public {... */\n    tag_6:\n      tag_23\n      0x04\n      dup1\n      calldatasize\n      sub\n      dup2\n      add\n      swap1\n      tag_24\n      swap2\n      swap1\n      tag_19\n      jump\t// in\n    tag_24:\n      tag_25\n      jump\t// in\n    tag_23:\n      stop\n        /* \"contracts/StructsEnums.sol\":419:1129  function createOrder(string memory _zipCode, uint256[] memory _products) public returns(uint256){... */\n    tag_10:\n        /* \"contracts/StructsEnums.sol\":507:514  uint256 */\n      0x00\n        /* \"contracts/StructsEnums.sol\":552:553  0 */\n      dup1\n        /* \"contracts/StructsEnums.sol\":533:542  _products */\n      dup3\n        /* \"contracts/StructsEnums.sol\":533:549  _products.length */\n      mload\n        /* \"contracts/StructsEnums.sol\":533:553  _products.length > 0 */\n      gt\n        /* \"contracts/StructsEnums.sol\":525:569  require(_products.length > 0, \"No products\") */\n      tag_27\n      jumpi\n      mload(0x40)\n      0x08c379a000000000000000000000000000000000000000000000000000000000\n      dup2\n      mstore\n      0x04\n      add\n      tag_28\n      swap1\n      tag_29\n      jump\t// in\n    tag_28:\n      mload(0x40)\n      dup1\n      swap2\n      sub\n      swap1\n      revert\n    tag_27:\n        /* \"contracts/StructsEnums.sol\":580:598  Order memory order */\n      tag_30\n      tag_31\n      jump\t// in\n    tag_30:\n        /* \"contracts/StructsEnums.sol\":625:635  msg.sender */\n      caller\n        /* \"contracts/StructsEnums.sol\":608:613  order */\n      dup2\n        /* \"contracts/StructsEnums.sol\":608:622  order.customer */\n      0x00\n      add\n        /* \"contracts/StructsEnums.sol\":608:635  order.customer = msg.sender */\n      swap1\n      0xffffffffffffffffffffffffffffffffffffffff\n      and\n      swap1\n      dup2\n      0xffffffffffffffffffffffffffffffffffffffff\n      and\n      dup2\n      mstore\n      pop\n      pop\n        /* \"contracts/StructsEnums.sol\":661:669  _zipCode */\n      dup4\n        /* \"contracts/StructsEnums.sol\":645:650  order */\n      dup2\n        /* \"contracts/StructsEnums.sol\":645:658  order.zipCode */\n      0x20\n      add\n        /* \"contracts/StructsEnums.sol\":645:669  order.zipCode = _zipCode */\n      dup2\n      swap1\n      mstore\n      pop\n        /* \"contracts/StructsEnums.sol\":696:705  _products */\n      dup3\n        /* \"contracts/StructsEnums.sol\":679:684  order */\n      dup2\n        /* \"contracts/StructsEnums.sol\":679:693  order.products */\n      0x40\n      add\n        /* \"contracts/StructsEnums.sol\":679:705  order.products = _products */\n      dup2\n      swap1\n      mstore\n      pop\n        /* \"contracts/StructsEnums.sol\":730:742  Status.Taken */\n      0x00\n        /* \"contracts/StructsEnums.sol\":715:720  order */\n      dup2\n        /* \"contracts/StructsEnums.sol\":715:727  order.status */\n      0x60\n      add\n        /* \"contracts/StructsEnums.sol\":715:742  order.status = Status.Taken */\n      swap1\n      0x03\n      dup2\n      gt\n      iszero\n      tag_32\n      jumpi\n      tag_33\n      tag_34\n      jump\t// in\n    tag_33:\n    tag_32:\n      swap1\n      dup2\n      0x03\n      dup2\n      gt\n      iszero\n      tag_35\n      jumpi\n      tag_36\n      tag_34\n      jump\t// in\n    tag_36:\n    tag_35:\n      dup2\n      mstore\n      pop\n      pop\n        /* \"contracts/StructsEnums.sol\":752:758  orders */\n      0x00\n        /* \"contracts/StructsEnums.sol\":764:769  order */\n      dup2\n        /* \"contracts/StructsEnums.sol\":752:770  orders.push(order) */\n      swap1\n      dup1\n      0x01\n      dup2\n      sload\n      add\n      dup1\n      dup3\n      sstore\n      dup1\n      swap2\n      pop\n      pop\n      0x01\n      swap1\n      sub\n      swap1\n      0x00\n      mstore\n      keccak256(0x00, 0x20)\n      swap1\n      0x04\n      mul\n      add\n      0x00\n      swap1\n      swap2\n      swap1\n      swap2\n      swap1\n      swap2\n      pop\n      0x00\n      dup3\n      add\n      mload\n      dup2\n      0x00\n      add\n      exp(0x0100, 0x00)\n      dup2\n      sload\n      dup2\n      0xffffffffffffffffffffffffffffffffffffffff\n      mul\n      not\n      and\n      swap1\n      dup4\n      0xffffffffffffffffffffffffffffffffffffffff\n      and\n      mul\n      or\n      swap1\n      sstore\n      pop\n      0x20\n      dup3\n      add\n      mload\n      dup2\n      0x01\n      add\n      swap1\n      dup1\n      mload\n      swap1\n      0x20\n      add\n      swap1\n      tag_38\n      swap3\n      swap2\n      swap1\n      tag_39\n      jump\t// in\n    tag_38:\n      pop\n      0x40\n      dup3\n      add\n      mload\n      dup2\n      0x02\n      add\n      swap1\n      dup1\n      mload\n      swap1\n      0x20\n      add\n      swap1\n      tag_40\n      swap3\n      swap2\n      swap1\n      tag_41\n      jump\t// in\n    tag_40:\n      pop\n      0x60\n      dup3\n      add\n      mload\n      dup2\n      0x03\n      add\n      exp(0x0100, 0x00)\n      dup2\n      sload\n      dup2\n      0xff\n      mul\n      not\n      and\n      swap1\n      dup4\n      0x03\n      dup2\n      gt\n      iszero\n      tag_42\n      jumpi\n      tag_43\n      tag_34\n      jump\t// in\n    tag_43:\n    tag_42:\n      mul\n      or\n      swap1\n      sstore\n      pop\n      pop\n      pop\n        /* \"contracts/StructsEnums.sol\":1121:1122  1 */\n      0x01\n        /* \"contracts/StructsEnums.sol\":1105:1111  orders */\n      0x00\n        /* \"contracts/StructsEnums.sol\":1105:1118  orders.length */\n      dup1\n      sload\n      swap1\n      pop\n        /* \"contracts/StructsEnums.sol\":1105:1122  orders.length - 1 */\n      tag_44\n      swap2\n      swap1\n      tag_45\n      jump\t// in\n    tag_44:\n        /* \"contracts/StructsEnums.sol\":1098:1122  return orders.length - 1 */\n      swap2\n      pop\n      pop\n        /* \"contracts/StructsEnums.sol\":419:1129  function createOrder(string memory _zipCode, uint256[] memory _products) public returns(uint256){... */\n      swap3\n      swap2\n      pop\n      pop\n      jump\t// out\n        /* \"contracts/StructsEnums.sol\":337:357  address public owner */\n    tag_14:\n      0x01\n      0x00\n      swap1\n      sload\n      swap1\n      0x0100\n      exp\n      swap1\n      div\n      0xffffffffffffffffffffffffffffffffffffffff\n      and\n      dup2\n      jump\t// out\n        /* \"contracts/StructsEnums.sol\":310:331  Order[] public orders */\n    tag_20:\n      0x00\n      dup2\n      dup2\n      sload\n      dup2\n      lt\n      tag_46\n      jumpi\n      0x00\n      dup1\n      revert\n    tag_46:\n      swap1\n      0x00\n      mstore\n      keccak256(0x00, 0x20)\n      swap1\n      0x04\n      mul\n      add\n      0x00\n      swap2\n      pop\n      swap1\n      pop\n      dup1\n      0x00\n      add\n      0x00\n      swap1\n      sload\n      swap1\n      0x0100\n      exp\n      swap1\n      div\n      0xffffffffffffffffffffffffffffffffffffffff\n      and\n      swap1\n      dup1\n      0x01\n      add\n      dup1\n      sload\n      tag_48\n      swap1\n      tag_49\n      jump\t// in\n    tag_48:\n      dup1\n      0x1f\n      add\n      0x20\n      dup1\n      swap2\n      div\n      mul\n      0x20\n      add\n      mload(0x40)\n      swap1\n      dup2\n      add\n      0x40\n      mstore\n      dup1\n      swap3\n      swap2\n      swap1\n      dup2\n      dup2\n      mstore\n      0x20\n      add\n      dup3\n      dup1\n      sload\n      tag_50\n      swap1\n      tag_49\n      jump\t// in\n    tag_50:\n      dup1\n      iszero\n      tag_51\n      jumpi\n      dup1\n      0x1f\n      lt\n      tag_52\n      jumpi\n      0x0100\n      dup1\n      dup4\n      sload\n      div\n      mul\n      dup4\n      mstore\n      swap2\n      0x20\n      add\n      swap2\n      jump(tag_51)\n    tag_52:\n      dup3\n      add\n      swap2\n      swap1\n      0x00\n      mstore\n      keccak256(0x00, 0x20)\n      swap1\n    tag_53:\n      dup2\n      sload\n      dup2\n      mstore\n      swap1\n      0x01\n      add\n      swap1\n      0x20\n      add\n      dup1\n      dup4\n      gt\n      tag_53\n      jumpi\n      dup3\n      swap1\n      sub\n      0x1f\n      and\n      dup3\n      add\n      swap2\n    tag_51:\n      pop\n      pop\n      pop\n      pop\n      pop\n      swap1\n      dup1\n      0x03\n      add\n      0x00\n      swap1\n      sload\n      swap1\n      0x0100\n      exp\n      swap1\n      div\n      0xff\n      and\n      swap1\n      pop\n      dup4\n      jump\t// out\n        /* \"contracts/StructsEnums.sol\":1135:1262  function advanceOrder(uint256 _orderId) public {... */\n    tag_25:\n        /* \"contracts/StructsEnums.sol\":1214:1219  owner */\n      0x01\n      0x00\n      swap1\n      sload\n      swap1\n      0x0100\n      exp\n      swap1\n      div\n      0xffffffffffffffffffffffffffffffffffffffff\n      and\n        /* \"contracts/StructsEnums.sol\":1200:1219  msg.sender == owner */\n      0xffffffffffffffffffffffffffffffffffffffff\n      and\n        /* \"contracts/StructsEnums.sol\":1200:1210  msg.sender */\n      caller\n        /* \"contracts/StructsEnums.sol\":1200:1219  msg.sender == owner */\n      0xffffffffffffffffffffffffffffffffffffffff\n      and\n      eq\n        /* \"contracts/StructsEnums.sol\":1192:1246  require(msg.sender == owner, \"You're not authorized.\") */\n      tag_55\n      jumpi\n      mload(0x40)\n      0x08c379a000000000000000000000000000000000000000000000000000000000\n      dup2\n      mstore\n      0x04\n      add\n      tag_56\n      swap1\n      tag_57\n      jump\t// in\n    tag_56:\n      mload(0x40)\n      dup1\n      swap2\n      sub\n      swap1\n      revert\n    tag_55:\n        /* \"contracts/StructsEnums.sol\":1135:1262  function advanceOrder(uint256 _orderId) public {... */\n      pop\n      jump\t// out\n    tag_31:\n      mload(0x40)\n      dup1\n      0x80\n      add\n      0x40\n      mstore\n      dup1\n      and(0xffffffffffffffffffffffffffffffffffffffff, 0x00)\n      dup2\n      mstore\n      0x20\n      add\n      0x60\n      dup2\n      mstore\n      0x20\n      add\n      0x60\n      dup2\n      mstore\n      0x20\n      add\n      0x00\n      0x03\n      dup2\n      gt\n      iszero\n      tag_58\n      jumpi\n      tag_59\n      tag_34\n      jump\t// in\n    tag_59:\n    tag_58:\n      dup2\n      mstore\n      pop\n      swap1\n      jump\t// out\n    tag_39:\n      dup3\n      dup1\n      sload\n      tag_60\n      swap1\n      tag_49\n      jump\t// in\n    tag_60:\n      swap1\n      0x00\n      mstore\n      keccak256(0x00, 0x20)\n      swap1\n      0x1f\n      add\n      0x20\n      swap1\n      div\n      dup2\n      add\n      swap3\n      dup3\n      tag_62\n      jumpi\n      0x00\n      dup6\n      sstore\n      jump(tag_61)\n    tag_62:\n      dup3\n      0x1f\n      lt\n      tag_63\n      jumpi\n      dup1\n      mload\n      not(0xff)\n      and\n      dup4\n      dup1\n      add\n      or\n      dup6\n      sstore\n      jump(tag_61)\n    tag_63:\n      dup3\n      dup1\n      add\n      0x01\n      add\n      dup6\n      sstore\n      dup3\n      iszero\n      tag_61\n      jumpi\n      swap2\n      dup3\n      add\n    tag_64:\n      dup3\n      dup2\n      gt\n      iszero\n      tag_65\n      jumpi\n      dup3\n      mload\n      dup3\n      sstore\n      swap2\n      0x20\n      add\n      swap2\n      swap1\n      0x01\n      add\n      swap1\n      jump(tag_64)\n    tag_65:\n    tag_61:\n      pop\n      swap1\n      pop\n      tag_66\n      swap2\n      swap1\n      tag_67\n      jump\t// in\n    tag_66:\n      pop\n      swap1\n      jump\t// out\n    tag_41:\n      dup3\n      dup1\n      sload\n      dup3\n      dup3\n      sstore\n      swap1\n      0x00\n      mstore\n      keccak256(0x00, 0x20)\n      swap1\n      dup2\n      add\n      swap3\n      dup3\n      iszero\n      tag_68\n      jumpi\n      swap2\n      0x20\n      mul\n      dup3\n      add\n    tag_69:\n      dup3\n      dup2\n      gt\n      iszero\n      tag_70\n      jumpi\n      dup3\n      mload\n      dup3\n      sstore\n      swap2\n      0x20\n      add\n      swap2\n      swap1\n      0x01\n      add\n      swap1\n      jump(tag_69)\n    tag_70:\n    tag_68:\n      pop\n      swap1\n      pop\n      tag_71\n      swap2\n      swap1\n      tag_67\n      jump\t// in\n    tag_71:\n      pop\n      swap1\n      jump\t// out\n    tag_67:\n    tag_72:\n      dup1\n      dup3\n      gt\n      iszero\n      tag_73\n      jumpi\n      0x00\n      dup2\n      0x00\n      swap1\n      sstore\n      pop\n      0x01\n      add\n      jump(tag_72)\n    tag_73:\n      pop\n      swap1\n      jump\t// out\n        /* \"#utility.yul\":24:746   */\n    tag_75:\n        /* \"#utility.yul\":120:125   */\n      0x00\n        /* \"#utility.yul\":145:226   */\n      tag_77\n        /* \"#utility.yul\":161:225   */\n      tag_78\n        /* \"#utility.yul\":218:224   */\n      dup5\n        /* \"#utility.yul\":161:225   */\n      tag_79\n      jump\t// in\n    tag_78:\n        /* \"#utility.yul\":145:226   */\n      tag_80\n      jump\t// in\n    tag_77:\n        /* \"#utility.yul\":136:226   */\n      swap1\n      pop\n        /* \"#utility.yul\":246:251   */\n      dup1\n        /* \"#utility.yul\":275:281   */\n      dup4\n        /* \"#utility.yul\":268:273   */\n      dup3\n        /* \"#utility.yul\":261:282   */\n      mstore\n        /* \"#utility.yul\":309:313   */\n      0x20\n        /* \"#utility.yul\":302:307   */\n      dup3\n        /* \"#utility.yul\":298:314   */\n      add\n        /* \"#utility.yul\":291:314   */\n      swap1\n      pop\n        /* \"#utility.yul\":335:341   */\n      dup3\n        /* \"#utility.yul\":385:388   */\n      dup6\n        /* \"#utility.yul\":377:381   */\n      0x20\n        /* \"#utility.yul\":369:375   */\n      dup7\n        /* \"#utility.yul\":365:382   */\n      mul\n        /* \"#utility.yul\":360:363   */\n      dup3\n        /* \"#utility.yul\":356:383   */\n      add\n        /* \"#utility.yul\":353:389   */\n      gt\n        /* \"#utility.yul\":350:493   */\n      iszero\n      tag_81\n      jumpi\n        /* \"#utility.yul\":404:483   */\n      tag_82\n      tag_83\n      jump\t// in\n    tag_82:\n        /* \"#utility.yul\":350:493   */\n    tag_81:\n        /* \"#utility.yul\":517:518   */\n      0x00\n        /* \"#utility.yul\":502:740   */\n    tag_84:\n        /* \"#utility.yul\":527:533   */\n      dup6\n        /* \"#utility.yul\":524:525   */\n      dup2\n        /* \"#utility.yul\":521:534   */\n      lt\n        /* \"#utility.yul\":502:740   */\n      iszero\n      tag_86\n      jumpi\n        /* \"#utility.yul\":595:598   */\n      dup2\n        /* \"#utility.yul\":624:661   */\n      tag_87\n        /* \"#utility.yul\":657:660   */\n      dup9\n        /* \"#utility.yul\":645:655   */\n      dup3\n        /* \"#utility.yul\":624:661   */\n      tag_88\n      jump\t// in\n    tag_87:\n        /* \"#utility.yul\":619:622   */\n      dup5\n        /* \"#utility.yul\":612:662   */\n      mstore\n        /* \"#utility.yul\":691:695   */\n      0x20\n        /* \"#utility.yul\":686:689   */\n      dup5\n        /* \"#utility.yul\":682:696   */\n      add\n        /* \"#utility.yul\":675:696   */\n      swap4\n      pop\n        /* \"#utility.yul\":725:729   */\n      0x20\n        /* \"#utility.yul\":720:723   */\n      dup4\n        /* \"#utility.yul\":716:730   */\n      add\n        /* \"#utility.yul\":709:730   */\n      swap3\n      pop\n        /* \"#utility.yul\":562:740   */\n      pop\n        /* \"#utility.yul\":549:550   */\n      0x01\n        /* \"#utility.yul\":546:547   */\n      dup2\n        /* \"#utility.yul\":542:551   */\n      add\n        /* \"#utility.yul\":537:551   */\n      swap1\n      pop\n        /* \"#utility.yul\":502:740   */\n      jump(tag_84)\n    tag_86:\n        /* \"#utility.yul\":506:520   */\n      pop\n        /* \"#utility.yul\":126:746   */\n      pop\n      pop\n        /* \"#utility.yul\":24:746   */\n      swap4\n      swap3\n      pop\n      pop\n      pop\n      jump\t// out\n        /* \"#utility.yul\":752:1164   */\n    tag_89:\n        /* \"#utility.yul\":830:835   */\n      0x00\n        /* \"#utility.yul\":855:921   */\n      tag_91\n        /* \"#utility.yul\":871:920   */\n      tag_92\n        /* \"#utility.yul\":913:919   */\n      dup5\n        /* \"#utility.yul\":871:920   */\n      tag_93\n      jump\t// in\n    tag_92:\n        /* \"#utility.yul\":855:921   */\n      tag_80\n      jump\t// in\n    tag_91:\n        /* \"#utility.yul\":846:921   */\n      swap1\n      pop\n        /* \"#utility.yul\":944:950   */\n      dup3\n        /* \"#utility.yul\":937:942   */\n      dup2\n        /* \"#utility.yul\":930:951   */\n      mstore\n        /* \"#utility.yul\":982:986   */\n      0x20\n        /* \"#utility.yul\":975:980   */\n      dup2\n        /* \"#utility.yul\":971:987   */\n      add\n        /* \"#utility.yul\":1020:1023   */\n      dup5\n        /* \"#utility.yul\":1011:1017   */\n      dup5\n        /* \"#utility.yul\":1006:1009   */\n      dup5\n        /* \"#utility.yul\":1002:1018   */\n      add\n        /* \"#utility.yul\":999:1024   */\n      gt\n        /* \"#utility.yul\":996:1108   */\n      iszero\n      tag_94\n      jumpi\n        /* \"#utility.yul\":1027:1106   */\n      tag_95\n      tag_96\n      jump\t// in\n    tag_95:\n        /* \"#utility.yul\":996:1108   */\n    tag_94:\n        /* \"#utility.yul\":1117:1158   */\n      tag_97\n        /* \"#utility.yul\":1151:1157   */\n      dup5\n        /* \"#utility.yul\":1146:1149   */\n      dup3\n        /* \"#utility.yul\":1141:1144   */\n      dup6\n        /* \"#utility.yul\":1117:1158   */\n      tag_98\n      jump\t// in\n    tag_97:\n        /* \"#utility.yul\":836:1164   */\n      pop\n        /* \"#utility.yul\":752:1164   */\n      swap4\n      swap3\n      pop\n      pop\n      pop\n      jump\t// out\n        /* \"#utility.yul\":1187:1557   */\n    tag_99:\n        /* \"#utility.yul\":1258:1263   */\n      0x00\n        /* \"#utility.yul\":1307:1310   */\n      dup3\n        /* \"#utility.yul\":1300:1304   */\n      0x1f\n        /* \"#utility.yul\":1292:1298   */\n      dup4\n        /* \"#utility.yul\":1288:1305   */\n      add\n        /* \"#utility.yul\":1284:1311   */\n      slt\n        /* \"#utility.yul\":1274:1396   */\n      tag_101\n      jumpi\n        /* \"#utility.yul\":1315:1394   */\n      tag_102\n      tag_103\n      jump\t// in\n    tag_102:\n        /* \"#utility.yul\":1274:1396   */\n    tag_101:\n        /* \"#utility.yul\":1432:1438   */\n      dup2\n        /* \"#utility.yul\":1419:1439   */\n      calldataload\n        /* \"#utility.yul\":1457:1551   */\n      tag_104\n        /* \"#utility.yul\":1547:1550   */\n      dup5\n        /* \"#utility.yul\":1539:1545   */\n      dup3\n        /* \"#utility.yul\":1532:1536   */\n      0x20\n        /* \"#utility.yul\":1524:1530   */\n      dup7\n        /* \"#utility.yul\":1520:1537   */\n      add\n        /* \"#utility.yul\":1457:1551   */\n      tag_75\n      jump\t// in\n    tag_104:\n        /* \"#utility.yul\":1448:1551   */\n      swap2\n      pop\n        /* \"#utility.yul\":1264:1557   */\n      pop\n        /* \"#utility.yul\":1187:1557   */\n      swap3\n      swap2\n      pop\n      pop\n      jump\t// out\n        /* \"#utility.yul\":1577:1917   */\n    tag_105:\n        /* \"#utility.yul\":1633:1638   */\n      0x00\n        /* \"#utility.yul\":1682:1685   */\n      dup3\n        /* \"#utility.yul\":1675:1679   */\n      0x1f\n        /* \"#utility.yul\":1667:1673   */\n      dup4\n        /* \"#utility.yul\":1663:1680   */\n      add\n        /* \"#utility.yul\":1659:1686   */\n      slt\n        /* \"#utility.yul\":1649:1771   */\n      tag_107\n      jumpi\n        /* \"#utility.yul\":1690:1769   */\n      tag_108\n      tag_103\n      jump\t// in\n    tag_108:\n        /* \"#utility.yul\":1649:1771   */\n    tag_107:\n        /* \"#utility.yul\":1807:1813   */\n      dup2\n        /* \"#utility.yul\":1794:1814   */\n      calldataload\n        /* \"#utility.yul\":1832:1911   */\n      tag_109\n        /* \"#utility.yul\":1907:1910   */\n      dup5\n        /* \"#utility.yul\":1899:1905   */\n      dup3\n        /* \"#utility.yul\":1892:1896   */\n      0x20\n        /* \"#utility.yul\":1884:1890   */\n      dup7\n        /* \"#utility.yul\":1880:1897   */\n      add\n        /* \"#utility.yul\":1832:1911   */\n      tag_89\n      jump\t// in\n    tag_109:\n        /* \"#utility.yul\":1823:1911   */\n      swap2\n      pop\n        /* \"#utility.yul\":1639:1917   */\n      pop\n        /* \"#utility.yul\":1577:1917   */\n      swap3\n      swap2\n      pop\n      pop\n      jump\t// out\n        /* \"#utility.yul\":1923:2062   */\n    tag_88:\n        /* \"#utility.yul\":1969:1974   */\n      0x00\n        /* \"#utility.yul\":2007:2013   */\n      dup2\n        /* \"#utility.yul\":1994:2014   */\n      calldataload\n        /* \"#utility.yul\":1985:2014   */\n      swap1\n      pop\n        /* \"#utility.yul\":2023:2056   */\n      tag_111\n        /* \"#utility.yul\":2050:2055   */\n      dup2\n        /* \"#utility.yul\":2023:2056   */\n      tag_112\n      jump\t// in\n    tag_111:\n        /* \"#utility.yul\":1923:2062   */\n      swap3\n      swap2\n      pop\n      pop\n      jump\t// out\n        /* \"#utility.yul\":2068:2932   */\n    tag_9:\n        /* \"#utility.yul\":2171:2177   */\n      0x00\n        /* \"#utility.yul\":2179:2185   */\n      dup1\n        /* \"#utility.yul\":2228:2230   */\n      0x40\n        /* \"#utility.yul\":2216:2225   */\n      dup4\n        /* \"#utility.yul\":2207:2214   */\n      dup6\n        /* \"#utility.yul\":2203:2226   */\n      sub\n        /* \"#utility.yul\":2199:2231   */\n      slt\n        /* \"#utility.yul\":2196:2315   */\n      iszero\n      tag_114\n      jumpi\n        /* \"#utility.yul\":2234:2313   */\n      tag_115\n      tag_116\n      jump\t// in\n    tag_115:\n        /* \"#utility.yul\":2196:2315   */\n    tag_114:\n        /* \"#utility.yul\":2382:2383   */\n      0x00\n        /* \"#utility.yul\":2371:2380   */\n      dup4\n        /* \"#utility.yul\":2367:2384   */\n      add\n        /* \"#utility.yul\":2354:2385   */\n      calldataload\n        /* \"#utility.yul\":2412:2430   */\n      0xffffffffffffffff\n        /* \"#utility.yul\":2404:2410   */\n      dup2\n        /* \"#utility.yul\":2401:2431   */\n      gt\n        /* \"#utility.yul\":2398:2515   */\n      iszero\n      tag_117\n      jumpi\n        /* \"#utility.yul\":2434:2513   */\n      tag_118\n      tag_119\n      jump\t// in\n    tag_118:\n        /* \"#utility.yul\":2398:2515   */\n    tag_117:\n        /* \"#utility.yul\":2539:2602   */\n      tag_120\n        /* \"#utility.yul\":2594:2601   */\n      dup6\n        /* \"#utility.yul\":2585:2591   */\n      dup3\n        /* \"#utility.yul\":2574:2583   */\n      dup7\n        /* \"#utility.yul\":2570:2592   */\n      add\n        /* \"#utility.yul\":2539:2602   */\n      tag_105\n      jump\t// in\n    tag_120:\n        /* \"#utility.yul\":2529:2602   */\n      swap3\n      pop\n        /* \"#utility.yul\":2325:2612   */\n      pop\n        /* \"#utility.yul\":2679:2681   */\n      0x20\n        /* \"#utility.yul\":2668:2677   */\n      dup4\n        /* \"#utility.yul\":2664:2682   */\n      add\n        /* \"#utility.yul\":2651:2683   */\n      calldataload\n        /* \"#utility.yul\":2710:2728   */\n      0xffffffffffffffff\n        /* \"#utility.yul\":2702:2708   */\n      dup2\n        /* \"#utility.yul\":2699:2729   */\n      gt\n        /* \"#utility.yul\":2696:2813   */\n      iszero\n      tag_121\n      jumpi\n        /* \"#utility.yul\":2732:2811   */\n      tag_122\n      tag_119\n      jump\t// in\n    tag_122:\n        /* \"#utility.yul\":2696:2813   */\n    tag_121:\n        /* \"#utility.yul\":2837:2915   */\n      tag_123\n        /* \"#utility.yul\":2907:2914   */\n      dup6\n        /* \"#utility.yul\":2898:2904   */\n      dup3\n        /* \"#utility.yul\":2887:2896   */\n      dup7\n        /* \"#utility.yul\":2883:2905   */\n      add\n        /* \"#utility.yul\":2837:2915   */\n      tag_99\n      jump\t// in\n    tag_123:\n        /* \"#utility.yul\":2827:2915   */\n      swap2\n      pop\n        /* \"#utility.yul\":2622:2925   */\n      pop\n        /* \"#utility.yul\":2068:2932   */\n      swap3\n      pop\n      swap3\n      swap1\n      pop\n      jump\t// out\n        /* \"#utility.yul\":2938:3267   */\n    tag_19:\n        /* \"#utility.yul\":2997:3003   */\n      0x00\n        /* \"#utility.yul\":3046:3048   */\n      0x20\n        /* \"#utility.yul\":3034:3043   */\n      dup3\n        /* \"#utility.yul\":3025:3032   */\n      dup5\n        /* \"#utility.yul\":3021:3044   */\n      sub\n        /* \"#utility.yul\":3017:3049   */\n      slt\n        /* \"#utility.yul\":3014:3133   */\n      iszero\n      tag_125\n      jumpi\n        /* \"#utility.yul\":3052:3131   */\n      tag_126\n      tag_116\n      jump\t// in\n    tag_126:\n        /* \"#utility.yul\":3014:3133   */\n    tag_125:\n        /* \"#utility.yul\":3172:3173   */\n      0x00\n        /* \"#utility.yul\":3197:3250   */\n      tag_127\n        /* \"#utility.yul\":3242:3249   */\n      dup5\n        /* \"#utility.yul\":3233:3239   */\n      dup3\n        /* \"#utility.yul\":3222:3231   */\n      dup6\n        /* \"#utility.yul\":3218:3240   */\n      add\n        /* \"#utility.yul\":3197:3250   */\n      tag_88\n      jump\t// in\n    tag_127:\n        /* \"#utility.yul\":3187:3250   */\n      swap2\n      pop\n        /* \"#utility.yul\":3143:3260   */\n      pop\n        /* \"#utility.yul\":2938:3267   */\n      swap3\n      swap2\n      pop\n      pop\n      jump\t// out\n        /* \"#utility.yul\":3273:3391   */\n    tag_128:\n        /* \"#utility.yul\":3360:3384   */\n      tag_130\n        /* \"#utility.yul\":3378:3383   */\n      dup2\n        /* \"#utility.yul\":3360:3384   */\n      tag_131\n      jump\t// in\n    tag_130:\n        /* \"#utility.yul\":3355:3358   */\n      dup3\n        /* \"#utility.yul\":3348:3385   */\n      mstore\n        /* \"#utility.yul\":3273:3391   */\n      pop\n      pop\n      jump\t// out\n        /* \"#utility.yul\":3397:3540   */\n    tag_132:\n        /* \"#utility.yul\":3490:3533   */\n      tag_134\n        /* \"#utility.yul\":3527:3532   */\n      dup2\n        /* \"#utility.yul\":3490:3533   */\n      tag_135\n      jump\t// in\n    tag_134:\n        /* \"#utility.yul\":3485:3488   */\n      dup3\n        /* \"#utility.yul\":3478:3534   */\n      mstore\n        /* \"#utility.yul\":3397:3540   */\n      pop\n      pop\n      jump\t// out\n        /* \"#utility.yul\":3546:3910   */\n    tag_136:\n        /* \"#utility.yul\":3634:3637   */\n      0x00\n        /* \"#utility.yul\":3662:3701   */\n      tag_138\n        /* \"#utility.yul\":3695:3700   */\n      dup3\n        /* \"#utility.yul\":3662:3701   */\n      tag_139\n      jump\t// in\n    tag_138:\n        /* \"#utility.yul\":3717:3788   */\n      tag_140\n        /* \"#utility.yul\":3781:3787   */\n      dup2\n        /* \"#utility.yul\":3776:3779   */\n      dup6\n        /* \"#utility.yul\":3717:3788   */\n      tag_141\n      jump\t// in\n    tag_140:\n        /* \"#utility.yul\":3710:3788   */\n      swap4\n      pop\n        /* \"#utility.yul\":3797:3849   */\n      tag_142\n        /* \"#utility.yul\":3842:3848   */\n      dup2\n        /* \"#utility.yul\":3837:3840   */\n      dup6\n        /* \"#utility.yul\":3830:3834   */\n      0x20\n        /* \"#utility.yul\":3823:3828   */\n      dup7\n        /* \"#utility.yul\":3819:3835   */\n      add\n        /* \"#utility.yul\":3797:3849   */\n      tag_143\n      jump\t// in\n    tag_142:\n        /* \"#utility.yul\":3874:3903   */\n      tag_144\n        /* \"#utility.yul\":3896:3902   */\n      dup2\n        /* \"#utility.yul\":3874:3903   */\n      tag_145\n      jump\t// in\n    tag_144:\n        /* \"#utility.yul\":3869:3872   */\n      dup5\n        /* \"#utility.yul\":3865:3904   */\n      add\n        /* \"#utility.yul\":3858:3904   */\n      swap2\n      pop\n        /* \"#utility.yul\":3638:3910   */\n      pop\n        /* \"#utility.yul\":3546:3910   */\n      swap3\n      swap2\n      pop\n      pop\n      jump\t// out\n        /* \"#utility.yul\":3916:4282   */\n    tag_146:\n        /* \"#utility.yul\":4058:4061   */\n      0x00\n        /* \"#utility.yul\":4079:4146   */\n      tag_148\n        /* \"#utility.yul\":4143:4145   */\n      0x0b\n        /* \"#utility.yul\":4138:4141   */\n      dup4\n        /* \"#utility.yul\":4079:4146   */\n      tag_141\n      jump\t// in\n    tag_148:\n        /* \"#utility.yul\":4072:4146   */\n      swap2\n      pop\n        /* \"#utility.yul\":4155:4248   */\n      tag_149\n        /* \"#utility.yul\":4244:4247   */\n      dup3\n        /* \"#utility.yul\":4155:4248   */\n      tag_150\n      jump\t// in\n    tag_149:\n        /* \"#utility.yul\":4273:4275   */\n      0x20\n        /* \"#utility.yul\":4268:4271   */\n      dup3\n        /* \"#utility.yul\":4264:4276   */\n      add\n        /* \"#utility.yul\":4257:4276   */\n      swap1\n      pop\n        /* \"#utility.yul\":3916:4282   */\n      swap2\n      swap1\n      pop\n      jump\t// out\n        /* \"#utility.yul\":4288:4654   */\n    tag_151:\n        /* \"#utility.yul\":4430:4433   */\n      0x00\n        /* \"#utility.yul\":4451:4518   */\n      tag_153\n        /* \"#utility.yul\":4515:4517   */\n      0x16\n        /* \"#utility.yul\":4510:4513   */\n      dup4\n        /* \"#utility.yul\":4451:4518   */\n      tag_141\n      jump\t// in\n    tag_153:\n        /* \"#utility.yul\":4444:4518   */\n      swap2\n      pop\n        /* \"#utility.yul\":4527:4620   */\n      tag_154\n        /* \"#utility.yul\":4616:4619   */\n      dup3\n        /* \"#utility.yul\":4527:4620   */\n      tag_155\n      jump\t// in\n    tag_154:\n        /* \"#utility.yul\":4645:4647   */\n      0x20\n        /* \"#utility.yul\":4640:4643   */\n      dup3\n        /* \"#utility.yul\":4636:4648   */\n      add\n        /* \"#utility.yul\":4629:4648   */\n      swap1\n      pop\n        /* \"#utility.yul\":4288:4654   */\n      swap2\n      swap1\n      pop\n      jump\t// out\n        /* \"#utility.yul\":4660:4778   */\n    tag_156:\n        /* \"#utility.yul\":4747:4771   */\n      tag_158\n        /* \"#utility.yul\":4765:4770   */\n      dup2\n        /* \"#utility.yul\":4747:4771   */\n      tag_159\n      jump\t// in\n    tag_158:\n        /* \"#utility.yul\":4742:4745   */\n      dup3\n        /* \"#utility.yul\":4735:4772   */\n      mstore\n        /* \"#utility.yul\":4660:4778   */\n      pop\n      pop\n      jump\t// out\n        /* \"#utility.yul\":4784:5006   */\n    tag_16:\n        /* \"#utility.yul\":4877:4881   */\n      0x00\n        /* \"#utility.yul\":4915:4917   */\n      0x20\n        /* \"#utility.yul\":4904:4913   */\n      dup3\n        /* \"#utility.yul\":4900:4918   */\n      add\n        /* \"#utility.yul\":4892:4918   */\n      swap1\n      pop\n        /* \"#utility.yul\":4928:4999   */\n      tag_161\n        /* \"#utility.yul\":4996:4997   */\n      0x00\n        /* \"#utility.yul\":4985:4994   */\n      dup4\n        /* \"#utility.yul\":4981:4998   */\n      add\n        /* \"#utility.yul\":4972:4978   */\n      dup5\n        /* \"#utility.yul\":4928:4999   */\n      tag_128\n      jump\t// in\n    tag_161:\n        /* \"#utility.yul\":4784:5006   */\n      swap3\n      swap2\n      pop\n      pop\n      jump\t// out\n        /* \"#utility.yul\":5012:5557   */\n    tag_22:\n        /* \"#utility.yul\":5187:5191   */\n      0x00\n        /* \"#utility.yul\":5225:5227   */\n      0x60\n        /* \"#utility.yul\":5214:5223   */\n      dup3\n        /* \"#utility.yul\":5210:5228   */\n      add\n        /* \"#utility.yul\":5202:5228   */\n      swap1\n      pop\n        /* \"#utility.yul\":5238:5309   */\n      tag_163\n        /* \"#utility.yul\":5306:5307   */\n      0x00\n        /* \"#utility.yul\":5295:5304   */\n      dup4\n        /* \"#utility.yul\":5291:5308   */\n      add\n        /* \"#utility.yul\":5282:5288   */\n      dup7\n        /* \"#utility.yul\":5238:5309   */\n      tag_128\n      jump\t// in\n    tag_163:\n        /* \"#utility.yul\":5356:5365   */\n      dup2\n        /* \"#utility.yul\":5350:5354   */\n      dup2\n        /* \"#utility.yul\":5346:5366   */\n      sub\n        /* \"#utility.yul\":5341:5343   */\n      0x20\n        /* \"#utility.yul\":5330:5339   */\n      dup4\n        /* \"#utility.yul\":5326:5344   */\n      add\n        /* \"#utility.yul\":5319:5367   */\n      mstore\n        /* \"#utility.yul\":5384:5462   */\n      tag_164\n        /* \"#utility.yul\":5457:5461   */\n      dup2\n        /* \"#utility.yul\":5448:5454   */\n      dup6\n        /* \"#utility.yul\":5384:5462   */\n      tag_136\n      jump\t// in\n    tag_164:\n        /* \"#utility.yul\":5376:5462   */\n      swap1\n      pop\n        /* \"#utility.yul\":5472:5550   */\n      tag_165\n        /* \"#utility.yul\":5546:5548   */\n      0x40\n        /* \"#utility.yul\":5535:5544   */\n      dup4\n        /* \"#utility.yul\":5531:5549   */\n      add\n        /* \"#utility.yul\":5522:5528   */\n      dup5\n        /* \"#utility.yul\":5472:5550   */\n      tag_132\n      jump\t// in\n    tag_165:\n        /* \"#utility.yul\":5012:5557   */\n      swap5\n      swap4\n      pop\n      pop\n      pop\n      pop\n      jump\t// out\n        /* \"#utility.yul\":5563:5982   */\n    tag_29:\n        /* \"#utility.yul\":5729:5733   */\n      0x00\n        /* \"#utility.yul\":5767:5769   */\n      0x20\n        /* \"#utility.yul\":5756:5765   */\n      dup3\n        /* \"#utility.yul\":5752:5770   */\n      add\n        /* \"#utility.yul\":5744:5770   */\n      swap1\n      pop\n        /* \"#utility.yul\":5816:5825   */\n      dup2\n        /* \"#utility.yul\":5810:5814   */\n      dup2\n        /* \"#utility.yul\":5806:5826   */\n      sub\n        /* \"#utility.yul\":5802:5803   */\n      0x00\n        /* \"#utility.yul\":5791:5800   */\n      dup4\n        /* \"#utility.yul\":5787:5804   */\n      add\n        /* \"#utility.yul\":5780:5827   */\n      mstore\n        /* \"#utility.yul\":5844:5975   */\n      tag_167\n        /* \"#utility.yul\":5970:5974   */\n      dup2\n        /* \"#utility.yul\":5844:5975   */\n      tag_146\n      jump\t// in\n    tag_167:\n        /* \"#utility.yul\":5836:5975   */\n      swap1\n      pop\n        /* \"#utility.yul\":5563:5982   */\n      swap2\n      swap1\n      pop\n      jump\t// out\n        /* \"#utility.yul\":5988:6407   */\n    tag_57:\n        /* \"#utility.yul\":6154:6158   */\n      0x00\n        /* \"#utility.yul\":6192:6194   */\n      0x20\n        /* \"#utility.yul\":6181:6190   */\n      dup3\n        /* \"#utility.yul\":6177:6195   */\n      add\n        /* \"#utility.yul\":6169:6195   */\n      swap1\n      pop\n        /* \"#utility.yul\":6241:6250   */\n      dup2\n        /* \"#utility.yul\":6235:6239   */\n      dup2\n        /* \"#utility.yul\":6231:6251   */\n      sub\n        /* \"#utility.yul\":6227:6228   */\n      0x00\n        /* \"#utility.yul\":6216:6225   */\n      dup4\n        /* \"#utility.yul\":6212:6229   */\n      add\n        /* \"#utility.yul\":6205:6252   */\n      mstore\n        /* \"#utility.yul\":6269:6400   */\n      tag_169\n        /* \"#utility.yul\":6395:6399   */\n      dup2\n        /* \"#utility.yul\":6269:6400   */\n      tag_151\n      jump\t// in\n    tag_169:\n        /* \"#utility.yul\":6261:6400   */\n      swap1\n      pop\n        /* \"#utility.yul\":5988:6407   */\n      swap2\n      swap1\n      pop\n      jump\t// out\n        /* \"#utility.yul\":6413:6635   */\n    tag_12:\n        /* \"#utility.yul\":6506:6510   */\n      0x00\n        /* \"#utility.yul\":6544:6546   */\n      0x20\n        /* \"#utility.yul\":6533:6542   */\n      dup3\n        /* \"#utility.yul\":6529:6547   */\n      add\n        /* \"#utility.yul\":6521:6547   */\n      swap1\n      pop\n        /* \"#utility.yul\":6557:6628   */\n      tag_171\n        /* \"#utility.yul\":6625:6626   */\n      0x00\n        /* \"#utility.yul\":6614:6623   */\n      dup4\n        /* \"#utility.yul\":6610:6627   */\n      add\n        /* \"#utility.yul\":6601:6607   */\n      dup5\n        /* \"#utility.yul\":6557:6628   */\n      tag_156\n      jump\t// in\n    tag_171:\n        /* \"#utility.yul\":6413:6635   */\n      swap3\n      swap2\n      pop\n      pop\n      jump\t// out\n        /* \"#utility.yul\":6641:6770   */\n    tag_80:\n        /* \"#utility.yul\":6675:6681   */\n      0x00\n        /* \"#utility.yul\":6702:6722   */\n      tag_173\n      tag_174\n      jump\t// in\n    tag_173:\n        /* \"#utility.yul\":6692:6722   */\n      swap1\n      pop\n        /* \"#utility.yul\":6731:6764   */\n      tag_175\n        /* \"#utility.yul\":6759:6763   */\n      dup3\n        /* \"#utility.yul\":6751:6757   */\n      dup3\n        /* \"#utility.yul\":6731:6764   */\n      tag_176\n      jump\t// in\n    tag_175:\n        /* \"#utility.yul\":6641:6770   */\n      swap2\n      swap1\n      pop\n      jump\t// out\n        /* \"#utility.yul\":6776:6851   */\n    tag_174:\n        /* \"#utility.yul\":6809:6815   */\n      0x00\n        /* \"#utility.yul\":6842:6844   */\n      0x40\n        /* \"#utility.yul\":6836:6845   */\n      mload\n        /* \"#utility.yul\":6826:6845   */\n      swap1\n      pop\n        /* \"#utility.yul\":6776:6851   */\n      swap1\n      jump\t// out\n        /* \"#utility.yul\":6857:7168   */\n    tag_79:\n        /* \"#utility.yul\":6934:6938   */\n      0x00\n        /* \"#utility.yul\":7024:7042   */\n      0xffffffffffffffff\n        /* \"#utility.yul\":7016:7022   */\n      dup3\n        /* \"#utility.yul\":7013:7043   */\n      gt\n        /* \"#utility.yul\":7010:7066   */\n      iszero\n      tag_179\n      jumpi\n        /* \"#utility.yul\":7046:7064   */\n      tag_180\n      tag_181\n      jump\t// in\n    tag_180:\n        /* \"#utility.yul\":7010:7066   */\n    tag_179:\n        /* \"#utility.yul\":7096:7100   */\n      0x20\n        /* \"#utility.yul\":7088:7094   */\n      dup3\n        /* \"#utility.yul\":7084:7101   */\n      mul\n        /* \"#utility.yul\":7076:7101   */\n      swap1\n      pop\n        /* \"#utility.yul\":7156:7160   */\n      0x20\n        /* \"#utility.yul\":7150:7154   */\n      dup2\n        /* \"#utility.yul\":7146:7161   */\n      add\n        /* \"#utility.yul\":7138:7161   */\n      swap1\n      pop\n        /* \"#utility.yul\":6857:7168   */\n      swap2\n      swap1\n      pop\n      jump\t// out\n        /* \"#utility.yul\":7174:7482   */\n    tag_93:\n        /* \"#utility.yul\":7236:7240   */\n      0x00\n        /* \"#utility.yul\":7326:7344   */\n      0xffffffffffffffff\n        /* \"#utility.yul\":7318:7324   */\n      dup3\n        /* \"#utility.yul\":7315:7345   */\n      gt\n        /* \"#utility.yul\":7312:7368   */\n      iszero\n      tag_183\n      jumpi\n        /* \"#utility.yul\":7348:7366   */\n      tag_184\n      tag_181\n      jump\t// in\n    tag_184:\n        /* \"#utility.yul\":7312:7368   */\n    tag_183:\n        /* \"#utility.yul\":7386:7415   */\n      tag_185\n        /* \"#utility.yul\":7408:7414   */\n      dup3\n        /* \"#utility.yul\":7386:7415   */\n      tag_145\n      jump\t// in\n    tag_185:\n        /* \"#utility.yul\":7378:7415   */\n      swap1\n      pop\n        /* \"#utility.yul\":7470:7474   */\n      0x20\n        /* \"#utility.yul\":7464:7468   */\n      dup2\n        /* \"#utility.yul\":7460:7475   */\n      add\n        /* \"#utility.yul\":7452:7475   */\n      swap1\n      pop\n        /* \"#utility.yul\":7174:7482   */\n      swap2\n      swap1\n      pop\n      jump\t// out\n        /* \"#utility.yul\":7488:7587   */\n    tag_139:\n        /* \"#utility.yul\":7540:7546   */\n      0x00\n        /* \"#utility.yul\":7574:7579   */\n      dup2\n        /* \"#utility.yul\":7568:7580   */\n      mload\n        /* \"#utility.yul\":7558:7580   */\n      swap1\n      pop\n        /* \"#utility.yul\":7488:7587   */\n      swap2\n      swap1\n      pop\n      jump\t// out\n        /* \"#utility.yul\":7593:7762   */\n    tag_141:\n        /* \"#utility.yul\":7677:7688   */\n      0x00\n        /* \"#utility.yul\":7711:7717   */\n      dup3\n        /* \"#utility.yul\":7706:7709   */\n      dup3\n        /* \"#utility.yul\":7699:7718   */\n      mstore\n        /* \"#utility.yul\":7751:7755   */\n      0x20\n        /* \"#utility.yul\":7746:7749   */\n      dup3\n        /* \"#utility.yul\":7742:7756   */\n      add\n        /* \"#utility.yul\":7727:7756   */\n      swap1\n      pop\n        /* \"#utility.yul\":7593:7762   */\n      swap3\n      swap2\n      pop\n      pop\n      jump\t// out\n        /* \"#utility.yul\":7768:7959   */\n    tag_45:\n        /* \"#utility.yul\":7808:7812   */\n      0x00\n        /* \"#utility.yul\":7828:7848   */\n      tag_189\n        /* \"#utility.yul\":7846:7847   */\n      dup3\n        /* \"#utility.yul\":7828:7848   */\n      tag_159\n      jump\t// in\n    tag_189:\n        /* \"#utility.yul\":7823:7848   */\n      swap2\n      pop\n        /* \"#utility.yul\":7862:7882   */\n      tag_190\n        /* \"#utility.yul\":7880:7881   */\n      dup4\n        /* \"#utility.yul\":7862:7882   */\n      tag_159\n      jump\t// in\n    tag_190:\n        /* \"#utility.yul\":7857:7882   */\n      swap3\n      pop\n        /* \"#utility.yul\":7901:7902   */\n      dup3\n        /* \"#utility.yul\":7898:7899   */\n      dup3\n        /* \"#utility.yul\":7895:7903   */\n      lt\n        /* \"#utility.yul\":7892:7926   */\n      iszero\n      tag_191\n      jumpi\n        /* \"#utility.yul\":7906:7924   */\n      tag_192\n      tag_193\n      jump\t// in\n    tag_192:\n        /* \"#utility.yul\":7892:7926   */\n    tag_191:\n        /* \"#utility.yul\":7951:7952   */\n      dup3\n        /* \"#utility.yul\":7948:7949   */\n      dup3\n        /* \"#utility.yul\":7944:7953   */\n      sub\n        /* \"#utility.yul\":7936:7953   */\n      swap1\n      pop\n        /* \"#utility.yul\":7768:7959   */\n      swap3\n      swap2\n      pop\n      pop\n      jump\t// out\n        /* \"#utility.yul\":7965:8061   */\n    tag_131:\n        /* \"#utility.yul\":8002:8009   */\n      0x00\n        /* \"#utility.yul\":8031:8055   */\n      tag_195\n        /* \"#utility.yul\":8049:8054   */\n      dup3\n        /* \"#utility.yul\":8031:8055   */\n      tag_196\n      jump\t// in\n    tag_195:\n        /* \"#utility.yul\":8020:8055   */\n      swap1\n      pop\n        /* \"#utility.yul\":7965:8061   */\n      swap2\n      swap1\n      pop\n      jump\t// out\n        /* \"#utility.yul\":8067:8194   */\n    tag_197:\n        /* \"#utility.yul\":8112:8119   */\n      0x00\n        /* \"#utility.yul\":8141:8146   */\n      dup2\n        /* \"#utility.yul\":8130:8146   */\n      swap1\n      pop\n        /* \"#utility.yul\":8147:8188   */\n      tag_199\n        /* \"#utility.yul\":8182:8187   */\n      dup3\n        /* \"#utility.yul\":8147:8188   */\n      tag_200\n      jump\t// in\n    tag_199:\n        /* \"#utility.yul\":8067:8194   */\n      swap2\n      swap1\n      pop\n      jump\t// out\n        /* \"#utility.yul\":8200:8326   */\n    tag_196:\n        /* \"#utility.yul\":8237:8244   */\n      0x00\n        /* \"#utility.yul\":8277:8319   */\n      0xffffffffffffffffffffffffffffffffffffffff\n        /* \"#utility.yul\":8270:8275   */\n      dup3\n        /* \"#utility.yul\":8266:8320   */\n      and\n        /* \"#utility.yul\":8255:8320   */\n      swap1\n      pop\n        /* \"#utility.yul\":8200:8326   */\n      swap2\n      swap1\n      pop\n      jump\t// out\n        /* \"#utility.yul\":8332:8409   */\n    tag_159:\n        /* \"#utility.yul\":8369:8376   */\n      0x00\n        /* \"#utility.yul\":8398:8403   */\n      dup2\n        /* \"#utility.yul\":8387:8403   */\n      swap1\n      pop\n        /* \"#utility.yul\":8332:8409   */\n      swap2\n      swap1\n      pop\n      jump\t// out\n        /* \"#utility.yul\":8415:8542   */\n    tag_135:\n        /* \"#utility.yul\":8471:8480   */\n      0x00\n        /* \"#utility.yul\":8504:8536   */\n      tag_204\n        /* \"#utility.yul\":8530:8535   */\n      dup3\n        /* \"#utility.yul\":8504:8536   */\n      tag_197\n      jump\t// in\n    tag_204:\n        /* \"#utility.yul\":8491:8536   */\n      swap1\n      pop\n        /* \"#utility.yul\":8415:8542   */\n      swap2\n      swap1\n      pop\n      jump\t// out\n        /* \"#utility.yul\":8548:8702   */\n    tag_98:\n        /* \"#utility.yul\":8632:8638   */\n      dup3\n        /* \"#utility.yul\":8627:8630   */\n      dup2\n        /* \"#utility.yul\":8622:8625   */\n      dup4\n        /* \"#utility.yul\":8609:8639   */\n      calldatacopy\n        /* \"#utility.yul\":8694:8695   */\n      0x00\n        /* \"#utility.yul\":8685:8691   */\n      dup4\n        /* \"#utility.yul\":8680:8683   */\n      dup4\n        /* \"#utility.yul\":8676:8692   */\n      add\n        /* \"#utility.yul\":8669:8696   */\n      mstore\n        /* \"#utility.yul\":8548:8702   */\n      pop\n      pop\n      pop\n      jump\t// out\n        /* \"#utility.yul\":8708:9015   */\n    tag_143:\n        /* \"#utility.yul\":8776:8777   */\n      0x00\n        /* \"#utility.yul\":8786:8899   */\n    tag_207:\n        /* \"#utility.yul\":8800:8806   */\n      dup4\n        /* \"#utility.yul\":8797:8798   */\n      dup2\n        /* \"#utility.yul\":8794:8807   */\n      lt\n        /* \"#utility.yul\":8786:8899   */\n      iszero\n      tag_209\n      jumpi\n        /* \"#utility.yul\":8885:8886   */\n      dup1\n        /* \"#utility.yul\":8880:8883   */\n      dup3\n        /* \"#utility.yul\":8876:8887   */\n      add\n        /* \"#utility.yul\":8870:8888   */\n      mload\n        /* \"#utility.yul\":8866:8867   */\n      dup2\n        /* \"#utility.yul\":8861:8864   */\n      dup5\n        /* \"#utility.yul\":8857:8868   */\n      add\n        /* \"#utility.yul\":8850:8889   */\n      mstore\n        /* \"#utility.yul\":8822:8824   */\n      0x20\n        /* \"#utility.yul\":8819:8820   */\n      dup2\n        /* \"#utility.yul\":8815:8825   */\n      add\n        /* \"#utility.yul\":8810:8825   */\n      swap1\n      pop\n        /* \"#utility.yul\":8786:8899   */\n      jump(tag_207)\n    tag_209:\n        /* \"#utility.yul\":8917:8923   */\n      dup4\n        /* \"#utility.yul\":8914:8915   */\n      dup2\n        /* \"#utility.yul\":8911:8924   */\n      gt\n        /* \"#utility.yul\":8908:9009   */\n      iszero\n      tag_210\n      jumpi\n        /* \"#utility.yul\":8997:8998   */\n      0x00\n        /* \"#utility.yul\":8988:8994   */\n      dup5\n        /* \"#utility.yul\":8983:8986   */\n      dup5\n        /* \"#utility.yul\":8979:8995   */\n      add\n        /* \"#utility.yul\":8972:8999   */\n      mstore\n        /* \"#utility.yul\":8908:9009   */\n    tag_210:\n        /* \"#utility.yul\":8757:9015   */\n      pop\n        /* \"#utility.yul\":8708:9015   */\n      pop\n      pop\n      pop\n      jump\t// out\n        /* \"#utility.yul\":9021:9341   */\n    tag_49:\n        /* \"#utility.yul\":9065:9071   */\n      0x00\n        /* \"#utility.yul\":9102:9103   */\n      0x02\n        /* \"#utility.yul\":9096:9100   */\n      dup3\n        /* \"#utility.yul\":9092:9104   */\n      div\n        /* \"#utility.yul\":9082:9104   */\n      swap1\n      pop\n        /* \"#utility.yul\":9149:9150   */\n      0x01\n        /* \"#utility.yul\":9143:9147   */\n      dup3\n        /* \"#utility.yul\":9139:9151   */\n      and\n        /* \"#utility.yul\":9170:9188   */\n      dup1\n        /* \"#utility.yul\":9160:9241   */\n      tag_212\n      jumpi\n        /* \"#utility.yul\":9226:9230   */\n      0x7f\n        /* \"#utility.yul\":9218:9224   */\n      dup3\n        /* \"#utility.yul\":9214:9231   */\n      and\n        /* \"#utility.yul\":9204:9231   */\n      swap2\n      pop\n        /* \"#utility.yul\":9160:9241   */\n    tag_212:\n        /* \"#utility.yul\":9288:9290   */\n      0x20\n        /* \"#utility.yul\":9280:9286   */\n      dup3\n        /* \"#utility.yul\":9277:9291   */\n      lt\n        /* \"#utility.yul\":9257:9275   */\n      dup2\n        /* \"#utility.yul\":9254:9292   */\n      eq\n        /* \"#utility.yul\":9251:9335   */\n      iszero\n      tag_213\n      jumpi\n        /* \"#utility.yul\":9307:9325   */\n      tag_214\n      tag_215\n      jump\t// in\n    tag_214:\n        /* \"#utility.yul\":9251:9335   */\n    tag_213:\n        /* \"#utility.yul\":9072:9341   */\n      pop\n        /* \"#utility.yul\":9021:9341   */\n      swap2\n      swap1\n      pop\n      jump\t// out\n        /* \"#utility.yul\":9347:9628   */\n    tag_176:\n        /* \"#utility.yul\":9430:9457   */\n      tag_217\n        /* \"#utility.yul\":9452:9456   */\n      dup3\n        /* \"#utility.yul\":9430:9457   */\n      tag_145\n      jump\t// in\n    tag_217:\n        /* \"#utility.yul\":9422:9428   */\n      dup2\n        /* \"#utility.yul\":9418:9458   */\n      add\n        /* \"#utility.yul\":9560:9566   */\n      dup2\n        /* \"#utility.yul\":9548:9558   */\n      dup2\n        /* \"#utility.yul\":9545:9567   */\n      lt\n        /* \"#utility.yul\":9524:9542   */\n      0xffffffffffffffff\n        /* \"#utility.yul\":9512:9522   */\n      dup3\n        /* \"#utility.yul\":9509:9543   */\n      gt\n        /* \"#utility.yul\":9506:9568   */\n      or\n        /* \"#utility.yul\":9503:9591   */\n      iszero\n      tag_218\n      jumpi\n        /* \"#utility.yul\":9571:9589   */\n      tag_219\n      tag_181\n      jump\t// in\n    tag_219:\n        /* \"#utility.yul\":9503:9591   */\n    tag_218:\n        /* \"#utility.yul\":9611:9621   */\n      dup1\n        /* \"#utility.yul\":9607:9609   */\n      0x40\n        /* \"#utility.yul\":9600:9622   */\n      mstore\n        /* \"#utility.yul\":9390:9628   */\n      pop\n        /* \"#utility.yul\":9347:9628   */\n      pop\n      pop\n      jump\t// out\n        /* \"#utility.yul\":9634:9814   */\n    tag_193:\n        /* \"#utility.yul\":9682:9759   */\n      0x4e487b7100000000000000000000000000000000000000000000000000000000\n        /* \"#utility.yul\":9679:9680   */\n      0x00\n        /* \"#utility.yul\":9672:9760   */\n      mstore\n        /* \"#utility.yul\":9779:9783   */\n      0x11\n        /* \"#utility.yul\":9776:9777   */\n      0x04\n        /* \"#utility.yul\":9769:9784   */\n      mstore\n        /* \"#utility.yul\":9803:9807   */\n      0x24\n        /* \"#utility.yul\":9800:9801   */\n      0x00\n        /* \"#utility.yul\":9793:9808   */\n      revert\n        /* \"#utility.yul\":9820:10000   */\n    tag_34:\n        /* \"#utility.yul\":9868:9945   */\n      0x4e487b7100000000000000000000000000000000000000000000000000000000\n        /* \"#utility.yul\":9865:9866   */\n      0x00\n        /* \"#utility.yul\":9858:9946   */\n      mstore\n        /* \"#utility.yul\":9965:9969   */\n      0x21\n        /* \"#utility.yul\":9962:9963   */\n      0x04\n        /* \"#utility.yul\":9955:9970   */\n      mstore\n        /* \"#utility.yul\":9989:9993   */\n      0x24\n        /* \"#utility.yul\":9986:9987   */\n      0x00\n        /* \"#utility.yul\":9979:9994   */\n      revert\n        /* \"#utility.yul\":10006:10186   */\n    tag_215:\n        /* \"#utility.yul\":10054:10131   */\n      0x4e487b7100000000000000000000000000000000000000000000000000000000\n        /* \"#utility.yul\":10051:10052   */\n      0x00\n        /* \"#utility.yul\":10044:10132   */\n      mstore\n        /* \"#utility.yul\":10151:10155   */\n      0x22\n        /* \"#utility.yul\":10148:10149   */\n      0x04\n        /* \"#utility.yul\":10141:10156   */\n      mstore\n        /* \"#utility.yul\":10175:10179   */\n      0x24\n        /* \"#utility.yul\":10172:10173   */\n      0x00\n        /* \"#utility.yul\":10165:10180   */\n      revert\n        /* \"#utility.yul\":10192:10372   */\n    tag_181:\n        /* \"#utility.yul\":10240:10317   */\n      0x4e487b7100000000000000000000000000000000000000000000000000000000\n        /* \"#utility.yul\":10237:10238   */\n      0x00\n        /* \"#utility.yul\":10230:10318   */\n      mstore\n        /* \"#utility.yul\":10337:10341   */\n      0x41\n        /* \"#utility.yul\":10334:10335   */\n      0x04\n        /* \"#utility.yul\":10327:10342   */\n      mstore\n        /* \"#utility.yul\":10361:10365   */\n      0x24\n        /* \"#utility.yul\":10358:10359   */\n      0x00\n        /* \"#utility.yul\":10351:10366   */\n      revert\n        /* \"#utility.yul\":10378:10495   */\n    tag_103:\n        /* \"#utility.yul\":10487:10488   */\n      0x00\n        /* \"#utility.yul\":10484:10485   */\n      dup1\n        /* \"#utility.yul\":10477:10489   */\n      revert\n        /* \"#utility.yul\":10501:10618   */\n    tag_83:\n        /* \"#utility.yul\":10610:10611   */\n      0x00\n        /* \"#utility.yul\":10607:10608   */\n      dup1\n        /* \"#utility.yul\":10600:10612   */\n      revert\n        /* \"#utility.yul\":10624:10741   */\n    tag_96:\n        /* \"#utility.yul\":10733:10734   */\n      0x00\n        /* \"#utility.yul\":10730:10731   */\n      dup1\n        /* \"#utility.yul\":10723:10735   */\n      revert\n        /* \"#utility.yul\":10747:10864   */\n    tag_119:\n        /* \"#utility.yul\":10856:10857   */\n      0x00\n        /* \"#utility.yul\":10853:10854   */\n      dup1\n        /* \"#utility.yul\":10846:10858   */\n      revert\n        /* \"#utility.yul\":10870:10987   */\n    tag_116:\n        /* \"#utility.yul\":10979:10980   */\n      0x00\n        /* \"#utility.yul\":10976:10977   */\n      dup1\n        /* \"#utility.yul\":10969:10981   */\n      revert\n        /* \"#utility.yul\":10993:11095   */\n    tag_145:\n        /* \"#utility.yul\":11034:11040   */\n      0x00\n        /* \"#utility.yul\":11085:11087   */\n      0x1f\n        /* \"#utility.yul\":11081:11088   */\n      not\n        /* \"#utility.yul\":11076:11078   */\n      0x1f\n        /* \"#utility.yul\":11069:11074   */\n      dup4\n        /* \"#utility.yul\":11065:11079   */\n      add\n        /* \"#utility.yul\":11061:11089   */\n      and\n        /* \"#utility.yul\":11051:11089   */\n      swap1\n      pop\n        /* \"#utility.yul\":10993:11095   */\n      swap2\n      swap1\n      pop\n      jump\t// out\n        /* \"#utility.yul\":11101:11262   */\n    tag_150:\n        /* \"#utility.yul\":11241:11254   */\n      0x4e6f2070726f6475637473000000000000000000000000000000000000000000\n        /* \"#utility.yul\":11237:11238   */\n      0x00\n        /* \"#utility.yul\":11229:11235   */\n      dup3\n        /* \"#utility.yul\":11225:11239   */\n      add\n        /* \"#utility.yul\":11218:11255   */\n      mstore\n        /* \"#utility.yul\":11101:11262   */\n      pop\n      jump\t// out\n        /* \"#utility.yul\":11268:11440   */\n    tag_155:\n        /* \"#utility.yul\":11408:11432   */\n      0x596f75277265206e6f7420617574686f72697a65642e00000000000000000000\n        /* \"#utility.yul\":11404:11405   */\n      0x00\n        /* \"#utility.yul\":11396:11402   */\n      dup3\n        /* \"#utility.yul\":11392:11406   */\n      add\n        /* \"#utility.yul\":11385:11433   */\n      mstore\n        /* \"#utility.yul\":11268:11440   */\n      pop\n      jump\t// out\n        /* \"#utility.yul\":11446:11559   */\n    tag_200:\n        /* \"#utility.yul\":11527:11528   */\n      0x04\n        /* \"#utility.yul\":11520:11525   */\n      dup2\n        /* \"#utility.yul\":11517:11529   */\n      lt\n        /* \"#utility.yul\":11507:11553   */\n      tag_233\n      jumpi\n        /* \"#utility.yul\":11533:11551   */\n      tag_234\n      tag_34\n      jump\t// in\n    tag_234:\n        /* \"#utility.yul\":11507:11553   */\n    tag_233:\n        /* \"#utility.yul\":11446:11559   */\n      pop\n      jump\t// out\n        /* \"#utility.yul\":11565:11687   */\n    tag_112:\n        /* \"#utility.yul\":11638:11662   */\n      tag_236\n        /* \"#utility.yul\":11656:11661   */\n      dup2\n        /* \"#utility.yul\":11638:11662   */\n      tag_159\n      jump\t// in\n    tag_236:\n        /* \"#utility.yul\":11631:11636   */\n      dup2\n        /* \"#utility.yul\":11628:11663   */\n      eq\n        /* \"#utility.yul\":11618:11681   */\n      tag_237\n      jumpi\n        /* \"#utility.yul\":11677:11678   */\n      0x00\n        /* \"#utility.yul\":11674:11675   */\n      dup1\n        /* \"#utility.yul\":11667:11679   */\n      revert\n        /* \"#utility.yul\":11618:11681   */\n    tag_237:\n        /* \"#utility.yul\":11565:11687   */\n      pop\n      jump\t// out\n\n    auxdata: 0xa26469706673582212203a8c9c84c9f4ac19cfff7a7c41812014b92ff7e8e96d5894e6cd878dfb3a92ea64736f6c63430008070033\n}\n",
				"bytecode": {
					"linkReferences": {},
					"object": "608060405234801561001057600080fd5b5033600160006101000a81548173ffffffffffffffffffffffffffffffffffffffff021916908373ffffffffffffffffffffffffffffffffffffffff160217905550610c30806100616000396000f3fe608060405234801561001057600080fd5b506004361061004c5760003560e01c80636d9a65d8146100515780638da5cb5b14610081578063a85c38ef1461009f578063afe13a62146100d1575b600080fd5b61006b600480360381019061006691906106ba565b6100ed565b60405161007891906108a4565b60405180910390f35b6100896102af565b604051610096919061080b565b60405180910390f35b6100b960048036038101906100b49190610732565b6102d5565b6040516100c893929190610826565b60405180910390f35b6100eb60048036038101906100e69190610732565b6103c4565b005b600080825111610132576040517f08c379a000000000000000000000000000000000000000000000000000000000815260040161012990610864565b60405180910390fd5b61013a610457565b33816000019073ffffffffffffffffffffffffffffffffffffffff16908173ffffffffffffffffffffffffffffffffffffffff168152505083816020018190525082816040018190525060008160600190600381111561019d5761019c610ac6565b5b908160038111156101b1576101b0610ac6565b5b81525050600081908060018154018082558091505060019003906000526020600020906004020160009091909190915060008201518160000160006101000a81548173ffffffffffffffffffffffffffffffffffffffff021916908373ffffffffffffffffffffffffffffffffffffffff16021790555060208201518160010190805190602001906102449291906104a7565b50604082015181600201908051906020019061026192919061052d565b5060608201518160030160006101000a81548160ff0219169083600381111561028d5761028c610ac6565b5b0217905550505060016000805490506102a6919061095d565b91505092915050565b600160009054906101000a900473ffffffffffffffffffffffffffffffffffffffff1681565b600081815481106102e557600080fd5b90600052602060002090600402016000915090508060000160009054906101000a900473ffffffffffffffffffffffffffffffffffffffff169080600101805461032e90610a34565b80601f016020809104026020016040519081016040528092919081815260200182805461035a90610a34565b80156103a75780601f1061037c576101008083540402835291602001916103a7565b820191906000526020600020905b81548152906001019060200180831161038a57829003601f168201915b5050505050908060030160009054906101000a900460ff16905083565b600160009054906101000a900473ffffffffffffffffffffffffffffffffffffffff1673ffffffffffffffffffffffffffffffffffffffff163373ffffffffffffffffffffffffffffffffffffffff1614610454576040517f08c379a000000000000000000000000000000000000000000000000000000000815260040161044b90610884565b60405180910390fd5b50565b6040518060800160405280600073ffffffffffffffffffffffffffffffffffffffff1681526020016060815260200160608152602001600060038111156104a1576104a0610ac6565b5b81525090565b8280546104b390610a34565b90600052602060002090601f0160209004810192826104d5576000855561051c565b82601f106104ee57805160ff191683800117855561051c565b8280016001018555821561051c579182015b8281111561051b578251825591602001919060010190610500565b5b509050610529919061057a565b5090565b828054828255906000526020600020908101928215610569579160200282015b8281111561056857825182559160200191906001019061054d565b5b509050610576919061057a565b5090565b5b8082111561059357600081600090555060010161057b565b5090565b60006105aa6105a5846108e4565b6108bf565b905080838252602082019050828560208602820111156105cd576105cc610b58565b5b60005b858110156105fd57816105e388826106a5565b8452602084019350602083019250506001810190506105d0565b5050509392505050565b600061061a61061584610910565b6108bf565b90508281526020810184848401111561063657610635610b5d565b5b6106418482856109f2565b509392505050565b600082601f83011261065e5761065d610b53565b5b813561066e848260208601610597565b91505092915050565b600082601f83011261068c5761068b610b53565b5b813561069c848260208601610607565b91505092915050565b6000813590506106b481610be3565b92915050565b600080604083850312156106d1576106d0610b67565b5b600083013567ffffffffffffffff8111156106ef576106ee610b62565b5b6106fb85828601610677565b925050602083013567ffffffffffffffff81111561071c5761071b610b62565b5b61072885828601610649565b9150509250929050565b60006020828403121561074857610747610b67565b5b6000610756848285016106a5565b91505092915050565b61076881610991565b82525050565b610777816109e0565b82525050565b600061078882610941565b610792818561094c565b93506107a2818560208601610a01565b6107ab81610b6c565b840191505092915050565b60006107c3600b8361094c565b91506107ce82610b7d565b602082019050919050565b60006107e660168361094c565b91506107f182610ba6565b602082019050919050565b610805816109d6565b82525050565b6000602082019050610820600083018461075f565b92915050565b600060608201905061083b600083018661075f565b818103602083015261084d818561077d565b905061085c604083018461076e565b949350505050565b6000602082019050818103600083015261087d816107b6565b9050919050565b6000602082019050818103600083015261089d816107d9565b9050919050565b60006020820190506108b960008301846107fc565b92915050565b60006108c96108da565b90506108d58282610a66565b919050565b6000604051905090565b600067ffffffffffffffff8211156108ff576108fe610b24565b5b602082029050602081019050919050565b600067ffffffffffffffff82111561092b5761092a610b24565b5b61093482610b6c565b9050602081019050919050565b600081519050919050565b600082825260208201905092915050565b6000610968826109d6565b9150610973836109d6565b92508282101561098657610985610a97565b5b828203905092915050565b600061099c826109b6565b9050919050565b60008190506109b182610bcf565b919050565b600073ffffffffffffffffffffffffffffffffffffffff82169050919050565b6000819050919050565b60006109eb826109a3565b9050919050565b82818337600083830152505050565b60005b83811015610a1f578082015181840152602081019050610a04565b83811115610a2e576000848401525b50505050565b60006002820490506001821680610a4c57607f821691505b60208210811415610a6057610a5f610af5565b5b50919050565b610a6f82610b6c565b810181811067ffffffffffffffff82111715610a8e57610a8d610b24565b5b80604052505050565b7f4e487b7100000000000000000000000000000000000000000000000000000000600052601160045260246000fd5b7f4e487b7100000000000000000000000000000000000000000000000000000000600052602160045260246000fd5b7f4e487b7100000000000000000000000000000000000000000000000000000000600052602260045260246000fd5b7f4e487b7100000000000000000000000000000000000000000000000000000000600052604160045260246000fd5b600080fd5b600080fd5b600080fd5b600080fd5b600080fd5b6000601f19601f8301169050919050565b7f4e6f2070726f6475637473000000000000000000000000000000000000000000600082015250565b7f596f75277265206e6f7420617574686f72697a65642e00000000000000000000600082015250565b60048110610be057610bdf610ac6565b5b50565b610bec816109d6565b8114610bf757600080fd5b5056fea26469706673582212203a8c9c84c9f4ac19cfff7a7c41812014b92ff7e8e96d5894e6cd878dfb3a92ea64736f6c63430008070033",
					"opcodes": "PUSH1 0x80 PUSH1 0x40 MSTORE CALLVALUE DUP1 ISZERO PUSH2 0x10 JUMPI PUSH1 0x0 DUP1 REVERT JUMPDEST POP CALLER PUSH1 0x1 PUSH1 0x0 PUSH2 0x100 EXP DUP2 SLOAD DUP2 PUSH20 0xFFFFFFFFFFFFFFFFFFFFFFFFFFFFFFFFFFFFFFFF MUL NOT AND SWAP1 DUP4 PUSH20 0xFFFFFFFFFFFFFFFFFFFFFFFFFFFFFFFFFFFFFFFF AND MUL OR SWAP1 SSTORE POP PUSH2 0xC30 DUP1 PUSH2 0x61 PUSH1 0x0 CODECOPY PUSH1 0x0 RETURN INVALID PUSH1 0x80 PUSH1 0x40 MSTORE CALLVALUE DUP1 ISZERO PUSH2 0x10 JUMPI PUSH1 0x0 DUP1 REVERT JUMPDEST POP PUSH1 0x4 CALLDATASIZE LT PUSH2 0x4C JUMPI PUSH1 0x0 CALLDATALOAD PUSH1 0xE0 SHR DUP1 PUSH4 0x6D9A65D8 EQ PUSH2 0x51 JUMPI DUP1 PUSH4 0x8DA5CB5B EQ PUSH2 0x81 JUMPI DUP1 PUSH4 0xA85C38EF EQ PUSH2 0x9F JUMPI DUP1 PUSH4 0xAFE13A62 EQ PUSH2 0xD1 JUMPI JUMPDEST PUSH1 0x0 DUP1 REVERT JUMPDEST PUSH2 0x6B PUSH1 0x4 DUP1 CALLDATASIZE SUB DUP2 ADD SWAP1 PUSH2 0x66 SWAP2 SWAP1 PUSH2 0x6BA JUMP JUMPDEST PUSH2 0xED JUMP JUMPDEST PUSH1 0x40 MLOAD PUSH2 0x78 SWAP2 SWAP1 PUSH2 0x8A4 JUMP JUMPDEST PUSH1 0x40 MLOAD DUP1 SWAP2 SUB SWAP1 RETURN JUMPDEST PUSH2 0x89 PUSH2 0x2AF JUMP JUMPDEST PUSH1 0x40 MLOAD PUSH2 0x96 SWAP2 SWAP1 PUSH2 0x80B JUMP JUMPDEST PUSH1 0x40 MLOAD DUP1 SWAP2 SUB SWAP1 RETURN JUMPDEST PUSH2 0xB9 PUSH1 0x4 DUP1 CALLDATASIZE SUB DUP2 ADD SWAP1 PUSH2 0xB4 SWAP2 SWAP1 PUSH2 0x732 JUMP JUMPDEST PUSH2 0x2D5 JUMP JUMPDEST PUSH1 0x40 MLOAD PUSH2 0xC8 SWAP4 SWAP3 SWAP2 SWAP1 PUSH2 0x826 JUMP JUMPDEST PUSH1 0x40 MLOAD DUP1 SWAP2 SUB SWAP1 RETURN JUMPDEST PUSH2 0xEB PUSH1 0x4 DUP1 CALLDATASIZE SUB DUP2 ADD SWAP1 PUSH2 0xE6 SWAP2 SWAP1 PUSH2 0x732 JUMP JUMPDEST PUSH2 0x3C4 JUMP JUMPDEST STOP JUMPDEST PUSH1 0x0 DUP1 DUP3 MLOAD GT PUSH2 0x132 JUMPI PUSH1 0x40 MLOAD PUSH32 0x8C379A000000000000000000000000000000000000000000000000000000000 DUP2 MSTORE PUSH1 0x4 ADD PUSH2 0x129 SWAP1 PUSH2 0x864 JUMP JUMPDEST PUSH1 0x40 MLOAD DUP1 SWAP2 SUB SWAP1 REVERT JUMPDEST PUSH2 0x13A PUSH2 0x457 JUMP JUMPDEST CALLER DUP2 PUSH1 0x0 ADD SWAP1 PUSH20 0xFFFFFFFFFFFFFFFFFFFFFFFFFFFFFFFFFFFFFFFF AND SWAP1 DUP2 PUSH20 0xFFFFFFFFFFFFFFFFFFFFFFFFFFFFFFFFFFFFFFFF AND DUP2 MSTORE POP POP DUP4 DUP2 PUSH1 0x20 ADD DUP2 SWAP1 MSTORE POP DUP3 DUP2 PUSH1 0x40 ADD DUP2 SWAP1 MSTORE POP PUSH1 0x0 DUP2 PUSH1 0x60 ADD SWAP1 PUSH1 0x3 DUP2 GT ISZERO PUSH2 0x19D JUMPI PUSH2 0x19C PUSH2 0xAC6 JUMP JUMPDEST JUMPDEST SWAP1 DUP2 PUSH1 0x3 DUP2 GT ISZERO PUSH2 0x1B1 JUMPI PUSH2 0x1B0 PUSH2 0xAC6 JUMP JUMPDEST JUMPDEST DUP2 MSTORE POP POP PUSH1 0x0 DUP2 SWAP1 DUP1 PUSH1 0x1 DUP2 SLOAD ADD DUP1 DUP3 SSTORE DUP1 SWAP2 POP POP PUSH1 0x1 SWAP1 SUB SWAP1 PUSH1 0x0 MSTORE PUSH1 0x20 PUSH1 0x0 KECCAK256 SWAP1 PUSH1 0x4 MUL ADD PUSH1 0x0 SWAP1 SWAP2 SWAP1 SWAP2 SWAP1 SWAP2 POP PUSH1 0x0 DUP3 ADD MLOAD DUP2 PUSH1 0x0 ADD PUSH1 0x0 PUSH2 0x100 EXP DUP2 SLOAD DUP2 PUSH20 0xFFFFFFFFFFFFFFFFFFFFFFFFFFFFFFFFFFFFFFFF MUL NOT AND SWAP1 DUP4 PUSH20 0xFFFFFFFFFFFFFFFFFFFFFFFFFFFFFFFFFFFFFFFF AND MUL OR SWAP1 SSTORE POP PUSH1 0x20 DUP3 ADD MLOAD DUP2 PUSH1 0x1 ADD SWAP1 DUP1 MLOAD SWAP1 PUSH1 0x20 ADD SWAP1 PUSH2 0x244 SWAP3 SWAP2 SWAP1 PUSH2 0x4A7 JUMP JUMPDEST POP PUSH1 0x40 DUP3 ADD MLOAD DUP2 PUSH1 0x2 ADD SWAP1 DUP1 MLOAD SWAP1 PUSH1 0x20 ADD SWAP1 PUSH2 0x261 SWAP3 SWAP2 SWAP1 PUSH2 0x52D JUMP JUMPDEST POP PUSH1 0x60 DUP3 ADD MLOAD DUP2 PUSH1 0x3 ADD PUSH1 0x0 PUSH2 0x100 EXP DUP2 SLOAD DUP2 PUSH1 0xFF MUL NOT AND SWAP1 DUP4 PUSH1 0x3 DUP2 GT ISZERO PUSH2 0x28D JUMPI PUSH2 0x28C PUSH2 0xAC6 JUMP JUMPDEST JUMPDEST MUL OR SWAP1 SSTORE POP POP POP PUSH1 0x1 PUSH1 0x0 DUP1 SLOAD SWAP1 POP PUSH2 0x2A6 SWAP2 SWAP1 PUSH2 0x95D JUMP JUMPDEST SWAP2 POP POP SWAP3 SWAP2 POP POP JUMP JUMPDEST PUSH1 0x1 PUSH1 0x0 SWAP1 SLOAD SWAP1 PUSH2 0x100 EXP SWAP1 DIV PUSH20 0xFFFFFFFFFFFFFFFFFFFFFFFFFFFFFFFFFFFFFFFF AND DUP2 JUMP JUMPDEST PUSH1 0x0 DUP2 DUP2 SLOAD DUP2 LT PUSH2 0x2E5 JUMPI PUSH1 0x0 DUP1 REVERT JUMPDEST SWAP1 PUSH1 0x0 MSTORE PUSH1 0x20 PUSH1 0x0 KECCAK256 SWAP1 PUSH1 0x4 MUL ADD PUSH1 0x0 SWAP2 POP SWAP1 POP DUP1 PUSH1 0x0 ADD PUSH1 0x0 SWAP1 SLOAD SWAP1 PUSH2 0x100 EXP SWAP1 DIV PUSH20 0xFFFFFFFFFFFFFFFFFFFFFFFFFFFFFFFFFFFFFFFF AND SWAP1 DUP1 PUSH1 0x1 ADD DUP1 SLOAD PUSH2 0x32E SWAP1 PUSH2 0xA34 JUMP JUMPDEST DUP1 PUSH1 0x1F ADD PUSH1 0x20 DUP1 SWAP2 DIV MUL PUSH1 0x20 ADD PUSH1 0x40 MLOAD SWAP1 DUP2 ADD PUSH1 0x40 MSTORE DUP1 SWAP3 SWAP2 SWAP1 DUP2 DUP2 MSTORE PUSH1 0x20 ADD DUP3 DUP1 SLOAD PUSH2 0x35A SWAP1 PUSH2 0xA34 JUMP JUMPDEST DUP1 ISZERO PUSH2 0x3A7 JUMPI DUP1 PUSH1 0x1F LT PUSH2 0x37C JUMPI PUSH2 0x100 DUP1 DUP4 SLOAD DIV MUL DUP4 MSTORE SWAP2 PUSH1 0x20 ADD SWAP2 PUSH2 0x3A7 JUMP JUMPDEST DUP3 ADD SWAP2 SWAP1 PUSH1 0x0 MSTORE PUSH1 0x20 PUSH1 0x0 KECCAK256 SWAP1 JUMPDEST DUP2 SLOAD DUP2 MSTORE SWAP1 PUSH1 0x1 ADD SWAP1 PUSH1 0x20 ADD DUP1 DUP4 GT PUSH2 0x38A JUMPI DUP3 SWAP1 SUB PUSH1 0x1F AND DUP3 ADD SWAP2 JUMPDEST POP POP POP POP POP SWAP1 DUP1 PUSH1 0x3 ADD PUSH1 0x0 SWAP1 SLOAD SWAP1 PUSH2 0x100 EXP SWAP1 DIV PUSH1 0xFF AND SWAP1 POP DUP4 JUMP JUMPDEST PUSH1 0x1 PUSH1 0x0 SWAP1 SLOAD SWAP1 PUSH2 0x100 EXP SWAP1 DIV PUSH20 0xFFFFFFFFFFFFFFFFFFFFFFFFFFFFFFFFFFFFFFFF AND PUSH20 0xFFFFFFFFFFFFFFFFFFFFFFFFFFFFFFFFFFFFFFFF AND CALLER PUSH20 0xFFFFFFFFFFFFFFFFFFFFFFFFFFFFFFFFFFFFFFFF AND EQ PUSH2 0x454 JUMPI PUSH1 0x40 MLOAD PUSH32 0x8C379A000000000000000000000000000000000000000000000000000000000 DUP2 MSTORE PUSH1 0x4 ADD PUSH2 0x44B SWAP1 PUSH2 0x884 JUMP JUMPDEST PUSH1 0x40 MLOAD DUP1 SWAP2 SUB SWAP1 REVERT JUMPDEST POP JUMP JUMPDEST PUSH1 0x40 MLOAD DUP1 PUSH1 0x80 ADD PUSH1 0x40 MSTORE DUP1 PUSH1 0x0 PUSH20 0xFFFFFFFFFFFFFFFFFFFFFFFFFFFFFFFFFFFFFFFF AND DUP2 MSTORE PUSH1 0x20 ADD PUSH1 0x60 DUP2 MSTORE PUSH1 0x20 ADD PUSH1 0x60 DUP2 MSTORE PUSH1 0x20 ADD PUSH1 0x0 PUSH1 0x3 DUP2 GT ISZERO PUSH2 0x4A1 JUMPI PUSH2 0x4A0 PUSH2 0xAC6 JUMP JUMPDEST JUMPDEST DUP2 MSTORE POP SWAP1 JUMP JUMPDEST DUP3 DUP1 SLOAD PUSH2 0x4B3 SWAP1 PUSH2 0xA34 JUMP JUMPDEST SWAP1 PUSH1 0x0 MSTORE PUSH1 0x20 PUSH1 0x0 KECCAK256 SWAP1 PUSH1 0x1F ADD PUSH1 0x20 SWAP1 DIV DUP2 ADD SWAP3 DUP3 PUSH2 0x4D5 JUMPI PUSH1 0x0 DUP6 SSTORE PUSH2 0x51C JUMP JUMPDEST DUP3 PUSH1 0x1F LT PUSH2 0x4EE JUMPI DUP1 MLOAD PUSH1 0xFF NOT AND DUP4 DUP1 ADD OR DUP6 SSTORE PUSH2 0x51C JUMP JUMPDEST DUP3 DUP1 ADD PUSH1 0x1 ADD DUP6 SSTORE DUP3 ISZERO PUSH2 0x51C JUMPI SWAP2 DUP3 ADD JUMPDEST DUP3 DUP2 GT ISZERO PUSH2 0x51B JUMPI DUP3 MLOAD DUP3 SSTORE SWAP2 PUSH1 0x20 ADD SWAP2 SWAP1 PUSH1 0x1 ADD SWAP1 PUSH2 0x500 JUMP JUMPDEST JUMPDEST POP SWAP1 POP PUSH2 0x529 SWAP2 SWAP1 PUSH2 0x57A JUMP JUMPDEST POP SWAP1 JUMP JUMPDEST DUP3 DUP1 SLOAD DUP3 DUP3 SSTORE SWAP1 PUSH1 0x0 MSTORE PUSH1 0x20 PUSH1 0x0 KECCAK256 SWAP1 DUP2 ADD SWAP3 DUP3 ISZERO PUSH2 0x569 JUMPI SWAP2 PUSH1 0x20 MUL DUP3 ADD JUMPDEST DUP3 DUP2 GT ISZERO PUSH2 0x568 JUMPI DUP3 MLOAD DUP3 SSTORE SWAP2 PUSH1 0x20 ADD SWAP2 SWAP1 PUSH1 0x1 ADD SWAP1 PUSH2 0x54D JUMP JUMPDEST JUMPDEST POP SWAP1 POP PUSH2 0x576 SWAP2 SWAP1 PUSH2 0x57A JUMP JUMPDEST POP SWAP1 JUMP JUMPDEST JUMPDEST DUP1 DUP3 GT ISZERO PUSH2 0x593 JUMPI PUSH1 0x0 DUP2 PUSH1 0x0 SWAP1 SSTORE POP PUSH1 0x1 ADD PUSH2 0x57B JUMP JUMPDEST POP SWAP1 JUMP JUMPDEST PUSH1 0x0 PUSH2 0x5AA PUSH2 0x5A5 DUP5 PUSH2 0x8E4 JUMP JUMPDEST PUSH2 0x8BF JUMP JUMPDEST SWAP1 POP DUP1 DUP4 DUP3 MSTORE PUSH1 0x20 DUP3 ADD SWAP1 POP DUP3 DUP6 PUSH1 0x20 DUP7 MUL DUP3 ADD GT ISZERO PUSH2 0x5CD JUMPI PUSH2 0x5CC PUSH2 0xB58 JUMP JUMPDEST JUMPDEST PUSH1 0x0 JUMPDEST DUP6 DUP2 LT ISZERO PUSH2 0x5FD JUMPI DUP2 PUSH2 0x5E3 DUP9 DUP3 PUSH2 0x6A5 JUMP JUMPDEST DUP5 MSTORE PUSH1 0x20 DUP5 ADD SWAP4 POP PUSH1 0x20 DUP4 ADD SWAP3 POP POP PUSH1 0x1 DUP2 ADD SWAP1 POP PUSH2 0x5D0 JUMP JUMPDEST POP POP POP SWAP4 SWAP3 POP POP POP JUMP JUMPDEST PUSH1 0x0 PUSH2 0x61A PUSH2 0x615 DUP5 PUSH2 0x910 JUMP JUMPDEST PUSH2 0x8BF JUMP JUMPDEST SWAP1 POP DUP3 DUP2 MSTORE PUSH1 0x20 DUP2 ADD DUP5 DUP5 DUP5 ADD GT ISZERO PUSH2 0x636 JUMPI PUSH2 0x635 PUSH2 0xB5D JUMP JUMPDEST JUMPDEST PUSH2 0x641 DUP5 DUP3 DUP6 PUSH2 0x9F2 JUMP JUMPDEST POP SWAP4 SWAP3 POP POP POP JUMP JUMPDEST PUSH1 0x0 DUP3 PUSH1 0x1F DUP4 ADD SLT PUSH2 0x65E JUMPI PUSH2 0x65D PUSH2 0xB53 JUMP JUMPDEST JUMPDEST DUP2 CALLDATALOAD PUSH2 0x66E DUP5 DUP3 PUSH1 0x20 DUP7 ADD PUSH2 0x597 JUMP JUMPDEST SWAP2 POP POP SWAP3 SWAP2 POP POP JUMP JUMPDEST PUSH1 0x0 DUP3 PUSH1 0x1F DUP4 ADD SLT PUSH2 0x68C JUMPI PUSH2 0x68B PUSH2 0xB53 JUMP JUMPDEST JUMPDEST DUP2 CALLDATALOAD PUSH2 0x69C DUP5 DUP3 PUSH1 0x20 DUP7 ADD PUSH2 0x607 JUMP JUMPDEST SWAP2 POP POP SWAP3 SWAP2 POP POP JUMP JUMPDEST PUSH1 0x0 DUP2 CALLDATALOAD SWAP1 POP PUSH2 0x6B4 DUP2 PUSH2 0xBE3 JUMP JUMPDEST SWAP3 SWAP2 POP POP JUMP JUMPDEST PUSH1 0x0 DUP1 PUSH1 0x40 DUP4 DUP6 SUB SLT ISZERO PUSH2 0x6D1 JUMPI PUSH2 0x6D0 PUSH2 0xB67 JUMP JUMPDEST JUMPDEST PUSH1 0x0 DUP4 ADD CALLDATALOAD PUSH8 0xFFFFFFFFFFFFFFFF DUP2 GT ISZERO PUSH2 0x6EF JUMPI PUSH2 0x6EE PUSH2 0xB62 JUMP JUMPDEST JUMPDEST PUSH2 0x6FB DUP6 DUP3 DUP7 ADD PUSH2 0x677 JUMP JUMPDEST SWAP3 POP POP PUSH1 0x20 DUP4 ADD CALLDATALOAD PUSH8 0xFFFFFFFFFFFFFFFF DUP2 GT ISZERO PUSH2 0x71C JUMPI PUSH2 0x71B PUSH2 0xB62 JUMP JUMPDEST JUMPDEST PUSH2 0x728 DUP6 DUP3 DUP7 ADD PUSH2 0x649 JUMP JUMPDEST SWAP2 POP POP SWAP3 POP SWAP3 SWAP1 POP JUMP JUMPDEST PUSH1 0x0 PUSH1 0x20 DUP3 DUP5 SUB SLT ISZERO PUSH2 0x748 JUMPI PUSH2 0x747 PUSH2 0xB67 JUMP JUMPDEST JUMPDEST PUSH1 0x0 PUSH2 0x756 DUP5 DUP3 DUP6 ADD PUSH2 0x6A5 JUMP JUMPDEST SWAP2 POP POP SWAP3 SWAP2 POP POP JUMP JUMPDEST PUSH2 0x768 DUP2 PUSH2 0x991 JUMP JUMPDEST DUP3 MSTORE POP POP JUMP JUMPDEST PUSH2 0x777 DUP2 PUSH2 0x9E0 JUMP JUMPDEST DUP3 MSTORE POP POP JUMP JUMPDEST PUSH1 0x0 PUSH2 0x788 DUP3 PUSH2 0x941 JUMP JUMPDEST PUSH2 0x792 DUP2 DUP6 PUSH2 0x94C JUMP JUMPDEST SWAP4 POP PUSH2 0x7A2 DUP2 DUP6 PUSH1 0x20 DUP7 ADD PUSH2 0xA01 JUMP JUMPDEST PUSH2 0x7AB DUP2 PUSH2 0xB6C JUMP JUMPDEST DUP5 ADD SWAP2 POP POP SWAP3 SWAP2 POP POP JUMP JUMPDEST PUSH1 0x0 PUSH2 0x7C3 PUSH1 0xB DUP4 PUSH2 0x94C JUMP JUMPDEST SWAP2 POP PUSH2 0x7CE DUP3 PUSH2 0xB7D JUMP JUMPDEST PUSH1 0x20 DUP3 ADD SWAP1 POP SWAP2 SWAP1 POP JUMP JUMPDEST PUSH1 0x0 PUSH2 0x7E6 PUSH1 0x16 DUP4 PUSH2 0x94C JUMP JUMPDEST SWAP2 POP PUSH2 0x7F1 DUP3 PUSH2 0xBA6 JUMP JUMPDEST PUSH1 0x20 DUP3 ADD SWAP1 POP SWAP2 SWAP1 POP JUMP JUMPDEST PUSH2 0x805 DUP2 PUSH2 0x9D6 JUMP JUMPDEST DUP3 MSTORE POP POP JUMP JUMPDEST PUSH1 0x0 PUSH1 0x20 DUP3 ADD SWAP1 POP PUSH2 0x820 PUSH1 0x0 DUP4 ADD DUP5 PUSH2 0x75F JUMP JUMPDEST SWAP3 SWAP2 POP POP JUMP JUMPDEST PUSH1 0x0 PUSH1 0x60 DUP3 ADD SWAP1 POP PUSH2 0x83B PUSH1 0x0 DUP4 ADD DUP7 PUSH2 0x75F JUMP JUMPDEST DUP2 DUP2 SUB PUSH1 0x20 DUP4 ADD MSTORE PUSH2 0x84D DUP2 DUP6 PUSH2 0x77D JUMP JUMPDEST SWAP1 POP PUSH2 0x85C PUSH1 0x40 DUP4 ADD DUP5 PUSH2 0x76E JUMP JUMPDEST SWAP5 SWAP4 POP POP POP POP JUMP JUMPDEST PUSH1 0x0 PUSH1 0x20 DUP3 ADD SWAP1 POP DUP2 DUP2 SUB PUSH1 0x0 DUP4 ADD MSTORE PUSH2 0x87D DUP2 PUSH2 0x7B6 JUMP JUMPDEST SWAP1 POP SWAP2 SWAP1 POP JUMP JUMPDEST PUSH1 0x0 PUSH1 0x20 DUP3 ADD SWAP1 POP DUP2 DUP2 SUB PUSH1 0x0 DUP4 ADD MSTORE PUSH2 0x89D DUP2 PUSH2 0x7D9 JUMP JUMPDEST SWAP1 POP SWAP2 SWAP1 POP JUMP JUMPDEST PUSH1 0x0 PUSH1 0x20 DUP3 ADD SWAP1 POP PUSH2 0x8B9 PUSH1 0x0 DUP4 ADD DUP5 PUSH2 0x7FC JUMP JUMPDEST SWAP3 SWAP2 POP POP JUMP JUMPDEST PUSH1 0x0 PUSH2 0x8C9 PUSH2 0x8DA JUMP JUMPDEST SWAP1 POP PUSH2 0x8D5 DUP3 DUP3 PUSH2 0xA66 JUMP JUMPDEST SWAP2 SWAP1 POP JUMP JUMPDEST PUSH1 0x0 PUSH1 0x40 MLOAD SWAP1 POP SWAP1 JUMP JUMPDEST PUSH1 0x0 PUSH8 0xFFFFFFFFFFFFFFFF DUP3 GT ISZERO PUSH2 0x8FF JUMPI PUSH2 0x8FE PUSH2 0xB24 JUMP JUMPDEST JUMPDEST PUSH1 0x20 DUP3 MUL SWAP1 POP PUSH1 0x20 DUP2 ADD SWAP1 POP SWAP2 SWAP1 POP JUMP JUMPDEST PUSH1 0x0 PUSH8 0xFFFFFFFFFFFFFFFF DUP3 GT ISZERO PUSH2 0x92B JUMPI PUSH2 0x92A PUSH2 0xB24 JUMP JUMPDEST JUMPDEST PUSH2 0x934 DUP3 PUSH2 0xB6C JUMP JUMPDEST SWAP1 POP PUSH1 0x20 DUP2 ADD SWAP1 POP SWAP2 SWAP1 POP JUMP JUMPDEST PUSH1 0x0 DUP2 MLOAD SWAP1 POP SWAP2 SWAP1 POP JUMP JUMPDEST PUSH1 0x0 DUP3 DUP3 MSTORE PUSH1 0x20 DUP3 ADD SWAP1 POP SWAP3 SWAP2 POP POP JUMP JUMPDEST PUSH1 0x0 PUSH2 0x968 DUP3 PUSH2 0x9D6 JUMP JUMPDEST SWAP2 POP PUSH2 0x973 DUP4 PUSH2 0x9D6 JUMP JUMPDEST SWAP3 POP DUP3 DUP3 LT ISZERO PUSH2 0x986 JUMPI PUSH2 0x985 PUSH2 0xA97 JUMP JUMPDEST JUMPDEST DUP3 DUP3 SUB SWAP1 POP SWAP3 SWAP2 POP POP JUMP JUMPDEST PUSH1 0x0 PUSH2 0x99C DUP3 PUSH2 0x9B6 JUMP JUMPDEST SWAP1 POP SWAP2 SWAP1 POP JUMP JUMPDEST PUSH1 0x0 DUP2 SWAP1 POP PUSH2 0x9B1 DUP3 PUSH2 0xBCF JUMP JUMPDEST SWAP2 SWAP1 POP JUMP JUMPDEST PUSH1 0x0 PUSH20 0xFFFFFFFFFFFFFFFFFFFFFFFFFFFFFFFFFFFFFFFF DUP3 AND SWAP1 POP SWAP2 SWAP1 POP JUMP JUMPDEST PUSH1 0x0 DUP2 SWAP1 POP SWAP2 SWAP1 POP JUMP JUMPDEST PUSH1 0x0 PUSH2 0x9EB DUP3 PUSH2 0x9A3 JUMP JUMPDEST SWAP1 POP SWAP2 SWAP1 POP JUMP JUMPDEST DUP3 DUP2 DUP4 CALLDATACOPY PUSH1 0x0 DUP4 DUP4 ADD MSTORE POP POP POP JUMP JUMPDEST PUSH1 0x0 JUMPDEST DUP4 DUP2 LT ISZERO PUSH2 0xA1F JUMPI DUP1 DUP3 ADD MLOAD DUP2 DUP5 ADD MSTORE PUSH1 0x20 DUP2 ADD SWAP1 POP PUSH2 0xA04 JUMP JUMPDEST DUP4 DUP2 GT ISZERO PUSH2 0xA2E JUMPI PUSH1 0x0 DUP5 DUP5 ADD MSTORE JUMPDEST POP POP POP POP JUMP JUMPDEST PUSH1 0x0 PUSH1 0x2 DUP3 DIV SWAP1 POP PUSH1 0x1 DUP3 AND DUP1 PUSH2 0xA4C JUMPI PUSH1 0x7F DUP3 AND SWAP2 POP JUMPDEST PUSH1 0x20 DUP3 LT DUP2 EQ ISZERO PUSH2 0xA60 JUMPI PUSH2 0xA5F PUSH2 0xAF5 JUMP JUMPDEST JUMPDEST POP SWAP2 SWAP1 POP JUMP JUMPDEST PUSH2 0xA6F DUP3 PUSH2 0xB6C JUMP JUMPDEST DUP2 ADD DUP2 DUP2 LT PUSH8 0xFFFFFFFFFFFFFFFF DUP3 GT OR ISZERO PUSH2 0xA8E JUMPI PUSH2 0xA8D PUSH2 0xB24 JUMP JUMPDEST JUMPDEST DUP1 PUSH1 0x40 MSTORE POP POP POP JUMP JUMPDEST PUSH32 0x4E487B7100000000000000000000000000000000000000000000000000000000 PUSH1 0x0 MSTORE PUSH1 0x11 PUSH1 0x4 MSTORE PUSH1 0x24 PUSH1 0x0 REVERT JUMPDEST PUSH32 0x4E487B7100000000000000000000000000000000000000000000000000000000 PUSH1 0x0 MSTORE PUSH1 0x21 PUSH1 0x4 MSTORE PUSH1 0x24 PUSH1 0x0 REVERT JUMPDEST PUSH32 0x4E487B7100000000000000000000000000000000000000000000000000000000 PUSH1 0x0 MSTORE PUSH1 0x22 PUSH1 0x4 MSTORE PUSH1 0x24 PUSH1 0x0 REVERT JUMPDEST PUSH32 0x4E487B7100000000000000000000000000000000000000000000000000000000 PUSH1 0x0 MSTORE PUSH1 0x41 PUSH1 0x4 MSTORE PUSH1 0x24 PUSH1 0x0 REVERT JUMPDEST PUSH1 0x0 DUP1 REVERT JUMPDEST PUSH1 0x0 DUP1 REVERT JUMPDEST PUSH1 0x0 DUP1 REVERT JUMPDEST PUSH1 0x0 DUP1 REVERT JUMPDEST PUSH1 0x0 DUP1 REVERT JUMPDEST PUSH1 0x0 PUSH1 0x1F NOT PUSH1 0x1F DUP4 ADD AND SWAP1 POP SWAP2 SWAP1 POP JUMP JUMPDEST PUSH32 0x4E6F2070726F6475637473000000000000000000000000000000000000000000 PUSH1 0x0 DUP3 ADD MSTORE POP JUMP JUMPDEST PUSH32 0x596F75277265206E6F7420617574686F72697A65642E00000000000000000000 PUSH1 0x0 DUP3 ADD MSTORE POP JUMP JUMPDEST PUSH1 0x4 DUP2 LT PUSH2 0xBE0 JUMPI PUSH2 0xBDF PUSH2 0xAC6 JUMP JUMPDEST JUMPDEST POP JUMP JUMPDEST PUSH2 0xBEC DUP2 PUSH2 0x9D6 JUMP JUMPDEST DUP2 EQ PUSH2 0xBF7 JUMPI PUSH1 0x0 DUP1 REVERT JUMPDEST POP JUMP INVALID LOG2 PUSH5 0x6970667358 0x22 SLT KECCAK256 GASPRICE DUP13 SWAP13 DUP5 0xC9 DELEGATECALL 0xAC NOT 0xCF SELFDESTRUCT PUSH27 0x7C41812014B92FF7E8E96D5894E6CD878DFB3A92EA64736F6C6343 STOP ADDMOD SMOD STOP CALLER "
				},
				"gasEstimates": {
					"creation": {
						"codeDepositCost": "624000",
						"executionCost": "24923",
						"totalCost": "648923"
					},
					"external": {
						"advanceOrder(uint256)": "2907",
						"createOrder(string,uint256[])": "infinite",
						"orders(uint256)": "infinite",
						"owner()": "2514"
					}
				},
				"methodIdentifiers": {
					"advanceOrder(uint256)": "afe13a62",
					"createOrder(string,uint256[])": "6d9a65d8",
					"orders(uint256)": "a85c38ef",
					"owner()": "8da5cb5b"
				}
			},
			"storageLayout": {
				"storage": [
					{
						"astId": 21,
						"contract": "contracts/StructsEnums.sol:StructsEnums",
						"label": "orders",
						"offset": 0,
						"slot": "0",
						"type": "t_array(t_struct(Order)17_storage)dyn_storage"
					},
					{
						"astId": 23,
						"contract": "contracts/StructsEnums.sol:StructsEnums",
						"label": "owner",
						"offset": 0,
						"slot": "1",
						"type": "t_address"
					}
				],
				"types": {
					"t_address": {
						"encoding": "inplace",
						"label": "address",
						"numberOfBytes": "20"
					},
					"t_array(t_struct(Order)17_storage)dyn_storage": {
						"base": "t_struct(Order)17_storage",
						"encoding": "dynamic_array",
						"label": "struct StructsEnums.Order[]",
						"numberOfBytes": "32"
					},
					"t_array(t_uint256)dyn_storage": {
						"base": "t_uint256",
						"encoding": "dynamic_array",
						"label": "uint256[]",
						"numberOfBytes": "32"
					},
					"t_enum(Status)6": {
						"encoding": "inplace",
						"label": "enum StructsEnums.Status",
						"numberOfBytes": "1"
					},
					"t_string_storage": {
						"encoding": "bytes",
						"label": "string",
						"numberOfBytes": "32"
					},
					"t_struct(Order)17_storage": {
						"encoding": "inplace",
						"label": "struct StructsEnums.Order",
						"members": [
							{
								"astId": 8,
								"contract": "contracts/StructsEnums.sol:StructsEnums",
								"label": "customer",
								"offset": 0,
								"slot": "0",
								"type": "t_address"
							},
							{
								"astId": 10,
								"contract": "contracts/StructsEnums.sol:StructsEnums",
								"label": "zipCode",
								"offset": 0,
								"slot": "1",
								"type": "t_string_storage"
							},
							{
								"astId": 13,
								"contract": "contracts/StructsEnums.sol:StructsEnums",
								"label": "products",
								"offset": 0,
								"slot": "2",
								"type": "t_array(t_uint256)dyn_storage"
							},
							{
								"astId": 16,
								"contract": "contracts/StructsEnums.sol:StructsEnums",
								"label": "status",
								"offset": 0,
								"slot": "3",
								"type": "t_enum(Status)6"
							}
						],
						"numberOfBytes": "128"
					},
					"t_uint256": {
						"encoding": "inplace",
						"label": "uint256",
						"numberOfBytes": "32"
					}
				}
			},
			"userdoc": {
				"kind": "user",
				"methods": {},
				"version": 1
			}
		}
	}
}