{
	"contracts/IfElse.sol": {
		"IfElse": {
			"abi": [
				{
					"inputs": [
						{
							"internalType": "string",
							"name": "_password",
							"type": "string"
						}
					],
					"stateMutability": "nonpayable",
					"type": "constructor"
				},
				{
					"inputs": [
						{
							"internalType": "string",
							"name": "_password",
							"type": "string"
						}
					],
					"name": "login",
					"outputs": [
						{
							"internalType": "bool",
							"name": "",
							"type": "bool"
						}
					],
					"stateMutability": "view",
					"type": "function"
				}
			],
			"devdoc": {
				"kind": "dev",
				"methods": {},
				"version": 1
			},
			"evm": {
				"assembly": "    /* \"contracts/IfElse.sol\":64:524  contract IfElse {... */\n  mstore(0x40, 0x80)\n    /* \"contracts/IfElse.sol\":123:226  constructor(string memory _password) {... */\n  callvalue\n  dup1\n  iszero\n  tag_1\n  jumpi\n  0x00\n  dup1\n  revert\ntag_1:\n  pop\n  mload(0x40)\n  sub(codesize, bytecodeSize)\n  dup1\n  bytecodeSize\n  dup4\n  codecopy\n  dup2\n  dup2\n  add\n  0x40\n  mstore\n  dup2\n  add\n  swap1\n  tag_2\n  swap2\n  swap1\n  tag_3\n  jump\t// in\ntag_2:\n    /* \"contracts/IfElse.sol\":208:217  _password */\n  dup1\n    /* \"contracts/IfElse.sol\":197:218  abi.encode(_password) */\n  add(0x20, mload(0x40))\n  tag_6\n  swap2\n  swap1\n  tag_7\n  jump\t// in\ntag_6:\n  mload(0x40)\n  0x20\n  dup2\n  dup4\n  sub\n  sub\n  dup2\n  mstore\n  swap1\n  0x40\n  mstore\n    /* \"contracts/IfElse.sol\":187:219  keccak256(abi.encode(_password)) */\n  dup1\n  mload\n  swap1\n  0x20\n  add\n  keccak256\n    /* \"contracts/IfElse.sol\":170:184  hashedPassword */\n  0x00\n    /* \"contracts/IfElse.sol\":170:219  hashedPassword = keccak256(abi.encode(_password)) */\n  dup2\n  swap1\n  sstore\n  pop\n    /* \"contracts/IfElse.sol\":123:226  constructor(string memory _password) {... */\n  pop\n    /* \"contracts/IfElse.sol\":64:524  contract IfElse {... */\n  jump(tag_8)\n    /* \"#utility.yul\":7:428   */\ntag_10:\n    /* \"#utility.yul\":96:101   */\n  0x00\n    /* \"#utility.yul\":121:187   */\n  tag_12\n    /* \"#utility.yul\":137:186   */\n  tag_13\n    /* \"#utility.yul\":179:185   */\n  dup5\n    /* \"#utility.yul\":137:186   */\n  tag_14\n  jump\t// in\ntag_13:\n    /* \"#utility.yul\":121:187   */\n  tag_15\n  jump\t// in\ntag_12:\n    /* \"#utility.yul\":112:187   */\n  swap1\n  pop\n    /* \"#utility.yul\":210:216   */\n  dup3\n    /* \"#utility.yul\":203:208   */\n  dup2\n    /* \"#utility.yul\":196:217   */\n  mstore\n    /* \"#utility.yul\":248:252   */\n  0x20\n    /* \"#utility.yul\":241:246   */\n  dup2\n    /* \"#utility.yul\":237:253   */\n  add\n    /* \"#utility.yul\":286:289   */\n  dup5\n    /* \"#utility.yul\":277:283   */\n  dup5\n    /* \"#utility.yul\":272:275   */\n  dup5\n    /* \"#utility.yul\":268:284   */\n  add\n    /* \"#utility.yul\":265:290   */\n  gt\n    /* \"#utility.yul\":262:374   */\n  iszero\n  tag_16\n  jumpi\n    /* \"#utility.yul\":293:372   */\n  tag_17\n  tag_18\n  jump\t// in\ntag_17:\n    /* \"#utility.yul\":262:374   */\ntag_16:\n    /* \"#utility.yul\":383:422   */\n  tag_19\n    /* \"#utility.yul\":415:421   */\n  dup5\n    /* \"#utility.yul\":410:413   */\n  dup3\n    /* \"#utility.yul\":405:408   */\n  dup6\n    /* \"#utility.yul\":383:422   */\n  tag_20\n  jump\t// in\ntag_19:\n    /* \"#utility.yul\":102:428   */\n  pop\n    /* \"#utility.yul\":7:428   */\n  swap4\n  swap3\n  pop\n  pop\n  pop\n  jump\t// out\n    /* \"#utility.yul\":448:803   */\ntag_21:\n    /* \"#utility.yul\":515:520   */\n  0x00\n    /* \"#utility.yul\":564:567   */\n  dup3\n    /* \"#utility.yul\":557:561   */\n  0x1f\n    /* \"#utility.yul\":549:555   */\n  dup4\n    /* \"#utility.yul\":545:562   */\n  add\n    /* \"#utility.yul\":541:568   */\n  slt\n    /* \"#utility.yul\":531:653   */\n  tag_23\n  jumpi\n    /* \"#utility.yul\":572:651   */\n  tag_24\n  tag_25\n  jump\t// in\ntag_24:\n    /* \"#utility.yul\":531:653   */\ntag_23:\n    /* \"#utility.yul\":682:688   */\n  dup2\n    /* \"#utility.yul\":676:689   */\n  mload\n    /* \"#utility.yul\":707:797   */\n  tag_26\n    /* \"#utility.yul\":793:796   */\n  dup5\n    /* \"#utility.yul\":785:791   */\n  dup3\n    /* \"#utility.yul\":778:782   */\n  0x20\n    /* \"#utility.yul\":770:776   */\n  dup7\n    /* \"#utility.yul\":766:783   */\n  add\n    /* \"#utility.yul\":707:797   */\n  tag_10\n  jump\t// in\ntag_26:\n    /* \"#utility.yul\":698:797   */\n  swap2\n  pop\n    /* \"#utility.yul\":521:803   */\n  pop\n    /* \"#utility.yul\":448:803   */\n  swap3\n  swap2\n  pop\n  pop\n  jump\t// out\n    /* \"#utility.yul\":809:1333   */\ntag_3:\n    /* \"#utility.yul\":889:895   */\n  0x00\n    /* \"#utility.yul\":938:940   */\n  0x20\n    /* \"#utility.yul\":926:935   */\n  dup3\n    /* \"#utility.yul\":917:924   */\n  dup5\n    /* \"#utility.yul\":913:936   */\n  sub\n    /* \"#utility.yul\":909:941   */\n  slt\n    /* \"#utility.yul\":906:1025   */\n  iszero\n  tag_28\n  jumpi\n    /* \"#utility.yul\":944:1023   */\n  tag_29\n  tag_30\n  jump\t// in\ntag_29:\n    /* \"#utility.yul\":906:1025   */\ntag_28:\n    /* \"#utility.yul\":1085:1086   */\n  0x00\n    /* \"#utility.yul\":1074:1083   */\n  dup3\n    /* \"#utility.yul\":1070:1087   */\n  add\n    /* \"#utility.yul\":1064:1088   */\n  mload\n    /* \"#utility.yul\":1115:1133   */\n  0xffffffffffffffff\n    /* \"#utility.yul\":1107:1113   */\n  dup2\n    /* \"#utility.yul\":1104:1134   */\n  gt\n    /* \"#utility.yul\":1101:1218   */\n  iszero\n  tag_31\n  jumpi\n    /* \"#utility.yul\":1137:1216   */\n  tag_32\n  tag_33\n  jump\t// in\ntag_32:\n    /* \"#utility.yul\":1101:1218   */\ntag_31:\n    /* \"#utility.yul\":1242:1316   */\n  tag_34\n    /* \"#utility.yul\":1308:1315   */\n  dup5\n    /* \"#utility.yul\":1299:1305   */\n  dup3\n    /* \"#utility.yul\":1288:1297   */\n  dup6\n    /* \"#utility.yul\":1284:1306   */\n  add\n    /* \"#utility.yul\":1242:1316   */\n  tag_21\n  jump\t// in\ntag_34:\n    /* \"#utility.yul\":1232:1316   */\n  swap2\n  pop\n    /* \"#utility.yul\":1035:1326   */\n  pop\n    /* \"#utility.yul\":809:1333   */\n  swap3\n  swap2\n  pop\n  pop\n  jump\t// out\n    /* \"#utility.yul\":1339:1703   */\ntag_35:\n    /* \"#utility.yul\":1427:1430   */\n  0x00\n    /* \"#utility.yul\":1455:1494   */\n  tag_37\n    /* \"#utility.yul\":1488:1493   */\n  dup3\n    /* \"#utility.yul\":1455:1494   */\n  tag_38\n  jump\t// in\ntag_37:\n    /* \"#utility.yul\":1510:1581   */\n  tag_39\n    /* \"#utility.yul\":1574:1580   */\n  dup2\n    /* \"#utility.yul\":1569:1572   */\n  dup6\n    /* \"#utility.yul\":1510:1581   */\n  tag_40\n  jump\t// in\ntag_39:\n    /* \"#utility.yul\":1503:1581   */\n  swap4\n  pop\n    /* \"#utility.yul\":1590:1642   */\n  tag_41\n    /* \"#utility.yul\":1635:1641   */\n  dup2\n    /* \"#utility.yul\":1630:1633   */\n  dup6\n    /* \"#utility.yul\":1623:1627   */\n  0x20\n    /* \"#utility.yul\":1616:1621   */\n  dup7\n    /* \"#utility.yul\":1612:1628   */\n  add\n    /* \"#utility.yul\":1590:1642   */\n  tag_20\n  jump\t// in\ntag_41:\n    /* \"#utility.yul\":1667:1696   */\n  tag_42\n    /* \"#utility.yul\":1689:1695   */\n  dup2\n    /* \"#utility.yul\":1667:1696   */\n  tag_43\n  jump\t// in\ntag_42:\n    /* \"#utility.yul\":1662:1665   */\n  dup5\n    /* \"#utility.yul\":1658:1697   */\n  add\n    /* \"#utility.yul\":1651:1697   */\n  swap2\n  pop\n    /* \"#utility.yul\":1431:1703   */\n  pop\n    /* \"#utility.yul\":1339:1703   */\n  swap3\n  swap2\n  pop\n  pop\n  jump\t// out\n    /* \"#utility.yul\":1709:2022   */\ntag_7:\n    /* \"#utility.yul\":1822:1826   */\n  0x00\n    /* \"#utility.yul\":1860:1862   */\n  0x20\n    /* \"#utility.yul\":1849:1858   */\n  dup3\n    /* \"#utility.yul\":1845:1863   */\n  add\n    /* \"#utility.yul\":1837:1863   */\n  swap1\n  pop\n    /* \"#utility.yul\":1909:1918   */\n  dup2\n    /* \"#utility.yul\":1903:1907   */\n  dup2\n    /* \"#utility.yul\":1899:1919   */\n  sub\n    /* \"#utility.yul\":1895:1896   */\n  0x00\n    /* \"#utility.yul\":1884:1893   */\n  dup4\n    /* \"#utility.yul\":1880:1897   */\n  add\n    /* \"#utility.yul\":1873:1920   */\n  mstore\n    /* \"#utility.yul\":1937:2015   */\n  tag_45\n    /* \"#utility.yul\":2010:2014   */\n  dup2\n    /* \"#utility.yul\":2001:2007   */\n  dup5\n    /* \"#utility.yul\":1937:2015   */\n  tag_35\n  jump\t// in\ntag_45:\n    /* \"#utility.yul\":1929:2015   */\n  swap1\n  pop\n    /* \"#utility.yul\":1709:2022   */\n  swap3\n  swap2\n  pop\n  pop\n  jump\t// out\n    /* \"#utility.yul\":2028:2157   */\ntag_15:\n    /* \"#utility.yul\":2062:2068   */\n  0x00\n    /* \"#utility.yul\":2089:2109   */\n  tag_47\n  tag_48\n  jump\t// in\ntag_47:\n    /* \"#utility.yul\":2079:2109   */\n  swap1\n  pop\n    /* \"#utility.yul\":2118:2151   */\n  tag_49\n    /* \"#utility.yul\":2146:2150   */\n  dup3\n    /* \"#utility.yul\":2138:2144   */\n  dup3\n    /* \"#utility.yul\":2118:2151   */\n  tag_50\n  jump\t// in\ntag_49:\n    /* \"#utility.yul\":2028:2157   */\n  swap2\n  swap1\n  pop\n  jump\t// out\n    /* \"#utility.yul\":2163:2238   */\ntag_48:\n    /* \"#utility.yul\":2196:2202   */\n  0x00\n    /* \"#utility.yul\":2229:2231   */\n  0x40\n    /* \"#utility.yul\":2223:2232   */\n  mload\n    /* \"#utility.yul\":2213:2232   */\n  swap1\n  pop\n    /* \"#utility.yul\":2163:2238   */\n  swap1\n  jump\t// out\n    /* \"#utility.yul\":2244:2552   */\ntag_14:\n    /* \"#utility.yul\":2306:2310   */\n  0x00\n    /* \"#utility.yul\":2396:2414   */\n  0xffffffffffffffff\n    /* \"#utility.yul\":2388:2394   */\n  dup3\n    /* \"#utility.yul\":2385:2415   */\n  gt\n    /* \"#utility.yul\":2382:2438   */\n  iszero\n  tag_53\n  jumpi\n    /* \"#utility.yul\":2418:2436   */\n  tag_54\n  tag_55\n  jump\t// in\ntag_54:\n    /* \"#utility.yul\":2382:2438   */\ntag_53:\n    /* \"#utility.yul\":2456:2485   */\n  tag_56\n    /* \"#utility.yul\":2478:2484   */\n  dup3\n    /* \"#utility.yul\":2456:2485   */\n  tag_43\n  jump\t// in\ntag_56:\n    /* \"#utility.yul\":2448:2485   */\n  swap1\n  pop\n    /* \"#utility.yul\":2540:2544   */\n  0x20\n    /* \"#utility.yul\":2534:2538   */\n  dup2\n    /* \"#utility.yul\":2530:2545   */\n  add\n    /* \"#utility.yul\":2522:2545   */\n  swap1\n  pop\n    /* \"#utility.yul\":2244:2552   */\n  swap2\n  swap1\n  pop\n  jump\t// out\n    /* \"#utility.yul\":2558:2657   */\ntag_38:\n    /* \"#utility.yul\":2610:2616   */\n  0x00\n    /* \"#utility.yul\":2644:2649   */\n  dup2\n    /* \"#utility.yul\":2638:2650   */\n  mload\n    /* \"#utility.yul\":2628:2650   */\n  swap1\n  pop\n    /* \"#utility.yul\":2558:2657   */\n  swap2\n  swap1\n  pop\n  jump\t// out\n    /* \"#utility.yul\":2663:2832   */\ntag_40:\n    /* \"#utility.yul\":2747:2758   */\n  0x00\n    /* \"#utility.yul\":2781:2787   */\n  dup3\n    /* \"#utility.yul\":2776:2779   */\n  dup3\n    /* \"#utility.yul\":2769:2788   */\n  mstore\n    /* \"#utility.yul\":2821:2825   */\n  0x20\n    /* \"#utility.yul\":2816:2819   */\n  dup3\n    /* \"#utility.yul\":2812:2826   */\n  add\n    /* \"#utility.yul\":2797:2826   */\n  swap1\n  pop\n    /* \"#utility.yul\":2663:2832   */\n  swap3\n  swap2\n  pop\n  pop\n  jump\t// out\n    /* \"#utility.yul\":2838:3145   */\ntag_20:\n    /* \"#utility.yul\":2906:2907   */\n  0x00\n    /* \"#utility.yul\":2916:3029   */\ntag_60:\n    /* \"#utility.yul\":2930:2936   */\n  dup4\n    /* \"#utility.yul\":2927:2928   */\n  dup2\n    /* \"#utility.yul\":2924:2937   */\n  lt\n    /* \"#utility.yul\":2916:3029   */\n  iszero\n  tag_62\n  jumpi\n    /* \"#utility.yul\":3015:3016   */\n  dup1\n    /* \"#utility.yul\":3010:3013   */\n  dup3\n    /* \"#utility.yul\":3006:3017   */\n  add\n    /* \"#utility.yul\":3000:3018   */\n  mload\n    /* \"#utility.yul\":2996:2997   */\n  dup2\n    /* \"#utility.yul\":2991:2994   */\n  dup5\n    /* \"#utility.yul\":2987:2998   */\n  add\n    /* \"#utility.yul\":2980:3019   */\n  mstore\n    /* \"#utility.yul\":2952:2954   */\n  0x20\n    /* \"#utility.yul\":2949:2950   */\n  dup2\n    /* \"#utility.yul\":2945:2955   */\n  add\n    /* \"#utility.yul\":2940:2955   */\n  swap1\n  pop\n    /* \"#utility.yul\":2916:3029   */\n  jump(tag_60)\ntag_62:\n    /* \"#utility.yul\":3047:3053   */\n  dup4\n    /* \"#utility.yul\":3044:3045   */\n  dup2\n    /* \"#utility.yul\":3041:3054   */\n  gt\n    /* \"#utility.yul\":3038:3139   */\n  iszero\n  tag_63\n  jumpi\n    /* \"#utility.yul\":3127:3128   */\n  0x00\n    /* \"#utility.yul\":3118:3124   */\n  dup5\n    /* \"#utility.yul\":3113:3116   */\n  dup5\n    /* \"#utility.yul\":3109:3125   */\n  add\n    /* \"#utility.yul\":3102:3129   */\n  mstore\n    /* \"#utility.yul\":3038:3139   */\ntag_63:\n    /* \"#utility.yul\":2887:3145   */\n  pop\n    /* \"#utility.yul\":2838:3145   */\n  pop\n  pop\n  pop\n  jump\t// out\n    /* \"#utility.yul\":3151:3432   */\ntag_50:\n    /* \"#utility.yul\":3234:3261   */\n  tag_65\n    /* \"#utility.yul\":3256:3260   */\n  dup3\n    /* \"#utility.yul\":3234:3261   */\n  tag_43\n  jump\t// in\ntag_65:\n    /* \"#utility.yul\":3226:3232   */\n  dup2\n    /* \"#utility.yul\":3222:3262   */\n  add\n    /* \"#utility.yul\":3364:3370   */\n  dup2\n    /* \"#utility.yul\":3352:3362   */\n  dup2\n    /* \"#utility.yul\":3349:3371   */\n  lt\n    /* \"#utility.yul\":3328:3346   */\n  0xffffffffffffffff\n    /* \"#utility.yul\":3316:3326   */\n  dup3\n    /* \"#utility.yul\":3313:3347   */\n  gt\n    /* \"#utility.yul\":3310:3372   */\n  or\n    /* \"#utility.yul\":3307:3395   */\n  iszero\n  tag_66\n  jumpi\n    /* \"#utility.yul\":3375:3393   */\n  tag_67\n  tag_55\n  jump\t// in\ntag_67:\n    /* \"#utility.yul\":3307:3395   */\ntag_66:\n    /* \"#utility.yul\":3415:3425   */\n  dup1\n    /* \"#utility.yul\":3411:3413   */\n  0x40\n    /* \"#utility.yul\":3404:3426   */\n  mstore\n    /* \"#utility.yul\":3194:3432   */\n  pop\n    /* \"#utility.yul\":3151:3432   */\n  pop\n  pop\n  jump\t// out\n    /* \"#utility.yul\":3438:3618   */\ntag_55:\n    /* \"#utility.yul\":3486:3563   */\n  0x4e487b7100000000000000000000000000000000000000000000000000000000\n    /* \"#utility.yul\":3483:3484   */\n  0x00\n    /* \"#utility.yul\":3476:3564   */\n  mstore\n    /* \"#utility.yul\":3583:3587   */\n  0x41\n    /* \"#utility.yul\":3580:3581   */\n  0x04\n    /* \"#utility.yul\":3573:3588   */\n  mstore\n    /* \"#utility.yul\":3607:3611   */\n  0x24\n    /* \"#utility.yul\":3604:3605   */\n  0x00\n    /* \"#utility.yul\":3597:3612   */\n  revert\n    /* \"#utility.yul\":3624:3741   */\ntag_25:\n    /* \"#utility.yul\":3733:3734   */\n  0x00\n    /* \"#utility.yul\":3730:3731   */\n  dup1\n    /* \"#utility.yul\":3723:3735   */\n  revert\n    /* \"#utility.yul\":3747:3864   */\ntag_18:\n    /* \"#utility.yul\":3856:3857   */\n  0x00\n    /* \"#utility.yul\":3853:3854   */\n  dup1\n    /* \"#utility.yul\":3846:3858   */\n  revert\n    /* \"#utility.yul\":3870:3987   */\ntag_33:\n    /* \"#utility.yul\":3979:3980   */\n  0x00\n    /* \"#utility.yul\":3976:3977   */\n  dup1\n    /* \"#utility.yul\":3969:3981   */\n  revert\n    /* \"#utility.yul\":3993:4110   */\ntag_30:\n    /* \"#utility.yul\":4102:4103   */\n  0x00\n    /* \"#utility.yul\":4099:4100   */\n  dup1\n    /* \"#utility.yul\":4092:4104   */\n  revert\n    /* \"#utility.yul\":4116:4218   */\ntag_43:\n    /* \"#utility.yul\":4157:4163   */\n  0x00\n    /* \"#utility.yul\":4208:4210   */\n  0x1f\n    /* \"#utility.yul\":4204:4211   */\n  not\n    /* \"#utility.yul\":4199:4201   */\n  0x1f\n    /* \"#utility.yul\":4192:4197   */\n  dup4\n    /* \"#utility.yul\":4188:4202   */\n  add\n    /* \"#utility.yul\":4184:4212   */\n  and\n    /* \"#utility.yul\":4174:4212   */\n  swap1\n  pop\n    /* \"#utility.yul\":4116:4218   */\n  swap2\n  swap1\n  pop\n  jump\t// out\n    /* \"contracts/IfElse.sol\":64:524  contract IfElse {... */\ntag_8:\n  dataSize(sub_0)\n  dup1\n  dataOffset(sub_0)\n  0x00\n  codecopy\n  0x00\n  return\nstop\n\nsub_0: assembly {\n        /* \"contracts/IfElse.sol\":64:524  contract IfElse {... */\n      mstore(0x40, 0x80)\n      callvalue\n      dup1\n      iszero\n      tag_1\n      jumpi\n      0x00\n      dup1\n      revert\n    tag_1:\n      pop\n      jumpi(tag_2, lt(calldatasize, 0x04))\n      shr(0xe0, calldataload(0x00))\n      dup1\n      0x3a7d280c\n      eq\n      tag_3\n      jumpi\n    tag_2:\n      0x00\n      dup1\n      revert\n        /* \"contracts/IfElse.sol\":232:516  function login(string memory _password) public view returns(bool){... */\n    tag_3:\n      tag_4\n      0x04\n      dup1\n      calldatasize\n      sub\n      dup2\n      add\n      swap1\n      tag_5\n      swap2\n      swap1\n      tag_6\n      jump\t// in\n    tag_5:\n      tag_7\n      jump\t// in\n    tag_4:\n      mload(0x40)\n      tag_8\n      swap2\n      swap1\n      tag_9\n      jump\t// in\n    tag_8:\n      mload(0x40)\n      dup1\n      swap2\n      sub\n      swap1\n      return\n    tag_7:\n        /* \"contracts/IfElse.sol\":292:296  bool */\n      0x00\n        /* \"contracts/IfElse.sol\":349:358  _password */\n      dup2\n        /* \"contracts/IfElse.sol\":338:359  abi.encode(_password) */\n      add(0x20, mload(0x40))\n      tag_11\n      swap2\n      swap1\n      tag_12\n      jump\t// in\n    tag_11:\n      mload(0x40)\n      0x20\n      dup2\n      dup4\n      sub\n      sub\n      dup2\n      mstore\n      swap1\n      0x40\n      mstore\n        /* \"contracts/IfElse.sol\":328:360  keccak256(abi.encode(_password)) */\n      dup1\n      mload\n      swap1\n      0x20\n      add\n      keccak256\n        /* \"contracts/IfElse.sol\":310:324  hashedPassword */\n      sload(0x00)\n        /* \"contracts/IfElse.sol\":310:360  hashedPassword == keccak256(abi.encode(_password)) */\n      eq\n        /* \"contracts/IfElse.sol\":307:440  if(hashedPassword == keccak256(abi.encode(_password))){... */\n      iszero\n      tag_13\n      jumpi\n        /* \"contracts/IfElse.sol\":382:386  true */\n      0x01\n        /* \"contracts/IfElse.sol\":375:386  return true */\n      swap1\n      pop\n      jump(tag_10)\n        /* \"contracts/IfElse.sol\":307:440  if(hashedPassword == keccak256(abi.encode(_password))){... */\n    tag_13:\n        /* \"contracts/IfElse.sol\":424:429  false */\n      0x00\n        /* \"contracts/IfElse.sol\":417:429  return false */\n      swap1\n      pop\n        /* \"contracts/IfElse.sol\":232:516  function login(string memory _password) public view returns(bool){... */\n    tag_10:\n      swap2\n      swap1\n      pop\n      jump\t// out\n        /* \"#utility.yul\":7:419   */\n    tag_16:\n        /* \"#utility.yul\":85:90   */\n      0x00\n        /* \"#utility.yul\":110:176   */\n      tag_18\n        /* \"#utility.yul\":126:175   */\n      tag_19\n        /* \"#utility.yul\":168:174   */\n      dup5\n        /* \"#utility.yul\":126:175   */\n      tag_20\n      jump\t// in\n    tag_19:\n        /* \"#utility.yul\":110:176   */\n      tag_21\n      jump\t// in\n    tag_18:\n        /* \"#utility.yul\":101:176   */\n      swap1\n      pop\n        /* \"#utility.yul\":199:205   */\n      dup3\n        /* \"#utility.yul\":192:197   */\n      dup2\n        /* \"#utility.yul\":185:206   */\n      mstore\n        /* \"#utility.yul\":237:241   */\n      0x20\n        /* \"#utility.yul\":230:235   */\n      dup2\n        /* \"#utility.yul\":226:242   */\n      add\n        /* \"#utility.yul\":275:278   */\n      dup5\n        /* \"#utility.yul\":266:272   */\n      dup5\n        /* \"#utility.yul\":261:264   */\n      dup5\n        /* \"#utility.yul\":257:273   */\n      add\n        /* \"#utility.yul\":254:279   */\n      gt\n        /* \"#utility.yul\":251:363   */\n      iszero\n      tag_22\n      jumpi\n        /* \"#utility.yul\":282:361   */\n      tag_23\n      tag_24\n      jump\t// in\n    tag_23:\n        /* \"#utility.yul\":251:363   */\n    tag_22:\n        /* \"#utility.yul\":372:413   */\n      tag_25\n        /* \"#utility.yul\":406:412   */\n      dup5\n        /* \"#utility.yul\":401:404   */\n      dup3\n        /* \"#utility.yul\":396:399   */\n      dup6\n        /* \"#utility.yul\":372:413   */\n      tag_26\n      jump\t// in\n    tag_25:\n        /* \"#utility.yul\":91:419   */\n      pop\n        /* \"#utility.yul\":7:419   */\n      swap4\n      swap3\n      pop\n      pop\n      pop\n      jump\t// out\n        /* \"#utility.yul\":439:779   */\n    tag_27:\n        /* \"#utility.yul\":495:500   */\n      0x00\n        /* \"#utility.yul\":544:547   */\n      dup3\n        /* \"#utility.yul\":537:541   */\n      0x1f\n        /* \"#utility.yul\":529:535   */\n      dup4\n        /* \"#utility.yul\":525:542   */\n      add\n        /* \"#utility.yul\":521:548   */\n      slt\n        /* \"#utility.yul\":511:633   */\n      tag_29\n      jumpi\n        /* \"#utility.yul\":552:631   */\n      tag_30\n      tag_31\n      jump\t// in\n    tag_30:\n        /* \"#utility.yul\":511:633   */\n    tag_29:\n        /* \"#utility.yul\":669:675   */\n      dup2\n        /* \"#utility.yul\":656:676   */\n      calldataload\n        /* \"#utility.yul\":694:773   */\n      tag_32\n        /* \"#utility.yul\":769:772   */\n      dup5\n        /* \"#utility.yul\":761:767   */\n      dup3\n        /* \"#utility.yul\":754:758   */\n      0x20\n        /* \"#utility.yul\":746:752   */\n      dup7\n        /* \"#utility.yul\":742:759   */\n      add\n        /* \"#utility.yul\":694:773   */\n      tag_16\n      jump\t// in\n    tag_32:\n        /* \"#utility.yul\":685:773   */\n      swap2\n      pop\n        /* \"#utility.yul\":501:779   */\n      pop\n        /* \"#utility.yul\":439:779   */\n      swap3\n      swap2\n      pop\n      pop\n      jump\t// out\n        /* \"#utility.yul\":785:1294   */\n    tag_6:\n        /* \"#utility.yul\":854:860   */\n      0x00\n        /* \"#utility.yul\":903:905   */\n      0x20\n        /* \"#utility.yul\":891:900   */\n      dup3\n        /* \"#utility.yul\":882:889   */\n      dup5\n        /* \"#utility.yul\":878:901   */\n      sub\n        /* \"#utility.yul\":874:906   */\n      slt\n        /* \"#utility.yul\":871:990   */\n      iszero\n      tag_34\n      jumpi\n        /* \"#utility.yul\":909:988   */\n      tag_35\n      tag_36\n      jump\t// in\n    tag_35:\n        /* \"#utility.yul\":871:990   */\n    tag_34:\n        /* \"#utility.yul\":1057:1058   */\n      0x00\n        /* \"#utility.yul\":1046:1055   */\n      dup3\n        /* \"#utility.yul\":1042:1059   */\n      add\n        /* \"#utility.yul\":1029:1060   */\n      calldataload\n        /* \"#utility.yul\":1087:1105   */\n      0xffffffffffffffff\n        /* \"#utility.yul\":1079:1085   */\n      dup2\n        /* \"#utility.yul\":1076:1106   */\n      gt\n        /* \"#utility.yul\":1073:1190   */\n      iszero\n      tag_37\n      jumpi\n        /* \"#utility.yul\":1109:1188   */\n      tag_38\n      tag_39\n      jump\t// in\n    tag_38:\n        /* \"#utility.yul\":1073:1190   */\n    tag_37:\n        /* \"#utility.yul\":1214:1277   */\n      tag_40\n        /* \"#utility.yul\":1269:1276   */\n      dup5\n        /* \"#utility.yul\":1260:1266   */\n      dup3\n        /* \"#utility.yul\":1249:1258   */\n      dup6\n        /* \"#utility.yul\":1245:1267   */\n      add\n        /* \"#utility.yul\":1214:1277   */\n      tag_27\n      jump\t// in\n    tag_40:\n        /* \"#utility.yul\":1204:1277   */\n      swap2\n      pop\n        /* \"#utility.yul\":1000:1287   */\n      pop\n        /* \"#utility.yul\":785:1294   */\n      swap3\n      swap2\n      pop\n      pop\n      jump\t// out\n        /* \"#utility.yul\":1300:1409   */\n    tag_41:\n        /* \"#utility.yul\":1381:1402   */\n      tag_43\n        /* \"#utility.yul\":1396:1401   */\n      dup2\n        /* \"#utility.yul\":1381:1402   */\n      tag_44\n      jump\t// in\n    tag_43:\n        /* \"#utility.yul\":1376:1379   */\n      dup3\n        /* \"#utility.yul\":1369:1403   */\n      mstore\n        /* \"#utility.yul\":1300:1409   */\n      pop\n      pop\n      jump\t// out\n        /* \"#utility.yul\":1415:1779   */\n    tag_45:\n        /* \"#utility.yul\":1503:1506   */\n      0x00\n        /* \"#utility.yul\":1531:1570   */\n      tag_47\n        /* \"#utility.yul\":1564:1569   */\n      dup3\n        /* \"#utility.yul\":1531:1570   */\n      tag_48\n      jump\t// in\n    tag_47:\n        /* \"#utility.yul\":1586:1657   */\n      tag_49\n        /* \"#utility.yul\":1650:1656   */\n      dup2\n        /* \"#utility.yul\":1645:1648   */\n      dup6\n        /* \"#utility.yul\":1586:1657   */\n      tag_50\n      jump\t// in\n    tag_49:\n        /* \"#utility.yul\":1579:1657   */\n      swap4\n      pop\n        /* \"#utility.yul\":1666:1718   */\n      tag_51\n        /* \"#utility.yul\":1711:1717   */\n      dup2\n        /* \"#utility.yul\":1706:1709   */\n      dup6\n        /* \"#utility.yul\":1699:1703   */\n      0x20\n        /* \"#utility.yul\":1692:1697   */\n      dup7\n        /* \"#utility.yul\":1688:1704   */\n      add\n        /* \"#utility.yul\":1666:1718   */\n      tag_52\n      jump\t// in\n    tag_51:\n        /* \"#utility.yul\":1743:1772   */\n      tag_53\n        /* \"#utility.yul\":1765:1771   */\n      dup2\n        /* \"#utility.yul\":1743:1772   */\n      tag_54\n      jump\t// in\n    tag_53:\n        /* \"#utility.yul\":1738:1741   */\n      dup5\n        /* \"#utility.yul\":1734:1773   */\n      add\n        /* \"#utility.yul\":1727:1773   */\n      swap2\n      pop\n        /* \"#utility.yul\":1507:1779   */\n      pop\n        /* \"#utility.yul\":1415:1779   */\n      swap3\n      swap2\n      pop\n      pop\n      jump\t// out\n        /* \"#utility.yul\":1785:1995   */\n    tag_9:\n        /* \"#utility.yul\":1872:1876   */\n      0x00\n        /* \"#utility.yul\":1910:1912   */\n      0x20\n        /* \"#utility.yul\":1899:1908   */\n      dup3\n        /* \"#utility.yul\":1895:1913   */\n      add\n        /* \"#utility.yul\":1887:1913   */\n      swap1\n      pop\n        /* \"#utility.yul\":1923:1988   */\n      tag_56\n        /* \"#utility.yul\":1985:1986   */\n      0x00\n        /* \"#utility.yul\":1974:1983   */\n      dup4\n        /* \"#utility.yul\":1970:1987   */\n      add\n        /* \"#utility.yul\":1961:1967   */\n      dup5\n        /* \"#utility.yul\":1923:1988   */\n      tag_41\n      jump\t// in\n    tag_56:\n        /* \"#utility.yul\":1785:1995   */\n      swap3\n      swap2\n      pop\n      pop\n      jump\t// out\n        /* \"#utility.yul\":2001:2314   */\n    tag_12:\n        /* \"#utility.yul\":2114:2118   */\n      0x00\n        /* \"#utility.yul\":2152:2154   */\n      0x20\n        /* \"#utility.yul\":2141:2150   */\n      dup3\n        /* \"#utility.yul\":2137:2155   */\n      add\n        /* \"#utility.yul\":2129:2155   */\n      swap1\n      pop\n        /* \"#utility.yul\":2201:2210   */\n      dup2\n        /* \"#utility.yul\":2195:2199   */\n      dup2\n        /* \"#utility.yul\":2191:2211   */\n      sub\n        /* \"#utility.yul\":2187:2188   */\n      0x00\n        /* \"#utility.yul\":2176:2185   */\n      dup4\n        /* \"#utility.yul\":2172:2189   */\n      add\n        /* \"#utility.yul\":2165:2212   */\n      mstore\n        /* \"#utility.yul\":2229:2307   */\n      tag_58\n        /* \"#utility.yul\":2302:2306   */\n      dup2\n        /* \"#utility.yul\":2293:2299   */\n      dup5\n        /* \"#utility.yul\":2229:2307   */\n      tag_45\n      jump\t// in\n    tag_58:\n        /* \"#utility.yul\":2221:2307   */\n      swap1\n      pop\n        /* \"#utility.yul\":2001:2314   */\n      swap3\n      swap2\n      pop\n      pop\n      jump\t// out\n        /* \"#utility.yul\":2320:2449   */\n    tag_21:\n        /* \"#utility.yul\":2354:2360   */\n      0x00\n        /* \"#utility.yul\":2381:2401   */\n      tag_60\n      tag_61\n      jump\t// in\n    tag_60:\n        /* \"#utility.yul\":2371:2401   */\n      swap1\n      pop\n        /* \"#utility.yul\":2410:2443   */\n      tag_62\n        /* \"#utility.yul\":2438:2442   */\n      dup3\n        /* \"#utility.yul\":2430:2436   */\n      dup3\n        /* \"#utility.yul\":2410:2443   */\n      tag_63\n      jump\t// in\n    tag_62:\n        /* \"#utility.yul\":2320:2449   */\n      swap2\n      swap1\n      pop\n      jump\t// out\n        /* \"#utility.yul\":2455:2530   */\n    tag_61:\n        /* \"#utility.yul\":2488:2494   */\n      0x00\n        /* \"#utility.yul\":2521:2523   */\n      0x40\n        /* \"#utility.yul\":2515:2524   */\n      mload\n        /* \"#utility.yul\":2505:2524   */\n      swap1\n      pop\n        /* \"#utility.yul\":2455:2530   */\n      swap1\n      jump\t// out\n        /* \"#utility.yul\":2536:2844   */\n    tag_20:\n        /* \"#utility.yul\":2598:2602   */\n      0x00\n        /* \"#utility.yul\":2688:2706   */\n      0xffffffffffffffff\n        /* \"#utility.yul\":2680:2686   */\n      dup3\n        /* \"#utility.yul\":2677:2707   */\n      gt\n        /* \"#utility.yul\":2674:2730   */\n      iszero\n      tag_66\n      jumpi\n        /* \"#utility.yul\":2710:2728   */\n      tag_67\n      tag_68\n      jump\t// in\n    tag_67:\n        /* \"#utility.yul\":2674:2730   */\n    tag_66:\n        /* \"#utility.yul\":2748:2777   */\n      tag_69\n        /* \"#utility.yul\":2770:2776   */\n      dup3\n        /* \"#utility.yul\":2748:2777   */\n      tag_54\n      jump\t// in\n    tag_69:\n        /* \"#utility.yul\":2740:2777   */\n      swap1\n      pop\n        /* \"#utility.yul\":2832:2836   */\n      0x20\n        /* \"#utility.yul\":2826:2830   */\n      dup2\n        /* \"#utility.yul\":2822:2837   */\n      add\n        /* \"#utility.yul\":2814:2837   */\n      swap1\n      pop\n        /* \"#utility.yul\":2536:2844   */\n      swap2\n      swap1\n      pop\n      jump\t// out\n        /* \"#utility.yul\":2850:2949   */\n    tag_48:\n        /* \"#utility.yul\":2902:2908   */\n      0x00\n        /* \"#utility.yul\":2936:2941   */\n      dup2\n        /* \"#utility.yul\":2930:2942   */\n      mload\n        /* \"#utility.yul\":2920:2942   */\n      swap1\n      pop\n        /* \"#utility.yul\":2850:2949   */\n      swap2\n      swap1\n      pop\n      jump\t// out\n        /* \"#utility.yul\":2955:3124   */\n    tag_50:\n        /* \"#utility.yul\":3039:3050   */\n      0x00\n        /* \"#utility.yul\":3073:3079   */\n      dup3\n        /* \"#utility.yul\":3068:3071   */\n      dup3\n        /* \"#utility.yul\":3061:3080   */\n      mstore\n        /* \"#utility.yul\":3113:3117   */\n      0x20\n        /* \"#utility.yul\":3108:3111   */\n      dup3\n        /* \"#utility.yul\":3104:3118   */\n      add\n        /* \"#utility.yul\":3089:3118   */\n      swap1\n      pop\n        /* \"#utility.yul\":2955:3124   */\n      swap3\n      swap2\n      pop\n      pop\n      jump\t// out\n        /* \"#utility.yul\":3130:3220   */\n    tag_44:\n        /* \"#utility.yul\":3164:3171   */\n      0x00\n        /* \"#utility.yul\":3207:3212   */\n      dup2\n        /* \"#utility.yul\":3200:3213   */\n      iszero\n        /* \"#utility.yul\":3193:3214   */\n      iszero\n        /* \"#utility.yul\":3182:3214   */\n      swap1\n      pop\n        /* \"#utility.yul\":3130:3220   */\n      swap2\n      swap1\n      pop\n      jump\t// out\n        /* \"#utility.yul\":3226:3380   */\n    tag_26:\n        /* \"#utility.yul\":3310:3316   */\n      dup3\n        /* \"#utility.yul\":3305:3308   */\n      dup2\n        /* \"#utility.yul\":3300:3303   */\n      dup4\n        /* \"#utility.yul\":3287:3317   */\n      calldatacopy\n        /* \"#utility.yul\":3372:3373   */\n      0x00\n        /* \"#utility.yul\":3363:3369   */\n      dup4\n        /* \"#utility.yul\":3358:3361   */\n      dup4\n        /* \"#utility.yul\":3354:3370   */\n      add\n        /* \"#utility.yul\":3347:3374   */\n      mstore\n        /* \"#utility.yul\":3226:3380   */\n      pop\n      pop\n      pop\n      jump\t// out\n        /* \"#utility.yul\":3386:3693   */\n    tag_52:\n        /* \"#utility.yul\":3454:3455   */\n      0x00\n        /* \"#utility.yul\":3464:3577   */\n    tag_75:\n        /* \"#utility.yul\":3478:3484   */\n      dup4\n        /* \"#utility.yul\":3475:3476   */\n      dup2\n        /* \"#utility.yul\":3472:3485   */\n      lt\n        /* \"#utility.yul\":3464:3577   */\n      iszero\n      tag_77\n      jumpi\n        /* \"#utility.yul\":3563:3564   */\n      dup1\n        /* \"#utility.yul\":3558:3561   */\n      dup3\n        /* \"#utility.yul\":3554:3565   */\n      add\n        /* \"#utility.yul\":3548:3566   */\n      mload\n        /* \"#utility.yul\":3544:3545   */\n      dup2\n        /* \"#utility.yul\":3539:3542   */\n      dup5\n        /* \"#utility.yul\":3535:3546   */\n      add\n        /* \"#utility.yul\":3528:3567   */\n      mstore\n        /* \"#utility.yul\":3500:3502   */\n      0x20\n        /* \"#utility.yul\":3497:3498   */\n      dup2\n        /* \"#utility.yul\":3493:3503   */\n      add\n        /* \"#utility.yul\":3488:3503   */\n      swap1\n      pop\n        /* \"#utility.yul\":3464:3577   */\n      jump(tag_75)\n    tag_77:\n        /* \"#utility.yul\":3595:3601   */\n      dup4\n        /* \"#utility.yul\":3592:3593   */\n      dup2\n        /* \"#utility.yul\":3589:3602   */\n      gt\n        /* \"#utility.yul\":3586:3687   */\n      iszero\n      tag_78\n      jumpi\n        /* \"#utility.yul\":3675:3676   */\n      0x00\n        /* \"#utility.yul\":3666:3672   */\n      dup5\n        /* \"#utility.yul\":3661:3664   */\n      dup5\n        /* \"#utility.yul\":3657:3673   */\n      add\n        /* \"#utility.yul\":3650:3677   */\n      mstore\n        /* \"#utility.yul\":3586:3687   */\n    tag_78:\n        /* \"#utility.yul\":3435:3693   */\n      pop\n        /* \"#utility.yul\":3386:3693   */\n      pop\n      pop\n      pop\n      jump\t// out\n        /* \"#utility.yul\":3699:3980   */\n    tag_63:\n        /* \"#utility.yul\":3782:3809   */\n      tag_80\n        /* \"#utility.yul\":3804:3808   */\n      dup3\n        /* \"#utility.yul\":3782:3809   */\n      tag_54\n      jump\t// in\n    tag_80:\n        /* \"#utility.yul\":3774:3780   */\n      dup2\n        /* \"#utility.yul\":3770:3810   */\n      add\n        /* \"#utility.yul\":3912:3918   */\n      dup2\n        /* \"#utility.yul\":3900:3910   */\n      dup2\n        /* \"#utility.yul\":3897:3919   */\n      lt\n        /* \"#utility.yul\":3876:3894   */\n      0xffffffffffffffff\n        /* \"#utility.yul\":3864:3874   */\n      dup3\n        /* \"#utility.yul\":3861:3895   */\n      gt\n        /* \"#utility.yul\":3858:3920   */\n      or\n        /* \"#utility.yul\":3855:3943   */\n      iszero\n      tag_81\n      jumpi\n        /* \"#utility.yul\":3923:3941   */\n      tag_82\n      tag_68\n      jump\t// in\n    tag_82:\n        /* \"#utility.yul\":3855:3943   */\n    tag_81:\n        /* \"#utility.yul\":3963:3973   */\n      dup1\n        /* \"#utility.yul\":3959:3961   */\n      0x40\n        /* \"#utility.yul\":3952:3974   */\n      mstore\n        /* \"#utility.yul\":3742:3980   */\n      pop\n        /* \"#utility.yul\":3699:3980   */\n      pop\n      pop\n      jump\t// out\n        /* \"#utility.yul\":3986:4166   */\n    tag_68:\n        /* \"#utility.yul\":4034:4111   */\n      0x4e487b7100000000000000000000000000000000000000000000000000000000\n        /* \"#utility.yul\":4031:4032   */\n      0x00\n        /* \"#utility.yul\":4024:4112   */\n      mstore\n        /* \"#utility.yul\":4131:4135   */\n      0x41\n        /* \"#utility.yul\":4128:4129   */\n      0x04\n        /* \"#utility.yul\":4121:4136   */\n      mstore\n        /* \"#utility.yul\":4155:4159   */\n      0x24\n        /* \"#utility.yul\":4152:4153   */\n      0x00\n        /* \"#utility.yul\":4145:4160   */\n      revert\n        /* \"#utility.yul\":4172:4289   */\n    tag_31:\n        /* \"#utility.yul\":4281:4282   */\n      0x00\n        /* \"#utility.yul\":4278:4279   */\n      dup1\n        /* \"#utility.yul\":4271:4283   */\n      revert\n        /* \"#utility.yul\":4295:4412   */\n    tag_24:\n        /* \"#utility.yul\":4404:4405   */\n      0x00\n        /* \"#utility.yul\":4401:4402   */\n      dup1\n        /* \"#utility.yul\":4394:4406   */\n      revert\n        /* \"#utility.yul\":4418:4535   */\n    tag_39:\n        /* \"#utility.yul\":4527:4528   */\n      0x00\n        /* \"#utility.yul\":4524:4525   */\n      dup1\n        /* \"#utility.yul\":4517:4529   */\n      revert\n        /* \"#utility.yul\":4541:4658   */\n    tag_36:\n        /* \"#utility.yul\":4650:4651   */\n      0x00\n        /* \"#utility.yul\":4647:4648   */\n      dup1\n        /* \"#utility.yul\":4640:4652   */\n      revert\n        /* \"#utility.yul\":4664:4766   */\n    tag_54:\n        /* \"#utility.yul\":4705:4711   */\n      0x00\n        /* \"#utility.yul\":4756:4758   */\n      0x1f\n        /* \"#utility.yul\":4752:4759   */\n      not\n        /* \"#utility.yul\":4747:4749   */\n      0x1f\n        /* \"#utility.yul\":4740:4745   */\n      dup4\n        /* \"#utility.yul\":4736:4750   */\n      add\n        /* \"#utility.yul\":4732:4760   */\n      and\n        /* \"#utility.yul\":4722:4760   */\n      swap1\n      pop\n        /* \"#utility.yul\":4664:4766   */\n      swap2\n      swap1\n      pop\n      jump\t// out\n\n    auxdata: 0xa264697066735822122029a58a8ca7b9b57a5d5f9d242ac1b52eb82ec895c50fb02b0e0204f213f5399064736f6c63430008070033\n}\n",
				"bytecode": {
					"linkReferences": {},
					"object": "608060405234801561001057600080fd5b50604051610610380380610610833981810160405281019061003291906100d5565b806040516020016100439190610157565b60405160208183030381529060405280519060200120600081905550506102a3565b60006100786100738461019e565b610179565b90508281526020810184848401111561009457610093610283565b5b61009f8482856101eb565b509392505050565b600082601f8301126100bc576100bb61027e565b5b81516100cc848260208601610065565b91505092915050565b6000602082840312156100eb576100ea61028d565b5b600082015167ffffffffffffffff81111561010957610108610288565b5b610115848285016100a7565b91505092915050565b6000610129826101cf565b61013381856101da565b93506101438185602086016101eb565b61014c81610292565b840191505092915050565b60006020820190508181036000830152610171818461011e565b905092915050565b6000610183610194565b905061018f828261021e565b919050565b6000604051905090565b600067ffffffffffffffff8211156101b9576101b861024f565b5b6101c282610292565b9050602081019050919050565b600081519050919050565b600082825260208201905092915050565b60005b838110156102095780820151818401526020810190506101ee565b83811115610218576000848401525b50505050565b61022782610292565b810181811067ffffffffffffffff821117156102465761024561024f565b5b80604052505050565b7f4e487b7100000000000000000000000000000000000000000000000000000000600052604160045260246000fd5b600080fd5b600080fd5b600080fd5b600080fd5b6000601f19601f8301169050919050565b61035e806102b26000396000f3fe608060405234801561001057600080fd5b506004361061002b5760003560e01c80633a7d280c14610030575b600080fd5b61004a60048036038101906100459190610115565b610060565b60405161005791906101a6565b60405180910390f35b60008160405160200161007391906101c1565b60405160208183030381529060405280519060200120600054141561009b57600190506100a0565b600090505b919050565b60006100b86100b384610208565b6101e3565b9050828152602081018484840111156100d4576100d3610308565b5b6100df848285610261565b509392505050565b600082601f8301126100fc576100fb610303565b5b813561010c8482602086016100a5565b91505092915050565b60006020828403121561012b5761012a610312565b5b600082013567ffffffffffffffff8111156101495761014861030d565b5b610155848285016100e7565b91505092915050565b61016781610255565b82525050565b600061017882610239565b6101828185610244565b9350610192818560208601610270565b61019b81610317565b840191505092915050565b60006020820190506101bb600083018461015e565b92915050565b600060208201905081810360008301526101db818461016d565b905092915050565b60006101ed6101fe565b90506101f982826102a3565b919050565b6000604051905090565b600067ffffffffffffffff821115610223576102226102d4565b5b61022c82610317565b9050602081019050919050565b600081519050919050565b600082825260208201905092915050565b60008115159050919050565b82818337600083830152505050565b60005b8381101561028e578082015181840152602081019050610273565b8381111561029d576000848401525b50505050565b6102ac82610317565b810181811067ffffffffffffffff821117156102cb576102ca6102d4565b5b80604052505050565b7f4e487b7100000000000000000000000000000000000000000000000000000000600052604160045260246000fd5b600080fd5b600080fd5b600080fd5b600080fd5b6000601f19601f830116905091905056fea264697066735822122029a58a8ca7b9b57a5d5f9d242ac1b52eb82ec895c50fb02b0e0204f213f5399064736f6c63430008070033",
					"opcodes": "PUSH1 0x80 PUSH1 0x40 MSTORE CALLVALUE DUP1 ISZERO PUSH2 0x10 JUMPI PUSH1 0x0 DUP1 REVERT JUMPDEST POP PUSH1 0x40 MLOAD PUSH2 0x610 CODESIZE SUB DUP1 PUSH2 0x610 DUP4 CODECOPY DUP2 DUP2 ADD PUSH1 0x40 MSTORE DUP2 ADD SWAP1 PUSH2 0x32 SWAP2 SWAP1 PUSH2 0xD5 JUMP JUMPDEST DUP1 PUSH1 0x40 MLOAD PUSH1 0x20 ADD PUSH2 0x43 SWAP2 SWAP1 PUSH2 0x157 JUMP JUMPDEST PUSH1 0x40 MLOAD PUSH1 0x20 DUP2 DUP4 SUB SUB DUP2 MSTORE SWAP1 PUSH1 0x40 MSTORE DUP1 MLOAD SWAP1 PUSH1 0x20 ADD KECCAK256 PUSH1 0x0 DUP2 SWAP1 SSTORE POP POP PUSH2 0x2A3 JUMP JUMPDEST PUSH1 0x0 PUSH2 0x78 PUSH2 0x73 DUP5 PUSH2 0x19E JUMP JUMPDEST PUSH2 0x179 JUMP JUMPDEST SWAP1 POP DUP3 DUP2 MSTORE PUSH1 0x20 DUP2 ADD DUP5 DUP5 DUP5 ADD GT ISZERO PUSH2 0x94 JUMPI PUSH2 0x93 PUSH2 0x283 JUMP JUMPDEST JUMPDEST PUSH2 0x9F DUP5 DUP3 DUP6 PUSH2 0x1EB JUMP JUMPDEST POP SWAP4 SWAP3 POP POP POP JUMP JUMPDEST PUSH1 0x0 DUP3 PUSH1 0x1F DUP4 ADD SLT PUSH2 0xBC JUMPI PUSH2 0xBB PUSH2 0x27E JUMP JUMPDEST JUMPDEST DUP2 MLOAD PUSH2 0xCC DUP5 DUP3 PUSH1 0x20 DUP7 ADD PUSH2 0x65 JUMP JUMPDEST SWAP2 POP POP SWAP3 SWAP2 POP POP JUMP JUMPDEST PUSH1 0x0 PUSH1 0x20 DUP3 DUP5 SUB SLT ISZERO PUSH2 0xEB JUMPI PUSH2 0xEA PUSH2 0x28D JUMP JUMPDEST JUMPDEST PUSH1 0x0 DUP3 ADD MLOAD PUSH8 0xFFFFFFFFFFFFFFFF DUP2 GT ISZERO PUSH2 0x109 JUMPI PUSH2 0x108 PUSH2 0x288 JUMP JUMPDEST JUMPDEST PUSH2 0x115 DUP5 DUP3 DUP6 ADD PUSH2 0xA7 JUMP JUMPDEST SWAP2 POP POP SWAP3 SWAP2 POP POP JUMP JUMPDEST PUSH1 0x0 PUSH2 0x129 DUP3 PUSH2 0x1CF JUMP JUMPDEST PUSH2 0x133 DUP2 DUP6 PUSH2 0x1DA JUMP JUMPDEST SWAP4 POP PUSH2 0x143 DUP2 DUP6 PUSH1 0x20 DUP7 ADD PUSH2 0x1EB JUMP JUMPDEST PUSH2 0x14C DUP2 PUSH2 0x292 JUMP JUMPDEST DUP5 ADD SWAP2 POP POP SWAP3 SWAP2 POP POP JUMP JUMPDEST PUSH1 0x0 PUSH1 0x20 DUP3 ADD SWAP1 POP DUP2 DUP2 SUB PUSH1 0x0 DUP4 ADD MSTORE PUSH2 0x171 DUP2 DUP5 PUSH2 0x11E JUMP JUMPDEST SWAP1 POP SWAP3 SWAP2 POP POP JUMP JUMPDEST PUSH1 0x0 PUSH2 0x183 PUSH2 0x194 JUMP JUMPDEST SWAP1 POP PUSH2 0x18F DUP3 DUP3 PUSH2 0x21E JUMP JUMPDEST SWAP2 SWAP1 POP JUMP JUMPDEST PUSH1 0x0 PUSH1 0x40 MLOAD SWAP1 POP SWAP1 JUMP JUMPDEST PUSH1 0x0 PUSH8 0xFFFFFFFFFFFFFFFF DUP3 GT ISZERO PUSH2 0x1B9 JUMPI PUSH2 0x1B8 PUSH2 0x24F JUMP JUMPDEST JUMPDEST PUSH2 0x1C2 DUP3 PUSH2 0x292 JUMP JUMPDEST SWAP1 POP PUSH1 0x20 DUP2 ADD SWAP1 POP SWAP2 SWAP1 POP JUMP JUMPDEST PUSH1 0x0 DUP2 MLOAD SWAP1 POP SWAP2 SWAP1 POP JUMP JUMPDEST PUSH1 0x0 DUP3 DUP3 MSTORE PUSH1 0x20 DUP3 ADD SWAP1 POP SWAP3 SWAP2 POP POP JUMP JUMPDEST PUSH1 0x0 JUMPDEST DUP4 DUP2 LT ISZERO PUSH2 0x209 JUMPI DUP1 DUP3 ADD MLOAD DUP2 DUP5 ADD MSTORE PUSH1 0x20 DUP2 ADD SWAP1 POP PUSH2 0x1EE JUMP JUMPDEST DUP4 DUP2 GT ISZERO PUSH2 0x218 JUMPI PUSH1 0x0 DUP5 DUP5 ADD MSTORE JUMPDEST POP POP POP POP JUMP JUMPDEST PUSH2 0x227 DUP3 PUSH2 0x292 JUMP JUMPDEST DUP2 ADD DUP2 DUP2 LT PUSH8 0xFFFFFFFFFFFFFFFF DUP3 GT OR ISZERO PUSH2 0x246 JUMPI PUSH2 0x245 PUSH2 0x24F JUMP JUMPDEST JUMPDEST DUP1 PUSH1 0x40 MSTORE POP POP POP JUMP JUMPDEST PUSH32 0x4E487B7100000000000000000000000000000000000000000000000000000000 PUSH1 0x0 MSTORE PUSH1 0x41 PUSH1 0x4 MSTORE PUSH1 0x24 PUSH1 0x0 REVERT JUMPDEST PUSH1 0x0 DUP1 REVERT JUMPDEST PUSH1 0x0 DUP1 REVERT JUMPDEST PUSH1 0x0 DUP1 REVERT JUMPDEST PUSH1 0x0 DUP1 REVERT JUMPDEST PUSH1 0x0 PUSH1 0x1F NOT PUSH1 0x1F DUP4 ADD AND SWAP1 POP SWAP2 SWAP1 POP JUMP JUMPDEST PUSH2 0x35E DUP1 PUSH2 0x2B2 PUSH1 0x0 CODECOPY PUSH1 0x0 RETURN INVALID PUSH1 0x80 PUSH1 0x40 MSTORE CALLVALUE DUP1 ISZERO PUSH2 0x10 JUMPI PUSH1 0x0 DUP1 REVERT JUMPDEST POP PUSH1 0x4 CALLDATASIZE LT PUSH2 0x2B JUMPI PUSH1 0x0 CALLDATALOAD PUSH1 0xE0 SHR DUP1 PUSH4 0x3A7D280C EQ PUSH2 0x30 JUMPI JUMPDEST PUSH1 0x0 DUP1 REVERT JUMPDEST PUSH2 0x4A PUSH1 0x4 DUP1 CALLDATASIZE SUB DUP2 ADD SWAP1 PUSH2 0x45 SWAP2 SWAP1 PUSH2 0x115 JUMP JUMPDEST PUSH2 0x60 JUMP JUMPDEST PUSH1 0x40 MLOAD PUSH2 0x57 SWAP2 SWAP1 PUSH2 0x1A6 JUMP JUMPDEST PUSH1 0x40 MLOAD DUP1 SWAP2 SUB SWAP1 RETURN JUMPDEST PUSH1 0x0 DUP2 PUSH1 0x40 MLOAD PUSH1 0x20 ADD PUSH2 0x73 SWAP2 SWAP1 PUSH2 0x1C1 JUMP JUMPDEST PUSH1 0x40 MLOAD PUSH1 0x20 DUP2 DUP4 SUB SUB DUP2 MSTORE SWAP1 PUSH1 0x40 MSTORE DUP1 MLOAD SWAP1 PUSH1 0x20 ADD KECCAK256 PUSH1 0x0 SLOAD EQ ISZERO PUSH2 0x9B JUMPI PUSH1 0x1 SWAP1 POP PUSH2 0xA0 JUMP JUMPDEST PUSH1 0x0 SWAP1 POP JUMPDEST SWAP2 SWAP1 POP JUMP JUMPDEST PUSH1 0x0 PUSH2 0xB8 PUSH2 0xB3 DUP5 PUSH2 0x208 JUMP JUMPDEST PUSH2 0x1E3 JUMP JUMPDEST SWAP1 POP DUP3 DUP2 MSTORE PUSH1 0x20 DUP2 ADD DUP5 DUP5 DUP5 ADD GT ISZERO PUSH2 0xD4 JUMPI PUSH2 0xD3 PUSH2 0x308 JUMP JUMPDEST JUMPDEST PUSH2 0xDF DUP5 DUP3 DUP6 PUSH2 0x261 JUMP JUMPDEST POP SWAP4 SWAP3 POP POP POP JUMP JUMPDEST PUSH1 0x0 DUP3 PUSH1 0x1F DUP4 ADD SLT PUSH2 0xFC JUMPI PUSH2 0xFB PUSH2 0x303 JUMP JUMPDEST JUMPDEST DUP2 CALLDATALOAD PUSH2 0x10C DUP5 DUP3 PUSH1 0x20 DUP7 ADD PUSH2 0xA5 JUMP JUMPDEST SWAP2 POP POP SWAP3 SWAP2 POP POP JUMP JUMPDEST PUSH1 0x0 PUSH1 0x20 DUP3 DUP5 SUB SLT ISZERO PUSH2 0x12B JUMPI PUSH2 0x12A PUSH2 0x312 JUMP JUMPDEST JUMPDEST PUSH1 0x0 DUP3 ADD CALLDATALOAD PUSH8 0xFFFFFFFFFFFFFFFF DUP2 GT ISZERO PUSH2 0x149 JUMPI PUSH2 0x148 PUSH2 0x30D JUMP JUMPDEST JUMPDEST PUSH2 0x155 DUP5 DUP3 DUP6 ADD PUSH2 0xE7 JUMP JUMPDEST SWAP2 POP POP SWAP3 SWAP2 POP POP JUMP JUMPDEST PUSH2 0x167 DUP2 PUSH2 0x255 JUMP JUMPDEST DUP3 MSTORE POP POP JUMP JUMPDEST PUSH1 0x0 PUSH2 0x178 DUP3 PUSH2 0x239 JUMP JUMPDEST PUSH2 0x182 DUP2 DUP6 PUSH2 0x244 JUMP JUMPDEST SWAP4 POP PUSH2 0x192 DUP2 DUP6 PUSH1 0x20 DUP7 ADD PUSH2 0x270 JUMP JUMPDEST PUSH2 0x19B DUP2 PUSH2 0x317 JUMP JUMPDEST DUP5 ADD SWAP2 POP POP SWAP3 SWAP2 POP POP JUMP JUMPDEST PUSH1 0x0 PUSH1 0x20 DUP3 ADD SWAP1 POP PUSH2 0x1BB PUSH1 0x0 DUP4 ADD DUP5 PUSH2 0x15E JUMP JUMPDEST SWAP3 SWAP2 POP POP JUMP JUMPDEST PUSH1 0x0 PUSH1 0x20 DUP3 ADD SWAP1 POP DUP2 DUP2 SUB PUSH1 0x0 DUP4 ADD MSTORE PUSH2 0x1DB DUP2 DUP5 PUSH2 0x16D JUMP JUMPDEST SWAP1 POP SWAP3 SWAP2 POP POP JUMP JUMPDEST PUSH1 0x0 PUSH2 0x1ED PUSH2 0x1FE JUMP JUMPDEST SWAP1 POP PUSH2 0x1F9 DUP3 DUP3 PUSH2 0x2A3 JUMP JUMPDEST SWAP2 SWAP1 POP JUMP JUMPDEST PUSH1 0x0 PUSH1 0x40 MLOAD SWAP1 POP SWAP1 JUMP JUMPDEST PUSH1 0x0 PUSH8 0xFFFFFFFFFFFFFFFF DUP3 GT ISZERO PUSH2 0x223 JUMPI PUSH2 0x222 PUSH2 0x2D4 JUMP JUMPDEST JUMPDEST PUSH2 0x22C DUP3 PUSH2 0x317 JUMP JUMPDEST SWAP1 POP PUSH1 0x20 DUP2 ADD SWAP1 POP SWAP2 SWAP1 POP JUMP JUMPDEST PUSH1 0x0 DUP2 MLOAD SWAP1 POP SWAP2 SWAP1 POP JUMP JUMPDEST PUSH1 0x0 DUP3 DUP3 MSTORE PUSH1 0x20 DUP3 ADD SWAP1 POP SWAP3 SWAP2 POP POP JUMP JUMPDEST PUSH1 0x0 DUP2 ISZERO ISZERO SWAP1 POP SWAP2 SWAP1 POP JUMP JUMPDEST DUP3 DUP2 DUP4 CALLDATACOPY PUSH1 0x0 DUP4 DUP4 ADD MSTORE POP POP POP JUMP JUMPDEST PUSH1 0x0 JUMPDEST DUP4 DUP2 LT ISZERO PUSH2 0x28E JUMPI DUP1 DUP3 ADD MLOAD DUP2 DUP5 ADD MSTORE PUSH1 0x20 DUP2 ADD SWAP1 POP PUSH2 0x273 JUMP JUMPDEST DUP4 DUP2 GT ISZERO PUSH2 0x29D JUMPI PUSH1 0x0 DUP5 DUP5 ADD MSTORE JUMPDEST POP POP POP POP JUMP JUMPDEST PUSH2 0x2AC DUP3 PUSH2 0x317 JUMP JUMPDEST DUP2 ADD DUP2 DUP2 LT PUSH8 0xFFFFFFFFFFFFFFFF DUP3 GT OR ISZERO PUSH2 0x2CB JUMPI PUSH2 0x2CA PUSH2 0x2D4 JUMP JUMPDEST JUMPDEST DUP1 PUSH1 0x40 MSTORE POP POP POP JUMP JUMPDEST PUSH32 0x4E487B7100000000000000000000000000000000000000000000000000000000 PUSH1 0x0 MSTORE PUSH1 0x41 PUSH1 0x4 MSTORE PUSH1 0x24 PUSH1 0x0 REVERT JUMPDEST PUSH1 0x0 DUP1 REVERT JUMPDEST PUSH1 0x0 DUP1 REVERT JUMPDEST PUSH1 0x0 DUP1 REVERT JUMPDEST PUSH1 0x0 DUP1 REVERT JUMPDEST PUSH1 0x0 PUSH1 0x1F NOT PUSH1 0x1F DUP4 ADD AND SWAP1 POP SWAP2 SWAP1 POP JUMP INVALID LOG2 PUSH5 0x6970667358 0x22 SLT KECCAK256 0x29 0xA5 DUP11 DUP13 0xA7 0xB9 0xB5 PUSH27 0x5D5F9D242AC1B52EB82EC895C50FB02B0E0204F213F5399064736F PUSH13 0x63430008070033000000000000 "
				},
				"gasEstimates": {
					"creation": {
						"codeDepositCost": "172400",
						"executionCost": "infinite",
						"totalCost": "infinite"
					},
					"external": {
						"login(string)": "infinite"
					}
				},
				"methodIdentifiers": {
					"login(string)": "3a7d280c"
				}
			},
			"storageLayout": {
				"storage": [
					{
						"astId": 3,
						"contract": "contracts/IfElse.sol:IfElse",
						"label": "hashedPassword",
						"offset": 0,
						"slot": "0",
						"type": "t_bytes32"
					}
				],
				"types": {
					"t_bytes32": {
						"encoding": "inplace",
						"label": "bytes32",
						"numberOfBytes": "32"
					}
				}
			},
			"userdoc": {
				"kind": "user",
				"methods": {},
				"version": 1
			}
		}
	}
}