{
	"contracts/Functions2.sol": {
		"Functions2": {
			"abi": [
				{
					"inputs": [
						{
							"internalType": "uint256",
							"name": "a",
							"type": "uint256"
						},
						{
							"internalType": "uint256",
							"name": "b",
							"type": "uint256"
						}
					],
					"name": "add",
					"outputs": [
						{
							"internalType": "uint256",
							"name": "",
							"type": "uint256"
						}
					],
					"stateMutability": "pure",
					"type": "function"
				},
				{
					"inputs": [
						{
							"internalType": "uint256",
							"name": "c",
							"type": "uint256"
						},
						{
							"internalType": "uint256",
							"name": "d",
							"type": "uint256"
						}
					],
					"name": "add2",
					"outputs": [
						{
							"internalType": "uint256",
							"name": "",
							"type": "uint256"
						}
					],
					"stateMutability": "pure",
					"type": "function"
				},
				{
					"inputs": [],
					"name": "callPrivateKeyword",
					"outputs": [
						{
							"internalType": "string",
							"name": "",
							"type": "string"
						}
					],
					"stateMutability": "pure",
					"type": "function"
				},
				{
					"inputs": [],
					"name": "callPublicKeyword",
					"outputs": [
						{
							"internalType": "string",
							"name": "",
							"type": "string"
						}
					],
					"stateMutability": "pure",
					"type": "function"
				},
				{
					"inputs": [],
					"name": "publicKeyword",
					"outputs": [
						{
							"internalType": "string",
							"name": "",
							"type": "string"
						}
					],
					"stateMutability": "pure",
					"type": "function"
				}
			],
			"devdoc": {
				"kind": "dev",
				"methods": {},
				"version": 1
			},
			"evm": {
				"assembly": "    /* \"contracts/Functions2.sol\":64:1088  contract Functions2 {... */\n  mstore(0x40, 0x80)\n  callvalue\n  dup1\n  iszero\n  tag_1\n  jumpi\n  0x00\n  dup1\n  revert\ntag_1:\n  pop\n  dataSize(sub_0)\n  dup1\n  dataOffset(sub_0)\n  0x00\n  codecopy\n  0x00\n  return\nstop\n\nsub_0: assembly {\n        /* \"contracts/Functions2.sol\":64:1088  contract Functions2 {... */\n      mstore(0x40, 0x80)\n      callvalue\n      dup1\n      iszero\n      tag_1\n      jumpi\n      0x00\n      dup1\n      revert\n    tag_1:\n      pop\n      jumpi(tag_2, lt(calldatasize, 0x04))\n      shr(0xe0, calldataload(0x00))\n      dup1\n      0x148bc9e2\n      eq\n      tag_3\n      jumpi\n      dup1\n      0x29fcda33\n      eq\n      tag_4\n      jumpi\n      dup1\n      0x513e18ce\n      eq\n      tag_5\n      jumpi\n      dup1\n      0x771602f7\n      eq\n      tag_6\n      jumpi\n      dup1\n      0x79697ecc\n      eq\n      tag_7\n      jumpi\n    tag_2:\n      0x00\n      dup1\n      revert\n        /* \"contracts/Functions2.sol\":539:642  function callPublicKeyword() public pure returns(string memory) {... */\n    tag_3:\n      tag_8\n      tag_9\n      jump\t// in\n    tag_8:\n      mload(0x40)\n      tag_10\n      swap2\n      swap1\n      tag_11\n      jump\t// in\n    tag_10:\n      mload(0x40)\n      dup1\n      swap2\n      sub\n      swap1\n      return\n        /* \"contracts/Functions2.sol\":328:416  function add2(uint c, uint d) public pure returns(uint){... */\n    tag_4:\n      tag_12\n      0x04\n      dup1\n      calldatasize\n      sub\n      dup2\n      add\n      swap1\n      tag_13\n      swap2\n      swap1\n      tag_14\n      jump\t// in\n    tag_13:\n      tag_15\n      jump\t// in\n    tag_12:\n      mload(0x40)\n      tag_16\n      swap2\n      swap1\n      tag_17\n      jump\t// in\n    tag_16:\n      mload(0x40)\n      dup1\n      swap2\n      sub\n      swap1\n      return\n        /* \"contracts/Functions2.sol\":858:962  function callPrivateKeyword() public pure returns(string memory){... */\n    tag_5:\n      tag_18\n      tag_19\n      jump\t// in\n    tag_18:\n      mload(0x40)\n      tag_20\n      swap2\n      swap1\n      tag_11\n      jump\t// in\n    tag_20:\n      mload(0x40)\n      dup1\n      swap2\n      sub\n      swap1\n      return\n        /* \"contracts/Functions2.sol\":239:322  function add(uint a, uint b) public pure returns(uint){... */\n    tag_6:\n      tag_21\n      0x04\n      dup1\n      calldatasize\n      sub\n      dup2\n      add\n      swap1\n      tag_22\n      swap2\n      swap1\n      tag_14\n      jump\t// in\n    tag_22:\n      tag_23\n      jump\t// in\n    tag_21:\n      mload(0x40)\n      tag_24\n      swap2\n      swap1\n      tag_17\n      jump\t// in\n    tag_24:\n      mload(0x40)\n      dup1\n      swap2\n      sub\n      swap1\n      return\n        /* \"contracts/Functions2.sol\":422:534  function publicKeyword() public pure returns(string memory){... */\n    tag_7:\n      tag_25\n      tag_26\n      jump\t// in\n    tag_25:\n      mload(0x40)\n      tag_27\n      swap2\n      swap1\n      tag_11\n      jump\t// in\n    tag_27:\n      mload(0x40)\n      dup1\n      swap2\n      sub\n      swap1\n      return\n        /* \"contracts/Functions2.sol\":539:642  function callPublicKeyword() public pure returns(string memory) {... */\n    tag_9:\n        /* \"contracts/Functions2.sol\":588:601  string memory */\n      0x60\n        /* \"contracts/Functions2.sol\":620:635  publicKeyword() */\n      tag_29\n        /* \"contracts/Functions2.sol\":620:633  publicKeyword */\n      tag_26\n        /* \"contracts/Functions2.sol\":620:635  publicKeyword() */\n      jump\t// in\n    tag_29:\n        /* \"contracts/Functions2.sol\":613:635  return publicKeyword() */\n      swap1\n      pop\n        /* \"contracts/Functions2.sol\":539:642  function callPublicKeyword() public pure returns(string memory) {... */\n      swap1\n      jump\t// out\n        /* \"contracts/Functions2.sol\":328:416  function add2(uint c, uint d) public pure returns(uint){... */\n    tag_15:\n        /* \"contracts/Functions2.sol\":378:382  uint */\n      0x00\n        /* \"contracts/Functions2.sol\":400:409  add(c, d) */\n      tag_31\n        /* \"contracts/Functions2.sol\":404:405  c */\n      dup4\n        /* \"contracts/Functions2.sol\":407:408  d */\n      dup4\n        /* \"contracts/Functions2.sol\":400:403  add */\n      tag_23\n        /* \"contracts/Functions2.sol\":400:409  add(c, d) */\n      jump\t// in\n    tag_31:\n        /* \"contracts/Functions2.sol\":393:409  return add(c, d) */\n      swap1\n      pop\n        /* \"contracts/Functions2.sol\":328:416  function add2(uint c, uint d) public pure returns(uint){... */\n      swap3\n      swap2\n      pop\n      pop\n      jump\t// out\n        /* \"contracts/Functions2.sol\":858:962  function callPrivateKeyword() public pure returns(string memory){... */\n    tag_19:\n        /* \"contracts/Functions2.sol\":908:921  string memory */\n      0x60\n        /* \"contracts/Functions2.sol\":939:955  privateKeyword() */\n      tag_33\n        /* \"contracts/Functions2.sol\":939:953  privateKeyword */\n      tag_34\n        /* \"contracts/Functions2.sol\":939:955  privateKeyword() */\n      jump\t// in\n    tag_33:\n        /* \"contracts/Functions2.sol\":932:955  return privateKeyword() */\n      swap1\n      pop\n        /* \"contracts/Functions2.sol\":858:962  function callPrivateKeyword() public pure returns(string memory){... */\n      swap1\n      jump\t// out\n        /* \"contracts/Functions2.sol\":239:322  function add(uint a, uint b) public pure returns(uint){... */\n    tag_23:\n        /* \"contracts/Functions2.sol\":288:292  uint */\n      0x00\n        /* \"contracts/Functions2.sol\":314:315  b */\n      dup2\n        /* \"contracts/Functions2.sol\":310:311  a */\n      dup4\n        /* \"contracts/Functions2.sol\":310:315  a + b */\n      tag_36\n      swap2\n      swap1\n      tag_37\n      jump\t// in\n    tag_36:\n        /* \"contracts/Functions2.sol\":303:315  return a + b */\n      swap1\n      pop\n        /* \"contracts/Functions2.sol\":239:322  function add(uint a, uint b) public pure returns(uint){... */\n      swap3\n      swap2\n      pop\n      pop\n      jump\t// out\n        /* \"contracts/Functions2.sol\":422:534  function publicKeyword() public pure returns(string memory){... */\n    tag_26:\n        /* \"contracts/Functions2.sol\":467:480  string memory */\n      0x60\n        /* \"contracts/Functions2.sol\":491:527  return \"Bu bir public fonksiyondur.\" */\n      mload(0x40)\n      dup1\n      0x40\n      add\n      0x40\n      mstore\n      dup1\n      0x1b\n      dup2\n      mstore\n      0x20\n      add\n      0x427520626972207075626c696320666f6e6b7369796f6e6475722e0000000000\n      dup2\n      mstore\n      pop\n      swap1\n      pop\n        /* \"contracts/Functions2.sol\":422:534  function publicKeyword() public pure returns(string memory){... */\n      swap1\n      jump\t// out\n        /* \"contracts/Functions2.sol\":739:853  function privateKeyword() private pure returns(string memory){... */\n    tag_34:\n        /* \"contracts/Functions2.sol\":786:799  string memory */\n      0x60\n        /* \"contracts/Functions2.sol\":810:846  return \"Bu bir private fonksiyondur\" */\n      mload(0x40)\n      dup1\n      0x40\n      add\n      0x40\n      mstore\n      dup1\n      0x1b\n      dup2\n      mstore\n      0x20\n      add\n      0x427520626972207072697661746520666f6e6b7369796f6e6475720000000000\n      dup2\n      mstore\n      pop\n      swap1\n      pop\n        /* \"contracts/Functions2.sol\":739:853  function privateKeyword() private pure returns(string memory){... */\n      swap1\n      jump\t// out\n        /* \"#utility.yul\":7:146   */\n    tag_41:\n        /* \"#utility.yul\":53:58   */\n      0x00\n        /* \"#utility.yul\":91:97   */\n      dup2\n        /* \"#utility.yul\":78:98   */\n      calldataload\n        /* \"#utility.yul\":69:98   */\n      swap1\n      pop\n        /* \"#utility.yul\":107:140   */\n      tag_43\n        /* \"#utility.yul\":134:139   */\n      dup2\n        /* \"#utility.yul\":107:140   */\n      tag_44\n      jump\t// in\n    tag_43:\n        /* \"#utility.yul\":7:146   */\n      swap3\n      swap2\n      pop\n      pop\n      jump\t// out\n        /* \"#utility.yul\":152:626   */\n    tag_14:\n        /* \"#utility.yul\":220:226   */\n      0x00\n        /* \"#utility.yul\":228:234   */\n      dup1\n        /* \"#utility.yul\":277:279   */\n      0x40\n        /* \"#utility.yul\":265:274   */\n      dup4\n        /* \"#utility.yul\":256:263   */\n      dup6\n        /* \"#utility.yul\":252:275   */\n      sub\n        /* \"#utility.yul\":248:280   */\n      slt\n        /* \"#utility.yul\":245:364   */\n      iszero\n      tag_46\n      jumpi\n        /* \"#utility.yul\":283:362   */\n      tag_47\n      tag_48\n      jump\t// in\n    tag_47:\n        /* \"#utility.yul\":245:364   */\n    tag_46:\n        /* \"#utility.yul\":403:404   */\n      0x00\n        /* \"#utility.yul\":428:481   */\n      tag_49\n        /* \"#utility.yul\":473:480   */\n      dup6\n        /* \"#utility.yul\":464:470   */\n      dup3\n        /* \"#utility.yul\":453:462   */\n      dup7\n        /* \"#utility.yul\":449:471   */\n      add\n        /* \"#utility.yul\":428:481   */\n      tag_41\n      jump\t// in\n    tag_49:\n        /* \"#utility.yul\":418:481   */\n      swap3\n      pop\n        /* \"#utility.yul\":374:491   */\n      pop\n        /* \"#utility.yul\":530:532   */\n      0x20\n        /* \"#utility.yul\":556:609   */\n      tag_50\n        /* \"#utility.yul\":601:608   */\n      dup6\n        /* \"#utility.yul\":592:598   */\n      dup3\n        /* \"#utility.yul\":581:590   */\n      dup7\n        /* \"#utility.yul\":577:599   */\n      add\n        /* \"#utility.yul\":556:609   */\n      tag_41\n      jump\t// in\n    tag_50:\n        /* \"#utility.yul\":546:609   */\n      swap2\n      pop\n        /* \"#utility.yul\":501:619   */\n      pop\n        /* \"#utility.yul\":152:626   */\n      swap3\n      pop\n      swap3\n      swap1\n      pop\n      jump\t// out\n        /* \"#utility.yul\":632:996   */\n    tag_51:\n        /* \"#utility.yul\":720:723   */\n      0x00\n        /* \"#utility.yul\":748:787   */\n      tag_53\n        /* \"#utility.yul\":781:786   */\n      dup3\n        /* \"#utility.yul\":748:787   */\n      tag_54\n      jump\t// in\n    tag_53:\n        /* \"#utility.yul\":803:874   */\n      tag_55\n        /* \"#utility.yul\":867:873   */\n      dup2\n        /* \"#utility.yul\":862:865   */\n      dup6\n        /* \"#utility.yul\":803:874   */\n      tag_56\n      jump\t// in\n    tag_55:\n        /* \"#utility.yul\":796:874   */\n      swap4\n      pop\n        /* \"#utility.yul\":883:935   */\n      tag_57\n        /* \"#utility.yul\":928:934   */\n      dup2\n        /* \"#utility.yul\":923:926   */\n      dup6\n        /* \"#utility.yul\":916:920   */\n      0x20\n        /* \"#utility.yul\":909:914   */\n      dup7\n        /* \"#utility.yul\":905:921   */\n      add\n        /* \"#utility.yul\":883:935   */\n      tag_58\n      jump\t// in\n    tag_57:\n        /* \"#utility.yul\":960:989   */\n      tag_59\n        /* \"#utility.yul\":982:988   */\n      dup2\n        /* \"#utility.yul\":960:989   */\n      tag_60\n      jump\t// in\n    tag_59:\n        /* \"#utility.yul\":955:958   */\n      dup5\n        /* \"#utility.yul\":951:990   */\n      add\n        /* \"#utility.yul\":944:990   */\n      swap2\n      pop\n        /* \"#utility.yul\":724:996   */\n      pop\n        /* \"#utility.yul\":632:996   */\n      swap3\n      swap2\n      pop\n      pop\n      jump\t// out\n        /* \"#utility.yul\":1002:1120   */\n    tag_61:\n        /* \"#utility.yul\":1089:1113   */\n      tag_63\n        /* \"#utility.yul\":1107:1112   */\n      dup2\n        /* \"#utility.yul\":1089:1113   */\n      tag_64\n      jump\t// in\n    tag_63:\n        /* \"#utility.yul\":1084:1087   */\n      dup3\n        /* \"#utility.yul\":1077:1114   */\n      mstore\n        /* \"#utility.yul\":1002:1120   */\n      pop\n      pop\n      jump\t// out\n        /* \"#utility.yul\":1126:1439   */\n    tag_11:\n        /* \"#utility.yul\":1239:1243   */\n      0x00\n        /* \"#utility.yul\":1277:1279   */\n      0x20\n        /* \"#utility.yul\":1266:1275   */\n      dup3\n        /* \"#utility.yul\":1262:1280   */\n      add\n        /* \"#utility.yul\":1254:1280   */\n      swap1\n      pop\n        /* \"#utility.yul\":1326:1335   */\n      dup2\n        /* \"#utility.yul\":1320:1324   */\n      dup2\n        /* \"#utility.yul\":1316:1336   */\n      sub\n        /* \"#utility.yul\":1312:1313   */\n      0x00\n        /* \"#utility.yul\":1301:1310   */\n      dup4\n        /* \"#utility.yul\":1297:1314   */\n      add\n        /* \"#utility.yul\":1290:1337   */\n      mstore\n        /* \"#utility.yul\":1354:1432   */\n      tag_66\n        /* \"#utility.yul\":1427:1431   */\n      dup2\n        /* \"#utility.yul\":1418:1424   */\n      dup5\n        /* \"#utility.yul\":1354:1432   */\n      tag_51\n      jump\t// in\n    tag_66:\n        /* \"#utility.yul\":1346:1432   */\n      swap1\n      pop\n        /* \"#utility.yul\":1126:1439   */\n      swap3\n      swap2\n      pop\n      pop\n      jump\t// out\n        /* \"#utility.yul\":1445:1667   */\n    tag_17:\n        /* \"#utility.yul\":1538:1542   */\n      0x00\n        /* \"#utility.yul\":1576:1578   */\n      0x20\n        /* \"#utility.yul\":1565:1574   */\n      dup3\n        /* \"#utility.yul\":1561:1579   */\n      add\n        /* \"#utility.yul\":1553:1579   */\n      swap1\n      pop\n        /* \"#utility.yul\":1589:1660   */\n      tag_68\n        /* \"#utility.yul\":1657:1658   */\n      0x00\n        /* \"#utility.yul\":1646:1655   */\n      dup4\n        /* \"#utility.yul\":1642:1659   */\n      add\n        /* \"#utility.yul\":1633:1639   */\n      dup5\n        /* \"#utility.yul\":1589:1660   */\n      tag_61\n      jump\t// in\n    tag_68:\n        /* \"#utility.yul\":1445:1667   */\n      swap3\n      swap2\n      pop\n      pop\n      jump\t// out\n        /* \"#utility.yul\":1754:1853   */\n    tag_54:\n        /* \"#utility.yul\":1806:1812   */\n      0x00\n        /* \"#utility.yul\":1840:1845   */\n      dup2\n        /* \"#utility.yul\":1834:1846   */\n      mload\n        /* \"#utility.yul\":1824:1846   */\n      swap1\n      pop\n        /* \"#utility.yul\":1754:1853   */\n      swap2\n      swap1\n      pop\n      jump\t// out\n        /* \"#utility.yul\":1859:2028   */\n    tag_56:\n        /* \"#utility.yul\":1943:1954   */\n      0x00\n        /* \"#utility.yul\":1977:1983   */\n      dup3\n        /* \"#utility.yul\":1972:1975   */\n      dup3\n        /* \"#utility.yul\":1965:1984   */\n      mstore\n        /* \"#utility.yul\":2017:2021   */\n      0x20\n        /* \"#utility.yul\":2012:2015   */\n      dup3\n        /* \"#utility.yul\":2008:2022   */\n      add\n        /* \"#utility.yul\":1993:2022   */\n      swap1\n      pop\n        /* \"#utility.yul\":1859:2028   */\n      swap3\n      swap2\n      pop\n      pop\n      jump\t// out\n        /* \"#utility.yul\":2034:2339   */\n    tag_37:\n        /* \"#utility.yul\":2074:2077   */\n      0x00\n        /* \"#utility.yul\":2093:2113   */\n      tag_74\n        /* \"#utility.yul\":2111:2112   */\n      dup3\n        /* \"#utility.yul\":2093:2113   */\n      tag_64\n      jump\t// in\n    tag_74:\n        /* \"#utility.yul\":2088:2113   */\n      swap2\n      pop\n        /* \"#utility.yul\":2127:2147   */\n      tag_75\n        /* \"#utility.yul\":2145:2146   */\n      dup4\n        /* \"#utility.yul\":2127:2147   */\n      tag_64\n      jump\t// in\n    tag_75:\n        /* \"#utility.yul\":2122:2147   */\n      swap3\n      pop\n        /* \"#utility.yul\":2281:2282   */\n      dup3\n        /* \"#utility.yul\":2213:2279   */\n      0xffffffffffffffffffffffffffffffffffffffffffffffffffffffffffffffff\n        /* \"#utility.yul\":2209:2283   */\n      sub\n        /* \"#utility.yul\":2206:2207   */\n      dup3\n        /* \"#utility.yul\":2203:2284   */\n      gt\n        /* \"#utility.yul\":2200:2307   */\n      iszero\n      tag_76\n      jumpi\n        /* \"#utility.yul\":2287:2305   */\n      tag_77\n      tag_78\n      jump\t// in\n    tag_77:\n        /* \"#utility.yul\":2200:2307   */\n    tag_76:\n        /* \"#utility.yul\":2331:2332   */\n      dup3\n        /* \"#utility.yul\":2328:2329   */\n      dup3\n        /* \"#utility.yul\":2324:2333   */\n      add\n        /* \"#utility.yul\":2317:2333   */\n      swap1\n      pop\n        /* \"#utility.yul\":2034:2339   */\n      swap3\n      swap2\n      pop\n      pop\n      jump\t// out\n        /* \"#utility.yul\":2345:2422   */\n    tag_64:\n        /* \"#utility.yul\":2382:2389   */\n      0x00\n        /* \"#utility.yul\":2411:2416   */\n      dup2\n        /* \"#utility.yul\":2400:2416   */\n      swap1\n      pop\n        /* \"#utility.yul\":2345:2422   */\n      swap2\n      swap1\n      pop\n      jump\t// out\n        /* \"#utility.yul\":2428:2735   */\n    tag_58:\n        /* \"#utility.yul\":2496:2497   */\n      0x00\n        /* \"#utility.yul\":2506:2619   */\n    tag_81:\n        /* \"#utility.yul\":2520:2526   */\n      dup4\n        /* \"#utility.yul\":2517:2518   */\n      dup2\n        /* \"#utility.yul\":2514:2527   */\n      lt\n        /* \"#utility.yul\":2506:2619   */\n      iszero\n      tag_83\n      jumpi\n        /* \"#utility.yul\":2605:2606   */\n      dup1\n        /* \"#utility.yul\":2600:2603   */\n      dup3\n        /* \"#utility.yul\":2596:2607   */\n      add\n        /* \"#utility.yul\":2590:2608   */\n      mload\n        /* \"#utility.yul\":2586:2587   */\n      dup2\n        /* \"#utility.yul\":2581:2584   */\n      dup5\n        /* \"#utility.yul\":2577:2588   */\n      add\n        /* \"#utility.yul\":2570:2609   */\n      mstore\n        /* \"#utility.yul\":2542:2544   */\n      0x20\n        /* \"#utility.yul\":2539:2540   */\n      dup2\n        /* \"#utility.yul\":2535:2545   */\n      add\n        /* \"#utility.yul\":2530:2545   */\n      swap1\n      pop\n        /* \"#utility.yul\":2506:2619   */\n      jump(tag_81)\n    tag_83:\n        /* \"#utility.yul\":2637:2643   */\n      dup4\n        /* \"#utility.yul\":2634:2635   */\n      dup2\n        /* \"#utility.yul\":2631:2644   */\n      gt\n        /* \"#utility.yul\":2628:2729   */\n      iszero\n      tag_84\n      jumpi\n        /* \"#utility.yul\":2717:2718   */\n      0x00\n        /* \"#utility.yul\":2708:2714   */\n      dup5\n        /* \"#utility.yul\":2703:2706   */\n      dup5\n        /* \"#utility.yul\":2699:2715   */\n      add\n        /* \"#utility.yul\":2692:2719   */\n      mstore\n        /* \"#utility.yul\":2628:2729   */\n    tag_84:\n        /* \"#utility.yul\":2477:2735   */\n      pop\n        /* \"#utility.yul\":2428:2735   */\n      pop\n      pop\n      pop\n      jump\t// out\n        /* \"#utility.yul\":2741:2921   */\n    tag_78:\n        /* \"#utility.yul\":2789:2866   */\n      0x4e487b7100000000000000000000000000000000000000000000000000000000\n        /* \"#utility.yul\":2786:2787   */\n      0x00\n        /* \"#utility.yul\":2779:2867   */\n      mstore\n        /* \"#utility.yul\":2886:2890   */\n      0x11\n        /* \"#utility.yul\":2883:2884   */\n      0x04\n        /* \"#utility.yul\":2876:2891   */\n      mstore\n        /* \"#utility.yul\":2910:2914   */\n      0x24\n        /* \"#utility.yul\":2907:2908   */\n      0x00\n        /* \"#utility.yul\":2900:2915   */\n      revert\n        /* \"#utility.yul\":3050:3167   */\n    tag_48:\n        /* \"#utility.yul\":3159:3160   */\n      0x00\n        /* \"#utility.yul\":3156:3157   */\n      dup1\n        /* \"#utility.yul\":3149:3161   */\n      revert\n        /* \"#utility.yul\":3173:3275   */\n    tag_60:\n        /* \"#utility.yul\":3214:3220   */\n      0x00\n        /* \"#utility.yul\":3265:3267   */\n      0x1f\n        /* \"#utility.yul\":3261:3268   */\n      not\n        /* \"#utility.yul\":3256:3258   */\n      0x1f\n        /* \"#utility.yul\":3249:3254   */\n      dup4\n        /* \"#utility.yul\":3245:3259   */\n      add\n        /* \"#utility.yul\":3241:3269   */\n      and\n        /* \"#utility.yul\":3231:3269   */\n      swap1\n      pop\n        /* \"#utility.yul\":3173:3275   */\n      swap2\n      swap1\n      pop\n      jump\t// out\n        /* \"#utility.yul\":3281:3403   */\n    tag_44:\n        /* \"#utility.yul\":3354:3378   */\n      tag_91\n        /* \"#utility.yul\":3372:3377   */\n      dup2\n        /* \"#utility.yul\":3354:3378   */\n      tag_64\n      jump\t// in\n    tag_91:\n        /* \"#utility.yul\":3347:3352   */\n      dup2\n        /* \"#utility.yul\":3344:3379   */\n      eq\n        /* \"#utility.yul\":3334:3397   */\n      tag_92\n      jumpi\n        /* \"#utility.yul\":3393:3394   */\n      0x00\n        /* \"#utility.yul\":3390:3391   */\n      dup1\n        /* \"#utility.yul\":3383:3395   */\n      revert\n        /* \"#utility.yul\":3334:3397   */\n    tag_92:\n        /* \"#utility.yul\":3281:3403   */\n      pop\n      jump\t// out\n\n    auxdata: 0xa2646970667358221220d20e051c355bd7ae7763831cf120a9b7608fbbbac10f500bd111ffb661bdd34e64736f6c63430008070033\n}\n",
				"bytecode": {
					"linkReferences": {},
					"object": "608060405234801561001057600080fd5b506103f3806100206000396000f3fe608060405234801561001057600080fd5b50600436106100575760003560e01c8063148bc9e21461005c57806329fcda331461007a578063513e18ce146100aa578063771602f7146100c857806379697ecc146100f8575b600080fd5b610064610116565b6040516100719190610275565b60405180910390f35b610094600480360381019061008f91906101ed565b610125565b6040516100a19190610297565b60405180910390f35b6100b2610139565b6040516100bf9190610275565b60405180910390f35b6100e260048036038101906100dd91906101ed565b610148565b6040516100ef9190610297565b60405180910390f35b61010061015e565b60405161010d9190610275565b60405180910390f35b606061012061015e565b905090565b60006101318383610148565b905092915050565b606061014361019b565b905090565b6000818361015691906102ce565b905092915050565b60606040518060400160405280601b81526020017f427520626972207075626c696320666f6e6b7369796f6e6475722e0000000000815250905090565b60606040518060400160405280601b81526020017f427520626972207072697661746520666f6e6b7369796f6e6475720000000000815250905090565b6000813590506101e7816103a6565b92915050565b6000806040838503121561020457610203610390565b5b6000610212858286016101d8565b9250506020610223858286016101d8565b9150509250929050565b6000610238826102b2565b61024281856102bd565b935061025281856020860161032e565b61025b81610395565b840191505092915050565b61026f81610324565b82525050565b6000602082019050818103600083015261028f818461022d565b905092915050565b60006020820190506102ac6000830184610266565b92915050565b600081519050919050565b600082825260208201905092915050565b60006102d982610324565b91506102e483610324565b9250827fffffffffffffffffffffffffffffffffffffffffffffffffffffffffffffffff0382111561031957610318610361565b5b828201905092915050565b6000819050919050565b60005b8381101561034c578082015181840152602081019050610331565b8381111561035b576000848401525b50505050565b7f4e487b7100000000000000000000000000000000000000000000000000000000600052601160045260246000fd5b600080fd5b6000601f19601f8301169050919050565b6103af81610324565b81146103ba57600080fd5b5056fea2646970667358221220d20e051c355bd7ae7763831cf120a9b7608fbbbac10f500bd111ffb661bdd34e64736f6c63430008070033",
					"opcodes": "PUSH1 0x80 PUSH1 0x40 MSTORE CALLVALUE DUP1 ISZERO PUSH2 0x10 JUMPI PUSH1 0x0 DUP1 REVERT JUMPDEST POP PUSH2 0x3F3 DUP1 PUSH2 0x20 PUSH1 0x0 CODECOPY PUSH1 0x0 RETURN INVALID PUSH1 0x80 PUSH1 0x40 MSTORE CALLVALUE DUP1 ISZERO PUSH2 0x10 JUMPI PUSH1 0x0 DUP1 REVERT JUMPDEST POP PUSH1 0x4 CALLDATASIZE LT PUSH2 0x57 JUMPI PUSH1 0x0 CALLDATALOAD PUSH1 0xE0 SHR DUP1 PUSH4 0x148BC9E2 EQ PUSH2 0x5C JUMPI DUP1 PUSH4 0x29FCDA33 EQ PUSH2 0x7A JUMPI DUP1 PUSH4 0x513E18CE EQ PUSH2 0xAA JUMPI DUP1 PUSH4 0x771602F7 EQ PUSH2 0xC8 JUMPI DUP1 PUSH4 0x79697ECC EQ PUSH2 0xF8 JUMPI JUMPDEST PUSH1 0x0 DUP1 REVERT JUMPDEST PUSH2 0x64 PUSH2 0x116 JUMP JUMPDEST PUSH1 0x40 MLOAD PUSH2 0x71 SWAP2 SWAP1 PUSH2 0x275 JUMP JUMPDEST PUSH1 0x40 MLOAD DUP1 SWAP2 SUB SWAP1 RETURN JUMPDEST PUSH2 0x94 PUSH1 0x4 DUP1 CALLDATASIZE SUB DUP2 ADD SWAP1 PUSH2 0x8F SWAP2 SWAP1 PUSH2 0x1ED JUMP JUMPDEST PUSH2 0x125 JUMP JUMPDEST PUSH1 0x40 MLOAD PUSH2 0xA1 SWAP2 SWAP1 PUSH2 0x297 JUMP JUMPDEST PUSH1 0x40 MLOAD DUP1 SWAP2 SUB SWAP1 RETURN JUMPDEST PUSH2 0xB2 PUSH2 0x139 JUMP JUMPDEST PUSH1 0x40 MLOAD PUSH2 0xBF SWAP2 SWAP1 PUSH2 0x275 JUMP JUMPDEST PUSH1 0x40 MLOAD DUP1 SWAP2 SUB SWAP1 RETURN JUMPDEST PUSH2 0xE2 PUSH1 0x4 DUP1 CALLDATASIZE SUB DUP2 ADD SWAP1 PUSH2 0xDD SWAP2 SWAP1 PUSH2 0x1ED JUMP JUMPDEST PUSH2 0x148 JUMP JUMPDEST PUSH1 0x40 MLOAD PUSH2 0xEF SWAP2 SWAP1 PUSH2 0x297 JUMP JUMPDEST PUSH1 0x40 MLOAD DUP1 SWAP2 SUB SWAP1 RETURN JUMPDEST PUSH2 0x100 PUSH2 0x15E JUMP JUMPDEST PUSH1 0x40 MLOAD PUSH2 0x10D SWAP2 SWAP1 PUSH2 0x275 JUMP JUMPDEST PUSH1 0x40 MLOAD DUP1 SWAP2 SUB SWAP1 RETURN JUMPDEST PUSH1 0x60 PUSH2 0x120 PUSH2 0x15E JUMP JUMPDEST SWAP1 POP SWAP1 JUMP JUMPDEST PUSH1 0x0 PUSH2 0x131 DUP4 DUP4 PUSH2 0x148 JUMP JUMPDEST SWAP1 POP SWAP3 SWAP2 POP POP JUMP JUMPDEST PUSH1 0x60 PUSH2 0x143 PUSH2 0x19B JUMP JUMPDEST SWAP1 POP SWAP1 JUMP JUMPDEST PUSH1 0x0 DUP2 DUP4 PUSH2 0x156 SWAP2 SWAP1 PUSH2 0x2CE JUMP JUMPDEST SWAP1 POP SWAP3 SWAP2 POP POP JUMP JUMPDEST PUSH1 0x60 PUSH1 0x40 MLOAD DUP1 PUSH1 0x40 ADD PUSH1 0x40 MSTORE DUP1 PUSH1 0x1B DUP2 MSTORE PUSH1 0x20 ADD PUSH32 0x427520626972207075626C696320666F6E6B7369796F6E6475722E0000000000 DUP2 MSTORE POP SWAP1 POP SWAP1 JUMP JUMPDEST PUSH1 0x60 PUSH1 0x40 MLOAD DUP1 PUSH1 0x40 ADD PUSH1 0x40 MSTORE DUP1 PUSH1 0x1B DUP2 MSTORE PUSH1 0x20 ADD PUSH32 0x427520626972207072697661746520666F6E6B7369796F6E6475720000000000 DUP2 MSTORE POP SWAP1 POP SWAP1 JUMP JUMPDEST PUSH1 0x0 DUP2 CALLDATALOAD SWAP1 POP PUSH2 0x1E7 DUP2 PUSH2 0x3A6 JUMP JUMPDEST SWAP3 SWAP2 POP POP JUMP JUMPDEST PUSH1 0x0 DUP1 PUSH1 0x40 DUP4 DUP6 SUB SLT ISZERO PUSH2 0x204 JUMPI PUSH2 0x203 PUSH2 0x390 JUMP JUMPDEST JUMPDEST PUSH1 0x0 PUSH2 0x212 DUP6 DUP3 DUP7 ADD PUSH2 0x1D8 JUMP JUMPDEST SWAP3 POP POP PUSH1 0x20 PUSH2 0x223 DUP6 DUP3 DUP7 ADD PUSH2 0x1D8 JUMP JUMPDEST SWAP2 POP POP SWAP3 POP SWAP3 SWAP1 POP JUMP JUMPDEST PUSH1 0x0 PUSH2 0x238 DUP3 PUSH2 0x2B2 JUMP JUMPDEST PUSH2 0x242 DUP2 DUP6 PUSH2 0x2BD JUMP JUMPDEST SWAP4 POP PUSH2 0x252 DUP2 DUP6 PUSH1 0x20 DUP7 ADD PUSH2 0x32E JUMP JUMPDEST PUSH2 0x25B DUP2 PUSH2 0x395 JUMP JUMPDEST DUP5 ADD SWAP2 POP POP SWAP3 SWAP2 POP POP JUMP JUMPDEST PUSH2 0x26F DUP2 PUSH2 0x324 JUMP JUMPDEST DUP3 MSTORE POP POP JUMP JUMPDEST PUSH1 0x0 PUSH1 0x20 DUP3 ADD SWAP1 POP DUP2 DUP2 SUB PUSH1 0x0 DUP4 ADD MSTORE PUSH2 0x28F DUP2 DUP5 PUSH2 0x22D JUMP JUMPDEST SWAP1 POP SWAP3 SWAP2 POP POP JUMP JUMPDEST PUSH1 0x0 PUSH1 0x20 DUP3 ADD SWAP1 POP PUSH2 0x2AC PUSH1 0x0 DUP4 ADD DUP5 PUSH2 0x266 JUMP JUMPDEST SWAP3 SWAP2 POP POP JUMP JUMPDEST PUSH1 0x0 DUP2 MLOAD SWAP1 POP SWAP2 SWAP1 POP JUMP JUMPDEST PUSH1 0x0 DUP3 DUP3 MSTORE PUSH1 0x20 DUP3 ADD SWAP1 POP SWAP3 SWAP2 POP POP JUMP JUMPDEST PUSH1 0x0 PUSH2 0x2D9 DUP3 PUSH2 0x324 JUMP JUMPDEST SWAP2 POP PUSH2 0x2E4 DUP4 PUSH2 0x324 JUMP JUMPDEST SWAP3 POP DUP3 PUSH32 0xFFFFFFFFFFFFFFFFFFFFFFFFFFFFFFFFFFFFFFFFFFFFFFFFFFFFFFFFFFFFFFFF SUB DUP3 GT ISZERO PUSH2 0x319 JUMPI PUSH2 0x318 PUSH2 0x361 JUMP JUMPDEST JUMPDEST DUP3 DUP3 ADD SWAP1 POP SWAP3 SWAP2 POP POP JUMP JUMPDEST PUSH1 0x0 DUP2 SWAP1 POP SWAP2 SWAP1 POP JUMP JUMPDEST PUSH1 0x0 JUMPDEST DUP4 DUP2 LT ISZERO PUSH2 0x34C JUMPI DUP1 DUP3 ADD MLOAD DUP2 DUP5 ADD MSTORE PUSH1 0x20 DUP2 ADD SWAP1 POP PUSH2 0x331 JUMP JUMPDEST DUP4 DUP2 GT ISZERO PUSH2 0x35B JUMPI PUSH1 0x0 DUP5 DUP5 ADD MSTORE JUMPDEST POP POP POP POP JUMP JUMPDEST PUSH32 0x4E487B7100000000000000000000000000000000000000000000000000000000 PUSH1 0x0 MSTORE PUSH1 0x11 PUSH1 0x4 MSTORE PUSH1 0x24 PUSH1 0x0 REVERT JUMPDEST PUSH1 0x0 DUP1 REVERT JUMPDEST PUSH1 0x0 PUSH1 0x1F NOT PUSH1 0x1F DUP4 ADD AND SWAP1 POP SWAP2 SWAP1 POP JUMP JUMPDEST PUSH2 0x3AF DUP2 PUSH2 0x324 JUMP JUMPDEST DUP2 EQ PUSH2 0x3BA JUMPI PUSH1 0x0 DUP1 REVERT JUMPDEST POP JUMP INVALID LOG2 PUSH5 0x6970667358 0x22 SLT KECCAK256 0xD2 0xE SDIV SHR CALLDATALOAD JUMPDEST 0xD7 0xAE PUSH24 0x63831CF120A9B7608FBBBAC10F500BD111FFB661BDD34E64 PUSH20 0x6F6C634300080700330000000000000000000000 "
				},
				"gasEstimates": {
					"creation": {
						"codeDepositCost": "202200",
						"executionCost": "245",
						"totalCost": "202445"
					},
					"external": {
						"add(uint256,uint256)": "infinite",
						"add2(uint256,uint256)": "infinite",
						"callPrivateKeyword()": "infinite",
						"callPublicKeyword()": "infinite",
						"publicKeyword()": "infinite"
					},
					"internal": {
						"internalKeyword()": "infinite",
						"privateKeyword()": "infinite"
					}
				},
				"methodIdentifiers": {
					"add(uint256,uint256)": "771602f7",
					"add2(uint256,uint256)": "29fcda33",
					"callPrivateKeyword()": "513e18ce",
					"callPublicKeyword()": "148bc9e2",
					"publicKeyword()": "79697ecc"
				}
			},
			"storageLayout": {
				"storage": [],
				"types": null
			},
			"userdoc": {
				"kind": "user",
				"methods": {},
				"version": 1
			}
		}
	}
}