{
	"contracts/Functions.sol": {
		"Functions": {
			"abi": [
				{
					"inputs": [
						{
							"internalType": "uint256",
							"name": "y",
							"type": "uint256"
						}
					],
					"name": "addNumber",
					"outputs": [
						{
							"internalType": "uint256",
							"name": "",
							"type": "uint256"
						}
					],
					"stateMutability": "view",
					"type": "function"
				},
				{
					"inputs": [],
					"name": "nothing",
					"outputs": [
						{
							"internalType": "uint256",
							"name": "x",
							"type": "uint256"
						},
						{
							"internalType": "bool",
							"name": "y",
							"type": "bool"
						},
						{
							"internalType": "bool",
							"name": "z",
							"type": "bool"
						}
					],
					"stateMutability": "pure",
					"type": "function"
				},
				{
					"inputs": [
						{
							"internalType": "uint256",
							"name": "newNumber",
							"type": "uint256"
						}
					],
					"name": "setNumber",
					"outputs": [],
					"stateMutability": "nonpayable",
					"type": "function"
				},
				{
					"inputs": [],
					"name": "showNumber",
					"outputs": [
						{
							"internalType": "uint256",
							"name": "",
							"type": "uint256"
						}
					],
					"stateMutability": "view",
					"type": "function"
				},
				{
					"inputs": [],
					"name": "x",
					"outputs": [
						{
							"internalType": "uint256",
							"name": "",
							"type": "uint256"
						}
					],
					"stateMutability": "view",
					"type": "function"
				}
			],
			"devdoc": {
				"kind": "dev",
				"methods": {},
				"version": 1
			},
			"evm": {
				"assembly": "    /* \"contracts/Functions.sol\":64:725  contract Functions {... */\n  mstore(0x40, 0x80)\n    /* \"contracts/Functions.sol\":106:107  3 */\n  0x03\n    /* \"contracts/Functions.sol\":90:107  uint public x = 3 */\n  0x00\n  sstore\n    /* \"contracts/Functions.sol\":214:215  7 */\n  0x07\n    /* \"contracts/Functions.sol\":195:215  uint luckyNumber = 7 */\n  0x01\n  sstore\n    /* \"contracts/Functions.sol\":64:725  contract Functions {... */\n  callvalue\n  dup1\n  iszero\n  tag_1\n  jumpi\n  0x00\n  dup1\n  revert\ntag_1:\n  pop\n  dataSize(sub_0)\n  dup1\n  dataOffset(sub_0)\n  0x00\n  codecopy\n  0x00\n  return\nstop\n\nsub_0: assembly {\n        /* \"contracts/Functions.sol\":64:725  contract Functions {... */\n      mstore(0x40, 0x80)\n      callvalue\n      dup1\n      iszero\n      tag_1\n      jumpi\n      0x00\n      dup1\n      revert\n    tag_1:\n      pop\n      jumpi(tag_2, lt(calldatasize, 0x04))\n      shr(0xe0, calldataload(0x00))\n      dup1\n      0x0c55699c\n      eq\n      tag_3\n      jumpi\n      dup1\n      0x3fb5c1cb\n      eq\n      tag_4\n      jumpi\n      dup1\n      0x448f30a3\n      eq\n      tag_5\n      jumpi\n      dup1\n      0x76dad223\n      eq\n      tag_6\n      jumpi\n      dup1\n      0xfce68023\n      eq\n      tag_7\n      jumpi\n    tag_2:\n      0x00\n      dup1\n      revert\n        /* \"contracts/Functions.sol\":90:107  uint public x = 3 */\n    tag_3:\n      tag_8\n      tag_9\n      jump\t// in\n    tag_8:\n      mload(0x40)\n      tag_10\n      swap2\n      swap1\n      tag_11\n      jump\t// in\n    tag_10:\n      mload(0x40)\n      dup1\n      swap2\n      sub\n      swap1\n      return\n        /* \"contracts/Functions.sol\":315:397  function setNumber(uint newNumber) public {... */\n    tag_4:\n      tag_12\n      0x04\n      dup1\n      calldatasize\n      sub\n      dup2\n      add\n      swap1\n      tag_13\n      swap2\n      swap1\n      tag_14\n      jump\t// in\n    tag_13:\n      tag_15\n      jump\t// in\n    tag_12:\n      stop\n        /* \"contracts/Functions.sol\":494:717  function nothing() public pure returns(uint x, bool y, bool z){ // Returns içerisinde değişken ismi eklersek fonksiyon içerisinde return kullanmamıza gerek yok.... */\n    tag_5:\n      tag_16\n      tag_17\n      jump\t// in\n    tag_16:\n      mload(0x40)\n      tag_18\n      swap4\n      swap3\n      swap2\n      swap1\n      tag_19\n      jump\t// in\n    tag_18:\n      mload(0x40)\n      dup1\n      swap2\n      sub\n      swap1\n      return\n        /* \"contracts/Functions.sol\":221:304  function showNumber() public view returns(uint) {... */\n    tag_6:\n      tag_20\n      tag_21\n      jump\t// in\n    tag_20:\n      mload(0x40)\n      tag_22\n      swap2\n      swap1\n      tag_11\n      jump\t// in\n    tag_22:\n      mload(0x40)\n      dup1\n      swap2\n      sub\n      swap1\n      return\n        /* \"contracts/Functions.sol\":403:484  function addNumber(uint y) public view returns(uint){... */\n    tag_7:\n      tag_23\n      0x04\n      dup1\n      calldatasize\n      sub\n      dup2\n      add\n      swap1\n      tag_24\n      swap2\n      swap1\n      tag_14\n      jump\t// in\n    tag_24:\n      tag_25\n      jump\t// in\n    tag_23:\n      mload(0x40)\n      tag_26\n      swap2\n      swap1\n      tag_11\n      jump\t// in\n    tag_26:\n      mload(0x40)\n      dup1\n      swap2\n      sub\n      swap1\n      return\n        /* \"contracts/Functions.sol\":90:107  uint public x = 3 */\n    tag_9:\n      sload(0x00)\n      dup2\n      jump\t// out\n        /* \"contracts/Functions.sol\":315:397  function setNumber(uint newNumber) public {... */\n    tag_15:\n        /* \"contracts/Functions.sol\":381:390  newNumber */\n      dup1\n        /* \"contracts/Functions.sol\":367:378  luckyNumber */\n      0x01\n        /* \"contracts/Functions.sol\":367:390  luckyNumber = newNumber */\n      dup2\n      swap1\n      sstore\n      pop\n        /* \"contracts/Functions.sol\":315:397  function setNumber(uint newNumber) public {... */\n      pop\n      jump\t// out\n        /* \"contracts/Functions.sol\":494:717  function nothing() public pure returns(uint x, bool y, bool z){ // Returns içerisinde değişken ismi eklersek fonksiyon içerisinde return kullanmamıza gerek yok.... */\n    tag_17:\n        /* \"contracts/Functions.sol\":533:539  uint x */\n      0x00\n        /* \"contracts/Functions.sol\":541:547  bool y */\n      dup1\n        /* \"contracts/Functions.sol\":549:555  bool z */\n      0x00\n        /* \"contracts/Functions.sol\":672:673  6 */\n      0x06\n        /* \"contracts/Functions.sol\":668:673  x = 6 */\n      swap3\n      pop\n        /* \"contracts/Functions.sol\":687:692  false */\n      0x00\n        /* \"contracts/Functions.sol\":683:692  y = false */\n      swap2\n      pop\n        /* \"contracts/Functions.sol\":706:710  true */\n      0x01\n        /* \"contracts/Functions.sol\":702:710  z = true */\n      swap1\n      pop\n        /* \"contracts/Functions.sol\":494:717  function nothing() public pure returns(uint x, bool y, bool z){ // Returns içerisinde değişken ismi eklersek fonksiyon içerisinde return kullanmamıza gerek yok.... */\n      swap1\n      swap2\n      swap3\n      jump\t// out\n        /* \"contracts/Functions.sol\":221:304  function showNumber() public view returns(uint) {... */\n    tag_21:\n        /* \"contracts/Functions.sol\":263:267  uint */\n      0x00\n        /* \"contracts/Functions.sol\":286:297  luckyNumber */\n      sload(0x01)\n        /* \"contracts/Functions.sol\":279:297  return luckyNumber */\n      swap1\n      pop\n        /* \"contracts/Functions.sol\":221:304  function showNumber() public view returns(uint) {... */\n      swap1\n      jump\t// out\n        /* \"contracts/Functions.sol\":403:484  function addNumber(uint y) public view returns(uint){... */\n    tag_25:\n        /* \"contracts/Functions.sol\":450:454  uint */\n      0x00\n        /* \"contracts/Functions.sol\":476:477  y */\n      dup2\n        /* \"contracts/Functions.sol\":472:473  x */\n      sload(0x00)\n        /* \"contracts/Functions.sol\":472:477  x + y */\n      tag_31\n      swap2\n      swap1\n      tag_32\n      jump\t// in\n    tag_31:\n        /* \"contracts/Functions.sol\":465:477  return x + y */\n      swap1\n      pop\n        /* \"contracts/Functions.sol\":403:484  function addNumber(uint y) public view returns(uint){... */\n      swap2\n      swap1\n      pop\n      jump\t// out\n        /* \"#utility.yul\":7:146   */\n    tag_34:\n        /* \"#utility.yul\":53:58   */\n      0x00\n        /* \"#utility.yul\":91:97   */\n      dup2\n        /* \"#utility.yul\":78:98   */\n      calldataload\n        /* \"#utility.yul\":69:98   */\n      swap1\n      pop\n        /* \"#utility.yul\":107:140   */\n      tag_36\n        /* \"#utility.yul\":134:139   */\n      dup2\n        /* \"#utility.yul\":107:140   */\n      tag_37\n      jump\t// in\n    tag_36:\n        /* \"#utility.yul\":7:146   */\n      swap3\n      swap2\n      pop\n      pop\n      jump\t// out\n        /* \"#utility.yul\":152:481   */\n    tag_14:\n        /* \"#utility.yul\":211:217   */\n      0x00\n        /* \"#utility.yul\":260:262   */\n      0x20\n        /* \"#utility.yul\":248:257   */\n      dup3\n        /* \"#utility.yul\":239:246   */\n      dup5\n        /* \"#utility.yul\":235:258   */\n      sub\n        /* \"#utility.yul\":231:263   */\n      slt\n        /* \"#utility.yul\":228:347   */\n      iszero\n      tag_39\n      jumpi\n        /* \"#utility.yul\":266:345   */\n      tag_40\n      tag_41\n      jump\t// in\n    tag_40:\n        /* \"#utility.yul\":228:347   */\n    tag_39:\n        /* \"#utility.yul\":386:387   */\n      0x00\n        /* \"#utility.yul\":411:464   */\n      tag_42\n        /* \"#utility.yul\":456:463   */\n      dup5\n        /* \"#utility.yul\":447:453   */\n      dup3\n        /* \"#utility.yul\":436:445   */\n      dup6\n        /* \"#utility.yul\":432:454   */\n      add\n        /* \"#utility.yul\":411:464   */\n      tag_34\n      jump\t// in\n    tag_42:\n        /* \"#utility.yul\":401:464   */\n      swap2\n      pop\n        /* \"#utility.yul\":357:474   */\n      pop\n        /* \"#utility.yul\":152:481   */\n      swap3\n      swap2\n      pop\n      pop\n      jump\t// out\n        /* \"#utility.yul\":487:596   */\n    tag_43:\n        /* \"#utility.yul\":568:589   */\n      tag_45\n        /* \"#utility.yul\":583:588   */\n      dup2\n        /* \"#utility.yul\":568:589   */\n      tag_46\n      jump\t// in\n    tag_45:\n        /* \"#utility.yul\":563:566   */\n      dup3\n        /* \"#utility.yul\":556:590   */\n      mstore\n        /* \"#utility.yul\":487:596   */\n      pop\n      pop\n      jump\t// out\n        /* \"#utility.yul\":602:720   */\n    tag_47:\n        /* \"#utility.yul\":689:713   */\n      tag_49\n        /* \"#utility.yul\":707:712   */\n      dup2\n        /* \"#utility.yul\":689:713   */\n      tag_50\n      jump\t// in\n    tag_49:\n        /* \"#utility.yul\":684:687   */\n      dup3\n        /* \"#utility.yul\":677:714   */\n      mstore\n        /* \"#utility.yul\":602:720   */\n      pop\n      pop\n      jump\t// out\n        /* \"#utility.yul\":726:948   */\n    tag_11:\n        /* \"#utility.yul\":819:823   */\n      0x00\n        /* \"#utility.yul\":857:859   */\n      0x20\n        /* \"#utility.yul\":846:855   */\n      dup3\n        /* \"#utility.yul\":842:860   */\n      add\n        /* \"#utility.yul\":834:860   */\n      swap1\n      pop\n        /* \"#utility.yul\":870:941   */\n      tag_52\n        /* \"#utility.yul\":938:939   */\n      0x00\n        /* \"#utility.yul\":927:936   */\n      dup4\n        /* \"#utility.yul\":923:940   */\n      add\n        /* \"#utility.yul\":914:920   */\n      dup5\n        /* \"#utility.yul\":870:941   */\n      tag_47\n      jump\t// in\n    tag_52:\n        /* \"#utility.yul\":726:948   */\n      swap3\n      swap2\n      pop\n      pop\n      jump\t// out\n        /* \"#utility.yul\":954:1372   */\n    tag_19:\n        /* \"#utility.yul\":1091:1095   */\n      0x00\n        /* \"#utility.yul\":1129:1131   */\n      0x60\n        /* \"#utility.yul\":1118:1127   */\n      dup3\n        /* \"#utility.yul\":1114:1132   */\n      add\n        /* \"#utility.yul\":1106:1132   */\n      swap1\n      pop\n        /* \"#utility.yul\":1142:1213   */\n      tag_54\n        /* \"#utility.yul\":1210:1211   */\n      0x00\n        /* \"#utility.yul\":1199:1208   */\n      dup4\n        /* \"#utility.yul\":1195:1212   */\n      add\n        /* \"#utility.yul\":1186:1192   */\n      dup7\n        /* \"#utility.yul\":1142:1213   */\n      tag_47\n      jump\t// in\n    tag_54:\n        /* \"#utility.yul\":1223:1289   */\n      tag_55\n        /* \"#utility.yul\":1285:1287   */\n      0x20\n        /* \"#utility.yul\":1274:1283   */\n      dup4\n        /* \"#utility.yul\":1270:1288   */\n      add\n        /* \"#utility.yul\":1261:1267   */\n      dup6\n        /* \"#utility.yul\":1223:1289   */\n      tag_43\n      jump\t// in\n    tag_55:\n        /* \"#utility.yul\":1299:1365   */\n      tag_56\n        /* \"#utility.yul\":1361:1363   */\n      0x40\n        /* \"#utility.yul\":1350:1359   */\n      dup4\n        /* \"#utility.yul\":1346:1364   */\n      add\n        /* \"#utility.yul\":1337:1343   */\n      dup5\n        /* \"#utility.yul\":1299:1365   */\n      tag_43\n      jump\t// in\n    tag_56:\n        /* \"#utility.yul\":954:1372   */\n      swap5\n      swap4\n      pop\n      pop\n      pop\n      pop\n      jump\t// out\n        /* \"#utility.yul\":1459:1764   */\n    tag_32:\n        /* \"#utility.yul\":1499:1502   */\n      0x00\n        /* \"#utility.yul\":1518:1538   */\n      tag_60\n        /* \"#utility.yul\":1536:1537   */\n      dup3\n        /* \"#utility.yul\":1518:1538   */\n      tag_50\n      jump\t// in\n    tag_60:\n        /* \"#utility.yul\":1513:1538   */\n      swap2\n      pop\n        /* \"#utility.yul\":1552:1572   */\n      tag_61\n        /* \"#utility.yul\":1570:1571   */\n      dup4\n        /* \"#utility.yul\":1552:1572   */\n      tag_50\n      jump\t// in\n    tag_61:\n        /* \"#utility.yul\":1547:1572   */\n      swap3\n      pop\n        /* \"#utility.yul\":1706:1707   */\n      dup3\n        /* \"#utility.yul\":1638:1704   */\n      0xffffffffffffffffffffffffffffffffffffffffffffffffffffffffffffffff\n        /* \"#utility.yul\":1634:1708   */\n      sub\n        /* \"#utility.yul\":1631:1632   */\n      dup3\n        /* \"#utility.yul\":1628:1709   */\n      gt\n        /* \"#utility.yul\":1625:1732   */\n      iszero\n      tag_62\n      jumpi\n        /* \"#utility.yul\":1712:1730   */\n      tag_63\n      tag_64\n      jump\t// in\n    tag_63:\n        /* \"#utility.yul\":1625:1732   */\n    tag_62:\n        /* \"#utility.yul\":1756:1757   */\n      dup3\n        /* \"#utility.yul\":1753:1754   */\n      dup3\n        /* \"#utility.yul\":1749:1758   */\n      add\n        /* \"#utility.yul\":1742:1758   */\n      swap1\n      pop\n        /* \"#utility.yul\":1459:1764   */\n      swap3\n      swap2\n      pop\n      pop\n      jump\t// out\n        /* \"#utility.yul\":1770:1860   */\n    tag_46:\n        /* \"#utility.yul\":1804:1811   */\n      0x00\n        /* \"#utility.yul\":1847:1852   */\n      dup2\n        /* \"#utility.yul\":1840:1853   */\n      iszero\n        /* \"#utility.yul\":1833:1854   */\n      iszero\n        /* \"#utility.yul\":1822:1854   */\n      swap1\n      pop\n        /* \"#utility.yul\":1770:1860   */\n      swap2\n      swap1\n      pop\n      jump\t// out\n        /* \"#utility.yul\":1866:1943   */\n    tag_50:\n        /* \"#utility.yul\":1903:1910   */\n      0x00\n        /* \"#utility.yul\":1932:1937   */\n      dup2\n        /* \"#utility.yul\":1921:1937   */\n      swap1\n      pop\n        /* \"#utility.yul\":1866:1943   */\n      swap2\n      swap1\n      pop\n      jump\t// out\n        /* \"#utility.yul\":1949:2129   */\n    tag_64:\n        /* \"#utility.yul\":1997:2074   */\n      0x4e487b7100000000000000000000000000000000000000000000000000000000\n        /* \"#utility.yul\":1994:1995   */\n      0x00\n        /* \"#utility.yul\":1987:2075   */\n      mstore\n        /* \"#utility.yul\":2094:2098   */\n      0x11\n        /* \"#utility.yul\":2091:2092   */\n      0x04\n        /* \"#utility.yul\":2084:2099   */\n      mstore\n        /* \"#utility.yul\":2118:2122   */\n      0x24\n        /* \"#utility.yul\":2115:2116   */\n      0x00\n        /* \"#utility.yul\":2108:2123   */\n      revert\n        /* \"#utility.yul\":2258:2375   */\n    tag_41:\n        /* \"#utility.yul\":2367:2368   */\n      0x00\n        /* \"#utility.yul\":2364:2365   */\n      dup1\n        /* \"#utility.yul\":2357:2369   */\n      revert\n        /* \"#utility.yul\":2381:2503   */\n    tag_37:\n        /* \"#utility.yul\":2454:2478   */\n      tag_72\n        /* \"#utility.yul\":2472:2477   */\n      dup2\n        /* \"#utility.yul\":2454:2478   */\n      tag_50\n      jump\t// in\n    tag_72:\n        /* \"#utility.yul\":2447:2452   */\n      dup2\n        /* \"#utility.yul\":2444:2479   */\n      eq\n        /* \"#utility.yul\":2434:2497   */\n      tag_73\n      jumpi\n        /* \"#utility.yul\":2493:2494   */\n      0x00\n        /* \"#utility.yul\":2490:2491   */\n      dup1\n        /* \"#utility.yul\":2483:2495   */\n      revert\n        /* \"#utility.yul\":2434:2497   */\n    tag_73:\n        /* \"#utility.yul\":2381:2503   */\n      pop\n      jump\t// out\n\n    auxdata: 0xa2646970667358221220cb0f075476b00d89e631816fecd52594be0bc26931918c4ccf14dc9ad07690e864736f6c63430008070033\n}\n",
				"bytecode": {
					"linkReferences": {},
					"object": "60806040526003600055600760015534801561001a57600080fd5b506102ea8061002a6000396000f3fe608060405234801561001057600080fd5b50600436106100575760003560e01c80630c55699c1461005c5780633fb5c1cb1461007a578063448f30a31461009657806376dad223146100b6578063fce68023146100d4575b600080fd5b610064610104565b60405161007191906101ab565b60405180910390f35b610094600480360381019061008f9190610160565b61010a565b005b61009e610114565b6040516100ad939291906101c6565b60405180910390f35b6100be61012a565b6040516100cb91906101ab565b60405180910390f35b6100ee60048036038101906100e99190610160565b610134565b6040516100fb91906101ab565b60405180910390f35b60005481565b8060018190555050565b6000806000600692506000915060019050909192565b6000600154905090565b60008160005461014491906101fd565b9050919050565b60008135905061015a8161029d565b92915050565b60006020828403121561017657610175610298565b5b60006101848482850161014b565b91505092915050565b61019681610253565b82525050565b6101a58161025f565b82525050565b60006020820190506101c0600083018461019c565b92915050565b60006060820190506101db600083018661019c565b6101e8602083018561018d565b6101f5604083018461018d565b949350505050565b60006102088261025f565b91506102138361025f565b9250827fffffffffffffffffffffffffffffffffffffffffffffffffffffffffffffffff0382111561024857610247610269565b5b828201905092915050565b60008115159050919050565b6000819050919050565b7f4e487b7100000000000000000000000000000000000000000000000000000000600052601160045260246000fd5b600080fd5b6102a68161025f565b81146102b157600080fd5b5056fea2646970667358221220cb0f075476b00d89e631816fecd52594be0bc26931918c4ccf14dc9ad07690e864736f6c63430008070033",
					"opcodes": "PUSH1 0x80 PUSH1 0x40 MSTORE PUSH1 0x3 PUSH1 0x0 SSTORE PUSH1 0x7 PUSH1 0x1 SSTORE CALLVALUE DUP1 ISZERO PUSH2 0x1A JUMPI PUSH1 0x0 DUP1 REVERT JUMPDEST POP PUSH2 0x2EA DUP1 PUSH2 0x2A PUSH1 0x0 CODECOPY PUSH1 0x0 RETURN INVALID PUSH1 0x80 PUSH1 0x40 MSTORE CALLVALUE DUP1 ISZERO PUSH2 0x10 JUMPI PUSH1 0x0 DUP1 REVERT JUMPDEST POP PUSH1 0x4 CALLDATASIZE LT PUSH2 0x57 JUMPI PUSH1 0x0 CALLDATALOAD PUSH1 0xE0 SHR DUP1 PUSH4 0xC55699C EQ PUSH2 0x5C JUMPI DUP1 PUSH4 0x3FB5C1CB EQ PUSH2 0x7A JUMPI DUP1 PUSH4 0x448F30A3 EQ PUSH2 0x96 JUMPI DUP1 PUSH4 0x76DAD223 EQ PUSH2 0xB6 JUMPI DUP1 PUSH4 0xFCE68023 EQ PUSH2 0xD4 JUMPI JUMPDEST PUSH1 0x0 DUP1 REVERT JUMPDEST PUSH2 0x64 PUSH2 0x104 JUMP JUMPDEST PUSH1 0x40 MLOAD PUSH2 0x71 SWAP2 SWAP1 PUSH2 0x1AB JUMP JUMPDEST PUSH1 0x40 MLOAD DUP1 SWAP2 SUB SWAP1 RETURN JUMPDEST PUSH2 0x94 PUSH1 0x4 DUP1 CALLDATASIZE SUB DUP2 ADD SWAP1 PUSH2 0x8F SWAP2 SWAP1 PUSH2 0x160 JUMP JUMPDEST PUSH2 0x10A JUMP JUMPDEST STOP JUMPDEST PUSH2 0x9E PUSH2 0x114 JUMP JUMPDEST PUSH1 0x40 MLOAD PUSH2 0xAD SWAP4 SWAP3 SWAP2 SWAP1 PUSH2 0x1C6 JUMP JUMPDEST PUSH1 0x40 MLOAD DUP1 SWAP2 SUB SWAP1 RETURN JUMPDEST PUSH2 0xBE PUSH2 0x12A JUMP JUMPDEST PUSH1 0x40 MLOAD PUSH2 0xCB SWAP2 SWAP1 PUSH2 0x1AB JUMP JUMPDEST PUSH1 0x40 MLOAD DUP1 SWAP2 SUB SWAP1 RETURN JUMPDEST PUSH2 0xEE PUSH1 0x4 DUP1 CALLDATASIZE SUB DUP2 ADD SWAP1 PUSH2 0xE9 SWAP2 SWAP1 PUSH2 0x160 JUMP JUMPDEST PUSH2 0x134 JUMP JUMPDEST PUSH1 0x40 MLOAD PUSH2 0xFB SWAP2 SWAP1 PUSH2 0x1AB JUMP JUMPDEST PUSH1 0x40 MLOAD DUP1 SWAP2 SUB SWAP1 RETURN JUMPDEST PUSH1 0x0 SLOAD DUP2 JUMP JUMPDEST DUP1 PUSH1 0x1 DUP2 SWAP1 SSTORE POP POP JUMP JUMPDEST PUSH1 0x0 DUP1 PUSH1 0x0 PUSH1 0x6 SWAP3 POP PUSH1 0x0 SWAP2 POP PUSH1 0x1 SWAP1 POP SWAP1 SWAP2 SWAP3 JUMP JUMPDEST PUSH1 0x0 PUSH1 0x1 SLOAD SWAP1 POP SWAP1 JUMP JUMPDEST PUSH1 0x0 DUP2 PUSH1 0x0 SLOAD PUSH2 0x144 SWAP2 SWAP1 PUSH2 0x1FD JUMP JUMPDEST SWAP1 POP SWAP2 SWAP1 POP JUMP JUMPDEST PUSH1 0x0 DUP2 CALLDATALOAD SWAP1 POP PUSH2 0x15A DUP2 PUSH2 0x29D JUMP JUMPDEST SWAP3 SWAP2 POP POP JUMP JUMPDEST PUSH1 0x0 PUSH1 0x20 DUP3 DUP5 SUB SLT ISZERO PUSH2 0x176 JUMPI PUSH2 0x175 PUSH2 0x298 JUMP JUMPDEST JUMPDEST PUSH1 0x0 PUSH2 0x184 DUP5 DUP3 DUP6 ADD PUSH2 0x14B JUMP JUMPDEST SWAP2 POP POP SWAP3 SWAP2 POP POP JUMP JUMPDEST PUSH2 0x196 DUP2 PUSH2 0x253 JUMP JUMPDEST DUP3 MSTORE POP POP JUMP JUMPDEST PUSH2 0x1A5 DUP2 PUSH2 0x25F JUMP JUMPDEST DUP3 MSTORE POP POP JUMP JUMPDEST PUSH1 0x0 PUSH1 0x20 DUP3 ADD SWAP1 POP PUSH2 0x1C0 PUSH1 0x0 DUP4 ADD DUP5 PUSH2 0x19C JUMP JUMPDEST SWAP3 SWAP2 POP POP JUMP JUMPDEST PUSH1 0x0 PUSH1 0x60 DUP3 ADD SWAP1 POP PUSH2 0x1DB PUSH1 0x0 DUP4 ADD DUP7 PUSH2 0x19C JUMP JUMPDEST PUSH2 0x1E8 PUSH1 0x20 DUP4 ADD DUP6 PUSH2 0x18D JUMP JUMPDEST PUSH2 0x1F5 PUSH1 0x40 DUP4 ADD DUP5 PUSH2 0x18D JUMP JUMPDEST SWAP5 SWAP4 POP POP POP POP JUMP JUMPDEST PUSH1 0x0 PUSH2 0x208 DUP3 PUSH2 0x25F JUMP JUMPDEST SWAP2 POP PUSH2 0x213 DUP4 PUSH2 0x25F JUMP JUMPDEST SWAP3 POP DUP3 PUSH32 0xFFFFFFFFFFFFFFFFFFFFFFFFFFFFFFFFFFFFFFFFFFFFFFFFFFFFFFFFFFFFFFFF SUB DUP3 GT ISZERO PUSH2 0x248 JUMPI PUSH2 0x247 PUSH2 0x269 JUMP JUMPDEST JUMPDEST DUP3 DUP3 ADD SWAP1 POP SWAP3 SWAP2 POP POP JUMP JUMPDEST PUSH1 0x0 DUP2 ISZERO ISZERO SWAP1 POP SWAP2 SWAP1 POP JUMP JUMPDEST PUSH1 0x0 DUP2 SWAP1 POP SWAP2 SWAP1 POP JUMP JUMPDEST PUSH32 0x4E487B7100000000000000000000000000000000000000000000000000000000 PUSH1 0x0 MSTORE PUSH1 0x11 PUSH1 0x4 MSTORE PUSH1 0x24 PUSH1 0x0 REVERT JUMPDEST PUSH1 0x0 DUP1 REVERT JUMPDEST PUSH2 0x2A6 DUP2 PUSH2 0x25F JUMP JUMPDEST DUP2 EQ PUSH2 0x2B1 JUMPI PUSH1 0x0 DUP1 REVERT JUMPDEST POP JUMP INVALID LOG2 PUSH5 0x6970667358 0x22 SLT KECCAK256 0xCB 0xF SMOD SLOAD PUSH23 0xB00D89E631816FECD52594BE0BC26931918C4CCF14DC9A 0xD0 PUSH23 0x90E864736F6C6343000807003300000000000000000000 "
				},
				"gasEstimates": {
					"creation": {
						"codeDepositCost": "149200",
						"executionCost": "44408",
						"totalCost": "193608"
					},
					"external": {
						"addNumber(uint256)": "infinite",
						"nothing()": "infinite",
						"setNumber(uint256)": "22520",
						"showNumber()": "2481",
						"x()": "2407"
					}
				},
				"methodIdentifiers": {
					"addNumber(uint256)": "fce68023",
					"nothing()": "448f30a3",
					"setNumber(uint256)": "3fb5c1cb",
					"showNumber()": "76dad223",
					"x()": "0c55699c"
				}
			},
			"storageLayout": {
				"storage": [
					{
						"astId": 4,
						"contract": "contracts/Functions.sol:Functions",
						"label": "x",
						"offset": 0,
						"slot": "0",
						"type": "t_uint256"
					},
					{
						"astId": 7,
						"contract": "contracts/Functions.sol:Functions",
						"label": "luckyNumber",
						"offset": 0,
						"slot": "1",
						"type": "t_uint256"
					}
				],
				"types": {
					"t_uint256": {
						"encoding": "inplace",
						"label": "uint256",
						"numberOfBytes": "32"
					}
				}
			},
			"userdoc": {
				"kind": "user",
				"methods": {},
				"version": 1
			}
		}
	}
}