{
	"contracts/IfElse.sol": {
		"IfElse": {
			"abi": [
				{
					"inputs": [
						{
							"internalType": "string",
							"name": "_password",
							"type": "string"
						}
					],
					"stateMutability": "nonpayable",
					"type": "constructor"
				},
				{
					"inputs": [
						{
							"internalType": "string",
							"name": "_password",
							"type": "string"
						}
					],
					"name": "login",
					"outputs": [
						{
							"internalType": "bool",
							"name": "",
							"type": "bool"
						}
					],
					"stateMutability": "view",
					"type": "function"
				},
				{
					"inputs": [
						{
							"internalType": "string",
							"name": "_password",
							"type": "string"
						}
					],
					"name": "loginlogin",
					"outputs": [
						{
							"internalType": "uint256",
							"name": "",
							"type": "uint256"
						}
					],
					"stateMutability": "view",
					"type": "function"
				}
			],
			"devdoc": {
				"kind": "dev",
				"methods": {},
				"version": 1
			},
			"evm": {
				"assembly": "    /* \"contracts/IfElse.sol\":64:831  contract IfElse {... */\n  mstore(0x40, 0x80)\n    /* \"contracts/IfElse.sol\":129:232  constructor(string memory _password) {... */\n  callvalue\n  dup1\n  iszero\n  tag_1\n  jumpi\n  0x00\n  dup1\n  revert\ntag_1:\n  pop\n  mload(0x40)\n  sub(codesize, bytecodeSize)\n  dup1\n  bytecodeSize\n  dup4\n  codecopy\n  dup2\n  dup2\n  add\n  0x40\n  mstore\n  dup2\n  add\n  swap1\n  tag_2\n  swap2\n  swap1\n  tag_3\n  jump\t// in\ntag_2:\n    /* \"contracts/IfElse.sol\":214:223  _password */\n  dup1\n    /* \"contracts/IfElse.sol\":203:224  abi.encode(_password) */\n  add(0x20, mload(0x40))\n  tag_6\n  swap2\n  swap1\n  tag_7\n  jump\t// in\ntag_6:\n  mload(0x40)\n  0x20\n  dup2\n  dup4\n  sub\n  sub\n  dup2\n  mstore\n  swap1\n  0x40\n  mstore\n    /* \"contracts/IfElse.sol\":193:225  keccak256(abi.encode(_password)) */\n  dup1\n  mload\n  swap1\n  0x20\n  add\n  keccak256\n    /* \"contracts/IfElse.sol\":176:190  hashedPassword */\n  0x00\n    /* \"contracts/IfElse.sol\":176:225  hashedPassword = keccak256(abi.encode(_password)) */\n  dup2\n  swap1\n  sstore\n  pop\n    /* \"contracts/IfElse.sol\":129:232  constructor(string memory _password) {... */\n  pop\n    /* \"contracts/IfElse.sol\":64:831  contract IfElse {... */\n  jump(tag_8)\n    /* \"#utility.yul\":7:428   */\ntag_10:\n    /* \"#utility.yul\":96:101   */\n  0x00\n    /* \"#utility.yul\":121:187   */\n  tag_12\n    /* \"#utility.yul\":137:186   */\n  tag_13\n    /* \"#utility.yul\":179:185   */\n  dup5\n    /* \"#utility.yul\":137:186   */\n  tag_14\n  jump\t// in\ntag_13:\n    /* \"#utility.yul\":121:187   */\n  tag_15\n  jump\t// in\ntag_12:\n    /* \"#utility.yul\":112:187   */\n  swap1\n  pop\n    /* \"#utility.yul\":210:216   */\n  dup3\n    /* \"#utility.yul\":203:208   */\n  dup2\n    /* \"#utility.yul\":196:217   */\n  mstore\n    /* \"#utility.yul\":248:252   */\n  0x20\n    /* \"#utility.yul\":241:246   */\n  dup2\n    /* \"#utility.yul\":237:253   */\n  add\n    /* \"#utility.yul\":286:289   */\n  dup5\n    /* \"#utility.yul\":277:283   */\n  dup5\n    /* \"#utility.yul\":272:275   */\n  dup5\n    /* \"#utility.yul\":268:284   */\n  add\n    /* \"#utility.yul\":265:290   */\n  gt\n    /* \"#utility.yul\":262:374   */\n  iszero\n  tag_16\n  jumpi\n    /* \"#utility.yul\":293:372   */\n  tag_17\n  tag_18\n  jump\t// in\ntag_17:\n    /* \"#utility.yul\":262:374   */\ntag_16:\n    /* \"#utility.yul\":383:422   */\n  tag_19\n    /* \"#utility.yul\":415:421   */\n  dup5\n    /* \"#utility.yul\":410:413   */\n  dup3\n    /* \"#utility.yul\":405:408   */\n  dup6\n    /* \"#utility.yul\":383:422   */\n  tag_20\n  jump\t// in\ntag_19:\n    /* \"#utility.yul\":102:428   */\n  pop\n    /* \"#utility.yul\":7:428   */\n  swap4\n  swap3\n  pop\n  pop\n  pop\n  jump\t// out\n    /* \"#utility.yul\":448:803   */\ntag_21:\n    /* \"#utility.yul\":515:520   */\n  0x00\n    /* \"#utility.yul\":564:567   */\n  dup3\n    /* \"#utility.yul\":557:561   */\n  0x1f\n    /* \"#utility.yul\":549:555   */\n  dup4\n    /* \"#utility.yul\":545:562   */\n  add\n    /* \"#utility.yul\":541:568   */\n  slt\n    /* \"#utility.yul\":531:653   */\n  tag_23\n  jumpi\n    /* \"#utility.yul\":572:651   */\n  tag_24\n  tag_25\n  jump\t// in\ntag_24:\n    /* \"#utility.yul\":531:653   */\ntag_23:\n    /* \"#utility.yul\":682:688   */\n  dup2\n    /* \"#utility.yul\":676:689   */\n  mload\n    /* \"#utility.yul\":707:797   */\n  tag_26\n    /* \"#utility.yul\":793:796   */\n  dup5\n    /* \"#utility.yul\":785:791   */\n  dup3\n    /* \"#utility.yul\":778:782   */\n  0x20\n    /* \"#utility.yul\":770:776   */\n  dup7\n    /* \"#utility.yul\":766:783   */\n  add\n    /* \"#utility.yul\":707:797   */\n  tag_10\n  jump\t// in\ntag_26:\n    /* \"#utility.yul\":698:797   */\n  swap2\n  pop\n    /* \"#utility.yul\":521:803   */\n  pop\n    /* \"#utility.yul\":448:803   */\n  swap3\n  swap2\n  pop\n  pop\n  jump\t// out\n    /* \"#utility.yul\":809:1333   */\ntag_3:\n    /* \"#utility.yul\":889:895   */\n  0x00\n    /* \"#utility.yul\":938:940   */\n  0x20\n    /* \"#utility.yul\":926:935   */\n  dup3\n    /* \"#utility.yul\":917:924   */\n  dup5\n    /* \"#utility.yul\":913:936   */\n  sub\n    /* \"#utility.yul\":909:941   */\n  slt\n    /* \"#utility.yul\":906:1025   */\n  iszero\n  tag_28\n  jumpi\n    /* \"#utility.yul\":944:1023   */\n  tag_29\n  tag_30\n  jump\t// in\ntag_29:\n    /* \"#utility.yul\":906:1025   */\ntag_28:\n    /* \"#utility.yul\":1085:1086   */\n  0x00\n    /* \"#utility.yul\":1074:1083   */\n  dup3\n    /* \"#utility.yul\":1070:1087   */\n  add\n    /* \"#utility.yul\":1064:1088   */\n  mload\n    /* \"#utility.yul\":1115:1133   */\n  0xffffffffffffffff\n    /* \"#utility.yul\":1107:1113   */\n  dup2\n    /* \"#utility.yul\":1104:1134   */\n  gt\n    /* \"#utility.yul\":1101:1218   */\n  iszero\n  tag_31\n  jumpi\n    /* \"#utility.yul\":1137:1216   */\n  tag_32\n  tag_33\n  jump\t// in\ntag_32:\n    /* \"#utility.yul\":1101:1218   */\ntag_31:\n    /* \"#utility.yul\":1242:1316   */\n  tag_34\n    /* \"#utility.yul\":1308:1315   */\n  dup5\n    /* \"#utility.yul\":1299:1305   */\n  dup3\n    /* \"#utility.yul\":1288:1297   */\n  dup6\n    /* \"#utility.yul\":1284:1306   */\n  add\n    /* \"#utility.yul\":1242:1316   */\n  tag_21\n  jump\t// in\ntag_34:\n    /* \"#utility.yul\":1232:1316   */\n  swap2\n  pop\n    /* \"#utility.yul\":1035:1326   */\n  pop\n    /* \"#utility.yul\":809:1333   */\n  swap3\n  swap2\n  pop\n  pop\n  jump\t// out\n    /* \"#utility.yul\":1339:1703   */\ntag_35:\n    /* \"#utility.yul\":1427:1430   */\n  0x00\n    /* \"#utility.yul\":1455:1494   */\n  tag_37\n    /* \"#utility.yul\":1488:1493   */\n  dup3\n    /* \"#utility.yul\":1455:1494   */\n  tag_38\n  jump\t// in\ntag_37:\n    /* \"#utility.yul\":1510:1581   */\n  tag_39\n    /* \"#utility.yul\":1574:1580   */\n  dup2\n    /* \"#utility.yul\":1569:1572   */\n  dup6\n    /* \"#utility.yul\":1510:1581   */\n  tag_40\n  jump\t// in\ntag_39:\n    /* \"#utility.yul\":1503:1581   */\n  swap4\n  pop\n    /* \"#utility.yul\":1590:1642   */\n  tag_41\n    /* \"#utility.yul\":1635:1641   */\n  dup2\n    /* \"#utility.yul\":1630:1633   */\n  dup6\n    /* \"#utility.yul\":1623:1627   */\n  0x20\n    /* \"#utility.yul\":1616:1621   */\n  dup7\n    /* \"#utility.yul\":1612:1628   */\n  add\n    /* \"#utility.yul\":1590:1642   */\n  tag_20\n  jump\t// in\ntag_41:\n    /* \"#utility.yul\":1667:1696   */\n  tag_42\n    /* \"#utility.yul\":1689:1695   */\n  dup2\n    /* \"#utility.yul\":1667:1696   */\n  tag_43\n  jump\t// in\ntag_42:\n    /* \"#utility.yul\":1662:1665   */\n  dup5\n    /* \"#utility.yul\":1658:1697   */\n  add\n    /* \"#utility.yul\":1651:1697   */\n  swap2\n  pop\n    /* \"#utility.yul\":1431:1703   */\n  pop\n    /* \"#utility.yul\":1339:1703   */\n  swap3\n  swap2\n  pop\n  pop\n  jump\t// out\n    /* \"#utility.yul\":1709:2022   */\ntag_7:\n    /* \"#utility.yul\":1822:1826   */\n  0x00\n    /* \"#utility.yul\":1860:1862   */\n  0x20\n    /* \"#utility.yul\":1849:1858   */\n  dup3\n    /* \"#utility.yul\":1845:1863   */\n  add\n    /* \"#utility.yul\":1837:1863   */\n  swap1\n  pop\n    /* \"#utility.yul\":1909:1918   */\n  dup2\n    /* \"#utility.yul\":1903:1907   */\n  dup2\n    /* \"#utility.yul\":1899:1919   */\n  sub\n    /* \"#utility.yul\":1895:1896   */\n  0x00\n    /* \"#utility.yul\":1884:1893   */\n  dup4\n    /* \"#utility.yul\":1880:1897   */\n  add\n    /* \"#utility.yul\":1873:1920   */\n  mstore\n    /* \"#utility.yul\":1937:2015   */\n  tag_45\n    /* \"#utility.yul\":2010:2014   */\n  dup2\n    /* \"#utility.yul\":2001:2007   */\n  dup5\n    /* \"#utility.yul\":1937:2015   */\n  tag_35\n  jump\t// in\ntag_45:\n    /* \"#utility.yul\":1929:2015   */\n  swap1\n  pop\n    /* \"#utility.yul\":1709:2022   */\n  swap3\n  swap2\n  pop\n  pop\n  jump\t// out\n    /* \"#utility.yul\":2028:2157   */\ntag_15:\n    /* \"#utility.yul\":2062:2068   */\n  0x00\n    /* \"#utility.yul\":2089:2109   */\n  tag_47\n  tag_48\n  jump\t// in\ntag_47:\n    /* \"#utility.yul\":2079:2109   */\n  swap1\n  pop\n    /* \"#utility.yul\":2118:2151   */\n  tag_49\n    /* \"#utility.yul\":2146:2150   */\n  dup3\n    /* \"#utility.yul\":2138:2144   */\n  dup3\n    /* \"#utility.yul\":2118:2151   */\n  tag_50\n  jump\t// in\ntag_49:\n    /* \"#utility.yul\":2028:2157   */\n  swap2\n  swap1\n  pop\n  jump\t// out\n    /* \"#utility.yul\":2163:2238   */\ntag_48:\n    /* \"#utility.yul\":2196:2202   */\n  0x00\n    /* \"#utility.yul\":2229:2231   */\n  0x40\n    /* \"#utility.yul\":2223:2232   */\n  mload\n    /* \"#utility.yul\":2213:2232   */\n  swap1\n  pop\n    /* \"#utility.yul\":2163:2238   */\n  swap1\n  jump\t// out\n    /* \"#utility.yul\":2244:2552   */\ntag_14:\n    /* \"#utility.yul\":2306:2310   */\n  0x00\n    /* \"#utility.yul\":2396:2414   */\n  0xffffffffffffffff\n    /* \"#utility.yul\":2388:2394   */\n  dup3\n    /* \"#utility.yul\":2385:2415   */\n  gt\n    /* \"#utility.yul\":2382:2438   */\n  iszero\n  tag_53\n  jumpi\n    /* \"#utility.yul\":2418:2436   */\n  tag_54\n  tag_55\n  jump\t// in\ntag_54:\n    /* \"#utility.yul\":2382:2438   */\ntag_53:\n    /* \"#utility.yul\":2456:2485   */\n  tag_56\n    /* \"#utility.yul\":2478:2484   */\n  dup3\n    /* \"#utility.yul\":2456:2485   */\n  tag_43\n  jump\t// in\ntag_56:\n    /* \"#utility.yul\":2448:2485   */\n  swap1\n  pop\n    /* \"#utility.yul\":2540:2544   */\n  0x20\n    /* \"#utility.yul\":2534:2538   */\n  dup2\n    /* \"#utility.yul\":2530:2545   */\n  add\n    /* \"#utility.yul\":2522:2545   */\n  swap1\n  pop\n    /* \"#utility.yul\":2244:2552   */\n  swap2\n  swap1\n  pop\n  jump\t// out\n    /* \"#utility.yul\":2558:2657   */\ntag_38:\n    /* \"#utility.yul\":2610:2616   */\n  0x00\n    /* \"#utility.yul\":2644:2649   */\n  dup2\n    /* \"#utility.yul\":2638:2650   */\n  mload\n    /* \"#utility.yul\":2628:2650   */\n  swap1\n  pop\n    /* \"#utility.yul\":2558:2657   */\n  swap2\n  swap1\n  pop\n  jump\t// out\n    /* \"#utility.yul\":2663:2832   */\ntag_40:\n    /* \"#utility.yul\":2747:2758   */\n  0x00\n    /* \"#utility.yul\":2781:2787   */\n  dup3\n    /* \"#utility.yul\":2776:2779   */\n  dup3\n    /* \"#utility.yul\":2769:2788   */\n  mstore\n    /* \"#utility.yul\":2821:2825   */\n  0x20\n    /* \"#utility.yul\":2816:2819   */\n  dup3\n    /* \"#utility.yul\":2812:2826   */\n  add\n    /* \"#utility.yul\":2797:2826   */\n  swap1\n  pop\n    /* \"#utility.yul\":2663:2832   */\n  swap3\n  swap2\n  pop\n  pop\n  jump\t// out\n    /* \"#utility.yul\":2838:3145   */\ntag_20:\n    /* \"#utility.yul\":2906:2907   */\n  0x00\n    /* \"#utility.yul\":2916:3029   */\ntag_60:\n    /* \"#utility.yul\":2930:2936   */\n  dup4\n    /* \"#utility.yul\":2927:2928   */\n  dup2\n    /* \"#utility.yul\":2924:2937   */\n  lt\n    /* \"#utility.yul\":2916:3029   */\n  iszero\n  tag_62\n  jumpi\n    /* \"#utility.yul\":3015:3016   */\n  dup1\n    /* \"#utility.yul\":3010:3013   */\n  dup3\n    /* \"#utility.yul\":3006:3017   */\n  add\n    /* \"#utility.yul\":3000:3018   */\n  mload\n    /* \"#utility.yul\":2996:2997   */\n  dup2\n    /* \"#utility.yul\":2991:2994   */\n  dup5\n    /* \"#utility.yul\":2987:2998   */\n  add\n    /* \"#utility.yul\":2980:3019   */\n  mstore\n    /* \"#utility.yul\":2952:2954   */\n  0x20\n    /* \"#utility.yul\":2949:2950   */\n  dup2\n    /* \"#utility.yul\":2945:2955   */\n  add\n    /* \"#utility.yul\":2940:2955   */\n  swap1\n  pop\n    /* \"#utility.yul\":2916:3029   */\n  jump(tag_60)\ntag_62:\n    /* \"#utility.yul\":3047:3053   */\n  dup4\n    /* \"#utility.yul\":3044:3045   */\n  dup2\n    /* \"#utility.yul\":3041:3054   */\n  gt\n    /* \"#utility.yul\":3038:3139   */\n  iszero\n  tag_63\n  jumpi\n    /* \"#utility.yul\":3127:3128   */\n  0x00\n    /* \"#utility.yul\":3118:3124   */\n  dup5\n    /* \"#utility.yul\":3113:3116   */\n  dup5\n    /* \"#utility.yul\":3109:3125   */\n  add\n    /* \"#utility.yul\":3102:3129   */\n  mstore\n    /* \"#utility.yul\":3038:3139   */\ntag_63:\n    /* \"#utility.yul\":2887:3145   */\n  pop\n    /* \"#utility.yul\":2838:3145   */\n  pop\n  pop\n  pop\n  jump\t// out\n    /* \"#utility.yul\":3151:3432   */\ntag_50:\n    /* \"#utility.yul\":3234:3261   */\n  tag_65\n    /* \"#utility.yul\":3256:3260   */\n  dup3\n    /* \"#utility.yul\":3234:3261   */\n  tag_43\n  jump\t// in\ntag_65:\n    /* \"#utility.yul\":3226:3232   */\n  dup2\n    /* \"#utility.yul\":3222:3262   */\n  add\n    /* \"#utility.yul\":3364:3370   */\n  dup2\n    /* \"#utility.yul\":3352:3362   */\n  dup2\n    /* \"#utility.yul\":3349:3371   */\n  lt\n    /* \"#utility.yul\":3328:3346   */\n  0xffffffffffffffff\n    /* \"#utility.yul\":3316:3326   */\n  dup3\n    /* \"#utility.yul\":3313:3347   */\n  gt\n    /* \"#utility.yul\":3310:3372   */\n  or\n    /* \"#utility.yul\":3307:3395   */\n  iszero\n  tag_66\n  jumpi\n    /* \"#utility.yul\":3375:3393   */\n  tag_67\n  tag_55\n  jump\t// in\ntag_67:\n    /* \"#utility.yul\":3307:3395   */\ntag_66:\n    /* \"#utility.yul\":3415:3425   */\n  dup1\n    /* \"#utility.yul\":3411:3413   */\n  0x40\n    /* \"#utility.yul\":3404:3426   */\n  mstore\n    /* \"#utility.yul\":3194:3432   */\n  pop\n    /* \"#utility.yul\":3151:3432   */\n  pop\n  pop\n  jump\t// out\n    /* \"#utility.yul\":3438:3618   */\ntag_55:\n    /* \"#utility.yul\":3486:3563   */\n  0x4e487b7100000000000000000000000000000000000000000000000000000000\n    /* \"#utility.yul\":3483:3484   */\n  0x00\n    /* \"#utility.yul\":3476:3564   */\n  mstore\n    /* \"#utility.yul\":3583:3587   */\n  0x41\n    /* \"#utility.yul\":3580:3581   */\n  0x04\n    /* \"#utility.yul\":3573:3588   */\n  mstore\n    /* \"#utility.yul\":3607:3611   */\n  0x24\n    /* \"#utility.yul\":3604:3605   */\n  0x00\n    /* \"#utility.yul\":3597:3612   */\n  revert\n    /* \"#utility.yul\":3624:3741   */\ntag_25:\n    /* \"#utility.yul\":3733:3734   */\n  0x00\n    /* \"#utility.yul\":3730:3731   */\n  dup1\n    /* \"#utility.yul\":3723:3735   */\n  revert\n    /* \"#utility.yul\":3747:3864   */\ntag_18:\n    /* \"#utility.yul\":3856:3857   */\n  0x00\n    /* \"#utility.yul\":3853:3854   */\n  dup1\n    /* \"#utility.yul\":3846:3858   */\n  revert\n    /* \"#utility.yul\":3870:3987   */\ntag_33:\n    /* \"#utility.yul\":3979:3980   */\n  0x00\n    /* \"#utility.yul\":3976:3977   */\n  dup1\n    /* \"#utility.yul\":3969:3981   */\n  revert\n    /* \"#utility.yul\":3993:4110   */\ntag_30:\n    /* \"#utility.yul\":4102:4103   */\n  0x00\n    /* \"#utility.yul\":4099:4100   */\n  dup1\n    /* \"#utility.yul\":4092:4104   */\n  revert\n    /* \"#utility.yul\":4116:4218   */\ntag_43:\n    /* \"#utility.yul\":4157:4163   */\n  0x00\n    /* \"#utility.yul\":4208:4210   */\n  0x1f\n    /* \"#utility.yul\":4204:4211   */\n  not\n    /* \"#utility.yul\":4199:4201   */\n  0x1f\n    /* \"#utility.yul\":4192:4197   */\n  dup4\n    /* \"#utility.yul\":4188:4202   */\n  add\n    /* \"#utility.yul\":4184:4212   */\n  and\n    /* \"#utility.yul\":4174:4212   */\n  swap1\n  pop\n    /* \"#utility.yul\":4116:4218   */\n  swap2\n  swap1\n  pop\n  jump\t// out\n    /* \"contracts/IfElse.sol\":64:831  contract IfElse {... */\ntag_8:\n  dataSize(sub_0)\n  dup1\n  dataOffset(sub_0)\n  0x00\n  codecopy\n  0x00\n  return\nstop\n\nsub_0: assembly {\n        /* \"contracts/IfElse.sol\":64:831  contract IfElse {... */\n      mstore(0x40, 0x80)\n      callvalue\n      dup1\n      iszero\n      tag_1\n      jumpi\n      0x00\n      dup1\n      revert\n    tag_1:\n      pop\n      jumpi(tag_2, lt(calldatasize, 0x04))\n      shr(0xe0, calldataload(0x00))\n      dup1\n      0x3a7d280c\n      eq\n      tag_3\n      jumpi\n      dup1\n      0xcccc188a\n      eq\n      tag_4\n      jumpi\n    tag_2:\n      0x00\n      dup1\n      revert\n        /* \"contracts/IfElse.sol\":238:522  function login(string memory _password) public view returns(bool){... */\n    tag_3:\n      tag_5\n      0x04\n      dup1\n      calldatasize\n      sub\n      dup2\n      add\n      swap1\n      tag_6\n      swap2\n      swap1\n      tag_7\n      jump\t// in\n    tag_6:\n      tag_8\n      jump\t// in\n    tag_5:\n      mload(0x40)\n      tag_9\n      swap2\n      swap1\n      tag_10\n      jump\t// in\n    tag_9:\n      mload(0x40)\n      dup1\n      swap2\n      sub\n      swap1\n      return\n        /* \"contracts/IfElse.sol\":528:824  function loginlogin(string memory _password) public view returns(uint256){... */\n    tag_4:\n      tag_11\n      0x04\n      dup1\n      calldatasize\n      sub\n      dup2\n      add\n      swap1\n      tag_12\n      swap2\n      swap1\n      tag_7\n      jump\t// in\n    tag_12:\n      tag_13\n      jump\t// in\n    tag_11:\n      mload(0x40)\n      tag_14\n      swap2\n      swap1\n      tag_15\n      jump\t// in\n    tag_14:\n      mload(0x40)\n      dup1\n      swap2\n      sub\n      swap1\n      return\n        /* \"contracts/IfElse.sol\":238:522  function login(string memory _password) public view returns(bool){... */\n    tag_8:\n        /* \"contracts/IfElse.sol\":298:302  bool */\n      0x00\n        /* \"contracts/IfElse.sol\":355:364  _password */\n      dup2\n        /* \"contracts/IfElse.sol\":344:365  abi.encode(_password) */\n      add(0x20, mload(0x40))\n      tag_17\n      swap2\n      swap1\n      tag_18\n      jump\t// in\n    tag_17:\n      mload(0x40)\n      0x20\n      dup2\n      dup4\n      sub\n      sub\n      dup2\n      mstore\n      swap1\n      0x40\n      mstore\n        /* \"contracts/IfElse.sol\":334:366  keccak256(abi.encode(_password)) */\n      dup1\n      mload\n      swap1\n      0x20\n      add\n      keccak256\n        /* \"contracts/IfElse.sol\":316:330  hashedPassword */\n      sload(0x00)\n        /* \"contracts/IfElse.sol\":316:366  hashedPassword == keccak256(abi.encode(_password)) */\n      eq\n        /* \"contracts/IfElse.sol\":313:446  if(hashedPassword == keccak256(abi.encode(_password))){... */\n      iszero\n      tag_19\n      jumpi\n        /* \"contracts/IfElse.sol\":388:392  true */\n      0x01\n        /* \"contracts/IfElse.sol\":381:392  return true */\n      swap1\n      pop\n      jump(tag_16)\n        /* \"contracts/IfElse.sol\":313:446  if(hashedPassword == keccak256(abi.encode(_password))){... */\n    tag_19:\n        /* \"contracts/IfElse.sol\":430:435  false */\n      0x00\n        /* \"contracts/IfElse.sol\":423:435  return false */\n      swap1\n      pop\n        /* \"contracts/IfElse.sol\":238:522  function login(string memory _password) public view returns(bool){... */\n    tag_16:\n      swap2\n      swap1\n      pop\n      jump\t// out\n        /* \"contracts/IfElse.sol\":528:824  function loginlogin(string memory _password) public view returns(uint256){... */\n    tag_13:\n        /* \"contracts/IfElse.sol\":593:600  uint256 */\n      0x00\n        /* \"contracts/IfElse.sol\":653:662  _password */\n      dup2\n        /* \"contracts/IfElse.sol\":642:663  abi.encode(_password) */\n      add(0x20, mload(0x40))\n      tag_22\n      swap2\n      swap1\n      tag_18\n      jump\t// in\n    tag_22:\n      mload(0x40)\n      0x20\n      dup2\n      dup4\n      sub\n      sub\n      dup2\n      mstore\n      swap1\n      0x40\n      mstore\n        /* \"contracts/IfElse.sol\":632:664  keccak256(abi.encode(_password)) */\n      dup1\n      mload\n      swap1\n      0x20\n      add\n      keccak256\n        /* \"contracts/IfElse.sol\":614:628  hashedPassword */\n      sload(0x00)\n        /* \"contracts/IfElse.sol\":614:664  hashedPassword == keccak256(abi.encode(_password)) */\n      eq\n        /* \"contracts/IfElse.sol\":611:737  if(hashedPassword == keccak256(abi.encode(_password))){... */\n      iszero\n      tag_23\n      jumpi\n        /* \"contracts/IfElse.sol\":686:687  1 */\n      0x01\n        /* \"contracts/IfElse.sol\":679:687  return 1 */\n      swap1\n      pop\n      jump(tag_21)\n        /* \"contracts/IfElse.sol\":611:737  if(hashedPassword == keccak256(abi.encode(_password))){... */\n    tag_23:\n        /* \"contracts/IfElse.sol\":725:726  0 */\n      0x00\n        /* \"contracts/IfElse.sol\":718:726  return 0 */\n      swap1\n      pop\n        /* \"contracts/IfElse.sol\":528:824  function loginlogin(string memory _password) public view returns(uint256){... */\n    tag_21:\n      swap2\n      swap1\n      pop\n      jump\t// out\n        /* \"#utility.yul\":7:419   */\n    tag_26:\n        /* \"#utility.yul\":85:90   */\n      0x00\n        /* \"#utility.yul\":110:176   */\n      tag_28\n        /* \"#utility.yul\":126:175   */\n      tag_29\n        /* \"#utility.yul\":168:174   */\n      dup5\n        /* \"#utility.yul\":126:175   */\n      tag_30\n      jump\t// in\n    tag_29:\n        /* \"#utility.yul\":110:176   */\n      tag_31\n      jump\t// in\n    tag_28:\n        /* \"#utility.yul\":101:176   */\n      swap1\n      pop\n        /* \"#utility.yul\":199:205   */\n      dup3\n        /* \"#utility.yul\":192:197   */\n      dup2\n        /* \"#utility.yul\":185:206   */\n      mstore\n        /* \"#utility.yul\":237:241   */\n      0x20\n        /* \"#utility.yul\":230:235   */\n      dup2\n        /* \"#utility.yul\":226:242   */\n      add\n        /* \"#utility.yul\":275:278   */\n      dup5\n        /* \"#utility.yul\":266:272   */\n      dup5\n        /* \"#utility.yul\":261:264   */\n      dup5\n        /* \"#utility.yul\":257:273   */\n      add\n        /* \"#utility.yul\":254:279   */\n      gt\n        /* \"#utility.yul\":251:363   */\n      iszero\n      tag_32\n      jumpi\n        /* \"#utility.yul\":282:361   */\n      tag_33\n      tag_34\n      jump\t// in\n    tag_33:\n        /* \"#utility.yul\":251:363   */\n    tag_32:\n        /* \"#utility.yul\":372:413   */\n      tag_35\n        /* \"#utility.yul\":406:412   */\n      dup5\n        /* \"#utility.yul\":401:404   */\n      dup3\n        /* \"#utility.yul\":396:399   */\n      dup6\n        /* \"#utility.yul\":372:413   */\n      tag_36\n      jump\t// in\n    tag_35:\n        /* \"#utility.yul\":91:419   */\n      pop\n        /* \"#utility.yul\":7:419   */\n      swap4\n      swap3\n      pop\n      pop\n      pop\n      jump\t// out\n        /* \"#utility.yul\":439:779   */\n    tag_37:\n        /* \"#utility.yul\":495:500   */\n      0x00\n        /* \"#utility.yul\":544:547   */\n      dup3\n        /* \"#utility.yul\":537:541   */\n      0x1f\n        /* \"#utility.yul\":529:535   */\n      dup4\n        /* \"#utility.yul\":525:542   */\n      add\n        /* \"#utility.yul\":521:548   */\n      slt\n        /* \"#utility.yul\":511:633   */\n      tag_39\n      jumpi\n        /* \"#utility.yul\":552:631   */\n      tag_40\n      tag_41\n      jump\t// in\n    tag_40:\n        /* \"#utility.yul\":511:633   */\n    tag_39:\n        /* \"#utility.yul\":669:675   */\n      dup2\n        /* \"#utility.yul\":656:676   */\n      calldataload\n        /* \"#utility.yul\":694:773   */\n      tag_42\n        /* \"#utility.yul\":769:772   */\n      dup5\n        /* \"#utility.yul\":761:767   */\n      dup3\n        /* \"#utility.yul\":754:758   */\n      0x20\n        /* \"#utility.yul\":746:752   */\n      dup7\n        /* \"#utility.yul\":742:759   */\n      add\n        /* \"#utility.yul\":694:773   */\n      tag_26\n      jump\t// in\n    tag_42:\n        /* \"#utility.yul\":685:773   */\n      swap2\n      pop\n        /* \"#utility.yul\":501:779   */\n      pop\n        /* \"#utility.yul\":439:779   */\n      swap3\n      swap2\n      pop\n      pop\n      jump\t// out\n        /* \"#utility.yul\":785:1294   */\n    tag_7:\n        /* \"#utility.yul\":854:860   */\n      0x00\n        /* \"#utility.yul\":903:905   */\n      0x20\n        /* \"#utility.yul\":891:900   */\n      dup3\n        /* \"#utility.yul\":882:889   */\n      dup5\n        /* \"#utility.yul\":878:901   */\n      sub\n        /* \"#utility.yul\":874:906   */\n      slt\n        /* \"#utility.yul\":871:990   */\n      iszero\n      tag_44\n      jumpi\n        /* \"#utility.yul\":909:988   */\n      tag_45\n      tag_46\n      jump\t// in\n    tag_45:\n        /* \"#utility.yul\":871:990   */\n    tag_44:\n        /* \"#utility.yul\":1057:1058   */\n      0x00\n        /* \"#utility.yul\":1046:1055   */\n      dup3\n        /* \"#utility.yul\":1042:1059   */\n      add\n        /* \"#utility.yul\":1029:1060   */\n      calldataload\n        /* \"#utility.yul\":1087:1105   */\n      0xffffffffffffffff\n        /* \"#utility.yul\":1079:1085   */\n      dup2\n        /* \"#utility.yul\":1076:1106   */\n      gt\n        /* \"#utility.yul\":1073:1190   */\n      iszero\n      tag_47\n      jumpi\n        /* \"#utility.yul\":1109:1188   */\n      tag_48\n      tag_49\n      jump\t// in\n    tag_48:\n        /* \"#utility.yul\":1073:1190   */\n    tag_47:\n        /* \"#utility.yul\":1214:1277   */\n      tag_50\n        /* \"#utility.yul\":1269:1276   */\n      dup5\n        /* \"#utility.yul\":1260:1266   */\n      dup3\n        /* \"#utility.yul\":1249:1258   */\n      dup6\n        /* \"#utility.yul\":1245:1267   */\n      add\n        /* \"#utility.yul\":1214:1277   */\n      tag_37\n      jump\t// in\n    tag_50:\n        /* \"#utility.yul\":1204:1277   */\n      swap2\n      pop\n        /* \"#utility.yul\":1000:1287   */\n      pop\n        /* \"#utility.yul\":785:1294   */\n      swap3\n      swap2\n      pop\n      pop\n      jump\t// out\n        /* \"#utility.yul\":1300:1409   */\n    tag_51:\n        /* \"#utility.yul\":1381:1402   */\n      tag_53\n        /* \"#utility.yul\":1396:1401   */\n      dup2\n        /* \"#utility.yul\":1381:1402   */\n      tag_54\n      jump\t// in\n    tag_53:\n        /* \"#utility.yul\":1376:1379   */\n      dup3\n        /* \"#utility.yul\":1369:1403   */\n      mstore\n        /* \"#utility.yul\":1300:1409   */\n      pop\n      pop\n      jump\t// out\n        /* \"#utility.yul\":1415:1779   */\n    tag_55:\n        /* \"#utility.yul\":1503:1506   */\n      0x00\n        /* \"#utility.yul\":1531:1570   */\n      tag_57\n        /* \"#utility.yul\":1564:1569   */\n      dup3\n        /* \"#utility.yul\":1531:1570   */\n      tag_58\n      jump\t// in\n    tag_57:\n        /* \"#utility.yul\":1586:1657   */\n      tag_59\n        /* \"#utility.yul\":1650:1656   */\n      dup2\n        /* \"#utility.yul\":1645:1648   */\n      dup6\n        /* \"#utility.yul\":1586:1657   */\n      tag_60\n      jump\t// in\n    tag_59:\n        /* \"#utility.yul\":1579:1657   */\n      swap4\n      pop\n        /* \"#utility.yul\":1666:1718   */\n      tag_61\n        /* \"#utility.yul\":1711:1717   */\n      dup2\n        /* \"#utility.yul\":1706:1709   */\n      dup6\n        /* \"#utility.yul\":1699:1703   */\n      0x20\n        /* \"#utility.yul\":1692:1697   */\n      dup7\n        /* \"#utility.yul\":1688:1704   */\n      add\n        /* \"#utility.yul\":1666:1718   */\n      tag_62\n      jump\t// in\n    tag_61:\n        /* \"#utility.yul\":1743:1772   */\n      tag_63\n        /* \"#utility.yul\":1765:1771   */\n      dup2\n        /* \"#utility.yul\":1743:1772   */\n      tag_64\n      jump\t// in\n    tag_63:\n        /* \"#utility.yul\":1738:1741   */\n      dup5\n        /* \"#utility.yul\":1734:1773   */\n      add\n        /* \"#utility.yul\":1727:1773   */\n      swap2\n      pop\n        /* \"#utility.yul\":1507:1779   */\n      pop\n        /* \"#utility.yul\":1415:1779   */\n      swap3\n      swap2\n      pop\n      pop\n      jump\t// out\n        /* \"#utility.yul\":1785:1903   */\n    tag_65:\n        /* \"#utility.yul\":1872:1896   */\n      tag_67\n        /* \"#utility.yul\":1890:1895   */\n      dup2\n        /* \"#utility.yul\":1872:1896   */\n      tag_68\n      jump\t// in\n    tag_67:\n        /* \"#utility.yul\":1867:1870   */\n      dup3\n        /* \"#utility.yul\":1860:1897   */\n      mstore\n        /* \"#utility.yul\":1785:1903   */\n      pop\n      pop\n      jump\t// out\n        /* \"#utility.yul\":1909:2119   */\n    tag_10:\n        /* \"#utility.yul\":1996:2000   */\n      0x00\n        /* \"#utility.yul\":2034:2036   */\n      0x20\n        /* \"#utility.yul\":2023:2032   */\n      dup3\n        /* \"#utility.yul\":2019:2037   */\n      add\n        /* \"#utility.yul\":2011:2037   */\n      swap1\n      pop\n        /* \"#utility.yul\":2047:2112   */\n      tag_70\n        /* \"#utility.yul\":2109:2110   */\n      0x00\n        /* \"#utility.yul\":2098:2107   */\n      dup4\n        /* \"#utility.yul\":2094:2111   */\n      add\n        /* \"#utility.yul\":2085:2091   */\n      dup5\n        /* \"#utility.yul\":2047:2112   */\n      tag_51\n      jump\t// in\n    tag_70:\n        /* \"#utility.yul\":1909:2119   */\n      swap3\n      swap2\n      pop\n      pop\n      jump\t// out\n        /* \"#utility.yul\":2125:2438   */\n    tag_18:\n        /* \"#utility.yul\":2238:2242   */\n      0x00\n        /* \"#utility.yul\":2276:2278   */\n      0x20\n        /* \"#utility.yul\":2265:2274   */\n      dup3\n        /* \"#utility.yul\":2261:2279   */\n      add\n        /* \"#utility.yul\":2253:2279   */\n      swap1\n      pop\n        /* \"#utility.yul\":2325:2334   */\n      dup2\n        /* \"#utility.yul\":2319:2323   */\n      dup2\n        /* \"#utility.yul\":2315:2335   */\n      sub\n        /* \"#utility.yul\":2311:2312   */\n      0x00\n        /* \"#utility.yul\":2300:2309   */\n      dup4\n        /* \"#utility.yul\":2296:2313   */\n      add\n        /* \"#utility.yul\":2289:2336   */\n      mstore\n        /* \"#utility.yul\":2353:2431   */\n      tag_72\n        /* \"#utility.yul\":2426:2430   */\n      dup2\n        /* \"#utility.yul\":2417:2423   */\n      dup5\n        /* \"#utility.yul\":2353:2431   */\n      tag_55\n      jump\t// in\n    tag_72:\n        /* \"#utility.yul\":2345:2431   */\n      swap1\n      pop\n        /* \"#utility.yul\":2125:2438   */\n      swap3\n      swap2\n      pop\n      pop\n      jump\t// out\n        /* \"#utility.yul\":2444:2666   */\n    tag_15:\n        /* \"#utility.yul\":2537:2541   */\n      0x00\n        /* \"#utility.yul\":2575:2577   */\n      0x20\n        /* \"#utility.yul\":2564:2573   */\n      dup3\n        /* \"#utility.yul\":2560:2578   */\n      add\n        /* \"#utility.yul\":2552:2578   */\n      swap1\n      pop\n        /* \"#utility.yul\":2588:2659   */\n      tag_74\n        /* \"#utility.yul\":2656:2657   */\n      0x00\n        /* \"#utility.yul\":2645:2654   */\n      dup4\n        /* \"#utility.yul\":2641:2658   */\n      add\n        /* \"#utility.yul\":2632:2638   */\n      dup5\n        /* \"#utility.yul\":2588:2659   */\n      tag_65\n      jump\t// in\n    tag_74:\n        /* \"#utility.yul\":2444:2666   */\n      swap3\n      swap2\n      pop\n      pop\n      jump\t// out\n        /* \"#utility.yul\":2672:2801   */\n    tag_31:\n        /* \"#utility.yul\":2706:2712   */\n      0x00\n        /* \"#utility.yul\":2733:2753   */\n      tag_76\n      tag_77\n      jump\t// in\n    tag_76:\n        /* \"#utility.yul\":2723:2753   */\n      swap1\n      pop\n        /* \"#utility.yul\":2762:2795   */\n      tag_78\n        /* \"#utility.yul\":2790:2794   */\n      dup3\n        /* \"#utility.yul\":2782:2788   */\n      dup3\n        /* \"#utility.yul\":2762:2795   */\n      tag_79\n      jump\t// in\n    tag_78:\n        /* \"#utility.yul\":2672:2801   */\n      swap2\n      swap1\n      pop\n      jump\t// out\n        /* \"#utility.yul\":2807:2882   */\n    tag_77:\n        /* \"#utility.yul\":2840:2846   */\n      0x00\n        /* \"#utility.yul\":2873:2875   */\n      0x40\n        /* \"#utility.yul\":2867:2876   */\n      mload\n        /* \"#utility.yul\":2857:2876   */\n      swap1\n      pop\n        /* \"#utility.yul\":2807:2882   */\n      swap1\n      jump\t// out\n        /* \"#utility.yul\":2888:3196   */\n    tag_30:\n        /* \"#utility.yul\":2950:2954   */\n      0x00\n        /* \"#utility.yul\":3040:3058   */\n      0xffffffffffffffff\n        /* \"#utility.yul\":3032:3038   */\n      dup3\n        /* \"#utility.yul\":3029:3059   */\n      gt\n        /* \"#utility.yul\":3026:3082   */\n      iszero\n      tag_82\n      jumpi\n        /* \"#utility.yul\":3062:3080   */\n      tag_83\n      tag_84\n      jump\t// in\n    tag_83:\n        /* \"#utility.yul\":3026:3082   */\n    tag_82:\n        /* \"#utility.yul\":3100:3129   */\n      tag_85\n        /* \"#utility.yul\":3122:3128   */\n      dup3\n        /* \"#utility.yul\":3100:3129   */\n      tag_64\n      jump\t// in\n    tag_85:\n        /* \"#utility.yul\":3092:3129   */\n      swap1\n      pop\n        /* \"#utility.yul\":3184:3188   */\n      0x20\n        /* \"#utility.yul\":3178:3182   */\n      dup2\n        /* \"#utility.yul\":3174:3189   */\n      add\n        /* \"#utility.yul\":3166:3189   */\n      swap1\n      pop\n        /* \"#utility.yul\":2888:3196   */\n      swap2\n      swap1\n      pop\n      jump\t// out\n        /* \"#utility.yul\":3202:3301   */\n    tag_58:\n        /* \"#utility.yul\":3254:3260   */\n      0x00\n        /* \"#utility.yul\":3288:3293   */\n      dup2\n        /* \"#utility.yul\":3282:3294   */\n      mload\n        /* \"#utility.yul\":3272:3294   */\n      swap1\n      pop\n        /* \"#utility.yul\":3202:3301   */\n      swap2\n      swap1\n      pop\n      jump\t// out\n        /* \"#utility.yul\":3307:3476   */\n    tag_60:\n        /* \"#utility.yul\":3391:3402   */\n      0x00\n        /* \"#utility.yul\":3425:3431   */\n      dup3\n        /* \"#utility.yul\":3420:3423   */\n      dup3\n        /* \"#utility.yul\":3413:3432   */\n      mstore\n        /* \"#utility.yul\":3465:3469   */\n      0x20\n        /* \"#utility.yul\":3460:3463   */\n      dup3\n        /* \"#utility.yul\":3456:3470   */\n      add\n        /* \"#utility.yul\":3441:3470   */\n      swap1\n      pop\n        /* \"#utility.yul\":3307:3476   */\n      swap3\n      swap2\n      pop\n      pop\n      jump\t// out\n        /* \"#utility.yul\":3482:3572   */\n    tag_54:\n        /* \"#utility.yul\":3516:3523   */\n      0x00\n        /* \"#utility.yul\":3559:3564   */\n      dup2\n        /* \"#utility.yul\":3552:3565   */\n      iszero\n        /* \"#utility.yul\":3545:3566   */\n      iszero\n        /* \"#utility.yul\":3534:3566   */\n      swap1\n      pop\n        /* \"#utility.yul\":3482:3572   */\n      swap2\n      swap1\n      pop\n      jump\t// out\n        /* \"#utility.yul\":3578:3655   */\n    tag_68:\n        /* \"#utility.yul\":3615:3622   */\n      0x00\n        /* \"#utility.yul\":3644:3649   */\n      dup2\n        /* \"#utility.yul\":3633:3649   */\n      swap1\n      pop\n        /* \"#utility.yul\":3578:3655   */\n      swap2\n      swap1\n      pop\n      jump\t// out\n        /* \"#utility.yul\":3661:3815   */\n    tag_36:\n        /* \"#utility.yul\":3745:3751   */\n      dup3\n        /* \"#utility.yul\":3740:3743   */\n      dup2\n        /* \"#utility.yul\":3735:3738   */\n      dup4\n        /* \"#utility.yul\":3722:3752   */\n      calldatacopy\n        /* \"#utility.yul\":3807:3808   */\n      0x00\n        /* \"#utility.yul\":3798:3804   */\n      dup4\n        /* \"#utility.yul\":3793:3796   */\n      dup4\n        /* \"#utility.yul\":3789:3805   */\n      add\n        /* \"#utility.yul\":3782:3809   */\n      mstore\n        /* \"#utility.yul\":3661:3815   */\n      pop\n      pop\n      pop\n      jump\t// out\n        /* \"#utility.yul\":3821:4128   */\n    tag_62:\n        /* \"#utility.yul\":3889:3890   */\n      0x00\n        /* \"#utility.yul\":3899:4012   */\n    tag_92:\n        /* \"#utility.yul\":3913:3919   */\n      dup4\n        /* \"#utility.yul\":3910:3911   */\n      dup2\n        /* \"#utility.yul\":3907:3920   */\n      lt\n        /* \"#utility.yul\":3899:4012   */\n      iszero\n      tag_94\n      jumpi\n        /* \"#utility.yul\":3998:3999   */\n      dup1\n        /* \"#utility.yul\":3993:3996   */\n      dup3\n        /* \"#utility.yul\":3989:4000   */\n      add\n        /* \"#utility.yul\":3983:4001   */\n      mload\n        /* \"#utility.yul\":3979:3980   */\n      dup2\n        /* \"#utility.yul\":3974:3977   */\n      dup5\n        /* \"#utility.yul\":3970:3981   */\n      add\n        /* \"#utility.yul\":3963:4002   */\n      mstore\n        /* \"#utility.yul\":3935:3937   */\n      0x20\n        /* \"#utility.yul\":3932:3933   */\n      dup2\n        /* \"#utility.yul\":3928:3938   */\n      add\n        /* \"#utility.yul\":3923:3938   */\n      swap1\n      pop\n        /* \"#utility.yul\":3899:4012   */\n      jump(tag_92)\n    tag_94:\n        /* \"#utility.yul\":4030:4036   */\n      dup4\n        /* \"#utility.yul\":4027:4028   */\n      dup2\n        /* \"#utility.yul\":4024:4037   */\n      gt\n        /* \"#utility.yul\":4021:4122   */\n      iszero\n      tag_95\n      jumpi\n        /* \"#utility.yul\":4110:4111   */\n      0x00\n        /* \"#utility.yul\":4101:4107   */\n      dup5\n        /* \"#utility.yul\":4096:4099   */\n      dup5\n        /* \"#utility.yul\":4092:4108   */\n      add\n        /* \"#utility.yul\":4085:4112   */\n      mstore\n        /* \"#utility.yul\":4021:4122   */\n    tag_95:\n        /* \"#utility.yul\":3870:4128   */\n      pop\n        /* \"#utility.yul\":3821:4128   */\n      pop\n      pop\n      pop\n      jump\t// out\n        /* \"#utility.yul\":4134:4415   */\n    tag_79:\n        /* \"#utility.yul\":4217:4244   */\n      tag_97\n        /* \"#utility.yul\":4239:4243   */\n      dup3\n        /* \"#utility.yul\":4217:4244   */\n      tag_64\n      jump\t// in\n    tag_97:\n        /* \"#utility.yul\":4209:4215   */\n      dup2\n        /* \"#utility.yul\":4205:4245   */\n      add\n        /* \"#utility.yul\":4347:4353   */\n      dup2\n        /* \"#utility.yul\":4335:4345   */\n      dup2\n        /* \"#utility.yul\":4332:4354   */\n      lt\n        /* \"#utility.yul\":4311:4329   */\n      0xffffffffffffffff\n        /* \"#utility.yul\":4299:4309   */\n      dup3\n        /* \"#utility.yul\":4296:4330   */\n      gt\n        /* \"#utility.yul\":4293:4355   */\n      or\n        /* \"#utility.yul\":4290:4378   */\n      iszero\n      tag_98\n      jumpi\n        /* \"#utility.yul\":4358:4376   */\n      tag_99\n      tag_84\n      jump\t// in\n    tag_99:\n        /* \"#utility.yul\":4290:4378   */\n    tag_98:\n        /* \"#utility.yul\":4398:4408   */\n      dup1\n        /* \"#utility.yul\":4394:4396   */\n      0x40\n        /* \"#utility.yul\":4387:4409   */\n      mstore\n        /* \"#utility.yul\":4177:4415   */\n      pop\n        /* \"#utility.yul\":4134:4415   */\n      pop\n      pop\n      jump\t// out\n        /* \"#utility.yul\":4421:4601   */\n    tag_84:\n        /* \"#utility.yul\":4469:4546   */\n      0x4e487b7100000000000000000000000000000000000000000000000000000000\n        /* \"#utility.yul\":4466:4467   */\n      0x00\n        /* \"#utility.yul\":4459:4547   */\n      mstore\n        /* \"#utility.yul\":4566:4570   */\n      0x41\n        /* \"#utility.yul\":4563:4564   */\n      0x04\n        /* \"#utility.yul\":4556:4571   */\n      mstore\n        /* \"#utility.yul\":4590:4594   */\n      0x24\n        /* \"#utility.yul\":4587:4588   */\n      0x00\n        /* \"#utility.yul\":4580:4595   */\n      revert\n        /* \"#utility.yul\":4607:4724   */\n    tag_41:\n        /* \"#utility.yul\":4716:4717   */\n      0x00\n        /* \"#utility.yul\":4713:4714   */\n      dup1\n        /* \"#utility.yul\":4706:4718   */\n      revert\n        /* \"#utility.yul\":4730:4847   */\n    tag_34:\n        /* \"#utility.yul\":4839:4840   */\n      0x00\n        /* \"#utility.yul\":4836:4837   */\n      dup1\n        /* \"#utility.yul\":4829:4841   */\n      revert\n        /* \"#utility.yul\":4853:4970   */\n    tag_49:\n        /* \"#utility.yul\":4962:4963   */\n      0x00\n        /* \"#utility.yul\":4959:4960   */\n      dup1\n        /* \"#utility.yul\":4952:4964   */\n      revert\n        /* \"#utility.yul\":4976:5093   */\n    tag_46:\n        /* \"#utility.yul\":5085:5086   */\n      0x00\n        /* \"#utility.yul\":5082:5083   */\n      dup1\n        /* \"#utility.yul\":5075:5087   */\n      revert\n        /* \"#utility.yul\":5099:5201   */\n    tag_64:\n        /* \"#utility.yul\":5140:5146   */\n      0x00\n        /* \"#utility.yul\":5191:5193   */\n      0x1f\n        /* \"#utility.yul\":5187:5194   */\n      not\n        /* \"#utility.yul\":5182:5184   */\n      0x1f\n        /* \"#utility.yul\":5175:5180   */\n      dup4\n        /* \"#utility.yul\":5171:5185   */\n      add\n        /* \"#utility.yul\":5167:5195   */\n      and\n        /* \"#utility.yul\":5157:5195   */\n      swap1\n      pop\n        /* \"#utility.yul\":5099:5201   */\n      swap2\n      swap1\n      pop\n      jump\t// out\n\n    auxdata: 0xa264697066735822122037b61694a35e220fee6df7d40ed36d341715209bb37bf107a8636f19333a609d64736f6c63430008070033\n}\n",
				"bytecode": {
					"linkReferences": {},
					"object": "608060405234801561001057600080fd5b506040516106c43803806106c4833981810160405281019061003291906100d5565b806040516020016100439190610157565b60405160208183030381529060405280519060200120600081905550506102a3565b60006100786100738461019e565b610179565b90508281526020810184848401111561009457610093610283565b5b61009f8482856101eb565b509392505050565b600082601f8301126100bc576100bb61027e565b5b81516100cc848260208601610065565b91505092915050565b6000602082840312156100eb576100ea61028d565b5b600082015167ffffffffffffffff81111561010957610108610288565b5b610115848285016100a7565b91505092915050565b6000610129826101cf565b61013381856101da565b93506101438185602086016101eb565b61014c81610292565b840191505092915050565b60006020820190508181036000830152610171818461011e565b905092915050565b6000610183610194565b905061018f828261021e565b919050565b6000604051905090565b600067ffffffffffffffff8211156101b9576101b861024f565b5b6101c282610292565b9050602081019050919050565b600081519050919050565b600082825260208201905092915050565b60005b838110156102095780820151818401526020810190506101ee565b83811115610218576000848401525b50505050565b61022782610292565b810181811067ffffffffffffffff821117156102465761024561024f565b5b80604052505050565b7f4e487b7100000000000000000000000000000000000000000000000000000000600052604160045260246000fd5b600080fd5b600080fd5b600080fd5b600080fd5b6000601f19601f8301169050919050565b610412806102b26000396000f3fe608060405234801561001057600080fd5b50600436106100365760003560e01c80633a7d280c1461003b578063cccc188a1461006b575b600080fd5b61005560048036038101906100509190610195565b61009b565b6040516100629190610235565b60405180910390f35b61008560048036038101906100809190610195565b6100e0565b6040516100929190610272565b60405180910390f35b6000816040516020016100ae9190610250565b6040516020818303038152906040528051906020012060005414156100d657600190506100db565b600090505b919050565b6000816040516020016100f39190610250565b60405160208183030381529060405280519060200120600054141561011b5760019050610120565b600090505b919050565b6000610138610133846102b2565b61028d565b905082815260208101848484011115610154576101536103bc565b5b61015f848285610315565b509392505050565b600082601f83011261017c5761017b6103b7565b5b813561018c848260208601610125565b91505092915050565b6000602082840312156101ab576101aa6103c6565b5b600082013567ffffffffffffffff8111156101c9576101c86103c1565b5b6101d584828501610167565b91505092915050565b6101e7816102ff565b82525050565b60006101f8826102e3565b61020281856102ee565b9350610212818560208601610324565b61021b816103cb565b840191505092915050565b61022f8161030b565b82525050565b600060208201905061024a60008301846101de565b92915050565b6000602082019050818103600083015261026a81846101ed565b905092915050565b60006020820190506102876000830184610226565b92915050565b60006102976102a8565b90506102a38282610357565b919050565b6000604051905090565b600067ffffffffffffffff8211156102cd576102cc610388565b5b6102d6826103cb565b9050602081019050919050565b600081519050919050565b600082825260208201905092915050565b60008115159050919050565b6000819050919050565b82818337600083830152505050565b60005b83811015610342578082015181840152602081019050610327565b83811115610351576000848401525b50505050565b610360826103cb565b810181811067ffffffffffffffff8211171561037f5761037e610388565b5b80604052505050565b7f4e487b7100000000000000000000000000000000000000000000000000000000600052604160045260246000fd5b600080fd5b600080fd5b600080fd5b600080fd5b6000601f19601f830116905091905056fea264697066735822122037b61694a35e220fee6df7d40ed36d341715209bb37bf107a8636f19333a609d64736f6c63430008070033",
					"opcodes": "PUSH1 0x80 PUSH1 0x40 MSTORE CALLVALUE DUP1 ISZERO PUSH2 0x10 JUMPI PUSH1 0x0 DUP1 REVERT JUMPDEST POP PUSH1 0x40 MLOAD PUSH2 0x6C4 CODESIZE SUB DUP1 PUSH2 0x6C4 DUP4 CODECOPY DUP2 DUP2 ADD PUSH1 0x40 MSTORE DUP2 ADD SWAP1 PUSH2 0x32 SWAP2 SWAP1 PUSH2 0xD5 JUMP JUMPDEST DUP1 PUSH1 0x40 MLOAD PUSH1 0x20 ADD PUSH2 0x43 SWAP2 SWAP1 PUSH2 0x157 JUMP JUMPDEST PUSH1 0x40 MLOAD PUSH1 0x20 DUP2 DUP4 SUB SUB DUP2 MSTORE SWAP1 PUSH1 0x40 MSTORE DUP1 MLOAD SWAP1 PUSH1 0x20 ADD KECCAK256 PUSH1 0x0 DUP2 SWAP1 SSTORE POP POP PUSH2 0x2A3 JUMP JUMPDEST PUSH1 0x0 PUSH2 0x78 PUSH2 0x73 DUP5 PUSH2 0x19E JUMP JUMPDEST PUSH2 0x179 JUMP JUMPDEST SWAP1 POP DUP3 DUP2 MSTORE PUSH1 0x20 DUP2 ADD DUP5 DUP5 DUP5 ADD GT ISZERO PUSH2 0x94 JUMPI PUSH2 0x93 PUSH2 0x283 JUMP JUMPDEST JUMPDEST PUSH2 0x9F DUP5 DUP3 DUP6 PUSH2 0x1EB JUMP JUMPDEST POP SWAP4 SWAP3 POP POP POP JUMP JUMPDEST PUSH1 0x0 DUP3 PUSH1 0x1F DUP4 ADD SLT PUSH2 0xBC JUMPI PUSH2 0xBB PUSH2 0x27E JUMP JUMPDEST JUMPDEST DUP2 MLOAD PUSH2 0xCC DUP5 DUP3 PUSH1 0x20 DUP7 ADD PUSH2 0x65 JUMP JUMPDEST SWAP2 POP POP SWAP3 SWAP2 POP POP JUMP JUMPDEST PUSH1 0x0 PUSH1 0x20 DUP3 DUP5 SUB SLT ISZERO PUSH2 0xEB JUMPI PUSH2 0xEA PUSH2 0x28D JUMP JUMPDEST JUMPDEST PUSH1 0x0 DUP3 ADD MLOAD PUSH8 0xFFFFFFFFFFFFFFFF DUP2 GT ISZERO PUSH2 0x109 JUMPI PUSH2 0x108 PUSH2 0x288 JUMP JUMPDEST JUMPDEST PUSH2 0x115 DUP5 DUP3 DUP6 ADD PUSH2 0xA7 JUMP JUMPDEST SWAP2 POP POP SWAP3 SWAP2 POP POP JUMP JUMPDEST PUSH1 0x0 PUSH2 0x129 DUP3 PUSH2 0x1CF JUMP JUMPDEST PUSH2 0x133 DUP2 DUP6 PUSH2 0x1DA JUMP JUMPDEST SWAP4 POP PUSH2 0x143 DUP2 DUP6 PUSH1 0x20 DUP7 ADD PUSH2 0x1EB JUMP JUMPDEST PUSH2 0x14C DUP2 PUSH2 0x292 JUMP JUMPDEST DUP5 ADD SWAP2 POP POP SWAP3 SWAP2 POP POP JUMP JUMPDEST PUSH1 0x0 PUSH1 0x20 DUP3 ADD SWAP1 POP DUP2 DUP2 SUB PUSH1 0x0 DUP4 ADD MSTORE PUSH2 0x171 DUP2 DUP5 PUSH2 0x11E JUMP JUMPDEST SWAP1 POP SWAP3 SWAP2 POP POP JUMP JUMPDEST PUSH1 0x0 PUSH2 0x183 PUSH2 0x194 JUMP JUMPDEST SWAP1 POP PUSH2 0x18F DUP3 DUP3 PUSH2 0x21E JUMP JUMPDEST SWAP2 SWAP1 POP JUMP JUMPDEST PUSH1 0x0 PUSH1 0x40 MLOAD SWAP1 POP SWAP1 JUMP JUMPDEST PUSH1 0x0 PUSH8 0xFFFFFFFFFFFFFFFF DUP3 GT ISZERO PUSH2 0x1B9 JUMPI PUSH2 0x1B8 PUSH2 0x24F JUMP JUMPDEST JUMPDEST PUSH2 0x1C2 DUP3 PUSH2 0x292 JUMP JUMPDEST SWAP1 POP PUSH1 0x20 DUP2 ADD SWAP1 POP SWAP2 SWAP1 POP JUMP JUMPDEST PUSH1 0x0 DUP2 MLOAD SWAP1 POP SWAP2 SWAP1 POP JUMP JUMPDEST PUSH1 0x0 DUP3 DUP3 MSTORE PUSH1 0x20 DUP3 ADD SWAP1 POP SWAP3 SWAP2 POP POP JUMP JUMPDEST PUSH1 0x0 JUMPDEST DUP4 DUP2 LT ISZERO PUSH2 0x209 JUMPI DUP1 DUP3 ADD MLOAD DUP2 DUP5 ADD MSTORE PUSH1 0x20 DUP2 ADD SWAP1 POP PUSH2 0x1EE JUMP JUMPDEST DUP4 DUP2 GT ISZERO PUSH2 0x218 JUMPI PUSH1 0x0 DUP5 DUP5 ADD MSTORE JUMPDEST POP POP POP POP JUMP JUMPDEST PUSH2 0x227 DUP3 PUSH2 0x292 JUMP JUMPDEST DUP2 ADD DUP2 DUP2 LT PUSH8 0xFFFFFFFFFFFFFFFF DUP3 GT OR ISZERO PUSH2 0x246 JUMPI PUSH2 0x245 PUSH2 0x24F JUMP JUMPDEST JUMPDEST DUP1 PUSH1 0x40 MSTORE POP POP POP JUMP JUMPDEST PUSH32 0x4E487B7100000000000000000000000000000000000000000000000000000000 PUSH1 0x0 MSTORE PUSH1 0x41 PUSH1 0x4 MSTORE PUSH1 0x24 PUSH1 0x0 REVERT JUMPDEST PUSH1 0x0 DUP1 REVERT JUMPDEST PUSH1 0x0 DUP1 REVERT JUMPDEST PUSH1 0x0 DUP1 REVERT JUMPDEST PUSH1 0x0 DUP1 REVERT JUMPDEST PUSH1 0x0 PUSH1 0x1F NOT PUSH1 0x1F DUP4 ADD AND SWAP1 POP SWAP2 SWAP1 POP JUMP JUMPDEST PUSH2 0x412 DUP1 PUSH2 0x2B2 PUSH1 0x0 CODECOPY PUSH1 0x0 RETURN INVALID PUSH1 0x80 PUSH1 0x40 MSTORE CALLVALUE DUP1 ISZERO PUSH2 0x10 JUMPI PUSH1 0x0 DUP1 REVERT JUMPDEST POP PUSH1 0x4 CALLDATASIZE LT PUSH2 0x36 JUMPI PUSH1 0x0 CALLDATALOAD PUSH1 0xE0 SHR DUP1 PUSH4 0x3A7D280C EQ PUSH2 0x3B JUMPI DUP1 PUSH4 0xCCCC188A EQ PUSH2 0x6B JUMPI JUMPDEST PUSH1 0x0 DUP1 REVERT JUMPDEST PUSH2 0x55 PUSH1 0x4 DUP1 CALLDATASIZE SUB DUP2 ADD SWAP1 PUSH2 0x50 SWAP2 SWAP1 PUSH2 0x195 JUMP JUMPDEST PUSH2 0x9B JUMP JUMPDEST PUSH1 0x40 MLOAD PUSH2 0x62 SWAP2 SWAP1 PUSH2 0x235 JUMP JUMPDEST PUSH1 0x40 MLOAD DUP1 SWAP2 SUB SWAP1 RETURN JUMPDEST PUSH2 0x85 PUSH1 0x4 DUP1 CALLDATASIZE SUB DUP2 ADD SWAP1 PUSH2 0x80 SWAP2 SWAP1 PUSH2 0x195 JUMP JUMPDEST PUSH2 0xE0 JUMP JUMPDEST PUSH1 0x40 MLOAD PUSH2 0x92 SWAP2 SWAP1 PUSH2 0x272 JUMP JUMPDEST PUSH1 0x40 MLOAD DUP1 SWAP2 SUB SWAP1 RETURN JUMPDEST PUSH1 0x0 DUP2 PUSH1 0x40 MLOAD PUSH1 0x20 ADD PUSH2 0xAE SWAP2 SWAP1 PUSH2 0x250 JUMP JUMPDEST PUSH1 0x40 MLOAD PUSH1 0x20 DUP2 DUP4 SUB SUB DUP2 MSTORE SWAP1 PUSH1 0x40 MSTORE DUP1 MLOAD SWAP1 PUSH1 0x20 ADD KECCAK256 PUSH1 0x0 SLOAD EQ ISZERO PUSH2 0xD6 JUMPI PUSH1 0x1 SWAP1 POP PUSH2 0xDB JUMP JUMPDEST PUSH1 0x0 SWAP1 POP JUMPDEST SWAP2 SWAP1 POP JUMP JUMPDEST PUSH1 0x0 DUP2 PUSH1 0x40 MLOAD PUSH1 0x20 ADD PUSH2 0xF3 SWAP2 SWAP1 PUSH2 0x250 JUMP JUMPDEST PUSH1 0x40 MLOAD PUSH1 0x20 DUP2 DUP4 SUB SUB DUP2 MSTORE SWAP1 PUSH1 0x40 MSTORE DUP1 MLOAD SWAP1 PUSH1 0x20 ADD KECCAK256 PUSH1 0x0 SLOAD EQ ISZERO PUSH2 0x11B JUMPI PUSH1 0x1 SWAP1 POP PUSH2 0x120 JUMP JUMPDEST PUSH1 0x0 SWAP1 POP JUMPDEST SWAP2 SWAP1 POP JUMP JUMPDEST PUSH1 0x0 PUSH2 0x138 PUSH2 0x133 DUP5 PUSH2 0x2B2 JUMP JUMPDEST PUSH2 0x28D JUMP JUMPDEST SWAP1 POP DUP3 DUP2 MSTORE PUSH1 0x20 DUP2 ADD DUP5 DUP5 DUP5 ADD GT ISZERO PUSH2 0x154 JUMPI PUSH2 0x153 PUSH2 0x3BC JUMP JUMPDEST JUMPDEST PUSH2 0x15F DUP5 DUP3 DUP6 PUSH2 0x315 JUMP JUMPDEST POP SWAP4 SWAP3 POP POP POP JUMP JUMPDEST PUSH1 0x0 DUP3 PUSH1 0x1F DUP4 ADD SLT PUSH2 0x17C JUMPI PUSH2 0x17B PUSH2 0x3B7 JUMP JUMPDEST JUMPDEST DUP2 CALLDATALOAD PUSH2 0x18C DUP5 DUP3 PUSH1 0x20 DUP7 ADD PUSH2 0x125 JUMP JUMPDEST SWAP2 POP POP SWAP3 SWAP2 POP POP JUMP JUMPDEST PUSH1 0x0 PUSH1 0x20 DUP3 DUP5 SUB SLT ISZERO PUSH2 0x1AB JUMPI PUSH2 0x1AA PUSH2 0x3C6 JUMP JUMPDEST JUMPDEST PUSH1 0x0 DUP3 ADD CALLDATALOAD PUSH8 0xFFFFFFFFFFFFFFFF DUP2 GT ISZERO PUSH2 0x1C9 JUMPI PUSH2 0x1C8 PUSH2 0x3C1 JUMP JUMPDEST JUMPDEST PUSH2 0x1D5 DUP5 DUP3 DUP6 ADD PUSH2 0x167 JUMP JUMPDEST SWAP2 POP POP SWAP3 SWAP2 POP POP JUMP JUMPDEST PUSH2 0x1E7 DUP2 PUSH2 0x2FF JUMP JUMPDEST DUP3 MSTORE POP POP JUMP JUMPDEST PUSH1 0x0 PUSH2 0x1F8 DUP3 PUSH2 0x2E3 JUMP JUMPDEST PUSH2 0x202 DUP2 DUP6 PUSH2 0x2EE JUMP JUMPDEST SWAP4 POP PUSH2 0x212 DUP2 DUP6 PUSH1 0x20 DUP7 ADD PUSH2 0x324 JUMP JUMPDEST PUSH2 0x21B DUP2 PUSH2 0x3CB JUMP JUMPDEST DUP5 ADD SWAP2 POP POP SWAP3 SWAP2 POP POP JUMP JUMPDEST PUSH2 0x22F DUP2 PUSH2 0x30B JUMP JUMPDEST DUP3 MSTORE POP POP JUMP JUMPDEST PUSH1 0x0 PUSH1 0x20 DUP3 ADD SWAP1 POP PUSH2 0x24A PUSH1 0x0 DUP4 ADD DUP5 PUSH2 0x1DE JUMP JUMPDEST SWAP3 SWAP2 POP POP JUMP JUMPDEST PUSH1 0x0 PUSH1 0x20 DUP3 ADD SWAP1 POP DUP2 DUP2 SUB PUSH1 0x0 DUP4 ADD MSTORE PUSH2 0x26A DUP2 DUP5 PUSH2 0x1ED JUMP JUMPDEST SWAP1 POP SWAP3 SWAP2 POP POP JUMP JUMPDEST PUSH1 0x0 PUSH1 0x20 DUP3 ADD SWAP1 POP PUSH2 0x287 PUSH1 0x0 DUP4 ADD DUP5 PUSH2 0x226 JUMP JUMPDEST SWAP3 SWAP2 POP POP JUMP JUMPDEST PUSH1 0x0 PUSH2 0x297 PUSH2 0x2A8 JUMP JUMPDEST SWAP1 POP PUSH2 0x2A3 DUP3 DUP3 PUSH2 0x357 JUMP JUMPDEST SWAP2 SWAP1 POP JUMP JUMPDEST PUSH1 0x0 PUSH1 0x40 MLOAD SWAP1 POP SWAP1 JUMP JUMPDEST PUSH1 0x0 PUSH8 0xFFFFFFFFFFFFFFFF DUP3 GT ISZERO PUSH2 0x2CD JUMPI PUSH2 0x2CC PUSH2 0x388 JUMP JUMPDEST JUMPDEST PUSH2 0x2D6 DUP3 PUSH2 0x3CB JUMP JUMPDEST SWAP1 POP PUSH1 0x20 DUP2 ADD SWAP1 POP SWAP2 SWAP1 POP JUMP JUMPDEST PUSH1 0x0 DUP2 MLOAD SWAP1 POP SWAP2 SWAP1 POP JUMP JUMPDEST PUSH1 0x0 DUP3 DUP3 MSTORE PUSH1 0x20 DUP3 ADD SWAP1 POP SWAP3 SWAP2 POP POP JUMP JUMPDEST PUSH1 0x0 DUP2 ISZERO ISZERO SWAP1 POP SWAP2 SWAP1 POP JUMP JUMPDEST PUSH1 0x0 DUP2 SWAP1 POP SWAP2 SWAP1 POP JUMP JUMPDEST DUP3 DUP2 DUP4 CALLDATACOPY PUSH1 0x0 DUP4 DUP4 ADD MSTORE POP POP POP JUMP JUMPDEST PUSH1 0x0 JUMPDEST DUP4 DUP2 LT ISZERO PUSH2 0x342 JUMPI DUP1 DUP3 ADD MLOAD DUP2 DUP5 ADD MSTORE PUSH1 0x20 DUP2 ADD SWAP1 POP PUSH2 0x327 JUMP JUMPDEST DUP4 DUP2 GT ISZERO PUSH2 0x351 JUMPI PUSH1 0x0 DUP5 DUP5 ADD MSTORE JUMPDEST POP POP POP POP JUMP JUMPDEST PUSH2 0x360 DUP3 PUSH2 0x3CB JUMP JUMPDEST DUP2 ADD DUP2 DUP2 LT PUSH8 0xFFFFFFFFFFFFFFFF DUP3 GT OR ISZERO PUSH2 0x37F JUMPI PUSH2 0x37E PUSH2 0x388 JUMP JUMPDEST JUMPDEST DUP1 PUSH1 0x40 MSTORE POP POP POP JUMP JUMPDEST PUSH32 0x4E487B7100000000000000000000000000000000000000000000000000000000 PUSH1 0x0 MSTORE PUSH1 0x41 PUSH1 0x4 MSTORE PUSH1 0x24 PUSH1 0x0 REVERT JUMPDEST PUSH1 0x0 DUP1 REVERT JUMPDEST PUSH1 0x0 DUP1 REVERT JUMPDEST PUSH1 0x0 DUP1 REVERT JUMPDEST PUSH1 0x0 DUP1 REVERT JUMPDEST PUSH1 0x0 PUSH1 0x1F NOT PUSH1 0x1F DUP4 ADD AND SWAP1 POP SWAP2 SWAP1 POP JUMP INVALID LOG2 PUSH5 0x6970667358 0x22 SLT KECCAK256 CALLDATACOPY 0xB6 AND SWAP5 LOG3 0x5E 0x22 0xF 0xEE PUSH14 0xF7D40ED36D341715209BB37BF107 0xA8 PUSH4 0x6F19333A PUSH1 0x9D PUSH5 0x736F6C6343 STOP ADDMOD SMOD STOP CALLER "
				},
				"gasEstimates": {
					"creation": {
						"codeDepositCost": "208400",
						"executionCost": "infinite",
						"totalCost": "infinite"
					},
					"external": {
						"login(string)": "infinite",
						"loginlogin(string)": "infinite"
					}
				},
				"methodIdentifiers": {
					"login(string)": "3a7d280c",
					"loginlogin(string)": "cccc188a"
				}
			},
			"storageLayout": {
				"storage": [
					{
						"astId": 3,
						"contract": "contracts/IfElse.sol:IfElse",
						"label": "hashedPassword",
						"offset": 0,
						"slot": "0",
						"type": "t_bytes32"
					}
				],
				"types": {
					"t_bytes32": {
						"encoding": "inplace",
						"label": "bytes32",
						"numberOfBytes": "32"
					}
				}
			},
			"userdoc": {
				"kind": "user",
				"methods": {},
				"version": 1
			}
		}
	}
}