{
	"contracts/Loops.sol": {
		"Loops": {
			"abi": [
				{
					"inputs": [],
					"name": "getArr",
					"outputs": [
						{
							"internalType": "uint256[15]",
							"name": "",
							"type": "uint256[15]"
						}
					],
					"stateMutability": "view",
					"type": "function"
				},
				{
					"inputs": [],
					"name": "listMyFor",
					"outputs": [],
					"stateMutability": "nonpayable",
					"type": "function"
				},
				{
					"inputs": [],
					"name": "listMyWhile",
					"outputs": [],
					"stateMutability": "nonpayable",
					"type": "function"
				},
				{
					"inputs": [
						{
							"internalType": "uint256",
							"name": "",
							"type": "uint256"
						}
					],
					"name": "numbers0",
					"outputs": [
						{
							"internalType": "uint256",
							"name": "",
							"type": "uint256"
						}
					],
					"stateMutability": "view",
					"type": "function"
				},
				{
					"inputs": [
						{
							"internalType": "uint256",
							"name": "",
							"type": "uint256"
						}
					],
					"name": "numbers1",
					"outputs": [
						{
							"internalType": "uint256",
							"name": "",
							"type": "uint256"
						}
					],
					"stateMutability": "view",
					"type": "function"
				}
			],
			"devdoc": {
				"kind": "dev",
				"methods": {},
				"version": 1
			},
			"evm": {
				"assembly": "    /* \"contracts/Loops.sol\":64:636  contract Loops {... */\n  mstore(0x40, 0x80)\n  callvalue\n  dup1\n  iszero\n  tag_1\n  jumpi\n  0x00\n  dup1\n  revert\ntag_1:\n  pop\n  dataSize(sub_0)\n  dup1\n  dataOffset(sub_0)\n  0x00\n  codecopy\n  0x00\n  return\nstop\n\nsub_0: assembly {\n        /* \"contracts/Loops.sol\":64:636  contract Loops {... */\n      mstore(0x40, 0x80)\n      callvalue\n      dup1\n      iszero\n      tag_1\n      jumpi\n      0x00\n      dup1\n      revert\n    tag_1:\n      pop\n      jumpi(tag_2, lt(calldatasize, 0x04))\n      shr(0xe0, calldataload(0x00))\n      dup1\n      0x5cc5fb07\n      eq\n      tag_3\n      jumpi\n      dup1\n      0x62b44ce1\n      eq\n      tag_4\n      jumpi\n      dup1\n      0x7778f72c\n      eq\n      tag_5\n      jumpi\n      dup1\n      0xc84c7205\n      eq\n      tag_6\n      jumpi\n      dup1\n      0xfb8cbced\n      eq\n      tag_7\n      jumpi\n    tag_2:\n      0x00\n      dup1\n      revert\n        /* \"contracts/Loops.sol\":515:634  function listMyWhile() public {... */\n    tag_3:\n      tag_8\n      tag_9\n      jump\t// in\n    tag_8:\n      stop\n        /* \"contracts/Loops.sol\":118:145  uint256[15] public numbers1 */\n    tag_4:\n      tag_10\n      0x04\n      dup1\n      calldatasize\n      sub\n      dup2\n      add\n      swap1\n      tag_11\n      swap2\n      swap1\n      tag_12\n      jump\t// in\n    tag_11:\n      tag_13\n      jump\t// in\n    tag_10:\n      mload(0x40)\n      tag_14\n      swap2\n      swap1\n      tag_15\n      jump\t// in\n    tag_14:\n      mload(0x40)\n      dup1\n      swap2\n      sub\n      swap1\n      return\n        /* \"contracts/Loops.sol\":152:413  function listMyFor() public {... */\n    tag_5:\n      tag_16\n      tag_17\n      jump\t// in\n    tag_16:\n      stop\n        /* \"contracts/Loops.sol\":85:112  uint256[15] public numbers0 */\n    tag_6:\n      tag_18\n      0x04\n      dup1\n      calldatasize\n      sub\n      dup2\n      add\n      swap1\n      tag_19\n      swap2\n      swap1\n      tag_12\n      jump\t// in\n    tag_19:\n      tag_20\n      jump\t// in\n    tag_18:\n      mload(0x40)\n      tag_21\n      swap2\n      swap1\n      tag_15\n      jump\t// in\n    tag_21:\n      mload(0x40)\n      dup1\n      swap2\n      sub\n      swap1\n      return\n        /* \"contracts/Loops.sol\":419:509  function getArr() public view returns(uint256[15] memory) {... */\n    tag_7:\n      tag_22\n      tag_23\n      jump\t// in\n    tag_22:\n      mload(0x40)\n      tag_24\n      swap2\n      swap1\n      tag_25\n      jump\t// in\n    tag_24:\n      mload(0x40)\n      dup1\n      swap2\n      sub\n      swap1\n      return\n        /* \"contracts/Loops.sol\":515:634  function listMyWhile() public {... */\n    tag_9:\n        /* \"contracts/Loops.sol\":555:564  uint256 i */\n      0x00\n        /* \"contracts/Loops.sol\":578:628  while(i < numbers1.length){... */\n    tag_27:\n        /* \"contracts/Loops.sol\":588:603  numbers1.length */\n      0x0f\n        /* \"contracts/Loops.sol\":584:585  i */\n      dup2\n        /* \"contracts/Loops.sol\":584:603  i < numbers1.length */\n      lt\n        /* \"contracts/Loops.sol\":578:628  while(i < numbers1.length){... */\n      iszero\n      tag_28\n      jumpi\n      jump(tag_27)\n    tag_28:\n        /* \"contracts/Loops.sol\":545:634  {... */\n      pop\n        /* \"contracts/Loops.sol\":515:634  function listMyWhile() public {... */\n      jump\t// out\n        /* \"contracts/Loops.sol\":118:145  uint256[15] public numbers1 */\n    tag_13:\n      0x0f\n      dup2\n      0x0f\n      dup2\n      lt\n      tag_29\n      jumpi\n      0x00\n      dup1\n      revert\n    tag_29:\n      add\n      0x00\n      swap2\n      pop\n      swap1\n      pop\n      sload\n      dup2\n      jump\t// out\n        /* \"contracts/Loops.sol\":152:413  function listMyFor() public {... */\n    tag_17:\n        /* \"contracts/Loops.sol\":190:213  uint256[15] memory nums */\n      0x00\n        /* \"contracts/Loops.sol\":216:224  numbers0 */\n      dup1\n        /* \"contracts/Loops.sol\":190:224  uint256[15] memory nums = numbers0 */\n      0x0f\n      dup1\n      0x20\n      mul\n      mload(0x40)\n      swap1\n      dup2\n      add\n      0x40\n      mstore\n      dup1\n      swap3\n      swap2\n      swap1\n      dup3\n      0x0f\n      dup1\n      iszero\n      tag_32\n      jumpi\n      0x20\n      mul\n      dup3\n      add\n      swap2\n    tag_33:\n      dup2\n      sload\n      dup2\n      mstore\n      0x20\n      add\n      swap1\n      0x01\n      add\n      swap1\n      dup1\n      dup4\n      gt\n      tag_33\n      jumpi\n    tag_32:\n      pop\n      pop\n      pop\n      pop\n      pop\n      swap1\n      pop\n        /* \"contracts/Loops.sol\":239:248  uint256 i */\n      0x00\n        /* \"contracts/Loops.sol\":235:381  for(uint256 i = 0; i < nums.length ; i++){... */\n    tag_34:\n        /* \"contracts/Loops.sol\":258:269  nums.length */\n      0x0f\n        /* \"contracts/Loops.sol\":254:255  i */\n      dup2\n        /* \"contracts/Loops.sol\":254:269  i < nums.length */\n      lt\n        /* \"contracts/Loops.sol\":235:381  for(uint256 i = 0; i < nums.length ; i++){... */\n      iszero\n      tag_35\n      jumpi\n        /* \"contracts/Loops.sol\":369:370  i */\n      dup1\n        /* \"contracts/Loops.sol\":359:363  nums */\n      dup3\n        /* \"contracts/Loops.sol\":364:365  i */\n      dup3\n        /* \"contracts/Loops.sol\":359:366  nums[i] */\n      0x0f\n      dup2\n      lt\n      tag_37\n      jumpi\n      tag_38\n      tag_39\n      jump\t// in\n    tag_38:\n    tag_37:\n      0x20\n      mul\n      add\n        /* \"contracts/Loops.sol\":359:370  nums[i] = i */\n      dup2\n      dup2\n      mstore\n      pop\n      pop\n        /* \"contracts/Loops.sol\":272:275  i++ */\n      dup1\n      dup1\n      tag_40\n      swap1\n      tag_41\n      jump\t// in\n    tag_40:\n      swap2\n      pop\n      pop\n        /* \"contracts/Loops.sol\":235:381  for(uint256 i = 0; i < nums.length ; i++){... */\n      jump(tag_34)\n    tag_35:\n      pop\n        /* \"contracts/Loops.sol\":402:406  nums */\n      dup1\n        /* \"contracts/Loops.sol\":391:399  numbers0 */\n      0x00\n        /* \"contracts/Loops.sol\":391:406  numbers0 = nums */\n      swap1\n      0x0f\n      tag_42\n      swap3\n      swap2\n      swap1\n      tag_43\n      jump\t// in\n    tag_42:\n      pop\n        /* \"contracts/Loops.sol\":180:413  {... */\n      pop\n        /* \"contracts/Loops.sol\":152:413  function listMyFor() public {... */\n      jump\t// out\n        /* \"contracts/Loops.sol\":85:112  uint256[15] public numbers0 */\n    tag_20:\n      0x00\n      dup2\n      0x0f\n      dup2\n      lt\n      tag_44\n      jumpi\n      0x00\n      dup1\n      revert\n    tag_44:\n      add\n      0x00\n      swap2\n      pop\n      swap1\n      pop\n      sload\n      dup2\n      jump\t// out\n        /* \"contracts/Loops.sol\":419:509  function getArr() public view returns(uint256[15] memory) {... */\n    tag_23:\n        /* \"contracts/Loops.sol\":457:475  uint256[15] memory */\n      tag_46\n      tag_47\n      jump\t// in\n    tag_46:\n        /* \"contracts/Loops.sol\":494:502  numbers0 */\n      0x00\n        /* \"contracts/Loops.sol\":487:502  return numbers0 */\n      0x0f\n      dup1\n      0x20\n      mul\n      mload(0x40)\n      swap1\n      dup2\n      add\n      0x40\n      mstore\n      dup1\n      swap3\n      swap2\n      swap1\n      dup3\n      0x0f\n      dup1\n      iszero\n      tag_49\n      jumpi\n      0x20\n      mul\n      dup3\n      add\n      swap2\n    tag_50:\n      dup2\n      sload\n      dup2\n      mstore\n      0x20\n      add\n      swap1\n      0x01\n      add\n      swap1\n      dup1\n      dup4\n      gt\n      tag_50\n      jumpi\n    tag_49:\n      pop\n      pop\n      pop\n      pop\n      pop\n      swap1\n      pop\n        /* \"contracts/Loops.sol\":419:509  function getArr() public view returns(uint256[15] memory) {... */\n      swap1\n      jump\t// out\n    tag_43:\n      dup3\n      0x0f\n      dup2\n      add\n      swap3\n      dup3\n      iszero\n      tag_51\n      jumpi\n      swap2\n      0x20\n      mul\n      dup3\n      add\n    tag_52:\n      dup3\n      dup2\n      gt\n      iszero\n      tag_53\n      jumpi\n      dup3\n      mload\n      dup3\n      sstore\n      swap2\n      0x20\n      add\n      swap2\n      swap1\n      0x01\n      add\n      swap1\n      jump(tag_52)\n    tag_53:\n    tag_51:\n      pop\n      swap1\n      pop\n      tag_54\n      swap2\n      swap1\n      tag_55\n      jump\t// in\n    tag_54:\n      pop\n      swap1\n      jump\t// out\n    tag_47:\n      mload(0x40)\n      dup1\n      0x01e0\n      add\n      0x40\n      mstore\n      dup1\n      0x0f\n      swap1\n      0x20\n      dup3\n      mul\n      dup1\n      calldatasize\n      dup4\n      calldatacopy\n      dup1\n      dup3\n      add\n      swap2\n      pop\n      pop\n      swap1\n      pop\n      pop\n      swap1\n      jump\t// out\n    tag_55:\n    tag_56:\n      dup1\n      dup3\n      gt\n      iszero\n      tag_57\n      jumpi\n      0x00\n      dup2\n      0x00\n      swap1\n      sstore\n      pop\n      0x01\n      add\n      jump(tag_56)\n    tag_57:\n      pop\n      swap1\n      jump\t// out\n        /* \"#utility.yul\":7:146   */\n    tag_59:\n        /* \"#utility.yul\":53:58   */\n      0x00\n        /* \"#utility.yul\":91:97   */\n      dup2\n        /* \"#utility.yul\":78:98   */\n      calldataload\n        /* \"#utility.yul\":69:98   */\n      swap1\n      pop\n        /* \"#utility.yul\":107:140   */\n      tag_61\n        /* \"#utility.yul\":134:139   */\n      dup2\n        /* \"#utility.yul\":107:140   */\n      tag_62\n      jump\t// in\n    tag_61:\n        /* \"#utility.yul\":7:146   */\n      swap3\n      swap2\n      pop\n      pop\n      jump\t// out\n        /* \"#utility.yul\":152:481   */\n    tag_12:\n        /* \"#utility.yul\":211:217   */\n      0x00\n        /* \"#utility.yul\":260:262   */\n      0x20\n        /* \"#utility.yul\":248:257   */\n      dup3\n        /* \"#utility.yul\":239:246   */\n      dup5\n        /* \"#utility.yul\":235:258   */\n      sub\n        /* \"#utility.yul\":231:263   */\n      slt\n        /* \"#utility.yul\":228:347   */\n      iszero\n      tag_64\n      jumpi\n        /* \"#utility.yul\":266:345   */\n      tag_65\n      tag_66\n      jump\t// in\n    tag_65:\n        /* \"#utility.yul\":228:347   */\n    tag_64:\n        /* \"#utility.yul\":386:387   */\n      0x00\n        /* \"#utility.yul\":411:464   */\n      tag_67\n        /* \"#utility.yul\":456:463   */\n      dup5\n        /* \"#utility.yul\":447:453   */\n      dup3\n        /* \"#utility.yul\":436:445   */\n      dup6\n        /* \"#utility.yul\":432:454   */\n      add\n        /* \"#utility.yul\":411:464   */\n      tag_59\n      jump\t// in\n    tag_67:\n        /* \"#utility.yul\":401:464   */\n      swap2\n      pop\n        /* \"#utility.yul\":357:474   */\n      pop\n        /* \"#utility.yul\":152:481   */\n      swap3\n      swap2\n      pop\n      pop\n      jump\t// out\n        /* \"#utility.yul\":487:666   */\n    tag_68:\n        /* \"#utility.yul\":556:566   */\n      0x00\n        /* \"#utility.yul\":577:623   */\n      tag_70\n        /* \"#utility.yul\":619:622   */\n      dup4\n        /* \"#utility.yul\":611:617   */\n      dup4\n        /* \"#utility.yul\":577:623   */\n      tag_71\n      jump\t// in\n    tag_70:\n        /* \"#utility.yul\":655:659   */\n      0x20\n        /* \"#utility.yul\":650:653   */\n      dup4\n        /* \"#utility.yul\":646:660   */\n      add\n        /* \"#utility.yul\":632:660   */\n      swap1\n      pop\n        /* \"#utility.yul\":487:666   */\n      swap3\n      swap2\n      pop\n      pop\n      jump\t// out\n        /* \"#utility.yul\":706:1406   */\n    tag_72:\n        /* \"#utility.yul\":844:897   */\n      tag_74\n        /* \"#utility.yul\":891:896   */\n      dup2\n        /* \"#utility.yul\":844:897   */\n      tag_75\n      jump\t// in\n    tag_74:\n        /* \"#utility.yul\":913:998   */\n      tag_76\n        /* \"#utility.yul\":991:997   */\n      dup2\n        /* \"#utility.yul\":986:989   */\n      dup5\n        /* \"#utility.yul\":913:998   */\n      tag_77\n      jump\t// in\n    tag_76:\n        /* \"#utility.yul\":906:998   */\n      swap3\n      pop\n        /* \"#utility.yul\":1022:1077   */\n      tag_78\n        /* \"#utility.yul\":1071:1076   */\n      dup3\n        /* \"#utility.yul\":1022:1077   */\n      tag_79\n      jump\t// in\n    tag_78:\n        /* \"#utility.yul\":1100:1107   */\n      dup1\n        /* \"#utility.yul\":1131:1132   */\n      0x00\n        /* \"#utility.yul\":1116:1399   */\n    tag_80:\n        /* \"#utility.yul\":1141:1147   */\n      dup4\n        /* \"#utility.yul\":1138:1139   */\n      dup2\n        /* \"#utility.yul\":1135:1148   */\n      lt\n        /* \"#utility.yul\":1116:1399   */\n      iszero\n      tag_82\n      jumpi\n        /* \"#utility.yul\":1217:1223   */\n      dup2\n        /* \"#utility.yul\":1211:1224   */\n      mload\n        /* \"#utility.yul\":1244:1307   */\n      tag_83\n        /* \"#utility.yul\":1303:1306   */\n      dup8\n        /* \"#utility.yul\":1288:1301   */\n      dup3\n        /* \"#utility.yul\":1244:1307   */\n      tag_68\n      jump\t// in\n    tag_83:\n        /* \"#utility.yul\":1237:1307   */\n      swap7\n      pop\n        /* \"#utility.yul\":1330:1389   */\n      tag_84\n        /* \"#utility.yul\":1382:1388   */\n      dup4\n        /* \"#utility.yul\":1330:1389   */\n      tag_85\n      jump\t// in\n    tag_84:\n        /* \"#utility.yul\":1320:1389   */\n      swap3\n      pop\n        /* \"#utility.yul\":1176:1399   */\n      pop\n        /* \"#utility.yul\":1163:1164   */\n      0x01\n        /* \"#utility.yul\":1160:1161   */\n      dup2\n        /* \"#utility.yul\":1156:1165   */\n      add\n        /* \"#utility.yul\":1151:1165   */\n      swap1\n      pop\n        /* \"#utility.yul\":1116:1399   */\n      jump(tag_80)\n    tag_82:\n        /* \"#utility.yul\":1120:1134   */\n      pop\n        /* \"#utility.yul\":820:1406   */\n      pop\n      pop\n      pop\n        /* \"#utility.yul\":706:1406   */\n      pop\n      pop\n      jump\t// out\n        /* \"#utility.yul\":1412:1520   */\n    tag_71:\n        /* \"#utility.yul\":1489:1513   */\n      tag_87\n        /* \"#utility.yul\":1507:1512   */\n      dup2\n        /* \"#utility.yul\":1489:1513   */\n      tag_88\n      jump\t// in\n    tag_87:\n        /* \"#utility.yul\":1484:1487   */\n      dup3\n        /* \"#utility.yul\":1477:1514   */\n      mstore\n        /* \"#utility.yul\":1412:1520   */\n      pop\n      pop\n      jump\t// out\n        /* \"#utility.yul\":1526:1644   */\n    tag_89:\n        /* \"#utility.yul\":1613:1637   */\n      tag_91\n        /* \"#utility.yul\":1631:1636   */\n      dup2\n        /* \"#utility.yul\":1613:1637   */\n      tag_88\n      jump\t// in\n    tag_91:\n        /* \"#utility.yul\":1608:1611   */\n      dup3\n        /* \"#utility.yul\":1601:1638   */\n      mstore\n        /* \"#utility.yul\":1526:1644   */\n      pop\n      pop\n      jump\t// out\n        /* \"#utility.yul\":1650:1969   */\n    tag_25:\n        /* \"#utility.yul\":1791:1795   */\n      0x00\n        /* \"#utility.yul\":1829:1832   */\n      0x01e0\n        /* \"#utility.yul\":1818:1827   */\n      dup3\n        /* \"#utility.yul\":1814:1833   */\n      add\n        /* \"#utility.yul\":1806:1833   */\n      swap1\n      pop\n        /* \"#utility.yul\":1843:1962   */\n      tag_93\n        /* \"#utility.yul\":1959:1960   */\n      0x00\n        /* \"#utility.yul\":1948:1957   */\n      dup4\n        /* \"#utility.yul\":1944:1961   */\n      add\n        /* \"#utility.yul\":1935:1941   */\n      dup5\n        /* \"#utility.yul\":1843:1962   */\n      tag_72\n      jump\t// in\n    tag_93:\n        /* \"#utility.yul\":1650:1969   */\n      swap3\n      swap2\n      pop\n      pop\n      jump\t// out\n        /* \"#utility.yul\":1975:2197   */\n    tag_15:\n        /* \"#utility.yul\":2068:2072   */\n      0x00\n        /* \"#utility.yul\":2106:2108   */\n      0x20\n        /* \"#utility.yul\":2095:2104   */\n      dup3\n        /* \"#utility.yul\":2091:2109   */\n      add\n        /* \"#utility.yul\":2083:2109   */\n      swap1\n      pop\n        /* \"#utility.yul\":2119:2190   */\n      tag_95\n        /* \"#utility.yul\":2187:2188   */\n      0x00\n        /* \"#utility.yul\":2176:2185   */\n      dup4\n        /* \"#utility.yul\":2172:2189   */\n      add\n        /* \"#utility.yul\":2163:2169   */\n      dup5\n        /* \"#utility.yul\":2119:2190   */\n      tag_89\n      jump\t// in\n    tag_95:\n        /* \"#utility.yul\":1975:2197   */\n      swap3\n      swap2\n      pop\n      pop\n      jump\t// out\n        /* \"#utility.yul\":2284:2383   */\n    tag_79:\n        /* \"#utility.yul\":2350:2354   */\n      0x00\n        /* \"#utility.yul\":2373:2376   */\n      dup2\n        /* \"#utility.yul\":2365:2376   */\n      swap1\n      pop\n        /* \"#utility.yul\":2284:2383   */\n      swap2\n      swap1\n      pop\n      jump\t// out\n        /* \"#utility.yul\":2389:2494   */\n    tag_75:\n        /* \"#utility.yul\":2455:2461   */\n      0x00\n        /* \"#utility.yul\":2483:2487   */\n      0x0f\n        /* \"#utility.yul\":2473:2487   */\n      swap1\n      pop\n        /* \"#utility.yul\":2389:2494   */\n      swap2\n      swap1\n      pop\n      jump\t// out\n        /* \"#utility.yul\":2500:2612   */\n    tag_85:\n        /* \"#utility.yul\":2569:2573   */\n      0x00\n        /* \"#utility.yul\":2601:2605   */\n      0x20\n        /* \"#utility.yul\":2596:2599   */\n      dup3\n        /* \"#utility.yul\":2592:2606   */\n      add\n        /* \"#utility.yul\":2584:2606   */\n      swap1\n      pop\n        /* \"#utility.yul\":2500:2612   */\n      swap2\n      swap1\n      pop\n      jump\t// out\n        /* \"#utility.yul\":2618:2762   */\n    tag_77:\n        /* \"#utility.yul\":2716:2727   */\n      0x00\n        /* \"#utility.yul\":2753:2756   */\n      dup2\n        /* \"#utility.yul\":2738:2756   */\n      swap1\n      pop\n        /* \"#utility.yul\":2618:2762   */\n      swap3\n      swap2\n      pop\n      pop\n      jump\t// out\n        /* \"#utility.yul\":2768:2845   */\n    tag_88:\n        /* \"#utility.yul\":2805:2812   */\n      0x00\n        /* \"#utility.yul\":2834:2839   */\n      dup2\n        /* \"#utility.yul\":2823:2839   */\n      swap1\n      pop\n        /* \"#utility.yul\":2768:2845   */\n      swap2\n      swap1\n      pop\n      jump\t// out\n        /* \"#utility.yul\":2851:3084   */\n    tag_41:\n        /* \"#utility.yul\":2890:2893   */\n      0x00\n        /* \"#utility.yul\":2913:2937   */\n      tag_104\n        /* \"#utility.yul\":2931:2936   */\n      dup3\n        /* \"#utility.yul\":2913:2937   */\n      tag_88\n      jump\t// in\n    tag_104:\n        /* \"#utility.yul\":2904:2937   */\n      swap2\n      pop\n        /* \"#utility.yul\":2959:3025   */\n      0xffffffffffffffffffffffffffffffffffffffffffffffffffffffffffffffff\n        /* \"#utility.yul\":2952:2957   */\n      dup3\n        /* \"#utility.yul\":2949:3026   */\n      eq\n        /* \"#utility.yul\":2946:3049   */\n      iszero\n      tag_105\n      jumpi\n        /* \"#utility.yul\":3029:3047   */\n      tag_106\n      tag_107\n      jump\t// in\n    tag_106:\n        /* \"#utility.yul\":2946:3049   */\n    tag_105:\n        /* \"#utility.yul\":3076:3077   */\n      0x01\n        /* \"#utility.yul\":3069:3074   */\n      dup3\n        /* \"#utility.yul\":3065:3078   */\n      add\n        /* \"#utility.yul\":3058:3078   */\n      swap1\n      pop\n        /* \"#utility.yul\":2851:3084   */\n      swap2\n      swap1\n      pop\n      jump\t// out\n        /* \"#utility.yul\":3090:3270   */\n    tag_107:\n        /* \"#utility.yul\":3138:3215   */\n      0x4e487b7100000000000000000000000000000000000000000000000000000000\n        /* \"#utility.yul\":3135:3136   */\n      0x00\n        /* \"#utility.yul\":3128:3216   */\n      mstore\n        /* \"#utility.yul\":3235:3239   */\n      0x11\n        /* \"#utility.yul\":3232:3233   */\n      0x04\n        /* \"#utility.yul\":3225:3240   */\n      mstore\n        /* \"#utility.yul\":3259:3263   */\n      0x24\n        /* \"#utility.yul\":3256:3257   */\n      0x00\n        /* \"#utility.yul\":3249:3264   */\n      revert\n        /* \"#utility.yul\":3276:3456   */\n    tag_39:\n        /* \"#utility.yul\":3324:3401   */\n      0x4e487b7100000000000000000000000000000000000000000000000000000000\n        /* \"#utility.yul\":3321:3322   */\n      0x00\n        /* \"#utility.yul\":3314:3402   */\n      mstore\n        /* \"#utility.yul\":3421:3425   */\n      0x32\n        /* \"#utility.yul\":3418:3419   */\n      0x04\n        /* \"#utility.yul\":3411:3426   */\n      mstore\n        /* \"#utility.yul\":3445:3449   */\n      0x24\n        /* \"#utility.yul\":3442:3443   */\n      0x00\n        /* \"#utility.yul\":3435:3450   */\n      revert\n        /* \"#utility.yul\":3585:3702   */\n    tag_66:\n        /* \"#utility.yul\":3694:3695   */\n      0x00\n        /* \"#utility.yul\":3691:3692   */\n      dup1\n        /* \"#utility.yul\":3684:3696   */\n      revert\n        /* \"#utility.yul\":3708:3830   */\n    tag_62:\n        /* \"#utility.yul\":3781:3805   */\n      tag_114\n        /* \"#utility.yul\":3799:3804   */\n      dup2\n        /* \"#utility.yul\":3781:3805   */\n      tag_88\n      jump\t// in\n    tag_114:\n        /* \"#utility.yul\":3774:3779   */\n      dup2\n        /* \"#utility.yul\":3771:3806   */\n      eq\n        /* \"#utility.yul\":3761:3824   */\n      tag_115\n      jumpi\n        /* \"#utility.yul\":3820:3821   */\n      0x00\n        /* \"#utility.yul\":3817:3818   */\n      dup1\n        /* \"#utility.yul\":3810:3822   */\n      revert\n        /* \"#utility.yul\":3761:3824   */\n    tag_115:\n        /* \"#utility.yul\":3708:3830   */\n      pop\n      jump\t// out\n\n    auxdata: 0xa26469706673582212205e959cb039ca10a566f134a9657bc15ceaa249e04f8eab43bc04427e1dba800964736f6c63430008070033\n}\n",
				"bytecode": {
					"linkReferences": {},
					"object": "608060405234801561001057600080fd5b506104cc806100206000396000f3fe608060405234801561001057600080fd5b50600436106100575760003560e01c80635cc5fb071461005c57806362b44ce1146100665780637778f72c14610096578063c84c7205146100a0578063fb8cbced146100d0575b600080fd5b6100646100ee565b005b610080600480360381019061007b91906102ab565b610102565b60405161008d9190610381565b60405180910390f35b61009e61011d565b005b6100ba60048036038101906100b591906102ab565b6101b0565b6040516100c79190610381565b60405180910390f35b6100d86101cb565b6040516100e59190610365565b60405180910390f35b60005b600f8110156100ff576100f1565b50565b600f81600f811061011257600080fd5b016000915090505481565b600080600f806020026040519081016040528092919082600f8015610157576020028201915b815481526020019060010190808311610143575b5050505050905060005b600f81101561019a57808282600f811061017e5761017d61044b565b5b6020020181815250508080610192906103d3565b915050610161565b5080600090600f6101ac929190610216565b5050565b600081600f81106101c057600080fd5b016000915090505481565b6101d3610256565b6000600f806020026040519081016040528092919082600f801561020c576020028201915b8154815260200190600101908083116101f8575b5050505050905090565b82600f8101928215610245579160200282015b82811115610244578251825591602001919060010190610229565b5b5090506102529190610279565b5090565b604051806101e00160405280600f90602082028036833780820191505090505090565b5b8082111561029257600081600090555060010161027a565b5090565b6000813590506102a58161047f565b92915050565b6000602082840312156102c1576102c061047a565b5b60006102cf84828501610296565b91505092915050565b60006102e48383610347565b60208301905092915050565b6102f9816103a6565b61030381846103be565b925061030e8261039c565b8060005b8381101561033f57815161032687826102d8565b9650610331836103b1565b925050600181019050610312565b505050505050565b610350816103c9565b82525050565b61035f816103c9565b82525050565b60006101e08201905061037b60008301846102f0565b92915050565b60006020820190506103966000830184610356565b92915050565b6000819050919050565b6000600f9050919050565b6000602082019050919050565b600081905092915050565b6000819050919050565b60006103de826103c9565b91507fffffffffffffffffffffffffffffffffffffffffffffffffffffffffffffffff8214156104115761041061041c565b5b600182019050919050565b7f4e487b7100000000000000000000000000000000000000000000000000000000600052601160045260246000fd5b7f4e487b7100000000000000000000000000000000000000000000000000000000600052603260045260246000fd5b600080fd5b610488816103c9565b811461049357600080fd5b5056fea26469706673582212205e959cb039ca10a566f134a9657bc15ceaa249e04f8eab43bc04427e1dba800964736f6c63430008070033",
					"opcodes": "PUSH1 0x80 PUSH1 0x40 MSTORE CALLVALUE DUP1 ISZERO PUSH2 0x10 JUMPI PUSH1 0x0 DUP1 REVERT JUMPDEST POP PUSH2 0x4CC DUP1 PUSH2 0x20 PUSH1 0x0 CODECOPY PUSH1 0x0 RETURN INVALID PUSH1 0x80 PUSH1 0x40 MSTORE CALLVALUE DUP1 ISZERO PUSH2 0x10 JUMPI PUSH1 0x0 DUP1 REVERT JUMPDEST POP PUSH1 0x4 CALLDATASIZE LT PUSH2 0x57 JUMPI PUSH1 0x0 CALLDATALOAD PUSH1 0xE0 SHR DUP1 PUSH4 0x5CC5FB07 EQ PUSH2 0x5C JUMPI DUP1 PUSH4 0x62B44CE1 EQ PUSH2 0x66 JUMPI DUP1 PUSH4 0x7778F72C EQ PUSH2 0x96 JUMPI DUP1 PUSH4 0xC84C7205 EQ PUSH2 0xA0 JUMPI DUP1 PUSH4 0xFB8CBCED EQ PUSH2 0xD0 JUMPI JUMPDEST PUSH1 0x0 DUP1 REVERT JUMPDEST PUSH2 0x64 PUSH2 0xEE JUMP JUMPDEST STOP JUMPDEST PUSH2 0x80 PUSH1 0x4 DUP1 CALLDATASIZE SUB DUP2 ADD SWAP1 PUSH2 0x7B SWAP2 SWAP1 PUSH2 0x2AB JUMP JUMPDEST PUSH2 0x102 JUMP JUMPDEST PUSH1 0x40 MLOAD PUSH2 0x8D SWAP2 SWAP1 PUSH2 0x381 JUMP JUMPDEST PUSH1 0x40 MLOAD DUP1 SWAP2 SUB SWAP1 RETURN JUMPDEST PUSH2 0x9E PUSH2 0x11D JUMP JUMPDEST STOP JUMPDEST PUSH2 0xBA PUSH1 0x4 DUP1 CALLDATASIZE SUB DUP2 ADD SWAP1 PUSH2 0xB5 SWAP2 SWAP1 PUSH2 0x2AB JUMP JUMPDEST PUSH2 0x1B0 JUMP JUMPDEST PUSH1 0x40 MLOAD PUSH2 0xC7 SWAP2 SWAP1 PUSH2 0x381 JUMP JUMPDEST PUSH1 0x40 MLOAD DUP1 SWAP2 SUB SWAP1 RETURN JUMPDEST PUSH2 0xD8 PUSH2 0x1CB JUMP JUMPDEST PUSH1 0x40 MLOAD PUSH2 0xE5 SWAP2 SWAP1 PUSH2 0x365 JUMP JUMPDEST PUSH1 0x40 MLOAD DUP1 SWAP2 SUB SWAP1 RETURN JUMPDEST PUSH1 0x0 JUMPDEST PUSH1 0xF DUP2 LT ISZERO PUSH2 0xFF JUMPI PUSH2 0xF1 JUMP JUMPDEST POP JUMP JUMPDEST PUSH1 0xF DUP2 PUSH1 0xF DUP2 LT PUSH2 0x112 JUMPI PUSH1 0x0 DUP1 REVERT JUMPDEST ADD PUSH1 0x0 SWAP2 POP SWAP1 POP SLOAD DUP2 JUMP JUMPDEST PUSH1 0x0 DUP1 PUSH1 0xF DUP1 PUSH1 0x20 MUL PUSH1 0x40 MLOAD SWAP1 DUP2 ADD PUSH1 0x40 MSTORE DUP1 SWAP3 SWAP2 SWAP1 DUP3 PUSH1 0xF DUP1 ISZERO PUSH2 0x157 JUMPI PUSH1 0x20 MUL DUP3 ADD SWAP2 JUMPDEST DUP2 SLOAD DUP2 MSTORE PUSH1 0x20 ADD SWAP1 PUSH1 0x1 ADD SWAP1 DUP1 DUP4 GT PUSH2 0x143 JUMPI JUMPDEST POP POP POP POP POP SWAP1 POP PUSH1 0x0 JUMPDEST PUSH1 0xF DUP2 LT ISZERO PUSH2 0x19A JUMPI DUP1 DUP3 DUP3 PUSH1 0xF DUP2 LT PUSH2 0x17E JUMPI PUSH2 0x17D PUSH2 0x44B JUMP JUMPDEST JUMPDEST PUSH1 0x20 MUL ADD DUP2 DUP2 MSTORE POP POP DUP1 DUP1 PUSH2 0x192 SWAP1 PUSH2 0x3D3 JUMP JUMPDEST SWAP2 POP POP PUSH2 0x161 JUMP JUMPDEST POP DUP1 PUSH1 0x0 SWAP1 PUSH1 0xF PUSH2 0x1AC SWAP3 SWAP2 SWAP1 PUSH2 0x216 JUMP JUMPDEST POP POP JUMP JUMPDEST PUSH1 0x0 DUP2 PUSH1 0xF DUP2 LT PUSH2 0x1C0 JUMPI PUSH1 0x0 DUP1 REVERT JUMPDEST ADD PUSH1 0x0 SWAP2 POP SWAP1 POP SLOAD DUP2 JUMP JUMPDEST PUSH2 0x1D3 PUSH2 0x256 JUMP JUMPDEST PUSH1 0x0 PUSH1 0xF DUP1 PUSH1 0x20 MUL PUSH1 0x40 MLOAD SWAP1 DUP2 ADD PUSH1 0x40 MSTORE DUP1 SWAP3 SWAP2 SWAP1 DUP3 PUSH1 0xF DUP1 ISZERO PUSH2 0x20C JUMPI PUSH1 0x20 MUL DUP3 ADD SWAP2 JUMPDEST DUP2 SLOAD DUP2 MSTORE PUSH1 0x20 ADD SWAP1 PUSH1 0x1 ADD SWAP1 DUP1 DUP4 GT PUSH2 0x1F8 JUMPI JUMPDEST POP POP POP POP POP SWAP1 POP SWAP1 JUMP JUMPDEST DUP3 PUSH1 0xF DUP2 ADD SWAP3 DUP3 ISZERO PUSH2 0x245 JUMPI SWAP2 PUSH1 0x20 MUL DUP3 ADD JUMPDEST DUP3 DUP2 GT ISZERO PUSH2 0x244 JUMPI DUP3 MLOAD DUP3 SSTORE SWAP2 PUSH1 0x20 ADD SWAP2 SWAP1 PUSH1 0x1 ADD SWAP1 PUSH2 0x229 JUMP JUMPDEST JUMPDEST POP SWAP1 POP PUSH2 0x252 SWAP2 SWAP1 PUSH2 0x279 JUMP JUMPDEST POP SWAP1 JUMP JUMPDEST PUSH1 0x40 MLOAD DUP1 PUSH2 0x1E0 ADD PUSH1 0x40 MSTORE DUP1 PUSH1 0xF SWAP1 PUSH1 0x20 DUP3 MUL DUP1 CALLDATASIZE DUP4 CALLDATACOPY DUP1 DUP3 ADD SWAP2 POP POP SWAP1 POP POP SWAP1 JUMP JUMPDEST JUMPDEST DUP1 DUP3 GT ISZERO PUSH2 0x292 JUMPI PUSH1 0x0 DUP2 PUSH1 0x0 SWAP1 SSTORE POP PUSH1 0x1 ADD PUSH2 0x27A JUMP JUMPDEST POP SWAP1 JUMP JUMPDEST PUSH1 0x0 DUP2 CALLDATALOAD SWAP1 POP PUSH2 0x2A5 DUP2 PUSH2 0x47F JUMP JUMPDEST SWAP3 SWAP2 POP POP JUMP JUMPDEST PUSH1 0x0 PUSH1 0x20 DUP3 DUP5 SUB SLT ISZERO PUSH2 0x2C1 JUMPI PUSH2 0x2C0 PUSH2 0x47A JUMP JUMPDEST JUMPDEST PUSH1 0x0 PUSH2 0x2CF DUP5 DUP3 DUP6 ADD PUSH2 0x296 JUMP JUMPDEST SWAP2 POP POP SWAP3 SWAP2 POP POP JUMP JUMPDEST PUSH1 0x0 PUSH2 0x2E4 DUP4 DUP4 PUSH2 0x347 JUMP JUMPDEST PUSH1 0x20 DUP4 ADD SWAP1 POP SWAP3 SWAP2 POP POP JUMP JUMPDEST PUSH2 0x2F9 DUP2 PUSH2 0x3A6 JUMP JUMPDEST PUSH2 0x303 DUP2 DUP5 PUSH2 0x3BE JUMP JUMPDEST SWAP3 POP PUSH2 0x30E DUP3 PUSH2 0x39C JUMP JUMPDEST DUP1 PUSH1 0x0 JUMPDEST DUP4 DUP2 LT ISZERO PUSH2 0x33F JUMPI DUP2 MLOAD PUSH2 0x326 DUP8 DUP3 PUSH2 0x2D8 JUMP JUMPDEST SWAP7 POP PUSH2 0x331 DUP4 PUSH2 0x3B1 JUMP JUMPDEST SWAP3 POP POP PUSH1 0x1 DUP2 ADD SWAP1 POP PUSH2 0x312 JUMP JUMPDEST POP POP POP POP POP POP JUMP JUMPDEST PUSH2 0x350 DUP2 PUSH2 0x3C9 JUMP JUMPDEST DUP3 MSTORE POP POP JUMP JUMPDEST PUSH2 0x35F DUP2 PUSH2 0x3C9 JUMP JUMPDEST DUP3 MSTORE POP POP JUMP JUMPDEST PUSH1 0x0 PUSH2 0x1E0 DUP3 ADD SWAP1 POP PUSH2 0x37B PUSH1 0x0 DUP4 ADD DUP5 PUSH2 0x2F0 JUMP JUMPDEST SWAP3 SWAP2 POP POP JUMP JUMPDEST PUSH1 0x0 PUSH1 0x20 DUP3 ADD SWAP1 POP PUSH2 0x396 PUSH1 0x0 DUP4 ADD DUP5 PUSH2 0x356 JUMP JUMPDEST SWAP3 SWAP2 POP POP JUMP JUMPDEST PUSH1 0x0 DUP2 SWAP1 POP SWAP2 SWAP1 POP JUMP JUMPDEST PUSH1 0x0 PUSH1 0xF SWAP1 POP SWAP2 SWAP1 POP JUMP JUMPDEST PUSH1 0x0 PUSH1 0x20 DUP3 ADD SWAP1 POP SWAP2 SWAP1 POP JUMP JUMPDEST PUSH1 0x0 DUP2 SWAP1 POP SWAP3 SWAP2 POP POP JUMP JUMPDEST PUSH1 0x0 DUP2 SWAP1 POP SWAP2 SWAP1 POP JUMP JUMPDEST PUSH1 0x0 PUSH2 0x3DE DUP3 PUSH2 0x3C9 JUMP JUMPDEST SWAP2 POP PUSH32 0xFFFFFFFFFFFFFFFFFFFFFFFFFFFFFFFFFFFFFFFFFFFFFFFFFFFFFFFFFFFFFFFF DUP3 EQ ISZERO PUSH2 0x411 JUMPI PUSH2 0x410 PUSH2 0x41C JUMP JUMPDEST JUMPDEST PUSH1 0x1 DUP3 ADD SWAP1 POP SWAP2 SWAP1 POP JUMP JUMPDEST PUSH32 0x4E487B7100000000000000000000000000000000000000000000000000000000 PUSH1 0x0 MSTORE PUSH1 0x11 PUSH1 0x4 MSTORE PUSH1 0x24 PUSH1 0x0 REVERT JUMPDEST PUSH32 0x4E487B7100000000000000000000000000000000000000000000000000000000 PUSH1 0x0 MSTORE PUSH1 0x32 PUSH1 0x4 MSTORE PUSH1 0x24 PUSH1 0x0 REVERT JUMPDEST PUSH1 0x0 DUP1 REVERT JUMPDEST PUSH2 0x488 DUP2 PUSH2 0x3C9 JUMP JUMPDEST DUP2 EQ PUSH2 0x493 JUMPI PUSH1 0x0 DUP1 REVERT JUMPDEST POP JUMP INVALID LOG2 PUSH5 0x6970667358 0x22 SLT KECCAK256 0x5E SWAP6 SWAP13 0xB0 CODECOPY 0xCA LT 0xA5 PUSH7 0xF134A9657BC15C 0xEA LOG2 0x49 0xE0 0x4F DUP15 0xAB NUMBER 0xBC DIV TIMESTAMP PUSH31 0x1DBA800964736F6C6343000807003300000000000000000000000000000000 "
				},
				"gasEstimates": {
					"creation": {
						"codeDepositCost": "245600",
						"executionCost": "287",
						"totalCost": "245887"
					},
					"external": {
						"getArr()": "infinite",
						"listMyFor()": "infinite",
						"listMyWhile()": "infinite",
						"numbers0(uint256)": "infinite",
						"numbers1(uint256)": "infinite"
					}
				},
				"methodIdentifiers": {
					"getArr()": "fb8cbced",
					"listMyFor()": "7778f72c",
					"listMyWhile()": "5cc5fb07",
					"numbers0(uint256)": "c84c7205",
					"numbers1(uint256)": "62b44ce1"
				}
			},
			"storageLayout": {
				"storage": [
					{
						"astId": 5,
						"contract": "contracts/Loops.sol:Loops",
						"label": "numbers0",
						"offset": 0,
						"slot": "0",
						"type": "t_array(t_uint256)15_storage"
					},
					{
						"astId": 9,
						"contract": "contracts/Loops.sol:Loops",
						"label": "numbers1",
						"offset": 0,
						"slot": "15",
						"type": "t_array(t_uint256)15_storage"
					}
				],
				"types": {
					"t_array(t_uint256)15_storage": {
						"base": "t_uint256",
						"encoding": "inplace",
						"label": "uint256[15]",
						"numberOfBytes": "480"
					},
					"t_uint256": {
						"encoding": "inplace",
						"label": "uint256",
						"numberOfBytes": "32"
					}
				}
			},
			"userdoc": {
				"kind": "user",
				"methods": {},
				"version": 1
			}
		}
	}
}