{
	"contracts/Functions.sol": {
		"Functions": {
			"abi": [
				{
					"inputs": [
						{
							"internalType": "uint256",
							"name": "a",
							"type": "uint256"
						},
						{
							"internalType": "uint256",
							"name": "b",
							"type": "uint256"
						}
					],
					"name": "add",
					"outputs": [
						{
							"internalType": "uint256",
							"name": "",
							"type": "uint256"
						}
					],
					"stateMutability": "view",
					"type": "function"
				},
				{
					"inputs": [
						{
							"internalType": "uint256",
							"name": "a",
							"type": "uint256"
						},
						{
							"internalType": "uint256",
							"name": "b",
							"type": "uint256"
						}
					],
					"name": "add2",
					"outputs": [
						{
							"internalType": "uint256",
							"name": "",
							"type": "uint256"
						}
					],
					"stateMutability": "pure",
					"type": "function"
				},
				{
					"inputs": [
						{
							"internalType": "uint256",
							"name": "y",
							"type": "uint256"
						}
					],
					"name": "addNumber",
					"outputs": [
						{
							"internalType": "uint256",
							"name": "",
							"type": "uint256"
						}
					],
					"stateMutability": "view",
					"type": "function"
				},
				{
					"inputs": [
						{
							"internalType": "uint256",
							"name": "newNumber",
							"type": "uint256"
						}
					],
					"name": "setNumber",
					"outputs": [],
					"stateMutability": "nonpayable",
					"type": "function"
				},
				{
					"inputs": [],
					"name": "showNumber",
					"outputs": [
						{
							"internalType": "uint256",
							"name": "",
							"type": "uint256"
						}
					],
					"stateMutability": "view",
					"type": "function"
				},
				{
					"inputs": [],
					"name": "x",
					"outputs": [
						{
							"internalType": "uint256",
							"name": "",
							"type": "uint256"
						}
					],
					"stateMutability": "view",
					"type": "function"
				}
			],
			"devdoc": {
				"kind": "dev",
				"methods": {},
				"version": 1
			},
			"evm": {
				"assembly": "    /* \"contracts/Functions.sol\":64:916  contract Functions {... */\n  mstore(0x40, 0x80)\n    /* \"contracts/Functions.sol\":106:107  3 */\n  0x03\n    /* \"contracts/Functions.sol\":90:107  uint public x = 3 */\n  0x00\n  sstore\n    /* \"contracts/Functions.sol\":214:215  7 */\n  0x07\n    /* \"contracts/Functions.sol\":195:215  uint luckyNumber = 7 */\n  0x01\n  sstore\n    /* \"contracts/Functions.sol\":64:916  contract Functions {... */\n  callvalue\n  dup1\n  iszero\n  tag_1\n  jumpi\n  0x00\n  dup1\n  revert\ntag_1:\n  pop\n  dataSize(sub_0)\n  dup1\n  dataOffset(sub_0)\n  0x00\n  codecopy\n  0x00\n  return\nstop\n\nsub_0: assembly {\n        /* \"contracts/Functions.sol\":64:916  contract Functions {... */\n      mstore(0x40, 0x80)\n      callvalue\n      dup1\n      iszero\n      tag_1\n      jumpi\n      0x00\n      dup1\n      revert\n    tag_1:\n      pop\n      jumpi(tag_2, lt(calldatasize, 0x04))\n      shr(0xe0, calldataload(0x00))\n      dup1\n      0x0c55699c\n      eq\n      tag_3\n      jumpi\n      dup1\n      0x29fcda33\n      eq\n      tag_4\n      jumpi\n      dup1\n      0x3fb5c1cb\n      eq\n      tag_5\n      jumpi\n      dup1\n      0x76dad223\n      eq\n      tag_6\n      jumpi\n      dup1\n      0x771602f7\n      eq\n      tag_7\n      jumpi\n      dup1\n      0xfce68023\n      eq\n      tag_8\n      jumpi\n    tag_2:\n      0x00\n      dup1\n      revert\n        /* \"contracts/Functions.sol\":90:107  uint public x = 3 */\n    tag_3:\n      tag_9\n      tag_10\n      jump\t// in\n    tag_9:\n      mload(0x40)\n      tag_11\n      swap2\n      swap1\n      tag_12\n      jump\t// in\n    tag_11:\n      mload(0x40)\n      dup1\n      swap2\n      sub\n      swap1\n      return\n        /* \"contracts/Functions.sol\":595:667  function add2(uint a, uint b) public pure returns(uint) {... */\n    tag_4:\n      tag_13\n      0x04\n      dup1\n      calldatasize\n      sub\n      dup2\n      add\n      swap1\n      tag_14\n      swap2\n      swap1\n      tag_15\n      jump\t// in\n    tag_14:\n      tag_16\n      jump\t// in\n    tag_13:\n      mload(0x40)\n      tag_17\n      swap2\n      swap1\n      tag_12\n      jump\t// in\n    tag_17:\n      mload(0x40)\n      dup1\n      swap2\n      sub\n      swap1\n      return\n        /* \"contracts/Functions.sol\":309:391  function setNumber(uint newNumber) public {... */\n    tag_5:\n      tag_18\n      0x04\n      dup1\n      calldatasize\n      sub\n      dup2\n      add\n      swap1\n      tag_19\n      swap2\n      swap1\n      tag_20\n      jump\t// in\n    tag_19:\n      tag_21\n      jump\t// in\n    tag_18:\n      stop\n        /* \"contracts/Functions.sol\":221:304  function showNumber() public view returns(uint) {... */\n    tag_6:\n      tag_22\n      tag_23\n      jump\t// in\n    tag_22:\n      mload(0x40)\n      tag_24\n      swap2\n      swap1\n      tag_12\n      jump\t// in\n    tag_24:\n      mload(0x40)\n      dup1\n      swap2\n      sub\n      swap1\n      return\n        /* \"contracts/Functions.sol\":488:589  function add(uint a, uint b) public view returns(uint){... */\n    tag_7:\n      tag_25\n      0x04\n      dup1\n      calldatasize\n      sub\n      dup2\n      add\n      swap1\n      tag_26\n      swap2\n      swap1\n      tag_15\n      jump\t// in\n    tag_26:\n      tag_27\n      jump\t// in\n    tag_25:\n      mload(0x40)\n      tag_28\n      swap2\n      swap1\n      tag_12\n      jump\t// in\n    tag_28:\n      mload(0x40)\n      dup1\n      swap2\n      sub\n      swap1\n      return\n        /* \"contracts/Functions.sol\":397:478  function addNumber(uint y) public view returns(uint){... */\n    tag_8:\n      tag_29\n      0x04\n      dup1\n      calldatasize\n      sub\n      dup2\n      add\n      swap1\n      tag_30\n      swap2\n      swap1\n      tag_20\n      jump\t// in\n    tag_30:\n      tag_31\n      jump\t// in\n    tag_29:\n      mload(0x40)\n      tag_32\n      swap2\n      swap1\n      tag_12\n      jump\t// in\n    tag_32:\n      mload(0x40)\n      dup1\n      swap2\n      sub\n      swap1\n      return\n        /* \"contracts/Functions.sol\":90:107  uint public x = 3 */\n    tag_10:\n      sload(0x00)\n      dup2\n      jump\t// out\n        /* \"contracts/Functions.sol\":595:667  function add2(uint a, uint b) public pure returns(uint) {... */\n    tag_16:\n        /* \"contracts/Functions.sol\":645:649  uint */\n      0x00\n        /* \"contracts/Functions.sol\":595:667  function add2(uint a, uint b) public pure returns(uint) {... */\n      swap3\n      swap2\n      pop\n      pop\n      jump\t// out\n        /* \"contracts/Functions.sol\":309:391  function setNumber(uint newNumber) public {... */\n    tag_21:\n        /* \"contracts/Functions.sol\":375:384  newNumber */\n      dup1\n        /* \"contracts/Functions.sol\":361:372  luckyNumber */\n      0x01\n        /* \"contracts/Functions.sol\":361:384  luckyNumber = newNumber */\n      dup2\n      swap1\n      sstore\n      pop\n        /* \"contracts/Functions.sol\":309:391  function setNumber(uint newNumber) public {... */\n      pop\n      jump\t// out\n        /* \"contracts/Functions.sol\":221:304  function showNumber() public view returns(uint) {... */\n    tag_23:\n        /* \"contracts/Functions.sol\":263:267  uint */\n      0x00\n        /* \"contracts/Functions.sol\":286:297  luckyNumber */\n      sload(0x01)\n        /* \"contracts/Functions.sol\":279:297  return luckyNumber */\n      swap1\n      pop\n        /* \"contracts/Functions.sol\":221:304  function showNumber() public view returns(uint) {... */\n      swap1\n      jump\t// out\n        /* \"contracts/Functions.sol\":488:589  function add(uint a, uint b) public view returns(uint){... */\n    tag_27:\n        /* \"contracts/Functions.sol\":537:541  uint */\n      0x00\n        /* \"contracts/Functions.sol\":567:582  block.timestamp */\n      timestamp\n        /* \"contracts/Functions.sol\":563:564  b */\n      dup3\n        /* \"contracts/Functions.sol\":559:560  a */\n      dup5\n        /* \"contracts/Functions.sol\":559:564  a + b */\n      tag_37\n      swap2\n      swap1\n      tag_38\n      jump\t// in\n    tag_37:\n        /* \"contracts/Functions.sol\":559:582  a + b + block.timestamp */\n      tag_39\n      swap2\n      swap1\n      tag_38\n      jump\t// in\n    tag_39:\n        /* \"contracts/Functions.sol\":552:582  return a + b + block.timestamp */\n      swap1\n      pop\n        /* \"contracts/Functions.sol\":488:589  function add(uint a, uint b) public view returns(uint){... */\n      swap3\n      swap2\n      pop\n      pop\n      jump\t// out\n        /* \"contracts/Functions.sol\":397:478  function addNumber(uint y) public view returns(uint){... */\n    tag_31:\n        /* \"contracts/Functions.sol\":444:448  uint */\n      0x00\n        /* \"contracts/Functions.sol\":470:471  y */\n      dup2\n        /* \"contracts/Functions.sol\":466:467  x */\n      sload(0x00)\n        /* \"contracts/Functions.sol\":466:471  x + y */\n      tag_41\n      swap2\n      swap1\n      tag_38\n      jump\t// in\n    tag_41:\n        /* \"contracts/Functions.sol\":459:471  return x + y */\n      swap1\n      pop\n        /* \"contracts/Functions.sol\":397:478  function addNumber(uint y) public view returns(uint){... */\n      swap2\n      swap1\n      pop\n      jump\t// out\n        /* \"#utility.yul\":7:146   */\n    tag_43:\n        /* \"#utility.yul\":53:58   */\n      0x00\n        /* \"#utility.yul\":91:97   */\n      dup2\n        /* \"#utility.yul\":78:98   */\n      calldataload\n        /* \"#utility.yul\":69:98   */\n      swap1\n      pop\n        /* \"#utility.yul\":107:140   */\n      tag_45\n        /* \"#utility.yul\":134:139   */\n      dup2\n        /* \"#utility.yul\":107:140   */\n      tag_46\n      jump\t// in\n    tag_45:\n        /* \"#utility.yul\":7:146   */\n      swap3\n      swap2\n      pop\n      pop\n      jump\t// out\n        /* \"#utility.yul\":152:481   */\n    tag_20:\n        /* \"#utility.yul\":211:217   */\n      0x00\n        /* \"#utility.yul\":260:262   */\n      0x20\n        /* \"#utility.yul\":248:257   */\n      dup3\n        /* \"#utility.yul\":239:246   */\n      dup5\n        /* \"#utility.yul\":235:258   */\n      sub\n        /* \"#utility.yul\":231:263   */\n      slt\n        /* \"#utility.yul\":228:347   */\n      iszero\n      tag_48\n      jumpi\n        /* \"#utility.yul\":266:345   */\n      tag_49\n      tag_50\n      jump\t// in\n    tag_49:\n        /* \"#utility.yul\":228:347   */\n    tag_48:\n        /* \"#utility.yul\":386:387   */\n      0x00\n        /* \"#utility.yul\":411:464   */\n      tag_51\n        /* \"#utility.yul\":456:463   */\n      dup5\n        /* \"#utility.yul\":447:453   */\n      dup3\n        /* \"#utility.yul\":436:445   */\n      dup6\n        /* \"#utility.yul\":432:454   */\n      add\n        /* \"#utility.yul\":411:464   */\n      tag_43\n      jump\t// in\n    tag_51:\n        /* \"#utility.yul\":401:464   */\n      swap2\n      pop\n        /* \"#utility.yul\":357:474   */\n      pop\n        /* \"#utility.yul\":152:481   */\n      swap3\n      swap2\n      pop\n      pop\n      jump\t// out\n        /* \"#utility.yul\":487:961   */\n    tag_15:\n        /* \"#utility.yul\":555:561   */\n      0x00\n        /* \"#utility.yul\":563:569   */\n      dup1\n        /* \"#utility.yul\":612:614   */\n      0x40\n        /* \"#utility.yul\":600:609   */\n      dup4\n        /* \"#utility.yul\":591:598   */\n      dup6\n        /* \"#utility.yul\":587:610   */\n      sub\n        /* \"#utility.yul\":583:615   */\n      slt\n        /* \"#utility.yul\":580:699   */\n      iszero\n      tag_53\n      jumpi\n        /* \"#utility.yul\":618:697   */\n      tag_54\n      tag_50\n      jump\t// in\n    tag_54:\n        /* \"#utility.yul\":580:699   */\n    tag_53:\n        /* \"#utility.yul\":738:739   */\n      0x00\n        /* \"#utility.yul\":763:816   */\n      tag_55\n        /* \"#utility.yul\":808:815   */\n      dup6\n        /* \"#utility.yul\":799:805   */\n      dup3\n        /* \"#utility.yul\":788:797   */\n      dup7\n        /* \"#utility.yul\":784:806   */\n      add\n        /* \"#utility.yul\":763:816   */\n      tag_43\n      jump\t// in\n    tag_55:\n        /* \"#utility.yul\":753:816   */\n      swap3\n      pop\n        /* \"#utility.yul\":709:826   */\n      pop\n        /* \"#utility.yul\":865:867   */\n      0x20\n        /* \"#utility.yul\":891:944   */\n      tag_56\n        /* \"#utility.yul\":936:943   */\n      dup6\n        /* \"#utility.yul\":927:933   */\n      dup3\n        /* \"#utility.yul\":916:925   */\n      dup7\n        /* \"#utility.yul\":912:934   */\n      add\n        /* \"#utility.yul\":891:944   */\n      tag_43\n      jump\t// in\n    tag_56:\n        /* \"#utility.yul\":881:944   */\n      swap2\n      pop\n        /* \"#utility.yul\":836:954   */\n      pop\n        /* \"#utility.yul\":487:961   */\n      swap3\n      pop\n      swap3\n      swap1\n      pop\n      jump\t// out\n        /* \"#utility.yul\":967:1085   */\n    tag_57:\n        /* \"#utility.yul\":1054:1078   */\n      tag_59\n        /* \"#utility.yul\":1072:1077   */\n      dup2\n        /* \"#utility.yul\":1054:1078   */\n      tag_60\n      jump\t// in\n    tag_59:\n        /* \"#utility.yul\":1049:1052   */\n      dup3\n        /* \"#utility.yul\":1042:1079   */\n      mstore\n        /* \"#utility.yul\":967:1085   */\n      pop\n      pop\n      jump\t// out\n        /* \"#utility.yul\":1091:1313   */\n    tag_12:\n        /* \"#utility.yul\":1184:1188   */\n      0x00\n        /* \"#utility.yul\":1222:1224   */\n      0x20\n        /* \"#utility.yul\":1211:1220   */\n      dup3\n        /* \"#utility.yul\":1207:1225   */\n      add\n        /* \"#utility.yul\":1199:1225   */\n      swap1\n      pop\n        /* \"#utility.yul\":1235:1306   */\n      tag_62\n        /* \"#utility.yul\":1303:1304   */\n      0x00\n        /* \"#utility.yul\":1292:1301   */\n      dup4\n        /* \"#utility.yul\":1288:1305   */\n      add\n        /* \"#utility.yul\":1279:1285   */\n      dup5\n        /* \"#utility.yul\":1235:1306   */\n      tag_57\n      jump\t// in\n    tag_62:\n        /* \"#utility.yul\":1091:1313   */\n      swap3\n      swap2\n      pop\n      pop\n      jump\t// out\n        /* \"#utility.yul\":1400:1705   */\n    tag_38:\n        /* \"#utility.yul\":1440:1443   */\n      0x00\n        /* \"#utility.yul\":1459:1479   */\n      tag_66\n        /* \"#utility.yul\":1477:1478   */\n      dup3\n        /* \"#utility.yul\":1459:1479   */\n      tag_60\n      jump\t// in\n    tag_66:\n        /* \"#utility.yul\":1454:1479   */\n      swap2\n      pop\n        /* \"#utility.yul\":1493:1513   */\n      tag_67\n        /* \"#utility.yul\":1511:1512   */\n      dup4\n        /* \"#utility.yul\":1493:1513   */\n      tag_60\n      jump\t// in\n    tag_67:\n        /* \"#utility.yul\":1488:1513   */\n      swap3\n      pop\n        /* \"#utility.yul\":1647:1648   */\n      dup3\n        /* \"#utility.yul\":1579:1645   */\n      0xffffffffffffffffffffffffffffffffffffffffffffffffffffffffffffffff\n        /* \"#utility.yul\":1575:1649   */\n      sub\n        /* \"#utility.yul\":1572:1573   */\n      dup3\n        /* \"#utility.yul\":1569:1650   */\n      gt\n        /* \"#utility.yul\":1566:1673   */\n      iszero\n      tag_68\n      jumpi\n        /* \"#utility.yul\":1653:1671   */\n      tag_69\n      tag_70\n      jump\t// in\n    tag_69:\n        /* \"#utility.yul\":1566:1673   */\n    tag_68:\n        /* \"#utility.yul\":1697:1698   */\n      dup3\n        /* \"#utility.yul\":1694:1695   */\n      dup3\n        /* \"#utility.yul\":1690:1699   */\n      add\n        /* \"#utility.yul\":1683:1699   */\n      swap1\n      pop\n        /* \"#utility.yul\":1400:1705   */\n      swap3\n      swap2\n      pop\n      pop\n      jump\t// out\n        /* \"#utility.yul\":1711:1788   */\n    tag_60:\n        /* \"#utility.yul\":1748:1755   */\n      0x00\n        /* \"#utility.yul\":1777:1782   */\n      dup2\n        /* \"#utility.yul\":1766:1782   */\n      swap1\n      pop\n        /* \"#utility.yul\":1711:1788   */\n      swap2\n      swap1\n      pop\n      jump\t// out\n        /* \"#utility.yul\":1794:1974   */\n    tag_70:\n        /* \"#utility.yul\":1842:1919   */\n      0x4e487b7100000000000000000000000000000000000000000000000000000000\n        /* \"#utility.yul\":1839:1840   */\n      0x00\n        /* \"#utility.yul\":1832:1920   */\n      mstore\n        /* \"#utility.yul\":1939:1943   */\n      0x11\n        /* \"#utility.yul\":1936:1937   */\n      0x04\n        /* \"#utility.yul\":1929:1944   */\n      mstore\n        /* \"#utility.yul\":1963:1967   */\n      0x24\n        /* \"#utility.yul\":1960:1961   */\n      0x00\n        /* \"#utility.yul\":1953:1968   */\n      revert\n        /* \"#utility.yul\":2103:2220   */\n    tag_50:\n        /* \"#utility.yul\":2212:2213   */\n      0x00\n        /* \"#utility.yul\":2209:2210   */\n      dup1\n        /* \"#utility.yul\":2202:2214   */\n      revert\n        /* \"#utility.yul\":2226:2348   */\n    tag_46:\n        /* \"#utility.yul\":2299:2323   */\n      tag_77\n        /* \"#utility.yul\":2317:2322   */\n      dup2\n        /* \"#utility.yul\":2299:2323   */\n      tag_60\n      jump\t// in\n    tag_77:\n        /* \"#utility.yul\":2292:2297   */\n      dup2\n        /* \"#utility.yul\":2289:2324   */\n      eq\n        /* \"#utility.yul\":2279:2342   */\n      tag_78\n      jumpi\n        /* \"#utility.yul\":2338:2339   */\n      0x00\n        /* \"#utility.yul\":2335:2336   */\n      dup1\n        /* \"#utility.yul\":2328:2340   */\n      revert\n        /* \"#utility.yul\":2279:2342   */\n    tag_78:\n        /* \"#utility.yul\":2226:2348   */\n      pop\n      jump\t// out\n\n    auxdata: 0xa26469706673582212205b2c0000899334ebee5806125279833f3aaab346be04f62ce261299b717a6a4864736f6c63430008070033\n}\n",
				"bytecode": {
					"linkReferences": {},
					"object": "60806040526003600055600760015534801561001a57600080fd5b506103368061002a6000396000f3fe608060405234801561001057600080fd5b50600436106100625760003560e01c80630c55699c1461006757806329fcda33146100855780633fb5c1cb146100b557806376dad223146100d1578063771602f7146100ef578063fce680231461011f575b600080fd5b61006f61014f565b60405161007c919061023a565b60405180910390f35b61009f600480360381019061009a91906101eb565b610155565b6040516100ac919061023a565b60405180910390f35b6100cf60048036038101906100ca91906101be565b61015d565b005b6100d9610167565b6040516100e6919061023a565b60405180910390f35b610109600480360381019061010491906101eb565b610171565b604051610116919061023a565b60405180910390f35b610139600480360381019061013491906101be565b610192565b604051610146919061023a565b60405180910390f35b60005481565b600092915050565b8060018190555050565b6000600154905090565b60004282846101809190610255565b61018a9190610255565b905092915050565b6000816000546101a29190610255565b9050919050565b6000813590506101b8816102e9565b92915050565b6000602082840312156101d4576101d36102e4565b5b60006101e2848285016101a9565b91505092915050565b60008060408385031215610202576102016102e4565b5b6000610210858286016101a9565b9250506020610221858286016101a9565b9150509250929050565b610234816102ab565b82525050565b600060208201905061024f600083018461022b565b92915050565b6000610260826102ab565b915061026b836102ab565b9250827fffffffffffffffffffffffffffffffffffffffffffffffffffffffffffffffff038211156102a05761029f6102b5565b5b828201905092915050565b6000819050919050565b7f4e487b7100000000000000000000000000000000000000000000000000000000600052601160045260246000fd5b600080fd5b6102f2816102ab565b81146102fd57600080fd5b5056fea26469706673582212205b2c0000899334ebee5806125279833f3aaab346be04f62ce261299b717a6a4864736f6c63430008070033",
					"opcodes": "PUSH1 0x80 PUSH1 0x40 MSTORE PUSH1 0x3 PUSH1 0x0 SSTORE PUSH1 0x7 PUSH1 0x1 SSTORE CALLVALUE DUP1 ISZERO PUSH2 0x1A JUMPI PUSH1 0x0 DUP1 REVERT JUMPDEST POP PUSH2 0x336 DUP1 PUSH2 0x2A PUSH1 0x0 CODECOPY PUSH1 0x0 RETURN INVALID PUSH1 0x80 PUSH1 0x40 MSTORE CALLVALUE DUP1 ISZERO PUSH2 0x10 JUMPI PUSH1 0x0 DUP1 REVERT JUMPDEST POP PUSH1 0x4 CALLDATASIZE LT PUSH2 0x62 JUMPI PUSH1 0x0 CALLDATALOAD PUSH1 0xE0 SHR DUP1 PUSH4 0xC55699C EQ PUSH2 0x67 JUMPI DUP1 PUSH4 0x29FCDA33 EQ PUSH2 0x85 JUMPI DUP1 PUSH4 0x3FB5C1CB EQ PUSH2 0xB5 JUMPI DUP1 PUSH4 0x76DAD223 EQ PUSH2 0xD1 JUMPI DUP1 PUSH4 0x771602F7 EQ PUSH2 0xEF JUMPI DUP1 PUSH4 0xFCE68023 EQ PUSH2 0x11F JUMPI JUMPDEST PUSH1 0x0 DUP1 REVERT JUMPDEST PUSH2 0x6F PUSH2 0x14F JUMP JUMPDEST PUSH1 0x40 MLOAD PUSH2 0x7C SWAP2 SWAP1 PUSH2 0x23A JUMP JUMPDEST PUSH1 0x40 MLOAD DUP1 SWAP2 SUB SWAP1 RETURN JUMPDEST PUSH2 0x9F PUSH1 0x4 DUP1 CALLDATASIZE SUB DUP2 ADD SWAP1 PUSH2 0x9A SWAP2 SWAP1 PUSH2 0x1EB JUMP JUMPDEST PUSH2 0x155 JUMP JUMPDEST PUSH1 0x40 MLOAD PUSH2 0xAC SWAP2 SWAP1 PUSH2 0x23A JUMP JUMPDEST PUSH1 0x40 MLOAD DUP1 SWAP2 SUB SWAP1 RETURN JUMPDEST PUSH2 0xCF PUSH1 0x4 DUP1 CALLDATASIZE SUB DUP2 ADD SWAP1 PUSH2 0xCA SWAP2 SWAP1 PUSH2 0x1BE JUMP JUMPDEST PUSH2 0x15D JUMP JUMPDEST STOP JUMPDEST PUSH2 0xD9 PUSH2 0x167 JUMP JUMPDEST PUSH1 0x40 MLOAD PUSH2 0xE6 SWAP2 SWAP1 PUSH2 0x23A JUMP JUMPDEST PUSH1 0x40 MLOAD DUP1 SWAP2 SUB SWAP1 RETURN JUMPDEST PUSH2 0x109 PUSH1 0x4 DUP1 CALLDATASIZE SUB DUP2 ADD SWAP1 PUSH2 0x104 SWAP2 SWAP1 PUSH2 0x1EB JUMP JUMPDEST PUSH2 0x171 JUMP JUMPDEST PUSH1 0x40 MLOAD PUSH2 0x116 SWAP2 SWAP1 PUSH2 0x23A JUMP JUMPDEST PUSH1 0x40 MLOAD DUP1 SWAP2 SUB SWAP1 RETURN JUMPDEST PUSH2 0x139 PUSH1 0x4 DUP1 CALLDATASIZE SUB DUP2 ADD SWAP1 PUSH2 0x134 SWAP2 SWAP1 PUSH2 0x1BE JUMP JUMPDEST PUSH2 0x192 JUMP JUMPDEST PUSH1 0x40 MLOAD PUSH2 0x146 SWAP2 SWAP1 PUSH2 0x23A JUMP JUMPDEST PUSH1 0x40 MLOAD DUP1 SWAP2 SUB SWAP1 RETURN JUMPDEST PUSH1 0x0 SLOAD DUP2 JUMP JUMPDEST PUSH1 0x0 SWAP3 SWAP2 POP POP JUMP JUMPDEST DUP1 PUSH1 0x1 DUP2 SWAP1 SSTORE POP POP JUMP JUMPDEST PUSH1 0x0 PUSH1 0x1 SLOAD SWAP1 POP SWAP1 JUMP JUMPDEST PUSH1 0x0 TIMESTAMP DUP3 DUP5 PUSH2 0x180 SWAP2 SWAP1 PUSH2 0x255 JUMP JUMPDEST PUSH2 0x18A SWAP2 SWAP1 PUSH2 0x255 JUMP JUMPDEST SWAP1 POP SWAP3 SWAP2 POP POP JUMP JUMPDEST PUSH1 0x0 DUP2 PUSH1 0x0 SLOAD PUSH2 0x1A2 SWAP2 SWAP1 PUSH2 0x255 JUMP JUMPDEST SWAP1 POP SWAP2 SWAP1 POP JUMP JUMPDEST PUSH1 0x0 DUP2 CALLDATALOAD SWAP1 POP PUSH2 0x1B8 DUP2 PUSH2 0x2E9 JUMP JUMPDEST SWAP3 SWAP2 POP POP JUMP JUMPDEST PUSH1 0x0 PUSH1 0x20 DUP3 DUP5 SUB SLT ISZERO PUSH2 0x1D4 JUMPI PUSH2 0x1D3 PUSH2 0x2E4 JUMP JUMPDEST JUMPDEST PUSH1 0x0 PUSH2 0x1E2 DUP5 DUP3 DUP6 ADD PUSH2 0x1A9 JUMP JUMPDEST SWAP2 POP POP SWAP3 SWAP2 POP POP JUMP JUMPDEST PUSH1 0x0 DUP1 PUSH1 0x40 DUP4 DUP6 SUB SLT ISZERO PUSH2 0x202 JUMPI PUSH2 0x201 PUSH2 0x2E4 JUMP JUMPDEST JUMPDEST PUSH1 0x0 PUSH2 0x210 DUP6 DUP3 DUP7 ADD PUSH2 0x1A9 JUMP JUMPDEST SWAP3 POP POP PUSH1 0x20 PUSH2 0x221 DUP6 DUP3 DUP7 ADD PUSH2 0x1A9 JUMP JUMPDEST SWAP2 POP POP SWAP3 POP SWAP3 SWAP1 POP JUMP JUMPDEST PUSH2 0x234 DUP2 PUSH2 0x2AB JUMP JUMPDEST DUP3 MSTORE POP POP JUMP JUMPDEST PUSH1 0x0 PUSH1 0x20 DUP3 ADD SWAP1 POP PUSH2 0x24F PUSH1 0x0 DUP4 ADD DUP5 PUSH2 0x22B JUMP JUMPDEST SWAP3 SWAP2 POP POP JUMP JUMPDEST PUSH1 0x0 PUSH2 0x260 DUP3 PUSH2 0x2AB JUMP JUMPDEST SWAP2 POP PUSH2 0x26B DUP4 PUSH2 0x2AB JUMP JUMPDEST SWAP3 POP DUP3 PUSH32 0xFFFFFFFFFFFFFFFFFFFFFFFFFFFFFFFFFFFFFFFFFFFFFFFFFFFFFFFFFFFFFFFF SUB DUP3 GT ISZERO PUSH2 0x2A0 JUMPI PUSH2 0x29F PUSH2 0x2B5 JUMP JUMPDEST JUMPDEST DUP3 DUP3 ADD SWAP1 POP SWAP3 SWAP2 POP POP JUMP JUMPDEST PUSH1 0x0 DUP2 SWAP1 POP SWAP2 SWAP1 POP JUMP JUMPDEST PUSH32 0x4E487B7100000000000000000000000000000000000000000000000000000000 PUSH1 0x0 MSTORE PUSH1 0x11 PUSH1 0x4 MSTORE PUSH1 0x24 PUSH1 0x0 REVERT JUMPDEST PUSH1 0x0 DUP1 REVERT JUMPDEST PUSH2 0x2F2 DUP2 PUSH2 0x2AB JUMP JUMPDEST DUP2 EQ PUSH2 0x2FD JUMPI PUSH1 0x0 DUP1 REVERT JUMPDEST POP JUMP INVALID LOG2 PUSH5 0x6970667358 0x22 SLT KECCAK256 JUMPDEST 0x2C STOP STOP DUP10 SWAP4 CALLVALUE 0xEB 0xEE PC MOD SLT MSTORE PUSH26 0x833F3AAAB346BE04F62CE261299B717A6A4864736F6C63430008 SMOD STOP CALLER "
				},
				"gasEstimates": {
					"creation": {
						"codeDepositCost": "164400",
						"executionCost": "44420",
						"totalCost": "208820"
					},
					"external": {
						"add(uint256,uint256)": "infinite",
						"add2(uint256,uint256)": "infinite",
						"addNumber(uint256)": "infinite",
						"setNumber(uint256)": "22542",
						"showNumber()": "2481",
						"x()": "2407"
					}
				},
				"methodIdentifiers": {
					"add(uint256,uint256)": "771602f7",
					"add2(uint256,uint256)": "29fcda33",
					"addNumber(uint256)": "fce68023",
					"setNumber(uint256)": "3fb5c1cb",
					"showNumber()": "76dad223",
					"x()": "0c55699c"
				}
			},
			"storageLayout": {
				"storage": [
					{
						"astId": 4,
						"contract": "contracts/Functions.sol:Functions",
						"label": "x",
						"offset": 0,
						"slot": "0",
						"type": "t_uint256"
					},
					{
						"astId": 7,
						"contract": "contracts/Functions.sol:Functions",
						"label": "luckyNumber",
						"offset": 0,
						"slot": "1",
						"type": "t_uint256"
					}
				],
				"types": {
					"t_uint256": {
						"encoding": "inplace",
						"label": "uint256",
						"numberOfBytes": "32"
					}
				}
			},
			"userdoc": {
				"kind": "user",
				"methods": {},
				"version": 1
			}
		}
	}
}