{
	"contracts/Errors.sol": {
		"Errors": {
			"abi": [
				{
					"inputs": [
						{
							"internalType": "string",
							"name": "reason",
							"type": "string"
						}
					],
					"name": "Deny",
					"type": "error"
				},
				{
					"inputs": [
						{
							"internalType": "address",
							"name": "user",
							"type": "address"
						},
						{
							"internalType": "uint256",
							"name": "exceedingAmount",
							"type": "uint256"
						}
					],
					"name": "ExceedingAmount",
					"type": "error"
				},
				{
					"stateMutability": "payable",
					"type": "fallback"
				},
				{
					"inputs": [],
					"name": "pay",
					"outputs": [],
					"stateMutability": "payable",
					"type": "function"
				},
				{
					"inputs": [],
					"name": "totalBalance",
					"outputs": [
						{
							"internalType": "uint256",
							"name": "",
							"type": "uint256"
						}
					],
					"stateMutability": "view",
					"type": "function"
				},
				{
					"inputs": [
						{
							"internalType": "address",
							"name": "",
							"type": "address"
						}
					],
					"name": "userBalances",
					"outputs": [
						{
							"internalType": "uint256",
							"name": "",
							"type": "uint256"
						}
					],
					"stateMutability": "view",
					"type": "function"
				},
				{
					"inputs": [
						{
							"internalType": "uint256",
							"name": "_amount",
							"type": "uint256"
						}
					],
					"name": "withdraw",
					"outputs": [],
					"stateMutability": "nonpayable",
					"type": "function"
				},
				{
					"stateMutability": "payable",
					"type": "receive"
				}
			],
			"devdoc": {
				"kind": "dev",
				"methods": {},
				"version": 1
			},
			"evm": {
				"assembly": "    /* \"contracts/Errors.sol\":64:1255  contract Errors {... */\n  mstore(0x40, 0x80)\n  callvalue\n  dup1\n  iszero\n  tag_1\n  jumpi\n  0x00\n  dup1\n  revert\ntag_1:\n  pop\n  dataSize(sub_0)\n  dup1\n  dataOffset(sub_0)\n  0x00\n  codecopy\n  0x00\n  return\nstop\n\nsub_0: assembly {\n        /* \"contracts/Errors.sol\":64:1255  contract Errors {... */\n      mstore(0x40, 0x80)\n      jumpi(tag_1, lt(calldatasize, 0x04))\n      shr(0xe0, calldataload(0x00))\n      dup1\n      0x1b9265b8\n      eq\n      tag_3\n      jumpi\n      dup1\n      0x26224c64\n      eq\n      tag_4\n      jumpi\n      dup1\n      0x2e1a7d4d\n      eq\n      tag_5\n      jumpi\n      dup1\n      0xad7a672f\n      eq\n      tag_6\n      jumpi\n      jump(tag_2)\n    tag_1:\n      jumpi(tag_2, calldatasize)\n        /* \"contracts/Errors.sol\":314:341  Deny(\"No direct payments.\") */\n      mload(0x40)\n      0x1948a7bc00000000000000000000000000000000000000000000000000000000\n      dup2\n      mstore\n      0x04\n      add\n      tag_9\n      swap1\n      tag_10\n      jump\t// in\n    tag_9:\n      mload(0x40)\n      dup1\n      swap2\n      sub\n      swap1\n      revert\n        /* \"contracts/Errors.sol\":64:1255  contract Errors {... */\n    tag_2:\n      stop\n        /* \"contracts/Errors.sol\":399:602  function pay() noZero(msg.value) external payable {... */\n    tag_3:\n      tag_13\n      tag_14\n      jump\t// in\n    tag_13:\n      stop\n        /* \"contracts/Errors.sol\":120:167  mapping(address => uint256) public userBalances */\n    tag_4:\n      callvalue\n      dup1\n      iszero\n      tag_15\n      jumpi\n      0x00\n      dup1\n      revert\n    tag_15:\n      pop\n      tag_16\n      0x04\n      dup1\n      calldatasize\n      sub\n      dup2\n      add\n      swap1\n      tag_17\n      swap2\n      swap1\n      tag_18\n      jump\t// in\n    tag_17:\n      tag_19\n      jump\t// in\n    tag_16:\n      mload(0x40)\n      tag_20\n      swap2\n      swap1\n      tag_21\n      jump\t// in\n    tag_20:\n      mload(0x40)\n      dup1\n      swap2\n      sub\n      swap1\n      return\n        /* \"contracts/Errors.sol\":608:1164  function withdraw(uint256 _amount) noZero(_amount) external {... */\n    tag_5:\n      callvalue\n      dup1\n      iszero\n      tag_22\n      jumpi\n      0x00\n      dup1\n      revert\n    tag_22:\n      pop\n      tag_23\n      0x04\n      dup1\n      calldatasize\n      sub\n      dup2\n      add\n      swap1\n      tag_24\n      swap2\n      swap1\n      tag_25\n      jump\t// in\n    tag_24:\n      tag_26\n      jump\t// in\n    tag_23:\n      stop\n        /* \"contracts/Errors.sol\":87:114  uint256 public totalBalance */\n    tag_6:\n      callvalue\n      dup1\n      iszero\n      tag_27\n      jumpi\n      0x00\n      dup1\n      revert\n    tag_27:\n      pop\n      tag_28\n      tag_29\n      jump\t// in\n    tag_28:\n      mload(0x40)\n      tag_30\n      swap2\n      swap1\n      tag_21\n      jump\t// in\n    tag_30:\n      mload(0x40)\n      dup1\n      swap2\n      sub\n      swap1\n      return\n        /* \"contracts/Errors.sol\":399:602  function pay() noZero(msg.value) external payable {... */\n    tag_14:\n        /* \"contracts/Errors.sol\":421:430  msg.value */\n      callvalue\n        /* \"contracts/Errors.sol\":1232:1233  0 */\n      0x00\n        /* \"contracts/Errors.sol\":1221:1228  _amount */\n      dup2\n        /* \"contracts/Errors.sol\":1221:1233  _amount != 0 */\n      eq\n      iszero\n        /* \"contracts/Errors.sol\":1213:1234  require(_amount != 0) */\n      tag_32\n      jumpi\n      0x00\n      dup1\n      revert\n    tag_32:\n        /* \"contracts/Errors.sol\":480:487  1 ether */\n      0x0de0b6b3a7640000\n        /* \"contracts/Errors.sol\":467:476  msg.value */\n      callvalue\n        /* \"contracts/Errors.sol\":467:487  msg.value == 1 ether */\n      eq\n        /* \"contracts/Errors.sol\":459:516  require(msg.value == 1 ether, \"Only payments in 1 ether\") */\n      tag_34\n      jumpi\n      mload(0x40)\n      0x08c379a000000000000000000000000000000000000000000000000000000000\n      dup2\n      mstore\n      0x04\n      add\n      tag_35\n      swap1\n      tag_36\n      jump\t// in\n    tag_35:\n      mload(0x40)\n      dup1\n      swap2\n      sub\n      swap1\n      revert\n    tag_34:\n        /* \"contracts/Errors.sol\":543:550  1 ether */\n      0x0de0b6b3a7640000\n        /* \"contracts/Errors.sol\":527:539  totalBalance */\n      0x00\n      dup1\n        /* \"contracts/Errors.sol\":527:550  totalBalance += 1 ether */\n      dup3\n      dup3\n      sload\n      tag_37\n      swap2\n      swap1\n      tag_38\n      jump\t// in\n    tag_37:\n      swap3\n      pop\n      pop\n      dup2\n      swap1\n      sstore\n      pop\n        /* \"contracts/Errors.sol\":588:595  1 ether */\n      0x0de0b6b3a7640000\n        /* \"contracts/Errors.sol\":560:572  userBalances */\n      0x01\n        /* \"contracts/Errors.sol\":560:584  userBalances[msg.sender] */\n      0x00\n        /* \"contracts/Errors.sol\":573:583  msg.sender */\n      caller\n        /* \"contracts/Errors.sol\":560:584  userBalances[msg.sender] */\n      0xffffffffffffffffffffffffffffffffffffffff\n      and\n      0xffffffffffffffffffffffffffffffffffffffff\n      and\n      dup2\n      mstore\n      0x20\n      add\n      swap1\n      dup2\n      mstore\n      0x20\n      add\n      0x00\n      keccak256\n      0x00\n        /* \"contracts/Errors.sol\":560:595  userBalances[msg.sender] += 1 ether */\n      dup3\n      dup3\n      sload\n      tag_39\n      swap2\n      swap1\n      tag_38\n      jump\t// in\n    tag_39:\n      swap3\n      pop\n      pop\n      dup2\n      swap1\n      sstore\n      pop\n        /* \"contracts/Errors.sol\":399:602  function pay() noZero(msg.value) external payable {... */\n      pop\n      jump\t// out\n        /* \"contracts/Errors.sol\":120:167  mapping(address => uint256) public userBalances */\n    tag_19:\n      mstore(0x20, 0x01)\n      dup1\n      0x00\n      mstore\n      keccak256(0x00, 0x40)\n      0x00\n      swap2\n      pop\n      swap1\n      pop\n      sload\n      dup2\n      jump\t// out\n        /* \"contracts/Errors.sol\":608:1164  function withdraw(uint256 _amount) noZero(_amount) external {... */\n    tag_26:\n        /* \"contracts/Errors.sol\":650:657  _amount */\n      dup1\n        /* \"contracts/Errors.sol\":1232:1233  0 */\n      0x00\n        /* \"contracts/Errors.sol\":1221:1228  _amount */\n      dup2\n        /* \"contracts/Errors.sol\":1221:1233  _amount != 0 */\n      eq\n      iszero\n        /* \"contracts/Errors.sol\":1213:1234  require(_amount != 0) */\n      tag_41\n      jumpi\n      0x00\n      dup1\n      revert\n    tag_41:\n        /* \"contracts/Errors.sol\":678:699  uint256 initalBalance */\n      0x00\n        /* \"contracts/Errors.sol\":702:714  totalBalance */\n      dup1\n      sload\n        /* \"contracts/Errors.sol\":678:714  uint256 initalBalance = totalBalance */\n      swap1\n      pop\n        /* \"contracts/Errors.sol\":835:842  _amount */\n      dup3\n        /* \"contracts/Errors.sol\":808:820  userBalances */\n      0x01\n        /* \"contracts/Errors.sol\":808:832  userBalances[msg.sender] */\n      0x00\n        /* \"contracts/Errors.sol\":821:831  msg.sender */\n      caller\n        /* \"contracts/Errors.sol\":808:832  userBalances[msg.sender] */\n      0xffffffffffffffffffffffffffffffffffffffff\n      and\n      0xffffffffffffffffffffffffffffffffffffffff\n      and\n      dup2\n      mstore\n      0x20\n      add\n      swap1\n      dup2\n      mstore\n      0x20\n      add\n      0x00\n      keccak256\n      sload\n        /* \"contracts/Errors.sol\":808:842  userBalances[msg.sender] < _amount */\n      lt\n        /* \"contracts/Errors.sol\":805:985  if(userBalances[msg.sender] < _amount){... */\n      iszero\n      tag_43\n      jumpi\n        /* \"contracts/Errors.sol\":926:936  msg.sender */\n      caller\n        /* \"contracts/Errors.sol\":948:960  userBalances */\n      0x01\n        /* \"contracts/Errors.sol\":948:972  userBalances[msg.sender] */\n      0x00\n        /* \"contracts/Errors.sol\":961:971  msg.sender */\n      caller\n        /* \"contracts/Errors.sol\":948:972  userBalances[msg.sender] */\n      0xffffffffffffffffffffffffffffffffffffffff\n      and\n      0xffffffffffffffffffffffffffffffffffffffff\n      and\n      dup2\n      mstore\n      0x20\n      add\n      swap1\n      dup2\n      mstore\n      0x20\n      add\n      0x00\n      keccak256\n      sload\n        /* \"contracts/Errors.sol\":938:945  _amount */\n      dup5\n        /* \"contracts/Errors.sol\":938:972  _amount - userBalances[msg.sender] */\n      tag_44\n      swap2\n      swap1\n      tag_45\n      jump\t// in\n    tag_44:\n        /* \"contracts/Errors.sol\":910:973  ExceedingAmount(msg.sender, _amount - userBalances[msg.sender]) */\n      mload(0x40)\n      0xb31a046900000000000000000000000000000000000000000000000000000000\n      dup2\n      mstore\n      0x04\n      add\n      tag_46\n      swap3\n      swap2\n      swap1\n      tag_47\n      jump\t// in\n    tag_46:\n      mload(0x40)\n      dup1\n      swap2\n      sub\n      swap1\n      revert\n        /* \"contracts/Errors.sol\":805:985  if(userBalances[msg.sender] < _amount){... */\n    tag_43:\n        /* \"contracts/Errors.sol\":1011:1018  _amount */\n      dup3\n        /* \"contracts/Errors.sol\":995:1007  totalBalance */\n      0x00\n      dup1\n        /* \"contracts/Errors.sol\":995:1018  totalBalance -= _amount */\n      dup3\n      dup3\n      sload\n      tag_48\n      swap2\n      swap1\n      tag_45\n      jump\t// in\n    tag_48:\n      swap3\n      pop\n      pop\n      dup2\n      swap1\n      sstore\n      pop\n        /* \"contracts/Errors.sol\":1056:1063  _amount */\n      dup3\n        /* \"contracts/Errors.sol\":1028:1040  userBalances */\n      0x01\n        /* \"contracts/Errors.sol\":1028:1052  userBalances[msg.sender] */\n      0x00\n        /* \"contracts/Errors.sol\":1041:1051  msg.sender */\n      caller\n        /* \"contracts/Errors.sol\":1028:1052  userBalances[msg.sender] */\n      0xffffffffffffffffffffffffffffffffffffffff\n      and\n      0xffffffffffffffffffffffffffffffffffffffff\n      and\n      dup2\n      mstore\n      0x20\n      add\n      swap1\n      dup2\n      mstore\n      0x20\n      add\n      0x00\n      keccak256\n      0x00\n        /* \"contracts/Errors.sol\":1028:1063  userBalances[msg.sender] -= _amount */\n      dup3\n      dup3\n      sload\n      tag_49\n      swap2\n      swap1\n      tag_45\n      jump\t// in\n    tag_49:\n      swap3\n      pop\n      pop\n      dup2\n      swap1\n      sstore\n      pop\n        /* \"contracts/Errors.sol\":1081:1091  msg.sender */\n      caller\n        /* \"contracts/Errors.sol\":1073:1101  payable(msg.sender).transfer */\n      0xffffffffffffffffffffffffffffffffffffffff\n      and\n        /* \"contracts/Errors.sol\":1073:1110  payable(msg.sender).transfer(_amount) */\n      0x08fc\n        /* \"contracts/Errors.sol\":1102:1109  _amount */\n      dup5\n        /* \"contracts/Errors.sol\":1073:1110  payable(msg.sender).transfer(_amount) */\n      swap1\n      dup2\n      iszero\n      mul\n      swap1\n      mload(0x40)\n      0x00\n      mload(0x40)\n      dup1\n      dup4\n      sub\n      dup2\n      dup6\n      dup9\n      dup9\n      call\n      swap4\n      pop\n      pop\n      pop\n      pop\n      iszero\n      dup1\n      iszero\n      tag_51\n      jumpi\n      returndatasize\n      0x00\n      dup1\n      returndatacopy\n      revert(0x00, returndatasize)\n    tag_51:\n      pop\n        /* \"contracts/Errors.sol\":1143:1156  initalBalance */\n      dup1\n        /* \"contracts/Errors.sol\":1128:1140  totalBalance */\n      sload(0x00)\n        /* \"contracts/Errors.sol\":1128:1156  totalBalance < initalBalance */\n      lt\n        /* \"contracts/Errors.sol\":1121:1157  assert(totalBalance < initalBalance) */\n      tag_52\n      jumpi\n      tag_53\n      tag_54\n      jump\t// in\n    tag_53:\n    tag_52:\n        /* \"contracts/Errors.sol\":668:1164  {... */\n      pop\n        /* \"contracts/Errors.sol\":608:1164  function withdraw(uint256 _amount) noZero(_amount) external {... */\n      pop\n      pop\n      jump\t// out\n        /* \"contracts/Errors.sol\":87:114  uint256 public totalBalance */\n    tag_29:\n      sload(0x00)\n      dup2\n      jump\t// out\n        /* \"#utility.yul\":7:146   */\n    tag_56:\n        /* \"#utility.yul\":53:58   */\n      0x00\n        /* \"#utility.yul\":91:97   */\n      dup2\n        /* \"#utility.yul\":78:98   */\n      calldataload\n        /* \"#utility.yul\":69:98   */\n      swap1\n      pop\n        /* \"#utility.yul\":107:140   */\n      tag_58\n        /* \"#utility.yul\":134:139   */\n      dup2\n        /* \"#utility.yul\":107:140   */\n      tag_59\n      jump\t// in\n    tag_58:\n        /* \"#utility.yul\":7:146   */\n      swap3\n      swap2\n      pop\n      pop\n      jump\t// out\n        /* \"#utility.yul\":152:291   */\n    tag_60:\n        /* \"#utility.yul\":198:203   */\n      0x00\n        /* \"#utility.yul\":236:242   */\n      dup2\n        /* \"#utility.yul\":223:243   */\n      calldataload\n        /* \"#utility.yul\":214:243   */\n      swap1\n      pop\n        /* \"#utility.yul\":252:285   */\n      tag_62\n        /* \"#utility.yul\":279:284   */\n      dup2\n        /* \"#utility.yul\":252:285   */\n      tag_63\n      jump\t// in\n    tag_62:\n        /* \"#utility.yul\":152:291   */\n      swap3\n      swap2\n      pop\n      pop\n      jump\t// out\n        /* \"#utility.yul\":297:626   */\n    tag_18:\n        /* \"#utility.yul\":356:362   */\n      0x00\n        /* \"#utility.yul\":405:407   */\n      0x20\n        /* \"#utility.yul\":393:402   */\n      dup3\n        /* \"#utility.yul\":384:391   */\n      dup5\n        /* \"#utility.yul\":380:403   */\n      sub\n        /* \"#utility.yul\":376:408   */\n      slt\n        /* \"#utility.yul\":373:492   */\n      iszero\n      tag_65\n      jumpi\n        /* \"#utility.yul\":411:490   */\n      tag_66\n      tag_67\n      jump\t// in\n    tag_66:\n        /* \"#utility.yul\":373:492   */\n    tag_65:\n        /* \"#utility.yul\":531:532   */\n      0x00\n        /* \"#utility.yul\":556:609   */\n      tag_68\n        /* \"#utility.yul\":601:608   */\n      dup5\n        /* \"#utility.yul\":592:598   */\n      dup3\n        /* \"#utility.yul\":581:590   */\n      dup6\n        /* \"#utility.yul\":577:599   */\n      add\n        /* \"#utility.yul\":556:609   */\n      tag_56\n      jump\t// in\n    tag_68:\n        /* \"#utility.yul\":546:609   */\n      swap2\n      pop\n        /* \"#utility.yul\":502:619   */\n      pop\n        /* \"#utility.yul\":297:626   */\n      swap3\n      swap2\n      pop\n      pop\n      jump\t// out\n        /* \"#utility.yul\":632:961   */\n    tag_25:\n        /* \"#utility.yul\":691:697   */\n      0x00\n        /* \"#utility.yul\":740:742   */\n      0x20\n        /* \"#utility.yul\":728:737   */\n      dup3\n        /* \"#utility.yul\":719:726   */\n      dup5\n        /* \"#utility.yul\":715:738   */\n      sub\n        /* \"#utility.yul\":711:743   */\n      slt\n        /* \"#utility.yul\":708:827   */\n      iszero\n      tag_70\n      jumpi\n        /* \"#utility.yul\":746:825   */\n      tag_71\n      tag_67\n      jump\t// in\n    tag_71:\n        /* \"#utility.yul\":708:827   */\n    tag_70:\n        /* \"#utility.yul\":866:867   */\n      0x00\n        /* \"#utility.yul\":891:944   */\n      tag_72\n        /* \"#utility.yul\":936:943   */\n      dup5\n        /* \"#utility.yul\":927:933   */\n      dup3\n        /* \"#utility.yul\":916:925   */\n      dup6\n        /* \"#utility.yul\":912:934   */\n      add\n        /* \"#utility.yul\":891:944   */\n      tag_60\n      jump\t// in\n    tag_72:\n        /* \"#utility.yul\":881:944   */\n      swap2\n      pop\n        /* \"#utility.yul\":837:954   */\n      pop\n        /* \"#utility.yul\":632:961   */\n      swap3\n      swap2\n      pop\n      pop\n      jump\t// out\n        /* \"#utility.yul\":967:1085   */\n    tag_73:\n        /* \"#utility.yul\":1054:1078   */\n      tag_75\n        /* \"#utility.yul\":1072:1077   */\n      dup2\n        /* \"#utility.yul\":1054:1078   */\n      tag_76\n      jump\t// in\n    tag_75:\n        /* \"#utility.yul\":1049:1052   */\n      dup3\n        /* \"#utility.yul\":1042:1079   */\n      mstore\n        /* \"#utility.yul\":967:1085   */\n      pop\n      pop\n      jump\t// out\n        /* \"#utility.yul\":1091:1457   */\n    tag_77:\n        /* \"#utility.yul\":1233:1236   */\n      0x00\n        /* \"#utility.yul\":1254:1321   */\n      tag_79\n        /* \"#utility.yul\":1318:1320   */\n      0x18\n        /* \"#utility.yul\":1313:1316   */\n      dup4\n        /* \"#utility.yul\":1254:1321   */\n      tag_80\n      jump\t// in\n    tag_79:\n        /* \"#utility.yul\":1247:1321   */\n      swap2\n      pop\n        /* \"#utility.yul\":1330:1423   */\n      tag_81\n        /* \"#utility.yul\":1419:1422   */\n      dup3\n        /* \"#utility.yul\":1330:1423   */\n      tag_82\n      jump\t// in\n    tag_81:\n        /* \"#utility.yul\":1448:1450   */\n      0x20\n        /* \"#utility.yul\":1443:1446   */\n      dup3\n        /* \"#utility.yul\":1439:1451   */\n      add\n        /* \"#utility.yul\":1432:1451   */\n      swap1\n      pop\n        /* \"#utility.yul\":1091:1457   */\n      swap2\n      swap1\n      pop\n      jump\t// out\n        /* \"#utility.yul\":1463:1829   */\n    tag_83:\n        /* \"#utility.yul\":1605:1608   */\n      0x00\n        /* \"#utility.yul\":1626:1693   */\n      tag_85\n        /* \"#utility.yul\":1690:1692   */\n      0x13\n        /* \"#utility.yul\":1685:1688   */\n      dup4\n        /* \"#utility.yul\":1626:1693   */\n      tag_80\n      jump\t// in\n    tag_85:\n        /* \"#utility.yul\":1619:1693   */\n      swap2\n      pop\n        /* \"#utility.yul\":1702:1795   */\n      tag_86\n        /* \"#utility.yul\":1791:1794   */\n      dup3\n        /* \"#utility.yul\":1702:1795   */\n      tag_87\n      jump\t// in\n    tag_86:\n        /* \"#utility.yul\":1820:1822   */\n      0x20\n        /* \"#utility.yul\":1815:1818   */\n      dup3\n        /* \"#utility.yul\":1811:1823   */\n      add\n        /* \"#utility.yul\":1804:1823   */\n      swap1\n      pop\n        /* \"#utility.yul\":1463:1829   */\n      swap2\n      swap1\n      pop\n      jump\t// out\n        /* \"#utility.yul\":1835:1953   */\n    tag_88:\n        /* \"#utility.yul\":1922:1946   */\n      tag_90\n        /* \"#utility.yul\":1940:1945   */\n      dup2\n        /* \"#utility.yul\":1922:1946   */\n      tag_91\n      jump\t// in\n    tag_90:\n        /* \"#utility.yul\":1917:1920   */\n      dup3\n        /* \"#utility.yul\":1910:1947   */\n      mstore\n        /* \"#utility.yul\":1835:1953   */\n      pop\n      pop\n      jump\t// out\n        /* \"#utility.yul\":1959:2291   */\n    tag_47:\n        /* \"#utility.yul\":2080:2084   */\n      0x00\n        /* \"#utility.yul\":2118:2120   */\n      0x40\n        /* \"#utility.yul\":2107:2116   */\n      dup3\n        /* \"#utility.yul\":2103:2121   */\n      add\n        /* \"#utility.yul\":2095:2121   */\n      swap1\n      pop\n        /* \"#utility.yul\":2131:2202   */\n      tag_93\n        /* \"#utility.yul\":2199:2200   */\n      0x00\n        /* \"#utility.yul\":2188:2197   */\n      dup4\n        /* \"#utility.yul\":2184:2201   */\n      add\n        /* \"#utility.yul\":2175:2181   */\n      dup6\n        /* \"#utility.yul\":2131:2202   */\n      tag_73\n      jump\t// in\n    tag_93:\n        /* \"#utility.yul\":2212:2284   */\n      tag_94\n        /* \"#utility.yul\":2280:2282   */\n      0x20\n        /* \"#utility.yul\":2269:2278   */\n      dup4\n        /* \"#utility.yul\":2265:2283   */\n      add\n        /* \"#utility.yul\":2256:2262   */\n      dup5\n        /* \"#utility.yul\":2212:2284   */\n      tag_88\n      jump\t// in\n    tag_94:\n        /* \"#utility.yul\":1959:2291   */\n      swap4\n      swap3\n      pop\n      pop\n      pop\n      jump\t// out\n        /* \"#utility.yul\":2297:2716   */\n    tag_36:\n        /* \"#utility.yul\":2463:2467   */\n      0x00\n        /* \"#utility.yul\":2501:2503   */\n      0x20\n        /* \"#utility.yul\":2490:2499   */\n      dup3\n        /* \"#utility.yul\":2486:2504   */\n      add\n        /* \"#utility.yul\":2478:2504   */\n      swap1\n      pop\n        /* \"#utility.yul\":2550:2559   */\n      dup2\n        /* \"#utility.yul\":2544:2548   */\n      dup2\n        /* \"#utility.yul\":2540:2560   */\n      sub\n        /* \"#utility.yul\":2536:2537   */\n      0x00\n        /* \"#utility.yul\":2525:2534   */\n      dup4\n        /* \"#utility.yul\":2521:2538   */\n      add\n        /* \"#utility.yul\":2514:2561   */\n      mstore\n        /* \"#utility.yul\":2578:2709   */\n      tag_96\n        /* \"#utility.yul\":2704:2708   */\n      dup2\n        /* \"#utility.yul\":2578:2709   */\n      tag_77\n      jump\t// in\n    tag_96:\n        /* \"#utility.yul\":2570:2709   */\n      swap1\n      pop\n        /* \"#utility.yul\":2297:2716   */\n      swap2\n      swap1\n      pop\n      jump\t// out\n        /* \"#utility.yul\":2722:3141   */\n    tag_10:\n        /* \"#utility.yul\":2888:2892   */\n      0x00\n        /* \"#utility.yul\":2926:2928   */\n      0x20\n        /* \"#utility.yul\":2915:2924   */\n      dup3\n        /* \"#utility.yul\":2911:2929   */\n      add\n        /* \"#utility.yul\":2903:2929   */\n      swap1\n      pop\n        /* \"#utility.yul\":2975:2984   */\n      dup2\n        /* \"#utility.yul\":2969:2973   */\n      dup2\n        /* \"#utility.yul\":2965:2985   */\n      sub\n        /* \"#utility.yul\":2961:2962   */\n      0x00\n        /* \"#utility.yul\":2950:2959   */\n      dup4\n        /* \"#utility.yul\":2946:2963   */\n      add\n        /* \"#utility.yul\":2939:2986   */\n      mstore\n        /* \"#utility.yul\":3003:3134   */\n      tag_98\n        /* \"#utility.yul\":3129:3133   */\n      dup2\n        /* \"#utility.yul\":3003:3134   */\n      tag_83\n      jump\t// in\n    tag_98:\n        /* \"#utility.yul\":2995:3134   */\n      swap1\n      pop\n        /* \"#utility.yul\":2722:3141   */\n      swap2\n      swap1\n      pop\n      jump\t// out\n        /* \"#utility.yul\":3147:3369   */\n    tag_21:\n        /* \"#utility.yul\":3240:3244   */\n      0x00\n        /* \"#utility.yul\":3278:3280   */\n      0x20\n        /* \"#utility.yul\":3267:3276   */\n      dup3\n        /* \"#utility.yul\":3263:3281   */\n      add\n        /* \"#utility.yul\":3255:3281   */\n      swap1\n      pop\n        /* \"#utility.yul\":3291:3362   */\n      tag_100\n        /* \"#utility.yul\":3359:3360   */\n      0x00\n        /* \"#utility.yul\":3348:3357   */\n      dup4\n        /* \"#utility.yul\":3344:3361   */\n      add\n        /* \"#utility.yul\":3335:3341   */\n      dup5\n        /* \"#utility.yul\":3291:3362   */\n      tag_88\n      jump\t// in\n    tag_100:\n        /* \"#utility.yul\":3147:3369   */\n      swap3\n      swap2\n      pop\n      pop\n      jump\t// out\n        /* \"#utility.yul\":3456:3625   */\n    tag_80:\n        /* \"#utility.yul\":3540:3551   */\n      0x00\n        /* \"#utility.yul\":3574:3580   */\n      dup3\n        /* \"#utility.yul\":3569:3572   */\n      dup3\n        /* \"#utility.yul\":3562:3581   */\n      mstore\n        /* \"#utility.yul\":3614:3618   */\n      0x20\n        /* \"#utility.yul\":3609:3612   */\n      dup3\n        /* \"#utility.yul\":3605:3619   */\n      add\n        /* \"#utility.yul\":3590:3619   */\n      swap1\n      pop\n        /* \"#utility.yul\":3456:3625   */\n      swap3\n      swap2\n      pop\n      pop\n      jump\t// out\n        /* \"#utility.yul\":3631:3936   */\n    tag_38:\n        /* \"#utility.yul\":3671:3674   */\n      0x00\n        /* \"#utility.yul\":3690:3710   */\n      tag_105\n        /* \"#utility.yul\":3708:3709   */\n      dup3\n        /* \"#utility.yul\":3690:3710   */\n      tag_91\n      jump\t// in\n    tag_105:\n        /* \"#utility.yul\":3685:3710   */\n      swap2\n      pop\n        /* \"#utility.yul\":3724:3744   */\n      tag_106\n        /* \"#utility.yul\":3742:3743   */\n      dup4\n        /* \"#utility.yul\":3724:3744   */\n      tag_91\n      jump\t// in\n    tag_106:\n        /* \"#utility.yul\":3719:3744   */\n      swap3\n      pop\n        /* \"#utility.yul\":3878:3879   */\n      dup3\n        /* \"#utility.yul\":3810:3876   */\n      0xffffffffffffffffffffffffffffffffffffffffffffffffffffffffffffffff\n        /* \"#utility.yul\":3806:3880   */\n      sub\n        /* \"#utility.yul\":3803:3804   */\n      dup3\n        /* \"#utility.yul\":3800:3881   */\n      gt\n        /* \"#utility.yul\":3797:3904   */\n      iszero\n      tag_107\n      jumpi\n        /* \"#utility.yul\":3884:3902   */\n      tag_108\n      tag_109\n      jump\t// in\n    tag_108:\n        /* \"#utility.yul\":3797:3904   */\n    tag_107:\n        /* \"#utility.yul\":3928:3929   */\n      dup3\n        /* \"#utility.yul\":3925:3926   */\n      dup3\n        /* \"#utility.yul\":3921:3930   */\n      add\n        /* \"#utility.yul\":3914:3930   */\n      swap1\n      pop\n        /* \"#utility.yul\":3631:3936   */\n      swap3\n      swap2\n      pop\n      pop\n      jump\t// out\n        /* \"#utility.yul\":3942:4133   */\n    tag_45:\n        /* \"#utility.yul\":3982:3986   */\n      0x00\n        /* \"#utility.yul\":4002:4022   */\n      tag_111\n        /* \"#utility.yul\":4020:4021   */\n      dup3\n        /* \"#utility.yul\":4002:4022   */\n      tag_91\n      jump\t// in\n    tag_111:\n        /* \"#utility.yul\":3997:4022   */\n      swap2\n      pop\n        /* \"#utility.yul\":4036:4056   */\n      tag_112\n        /* \"#utility.yul\":4054:4055   */\n      dup4\n        /* \"#utility.yul\":4036:4056   */\n      tag_91\n      jump\t// in\n    tag_112:\n        /* \"#utility.yul\":4031:4056   */\n      swap3\n      pop\n        /* \"#utility.yul\":4075:4076   */\n      dup3\n        /* \"#utility.yul\":4072:4073   */\n      dup3\n        /* \"#utility.yul\":4069:4077   */\n      lt\n        /* \"#utility.yul\":4066:4100   */\n      iszero\n      tag_113\n      jumpi\n        /* \"#utility.yul\":4080:4098   */\n      tag_114\n      tag_109\n      jump\t// in\n    tag_114:\n        /* \"#utility.yul\":4066:4100   */\n    tag_113:\n        /* \"#utility.yul\":4125:4126   */\n      dup3\n        /* \"#utility.yul\":4122:4123   */\n      dup3\n        /* \"#utility.yul\":4118:4127   */\n      sub\n        /* \"#utility.yul\":4110:4127   */\n      swap1\n      pop\n        /* \"#utility.yul\":3942:4133   */\n      swap3\n      swap2\n      pop\n      pop\n      jump\t// out\n        /* \"#utility.yul\":4139:4235   */\n    tag_76:\n        /* \"#utility.yul\":4176:4183   */\n      0x00\n        /* \"#utility.yul\":4205:4229   */\n      tag_116\n        /* \"#utility.yul\":4223:4228   */\n      dup3\n        /* \"#utility.yul\":4205:4229   */\n      tag_117\n      jump\t// in\n    tag_116:\n        /* \"#utility.yul\":4194:4229   */\n      swap1\n      pop\n        /* \"#utility.yul\":4139:4235   */\n      swap2\n      swap1\n      pop\n      jump\t// out\n        /* \"#utility.yul\":4241:4367   */\n    tag_117:\n        /* \"#utility.yul\":4278:4285   */\n      0x00\n        /* \"#utility.yul\":4318:4360   */\n      0xffffffffffffffffffffffffffffffffffffffff\n        /* \"#utility.yul\":4311:4316   */\n      dup3\n        /* \"#utility.yul\":4307:4361   */\n      and\n        /* \"#utility.yul\":4296:4361   */\n      swap1\n      pop\n        /* \"#utility.yul\":4241:4367   */\n      swap2\n      swap1\n      pop\n      jump\t// out\n        /* \"#utility.yul\":4373:4450   */\n    tag_91:\n        /* \"#utility.yul\":4410:4417   */\n      0x00\n        /* \"#utility.yul\":4439:4444   */\n      dup2\n        /* \"#utility.yul\":4428:4444   */\n      swap1\n      pop\n        /* \"#utility.yul\":4373:4450   */\n      swap2\n      swap1\n      pop\n      jump\t// out\n        /* \"#utility.yul\":4456:4636   */\n    tag_54:\n        /* \"#utility.yul\":4504:4581   */\n      0x4e487b7100000000000000000000000000000000000000000000000000000000\n        /* \"#utility.yul\":4501:4502   */\n      0x00\n        /* \"#utility.yul\":4494:4582   */\n      mstore\n        /* \"#utility.yul\":4601:4605   */\n      0x01\n        /* \"#utility.yul\":4598:4599   */\n      0x04\n        /* \"#utility.yul\":4591:4606   */\n      mstore\n        /* \"#utility.yul\":4625:4629   */\n      0x24\n        /* \"#utility.yul\":4622:4623   */\n      0x00\n        /* \"#utility.yul\":4615:4630   */\n      revert\n        /* \"#utility.yul\":4642:4822   */\n    tag_109:\n        /* \"#utility.yul\":4690:4767   */\n      0x4e487b7100000000000000000000000000000000000000000000000000000000\n        /* \"#utility.yul\":4687:4688   */\n      0x00\n        /* \"#utility.yul\":4680:4768   */\n      mstore\n        /* \"#utility.yul\":4787:4791   */\n      0x11\n        /* \"#utility.yul\":4784:4785   */\n      0x04\n        /* \"#utility.yul\":4777:4792   */\n      mstore\n        /* \"#utility.yul\":4811:4815   */\n      0x24\n        /* \"#utility.yul\":4808:4809   */\n      0x00\n        /* \"#utility.yul\":4801:4816   */\n      revert\n        /* \"#utility.yul\":4951:5068   */\n    tag_67:\n        /* \"#utility.yul\":5060:5061   */\n      0x00\n        /* \"#utility.yul\":5057:5058   */\n      dup1\n        /* \"#utility.yul\":5050:5062   */\n      revert\n        /* \"#utility.yul\":5074:5248   */\n    tag_82:\n        /* \"#utility.yul\":5214:5240   */\n      0x4f6e6c79207061796d656e747320696e20312065746865720000000000000000\n        /* \"#utility.yul\":5210:5211   */\n      0x00\n        /* \"#utility.yul\":5202:5208   */\n      dup3\n        /* \"#utility.yul\":5198:5212   */\n      add\n        /* \"#utility.yul\":5191:5241   */\n      mstore\n        /* \"#utility.yul\":5074:5248   */\n      pop\n      jump\t// out\n        /* \"#utility.yul\":5254:5423   */\n    tag_87:\n        /* \"#utility.yul\":5394:5415   */\n      0x4e6f20646972656374207061796d656e74732e00000000000000000000000000\n        /* \"#utility.yul\":5390:5391   */\n      0x00\n        /* \"#utility.yul\":5382:5388   */\n      dup3\n        /* \"#utility.yul\":5378:5392   */\n      add\n        /* \"#utility.yul\":5371:5416   */\n      mstore\n        /* \"#utility.yul\":5254:5423   */\n      pop\n      jump\t// out\n        /* \"#utility.yul\":5429:5551   */\n    tag_59:\n        /* \"#utility.yul\":5502:5526   */\n      tag_128\n        /* \"#utility.yul\":5520:5525   */\n      dup2\n        /* \"#utility.yul\":5502:5526   */\n      tag_76\n      jump\t// in\n    tag_128:\n        /* \"#utility.yul\":5495:5500   */\n      dup2\n        /* \"#utility.yul\":5492:5527   */\n      eq\n        /* \"#utility.yul\":5482:5545   */\n      tag_129\n      jumpi\n        /* \"#utility.yul\":5541:5542   */\n      0x00\n        /* \"#utility.yul\":5538:5539   */\n      dup1\n        /* \"#utility.yul\":5531:5543   */\n      revert\n        /* \"#utility.yul\":5482:5545   */\n    tag_129:\n        /* \"#utility.yul\":5429:5551   */\n      pop\n      jump\t// out\n        /* \"#utility.yul\":5557:5679   */\n    tag_63:\n        /* \"#utility.yul\":5630:5654   */\n      tag_131\n        /* \"#utility.yul\":5648:5653   */\n      dup2\n        /* \"#utility.yul\":5630:5654   */\n      tag_91\n      jump\t// in\n    tag_131:\n        /* \"#utility.yul\":5623:5628   */\n      dup2\n        /* \"#utility.yul\":5620:5655   */\n      eq\n        /* \"#utility.yul\":5610:5673   */\n      tag_132\n      jumpi\n        /* \"#utility.yul\":5669:5670   */\n      0x00\n        /* \"#utility.yul\":5666:5667   */\n      dup1\n        /* \"#utility.yul\":5659:5671   */\n      revert\n        /* \"#utility.yul\":5610:5673   */\n    tag_132:\n        /* \"#utility.yul\":5557:5679   */\n      pop\n      jump\t// out\n\n    auxdata: 0xa264697066735822122031ddd45ef61df0ac5ac2e893c94995d1675036f6a7311b85ff1df2619e0ae7bb64736f6c63430008070033\n}\n",
				"bytecode": {
					"linkReferences": {},
					"object": "608060405234801561001057600080fd5b50610725806100206000396000f3fe6080604052600436106100435760003560e01c80631b9265b81461008557806326224c641461008f5780632e1a7d4d146100cc578063ad7a672f146100f557610083565b36610083576040517f1948a7bc00000000000000000000000000000000000000000000000000000000815260040161007a906104fa565b60405180910390fd5b005b61008d610120565b005b34801561009b57600080fd5b506100b660048036038101906100b191906103f3565b6101fa565b6040516100c3919061051a565b60405180910390f35b3480156100d857600080fd5b506100f360048036038101906100ee9190610420565b610212565b005b34801561010157600080fd5b5061010a6103c3565b604051610117919061051a565b60405180910390f35b34600081141561012f57600080fd5b670de0b6b3a76400003414610179576040517f08c379a0000000000000000000000000000000000000000000000000000000008152600401610170906104da565b60405180910390fd5b670de0b6b3a76400006000808282546101929190610546565b92505081905550670de0b6b3a7640000600160003373ffffffffffffffffffffffffffffffffffffffff1673ffffffffffffffffffffffffffffffffffffffff16815260200190815260200160002060008282546101f09190610546565b9250508190555050565b60016020528060005260406000206000915090505481565b80600081141561022157600080fd5b60008054905082600160003373ffffffffffffffffffffffffffffffffffffffff1673ffffffffffffffffffffffffffffffffffffffff1681526020019081526020016000205410156102f75733600160003373ffffffffffffffffffffffffffffffffffffffff1673ffffffffffffffffffffffffffffffffffffffff16815260200190815260200160002054846102ba919061059c565b6040517fb31a04690000000000000000000000000000000000000000000000000000000081526004016102ee9291906104b1565b60405180910390fd5b82600080828254610308919061059c565b9250508190555082600160003373ffffffffffffffffffffffffffffffffffffffff1673ffffffffffffffffffffffffffffffffffffffff168152602001908152602001600020600082825461035e919061059c565b925050819055503373ffffffffffffffffffffffffffffffffffffffff166108fc849081150290604051600060405180830381858888f193505050501580156103ab573d6000803e3d6000fd5b5080600054106103be576103bd61060c565b5b505050565b60005481565b6000813590506103d8816106c1565b92915050565b6000813590506103ed816106d8565b92915050565b6000602082840312156104095761040861066a565b5b6000610417848285016103c9565b91505092915050565b6000602082840312156104365761043561066a565b5b6000610444848285016103de565b91505092915050565b610456816105d0565b82525050565b6000610469601883610535565b91506104748261066f565b602082019050919050565b600061048c601383610535565b915061049782610698565b602082019050919050565b6104ab81610602565b82525050565b60006040820190506104c6600083018561044d565b6104d360208301846104a2565b9392505050565b600060208201905081810360008301526104f38161045c565b9050919050565b600060208201905081810360008301526105138161047f565b9050919050565b600060208201905061052f60008301846104a2565b92915050565b600082825260208201905092915050565b600061055182610602565b915061055c83610602565b9250827fffffffffffffffffffffffffffffffffffffffffffffffffffffffffffffffff038211156105915761059061063b565b5b828201905092915050565b60006105a782610602565b91506105b283610602565b9250828210156105c5576105c461063b565b5b828203905092915050565b60006105db826105e2565b9050919050565b600073ffffffffffffffffffffffffffffffffffffffff82169050919050565b6000819050919050565b7f4e487b7100000000000000000000000000000000000000000000000000000000600052600160045260246000fd5b7f4e487b7100000000000000000000000000000000000000000000000000000000600052601160045260246000fd5b600080fd5b7f4f6e6c79207061796d656e747320696e20312065746865720000000000000000600082015250565b7f4e6f20646972656374207061796d656e74732e00000000000000000000000000600082015250565b6106ca816105d0565b81146106d557600080fd5b50565b6106e181610602565b81146106ec57600080fd5b5056fea264697066735822122031ddd45ef61df0ac5ac2e893c94995d1675036f6a7311b85ff1df2619e0ae7bb64736f6c63430008070033",
					"opcodes": "PUSH1 0x80 PUSH1 0x40 MSTORE CALLVALUE DUP1 ISZERO PUSH2 0x10 JUMPI PUSH1 0x0 DUP1 REVERT JUMPDEST POP PUSH2 0x725 DUP1 PUSH2 0x20 PUSH1 0x0 CODECOPY PUSH1 0x0 RETURN INVALID PUSH1 0x80 PUSH1 0x40 MSTORE PUSH1 0x4 CALLDATASIZE LT PUSH2 0x43 JUMPI PUSH1 0x0 CALLDATALOAD PUSH1 0xE0 SHR DUP1 PUSH4 0x1B9265B8 EQ PUSH2 0x85 JUMPI DUP1 PUSH4 0x26224C64 EQ PUSH2 0x8F JUMPI DUP1 PUSH4 0x2E1A7D4D EQ PUSH2 0xCC JUMPI DUP1 PUSH4 0xAD7A672F EQ PUSH2 0xF5 JUMPI PUSH2 0x83 JUMP JUMPDEST CALLDATASIZE PUSH2 0x83 JUMPI PUSH1 0x40 MLOAD PUSH32 0x1948A7BC00000000000000000000000000000000000000000000000000000000 DUP2 MSTORE PUSH1 0x4 ADD PUSH2 0x7A SWAP1 PUSH2 0x4FA JUMP JUMPDEST PUSH1 0x40 MLOAD DUP1 SWAP2 SUB SWAP1 REVERT JUMPDEST STOP JUMPDEST PUSH2 0x8D PUSH2 0x120 JUMP JUMPDEST STOP JUMPDEST CALLVALUE DUP1 ISZERO PUSH2 0x9B JUMPI PUSH1 0x0 DUP1 REVERT JUMPDEST POP PUSH2 0xB6 PUSH1 0x4 DUP1 CALLDATASIZE SUB DUP2 ADD SWAP1 PUSH2 0xB1 SWAP2 SWAP1 PUSH2 0x3F3 JUMP JUMPDEST PUSH2 0x1FA JUMP JUMPDEST PUSH1 0x40 MLOAD PUSH2 0xC3 SWAP2 SWAP1 PUSH2 0x51A JUMP JUMPDEST PUSH1 0x40 MLOAD DUP1 SWAP2 SUB SWAP1 RETURN JUMPDEST CALLVALUE DUP1 ISZERO PUSH2 0xD8 JUMPI PUSH1 0x0 DUP1 REVERT JUMPDEST POP PUSH2 0xF3 PUSH1 0x4 DUP1 CALLDATASIZE SUB DUP2 ADD SWAP1 PUSH2 0xEE SWAP2 SWAP1 PUSH2 0x420 JUMP JUMPDEST PUSH2 0x212 JUMP JUMPDEST STOP JUMPDEST CALLVALUE DUP1 ISZERO PUSH2 0x101 JUMPI PUSH1 0x0 DUP1 REVERT JUMPDEST POP PUSH2 0x10A PUSH2 0x3C3 JUMP JUMPDEST PUSH1 0x40 MLOAD PUSH2 0x117 SWAP2 SWAP1 PUSH2 0x51A JUMP JUMPDEST PUSH1 0x40 MLOAD DUP1 SWAP2 SUB SWAP1 RETURN JUMPDEST CALLVALUE PUSH1 0x0 DUP2 EQ ISZERO PUSH2 0x12F JUMPI PUSH1 0x0 DUP1 REVERT JUMPDEST PUSH8 0xDE0B6B3A7640000 CALLVALUE EQ PUSH2 0x179 JUMPI PUSH1 0x40 MLOAD PUSH32 0x8C379A000000000000000000000000000000000000000000000000000000000 DUP2 MSTORE PUSH1 0x4 ADD PUSH2 0x170 SWAP1 PUSH2 0x4DA JUMP JUMPDEST PUSH1 0x40 MLOAD DUP1 SWAP2 SUB SWAP1 REVERT JUMPDEST PUSH8 0xDE0B6B3A7640000 PUSH1 0x0 DUP1 DUP3 DUP3 SLOAD PUSH2 0x192 SWAP2 SWAP1 PUSH2 0x546 JUMP JUMPDEST SWAP3 POP POP DUP2 SWAP1 SSTORE POP PUSH8 0xDE0B6B3A7640000 PUSH1 0x1 PUSH1 0x0 CALLER PUSH20 0xFFFFFFFFFFFFFFFFFFFFFFFFFFFFFFFFFFFFFFFF AND PUSH20 0xFFFFFFFFFFFFFFFFFFFFFFFFFFFFFFFFFFFFFFFF AND DUP2 MSTORE PUSH1 0x20 ADD SWAP1 DUP2 MSTORE PUSH1 0x20 ADD PUSH1 0x0 KECCAK256 PUSH1 0x0 DUP3 DUP3 SLOAD PUSH2 0x1F0 SWAP2 SWAP1 PUSH2 0x546 JUMP JUMPDEST SWAP3 POP POP DUP2 SWAP1 SSTORE POP POP JUMP JUMPDEST PUSH1 0x1 PUSH1 0x20 MSTORE DUP1 PUSH1 0x0 MSTORE PUSH1 0x40 PUSH1 0x0 KECCAK256 PUSH1 0x0 SWAP2 POP SWAP1 POP SLOAD DUP2 JUMP JUMPDEST DUP1 PUSH1 0x0 DUP2 EQ ISZERO PUSH2 0x221 JUMPI PUSH1 0x0 DUP1 REVERT JUMPDEST PUSH1 0x0 DUP1 SLOAD SWAP1 POP DUP3 PUSH1 0x1 PUSH1 0x0 CALLER PUSH20 0xFFFFFFFFFFFFFFFFFFFFFFFFFFFFFFFFFFFFFFFF AND PUSH20 0xFFFFFFFFFFFFFFFFFFFFFFFFFFFFFFFFFFFFFFFF AND DUP2 MSTORE PUSH1 0x20 ADD SWAP1 DUP2 MSTORE PUSH1 0x20 ADD PUSH1 0x0 KECCAK256 SLOAD LT ISZERO PUSH2 0x2F7 JUMPI CALLER PUSH1 0x1 PUSH1 0x0 CALLER PUSH20 0xFFFFFFFFFFFFFFFFFFFFFFFFFFFFFFFFFFFFFFFF AND PUSH20 0xFFFFFFFFFFFFFFFFFFFFFFFFFFFFFFFFFFFFFFFF AND DUP2 MSTORE PUSH1 0x20 ADD SWAP1 DUP2 MSTORE PUSH1 0x20 ADD PUSH1 0x0 KECCAK256 SLOAD DUP5 PUSH2 0x2BA SWAP2 SWAP1 PUSH2 0x59C JUMP JUMPDEST PUSH1 0x40 MLOAD PUSH32 0xB31A046900000000000000000000000000000000000000000000000000000000 DUP2 MSTORE PUSH1 0x4 ADD PUSH2 0x2EE SWAP3 SWAP2 SWAP1 PUSH2 0x4B1 JUMP JUMPDEST PUSH1 0x40 MLOAD DUP1 SWAP2 SUB SWAP1 REVERT JUMPDEST DUP3 PUSH1 0x0 DUP1 DUP3 DUP3 SLOAD PUSH2 0x308 SWAP2 SWAP1 PUSH2 0x59C JUMP JUMPDEST SWAP3 POP POP DUP2 SWAP1 SSTORE POP DUP3 PUSH1 0x1 PUSH1 0x0 CALLER PUSH20 0xFFFFFFFFFFFFFFFFFFFFFFFFFFFFFFFFFFFFFFFF AND PUSH20 0xFFFFFFFFFFFFFFFFFFFFFFFFFFFFFFFFFFFFFFFF AND DUP2 MSTORE PUSH1 0x20 ADD SWAP1 DUP2 MSTORE PUSH1 0x20 ADD PUSH1 0x0 KECCAK256 PUSH1 0x0 DUP3 DUP3 SLOAD PUSH2 0x35E SWAP2 SWAP1 PUSH2 0x59C JUMP JUMPDEST SWAP3 POP POP DUP2 SWAP1 SSTORE POP CALLER PUSH20 0xFFFFFFFFFFFFFFFFFFFFFFFFFFFFFFFFFFFFFFFF AND PUSH2 0x8FC DUP5 SWAP1 DUP2 ISZERO MUL SWAP1 PUSH1 0x40 MLOAD PUSH1 0x0 PUSH1 0x40 MLOAD DUP1 DUP4 SUB DUP2 DUP6 DUP9 DUP9 CALL SWAP4 POP POP POP POP ISZERO DUP1 ISZERO PUSH2 0x3AB JUMPI RETURNDATASIZE PUSH1 0x0 DUP1 RETURNDATACOPY RETURNDATASIZE PUSH1 0x0 REVERT JUMPDEST POP DUP1 PUSH1 0x0 SLOAD LT PUSH2 0x3BE JUMPI PUSH2 0x3BD PUSH2 0x60C JUMP JUMPDEST JUMPDEST POP POP POP JUMP JUMPDEST PUSH1 0x0 SLOAD DUP2 JUMP JUMPDEST PUSH1 0x0 DUP2 CALLDATALOAD SWAP1 POP PUSH2 0x3D8 DUP2 PUSH2 0x6C1 JUMP JUMPDEST SWAP3 SWAP2 POP POP JUMP JUMPDEST PUSH1 0x0 DUP2 CALLDATALOAD SWAP1 POP PUSH2 0x3ED DUP2 PUSH2 0x6D8 JUMP JUMPDEST SWAP3 SWAP2 POP POP JUMP JUMPDEST PUSH1 0x0 PUSH1 0x20 DUP3 DUP5 SUB SLT ISZERO PUSH2 0x409 JUMPI PUSH2 0x408 PUSH2 0x66A JUMP JUMPDEST JUMPDEST PUSH1 0x0 PUSH2 0x417 DUP5 DUP3 DUP6 ADD PUSH2 0x3C9 JUMP JUMPDEST SWAP2 POP POP SWAP3 SWAP2 POP POP JUMP JUMPDEST PUSH1 0x0 PUSH1 0x20 DUP3 DUP5 SUB SLT ISZERO PUSH2 0x436 JUMPI PUSH2 0x435 PUSH2 0x66A JUMP JUMPDEST JUMPDEST PUSH1 0x0 PUSH2 0x444 DUP5 DUP3 DUP6 ADD PUSH2 0x3DE JUMP JUMPDEST SWAP2 POP POP SWAP3 SWAP2 POP POP JUMP JUMPDEST PUSH2 0x456 DUP2 PUSH2 0x5D0 JUMP JUMPDEST DUP3 MSTORE POP POP JUMP JUMPDEST PUSH1 0x0 PUSH2 0x469 PUSH1 0x18 DUP4 PUSH2 0x535 JUMP JUMPDEST SWAP2 POP PUSH2 0x474 DUP3 PUSH2 0x66F JUMP JUMPDEST PUSH1 0x20 DUP3 ADD SWAP1 POP SWAP2 SWAP1 POP JUMP JUMPDEST PUSH1 0x0 PUSH2 0x48C PUSH1 0x13 DUP4 PUSH2 0x535 JUMP JUMPDEST SWAP2 POP PUSH2 0x497 DUP3 PUSH2 0x698 JUMP JUMPDEST PUSH1 0x20 DUP3 ADD SWAP1 POP SWAP2 SWAP1 POP JUMP JUMPDEST PUSH2 0x4AB DUP2 PUSH2 0x602 JUMP JUMPDEST DUP3 MSTORE POP POP JUMP JUMPDEST PUSH1 0x0 PUSH1 0x40 DUP3 ADD SWAP1 POP PUSH2 0x4C6 PUSH1 0x0 DUP4 ADD DUP6 PUSH2 0x44D JUMP JUMPDEST PUSH2 0x4D3 PUSH1 0x20 DUP4 ADD DUP5 PUSH2 0x4A2 JUMP JUMPDEST SWAP4 SWAP3 POP POP POP JUMP JUMPDEST PUSH1 0x0 PUSH1 0x20 DUP3 ADD SWAP1 POP DUP2 DUP2 SUB PUSH1 0x0 DUP4 ADD MSTORE PUSH2 0x4F3 DUP2 PUSH2 0x45C JUMP JUMPDEST SWAP1 POP SWAP2 SWAP1 POP JUMP JUMPDEST PUSH1 0x0 PUSH1 0x20 DUP3 ADD SWAP1 POP DUP2 DUP2 SUB PUSH1 0x0 DUP4 ADD MSTORE PUSH2 0x513 DUP2 PUSH2 0x47F JUMP JUMPDEST SWAP1 POP SWAP2 SWAP1 POP JUMP JUMPDEST PUSH1 0x0 PUSH1 0x20 DUP3 ADD SWAP1 POP PUSH2 0x52F PUSH1 0x0 DUP4 ADD DUP5 PUSH2 0x4A2 JUMP JUMPDEST SWAP3 SWAP2 POP POP JUMP JUMPDEST PUSH1 0x0 DUP3 DUP3 MSTORE PUSH1 0x20 DUP3 ADD SWAP1 POP SWAP3 SWAP2 POP POP JUMP JUMPDEST PUSH1 0x0 PUSH2 0x551 DUP3 PUSH2 0x602 JUMP JUMPDEST SWAP2 POP PUSH2 0x55C DUP4 PUSH2 0x602 JUMP JUMPDEST SWAP3 POP DUP3 PUSH32 0xFFFFFFFFFFFFFFFFFFFFFFFFFFFFFFFFFFFFFFFFFFFFFFFFFFFFFFFFFFFFFFFF SUB DUP3 GT ISZERO PUSH2 0x591 JUMPI PUSH2 0x590 PUSH2 0x63B JUMP JUMPDEST JUMPDEST DUP3 DUP3 ADD SWAP1 POP SWAP3 SWAP2 POP POP JUMP JUMPDEST PUSH1 0x0 PUSH2 0x5A7 DUP3 PUSH2 0x602 JUMP JUMPDEST SWAP2 POP PUSH2 0x5B2 DUP4 PUSH2 0x602 JUMP JUMPDEST SWAP3 POP DUP3 DUP3 LT ISZERO PUSH2 0x5C5 JUMPI PUSH2 0x5C4 PUSH2 0x63B JUMP JUMPDEST JUMPDEST DUP3 DUP3 SUB SWAP1 POP SWAP3 SWAP2 POP POP JUMP JUMPDEST PUSH1 0x0 PUSH2 0x5DB DUP3 PUSH2 0x5E2 JUMP JUMPDEST SWAP1 POP SWAP2 SWAP1 POP JUMP JUMPDEST PUSH1 0x0 PUSH20 0xFFFFFFFFFFFFFFFFFFFFFFFFFFFFFFFFFFFFFFFF DUP3 AND SWAP1 POP SWAP2 SWAP1 POP JUMP JUMPDEST PUSH1 0x0 DUP2 SWAP1 POP SWAP2 SWAP1 POP JUMP JUMPDEST PUSH32 0x4E487B7100000000000000000000000000000000000000000000000000000000 PUSH1 0x0 MSTORE PUSH1 0x1 PUSH1 0x4 MSTORE PUSH1 0x24 PUSH1 0x0 REVERT JUMPDEST PUSH32 0x4E487B7100000000000000000000000000000000000000000000000000000000 PUSH1 0x0 MSTORE PUSH1 0x11 PUSH1 0x4 MSTORE PUSH1 0x24 PUSH1 0x0 REVERT JUMPDEST PUSH1 0x0 DUP1 REVERT JUMPDEST PUSH32 0x4F6E6C79207061796D656E747320696E20312065746865720000000000000000 PUSH1 0x0 DUP3 ADD MSTORE POP JUMP JUMPDEST PUSH32 0x4E6F20646972656374207061796D656E74732E00000000000000000000000000 PUSH1 0x0 DUP3 ADD MSTORE POP JUMP JUMPDEST PUSH2 0x6CA DUP2 PUSH2 0x5D0 JUMP JUMPDEST DUP2 EQ PUSH2 0x6D5 JUMPI PUSH1 0x0 DUP1 REVERT JUMPDEST POP JUMP JUMPDEST PUSH2 0x6E1 DUP2 PUSH2 0x602 JUMP JUMPDEST DUP2 EQ PUSH2 0x6EC JUMPI PUSH1 0x0 DUP1 REVERT JUMPDEST POP JUMP INVALID LOG2 PUSH5 0x6970667358 0x22 SLT KECCAK256 BALANCE 0xDD 0xD4 0x5E 0xF6 SAR CREATE 0xAC GAS 0xC2 0xE8 SWAP4 0xC9 0x49 SWAP6 0xD1 PUSH8 0x5036F6A7311B85FF SAR CALLCODE PUSH2 0x9E0A 0xE7 0xBB PUSH5 0x736F6C6343 STOP ADDMOD SMOD STOP CALLER "
				},
				"gasEstimates": {
					"creation": {
						"codeDepositCost": "365800",
						"executionCost": "405",
						"totalCost": "366205"
					},
					"external": {
						"": "151",
						"pay()": "infinite",
						"totalBalance()": "2473",
						"userBalances(address)": "2814",
						"withdraw(uint256)": "infinite"
					}
				},
				"methodIdentifiers": {
					"pay()": "1b9265b8",
					"totalBalance()": "ad7a672f",
					"userBalances(address)": "26224c64",
					"withdraw(uint256)": "2e1a7d4d"
				}
			},
			"storageLayout": {
				"storage": [
					{
						"astId": 3,
						"contract": "contracts/Errors.sol:Errors",
						"label": "totalBalance",
						"offset": 0,
						"slot": "0",
						"type": "t_uint256"
					},
					{
						"astId": 7,
						"contract": "contracts/Errors.sol:Errors",
						"label": "userBalances",
						"offset": 0,
						"slot": "1",
						"type": "t_mapping(t_address,t_uint256)"
					}
				],
				"types": {
					"t_address": {
						"encoding": "inplace",
						"label": "address",
						"numberOfBytes": "20"
					},
					"t_mapping(t_address,t_uint256)": {
						"encoding": "mapping",
						"key": "t_address",
						"label": "mapping(address => uint256)",
						"numberOfBytes": "32",
						"value": "t_uint256"
					},
					"t_uint256": {
						"encoding": "inplace",
						"label": "uint256",
						"numberOfBytes": "32"
					}
				}
			},
			"userdoc": {
				"kind": "user",
				"methods": {},
				"version": 1
			}
		}
	}
}