{
	"contracts/Mapping.sol": {
		"Mapping": {
			"abi": [
				{
					"inputs": [],
					"name": "deleteRegistered",
					"outputs": [],
					"stateMutability": "nonpayable",
					"type": "function"
				},
				{
					"inputs": [
						{
							"internalType": "address",
							"name": "",
							"type": "address"
						}
					],
					"name": "favNums",
					"outputs": [
						{
							"internalType": "int256",
							"name": "",
							"type": "int256"
						}
					],
					"stateMutability": "view",
					"type": "function"
				},
				{
					"inputs": [],
					"name": "isRegistered",
					"outputs": [
						{
							"internalType": "bool",
							"name": "",
							"type": "bool"
						}
					],
					"stateMutability": "view",
					"type": "function"
				},
				{
					"inputs": [
						{
							"internalType": "int256",
							"name": "_favNums",
							"type": "int256"
						}
					],
					"name": "register",
					"outputs": [],
					"stateMutability": "nonpayable",
					"type": "function"
				},
				{
					"inputs": [
						{
							"internalType": "address",
							"name": "",
							"type": "address"
						}
					],
					"name": "registered",
					"outputs": [
						{
							"internalType": "bool",
							"name": "",
							"type": "bool"
						}
					],
					"stateMutability": "view",
					"type": "function"
				}
			],
			"devdoc": {
				"kind": "dev",
				"methods": {},
				"version": 1
			},
			"evm": {
				"assembly": "    /* \"contracts/Mapping.sol\":64:678  contract Mapping {... */\n  mstore(0x40, 0x80)\n  callvalue\n  dup1\n  iszero\n  tag_1\n  jumpi\n  0x00\n  dup1\n  revert\ntag_1:\n  pop\n  dataSize(sub_0)\n  dup1\n  dataOffset(sub_0)\n  0x00\n  codecopy\n  0x00\n  return\nstop\n\nsub_0: assembly {\n        /* \"contracts/Mapping.sol\":64:678  contract Mapping {... */\n      mstore(0x40, 0x80)\n      callvalue\n      dup1\n      iszero\n      tag_1\n      jumpi\n      0x00\n      dup1\n      revert\n    tag_1:\n      pop\n      jumpi(tag_2, lt(calldatasize, 0x04))\n      shr(0xe0, calldataload(0x00))\n      dup1\n      0x22366844\n      eq\n      tag_3\n      jumpi\n      dup1\n      0xa31a9dc3\n      eq\n      tag_4\n      jumpi\n      dup1\n      0xb2dd5c07\n      eq\n      tag_5\n      jumpi\n      dup1\n      0xcce0b6a1\n      eq\n      tag_6\n      jumpi\n      dup1\n      0xe6059f96\n      eq\n      tag_7\n      jumpi\n    tag_2:\n      0x00\n      dup1\n      revert\n        /* \"contracts/Mapping.sol\":395:490  function isRegistered() public view returns(bool){... */\n    tag_3:\n      tag_8\n      tag_9\n      jump\t// in\n    tag_8:\n      mload(0x40)\n      tag_10\n      swap2\n      swap1\n      tag_11\n      jump\t// in\n    tag_10:\n      mload(0x40)\n      dup1\n      swap2\n      sub\n      swap1\n      return\n        /* \"contracts/Mapping.sol\":496:676  function deleteRegistered() public {... */\n    tag_4:\n      tag_12\n      tag_13\n      jump\t// in\n    tag_12:\n      stop\n        /* \"contracts/Mapping.sol\":88:130  mapping(address => bool) public registered */\n    tag_5:\n      tag_14\n      0x04\n      dup1\n      calldatasize\n      sub\n      dup2\n      add\n      swap1\n      tag_15\n      swap2\n      swap1\n      tag_16\n      jump\t// in\n    tag_15:\n      tag_17\n      jump\t// in\n    tag_14:\n      mload(0x40)\n      tag_18\n      swap2\n      swap1\n      tag_11\n      jump\t// in\n    tag_18:\n      mload(0x40)\n      dup1\n      swap2\n      sub\n      swap1\n      return\n        /* \"contracts/Mapping.sol\":136:177  mapping(address => int256) public favNums */\n    tag_6:\n      tag_19\n      0x04\n      dup1\n      calldatasize\n      sub\n      dup2\n      add\n      swap1\n      tag_20\n      swap2\n      swap1\n      tag_16\n      jump\t// in\n    tag_20:\n      tag_21\n      jump\t// in\n    tag_19:\n      mload(0x40)\n      tag_22\n      swap2\n      swap1\n      tag_23\n      jump\t// in\n    tag_22:\n      mload(0x40)\n      dup1\n      swap2\n      sub\n      swap1\n      return\n        /* \"contracts/Mapping.sol\":183:389  function register(int256 _favNums) public {... */\n    tag_7:\n      tag_24\n      0x04\n      dup1\n      calldatasize\n      sub\n      dup2\n      add\n      swap1\n      tag_25\n      swap2\n      swap1\n      tag_26\n      jump\t// in\n    tag_25:\n      tag_27\n      jump\t// in\n    tag_24:\n      stop\n        /* \"contracts/Mapping.sol\":395:490  function isRegistered() public view returns(bool){... */\n    tag_9:\n        /* \"contracts/Mapping.sol\":439:443  bool */\n      0x00\n        /* \"contracts/Mapping.sol\":461:471  registered */\n      dup1\n        /* \"contracts/Mapping.sol\":461:483  registered[msg.sender] */\n      0x00\n        /* \"contracts/Mapping.sol\":472:482  msg.sender */\n      caller\n        /* \"contracts/Mapping.sol\":461:483  registered[msg.sender] */\n      0xffffffffffffffffffffffffffffffffffffffff\n      and\n      0xffffffffffffffffffffffffffffffffffffffff\n      and\n      dup2\n      mstore\n      0x20\n      add\n      swap1\n      dup2\n      mstore\n      0x20\n      add\n      0x00\n      keccak256\n      0x00\n      swap1\n      sload\n      swap1\n      0x0100\n      exp\n      swap1\n      div\n      0xff\n      and\n        /* \"contracts/Mapping.sol\":454:483  return registered[msg.sender] */\n      swap1\n      pop\n        /* \"contracts/Mapping.sol\":395:490  function isRegistered() public view returns(bool){... */\n      swap1\n      jump\t// out\n        /* \"contracts/Mapping.sol\":496:676  function deleteRegistered() public {... */\n    tag_13:\n        /* \"contracts/Mapping.sol\":549:563  isRegistered() */\n      tag_30\n        /* \"contracts/Mapping.sol\":549:561  isRegistered */\n      tag_9\n        /* \"contracts/Mapping.sol\":549:563  isRegistered() */\n      jump\t// in\n    tag_30:\n        /* \"contracts/Mapping.sol\":541:592  require(isRegistered(), \"Kullanici kayitli degil!\") */\n      tag_31\n      jumpi\n      mload(0x40)\n      0x08c379a000000000000000000000000000000000000000000000000000000000\n      dup2\n      mstore\n      0x04\n      add\n      tag_32\n      swap1\n      tag_33\n      jump\t// in\n    tag_32:\n      mload(0x40)\n      dup1\n      swap2\n      sub\n      swap1\n      revert\n    tag_31:\n        /* \"contracts/Mapping.sol\":609:619  registered */\n      0x00\n        /* \"contracts/Mapping.sol\":609:631  registered[msg.sender] */\n      dup1\n        /* \"contracts/Mapping.sol\":620:630  msg.sender */\n      caller\n        /* \"contracts/Mapping.sol\":609:631  registered[msg.sender] */\n      0xffffffffffffffffffffffffffffffffffffffff\n      and\n      0xffffffffffffffffffffffffffffffffffffffff\n      and\n      dup2\n      mstore\n      0x20\n      add\n      swap1\n      dup2\n      mstore\n      0x20\n      add\n      0x00\n      keccak256\n      0x00\n        /* \"contracts/Mapping.sol\":602:632  delete(registered[msg.sender]) */\n      0x0100\n      exp\n      dup2\n      sload\n      swap1\n      0xff\n      mul\n      not\n      and\n      swap1\n      sstore\n        /* \"contracts/Mapping.sol\":649:656  favNums */\n      0x01\n        /* \"contracts/Mapping.sol\":649:668  favNums[msg.sender] */\n      0x00\n        /* \"contracts/Mapping.sol\":657:667  msg.sender */\n      caller\n        /* \"contracts/Mapping.sol\":649:668  favNums[msg.sender] */\n      0xffffffffffffffffffffffffffffffffffffffff\n      and\n      0xffffffffffffffffffffffffffffffffffffffff\n      and\n      dup2\n      mstore\n      0x20\n      add\n      swap1\n      dup2\n      mstore\n      0x20\n      add\n      0x00\n      keccak256\n        /* \"contracts/Mapping.sol\":642:669  delete(favNums[msg.sender]) */\n      0x00\n      swap1\n      sstore\n        /* \"contracts/Mapping.sol\":496:676  function deleteRegistered() public {... */\n      jump\t// out\n        /* \"contracts/Mapping.sol\":88:130  mapping(address => bool) public registered */\n    tag_17:\n      mstore(0x20, 0x00)\n      dup1\n      0x00\n      mstore\n      keccak256(0x00, 0x40)\n      0x00\n      swap2\n      pop\n      sload\n      swap1\n      0x0100\n      exp\n      swap1\n      div\n      0xff\n      and\n      dup2\n      jump\t// out\n        /* \"contracts/Mapping.sol\":136:177  mapping(address => int256) public favNums */\n    tag_21:\n      mstore(0x20, 0x01)\n      dup1\n      0x00\n      mstore\n      keccak256(0x00, 0x40)\n      0x00\n      swap2\n      pop\n      swap1\n      pop\n      sload\n      dup2\n      jump\t// out\n        /* \"contracts/Mapping.sol\":183:389  function register(int256 _favNums) public {... */\n    tag_27:\n        /* \"contracts/Mapping.sol\":244:254  registered */\n      0x00\n        /* \"contracts/Mapping.sol\":244:266  registered[msg.sender] */\n      dup1\n        /* \"contracts/Mapping.sol\":255:265  msg.sender */\n      caller\n        /* \"contracts/Mapping.sol\":244:266  registered[msg.sender] */\n      0xffffffffffffffffffffffffffffffffffffffff\n      and\n      0xffffffffffffffffffffffffffffffffffffffff\n      and\n      dup2\n      mstore\n      0x20\n      add\n      swap1\n      dup2\n      mstore\n      0x20\n      add\n      0x00\n      keccak256\n      0x00\n      swap1\n      sload\n      swap1\n      0x0100\n      exp\n      swap1\n      div\n      0xff\n      and\n        /* \"contracts/Mapping.sol\":243:266  !registered[msg.sender] */\n      iszero\n        /* \"contracts/Mapping.sol\":235:303  require(!registered[msg.sender], \"Kullanici daha once kayit yapti.\") */\n      tag_35\n      jumpi\n      mload(0x40)\n      0x08c379a000000000000000000000000000000000000000000000000000000000\n      dup2\n      mstore\n      0x04\n      add\n      tag_36\n      swap1\n      tag_37\n      jump\t// in\n    tag_36:\n      mload(0x40)\n      dup1\n      swap2\n      sub\n      swap1\n      revert\n    tag_35:\n        /* \"contracts/Mapping.sol\":338:342  true */\n      0x01\n        /* \"contracts/Mapping.sol\":313:323  registered */\n      0x00\n        /* \"contracts/Mapping.sol\":313:335  registered[msg.sender] */\n      dup1\n        /* \"contracts/Mapping.sol\":324:334  msg.sender */\n      caller\n        /* \"contracts/Mapping.sol\":313:335  registered[msg.sender] */\n      0xffffffffffffffffffffffffffffffffffffffff\n      and\n      0xffffffffffffffffffffffffffffffffffffffff\n      and\n      dup2\n      mstore\n      0x20\n      add\n      swap1\n      dup2\n      mstore\n      0x20\n      add\n      0x00\n      keccak256\n      0x00\n        /* \"contracts/Mapping.sol\":313:342  registered[msg.sender] = true */\n      0x0100\n      exp\n      dup2\n      sload\n      dup2\n      0xff\n      mul\n      not\n      and\n      swap1\n      dup4\n      iszero\n      iszero\n      mul\n      or\n      swap1\n      sstore\n      pop\n        /* \"contracts/Mapping.sol\":374:382  _favNums */\n      dup1\n        /* \"contracts/Mapping.sol\":352:359  favNums */\n      0x01\n        /* \"contracts/Mapping.sol\":352:371  favNums[msg.sender] */\n      0x00\n        /* \"contracts/Mapping.sol\":360:370  msg.sender */\n      caller\n        /* \"contracts/Mapping.sol\":352:371  favNums[msg.sender] */\n      0xffffffffffffffffffffffffffffffffffffffff\n      and\n      0xffffffffffffffffffffffffffffffffffffffff\n      and\n      dup2\n      mstore\n      0x20\n      add\n      swap1\n      dup2\n      mstore\n      0x20\n      add\n      0x00\n      keccak256\n        /* \"contracts/Mapping.sol\":352:382  favNums[msg.sender] = _favNums */\n      dup2\n      swap1\n      sstore\n      pop\n        /* \"contracts/Mapping.sol\":183:389  function register(int256 _favNums) public {... */\n      pop\n      jump\t// out\n        /* \"#utility.yul\":7:146   */\n    tag_39:\n        /* \"#utility.yul\":53:58   */\n      0x00\n        /* \"#utility.yul\":91:97   */\n      dup2\n        /* \"#utility.yul\":78:98   */\n      calldataload\n        /* \"#utility.yul\":69:98   */\n      swap1\n      pop\n        /* \"#utility.yul\":107:140   */\n      tag_41\n        /* \"#utility.yul\":134:139   */\n      dup2\n        /* \"#utility.yul\":107:140   */\n      tag_42\n      jump\t// in\n    tag_41:\n        /* \"#utility.yul\":7:146   */\n      swap3\n      swap2\n      pop\n      pop\n      jump\t// out\n        /* \"#utility.yul\":152:289   */\n    tag_43:\n        /* \"#utility.yul\":197:202   */\n      0x00\n        /* \"#utility.yul\":235:241   */\n      dup2\n        /* \"#utility.yul\":222:242   */\n      calldataload\n        /* \"#utility.yul\":213:242   */\n      swap1\n      pop\n        /* \"#utility.yul\":251:283   */\n      tag_45\n        /* \"#utility.yul\":277:282   */\n      dup2\n        /* \"#utility.yul\":251:283   */\n      tag_46\n      jump\t// in\n    tag_45:\n        /* \"#utility.yul\":152:289   */\n      swap3\n      swap2\n      pop\n      pop\n      jump\t// out\n        /* \"#utility.yul\":295:624   */\n    tag_16:\n        /* \"#utility.yul\":354:360   */\n      0x00\n        /* \"#utility.yul\":403:405   */\n      0x20\n        /* \"#utility.yul\":391:400   */\n      dup3\n        /* \"#utility.yul\":382:389   */\n      dup5\n        /* \"#utility.yul\":378:401   */\n      sub\n        /* \"#utility.yul\":374:406   */\n      slt\n        /* \"#utility.yul\":371:490   */\n      iszero\n      tag_48\n      jumpi\n        /* \"#utility.yul\":409:488   */\n      tag_49\n      tag_50\n      jump\t// in\n    tag_49:\n        /* \"#utility.yul\":371:490   */\n    tag_48:\n        /* \"#utility.yul\":529:530   */\n      0x00\n        /* \"#utility.yul\":554:607   */\n      tag_51\n        /* \"#utility.yul\":599:606   */\n      dup5\n        /* \"#utility.yul\":590:596   */\n      dup3\n        /* \"#utility.yul\":579:588   */\n      dup6\n        /* \"#utility.yul\":575:597   */\n      add\n        /* \"#utility.yul\":554:607   */\n      tag_39\n      jump\t// in\n    tag_51:\n        /* \"#utility.yul\":544:607   */\n      swap2\n      pop\n        /* \"#utility.yul\":500:617   */\n      pop\n        /* \"#utility.yul\":295:624   */\n      swap3\n      swap2\n      pop\n      pop\n      jump\t// out\n        /* \"#utility.yul\":630:957   */\n    tag_26:\n        /* \"#utility.yul\":688:694   */\n      0x00\n        /* \"#utility.yul\":737:739   */\n      0x20\n        /* \"#utility.yul\":725:734   */\n      dup3\n        /* \"#utility.yul\":716:723   */\n      dup5\n        /* \"#utility.yul\":712:735   */\n      sub\n        /* \"#utility.yul\":708:740   */\n      slt\n        /* \"#utility.yul\":705:824   */\n      iszero\n      tag_53\n      jumpi\n        /* \"#utility.yul\":743:822   */\n      tag_54\n      tag_50\n      jump\t// in\n    tag_54:\n        /* \"#utility.yul\":705:824   */\n    tag_53:\n        /* \"#utility.yul\":863:864   */\n      0x00\n        /* \"#utility.yul\":888:940   */\n      tag_55\n        /* \"#utility.yul\":932:939   */\n      dup5\n        /* \"#utility.yul\":923:929   */\n      dup3\n        /* \"#utility.yul\":912:921   */\n      dup6\n        /* \"#utility.yul\":908:930   */\n      add\n        /* \"#utility.yul\":888:940   */\n      tag_43\n      jump\t// in\n    tag_55:\n        /* \"#utility.yul\":878:940   */\n      swap2\n      pop\n        /* \"#utility.yul\":834:950   */\n      pop\n        /* \"#utility.yul\":630:957   */\n      swap3\n      swap2\n      pop\n      pop\n      jump\t// out\n        /* \"#utility.yul\":963:1072   */\n    tag_56:\n        /* \"#utility.yul\":1044:1065   */\n      tag_58\n        /* \"#utility.yul\":1059:1064   */\n      dup2\n        /* \"#utility.yul\":1044:1065   */\n      tag_59\n      jump\t// in\n    tag_58:\n        /* \"#utility.yul\":1039:1042   */\n      dup3\n        /* \"#utility.yul\":1032:1066   */\n      mstore\n        /* \"#utility.yul\":963:1072   */\n      pop\n      pop\n      jump\t// out\n        /* \"#utility.yul\":1078:1193   */\n    tag_60:\n        /* \"#utility.yul\":1163:1186   */\n      tag_62\n        /* \"#utility.yul\":1180:1185   */\n      dup2\n        /* \"#utility.yul\":1163:1186   */\n      tag_63\n      jump\t// in\n    tag_62:\n        /* \"#utility.yul\":1158:1161   */\n      dup3\n        /* \"#utility.yul\":1151:1187   */\n      mstore\n        /* \"#utility.yul\":1078:1193   */\n      pop\n      pop\n      jump\t// out\n        /* \"#utility.yul\":1199:1565   */\n    tag_64:\n        /* \"#utility.yul\":1341:1344   */\n      0x00\n        /* \"#utility.yul\":1362:1429   */\n      tag_66\n        /* \"#utility.yul\":1426:1428   */\n      0x18\n        /* \"#utility.yul\":1421:1424   */\n      dup4\n        /* \"#utility.yul\":1362:1429   */\n      tag_67\n      jump\t// in\n    tag_66:\n        /* \"#utility.yul\":1355:1429   */\n      swap2\n      pop\n        /* \"#utility.yul\":1438:1531   */\n      tag_68\n        /* \"#utility.yul\":1527:1530   */\n      dup3\n        /* \"#utility.yul\":1438:1531   */\n      tag_69\n      jump\t// in\n    tag_68:\n        /* \"#utility.yul\":1556:1558   */\n      0x20\n        /* \"#utility.yul\":1551:1554   */\n      dup3\n        /* \"#utility.yul\":1547:1559   */\n      add\n        /* \"#utility.yul\":1540:1559   */\n      swap1\n      pop\n        /* \"#utility.yul\":1199:1565   */\n      swap2\n      swap1\n      pop\n      jump\t// out\n        /* \"#utility.yul\":1571:1937   */\n    tag_70:\n        /* \"#utility.yul\":1713:1716   */\n      0x00\n        /* \"#utility.yul\":1734:1801   */\n      tag_72\n        /* \"#utility.yul\":1798:1800   */\n      0x20\n        /* \"#utility.yul\":1793:1796   */\n      dup4\n        /* \"#utility.yul\":1734:1801   */\n      tag_67\n      jump\t// in\n    tag_72:\n        /* \"#utility.yul\":1727:1801   */\n      swap2\n      pop\n        /* \"#utility.yul\":1810:1903   */\n      tag_73\n        /* \"#utility.yul\":1899:1902   */\n      dup3\n        /* \"#utility.yul\":1810:1903   */\n      tag_74\n      jump\t// in\n    tag_73:\n        /* \"#utility.yul\":1928:1930   */\n      0x20\n        /* \"#utility.yul\":1923:1926   */\n      dup3\n        /* \"#utility.yul\":1919:1931   */\n      add\n        /* \"#utility.yul\":1912:1931   */\n      swap1\n      pop\n        /* \"#utility.yul\":1571:1937   */\n      swap2\n      swap1\n      pop\n      jump\t// out\n        /* \"#utility.yul\":1943:2153   */\n    tag_11:\n        /* \"#utility.yul\":2030:2034   */\n      0x00\n        /* \"#utility.yul\":2068:2070   */\n      0x20\n        /* \"#utility.yul\":2057:2066   */\n      dup3\n        /* \"#utility.yul\":2053:2071   */\n      add\n        /* \"#utility.yul\":2045:2071   */\n      swap1\n      pop\n        /* \"#utility.yul\":2081:2146   */\n      tag_76\n        /* \"#utility.yul\":2143:2144   */\n      0x00\n        /* \"#utility.yul\":2132:2141   */\n      dup4\n        /* \"#utility.yul\":2128:2145   */\n      add\n        /* \"#utility.yul\":2119:2125   */\n      dup5\n        /* \"#utility.yul\":2081:2146   */\n      tag_56\n      jump\t// in\n    tag_76:\n        /* \"#utility.yul\":1943:2153   */\n      swap3\n      swap2\n      pop\n      pop\n      jump\t// out\n        /* \"#utility.yul\":2159:2377   */\n    tag_23:\n        /* \"#utility.yul\":2250:2254   */\n      0x00\n        /* \"#utility.yul\":2288:2290   */\n      0x20\n        /* \"#utility.yul\":2277:2286   */\n      dup3\n        /* \"#utility.yul\":2273:2291   */\n      add\n        /* \"#utility.yul\":2265:2291   */\n      swap1\n      pop\n        /* \"#utility.yul\":2301:2370   */\n      tag_78\n        /* \"#utility.yul\":2367:2368   */\n      0x00\n        /* \"#utility.yul\":2356:2365   */\n      dup4\n        /* \"#utility.yul\":2352:2369   */\n      add\n        /* \"#utility.yul\":2343:2349   */\n      dup5\n        /* \"#utility.yul\":2301:2370   */\n      tag_60\n      jump\t// in\n    tag_78:\n        /* \"#utility.yul\":2159:2377   */\n      swap3\n      swap2\n      pop\n      pop\n      jump\t// out\n        /* \"#utility.yul\":2383:2802   */\n    tag_33:\n        /* \"#utility.yul\":2549:2553   */\n      0x00\n        /* \"#utility.yul\":2587:2589   */\n      0x20\n        /* \"#utility.yul\":2576:2585   */\n      dup3\n        /* \"#utility.yul\":2572:2590   */\n      add\n        /* \"#utility.yul\":2564:2590   */\n      swap1\n      pop\n        /* \"#utility.yul\":2636:2645   */\n      dup2\n        /* \"#utility.yul\":2630:2634   */\n      dup2\n        /* \"#utility.yul\":2626:2646   */\n      sub\n        /* \"#utility.yul\":2622:2623   */\n      0x00\n        /* \"#utility.yul\":2611:2620   */\n      dup4\n        /* \"#utility.yul\":2607:2624   */\n      add\n        /* \"#utility.yul\":2600:2647   */\n      mstore\n        /* \"#utility.yul\":2664:2795   */\n      tag_80\n        /* \"#utility.yul\":2790:2794   */\n      dup2\n        /* \"#utility.yul\":2664:2795   */\n      tag_64\n      jump\t// in\n    tag_80:\n        /* \"#utility.yul\":2656:2795   */\n      swap1\n      pop\n        /* \"#utility.yul\":2383:2802   */\n      swap2\n      swap1\n      pop\n      jump\t// out\n        /* \"#utility.yul\":2808:3227   */\n    tag_37:\n        /* \"#utility.yul\":2974:2978   */\n      0x00\n        /* \"#utility.yul\":3012:3014   */\n      0x20\n        /* \"#utility.yul\":3001:3010   */\n      dup3\n        /* \"#utility.yul\":2997:3015   */\n      add\n        /* \"#utility.yul\":2989:3015   */\n      swap1\n      pop\n        /* \"#utility.yul\":3061:3070   */\n      dup2\n        /* \"#utility.yul\":3055:3059   */\n      dup2\n        /* \"#utility.yul\":3051:3071   */\n      sub\n        /* \"#utility.yul\":3047:3048   */\n      0x00\n        /* \"#utility.yul\":3036:3045   */\n      dup4\n        /* \"#utility.yul\":3032:3049   */\n      add\n        /* \"#utility.yul\":3025:3072   */\n      mstore\n        /* \"#utility.yul\":3089:3220   */\n      tag_82\n        /* \"#utility.yul\":3215:3219   */\n      dup2\n        /* \"#utility.yul\":3089:3220   */\n      tag_70\n      jump\t// in\n    tag_82:\n        /* \"#utility.yul\":3081:3220   */\n      swap1\n      pop\n        /* \"#utility.yul\":2808:3227   */\n      swap2\n      swap1\n      pop\n      jump\t// out\n        /* \"#utility.yul\":3314:3483   */\n    tag_67:\n        /* \"#utility.yul\":3398:3409   */\n      0x00\n        /* \"#utility.yul\":3432:3438   */\n      dup3\n        /* \"#utility.yul\":3427:3430   */\n      dup3\n        /* \"#utility.yul\":3420:3439   */\n      mstore\n        /* \"#utility.yul\":3472:3476   */\n      0x20\n        /* \"#utility.yul\":3467:3470   */\n      dup3\n        /* \"#utility.yul\":3463:3477   */\n      add\n        /* \"#utility.yul\":3448:3477   */\n      swap1\n      pop\n        /* \"#utility.yul\":3314:3483   */\n      swap3\n      swap2\n      pop\n      pop\n      jump\t// out\n        /* \"#utility.yul\":3489:3585   */\n    tag_86:\n        /* \"#utility.yul\":3526:3533   */\n      0x00\n        /* \"#utility.yul\":3555:3579   */\n      tag_88\n        /* \"#utility.yul\":3573:3578   */\n      dup3\n        /* \"#utility.yul\":3555:3579   */\n      tag_89\n      jump\t// in\n    tag_88:\n        /* \"#utility.yul\":3544:3579   */\n      swap1\n      pop\n        /* \"#utility.yul\":3489:3585   */\n      swap2\n      swap1\n      pop\n      jump\t// out\n        /* \"#utility.yul\":3591:3681   */\n    tag_59:\n        /* \"#utility.yul\":3625:3632   */\n      0x00\n        /* \"#utility.yul\":3668:3673   */\n      dup2\n        /* \"#utility.yul\":3661:3674   */\n      iszero\n        /* \"#utility.yul\":3654:3675   */\n      iszero\n        /* \"#utility.yul\":3643:3675   */\n      swap1\n      pop\n        /* \"#utility.yul\":3591:3681   */\n      swap2\n      swap1\n      pop\n      jump\t// out\n        /* \"#utility.yul\":3687:3763   */\n    tag_63:\n        /* \"#utility.yul\":3723:3730   */\n      0x00\n        /* \"#utility.yul\":3752:3757   */\n      dup2\n        /* \"#utility.yul\":3741:3757   */\n      swap1\n      pop\n        /* \"#utility.yul\":3687:3763   */\n      swap2\n      swap1\n      pop\n      jump\t// out\n        /* \"#utility.yul\":3769:3895   */\n    tag_89:\n        /* \"#utility.yul\":3806:3813   */\n      0x00\n        /* \"#utility.yul\":3846:3888   */\n      0xffffffffffffffffffffffffffffffffffffffff\n        /* \"#utility.yul\":3839:3844   */\n      dup3\n        /* \"#utility.yul\":3835:3889   */\n      and\n        /* \"#utility.yul\":3824:3889   */\n      swap1\n      pop\n        /* \"#utility.yul\":3769:3895   */\n      swap2\n      swap1\n      pop\n      jump\t// out\n        /* \"#utility.yul\":4024:4141   */\n    tag_50:\n        /* \"#utility.yul\":4133:4134   */\n      0x00\n        /* \"#utility.yul\":4130:4131   */\n      dup1\n        /* \"#utility.yul\":4123:4135   */\n      revert\n        /* \"#utility.yul\":4147:4321   */\n    tag_69:\n        /* \"#utility.yul\":4287:4313   */\n      0x4b756c6c616e696369206b617969746c6920646567696c210000000000000000\n        /* \"#utility.yul\":4283:4284   */\n      0x00\n        /* \"#utility.yul\":4275:4281   */\n      dup3\n        /* \"#utility.yul\":4271:4285   */\n      add\n        /* \"#utility.yul\":4264:4314   */\n      mstore\n        /* \"#utility.yul\":4147:4321   */\n      pop\n      jump\t// out\n        /* \"#utility.yul\":4327:4509   */\n    tag_74:\n        /* \"#utility.yul\":4467:4501   */\n      0x4b756c6c616e6963692064616861206f6e6365206b617969742079617074692e\n        /* \"#utility.yul\":4463:4464   */\n      0x00\n        /* \"#utility.yul\":4455:4461   */\n      dup3\n        /* \"#utility.yul\":4451:4465   */\n      add\n        /* \"#utility.yul\":4444:4502   */\n      mstore\n        /* \"#utility.yul\":4327:4509   */\n      pop\n      jump\t// out\n        /* \"#utility.yul\":4515:4637   */\n    tag_42:\n        /* \"#utility.yul\":4588:4612   */\n      tag_99\n        /* \"#utility.yul\":4606:4611   */\n      dup2\n        /* \"#utility.yul\":4588:4612   */\n      tag_86\n      jump\t// in\n    tag_99:\n        /* \"#utility.yul\":4581:4586   */\n      dup2\n        /* \"#utility.yul\":4578:4613   */\n      eq\n        /* \"#utility.yul\":4568:4631   */\n      tag_100\n      jumpi\n        /* \"#utility.yul\":4627:4628   */\n      0x00\n        /* \"#utility.yul\":4624:4625   */\n      dup1\n        /* \"#utility.yul\":4617:4629   */\n      revert\n        /* \"#utility.yul\":4568:4631   */\n    tag_100:\n        /* \"#utility.yul\":4515:4637   */\n      pop\n      jump\t// out\n        /* \"#utility.yul\":4643:4763   */\n    tag_46:\n        /* \"#utility.yul\":4715:4738   */\n      tag_102\n        /* \"#utility.yul\":4732:4737   */\n      dup2\n        /* \"#utility.yul\":4715:4738   */\n      tag_63\n      jump\t// in\n    tag_102:\n        /* \"#utility.yul\":4708:4713   */\n      dup2\n        /* \"#utility.yul\":4705:4739   */\n      eq\n        /* \"#utility.yul\":4695:4757   */\n      tag_103\n      jumpi\n        /* \"#utility.yul\":4753:4754   */\n      0x00\n        /* \"#utility.yul\":4750:4751   */\n      dup1\n        /* \"#utility.yul\":4743:4755   */\n      revert\n        /* \"#utility.yul\":4695:4757   */\n    tag_103:\n        /* \"#utility.yul\":4643:4763   */\n      pop\n      jump\t// out\n\n    auxdata: 0xa2646970667358221220e517f9071dd4a44b6c63491a9c839071500dc2083642868434779ee061ad939064736f6c63430008070033\n}\n",
				"bytecode": {
					"linkReferences": {},
					"object": "608060405234801561001057600080fd5b50610601806100206000396000f3fe608060405234801561001057600080fd5b50600436106100575760003560e01c8063223668441461005c578063a31a9dc31461007a578063b2dd5c0714610084578063cce0b6a1146100b4578063e6059f96146100e4575b600080fd5b610064610100565b6040516100719190610477565b60405180910390f35b610082610153565b005b61009e600480360381019061009991906103b9565b61022d565b6040516100ab9190610477565b60405180910390f35b6100ce60048036038101906100c991906103b9565b61024d565b6040516100db9190610492565b60405180910390f35b6100fe60048036038101906100f991906103e6565b610265565b005b60008060003373ffffffffffffffffffffffffffffffffffffffff1673ffffffffffffffffffffffffffffffffffffffff16815260200190815260200160002060009054906101000a900460ff16905090565b61015b610100565b61019a576040517f08c379a0000000000000000000000000000000000000000000000000000000008152600401610191906104ad565b60405180910390fd5b6000803373ffffffffffffffffffffffffffffffffffffffff1673ffffffffffffffffffffffffffffffffffffffff16815260200190815260200160002060006101000a81549060ff0219169055600160003373ffffffffffffffffffffffffffffffffffffffff1673ffffffffffffffffffffffffffffffffffffffff16815260200190815260200160002060009055565b60006020528060005260406000206000915054906101000a900460ff1681565b60016020528060005260406000206000915090505481565b6000803373ffffffffffffffffffffffffffffffffffffffff1673ffffffffffffffffffffffffffffffffffffffff16815260200190815260200160002060009054906101000a900460ff16156102f1576040517f08c379a00000000000000000000000000000000000000000000000000000000081526004016102e8906104cd565b60405180910390fd5b60016000803373ffffffffffffffffffffffffffffffffffffffff1673ffffffffffffffffffffffffffffffffffffffff16815260200190815260200160002060006101000a81548160ff02191690831515021790555080600160003373ffffffffffffffffffffffffffffffffffffffff1673ffffffffffffffffffffffffffffffffffffffff1681526020019081526020016000208190555050565b60008135905061039e8161059d565b92915050565b6000813590506103b3816105b4565b92915050565b6000602082840312156103cf576103ce610546565b5b60006103dd8482850161038f565b91505092915050565b6000602082840312156103fc576103fb610546565b5b600061040a848285016103a4565b91505092915050565b61041c81610510565b82525050565b61042b8161051c565b82525050565b600061043e6018836104ed565b91506104498261054b565b602082019050919050565b60006104616020836104ed565b915061046c82610574565b602082019050919050565b600060208201905061048c6000830184610413565b92915050565b60006020820190506104a76000830184610422565b92915050565b600060208201905081810360008301526104c681610431565b9050919050565b600060208201905081810360008301526104e681610454565b9050919050565b600082825260208201905092915050565b600061050982610526565b9050919050565b60008115159050919050565b6000819050919050565b600073ffffffffffffffffffffffffffffffffffffffff82169050919050565b600080fd5b7f4b756c6c616e696369206b617969746c6920646567696c210000000000000000600082015250565b7f4b756c6c616e6963692064616861206f6e6365206b617969742079617074692e600082015250565b6105a6816104fe565b81146105b157600080fd5b50565b6105bd8161051c565b81146105c857600080fd5b5056fea2646970667358221220e517f9071dd4a44b6c63491a9c839071500dc2083642868434779ee061ad939064736f6c63430008070033",
					"opcodes": "PUSH1 0x80 PUSH1 0x40 MSTORE CALLVALUE DUP1 ISZERO PUSH2 0x10 JUMPI PUSH1 0x0 DUP1 REVERT JUMPDEST POP PUSH2 0x601 DUP1 PUSH2 0x20 PUSH1 0x0 CODECOPY PUSH1 0x0 RETURN INVALID PUSH1 0x80 PUSH1 0x40 MSTORE CALLVALUE DUP1 ISZERO PUSH2 0x10 JUMPI PUSH1 0x0 DUP1 REVERT JUMPDEST POP PUSH1 0x4 CALLDATASIZE LT PUSH2 0x57 JUMPI PUSH1 0x0 CALLDATALOAD PUSH1 0xE0 SHR DUP1 PUSH4 0x22366844 EQ PUSH2 0x5C JUMPI DUP1 PUSH4 0xA31A9DC3 EQ PUSH2 0x7A JUMPI DUP1 PUSH4 0xB2DD5C07 EQ PUSH2 0x84 JUMPI DUP1 PUSH4 0xCCE0B6A1 EQ PUSH2 0xB4 JUMPI DUP1 PUSH4 0xE6059F96 EQ PUSH2 0xE4 JUMPI JUMPDEST PUSH1 0x0 DUP1 REVERT JUMPDEST PUSH2 0x64 PUSH2 0x100 JUMP JUMPDEST PUSH1 0x40 MLOAD PUSH2 0x71 SWAP2 SWAP1 PUSH2 0x477 JUMP JUMPDEST PUSH1 0x40 MLOAD DUP1 SWAP2 SUB SWAP1 RETURN JUMPDEST PUSH2 0x82 PUSH2 0x153 JUMP JUMPDEST STOP JUMPDEST PUSH2 0x9E PUSH1 0x4 DUP1 CALLDATASIZE SUB DUP2 ADD SWAP1 PUSH2 0x99 SWAP2 SWAP1 PUSH2 0x3B9 JUMP JUMPDEST PUSH2 0x22D JUMP JUMPDEST PUSH1 0x40 MLOAD PUSH2 0xAB SWAP2 SWAP1 PUSH2 0x477 JUMP JUMPDEST PUSH1 0x40 MLOAD DUP1 SWAP2 SUB SWAP1 RETURN JUMPDEST PUSH2 0xCE PUSH1 0x4 DUP1 CALLDATASIZE SUB DUP2 ADD SWAP1 PUSH2 0xC9 SWAP2 SWAP1 PUSH2 0x3B9 JUMP JUMPDEST PUSH2 0x24D JUMP JUMPDEST PUSH1 0x40 MLOAD PUSH2 0xDB SWAP2 SWAP1 PUSH2 0x492 JUMP JUMPDEST PUSH1 0x40 MLOAD DUP1 SWAP2 SUB SWAP1 RETURN JUMPDEST PUSH2 0xFE PUSH1 0x4 DUP1 CALLDATASIZE SUB DUP2 ADD SWAP1 PUSH2 0xF9 SWAP2 SWAP1 PUSH2 0x3E6 JUMP JUMPDEST PUSH2 0x265 JUMP JUMPDEST STOP JUMPDEST PUSH1 0x0 DUP1 PUSH1 0x0 CALLER PUSH20 0xFFFFFFFFFFFFFFFFFFFFFFFFFFFFFFFFFFFFFFFF AND PUSH20 0xFFFFFFFFFFFFFFFFFFFFFFFFFFFFFFFFFFFFFFFF AND DUP2 MSTORE PUSH1 0x20 ADD SWAP1 DUP2 MSTORE PUSH1 0x20 ADD PUSH1 0x0 KECCAK256 PUSH1 0x0 SWAP1 SLOAD SWAP1 PUSH2 0x100 EXP SWAP1 DIV PUSH1 0xFF AND SWAP1 POP SWAP1 JUMP JUMPDEST PUSH2 0x15B PUSH2 0x100 JUMP JUMPDEST PUSH2 0x19A JUMPI PUSH1 0x40 MLOAD PUSH32 0x8C379A000000000000000000000000000000000000000000000000000000000 DUP2 MSTORE PUSH1 0x4 ADD PUSH2 0x191 SWAP1 PUSH2 0x4AD JUMP JUMPDEST PUSH1 0x40 MLOAD DUP1 SWAP2 SUB SWAP1 REVERT JUMPDEST PUSH1 0x0 DUP1 CALLER PUSH20 0xFFFFFFFFFFFFFFFFFFFFFFFFFFFFFFFFFFFFFFFF AND PUSH20 0xFFFFFFFFFFFFFFFFFFFFFFFFFFFFFFFFFFFFFFFF AND DUP2 MSTORE PUSH1 0x20 ADD SWAP1 DUP2 MSTORE PUSH1 0x20 ADD PUSH1 0x0 KECCAK256 PUSH1 0x0 PUSH2 0x100 EXP DUP2 SLOAD SWAP1 PUSH1 0xFF MUL NOT AND SWAP1 SSTORE PUSH1 0x1 PUSH1 0x0 CALLER PUSH20 0xFFFFFFFFFFFFFFFFFFFFFFFFFFFFFFFFFFFFFFFF AND PUSH20 0xFFFFFFFFFFFFFFFFFFFFFFFFFFFFFFFFFFFFFFFF AND DUP2 MSTORE PUSH1 0x20 ADD SWAP1 DUP2 MSTORE PUSH1 0x20 ADD PUSH1 0x0 KECCAK256 PUSH1 0x0 SWAP1 SSTORE JUMP JUMPDEST PUSH1 0x0 PUSH1 0x20 MSTORE DUP1 PUSH1 0x0 MSTORE PUSH1 0x40 PUSH1 0x0 KECCAK256 PUSH1 0x0 SWAP2 POP SLOAD SWAP1 PUSH2 0x100 EXP SWAP1 DIV PUSH1 0xFF AND DUP2 JUMP JUMPDEST PUSH1 0x1 PUSH1 0x20 MSTORE DUP1 PUSH1 0x0 MSTORE PUSH1 0x40 PUSH1 0x0 KECCAK256 PUSH1 0x0 SWAP2 POP SWAP1 POP SLOAD DUP2 JUMP JUMPDEST PUSH1 0x0 DUP1 CALLER PUSH20 0xFFFFFFFFFFFFFFFFFFFFFFFFFFFFFFFFFFFFFFFF AND PUSH20 0xFFFFFFFFFFFFFFFFFFFFFFFFFFFFFFFFFFFFFFFF AND DUP2 MSTORE PUSH1 0x20 ADD SWAP1 DUP2 MSTORE PUSH1 0x20 ADD PUSH1 0x0 KECCAK256 PUSH1 0x0 SWAP1 SLOAD SWAP1 PUSH2 0x100 EXP SWAP1 DIV PUSH1 0xFF AND ISZERO PUSH2 0x2F1 JUMPI PUSH1 0x40 MLOAD PUSH32 0x8C379A000000000000000000000000000000000000000000000000000000000 DUP2 MSTORE PUSH1 0x4 ADD PUSH2 0x2E8 SWAP1 PUSH2 0x4CD JUMP JUMPDEST PUSH1 0x40 MLOAD DUP1 SWAP2 SUB SWAP1 REVERT JUMPDEST PUSH1 0x1 PUSH1 0x0 DUP1 CALLER PUSH20 0xFFFFFFFFFFFFFFFFFFFFFFFFFFFFFFFFFFFFFFFF AND PUSH20 0xFFFFFFFFFFFFFFFFFFFFFFFFFFFFFFFFFFFFFFFF AND DUP2 MSTORE PUSH1 0x20 ADD SWAP1 DUP2 MSTORE PUSH1 0x20 ADD PUSH1 0x0 KECCAK256 PUSH1 0x0 PUSH2 0x100 EXP DUP2 SLOAD DUP2 PUSH1 0xFF MUL NOT AND SWAP1 DUP4 ISZERO ISZERO MUL OR SWAP1 SSTORE POP DUP1 PUSH1 0x1 PUSH1 0x0 CALLER PUSH20 0xFFFFFFFFFFFFFFFFFFFFFFFFFFFFFFFFFFFFFFFF AND PUSH20 0xFFFFFFFFFFFFFFFFFFFFFFFFFFFFFFFFFFFFFFFF AND DUP2 MSTORE PUSH1 0x20 ADD SWAP1 DUP2 MSTORE PUSH1 0x20 ADD PUSH1 0x0 KECCAK256 DUP2 SWAP1 SSTORE POP POP JUMP JUMPDEST PUSH1 0x0 DUP2 CALLDATALOAD SWAP1 POP PUSH2 0x39E DUP2 PUSH2 0x59D JUMP JUMPDEST SWAP3 SWAP2 POP POP JUMP JUMPDEST PUSH1 0x0 DUP2 CALLDATALOAD SWAP1 POP PUSH2 0x3B3 DUP2 PUSH2 0x5B4 JUMP JUMPDEST SWAP3 SWAP2 POP POP JUMP JUMPDEST PUSH1 0x0 PUSH1 0x20 DUP3 DUP5 SUB SLT ISZERO PUSH2 0x3CF JUMPI PUSH2 0x3CE PUSH2 0x546 JUMP JUMPDEST JUMPDEST PUSH1 0x0 PUSH2 0x3DD DUP5 DUP3 DUP6 ADD PUSH2 0x38F JUMP JUMPDEST SWAP2 POP POP SWAP3 SWAP2 POP POP JUMP JUMPDEST PUSH1 0x0 PUSH1 0x20 DUP3 DUP5 SUB SLT ISZERO PUSH2 0x3FC JUMPI PUSH2 0x3FB PUSH2 0x546 JUMP JUMPDEST JUMPDEST PUSH1 0x0 PUSH2 0x40A DUP5 DUP3 DUP6 ADD PUSH2 0x3A4 JUMP JUMPDEST SWAP2 POP POP SWAP3 SWAP2 POP POP JUMP JUMPDEST PUSH2 0x41C DUP2 PUSH2 0x510 JUMP JUMPDEST DUP3 MSTORE POP POP JUMP JUMPDEST PUSH2 0x42B DUP2 PUSH2 0x51C JUMP JUMPDEST DUP3 MSTORE POP POP JUMP JUMPDEST PUSH1 0x0 PUSH2 0x43E PUSH1 0x18 DUP4 PUSH2 0x4ED JUMP JUMPDEST SWAP2 POP PUSH2 0x449 DUP3 PUSH2 0x54B JUMP JUMPDEST PUSH1 0x20 DUP3 ADD SWAP1 POP SWAP2 SWAP1 POP JUMP JUMPDEST PUSH1 0x0 PUSH2 0x461 PUSH1 0x20 DUP4 PUSH2 0x4ED JUMP JUMPDEST SWAP2 POP PUSH2 0x46C DUP3 PUSH2 0x574 JUMP JUMPDEST PUSH1 0x20 DUP3 ADD SWAP1 POP SWAP2 SWAP1 POP JUMP JUMPDEST PUSH1 0x0 PUSH1 0x20 DUP3 ADD SWAP1 POP PUSH2 0x48C PUSH1 0x0 DUP4 ADD DUP5 PUSH2 0x413 JUMP JUMPDEST SWAP3 SWAP2 POP POP JUMP JUMPDEST PUSH1 0x0 PUSH1 0x20 DUP3 ADD SWAP1 POP PUSH2 0x4A7 PUSH1 0x0 DUP4 ADD DUP5 PUSH2 0x422 JUMP JUMPDEST SWAP3 SWAP2 POP POP JUMP JUMPDEST PUSH1 0x0 PUSH1 0x20 DUP3 ADD SWAP1 POP DUP2 DUP2 SUB PUSH1 0x0 DUP4 ADD MSTORE PUSH2 0x4C6 DUP2 PUSH2 0x431 JUMP JUMPDEST SWAP1 POP SWAP2 SWAP1 POP JUMP JUMPDEST PUSH1 0x0 PUSH1 0x20 DUP3 ADD SWAP1 POP DUP2 DUP2 SUB PUSH1 0x0 DUP4 ADD MSTORE PUSH2 0x4E6 DUP2 PUSH2 0x454 JUMP JUMPDEST SWAP1 POP SWAP2 SWAP1 POP JUMP JUMPDEST PUSH1 0x0 DUP3 DUP3 MSTORE PUSH1 0x20 DUP3 ADD SWAP1 POP SWAP3 SWAP2 POP POP JUMP JUMPDEST PUSH1 0x0 PUSH2 0x509 DUP3 PUSH2 0x526 JUMP JUMPDEST SWAP1 POP SWAP2 SWAP1 POP JUMP JUMPDEST PUSH1 0x0 DUP2 ISZERO ISZERO SWAP1 POP SWAP2 SWAP1 POP JUMP JUMPDEST PUSH1 0x0 DUP2 SWAP1 POP SWAP2 SWAP1 POP JUMP JUMPDEST PUSH1 0x0 PUSH20 0xFFFFFFFFFFFFFFFFFFFFFFFFFFFFFFFFFFFFFFFF DUP3 AND SWAP1 POP SWAP2 SWAP1 POP JUMP JUMPDEST PUSH1 0x0 DUP1 REVERT JUMPDEST PUSH32 0x4B756C6C616E696369206B617969746C6920646567696C210000000000000000 PUSH1 0x0 DUP3 ADD MSTORE POP JUMP JUMPDEST PUSH32 0x4B756C6C616E6963692064616861206F6E6365206B617969742079617074692E PUSH1 0x0 DUP3 ADD MSTORE POP JUMP JUMPDEST PUSH2 0x5A6 DUP2 PUSH2 0x4FE JUMP JUMPDEST DUP2 EQ PUSH2 0x5B1 JUMPI PUSH1 0x0 DUP1 REVERT JUMPDEST POP JUMP JUMPDEST PUSH2 0x5BD DUP2 PUSH2 0x51C JUMP JUMPDEST DUP2 EQ PUSH2 0x5C8 JUMPI PUSH1 0x0 DUP1 REVERT JUMPDEST POP JUMP INVALID LOG2 PUSH5 0x6970667358 0x22 SLT KECCAK256 0xE5 OR 0xF9 SMOD SAR 0xD4 LOG4 0x4B PUSH13 0x63491A9C839071500DC2083642 DUP7 DUP5 CALLVALUE PUSH24 0x9EE061AD939064736F6C6343000807003300000000000000 "
				},
				"gasEstimates": {
					"creation": {
						"codeDepositCost": "307400",
						"executionCost": "349",
						"totalCost": "307749"
					},
					"external": {
						"deleteRegistered()": "31850",
						"favNums(address)": "2858",
						"isRegistered()": "2546",
						"register(int256)": "49276",
						"registered(address)": "2867"
					}
				},
				"methodIdentifiers": {
					"deleteRegistered()": "a31a9dc3",
					"favNums(address)": "cce0b6a1",
					"isRegistered()": "22366844",
					"register(int256)": "e6059f96",
					"registered(address)": "b2dd5c07"
				}
			},
			"storageLayout": {
				"storage": [
					{
						"astId": 5,
						"contract": "contracts/Mapping.sol:Mapping",
						"label": "registered",
						"offset": 0,
						"slot": "0",
						"type": "t_mapping(t_address,t_bool)"
					},
					{
						"astId": 9,
						"contract": "contracts/Mapping.sol:Mapping",
						"label": "favNums",
						"offset": 0,
						"slot": "1",
						"type": "t_mapping(t_address,t_int256)"
					}
				],
				"types": {
					"t_address": {
						"encoding": "inplace",
						"label": "address",
						"numberOfBytes": "20"
					},
					"t_bool": {
						"encoding": "inplace",
						"label": "bool",
						"numberOfBytes": "1"
					},
					"t_int256": {
						"encoding": "inplace",
						"label": "int256",
						"numberOfBytes": "32"
					},
					"t_mapping(t_address,t_bool)": {
						"encoding": "mapping",
						"key": "t_address",
						"label": "mapping(address => bool)",
						"numberOfBytes": "32",
						"value": "t_bool"
					},
					"t_mapping(t_address,t_int256)": {
						"encoding": "mapping",
						"key": "t_address",
						"label": "mapping(address => int256)",
						"numberOfBytes": "32",
						"value": "t_int256"
					}
				}
			},
			"userdoc": {
				"kind": "user",
				"methods": {},
				"version": 1
			}
		}
	}
}