{
	"contracts/StructsEnumsModifiers.sol": {
		"StructsEnumsModifiers": {
			"abi": [
				{
					"inputs": [],
					"stateMutability": "nonpayable",
					"type": "constructor"
				},
				{
					"inputs": [
						{
							"internalType": "uint256",
							"name": "_orderId",
							"type": "uint256"
						}
					],
					"name": "advanceOrder",
					"outputs": [],
					"stateMutability": "nonpayable",
					"type": "function"
				},
				{
					"inputs": [
						{
							"internalType": "string",
							"name": "_zipCode",
							"type": "string"
						},
						{
							"internalType": "uint256[]",
							"name": "_products",
							"type": "uint256[]"
						}
					],
					"name": "createOrder",
					"outputs": [
						{
							"internalType": "uint256",
							"name": "",
							"type": "uint256"
						}
					],
					"stateMutability": "nonpayable",
					"type": "function"
				},
				{
					"inputs": [
						{
							"internalType": "uint256",
							"name": "",
							"type": "uint256"
						}
					],
					"name": "orders",
					"outputs": [
						{
							"internalType": "address",
							"name": "customer",
							"type": "address"
						},
						{
							"internalType": "string",
							"name": "zipCode",
							"type": "string"
						},
						{
							"internalType": "enum StructsEnumsModifiers.Status",
							"name": "status",
							"type": "uint8"
						}
					],
					"stateMutability": "view",
					"type": "function"
				},
				{
					"inputs": [],
					"name": "owner",
					"outputs": [
						{
							"internalType": "address",
							"name": "",
							"type": "address"
						}
					],
					"stateMutability": "view",
					"type": "function"
				},
				{
					"inputs": [],
					"name": "txCount",
					"outputs": [
						{
							"internalType": "uint256",
							"name": "",
							"type": "uint256"
						}
					],
					"stateMutability": "view",
					"type": "function"
				},
				{
					"inputs": [
						{
							"internalType": "uint256",
							"name": "_orderId",
							"type": "uint256"
						},
						{
							"internalType": "string",
							"name": "_zip",
							"type": "string"
						}
					],
					"name": "updateZip",
					"outputs": [],
					"stateMutability": "nonpayable",
					"type": "function"
				}
			],
			"devdoc": {
				"kind": "dev",
				"methods": {},
				"version": 1
			},
			"evm": {
				"assembly": "    /* \"contracts/StructsEnumsModifiers.sol\":64:2050  contract StructsEnumsModifiers {... */\n  mstore(0x40, 0x80)\n    /* \"contracts/StructsEnumsModifiers.sol\":401:450  constructor() {... */\n  callvalue\n  dup1\n  iszero\n  tag_1\n  jumpi\n  0x00\n  dup1\n  revert\ntag_1:\n  pop\n    /* \"contracts/StructsEnumsModifiers.sol\":433:443  msg.sender */\n  caller\n    /* \"contracts/StructsEnumsModifiers.sol\":425:430  owner */\n  0x01\n  0x00\n    /* \"contracts/StructsEnumsModifiers.sol\":425:443  owner = msg.sender */\n  0x0100\n  exp\n  dup2\n  sload\n  dup2\n  0xffffffffffffffffffffffffffffffffffffffff\n  mul\n  not\n  and\n  swap1\n  dup4\n  0xffffffffffffffffffffffffffffffffffffffff\n  and\n  mul\n  or\n  swap1\n  sstore\n  pop\n    /* \"contracts/StructsEnumsModifiers.sol\":64:2050  contract StructsEnumsModifiers {... */\n  dataSize(sub_0)\n  dup1\n  dataOffset(sub_0)\n  0x00\n  codecopy\n  0x00\n  return\nstop\n\nsub_0: assembly {\n        /* \"contracts/StructsEnumsModifiers.sol\":64:2050  contract StructsEnumsModifiers {... */\n      mstore(0x40, 0x80)\n      callvalue\n      dup1\n      iszero\n      tag_1\n      jumpi\n      0x00\n      dup1\n      revert\n    tag_1:\n      pop\n      jumpi(tag_2, lt(calldatasize, 0x04))\n      shr(0xe0, calldataload(0x00))\n      dup1\n      0x3c540687\n      eq\n      tag_3\n      jumpi\n      dup1\n      0x577dc0a0\n      eq\n      tag_4\n      jumpi\n      dup1\n      0x6d9a65d8\n      eq\n      tag_5\n      jumpi\n      dup1\n      0x8da5cb5b\n      eq\n      tag_6\n      jumpi\n      dup1\n      0xa85c38ef\n      eq\n      tag_7\n      jumpi\n      dup1\n      0xafe13a62\n      eq\n      tag_8\n      jumpi\n    tag_2:\n      0x00\n      dup1\n      revert\n        /* \"contracts/StructsEnumsModifiers.sol\":372:394  uint256 public txCount */\n    tag_3:\n      tag_9\n      tag_10\n      jump\t// in\n    tag_9:\n      mload(0x40)\n      tag_11\n      swap2\n      swap1\n      tag_12\n      jump\t// in\n    tag_11:\n      mload(0x40)\n      dup1\n      swap2\n      sub\n      swap1\n      return\n        /* \"contracts/StructsEnumsModifiers.sol\":1513:1788  function updateZip(uint256 _orderId, string memory _zip) external {... */\n    tag_4:\n      tag_13\n      0x04\n      dup1\n      calldatasize\n      sub\n      dup2\n      add\n      swap1\n      tag_14\n      swap2\n      swap1\n      tag_15\n      jump\t// in\n    tag_14:\n      tag_16\n      jump\t// in\n    tag_13:\n      stop\n        /* \"contracts/StructsEnumsModifiers.sol\":456:878  function createOrder(string memory _zipCode, uint256[] memory _products) checkProducts(_products) external returns(uint256){... */\n    tag_5:\n      tag_17\n      0x04\n      dup1\n      calldatasize\n      sub\n      dup2\n      add\n      swap1\n      tag_18\n      swap2\n      swap1\n      tag_19\n      jump\t// in\n    tag_18:\n      tag_20\n      jump\t// in\n    tag_17:\n      mload(0x40)\n      tag_21\n      swap2\n      swap1\n      tag_12\n      jump\t// in\n    tag_21:\n      mload(0x40)\n      dup1\n      swap2\n      sub\n      swap1\n      return\n        /* \"contracts/StructsEnumsModifiers.sol\":346:366  address public owner */\n    tag_6:\n      tag_22\n      tag_23\n      jump\t// in\n    tag_22:\n      mload(0x40)\n      tag_24\n      swap2\n      swap1\n      tag_25\n      jump\t// in\n    tag_24:\n      mload(0x40)\n      dup1\n      swap2\n      sub\n      swap1\n      return\n        /* \"contracts/StructsEnumsModifiers.sol\":319:340  Order[] public orders */\n    tag_7:\n      tag_26\n      0x04\n      dup1\n      calldatasize\n      sub\n      dup2\n      add\n      swap1\n      tag_27\n      swap2\n      swap1\n      tag_28\n      jump\t// in\n    tag_27:\n      tag_29\n      jump\t// in\n    tag_26:\n      mload(0x40)\n      tag_30\n      swap4\n      swap3\n      swap2\n      swap1\n      tag_31\n      jump\t// in\n    tag_30:\n      mload(0x40)\n      dup1\n      swap2\n      sub\n      swap1\n      return\n        /* \"contracts/StructsEnumsModifiers.sol\":884:1508  function advanceOrder(uint256 _orderId) checkOrderId(_orderId) external {... */\n    tag_8:\n      tag_32\n      0x04\n      dup1\n      calldatasize\n      sub\n      dup2\n      add\n      swap1\n      tag_33\n      swap2\n      swap1\n      tag_28\n      jump\t// in\n    tag_33:\n      tag_34\n      jump\t// in\n    tag_32:\n      stop\n        /* \"contracts/StructsEnumsModifiers.sol\":372:394  uint256 public txCount */\n    tag_10:\n      sload(0x02)\n      dup2\n      jump\t// out\n        /* \"contracts/StructsEnumsModifiers.sol\":1513:1788  function updateZip(uint256 _orderId, string memory _zip) external {... */\n    tag_16:\n        /* \"contracts/StructsEnumsModifiers.sol\":1608:1614  orders */\n      0x00\n        /* \"contracts/StructsEnumsModifiers.sol\":1608:1621  orders.length */\n      dup1\n      sload\n      swap1\n      pop\n        /* \"contracts/StructsEnumsModifiers.sol\":1596:1604  _orderId */\n      dup3\n        /* \"contracts/StructsEnumsModifiers.sol\":1596:1621  _orderId <= orders.length */\n      gt\n      iszero\n        /* \"contracts/StructsEnumsModifiers.sol\":1588:1646  require(_orderId <= orders.length, \"Not a valid order id\") */\n      tag_36\n      jumpi\n      mload(0x40)\n      0x08c379a000000000000000000000000000000000000000000000000000000000\n      dup2\n      mstore\n      0x04\n      add\n      tag_37\n      swap1\n      tag_38\n      jump\t// in\n    tag_37:\n      mload(0x40)\n      dup1\n      swap2\n      sub\n      swap1\n      revert\n    tag_36:\n        /* \"contracts/StructsEnumsModifiers.sol\":1692:1702  msg.sender */\n      caller\n        /* \"contracts/StructsEnumsModifiers.sol\":1663:1702  orders[_orderId].customer == msg.sender */\n      0xffffffffffffffffffffffffffffffffffffffff\n      and\n        /* \"contracts/StructsEnumsModifiers.sol\":1663:1669  orders */\n      0x00\n        /* \"contracts/StructsEnumsModifiers.sol\":1670:1678  _orderId */\n      dup4\n        /* \"contracts/StructsEnumsModifiers.sol\":1663:1679  orders[_orderId] */\n      dup2\n      sload\n      dup2\n      lt\n      tag_39\n      jumpi\n      tag_40\n      tag_41\n      jump\t// in\n    tag_40:\n    tag_39:\n      swap1\n      0x00\n      mstore\n      keccak256(0x00, 0x20)\n      swap1\n      0x04\n      mul\n      add\n        /* \"contracts/StructsEnumsModifiers.sol\":1663:1688  orders[_orderId].customer */\n      0x00\n      add\n      0x00\n      swap1\n      sload\n      swap1\n      0x0100\n      exp\n      swap1\n      div\n      0xffffffffffffffffffffffffffffffffffffffff\n      and\n        /* \"contracts/StructsEnumsModifiers.sol\":1663:1702  orders[_orderId].customer == msg.sender */\n      0xffffffffffffffffffffffffffffffffffffffff\n      and\n      eq\n        /* \"contracts/StructsEnumsModifiers.sol\":1655:1741  require(orders[_orderId].customer == msg.sender, \"You are not the owner of the order\") */\n      tag_43\n      jumpi\n      mload(0x40)\n      0x08c379a000000000000000000000000000000000000000000000000000000000\n      dup2\n      mstore\n      0x04\n      add\n      tag_44\n      swap1\n      tag_45\n      jump\t// in\n    tag_44:\n      mload(0x40)\n      dup1\n      swap2\n      sub\n      swap1\n      revert\n    tag_43:\n        /* \"contracts/StructsEnumsModifiers.sol\":1778:1782  _zip */\n      dup1\n        /* \"contracts/StructsEnumsModifiers.sol\":1751:1757  orders */\n      0x00\n        /* \"contracts/StructsEnumsModifiers.sol\":1758:1766  _orderId */\n      dup4\n        /* \"contracts/StructsEnumsModifiers.sol\":1751:1767  orders[_orderId] */\n      dup2\n      sload\n      dup2\n      lt\n      tag_46\n      jumpi\n      tag_47\n      tag_41\n      jump\t// in\n    tag_47:\n    tag_46:\n      swap1\n      0x00\n      mstore\n      keccak256(0x00, 0x20)\n      swap1\n      0x04\n      mul\n      add\n        /* \"contracts/StructsEnumsModifiers.sol\":1751:1775  orders[_orderId].zipCode */\n      0x01\n      add\n        /* \"contracts/StructsEnumsModifiers.sol\":1751:1782  orders[_orderId].zipCode = _zip */\n      swap1\n      dup1\n      mload\n      swap1\n      0x20\n      add\n      swap1\n      tag_49\n      swap3\n      swap2\n      swap1\n      tag_50\n      jump\t// in\n    tag_49:\n      pop\n        /* \"contracts/StructsEnumsModifiers.sol\":1513:1788  function updateZip(uint256 _orderId, string memory _zip) external {... */\n      pop\n      pop\n      jump\t// out\n        /* \"contracts/StructsEnumsModifiers.sol\":456:878  function createOrder(string memory _zipCode, uint256[] memory _products) checkProducts(_products) external returns(uint256){... */\n    tag_20:\n        /* \"contracts/StructsEnumsModifiers.sol\":571:578  uint256 */\n      0x00\n        /* \"contracts/StructsEnumsModifiers.sol\":543:552  _products */\n      dup2\n        /* \"contracts/StructsEnumsModifiers.sol\":1880:1881  0 */\n      0x00\n        /* \"contracts/StructsEnumsModifiers.sol\":1861:1870  _products */\n      dup2\n        /* \"contracts/StructsEnumsModifiers.sol\":1861:1877  _products.length */\n      mload\n        /* \"contracts/StructsEnumsModifiers.sol\":1861:1881  _products.length > 0 */\n      gt\n        /* \"contracts/StructsEnumsModifiers.sol\":1853:1897  require(_products.length > 0, \"No products\") */\n      tag_52\n      jumpi\n      mload(0x40)\n      0x08c379a000000000000000000000000000000000000000000000000000000000\n      dup2\n      mstore\n      0x04\n      add\n      tag_53\n      swap1\n      tag_54\n      jump\t// in\n    tag_53:\n      mload(0x40)\n      dup1\n      swap2\n      sub\n      swap1\n      revert\n    tag_52:\n        /* \"contracts/StructsEnumsModifiers.sol\":646:664  Order memory order */\n      tag_56\n      tag_57\n      jump\t// in\n    tag_56:\n        /* \"contracts/StructsEnumsModifiers.sol\":691:701  msg.sender */\n      caller\n        /* \"contracts/StructsEnumsModifiers.sol\":674:679  order */\n      dup2\n        /* \"contracts/StructsEnumsModifiers.sol\":674:688  order.customer */\n      0x00\n      add\n        /* \"contracts/StructsEnumsModifiers.sol\":674:701  order.customer = msg.sender */\n      swap1\n      0xffffffffffffffffffffffffffffffffffffffff\n      and\n      swap1\n      dup2\n      0xffffffffffffffffffffffffffffffffffffffff\n      and\n      dup2\n      mstore\n      pop\n      pop\n        /* \"contracts/StructsEnumsModifiers.sol\":727:735  _zipCode */\n      dup5\n        /* \"contracts/StructsEnumsModifiers.sol\":711:716  order */\n      dup2\n        /* \"contracts/StructsEnumsModifiers.sol\":711:724  order.zipCode */\n      0x20\n      add\n        /* \"contracts/StructsEnumsModifiers.sol\":711:735  order.zipCode = _zipCode */\n      dup2\n      swap1\n      mstore\n      pop\n        /* \"contracts/StructsEnumsModifiers.sol\":762:771  _products */\n      dup4\n        /* \"contracts/StructsEnumsModifiers.sol\":745:750  order */\n      dup2\n        /* \"contracts/StructsEnumsModifiers.sol\":745:759  order.products */\n      0x40\n      add\n        /* \"contracts/StructsEnumsModifiers.sol\":745:771  order.products = _products */\n      dup2\n      swap1\n      mstore\n      pop\n        /* \"contracts/StructsEnumsModifiers.sol\":796:808  Status.Taken */\n      0x00\n        /* \"contracts/StructsEnumsModifiers.sol\":781:786  order */\n      dup2\n        /* \"contracts/StructsEnumsModifiers.sol\":781:793  order.status */\n      0x60\n      add\n        /* \"contracts/StructsEnumsModifiers.sol\":781:808  order.status = Status.Taken */\n      swap1\n      0x03\n      dup2\n      gt\n      iszero\n      tag_58\n      jumpi\n      tag_59\n      tag_60\n      jump\t// in\n    tag_59:\n    tag_58:\n      swap1\n      dup2\n      0x03\n      dup2\n      gt\n      iszero\n      tag_61\n      jumpi\n      tag_62\n      tag_60\n      jump\t// in\n    tag_62:\n    tag_61:\n      dup2\n      mstore\n      pop\n      pop\n        /* \"contracts/StructsEnumsModifiers.sol\":818:824  orders */\n      0x00\n        /* \"contracts/StructsEnumsModifiers.sol\":830:835  order */\n      dup2\n        /* \"contracts/StructsEnumsModifiers.sol\":818:836  orders.push(order) */\n      swap1\n      dup1\n      0x01\n      dup2\n      sload\n      add\n      dup1\n      dup3\n      sstore\n      dup1\n      swap2\n      pop\n      pop\n      0x01\n      swap1\n      sub\n      swap1\n      0x00\n      mstore\n      keccak256(0x00, 0x20)\n      swap1\n      0x04\n      mul\n      add\n      0x00\n      swap1\n      swap2\n      swap1\n      swap2\n      swap1\n      swap2\n      pop\n      0x00\n      dup3\n      add\n      mload\n      dup2\n      0x00\n      add\n      exp(0x0100, 0x00)\n      dup2\n      sload\n      dup2\n      0xffffffffffffffffffffffffffffffffffffffff\n      mul\n      not\n      and\n      swap1\n      dup4\n      0xffffffffffffffffffffffffffffffffffffffff\n      and\n      mul\n      or\n      swap1\n      sstore\n      pop\n      0x20\n      dup3\n      add\n      mload\n      dup2\n      0x01\n      add\n      swap1\n      dup1\n      mload\n      swap1\n      0x20\n      add\n      swap1\n      tag_64\n      swap3\n      swap2\n      swap1\n      tag_50\n      jump\t// in\n    tag_64:\n      pop\n      0x40\n      dup3\n      add\n      mload\n      dup2\n      0x02\n      add\n      swap1\n      dup1\n      mload\n      swap1\n      0x20\n      add\n      swap1\n      tag_65\n      swap3\n      swap2\n      swap1\n      tag_66\n      jump\t// in\n    tag_65:\n      pop\n      0x60\n      dup3\n      add\n      mload\n      dup2\n      0x03\n      add\n      exp(0x0100, 0x00)\n      dup2\n      sload\n      dup2\n      0xff\n      mul\n      not\n      and\n      swap1\n      dup4\n      0x03\n      dup2\n      gt\n      iszero\n      tag_67\n      jumpi\n      tag_68\n      tag_60\n      jump\t// in\n    tag_68:\n    tag_67:\n      mul\n      or\n      swap1\n      sstore\n      pop\n      pop\n      pop\n        /* \"contracts/StructsEnumsModifiers.sol\":870:871  1 */\n      0x01\n        /* \"contracts/StructsEnumsModifiers.sol\":854:860  orders */\n      0x00\n        /* \"contracts/StructsEnumsModifiers.sol\":854:867  orders.length */\n      dup1\n      sload\n      swap1\n      pop\n        /* \"contracts/StructsEnumsModifiers.sol\":854:871  orders.length - 1 */\n      tag_69\n      swap2\n      swap1\n      tag_70\n      jump\t// in\n    tag_69:\n        /* \"contracts/StructsEnumsModifiers.sol\":847:871  return orders.length - 1 */\n      swap3\n      pop\n      pop\n        /* \"contracts/StructsEnumsModifiers.sol\":456:878  function createOrder(string memory _zipCode, uint256[] memory _products) checkProducts(_products) external returns(uint256){... */\n      pop\n      swap3\n      swap2\n      pop\n      pop\n      jump\t// out\n        /* \"contracts/StructsEnumsModifiers.sol\":346:366  address public owner */\n    tag_23:\n      0x01\n      0x00\n      swap1\n      sload\n      swap1\n      0x0100\n      exp\n      swap1\n      div\n      0xffffffffffffffffffffffffffffffffffffffff\n      and\n      dup2\n      jump\t// out\n        /* \"contracts/StructsEnumsModifiers.sol\":319:340  Order[] public orders */\n    tag_29:\n      0x00\n      dup2\n      dup2\n      sload\n      dup2\n      lt\n      tag_71\n      jumpi\n      0x00\n      dup1\n      revert\n    tag_71:\n      swap1\n      0x00\n      mstore\n      keccak256(0x00, 0x20)\n      swap1\n      0x04\n      mul\n      add\n      0x00\n      swap2\n      pop\n      swap1\n      pop\n      dup1\n      0x00\n      add\n      0x00\n      swap1\n      sload\n      swap1\n      0x0100\n      exp\n      swap1\n      div\n      0xffffffffffffffffffffffffffffffffffffffff\n      and\n      swap1\n      dup1\n      0x01\n      add\n      dup1\n      sload\n      tag_73\n      swap1\n      tag_74\n      jump\t// in\n    tag_73:\n      dup1\n      0x1f\n      add\n      0x20\n      dup1\n      swap2\n      div\n      mul\n      0x20\n      add\n      mload(0x40)\n      swap1\n      dup2\n      add\n      0x40\n      mstore\n      dup1\n      swap3\n      swap2\n      swap1\n      dup2\n      dup2\n      mstore\n      0x20\n      add\n      dup3\n      dup1\n      sload\n      tag_75\n      swap1\n      tag_74\n      jump\t// in\n    tag_75:\n      dup1\n      iszero\n      tag_76\n      jumpi\n      dup1\n      0x1f\n      lt\n      tag_77\n      jumpi\n      0x0100\n      dup1\n      dup4\n      sload\n      div\n      mul\n      dup4\n      mstore\n      swap2\n      0x20\n      add\n      swap2\n      jump(tag_76)\n    tag_77:\n      dup3\n      add\n      swap2\n      swap1\n      0x00\n      mstore\n      keccak256(0x00, 0x20)\n      swap1\n    tag_78:\n      dup2\n      sload\n      dup2\n      mstore\n      swap1\n      0x01\n      add\n      swap1\n      0x20\n      add\n      dup1\n      dup4\n      gt\n      tag_78\n      jumpi\n      dup3\n      swap1\n      sub\n      0x1f\n      and\n      dup3\n      add\n      swap2\n    tag_76:\n      pop\n      pop\n      pop\n      pop\n      pop\n      swap1\n      dup1\n      0x03\n      add\n      0x00\n      swap1\n      sload\n      swap1\n      0x0100\n      exp\n      swap1\n      div\n      0xff\n      and\n      swap1\n      pop\n      dup4\n      jump\t// out\n        /* \"contracts/StructsEnumsModifiers.sol\":884:1508  function advanceOrder(uint256 _orderId) checkOrderId(_orderId) external {... */\n    tag_34:\n        /* \"contracts/StructsEnumsModifiers.sol\":937:945  _orderId */\n      dup1\n        /* \"contracts/StructsEnumsModifiers.sol\":1987:1993  orders */\n      0x00\n        /* \"contracts/StructsEnumsModifiers.sol\":1987:2000  orders.length */\n      dup1\n      sload\n      swap1\n      pop\n        /* \"contracts/StructsEnumsModifiers.sol\":1976:1984  _orderId */\n      dup2\n        /* \"contracts/StructsEnumsModifiers.sol\":1976:2000  _orderId < orders.length */\n      lt\n        /* \"contracts/StructsEnumsModifiers.sol\":1968:2025  require(_orderId < orders.length, \"Not a valid order id\") */\n      tag_80\n      jumpi\n      mload(0x40)\n      0x08c379a000000000000000000000000000000000000000000000000000000000\n      dup2\n      mstore\n      0x04\n      add\n      tag_81\n      swap1\n      tag_38\n      jump\t// in\n    tag_81:\n      mload(0x40)\n      dup1\n      swap2\n      sub\n      swap1\n      revert\n    tag_80:\n        /* \"contracts/StructsEnumsModifiers.sol\":988:993  owner */\n      0x01\n      0x00\n      swap1\n      sload\n      swap1\n      0x0100\n      exp\n      swap1\n      div\n      0xffffffffffffffffffffffffffffffffffffffff\n      and\n        /* \"contracts/StructsEnumsModifiers.sol\":974:993  msg.sender == owner */\n      0xffffffffffffffffffffffffffffffffffffffff\n      and\n        /* \"contracts/StructsEnumsModifiers.sol\":974:984  msg.sender */\n      caller\n        /* \"contracts/StructsEnumsModifiers.sol\":974:993  msg.sender == owner */\n      0xffffffffffffffffffffffffffffffffffffffff\n      and\n      eq\n        /* \"contracts/StructsEnumsModifiers.sol\":966:1020  require(msg.sender == owner, \"You're not authorized.\") */\n      tag_83\n      jumpi\n      mload(0x40)\n      0x08c379a000000000000000000000000000000000000000000000000000000000\n      dup2\n      mstore\n      0x04\n      add\n      tag_84\n      swap1\n      tag_85\n      jump\t// in\n    tag_84:\n      mload(0x40)\n      dup1\n      swap2\n      sub\n      swap1\n      revert\n    tag_83:\n        /* \"contracts/StructsEnumsModifiers.sol\":1100:1119  Order storage order */\n      0x00\n        /* \"contracts/StructsEnumsModifiers.sol\":1122:1128  orders */\n      dup1\n        /* \"contracts/StructsEnumsModifiers.sol\":1129:1137  _orderId */\n      dup4\n        /* \"contracts/StructsEnumsModifiers.sol\":1122:1138  orders[_orderId] */\n      dup2\n      sload\n      dup2\n      lt\n      tag_86\n      jumpi\n      tag_87\n      tag_41\n      jump\t// in\n    tag_87:\n    tag_86:\n      swap1\n      0x00\n      mstore\n      keccak256(0x00, 0x20)\n      swap1\n      0x04\n      mul\n      add\n        /* \"contracts/StructsEnumsModifiers.sol\":1100:1138  Order storage order = orders[_orderId] */\n      swap1\n      pop\n        /* \"contracts/StructsEnumsModifiers.sol\":1172:1186  Status.Shipped */\n      0x03\n        /* \"contracts/StructsEnumsModifiers.sol\":1156:1186  order.status != Status.Shipped */\n      dup1\n      dup2\n      gt\n      iszero\n      tag_89\n      jumpi\n      tag_90\n      tag_60\n      jump\t// in\n    tag_90:\n    tag_89:\n        /* \"contracts/StructsEnumsModifiers.sol\":1156:1161  order */\n      dup2\n        /* \"contracts/StructsEnumsModifiers.sol\":1156:1168  order.status */\n      0x03\n      add\n      0x00\n      swap1\n      sload\n      swap1\n      0x0100\n      exp\n      swap1\n      div\n      0xff\n      and\n        /* \"contracts/StructsEnumsModifiers.sol\":1156:1186  order.status != Status.Shipped */\n      0x03\n      dup2\n      gt\n      iszero\n      tag_91\n      jumpi\n      tag_92\n      tag_60\n      jump\t// in\n    tag_92:\n    tag_91:\n      eq\n      iszero\n        /* \"contracts/StructsEnumsModifiers.sol\":1148:1216  require(order.status != Status.Shipped, \"Order is already shipped.\") */\n      tag_93\n      jumpi\n      mload(0x40)\n      0x08c379a000000000000000000000000000000000000000000000000000000000\n      dup2\n      mstore\n      0x04\n      add\n      tag_94\n      swap1\n      tag_95\n      jump\t// in\n    tag_94:\n      mload(0x40)\n      dup1\n      swap2\n      sub\n      swap1\n      revert\n    tag_93:\n        /* \"contracts/StructsEnumsModifiers.sol\":1246:1258  Status.Taken */\n      0x00\n        /* \"contracts/StructsEnumsModifiers.sol\":1230:1258  order.status == Status.Taken */\n      0x03\n      dup2\n      gt\n      iszero\n      tag_96\n      jumpi\n      tag_97\n      tag_60\n      jump\t// in\n    tag_97:\n    tag_96:\n        /* \"contracts/StructsEnumsModifiers.sol\":1230:1235  order */\n      dup2\n        /* \"contracts/StructsEnumsModifiers.sol\":1230:1242  order.status */\n      0x03\n      add\n      0x00\n      swap1\n      sload\n      swap1\n      0x0100\n      exp\n      swap1\n      div\n      0xff\n      and\n        /* \"contracts/StructsEnumsModifiers.sol\":1230:1258  order.status == Status.Taken */\n      0x03\n      dup2\n      gt\n      iszero\n      tag_98\n      jumpi\n      tag_99\n      tag_60\n      jump\t// in\n    tag_99:\n    tag_98:\n      eq\n        /* \"contracts/StructsEnumsModifiers.sol\":1227:1502  if(order.status == Status.Taken) {... */\n      iszero\n      tag_100\n      jumpi\n        /* \"contracts/StructsEnumsModifiers.sol\":1289:1305  Status.Preparing */\n      0x01\n        /* \"contracts/StructsEnumsModifiers.sol\":1274:1279  order */\n      dup2\n        /* \"contracts/StructsEnumsModifiers.sol\":1274:1286  order.status */\n      0x03\n      add\n      0x00\n        /* \"contracts/StructsEnumsModifiers.sol\":1274:1305  order.status = Status.Preparing */\n      0x0100\n      exp\n      dup2\n      sload\n      dup2\n      0xff\n      mul\n      not\n      and\n      swap1\n      dup4\n      0x03\n      dup2\n      gt\n      iszero\n      tag_101\n      jumpi\n      tag_102\n      tag_60\n      jump\t// in\n    tag_102:\n    tag_101:\n      mul\n      or\n      swap1\n      sstore\n      pop\n        /* \"contracts/StructsEnumsModifiers.sol\":1227:1502  if(order.status == Status.Taken) {... */\n      jump(tag_103)\n    tag_100:\n        /* \"contracts/StructsEnumsModifiers.sol\":1341:1357  Status.Preparing */\n      0x01\n        /* \"contracts/StructsEnumsModifiers.sol\":1325:1357  order.status == Status.Preparing */\n      0x03\n      dup2\n      gt\n      iszero\n      tag_104\n      jumpi\n      tag_105\n      tag_60\n      jump\t// in\n    tag_105:\n    tag_104:\n        /* \"contracts/StructsEnumsModifiers.sol\":1325:1330  order */\n      dup2\n        /* \"contracts/StructsEnumsModifiers.sol\":1325:1337  order.status */\n      0x03\n      add\n      0x00\n      swap1\n      sload\n      swap1\n      0x0100\n      exp\n      swap1\n      div\n      0xff\n      and\n        /* \"contracts/StructsEnumsModifiers.sol\":1325:1357  order.status == Status.Preparing */\n      0x03\n      dup2\n      gt\n      iszero\n      tag_106\n      jumpi\n      tag_107\n      tag_60\n      jump\t// in\n    tag_107:\n    tag_106:\n      eq\n        /* \"contracts/StructsEnumsModifiers.sol\":1322:1502  if(order.status == Status.Preparing){... */\n      iszero\n      tag_108\n      jumpi\n        /* \"contracts/StructsEnumsModifiers.sol\":1387:1399  Status.Boxed */\n      0x02\n        /* \"contracts/StructsEnumsModifiers.sol\":1372:1377  order */\n      dup2\n        /* \"contracts/StructsEnumsModifiers.sol\":1372:1384  order.status */\n      0x03\n      add\n      0x00\n        /* \"contracts/StructsEnumsModifiers.sol\":1372:1399  order.status = Status.Boxed */\n      0x0100\n      exp\n      dup2\n      sload\n      dup2\n      0xff\n      mul\n      not\n      and\n      swap1\n      dup4\n      0x03\n      dup2\n      gt\n      iszero\n      tag_109\n      jumpi\n      tag_110\n      tag_60\n      jump\t// in\n    tag_110:\n    tag_109:\n      mul\n      or\n      swap1\n      sstore\n      pop\n        /* \"contracts/StructsEnumsModifiers.sol\":1322:1502  if(order.status == Status.Preparing){... */\n      jump(tag_111)\n    tag_108:\n        /* \"contracts/StructsEnumsModifiers.sol\":1435:1447  Status.Boxed */\n      0x02\n        /* \"contracts/StructsEnumsModifiers.sol\":1419:1447  order.status == Status.Boxed */\n      0x03\n      dup2\n      gt\n      iszero\n      tag_112\n      jumpi\n      tag_113\n      tag_60\n      jump\t// in\n    tag_113:\n    tag_112:\n        /* \"contracts/StructsEnumsModifiers.sol\":1419:1424  order */\n      dup2\n        /* \"contracts/StructsEnumsModifiers.sol\":1419:1431  order.status */\n      0x03\n      add\n      0x00\n      swap1\n      sload\n      swap1\n      0x0100\n      exp\n      swap1\n      div\n      0xff\n      and\n        /* \"contracts/StructsEnumsModifiers.sol\":1419:1447  order.status == Status.Boxed */\n      0x03\n      dup2\n      gt\n      iszero\n      tag_114\n      jumpi\n      tag_115\n      tag_60\n      jump\t// in\n    tag_115:\n    tag_114:\n      eq\n        /* \"contracts/StructsEnumsModifiers.sol\":1416:1502  if(order.status == Status.Boxed){... */\n      iszero\n      tag_116\n      jumpi\n        /* \"contracts/StructsEnumsModifiers.sol\":1477:1491  Status.Shipped */\n      0x03\n        /* \"contracts/StructsEnumsModifiers.sol\":1462:1467  order */\n      dup2\n        /* \"contracts/StructsEnumsModifiers.sol\":1462:1474  order.status */\n      0x03\n      add\n      0x00\n        /* \"contracts/StructsEnumsModifiers.sol\":1462:1491  order.status = Status.Shipped */\n      0x0100\n      exp\n      dup2\n      sload\n      dup2\n      0xff\n      mul\n      not\n      and\n      swap1\n      dup4\n      0x03\n      dup2\n      gt\n      iszero\n      tag_117\n      jumpi\n      tag_118\n      tag_60\n      jump\t// in\n    tag_118:\n    tag_117:\n      mul\n      or\n      swap1\n      sstore\n      pop\n        /* \"contracts/StructsEnumsModifiers.sol\":1416:1502  if(order.status == Status.Boxed){... */\n    tag_116:\n        /* \"contracts/StructsEnumsModifiers.sol\":1322:1502  if(order.status == Status.Preparing){... */\n    tag_111:\n        /* \"contracts/StructsEnumsModifiers.sol\":1227:1502  if(order.status == Status.Taken) {... */\n    tag_103:\n        /* \"contracts/StructsEnumsModifiers.sol\":956:1508  {... */\n      pop\n        /* \"contracts/StructsEnumsModifiers.sol\":884:1508  function advanceOrder(uint256 _orderId) checkOrderId(_orderId) external {... */\n      pop\n      pop\n      jump\t// out\n    tag_50:\n      dup3\n      dup1\n      sload\n      tag_119\n      swap1\n      tag_74\n      jump\t// in\n    tag_119:\n      swap1\n      0x00\n      mstore\n      keccak256(0x00, 0x20)\n      swap1\n      0x1f\n      add\n      0x20\n      swap1\n      div\n      dup2\n      add\n      swap3\n      dup3\n      tag_121\n      jumpi\n      0x00\n      dup6\n      sstore\n      jump(tag_120)\n    tag_121:\n      dup3\n      0x1f\n      lt\n      tag_122\n      jumpi\n      dup1\n      mload\n      not(0xff)\n      and\n      dup4\n      dup1\n      add\n      or\n      dup6\n      sstore\n      jump(tag_120)\n    tag_122:\n      dup3\n      dup1\n      add\n      0x01\n      add\n      dup6\n      sstore\n      dup3\n      iszero\n      tag_120\n      jumpi\n      swap2\n      dup3\n      add\n    tag_123:\n      dup3\n      dup2\n      gt\n      iszero\n      tag_124\n      jumpi\n      dup3\n      mload\n      dup3\n      sstore\n      swap2\n      0x20\n      add\n      swap2\n      swap1\n      0x01\n      add\n      swap1\n      jump(tag_123)\n    tag_124:\n    tag_120:\n      pop\n      swap1\n      pop\n      tag_125\n      swap2\n      swap1\n      tag_126\n      jump\t// in\n    tag_125:\n      pop\n      swap1\n      jump\t// out\n    tag_57:\n      mload(0x40)\n      dup1\n      0x80\n      add\n      0x40\n      mstore\n      dup1\n      and(0xffffffffffffffffffffffffffffffffffffffff, 0x00)\n      dup2\n      mstore\n      0x20\n      add\n      0x60\n      dup2\n      mstore\n      0x20\n      add\n      0x60\n      dup2\n      mstore\n      0x20\n      add\n      0x00\n      0x03\n      dup2\n      gt\n      iszero\n      tag_127\n      jumpi\n      tag_128\n      tag_60\n      jump\t// in\n    tag_128:\n    tag_127:\n      dup2\n      mstore\n      pop\n      swap1\n      jump\t// out\n    tag_66:\n      dup3\n      dup1\n      sload\n      dup3\n      dup3\n      sstore\n      swap1\n      0x00\n      mstore\n      keccak256(0x00, 0x20)\n      swap1\n      dup2\n      add\n      swap3\n      dup3\n      iszero\n      tag_129\n      jumpi\n      swap2\n      0x20\n      mul\n      dup3\n      add\n    tag_130:\n      dup3\n      dup2\n      gt\n      iszero\n      tag_131\n      jumpi\n      dup3\n      mload\n      dup3\n      sstore\n      swap2\n      0x20\n      add\n      swap2\n      swap1\n      0x01\n      add\n      swap1\n      jump(tag_130)\n    tag_131:\n    tag_129:\n      pop\n      swap1\n      pop\n      tag_132\n      swap2\n      swap1\n      tag_126\n      jump\t// in\n    tag_132:\n      pop\n      swap1\n      jump\t// out\n    tag_126:\n    tag_133:\n      dup1\n      dup3\n      gt\n      iszero\n      tag_134\n      jumpi\n      0x00\n      dup2\n      0x00\n      swap1\n      sstore\n      pop\n      0x01\n      add\n      jump(tag_133)\n    tag_134:\n      pop\n      swap1\n      jump\t// out\n        /* \"#utility.yul\":24:746   */\n    tag_136:\n        /* \"#utility.yul\":120:125   */\n      0x00\n        /* \"#utility.yul\":145:226   */\n      tag_138\n        /* \"#utility.yul\":161:225   */\n      tag_139\n        /* \"#utility.yul\":218:224   */\n      dup5\n        /* \"#utility.yul\":161:225   */\n      tag_140\n      jump\t// in\n    tag_139:\n        /* \"#utility.yul\":145:226   */\n      tag_141\n      jump\t// in\n    tag_138:\n        /* \"#utility.yul\":136:226   */\n      swap1\n      pop\n        /* \"#utility.yul\":246:251   */\n      dup1\n        /* \"#utility.yul\":275:281   */\n      dup4\n        /* \"#utility.yul\":268:273   */\n      dup3\n        /* \"#utility.yul\":261:282   */\n      mstore\n        /* \"#utility.yul\":309:313   */\n      0x20\n        /* \"#utility.yul\":302:307   */\n      dup3\n        /* \"#utility.yul\":298:314   */\n      add\n        /* \"#utility.yul\":291:314   */\n      swap1\n      pop\n        /* \"#utility.yul\":335:341   */\n      dup3\n        /* \"#utility.yul\":385:388   */\n      dup6\n        /* \"#utility.yul\":377:381   */\n      0x20\n        /* \"#utility.yul\":369:375   */\n      dup7\n        /* \"#utility.yul\":365:382   */\n      mul\n        /* \"#utility.yul\":360:363   */\n      dup3\n        /* \"#utility.yul\":356:383   */\n      add\n        /* \"#utility.yul\":353:389   */\n      gt\n        /* \"#utility.yul\":350:493   */\n      iszero\n      tag_142\n      jumpi\n        /* \"#utility.yul\":404:483   */\n      tag_143\n      tag_144\n      jump\t// in\n    tag_143:\n        /* \"#utility.yul\":350:493   */\n    tag_142:\n        /* \"#utility.yul\":517:518   */\n      0x00\n        /* \"#utility.yul\":502:740   */\n    tag_145:\n        /* \"#utility.yul\":527:533   */\n      dup6\n        /* \"#utility.yul\":524:525   */\n      dup2\n        /* \"#utility.yul\":521:534   */\n      lt\n        /* \"#utility.yul\":502:740   */\n      iszero\n      tag_147\n      jumpi\n        /* \"#utility.yul\":595:598   */\n      dup2\n        /* \"#utility.yul\":624:661   */\n      tag_148\n        /* \"#utility.yul\":657:660   */\n      dup9\n        /* \"#utility.yul\":645:655   */\n      dup3\n        /* \"#utility.yul\":624:661   */\n      tag_149\n      jump\t// in\n    tag_148:\n        /* \"#utility.yul\":619:622   */\n      dup5\n        /* \"#utility.yul\":612:662   */\n      mstore\n        /* \"#utility.yul\":691:695   */\n      0x20\n        /* \"#utility.yul\":686:689   */\n      dup5\n        /* \"#utility.yul\":682:696   */\n      add\n        /* \"#utility.yul\":675:696   */\n      swap4\n      pop\n        /* \"#utility.yul\":725:729   */\n      0x20\n        /* \"#utility.yul\":720:723   */\n      dup4\n        /* \"#utility.yul\":716:730   */\n      add\n        /* \"#utility.yul\":709:730   */\n      swap3\n      pop\n        /* \"#utility.yul\":562:740   */\n      pop\n        /* \"#utility.yul\":549:550   */\n      0x01\n        /* \"#utility.yul\":546:547   */\n      dup2\n        /* \"#utility.yul\":542:551   */\n      add\n        /* \"#utility.yul\":537:551   */\n      swap1\n      pop\n        /* \"#utility.yul\":502:740   */\n      jump(tag_145)\n    tag_147:\n        /* \"#utility.yul\":506:520   */\n      pop\n        /* \"#utility.yul\":126:746   */\n      pop\n      pop\n        /* \"#utility.yul\":24:746   */\n      swap4\n      swap3\n      pop\n      pop\n      pop\n      jump\t// out\n        /* \"#utility.yul\":752:1164   */\n    tag_150:\n        /* \"#utility.yul\":830:835   */\n      0x00\n        /* \"#utility.yul\":855:921   */\n      tag_152\n        /* \"#utility.yul\":871:920   */\n      tag_153\n        /* \"#utility.yul\":913:919   */\n      dup5\n        /* \"#utility.yul\":871:920   */\n      tag_154\n      jump\t// in\n    tag_153:\n        /* \"#utility.yul\":855:921   */\n      tag_141\n      jump\t// in\n    tag_152:\n        /* \"#utility.yul\":846:921   */\n      swap1\n      pop\n        /* \"#utility.yul\":944:950   */\n      dup3\n        /* \"#utility.yul\":937:942   */\n      dup2\n        /* \"#utility.yul\":930:951   */\n      mstore\n        /* \"#utility.yul\":982:986   */\n      0x20\n        /* \"#utility.yul\":975:980   */\n      dup2\n        /* \"#utility.yul\":971:987   */\n      add\n        /* \"#utility.yul\":1020:1023   */\n      dup5\n        /* \"#utility.yul\":1011:1017   */\n      dup5\n        /* \"#utility.yul\":1006:1009   */\n      dup5\n        /* \"#utility.yul\":1002:1018   */\n      add\n        /* \"#utility.yul\":999:1024   */\n      gt\n        /* \"#utility.yul\":996:1108   */\n      iszero\n      tag_155\n      jumpi\n        /* \"#utility.yul\":1027:1106   */\n      tag_156\n      tag_157\n      jump\t// in\n    tag_156:\n        /* \"#utility.yul\":996:1108   */\n    tag_155:\n        /* \"#utility.yul\":1117:1158   */\n      tag_158\n        /* \"#utility.yul\":1151:1157   */\n      dup5\n        /* \"#utility.yul\":1146:1149   */\n      dup3\n        /* \"#utility.yul\":1141:1144   */\n      dup6\n        /* \"#utility.yul\":1117:1158   */\n      tag_159\n      jump\t// in\n    tag_158:\n        /* \"#utility.yul\":836:1164   */\n      pop\n        /* \"#utility.yul\":752:1164   */\n      swap4\n      swap3\n      pop\n      pop\n      pop\n      jump\t// out\n        /* \"#utility.yul\":1187:1557   */\n    tag_160:\n        /* \"#utility.yul\":1258:1263   */\n      0x00\n        /* \"#utility.yul\":1307:1310   */\n      dup3\n        /* \"#utility.yul\":1300:1304   */\n      0x1f\n        /* \"#utility.yul\":1292:1298   */\n      dup4\n        /* \"#utility.yul\":1288:1305   */\n      add\n        /* \"#utility.yul\":1284:1311   */\n      slt\n        /* \"#utility.yul\":1274:1396   */\n      tag_162\n      jumpi\n        /* \"#utility.yul\":1315:1394   */\n      tag_163\n      tag_164\n      jump\t// in\n    tag_163:\n        /* \"#utility.yul\":1274:1396   */\n    tag_162:\n        /* \"#utility.yul\":1432:1438   */\n      dup2\n        /* \"#utility.yul\":1419:1439   */\n      calldataload\n        /* \"#utility.yul\":1457:1551   */\n      tag_165\n        /* \"#utility.yul\":1547:1550   */\n      dup5\n        /* \"#utility.yul\":1539:1545   */\n      dup3\n        /* \"#utility.yul\":1532:1536   */\n      0x20\n        /* \"#utility.yul\":1524:1530   */\n      dup7\n        /* \"#utility.yul\":1520:1537   */\n      add\n        /* \"#utility.yul\":1457:1551   */\n      tag_136\n      jump\t// in\n    tag_165:\n        /* \"#utility.yul\":1448:1551   */\n      swap2\n      pop\n        /* \"#utility.yul\":1264:1557   */\n      pop\n        /* \"#utility.yul\":1187:1557   */\n      swap3\n      swap2\n      pop\n      pop\n      jump\t// out\n        /* \"#utility.yul\":1577:1917   */\n    tag_166:\n        /* \"#utility.yul\":1633:1638   */\n      0x00\n        /* \"#utility.yul\":1682:1685   */\n      dup3\n        /* \"#utility.yul\":1675:1679   */\n      0x1f\n        /* \"#utility.yul\":1667:1673   */\n      dup4\n        /* \"#utility.yul\":1663:1680   */\n      add\n        /* \"#utility.yul\":1659:1686   */\n      slt\n        /* \"#utility.yul\":1649:1771   */\n      tag_168\n      jumpi\n        /* \"#utility.yul\":1690:1769   */\n      tag_169\n      tag_164\n      jump\t// in\n    tag_169:\n        /* \"#utility.yul\":1649:1771   */\n    tag_168:\n        /* \"#utility.yul\":1807:1813   */\n      dup2\n        /* \"#utility.yul\":1794:1814   */\n      calldataload\n        /* \"#utility.yul\":1832:1911   */\n      tag_170\n        /* \"#utility.yul\":1907:1910   */\n      dup5\n        /* \"#utility.yul\":1899:1905   */\n      dup3\n        /* \"#utility.yul\":1892:1896   */\n      0x20\n        /* \"#utility.yul\":1884:1890   */\n      dup7\n        /* \"#utility.yul\":1880:1897   */\n      add\n        /* \"#utility.yul\":1832:1911   */\n      tag_150\n      jump\t// in\n    tag_170:\n        /* \"#utility.yul\":1823:1911   */\n      swap2\n      pop\n        /* \"#utility.yul\":1639:1917   */\n      pop\n        /* \"#utility.yul\":1577:1917   */\n      swap3\n      swap2\n      pop\n      pop\n      jump\t// out\n        /* \"#utility.yul\":1923:2062   */\n    tag_149:\n        /* \"#utility.yul\":1969:1974   */\n      0x00\n        /* \"#utility.yul\":2007:2013   */\n      dup2\n        /* \"#utility.yul\":1994:2014   */\n      calldataload\n        /* \"#utility.yul\":1985:2014   */\n      swap1\n      pop\n        /* \"#utility.yul\":2023:2056   */\n      tag_172\n        /* \"#utility.yul\":2050:2055   */\n      dup2\n        /* \"#utility.yul\":2023:2056   */\n      tag_173\n      jump\t// in\n    tag_172:\n        /* \"#utility.yul\":1923:2062   */\n      swap3\n      swap2\n      pop\n      pop\n      jump\t// out\n        /* \"#utility.yul\":2068:2932   */\n    tag_19:\n        /* \"#utility.yul\":2171:2177   */\n      0x00\n        /* \"#utility.yul\":2179:2185   */\n      dup1\n        /* \"#utility.yul\":2228:2230   */\n      0x40\n        /* \"#utility.yul\":2216:2225   */\n      dup4\n        /* \"#utility.yul\":2207:2214   */\n      dup6\n        /* \"#utility.yul\":2203:2226   */\n      sub\n        /* \"#utility.yul\":2199:2231   */\n      slt\n        /* \"#utility.yul\":2196:2315   */\n      iszero\n      tag_175\n      jumpi\n        /* \"#utility.yul\":2234:2313   */\n      tag_176\n      tag_177\n      jump\t// in\n    tag_176:\n        /* \"#utility.yul\":2196:2315   */\n    tag_175:\n        /* \"#utility.yul\":2382:2383   */\n      0x00\n        /* \"#utility.yul\":2371:2380   */\n      dup4\n        /* \"#utility.yul\":2367:2384   */\n      add\n        /* \"#utility.yul\":2354:2385   */\n      calldataload\n        /* \"#utility.yul\":2412:2430   */\n      0xffffffffffffffff\n        /* \"#utility.yul\":2404:2410   */\n      dup2\n        /* \"#utility.yul\":2401:2431   */\n      gt\n        /* \"#utility.yul\":2398:2515   */\n      iszero\n      tag_178\n      jumpi\n        /* \"#utility.yul\":2434:2513   */\n      tag_179\n      tag_180\n      jump\t// in\n    tag_179:\n        /* \"#utility.yul\":2398:2515   */\n    tag_178:\n        /* \"#utility.yul\":2539:2602   */\n      tag_181\n        /* \"#utility.yul\":2594:2601   */\n      dup6\n        /* \"#utility.yul\":2585:2591   */\n      dup3\n        /* \"#utility.yul\":2574:2583   */\n      dup7\n        /* \"#utility.yul\":2570:2592   */\n      add\n        /* \"#utility.yul\":2539:2602   */\n      tag_166\n      jump\t// in\n    tag_181:\n        /* \"#utility.yul\":2529:2602   */\n      swap3\n      pop\n        /* \"#utility.yul\":2325:2612   */\n      pop\n        /* \"#utility.yul\":2679:2681   */\n      0x20\n        /* \"#utility.yul\":2668:2677   */\n      dup4\n        /* \"#utility.yul\":2664:2682   */\n      add\n        /* \"#utility.yul\":2651:2683   */\n      calldataload\n        /* \"#utility.yul\":2710:2728   */\n      0xffffffffffffffff\n        /* \"#utility.yul\":2702:2708   */\n      dup2\n        /* \"#utility.yul\":2699:2729   */\n      gt\n        /* \"#utility.yul\":2696:2813   */\n      iszero\n      tag_182\n      jumpi\n        /* \"#utility.yul\":2732:2811   */\n      tag_183\n      tag_180\n      jump\t// in\n    tag_183:\n        /* \"#utility.yul\":2696:2813   */\n    tag_182:\n        /* \"#utility.yul\":2837:2915   */\n      tag_184\n        /* \"#utility.yul\":2907:2914   */\n      dup6\n        /* \"#utility.yul\":2898:2904   */\n      dup3\n        /* \"#utility.yul\":2887:2896   */\n      dup7\n        /* \"#utility.yul\":2883:2905   */\n      add\n        /* \"#utility.yul\":2837:2915   */\n      tag_160\n      jump\t// in\n    tag_184:\n        /* \"#utility.yul\":2827:2915   */\n      swap2\n      pop\n        /* \"#utility.yul\":2622:2925   */\n      pop\n        /* \"#utility.yul\":2068:2932   */\n      swap3\n      pop\n      swap3\n      swap1\n      pop\n      jump\t// out\n        /* \"#utility.yul\":2938:3267   */\n    tag_28:\n        /* \"#utility.yul\":2997:3003   */\n      0x00\n        /* \"#utility.yul\":3046:3048   */\n      0x20\n        /* \"#utility.yul\":3034:3043   */\n      dup3\n        /* \"#utility.yul\":3025:3032   */\n      dup5\n        /* \"#utility.yul\":3021:3044   */\n      sub\n        /* \"#utility.yul\":3017:3049   */\n      slt\n        /* \"#utility.yul\":3014:3133   */\n      iszero\n      tag_186\n      jumpi\n        /* \"#utility.yul\":3052:3131   */\n      tag_187\n      tag_177\n      jump\t// in\n    tag_187:\n        /* \"#utility.yul\":3014:3133   */\n    tag_186:\n        /* \"#utility.yul\":3172:3173   */\n      0x00\n        /* \"#utility.yul\":3197:3250   */\n      tag_188\n        /* \"#utility.yul\":3242:3249   */\n      dup5\n        /* \"#utility.yul\":3233:3239   */\n      dup3\n        /* \"#utility.yul\":3222:3231   */\n      dup6\n        /* \"#utility.yul\":3218:3240   */\n      add\n        /* \"#utility.yul\":3197:3250   */\n      tag_149\n      jump\t// in\n    tag_188:\n        /* \"#utility.yul\":3187:3250   */\n      swap2\n      pop\n        /* \"#utility.yul\":3143:3260   */\n      pop\n        /* \"#utility.yul\":2938:3267   */\n      swap3\n      swap2\n      pop\n      pop\n      jump\t// out\n        /* \"#utility.yul\":3273:3927   */\n    tag_15:\n        /* \"#utility.yul\":3351:3357   */\n      0x00\n        /* \"#utility.yul\":3359:3365   */\n      dup1\n        /* \"#utility.yul\":3408:3410   */\n      0x40\n        /* \"#utility.yul\":3396:3405   */\n      dup4\n        /* \"#utility.yul\":3387:3394   */\n      dup6\n        /* \"#utility.yul\":3383:3406   */\n      sub\n        /* \"#utility.yul\":3379:3411   */\n      slt\n        /* \"#utility.yul\":3376:3495   */\n      iszero\n      tag_190\n      jumpi\n        /* \"#utility.yul\":3414:3493   */\n      tag_191\n      tag_177\n      jump\t// in\n    tag_191:\n        /* \"#utility.yul\":3376:3495   */\n    tag_190:\n        /* \"#utility.yul\":3534:3535   */\n      0x00\n        /* \"#utility.yul\":3559:3612   */\n      tag_192\n        /* \"#utility.yul\":3604:3611   */\n      dup6\n        /* \"#utility.yul\":3595:3601   */\n      dup3\n        /* \"#utility.yul\":3584:3593   */\n      dup7\n        /* \"#utility.yul\":3580:3602   */\n      add\n        /* \"#utility.yul\":3559:3612   */\n      tag_149\n      jump\t// in\n    tag_192:\n        /* \"#utility.yul\":3549:3612   */\n      swap3\n      pop\n        /* \"#utility.yul\":3505:3622   */\n      pop\n        /* \"#utility.yul\":3689:3691   */\n      0x20\n        /* \"#utility.yul\":3678:3687   */\n      dup4\n        /* \"#utility.yul\":3674:3692   */\n      add\n        /* \"#utility.yul\":3661:3693   */\n      calldataload\n        /* \"#utility.yul\":3720:3738   */\n      0xffffffffffffffff\n        /* \"#utility.yul\":3712:3718   */\n      dup2\n        /* \"#utility.yul\":3709:3739   */\n      gt\n        /* \"#utility.yul\":3706:3823   */\n      iszero\n      tag_193\n      jumpi\n        /* \"#utility.yul\":3742:3821   */\n      tag_194\n      tag_180\n      jump\t// in\n    tag_194:\n        /* \"#utility.yul\":3706:3823   */\n    tag_193:\n        /* \"#utility.yul\":3847:3910   */\n      tag_195\n        /* \"#utility.yul\":3902:3909   */\n      dup6\n        /* \"#utility.yul\":3893:3899   */\n      dup3\n        /* \"#utility.yul\":3882:3891   */\n      dup7\n        /* \"#utility.yul\":3878:3900   */\n      add\n        /* \"#utility.yul\":3847:3910   */\n      tag_166\n      jump\t// in\n    tag_195:\n        /* \"#utility.yul\":3837:3910   */\n      swap2\n      pop\n        /* \"#utility.yul\":3632:3920   */\n      pop\n        /* \"#utility.yul\":3273:3927   */\n      swap3\n      pop\n      swap3\n      swap1\n      pop\n      jump\t// out\n        /* \"#utility.yul\":3933:4051   */\n    tag_196:\n        /* \"#utility.yul\":4020:4044   */\n      tag_198\n        /* \"#utility.yul\":4038:4043   */\n      dup2\n        /* \"#utility.yul\":4020:4044   */\n      tag_199\n      jump\t// in\n    tag_198:\n        /* \"#utility.yul\":4015:4018   */\n      dup3\n        /* \"#utility.yul\":4008:4045   */\n      mstore\n        /* \"#utility.yul\":3933:4051   */\n      pop\n      pop\n      jump\t// out\n        /* \"#utility.yul\":4057:4200   */\n    tag_200:\n        /* \"#utility.yul\":4150:4193   */\n      tag_202\n        /* \"#utility.yul\":4187:4192   */\n      dup2\n        /* \"#utility.yul\":4150:4193   */\n      tag_203\n      jump\t// in\n    tag_202:\n        /* \"#utility.yul\":4145:4148   */\n      dup3\n        /* \"#utility.yul\":4138:4194   */\n      mstore\n        /* \"#utility.yul\":4057:4200   */\n      pop\n      pop\n      jump\t// out\n        /* \"#utility.yul\":4206:4570   */\n    tag_204:\n        /* \"#utility.yul\":4294:4297   */\n      0x00\n        /* \"#utility.yul\":4322:4361   */\n      tag_206\n        /* \"#utility.yul\":4355:4360   */\n      dup3\n        /* \"#utility.yul\":4322:4361   */\n      tag_207\n      jump\t// in\n    tag_206:\n        /* \"#utility.yul\":4377:4448   */\n      tag_208\n        /* \"#utility.yul\":4441:4447   */\n      dup2\n        /* \"#utility.yul\":4436:4439   */\n      dup6\n        /* \"#utility.yul\":4377:4448   */\n      tag_209\n      jump\t// in\n    tag_208:\n        /* \"#utility.yul\":4370:4448   */\n      swap4\n      pop\n        /* \"#utility.yul\":4457:4509   */\n      tag_210\n        /* \"#utility.yul\":4502:4508   */\n      dup2\n        /* \"#utility.yul\":4497:4500   */\n      dup6\n        /* \"#utility.yul\":4490:4494   */\n      0x20\n        /* \"#utility.yul\":4483:4488   */\n      dup7\n        /* \"#utility.yul\":4479:4495   */\n      add\n        /* \"#utility.yul\":4457:4509   */\n      tag_211\n      jump\t// in\n    tag_210:\n        /* \"#utility.yul\":4534:4563   */\n      tag_212\n        /* \"#utility.yul\":4556:4562   */\n      dup2\n        /* \"#utility.yul\":4534:4563   */\n      tag_213\n      jump\t// in\n    tag_212:\n        /* \"#utility.yul\":4529:4532   */\n      dup5\n        /* \"#utility.yul\":4525:4564   */\n      add\n        /* \"#utility.yul\":4518:4564   */\n      swap2\n      pop\n        /* \"#utility.yul\":4298:4570   */\n      pop\n        /* \"#utility.yul\":4206:4570   */\n      swap3\n      swap2\n      pop\n      pop\n      jump\t// out\n        /* \"#utility.yul\":4576:4942   */\n    tag_214:\n        /* \"#utility.yul\":4718:4721   */\n      0x00\n        /* \"#utility.yul\":4739:4806   */\n      tag_216\n        /* \"#utility.yul\":4803:4805   */\n      0x19\n        /* \"#utility.yul\":4798:4801   */\n      dup4\n        /* \"#utility.yul\":4739:4806   */\n      tag_209\n      jump\t// in\n    tag_216:\n        /* \"#utility.yul\":4732:4806   */\n      swap2\n      pop\n        /* \"#utility.yul\":4815:4908   */\n      tag_217\n        /* \"#utility.yul\":4904:4907   */\n      dup3\n        /* \"#utility.yul\":4815:4908   */\n      tag_218\n      jump\t// in\n    tag_217:\n        /* \"#utility.yul\":4933:4935   */\n      0x20\n        /* \"#utility.yul\":4928:4931   */\n      dup3\n        /* \"#utility.yul\":4924:4936   */\n      add\n        /* \"#utility.yul\":4917:4936   */\n      swap1\n      pop\n        /* \"#utility.yul\":4576:4942   */\n      swap2\n      swap1\n      pop\n      jump\t// out\n        /* \"#utility.yul\":4948:5314   */\n    tag_219:\n        /* \"#utility.yul\":5090:5093   */\n      0x00\n        /* \"#utility.yul\":5111:5178   */\n      tag_221\n        /* \"#utility.yul\":5175:5177   */\n      0x0b\n        /* \"#utility.yul\":5170:5173   */\n      dup4\n        /* \"#utility.yul\":5111:5178   */\n      tag_209\n      jump\t// in\n    tag_221:\n        /* \"#utility.yul\":5104:5178   */\n      swap2\n      pop\n        /* \"#utility.yul\":5187:5280   */\n      tag_222\n        /* \"#utility.yul\":5276:5279   */\n      dup3\n        /* \"#utility.yul\":5187:5280   */\n      tag_223\n      jump\t// in\n    tag_222:\n        /* \"#utility.yul\":5305:5307   */\n      0x20\n        /* \"#utility.yul\":5300:5303   */\n      dup3\n        /* \"#utility.yul\":5296:5308   */\n      add\n        /* \"#utility.yul\":5289:5308   */\n      swap1\n      pop\n        /* \"#utility.yul\":4948:5314   */\n      swap2\n      swap1\n      pop\n      jump\t// out\n        /* \"#utility.yul\":5320:5686   */\n    tag_224:\n        /* \"#utility.yul\":5462:5465   */\n      0x00\n        /* \"#utility.yul\":5483:5550   */\n      tag_226\n        /* \"#utility.yul\":5547:5549   */\n      0x16\n        /* \"#utility.yul\":5542:5545   */\n      dup4\n        /* \"#utility.yul\":5483:5550   */\n      tag_209\n      jump\t// in\n    tag_226:\n        /* \"#utility.yul\":5476:5550   */\n      swap2\n      pop\n        /* \"#utility.yul\":5559:5652   */\n      tag_227\n        /* \"#utility.yul\":5648:5651   */\n      dup3\n        /* \"#utility.yul\":5559:5652   */\n      tag_228\n      jump\t// in\n    tag_227:\n        /* \"#utility.yul\":5677:5679   */\n      0x20\n        /* \"#utility.yul\":5672:5675   */\n      dup3\n        /* \"#utility.yul\":5668:5680   */\n      add\n        /* \"#utility.yul\":5661:5680   */\n      swap1\n      pop\n        /* \"#utility.yul\":5320:5686   */\n      swap2\n      swap1\n      pop\n      jump\t// out\n        /* \"#utility.yul\":5692:6058   */\n    tag_229:\n        /* \"#utility.yul\":5834:5837   */\n      0x00\n        /* \"#utility.yul\":5855:5922   */\n      tag_231\n        /* \"#utility.yul\":5919:5921   */\n      0x14\n        /* \"#utility.yul\":5914:5917   */\n      dup4\n        /* \"#utility.yul\":5855:5922   */\n      tag_209\n      jump\t// in\n    tag_231:\n        /* \"#utility.yul\":5848:5922   */\n      swap2\n      pop\n        /* \"#utility.yul\":5931:6024   */\n      tag_232\n        /* \"#utility.yul\":6020:6023   */\n      dup3\n        /* \"#utility.yul\":5931:6024   */\n      tag_233\n      jump\t// in\n    tag_232:\n        /* \"#utility.yul\":6049:6051   */\n      0x20\n        /* \"#utility.yul\":6044:6047   */\n      dup3\n        /* \"#utility.yul\":6040:6052   */\n      add\n        /* \"#utility.yul\":6033:6052   */\n      swap1\n      pop\n        /* \"#utility.yul\":5692:6058   */\n      swap2\n      swap1\n      pop\n      jump\t// out\n        /* \"#utility.yul\":6064:6430   */\n    tag_234:\n        /* \"#utility.yul\":6206:6209   */\n      0x00\n        /* \"#utility.yul\":6227:6294   */\n      tag_236\n        /* \"#utility.yul\":6291:6293   */\n      0x22\n        /* \"#utility.yul\":6286:6289   */\n      dup4\n        /* \"#utility.yul\":6227:6294   */\n      tag_209\n      jump\t// in\n    tag_236:\n        /* \"#utility.yul\":6220:6294   */\n      swap2\n      pop\n        /* \"#utility.yul\":6303:6396   */\n      tag_237\n        /* \"#utility.yul\":6392:6395   */\n      dup3\n        /* \"#utility.yul\":6303:6396   */\n      tag_238\n      jump\t// in\n    tag_237:\n        /* \"#utility.yul\":6421:6423   */\n      0x40\n        /* \"#utility.yul\":6416:6419   */\n      dup3\n        /* \"#utility.yul\":6412:6424   */\n      add\n        /* \"#utility.yul\":6405:6424   */\n      swap1\n      pop\n        /* \"#utility.yul\":6064:6430   */\n      swap2\n      swap1\n      pop\n      jump\t// out\n        /* \"#utility.yul\":6436:6554   */\n    tag_239:\n        /* \"#utility.yul\":6523:6547   */\n      tag_241\n        /* \"#utility.yul\":6541:6546   */\n      dup2\n        /* \"#utility.yul\":6523:6547   */\n      tag_242\n      jump\t// in\n    tag_241:\n        /* \"#utility.yul\":6518:6521   */\n      dup3\n        /* \"#utility.yul\":6511:6548   */\n      mstore\n        /* \"#utility.yul\":6436:6554   */\n      pop\n      pop\n      jump\t// out\n        /* \"#utility.yul\":6560:6782   */\n    tag_25:\n        /* \"#utility.yul\":6653:6657   */\n      0x00\n        /* \"#utility.yul\":6691:6693   */\n      0x20\n        /* \"#utility.yul\":6680:6689   */\n      dup3\n        /* \"#utility.yul\":6676:6694   */\n      add\n        /* \"#utility.yul\":6668:6694   */\n      swap1\n      pop\n        /* \"#utility.yul\":6704:6775   */\n      tag_244\n        /* \"#utility.yul\":6772:6773   */\n      0x00\n        /* \"#utility.yul\":6761:6770   */\n      dup4\n        /* \"#utility.yul\":6757:6774   */\n      add\n        /* \"#utility.yul\":6748:6754   */\n      dup5\n        /* \"#utility.yul\":6704:6775   */\n      tag_196\n      jump\t// in\n    tag_244:\n        /* \"#utility.yul\":6560:6782   */\n      swap3\n      swap2\n      pop\n      pop\n      jump\t// out\n        /* \"#utility.yul\":6788:7333   */\n    tag_31:\n        /* \"#utility.yul\":6963:6967   */\n      0x00\n        /* \"#utility.yul\":7001:7003   */\n      0x60\n        /* \"#utility.yul\":6990:6999   */\n      dup3\n        /* \"#utility.yul\":6986:7004   */\n      add\n        /* \"#utility.yul\":6978:7004   */\n      swap1\n      pop\n        /* \"#utility.yul\":7014:7085   */\n      tag_246\n        /* \"#utility.yul\":7082:7083   */\n      0x00\n        /* \"#utility.yul\":7071:7080   */\n      dup4\n        /* \"#utility.yul\":7067:7084   */\n      add\n        /* \"#utility.yul\":7058:7064   */\n      dup7\n        /* \"#utility.yul\":7014:7085   */\n      tag_196\n      jump\t// in\n    tag_246:\n        /* \"#utility.yul\":7132:7141   */\n      dup2\n        /* \"#utility.yul\":7126:7130   */\n      dup2\n        /* \"#utility.yul\":7122:7142   */\n      sub\n        /* \"#utility.yul\":7117:7119   */\n      0x20\n        /* \"#utility.yul\":7106:7115   */\n      dup4\n        /* \"#utility.yul\":7102:7120   */\n      add\n        /* \"#utility.yul\":7095:7143   */\n      mstore\n        /* \"#utility.yul\":7160:7238   */\n      tag_247\n        /* \"#utility.yul\":7233:7237   */\n      dup2\n        /* \"#utility.yul\":7224:7230   */\n      dup6\n        /* \"#utility.yul\":7160:7238   */\n      tag_204\n      jump\t// in\n    tag_247:\n        /* \"#utility.yul\":7152:7238   */\n      swap1\n      pop\n        /* \"#utility.yul\":7248:7326   */\n      tag_248\n        /* \"#utility.yul\":7322:7324   */\n      0x40\n        /* \"#utility.yul\":7311:7320   */\n      dup4\n        /* \"#utility.yul\":7307:7325   */\n      add\n        /* \"#utility.yul\":7298:7304   */\n      dup5\n        /* \"#utility.yul\":7248:7326   */\n      tag_200\n      jump\t// in\n    tag_248:\n        /* \"#utility.yul\":6788:7333   */\n      swap5\n      swap4\n      pop\n      pop\n      pop\n      pop\n      jump\t// out\n        /* \"#utility.yul\":7339:7758   */\n    tag_95:\n        /* \"#utility.yul\":7505:7509   */\n      0x00\n        /* \"#utility.yul\":7543:7545   */\n      0x20\n        /* \"#utility.yul\":7532:7541   */\n      dup3\n        /* \"#utility.yul\":7528:7546   */\n      add\n        /* \"#utility.yul\":7520:7546   */\n      swap1\n      pop\n        /* \"#utility.yul\":7592:7601   */\n      dup2\n        /* \"#utility.yul\":7586:7590   */\n      dup2\n        /* \"#utility.yul\":7582:7602   */\n      sub\n        /* \"#utility.yul\":7578:7579   */\n      0x00\n        /* \"#utility.yul\":7567:7576   */\n      dup4\n        /* \"#utility.yul\":7563:7580   */\n      add\n        /* \"#utility.yul\":7556:7603   */\n      mstore\n        /* \"#utility.yul\":7620:7751   */\n      tag_250\n        /* \"#utility.yul\":7746:7750   */\n      dup2\n        /* \"#utility.yul\":7620:7751   */\n      tag_214\n      jump\t// in\n    tag_250:\n        /* \"#utility.yul\":7612:7751   */\n      swap1\n      pop\n        /* \"#utility.yul\":7339:7758   */\n      swap2\n      swap1\n      pop\n      jump\t// out\n        /* \"#utility.yul\":7764:8183   */\n    tag_54:\n        /* \"#utility.yul\":7930:7934   */\n      0x00\n        /* \"#utility.yul\":7968:7970   */\n      0x20\n        /* \"#utility.yul\":7957:7966   */\n      dup3\n        /* \"#utility.yul\":7953:7971   */\n      add\n        /* \"#utility.yul\":7945:7971   */\n      swap1\n      pop\n        /* \"#utility.yul\":8017:8026   */\n      dup2\n        /* \"#utility.yul\":8011:8015   */\n      dup2\n        /* \"#utility.yul\":8007:8027   */\n      sub\n        /* \"#utility.yul\":8003:8004   */\n      0x00\n        /* \"#utility.yul\":7992:8001   */\n      dup4\n        /* \"#utility.yul\":7988:8005   */\n      add\n        /* \"#utility.yul\":7981:8028   */\n      mstore\n        /* \"#utility.yul\":8045:8176   */\n      tag_252\n        /* \"#utility.yul\":8171:8175   */\n      dup2\n        /* \"#utility.yul\":8045:8176   */\n      tag_219\n      jump\t// in\n    tag_252:\n        /* \"#utility.yul\":8037:8176   */\n      swap1\n      pop\n        /* \"#utility.yul\":7764:8183   */\n      swap2\n      swap1\n      pop\n      jump\t// out\n        /* \"#utility.yul\":8189:8608   */\n    tag_85:\n        /* \"#utility.yul\":8355:8359   */\n      0x00\n        /* \"#utility.yul\":8393:8395   */\n      0x20\n        /* \"#utility.yul\":8382:8391   */\n      dup3\n        /* \"#utility.yul\":8378:8396   */\n      add\n        /* \"#utility.yul\":8370:8396   */\n      swap1\n      pop\n        /* \"#utility.yul\":8442:8451   */\n      dup2\n        /* \"#utility.yul\":8436:8440   */\n      dup2\n        /* \"#utility.yul\":8432:8452   */\n      sub\n        /* \"#utility.yul\":8428:8429   */\n      0x00\n        /* \"#utility.yul\":8417:8426   */\n      dup4\n        /* \"#utility.yul\":8413:8430   */\n      add\n        /* \"#utility.yul\":8406:8453   */\n      mstore\n        /* \"#utility.yul\":8470:8601   */\n      tag_254\n        /* \"#utility.yul\":8596:8600   */\n      dup2\n        /* \"#utility.yul\":8470:8601   */\n      tag_224\n      jump\t// in\n    tag_254:\n        /* \"#utility.yul\":8462:8601   */\n      swap1\n      pop\n        /* \"#utility.yul\":8189:8608   */\n      swap2\n      swap1\n      pop\n      jump\t// out\n        /* \"#utility.yul\":8614:9033   */\n    tag_38:\n        /* \"#utility.yul\":8780:8784   */\n      0x00\n        /* \"#utility.yul\":8818:8820   */\n      0x20\n        /* \"#utility.yul\":8807:8816   */\n      dup3\n        /* \"#utility.yul\":8803:8821   */\n      add\n        /* \"#utility.yul\":8795:8821   */\n      swap1\n      pop\n        /* \"#utility.yul\":8867:8876   */\n      dup2\n        /* \"#utility.yul\":8861:8865   */\n      dup2\n        /* \"#utility.yul\":8857:8877   */\n      sub\n        /* \"#utility.yul\":8853:8854   */\n      0x00\n        /* \"#utility.yul\":8842:8851   */\n      dup4\n        /* \"#utility.yul\":8838:8855   */\n      add\n        /* \"#utility.yul\":8831:8878   */\n      mstore\n        /* \"#utility.yul\":8895:9026   */\n      tag_256\n        /* \"#utility.yul\":9021:9025   */\n      dup2\n        /* \"#utility.yul\":8895:9026   */\n      tag_229\n      jump\t// in\n    tag_256:\n        /* \"#utility.yul\":8887:9026   */\n      swap1\n      pop\n        /* \"#utility.yul\":8614:9033   */\n      swap2\n      swap1\n      pop\n      jump\t// out\n        /* \"#utility.yul\":9039:9458   */\n    tag_45:\n        /* \"#utility.yul\":9205:9209   */\n      0x00\n        /* \"#utility.yul\":9243:9245   */\n      0x20\n        /* \"#utility.yul\":9232:9241   */\n      dup3\n        /* \"#utility.yul\":9228:9246   */\n      add\n        /* \"#utility.yul\":9220:9246   */\n      swap1\n      pop\n        /* \"#utility.yul\":9292:9301   */\n      dup2\n        /* \"#utility.yul\":9286:9290   */\n      dup2\n        /* \"#utility.yul\":9282:9302   */\n      sub\n        /* \"#utility.yul\":9278:9279   */\n      0x00\n        /* \"#utility.yul\":9267:9276   */\n      dup4\n        /* \"#utility.yul\":9263:9280   */\n      add\n        /* \"#utility.yul\":9256:9303   */\n      mstore\n        /* \"#utility.yul\":9320:9451   */\n      tag_258\n        /* \"#utility.yul\":9446:9450   */\n      dup2\n        /* \"#utility.yul\":9320:9451   */\n      tag_234\n      jump\t// in\n    tag_258:\n        /* \"#utility.yul\":9312:9451   */\n      swap1\n      pop\n        /* \"#utility.yul\":9039:9458   */\n      swap2\n      swap1\n      pop\n      jump\t// out\n        /* \"#utility.yul\":9464:9686   */\n    tag_12:\n        /* \"#utility.yul\":9557:9561   */\n      0x00\n        /* \"#utility.yul\":9595:9597   */\n      0x20\n        /* \"#utility.yul\":9584:9593   */\n      dup3\n        /* \"#utility.yul\":9580:9598   */\n      add\n        /* \"#utility.yul\":9572:9598   */\n      swap1\n      pop\n        /* \"#utility.yul\":9608:9679   */\n      tag_260\n        /* \"#utility.yul\":9676:9677   */\n      0x00\n        /* \"#utility.yul\":9665:9674   */\n      dup4\n        /* \"#utility.yul\":9661:9678   */\n      add\n        /* \"#utility.yul\":9652:9658   */\n      dup5\n        /* \"#utility.yul\":9608:9679   */\n      tag_239\n      jump\t// in\n    tag_260:\n        /* \"#utility.yul\":9464:9686   */\n      swap3\n      swap2\n      pop\n      pop\n      jump\t// out\n        /* \"#utility.yul\":9692:9821   */\n    tag_141:\n        /* \"#utility.yul\":9726:9732   */\n      0x00\n        /* \"#utility.yul\":9753:9773   */\n      tag_262\n      tag_263\n      jump\t// in\n    tag_262:\n        /* \"#utility.yul\":9743:9773   */\n      swap1\n      pop\n        /* \"#utility.yul\":9782:9815   */\n      tag_264\n        /* \"#utility.yul\":9810:9814   */\n      dup3\n        /* \"#utility.yul\":9802:9808   */\n      dup3\n        /* \"#utility.yul\":9782:9815   */\n      tag_265\n      jump\t// in\n    tag_264:\n        /* \"#utility.yul\":9692:9821   */\n      swap2\n      swap1\n      pop\n      jump\t// out\n        /* \"#utility.yul\":9827:9902   */\n    tag_263:\n        /* \"#utility.yul\":9860:9866   */\n      0x00\n        /* \"#utility.yul\":9893:9895   */\n      0x40\n        /* \"#utility.yul\":9887:9896   */\n      mload\n        /* \"#utility.yul\":9877:9896   */\n      swap1\n      pop\n        /* \"#utility.yul\":9827:9902   */\n      swap1\n      jump\t// out\n        /* \"#utility.yul\":9908:10219   */\n    tag_140:\n        /* \"#utility.yul\":9985:9989   */\n      0x00\n        /* \"#utility.yul\":10075:10093   */\n      0xffffffffffffffff\n        /* \"#utility.yul\":10067:10073   */\n      dup3\n        /* \"#utility.yul\":10064:10094   */\n      gt\n        /* \"#utility.yul\":10061:10117   */\n      iszero\n      tag_268\n      jumpi\n        /* \"#utility.yul\":10097:10115   */\n      tag_269\n      tag_270\n      jump\t// in\n    tag_269:\n        /* \"#utility.yul\":10061:10117   */\n    tag_268:\n        /* \"#utility.yul\":10147:10151   */\n      0x20\n        /* \"#utility.yul\":10139:10145   */\n      dup3\n        /* \"#utility.yul\":10135:10152   */\n      mul\n        /* \"#utility.yul\":10127:10152   */\n      swap1\n      pop\n        /* \"#utility.yul\":10207:10211   */\n      0x20\n        /* \"#utility.yul\":10201:10205   */\n      dup2\n        /* \"#utility.yul\":10197:10212   */\n      add\n        /* \"#utility.yul\":10189:10212   */\n      swap1\n      pop\n        /* \"#utility.yul\":9908:10219   */\n      swap2\n      swap1\n      pop\n      jump\t// out\n        /* \"#utility.yul\":10225:10533   */\n    tag_154:\n        /* \"#utility.yul\":10287:10291   */\n      0x00\n        /* \"#utility.yul\":10377:10395   */\n      0xffffffffffffffff\n        /* \"#utility.yul\":10369:10375   */\n      dup3\n        /* \"#utility.yul\":10366:10396   */\n      gt\n        /* \"#utility.yul\":10363:10419   */\n      iszero\n      tag_272\n      jumpi\n        /* \"#utility.yul\":10399:10417   */\n      tag_273\n      tag_270\n      jump\t// in\n    tag_273:\n        /* \"#utility.yul\":10363:10419   */\n    tag_272:\n        /* \"#utility.yul\":10437:10466   */\n      tag_274\n        /* \"#utility.yul\":10459:10465   */\n      dup3\n        /* \"#utility.yul\":10437:10466   */\n      tag_213\n      jump\t// in\n    tag_274:\n        /* \"#utility.yul\":10429:10466   */\n      swap1\n      pop\n        /* \"#utility.yul\":10521:10525   */\n      0x20\n        /* \"#utility.yul\":10515:10519   */\n      dup2\n        /* \"#utility.yul\":10511:10526   */\n      add\n        /* \"#utility.yul\":10503:10526   */\n      swap1\n      pop\n        /* \"#utility.yul\":10225:10533   */\n      swap2\n      swap1\n      pop\n      jump\t// out\n        /* \"#utility.yul\":10539:10638   */\n    tag_207:\n        /* \"#utility.yul\":10591:10597   */\n      0x00\n        /* \"#utility.yul\":10625:10630   */\n      dup2\n        /* \"#utility.yul\":10619:10631   */\n      mload\n        /* \"#utility.yul\":10609:10631   */\n      swap1\n      pop\n        /* \"#utility.yul\":10539:10638   */\n      swap2\n      swap1\n      pop\n      jump\t// out\n        /* \"#utility.yul\":10644:10813   */\n    tag_209:\n        /* \"#utility.yul\":10728:10739   */\n      0x00\n        /* \"#utility.yul\":10762:10768   */\n      dup3\n        /* \"#utility.yul\":10757:10760   */\n      dup3\n        /* \"#utility.yul\":10750:10769   */\n      mstore\n        /* \"#utility.yul\":10802:10806   */\n      0x20\n        /* \"#utility.yul\":10797:10800   */\n      dup3\n        /* \"#utility.yul\":10793:10807   */\n      add\n        /* \"#utility.yul\":10778:10807   */\n      swap1\n      pop\n        /* \"#utility.yul\":10644:10813   */\n      swap3\n      swap2\n      pop\n      pop\n      jump\t// out\n        /* \"#utility.yul\":10819:11010   */\n    tag_70:\n        /* \"#utility.yul\":10859:10863   */\n      0x00\n        /* \"#utility.yul\":10879:10899   */\n      tag_278\n        /* \"#utility.yul\":10897:10898   */\n      dup3\n        /* \"#utility.yul\":10879:10899   */\n      tag_242\n      jump\t// in\n    tag_278:\n        /* \"#utility.yul\":10874:10899   */\n      swap2\n      pop\n        /* \"#utility.yul\":10913:10933   */\n      tag_279\n        /* \"#utility.yul\":10931:10932   */\n      dup4\n        /* \"#utility.yul\":10913:10933   */\n      tag_242\n      jump\t// in\n    tag_279:\n        /* \"#utility.yul\":10908:10933   */\n      swap3\n      pop\n        /* \"#utility.yul\":10952:10953   */\n      dup3\n        /* \"#utility.yul\":10949:10950   */\n      dup3\n        /* \"#utility.yul\":10946:10954   */\n      lt\n        /* \"#utility.yul\":10943:10977   */\n      iszero\n      tag_280\n      jumpi\n        /* \"#utility.yul\":10957:10975   */\n      tag_281\n      tag_282\n      jump\t// in\n    tag_281:\n        /* \"#utility.yul\":10943:10977   */\n    tag_280:\n        /* \"#utility.yul\":11002:11003   */\n      dup3\n        /* \"#utility.yul\":10999:11000   */\n      dup3\n        /* \"#utility.yul\":10995:11004   */\n      sub\n        /* \"#utility.yul\":10987:11004   */\n      swap1\n      pop\n        /* \"#utility.yul\":10819:11010   */\n      swap3\n      swap2\n      pop\n      pop\n      jump\t// out\n        /* \"#utility.yul\":11016:11112   */\n    tag_199:\n        /* \"#utility.yul\":11053:11060   */\n      0x00\n        /* \"#utility.yul\":11082:11106   */\n      tag_284\n        /* \"#utility.yul\":11100:11105   */\n      dup3\n        /* \"#utility.yul\":11082:11106   */\n      tag_285\n      jump\t// in\n    tag_284:\n        /* \"#utility.yul\":11071:11106   */\n      swap1\n      pop\n        /* \"#utility.yul\":11016:11112   */\n      swap2\n      swap1\n      pop\n      jump\t// out\n        /* \"#utility.yul\":11118:11245   */\n    tag_286:\n        /* \"#utility.yul\":11163:11170   */\n      0x00\n        /* \"#utility.yul\":11192:11197   */\n      dup2\n        /* \"#utility.yul\":11181:11197   */\n      swap1\n      pop\n        /* \"#utility.yul\":11198:11239   */\n      tag_288\n        /* \"#utility.yul\":11233:11238   */\n      dup3\n        /* \"#utility.yul\":11198:11239   */\n      tag_289\n      jump\t// in\n    tag_288:\n        /* \"#utility.yul\":11118:11245   */\n      swap2\n      swap1\n      pop\n      jump\t// out\n        /* \"#utility.yul\":11251:11377   */\n    tag_285:\n        /* \"#utility.yul\":11288:11295   */\n      0x00\n        /* \"#utility.yul\":11328:11370   */\n      0xffffffffffffffffffffffffffffffffffffffff\n        /* \"#utility.yul\":11321:11326   */\n      dup3\n        /* \"#utility.yul\":11317:11371   */\n      and\n        /* \"#utility.yul\":11306:11371   */\n      swap1\n      pop\n        /* \"#utility.yul\":11251:11377   */\n      swap2\n      swap1\n      pop\n      jump\t// out\n        /* \"#utility.yul\":11383:11460   */\n    tag_242:\n        /* \"#utility.yul\":11420:11427   */\n      0x00\n        /* \"#utility.yul\":11449:11454   */\n      dup2\n        /* \"#utility.yul\":11438:11454   */\n      swap1\n      pop\n        /* \"#utility.yul\":11383:11460   */\n      swap2\n      swap1\n      pop\n      jump\t// out\n        /* \"#utility.yul\":11466:11593   */\n    tag_203:\n        /* \"#utility.yul\":11522:11531   */\n      0x00\n        /* \"#utility.yul\":11555:11587   */\n      tag_293\n        /* \"#utility.yul\":11581:11586   */\n      dup3\n        /* \"#utility.yul\":11555:11587   */\n      tag_286\n      jump\t// in\n    tag_293:\n        /* \"#utility.yul\":11542:11587   */\n      swap1\n      pop\n        /* \"#utility.yul\":11466:11593   */\n      swap2\n      swap1\n      pop\n      jump\t// out\n        /* \"#utility.yul\":11599:11753   */\n    tag_159:\n        /* \"#utility.yul\":11683:11689   */\n      dup3\n        /* \"#utility.yul\":11678:11681   */\n      dup2\n        /* \"#utility.yul\":11673:11676   */\n      dup4\n        /* \"#utility.yul\":11660:11690   */\n      calldatacopy\n        /* \"#utility.yul\":11745:11746   */\n      0x00\n        /* \"#utility.yul\":11736:11742   */\n      dup4\n        /* \"#utility.yul\":11731:11734   */\n      dup4\n        /* \"#utility.yul\":11727:11743   */\n      add\n        /* \"#utility.yul\":11720:11747   */\n      mstore\n        /* \"#utility.yul\":11599:11753   */\n      pop\n      pop\n      pop\n      jump\t// out\n        /* \"#utility.yul\":11759:12066   */\n    tag_211:\n        /* \"#utility.yul\":11827:11828   */\n      0x00\n        /* \"#utility.yul\":11837:11950   */\n    tag_296:\n        /* \"#utility.yul\":11851:11857   */\n      dup4\n        /* \"#utility.yul\":11848:11849   */\n      dup2\n        /* \"#utility.yul\":11845:11858   */\n      lt\n        /* \"#utility.yul\":11837:11950   */\n      iszero\n      tag_298\n      jumpi\n        /* \"#utility.yul\":11936:11937   */\n      dup1\n        /* \"#utility.yul\":11931:11934   */\n      dup3\n        /* \"#utility.yul\":11927:11938   */\n      add\n        /* \"#utility.yul\":11921:11939   */\n      mload\n        /* \"#utility.yul\":11917:11918   */\n      dup2\n        /* \"#utility.yul\":11912:11915   */\n      dup5\n        /* \"#utility.yul\":11908:11919   */\n      add\n        /* \"#utility.yul\":11901:11940   */\n      mstore\n        /* \"#utility.yul\":11873:11875   */\n      0x20\n        /* \"#utility.yul\":11870:11871   */\n      dup2\n        /* \"#utility.yul\":11866:11876   */\n      add\n        /* \"#utility.yul\":11861:11876   */\n      swap1\n      pop\n        /* \"#utility.yul\":11837:11950   */\n      jump(tag_296)\n    tag_298:\n        /* \"#utility.yul\":11968:11974   */\n      dup4\n        /* \"#utility.yul\":11965:11966   */\n      dup2\n        /* \"#utility.yul\":11962:11975   */\n      gt\n        /* \"#utility.yul\":11959:12060   */\n      iszero\n      tag_299\n      jumpi\n        /* \"#utility.yul\":12048:12049   */\n      0x00\n        /* \"#utility.yul\":12039:12045   */\n      dup5\n        /* \"#utility.yul\":12034:12037   */\n      dup5\n        /* \"#utility.yul\":12030:12046   */\n      add\n        /* \"#utility.yul\":12023:12050   */\n      mstore\n        /* \"#utility.yul\":11959:12060   */\n    tag_299:\n        /* \"#utility.yul\":11808:12066   */\n      pop\n        /* \"#utility.yul\":11759:12066   */\n      pop\n      pop\n      pop\n      jump\t// out\n        /* \"#utility.yul\":12072:12392   */\n    tag_74:\n        /* \"#utility.yul\":12116:12122   */\n      0x00\n        /* \"#utility.yul\":12153:12154   */\n      0x02\n        /* \"#utility.yul\":12147:12151   */\n      dup3\n        /* \"#utility.yul\":12143:12155   */\n      div\n        /* \"#utility.yul\":12133:12155   */\n      swap1\n      pop\n        /* \"#utility.yul\":12200:12201   */\n      0x01\n        /* \"#utility.yul\":12194:12198   */\n      dup3\n        /* \"#utility.yul\":12190:12202   */\n      and\n        /* \"#utility.yul\":12221:12239   */\n      dup1\n        /* \"#utility.yul\":12211:12292   */\n      tag_301\n      jumpi\n        /* \"#utility.yul\":12277:12281   */\n      0x7f\n        /* \"#utility.yul\":12269:12275   */\n      dup3\n        /* \"#utility.yul\":12265:12282   */\n      and\n        /* \"#utility.yul\":12255:12282   */\n      swap2\n      pop\n        /* \"#utility.yul\":12211:12292   */\n    tag_301:\n        /* \"#utility.yul\":12339:12341   */\n      0x20\n        /* \"#utility.yul\":12331:12337   */\n      dup3\n        /* \"#utility.yul\":12328:12342   */\n      lt\n        /* \"#utility.yul\":12308:12326   */\n      dup2\n        /* \"#utility.yul\":12305:12343   */\n      eq\n        /* \"#utility.yul\":12302:12386   */\n      iszero\n      tag_302\n      jumpi\n        /* \"#utility.yul\":12358:12376   */\n      tag_303\n      tag_304\n      jump\t// in\n    tag_303:\n        /* \"#utility.yul\":12302:12386   */\n    tag_302:\n        /* \"#utility.yul\":12123:12392   */\n      pop\n        /* \"#utility.yul\":12072:12392   */\n      swap2\n      swap1\n      pop\n      jump\t// out\n        /* \"#utility.yul\":12398:12679   */\n    tag_265:\n        /* \"#utility.yul\":12481:12508   */\n      tag_306\n        /* \"#utility.yul\":12503:12507   */\n      dup3\n        /* \"#utility.yul\":12481:12508   */\n      tag_213\n      jump\t// in\n    tag_306:\n        /* \"#utility.yul\":12473:12479   */\n      dup2\n        /* \"#utility.yul\":12469:12509   */\n      add\n        /* \"#utility.yul\":12611:12617   */\n      dup2\n        /* \"#utility.yul\":12599:12609   */\n      dup2\n        /* \"#utility.yul\":12596:12618   */\n      lt\n        /* \"#utility.yul\":12575:12593   */\n      0xffffffffffffffff\n        /* \"#utility.yul\":12563:12573   */\n      dup3\n        /* \"#utility.yul\":12560:12594   */\n      gt\n        /* \"#utility.yul\":12557:12619   */\n      or\n        /* \"#utility.yul\":12554:12642   */\n      iszero\n      tag_307\n      jumpi\n        /* \"#utility.yul\":12622:12640   */\n      tag_308\n      tag_270\n      jump\t// in\n    tag_308:\n        /* \"#utility.yul\":12554:12642   */\n    tag_307:\n        /* \"#utility.yul\":12662:12672   */\n      dup1\n        /* \"#utility.yul\":12658:12660   */\n      0x40\n        /* \"#utility.yul\":12651:12673   */\n      mstore\n        /* \"#utility.yul\":12441:12679   */\n      pop\n        /* \"#utility.yul\":12398:12679   */\n      pop\n      pop\n      jump\t// out\n        /* \"#utility.yul\":12685:12865   */\n    tag_282:\n        /* \"#utility.yul\":12733:12810   */\n      0x4e487b7100000000000000000000000000000000000000000000000000000000\n        /* \"#utility.yul\":12730:12731   */\n      0x00\n        /* \"#utility.yul\":12723:12811   */\n      mstore\n        /* \"#utility.yul\":12830:12834   */\n      0x11\n        /* \"#utility.yul\":12827:12828   */\n      0x04\n        /* \"#utility.yul\":12820:12835   */\n      mstore\n        /* \"#utility.yul\":12854:12858   */\n      0x24\n        /* \"#utility.yul\":12851:12852   */\n      0x00\n        /* \"#utility.yul\":12844:12859   */\n      revert\n        /* \"#utility.yul\":12871:13051   */\n    tag_60:\n        /* \"#utility.yul\":12919:12996   */\n      0x4e487b7100000000000000000000000000000000000000000000000000000000\n        /* \"#utility.yul\":12916:12917   */\n      0x00\n        /* \"#utility.yul\":12909:12997   */\n      mstore\n        /* \"#utility.yul\":13016:13020   */\n      0x21\n        /* \"#utility.yul\":13013:13014   */\n      0x04\n        /* \"#utility.yul\":13006:13021   */\n      mstore\n        /* \"#utility.yul\":13040:13044   */\n      0x24\n        /* \"#utility.yul\":13037:13038   */\n      0x00\n        /* \"#utility.yul\":13030:13045   */\n      revert\n        /* \"#utility.yul\":13057:13237   */\n    tag_304:\n        /* \"#utility.yul\":13105:13182   */\n      0x4e487b7100000000000000000000000000000000000000000000000000000000\n        /* \"#utility.yul\":13102:13103   */\n      0x00\n        /* \"#utility.yul\":13095:13183   */\n      mstore\n        /* \"#utility.yul\":13202:13206   */\n      0x22\n        /* \"#utility.yul\":13199:13200   */\n      0x04\n        /* \"#utility.yul\":13192:13207   */\n      mstore\n        /* \"#utility.yul\":13226:13230   */\n      0x24\n        /* \"#utility.yul\":13223:13224   */\n      0x00\n        /* \"#utility.yul\":13216:13231   */\n      revert\n        /* \"#utility.yul\":13243:13423   */\n    tag_41:\n        /* \"#utility.yul\":13291:13368   */\n      0x4e487b7100000000000000000000000000000000000000000000000000000000\n        /* \"#utility.yul\":13288:13289   */\n      0x00\n        /* \"#utility.yul\":13281:13369   */\n      mstore\n        /* \"#utility.yul\":13388:13392   */\n      0x32\n        /* \"#utility.yul\":13385:13386   */\n      0x04\n        /* \"#utility.yul\":13378:13393   */\n      mstore\n        /* \"#utility.yul\":13412:13416   */\n      0x24\n        /* \"#utility.yul\":13409:13410   */\n      0x00\n        /* \"#utility.yul\":13402:13417   */\n      revert\n        /* \"#utility.yul\":13429:13609   */\n    tag_270:\n        /* \"#utility.yul\":13477:13554   */\n      0x4e487b7100000000000000000000000000000000000000000000000000000000\n        /* \"#utility.yul\":13474:13475   */\n      0x00\n        /* \"#utility.yul\":13467:13555   */\n      mstore\n        /* \"#utility.yul\":13574:13578   */\n      0x41\n        /* \"#utility.yul\":13571:13572   */\n      0x04\n        /* \"#utility.yul\":13564:13579   */\n      mstore\n        /* \"#utility.yul\":13598:13602   */\n      0x24\n        /* \"#utility.yul\":13595:13596   */\n      0x00\n        /* \"#utility.yul\":13588:13603   */\n      revert\n        /* \"#utility.yul\":13615:13732   */\n    tag_164:\n        /* \"#utility.yul\":13724:13725   */\n      0x00\n        /* \"#utility.yul\":13721:13722   */\n      dup1\n        /* \"#utility.yul\":13714:13726   */\n      revert\n        /* \"#utility.yul\":13738:13855   */\n    tag_144:\n        /* \"#utility.yul\":13847:13848   */\n      0x00\n        /* \"#utility.yul\":13844:13845   */\n      dup1\n        /* \"#utility.yul\":13837:13849   */\n      revert\n        /* \"#utility.yul\":13861:13978   */\n    tag_157:\n        /* \"#utility.yul\":13970:13971   */\n      0x00\n        /* \"#utility.yul\":13967:13968   */\n      dup1\n        /* \"#utility.yul\":13960:13972   */\n      revert\n        /* \"#utility.yul\":13984:14101   */\n    tag_180:\n        /* \"#utility.yul\":14093:14094   */\n      0x00\n        /* \"#utility.yul\":14090:14091   */\n      dup1\n        /* \"#utility.yul\":14083:14095   */\n      revert\n        /* \"#utility.yul\":14107:14224   */\n    tag_177:\n        /* \"#utility.yul\":14216:14217   */\n      0x00\n        /* \"#utility.yul\":14213:14214   */\n      dup1\n        /* \"#utility.yul\":14206:14218   */\n      revert\n        /* \"#utility.yul\":14230:14332   */\n    tag_213:\n        /* \"#utility.yul\":14271:14277   */\n      0x00\n        /* \"#utility.yul\":14322:14324   */\n      0x1f\n        /* \"#utility.yul\":14318:14325   */\n      not\n        /* \"#utility.yul\":14313:14315   */\n      0x1f\n        /* \"#utility.yul\":14306:14311   */\n      dup4\n        /* \"#utility.yul\":14302:14316   */\n      add\n        /* \"#utility.yul\":14298:14326   */\n      and\n        /* \"#utility.yul\":14288:14326   */\n      swap1\n      pop\n        /* \"#utility.yul\":14230:14332   */\n      swap2\n      swap1\n      pop\n      jump\t// out\n        /* \"#utility.yul\":14338:14513   */\n    tag_218:\n        /* \"#utility.yul\":14478:14505   */\n      0x4f7264657220697320616c726561647920736869707065642e00000000000000\n        /* \"#utility.yul\":14474:14475   */\n      0x00\n        /* \"#utility.yul\":14466:14472   */\n      dup3\n        /* \"#utility.yul\":14462:14476   */\n      add\n        /* \"#utility.yul\":14455:14506   */\n      mstore\n        /* \"#utility.yul\":14338:14513   */\n      pop\n      jump\t// out\n        /* \"#utility.yul\":14519:14680   */\n    tag_223:\n        /* \"#utility.yul\":14659:14672   */\n      0x4e6f2070726f6475637473000000000000000000000000000000000000000000\n        /* \"#utility.yul\":14655:14656   */\n      0x00\n        /* \"#utility.yul\":14647:14653   */\n      dup3\n        /* \"#utility.yul\":14643:14657   */\n      add\n        /* \"#utility.yul\":14636:14673   */\n      mstore\n        /* \"#utility.yul\":14519:14680   */\n      pop\n      jump\t// out\n        /* \"#utility.yul\":14686:14858   */\n    tag_228:\n        /* \"#utility.yul\":14826:14850   */\n      0x596f75277265206e6f7420617574686f72697a65642e00000000000000000000\n        /* \"#utility.yul\":14822:14823   */\n      0x00\n        /* \"#utility.yul\":14814:14820   */\n      dup3\n        /* \"#utility.yul\":14810:14824   */\n      add\n        /* \"#utility.yul\":14803:14851   */\n      mstore\n        /* \"#utility.yul\":14686:14858   */\n      pop\n      jump\t// out\n        /* \"#utility.yul\":14864:15034   */\n    tag_233:\n        /* \"#utility.yul\":15004:15026   */\n      0x4e6f7420612076616c6964206f72646572206964000000000000000000000000\n        /* \"#utility.yul\":15000:15001   */\n      0x00\n        /* \"#utility.yul\":14992:14998   */\n      dup3\n        /* \"#utility.yul\":14988:15002   */\n      add\n        /* \"#utility.yul\":14981:15027   */\n      mstore\n        /* \"#utility.yul\":14864:15034   */\n      pop\n      jump\t// out\n        /* \"#utility.yul\":15040:15261   */\n    tag_238:\n        /* \"#utility.yul\":15180:15214   */\n      0x596f7520617265206e6f7420746865206f776e6572206f6620746865206f7264\n        /* \"#utility.yul\":15176:15177   */\n      0x00\n        /* \"#utility.yul\":15168:15174   */\n      dup3\n        /* \"#utility.yul\":15164:15178   */\n      add\n        /* \"#utility.yul\":15157:15215   */\n      mstore\n        /* \"#utility.yul\":15249:15253   */\n      0x6572000000000000000000000000000000000000000000000000000000000000\n        /* \"#utility.yul\":15244:15246   */\n      0x20\n        /* \"#utility.yul\":15236:15242   */\n      dup3\n        /* \"#utility.yul\":15232:15247   */\n      add\n        /* \"#utility.yul\":15225:15254   */\n      mstore\n        /* \"#utility.yul\":15040:15261   */\n      pop\n      jump\t// out\n        /* \"#utility.yul\":15267:15380   */\n    tag_289:\n        /* \"#utility.yul\":15348:15349   */\n      0x04\n        /* \"#utility.yul\":15341:15346   */\n      dup2\n        /* \"#utility.yul\":15338:15350   */\n      lt\n        /* \"#utility.yul\":15328:15374   */\n      tag_326\n      jumpi\n        /* \"#utility.yul\":15354:15372   */\n      tag_327\n      tag_60\n      jump\t// in\n    tag_327:\n        /* \"#utility.yul\":15328:15374   */\n    tag_326:\n        /* \"#utility.yul\":15267:15380   */\n      pop\n      jump\t// out\n        /* \"#utility.yul\":15386:15508   */\n    tag_173:\n        /* \"#utility.yul\":15459:15483   */\n      tag_329\n        /* \"#utility.yul\":15477:15482   */\n      dup2\n        /* \"#utility.yul\":15459:15483   */\n      tag_242\n      jump\t// in\n    tag_329:\n        /* \"#utility.yul\":15452:15457   */\n      dup2\n        /* \"#utility.yul\":15449:15484   */\n      eq\n        /* \"#utility.yul\":15439:15502   */\n      tag_330\n      jumpi\n        /* \"#utility.yul\":15498:15499   */\n      0x00\n        /* \"#utility.yul\":15495:15496   */\n      dup1\n        /* \"#utility.yul\":15488:15500   */\n      revert\n        /* \"#utility.yul\":15439:15502   */\n    tag_330:\n        /* \"#utility.yul\":15386:15508   */\n      pop\n      jump\t// out\n\n    auxdata: 0xa2646970667358221220b7f1d9433ef388ea03d36afaec9e336de8f1ba93c89e16becf72387ae769923e64736f6c63430008070033\n}\n",
				"bytecode": {
					"linkReferences": {},
					"object": "608060405234801561001057600080fd5b5033600160006101000a81548173ffffffffffffffffffffffffffffffffffffffff021916908373ffffffffffffffffffffffffffffffffffffffff1602179055506111ec806100616000396000f3fe608060405234801561001057600080fd5b50600436106100625760003560e01c80633c54068714610067578063577dc0a0146100855780636d9a65d8146100a15780638da5cb5b146100d1578063a85c38ef146100ef578063afe13a6214610121575b600080fd5b61006f61013d565b60405161007c9190610d90565b60405180910390f35b61009f600480360381019061009a9190610b26565b610143565b005b6100bb60048036038101906100b69190610a81565b61027c565b6040516100c89190610d90565b60405180910390f35b6100d9610441565b6040516100e69190610c97565b60405180910390f35b61010960048036038101906101049190610af9565b610467565b60405161011893929190610cb2565b60405180910390f35b61013b60048036038101906101369190610af9565b610556565b005b60025481565b60008054905082111561018b576040517f08c379a000000000000000000000000000000000000000000000000000000000815260040161018290610d50565b60405180910390fd5b3373ffffffffffffffffffffffffffffffffffffffff16600083815481106101b6576101b5611010565b5b906000526020600020906004020160000160009054906101000a900473ffffffffffffffffffffffffffffffffffffffff1673ffffffffffffffffffffffffffffffffffffffff161461023e576040517f08c379a000000000000000000000000000000000000000000000000000000000815260040161023590610d70565b60405180910390fd5b806000838154811061025357610252611010565b5b9060005260206000209060040201600101908051906020019061027792919061081e565b505050565b60008160008151116102c3576040517f08c379a00000000000000000000000000000000000000000000000000000000081526004016102ba90610d10565b60405180910390fd5b6102cb6108a4565b33816000019073ffffffffffffffffffffffffffffffffffffffff16908173ffffffffffffffffffffffffffffffffffffffff168152505084816020018190525083816040018190525060008160600190600381111561032e5761032d610fb2565b5b9081600381111561034257610341610fb2565b5b81525050600081908060018154018082558091505060019003906000526020600020906004020160009091909190915060008201518160000160006101000a81548173ffffffffffffffffffffffffffffffffffffffff021916908373ffffffffffffffffffffffffffffffffffffffff16021790555060208201518160010190805190602001906103d592919061081e565b5060408201518160020190805190602001906103f29291906108f4565b5060608201518160030160006101000a81548160ff0219169083600381111561041e5761041d610fb2565b5b0217905550505060016000805490506104379190610e49565b9250505092915050565b600160009054906101000a900473ffffffffffffffffffffffffffffffffffffffff1681565b6000818154811061047757600080fd5b90600052602060002090600402016000915090508060000160009054906101000a900473ffffffffffffffffffffffffffffffffffffffff16908060010180546104c090610f20565b80601f01602080910402602001604051908101604052809291908181526020018280546104ec90610f20565b80156105395780601f1061050e57610100808354040283529160200191610539565b820191906000526020600020905b81548152906001019060200180831161051c57829003601f168201915b5050505050908060030160009054906101000a900460ff16905083565b80600080549050811061059e576040517f08c379a000000000000000000000000000000000000000000000000000000000815260040161059590610d50565b60405180910390fd5b600160009054906101000a900473ffffffffffffffffffffffffffffffffffffffff1673ffffffffffffffffffffffffffffffffffffffff163373ffffffffffffffffffffffffffffffffffffffff161461062e576040517f08c379a000000000000000000000000000000000000000000000000000000000815260040161062590610d30565b60405180910390fd5b600080838154811061064357610642611010565b5b9060005260206000209060040201905060038081111561066657610665610fb2565b5b8160030160009054906101000a900460ff16600381111561068a57610689610fb2565b5b14156106cb576040517f08c379a00000000000000000000000000000000000000000000000000000000081526004016106c290610cf0565b60405180910390fd5b600060038111156106df576106de610fb2565b5b8160030160009054906101000a900460ff16600381111561070357610702610fb2565b5b141561073b5760018160030160006101000a81548160ff0219169083600381111561073157610730610fb2565b5b0217905550610819565b6001600381111561074f5761074e610fb2565b5b8160030160009054906101000a900460ff16600381111561077357610772610fb2565b5b14156107ab5760028160030160006101000a81548160ff021916908360038111156107a1576107a0610fb2565b5b0217905550610818565b600260038111156107bf576107be610fb2565b5b8160030160009054906101000a900460ff1660038111156107e3576107e2610fb2565b5b14156108175760038160030160006101000a81548160ff0219169083600381111561081157610810610fb2565b5b02179055505b5b5b505050565b82805461082a90610f20565b90600052602060002090601f01602090048101928261084c5760008555610893565b82601f1061086557805160ff1916838001178555610893565b82800160010185558215610893579182015b82811115610892578251825591602001919060010190610877565b5b5090506108a09190610941565b5090565b6040518060800160405280600073ffffffffffffffffffffffffffffffffffffffff1681526020016060815260200160608152602001600060038111156108ee576108ed610fb2565b5b81525090565b828054828255906000526020600020908101928215610930579160200282015b8281111561092f578251825591602001919060010190610914565b5b50905061093d9190610941565b5090565b5b8082111561095a576000816000905550600101610942565b5090565b600061097161096c84610dd0565b610dab565b9050808382526020820190508285602086028201111561099457610993611073565b5b60005b858110156109c457816109aa8882610a6c565b845260208401935060208301925050600181019050610997565b5050509392505050565b60006109e16109dc84610dfc565b610dab565b9050828152602081018484840111156109fd576109fc611078565b5b610a08848285610ede565b509392505050565b600082601f830112610a2557610a2461106e565b5b8135610a3584826020860161095e565b91505092915050565b600082601f830112610a5357610a5261106e565b5b8135610a638482602086016109ce565b91505092915050565b600081359050610a7b8161119f565b92915050565b60008060408385031215610a9857610a97611082565b5b600083013567ffffffffffffffff811115610ab657610ab561107d565b5b610ac285828601610a3e565b925050602083013567ffffffffffffffff811115610ae357610ae261107d565b5b610aef85828601610a10565b9150509250929050565b600060208284031215610b0f57610b0e611082565b5b6000610b1d84828501610a6c565b91505092915050565b60008060408385031215610b3d57610b3c611082565b5b6000610b4b85828601610a6c565b925050602083013567ffffffffffffffff811115610b6c57610b6b61107d565b5b610b7885828601610a3e565b9150509250929050565b610b8b81610e7d565b82525050565b610b9a81610ecc565b82525050565b6000610bab82610e2d565b610bb58185610e38565b9350610bc5818560208601610eed565b610bce81611087565b840191505092915050565b6000610be6601983610e38565b9150610bf182611098565b602082019050919050565b6000610c09600b83610e38565b9150610c14826110c1565b602082019050919050565b6000610c2c601683610e38565b9150610c37826110ea565b602082019050919050565b6000610c4f601483610e38565b9150610c5a82611113565b602082019050919050565b6000610c72602283610e38565b9150610c7d8261113c565b604082019050919050565b610c9181610ec2565b82525050565b6000602082019050610cac6000830184610b82565b92915050565b6000606082019050610cc76000830186610b82565b8181036020830152610cd98185610ba0565b9050610ce86040830184610b91565b949350505050565b60006020820190508181036000830152610d0981610bd9565b9050919050565b60006020820190508181036000830152610d2981610bfc565b9050919050565b60006020820190508181036000830152610d4981610c1f565b9050919050565b60006020820190508181036000830152610d6981610c42565b9050919050565b60006020820190508181036000830152610d8981610c65565b9050919050565b6000602082019050610da56000830184610c88565b92915050565b6000610db5610dc6565b9050610dc18282610f52565b919050565b6000604051905090565b600067ffffffffffffffff821115610deb57610dea61103f565b5b602082029050602081019050919050565b600067ffffffffffffffff821115610e1757610e1661103f565b5b610e2082611087565b9050602081019050919050565b600081519050919050565b600082825260208201905092915050565b6000610e5482610ec2565b9150610e5f83610ec2565b925082821015610e7257610e71610f83565b5b828203905092915050565b6000610e8882610ea2565b9050919050565b6000819050610e9d8261118b565b919050565b600073ffffffffffffffffffffffffffffffffffffffff82169050919050565b6000819050919050565b6000610ed782610e8f565b9050919050565b82818337600083830152505050565b60005b83811015610f0b578082015181840152602081019050610ef0565b83811115610f1a576000848401525b50505050565b60006002820490506001821680610f3857607f821691505b60208210811415610f4c57610f4b610fe1565b5b50919050565b610f5b82611087565b810181811067ffffffffffffffff82111715610f7a57610f7961103f565b5b80604052505050565b7f4e487b7100000000000000000000000000000000000000000000000000000000600052601160045260246000fd5b7f4e487b7100000000000000000000000000000000000000000000000000000000600052602160045260246000fd5b7f4e487b7100000000000000000000000000000000000000000000000000000000600052602260045260246000fd5b7f4e487b7100000000000000000000000000000000000000000000000000000000600052603260045260246000fd5b7f4e487b7100000000000000000000000000000000000000000000000000000000600052604160045260246000fd5b600080fd5b600080fd5b600080fd5b600080fd5b600080fd5b6000601f19601f8301169050919050565b7f4f7264657220697320616c726561647920736869707065642e00000000000000600082015250565b7f4e6f2070726f6475637473000000000000000000000000000000000000000000600082015250565b7f596f75277265206e6f7420617574686f72697a65642e00000000000000000000600082015250565b7f4e6f7420612076616c6964206f72646572206964000000000000000000000000600082015250565b7f596f7520617265206e6f7420746865206f776e6572206f6620746865206f726460008201527f6572000000000000000000000000000000000000000000000000000000000000602082015250565b6004811061119c5761119b610fb2565b5b50565b6111a881610ec2565b81146111b357600080fd5b5056fea2646970667358221220b7f1d9433ef388ea03d36afaec9e336de8f1ba93c89e16becf72387ae769923e64736f6c63430008070033",
					"opcodes": "PUSH1 0x80 PUSH1 0x40 MSTORE CALLVALUE DUP1 ISZERO PUSH2 0x10 JUMPI PUSH1 0x0 DUP1 REVERT JUMPDEST POP CALLER PUSH1 0x1 PUSH1 0x0 PUSH2 0x100 EXP DUP2 SLOAD DUP2 PUSH20 0xFFFFFFFFFFFFFFFFFFFFFFFFFFFFFFFFFFFFFFFF MUL NOT AND SWAP1 DUP4 PUSH20 0xFFFFFFFFFFFFFFFFFFFFFFFFFFFFFFFFFFFFFFFF AND MUL OR SWAP1 SSTORE POP PUSH2 0x11EC DUP1 PUSH2 0x61 PUSH1 0x0 CODECOPY PUSH1 0x0 RETURN INVALID PUSH1 0x80 PUSH1 0x40 MSTORE CALLVALUE DUP1 ISZERO PUSH2 0x10 JUMPI PUSH1 0x0 DUP1 REVERT JUMPDEST POP PUSH1 0x4 CALLDATASIZE LT PUSH2 0x62 JUMPI PUSH1 0x0 CALLDATALOAD PUSH1 0xE0 SHR DUP1 PUSH4 0x3C540687 EQ PUSH2 0x67 JUMPI DUP1 PUSH4 0x577DC0A0 EQ PUSH2 0x85 JUMPI DUP1 PUSH4 0x6D9A65D8 EQ PUSH2 0xA1 JUMPI DUP1 PUSH4 0x8DA5CB5B EQ PUSH2 0xD1 JUMPI DUP1 PUSH4 0xA85C38EF EQ PUSH2 0xEF JUMPI DUP1 PUSH4 0xAFE13A62 EQ PUSH2 0x121 JUMPI JUMPDEST PUSH1 0x0 DUP1 REVERT JUMPDEST PUSH2 0x6F PUSH2 0x13D JUMP JUMPDEST PUSH1 0x40 MLOAD PUSH2 0x7C SWAP2 SWAP1 PUSH2 0xD90 JUMP JUMPDEST PUSH1 0x40 MLOAD DUP1 SWAP2 SUB SWAP1 RETURN JUMPDEST PUSH2 0x9F PUSH1 0x4 DUP1 CALLDATASIZE SUB DUP2 ADD SWAP1 PUSH2 0x9A SWAP2 SWAP1 PUSH2 0xB26 JUMP JUMPDEST PUSH2 0x143 JUMP JUMPDEST STOP JUMPDEST PUSH2 0xBB PUSH1 0x4 DUP1 CALLDATASIZE SUB DUP2 ADD SWAP1 PUSH2 0xB6 SWAP2 SWAP1 PUSH2 0xA81 JUMP JUMPDEST PUSH2 0x27C JUMP JUMPDEST PUSH1 0x40 MLOAD PUSH2 0xC8 SWAP2 SWAP1 PUSH2 0xD90 JUMP JUMPDEST PUSH1 0x40 MLOAD DUP1 SWAP2 SUB SWAP1 RETURN JUMPDEST PUSH2 0xD9 PUSH2 0x441 JUMP JUMPDEST PUSH1 0x40 MLOAD PUSH2 0xE6 SWAP2 SWAP1 PUSH2 0xC97 JUMP JUMPDEST PUSH1 0x40 MLOAD DUP1 SWAP2 SUB SWAP1 RETURN JUMPDEST PUSH2 0x109 PUSH1 0x4 DUP1 CALLDATASIZE SUB DUP2 ADD SWAP1 PUSH2 0x104 SWAP2 SWAP1 PUSH2 0xAF9 JUMP JUMPDEST PUSH2 0x467 JUMP JUMPDEST PUSH1 0x40 MLOAD PUSH2 0x118 SWAP4 SWAP3 SWAP2 SWAP1 PUSH2 0xCB2 JUMP JUMPDEST PUSH1 0x40 MLOAD DUP1 SWAP2 SUB SWAP1 RETURN JUMPDEST PUSH2 0x13B PUSH1 0x4 DUP1 CALLDATASIZE SUB DUP2 ADD SWAP1 PUSH2 0x136 SWAP2 SWAP1 PUSH2 0xAF9 JUMP JUMPDEST PUSH2 0x556 JUMP JUMPDEST STOP JUMPDEST PUSH1 0x2 SLOAD DUP2 JUMP JUMPDEST PUSH1 0x0 DUP1 SLOAD SWAP1 POP DUP3 GT ISZERO PUSH2 0x18B JUMPI PUSH1 0x40 MLOAD PUSH32 0x8C379A000000000000000000000000000000000000000000000000000000000 DUP2 MSTORE PUSH1 0x4 ADD PUSH2 0x182 SWAP1 PUSH2 0xD50 JUMP JUMPDEST PUSH1 0x40 MLOAD DUP1 SWAP2 SUB SWAP1 REVERT JUMPDEST CALLER PUSH20 0xFFFFFFFFFFFFFFFFFFFFFFFFFFFFFFFFFFFFFFFF AND PUSH1 0x0 DUP4 DUP2 SLOAD DUP2 LT PUSH2 0x1B6 JUMPI PUSH2 0x1B5 PUSH2 0x1010 JUMP JUMPDEST JUMPDEST SWAP1 PUSH1 0x0 MSTORE PUSH1 0x20 PUSH1 0x0 KECCAK256 SWAP1 PUSH1 0x4 MUL ADD PUSH1 0x0 ADD PUSH1 0x0 SWAP1 SLOAD SWAP1 PUSH2 0x100 EXP SWAP1 DIV PUSH20 0xFFFFFFFFFFFFFFFFFFFFFFFFFFFFFFFFFFFFFFFF AND PUSH20 0xFFFFFFFFFFFFFFFFFFFFFFFFFFFFFFFFFFFFFFFF AND EQ PUSH2 0x23E JUMPI PUSH1 0x40 MLOAD PUSH32 0x8C379A000000000000000000000000000000000000000000000000000000000 DUP2 MSTORE PUSH1 0x4 ADD PUSH2 0x235 SWAP1 PUSH2 0xD70 JUMP JUMPDEST PUSH1 0x40 MLOAD DUP1 SWAP2 SUB SWAP1 REVERT JUMPDEST DUP1 PUSH1 0x0 DUP4 DUP2 SLOAD DUP2 LT PUSH2 0x253 JUMPI PUSH2 0x252 PUSH2 0x1010 JUMP JUMPDEST JUMPDEST SWAP1 PUSH1 0x0 MSTORE PUSH1 0x20 PUSH1 0x0 KECCAK256 SWAP1 PUSH1 0x4 MUL ADD PUSH1 0x1 ADD SWAP1 DUP1 MLOAD SWAP1 PUSH1 0x20 ADD SWAP1 PUSH2 0x277 SWAP3 SWAP2 SWAP1 PUSH2 0x81E JUMP JUMPDEST POP POP POP JUMP JUMPDEST PUSH1 0x0 DUP2 PUSH1 0x0 DUP2 MLOAD GT PUSH2 0x2C3 JUMPI PUSH1 0x40 MLOAD PUSH32 0x8C379A000000000000000000000000000000000000000000000000000000000 DUP2 MSTORE PUSH1 0x4 ADD PUSH2 0x2BA SWAP1 PUSH2 0xD10 JUMP JUMPDEST PUSH1 0x40 MLOAD DUP1 SWAP2 SUB SWAP1 REVERT JUMPDEST PUSH2 0x2CB PUSH2 0x8A4 JUMP JUMPDEST CALLER DUP2 PUSH1 0x0 ADD SWAP1 PUSH20 0xFFFFFFFFFFFFFFFFFFFFFFFFFFFFFFFFFFFFFFFF AND SWAP1 DUP2 PUSH20 0xFFFFFFFFFFFFFFFFFFFFFFFFFFFFFFFFFFFFFFFF AND DUP2 MSTORE POP POP DUP5 DUP2 PUSH1 0x20 ADD DUP2 SWAP1 MSTORE POP DUP4 DUP2 PUSH1 0x40 ADD DUP2 SWAP1 MSTORE POP PUSH1 0x0 DUP2 PUSH1 0x60 ADD SWAP1 PUSH1 0x3 DUP2 GT ISZERO PUSH2 0x32E JUMPI PUSH2 0x32D PUSH2 0xFB2 JUMP JUMPDEST JUMPDEST SWAP1 DUP2 PUSH1 0x3 DUP2 GT ISZERO PUSH2 0x342 JUMPI PUSH2 0x341 PUSH2 0xFB2 JUMP JUMPDEST JUMPDEST DUP2 MSTORE POP POP PUSH1 0x0 DUP2 SWAP1 DUP1 PUSH1 0x1 DUP2 SLOAD ADD DUP1 DUP3 SSTORE DUP1 SWAP2 POP POP PUSH1 0x1 SWAP1 SUB SWAP1 PUSH1 0x0 MSTORE PUSH1 0x20 PUSH1 0x0 KECCAK256 SWAP1 PUSH1 0x4 MUL ADD PUSH1 0x0 SWAP1 SWAP2 SWAP1 SWAP2 SWAP1 SWAP2 POP PUSH1 0x0 DUP3 ADD MLOAD DUP2 PUSH1 0x0 ADD PUSH1 0x0 PUSH2 0x100 EXP DUP2 SLOAD DUP2 PUSH20 0xFFFFFFFFFFFFFFFFFFFFFFFFFFFFFFFFFFFFFFFF MUL NOT AND SWAP1 DUP4 PUSH20 0xFFFFFFFFFFFFFFFFFFFFFFFFFFFFFFFFFFFFFFFF AND MUL OR SWAP1 SSTORE POP PUSH1 0x20 DUP3 ADD MLOAD DUP2 PUSH1 0x1 ADD SWAP1 DUP1 MLOAD SWAP1 PUSH1 0x20 ADD SWAP1 PUSH2 0x3D5 SWAP3 SWAP2 SWAP1 PUSH2 0x81E JUMP JUMPDEST POP PUSH1 0x40 DUP3 ADD MLOAD DUP2 PUSH1 0x2 ADD SWAP1 DUP1 MLOAD SWAP1 PUSH1 0x20 ADD SWAP1 PUSH2 0x3F2 SWAP3 SWAP2 SWAP1 PUSH2 0x8F4 JUMP JUMPDEST POP PUSH1 0x60 DUP3 ADD MLOAD DUP2 PUSH1 0x3 ADD PUSH1 0x0 PUSH2 0x100 EXP DUP2 SLOAD DUP2 PUSH1 0xFF MUL NOT AND SWAP1 DUP4 PUSH1 0x3 DUP2 GT ISZERO PUSH2 0x41E JUMPI PUSH2 0x41D PUSH2 0xFB2 JUMP JUMPDEST JUMPDEST MUL OR SWAP1 SSTORE POP POP POP PUSH1 0x1 PUSH1 0x0 DUP1 SLOAD SWAP1 POP PUSH2 0x437 SWAP2 SWAP1 PUSH2 0xE49 JUMP JUMPDEST SWAP3 POP POP POP SWAP3 SWAP2 POP POP JUMP JUMPDEST PUSH1 0x1 PUSH1 0x0 SWAP1 SLOAD SWAP1 PUSH2 0x100 EXP SWAP1 DIV PUSH20 0xFFFFFFFFFFFFFFFFFFFFFFFFFFFFFFFFFFFFFFFF AND DUP2 JUMP JUMPDEST PUSH1 0x0 DUP2 DUP2 SLOAD DUP2 LT PUSH2 0x477 JUMPI PUSH1 0x0 DUP1 REVERT JUMPDEST SWAP1 PUSH1 0x0 MSTORE PUSH1 0x20 PUSH1 0x0 KECCAK256 SWAP1 PUSH1 0x4 MUL ADD PUSH1 0x0 SWAP2 POP SWAP1 POP DUP1 PUSH1 0x0 ADD PUSH1 0x0 SWAP1 SLOAD SWAP1 PUSH2 0x100 EXP SWAP1 DIV PUSH20 0xFFFFFFFFFFFFFFFFFFFFFFFFFFFFFFFFFFFFFFFF AND SWAP1 DUP1 PUSH1 0x1 ADD DUP1 SLOAD PUSH2 0x4C0 SWAP1 PUSH2 0xF20 JUMP JUMPDEST DUP1 PUSH1 0x1F ADD PUSH1 0x20 DUP1 SWAP2 DIV MUL PUSH1 0x20 ADD PUSH1 0x40 MLOAD SWAP1 DUP2 ADD PUSH1 0x40 MSTORE DUP1 SWAP3 SWAP2 SWAP1 DUP2 DUP2 MSTORE PUSH1 0x20 ADD DUP3 DUP1 SLOAD PUSH2 0x4EC SWAP1 PUSH2 0xF20 JUMP JUMPDEST DUP1 ISZERO PUSH2 0x539 JUMPI DUP1 PUSH1 0x1F LT PUSH2 0x50E JUMPI PUSH2 0x100 DUP1 DUP4 SLOAD DIV MUL DUP4 MSTORE SWAP2 PUSH1 0x20 ADD SWAP2 PUSH2 0x539 JUMP JUMPDEST DUP3 ADD SWAP2 SWAP1 PUSH1 0x0 MSTORE PUSH1 0x20 PUSH1 0x0 KECCAK256 SWAP1 JUMPDEST DUP2 SLOAD DUP2 MSTORE SWAP1 PUSH1 0x1 ADD SWAP1 PUSH1 0x20 ADD DUP1 DUP4 GT PUSH2 0x51C JUMPI DUP3 SWAP1 SUB PUSH1 0x1F AND DUP3 ADD SWAP2 JUMPDEST POP POP POP POP POP SWAP1 DUP1 PUSH1 0x3 ADD PUSH1 0x0 SWAP1 SLOAD SWAP1 PUSH2 0x100 EXP SWAP1 DIV PUSH1 0xFF AND SWAP1 POP DUP4 JUMP JUMPDEST DUP1 PUSH1 0x0 DUP1 SLOAD SWAP1 POP DUP2 LT PUSH2 0x59E JUMPI PUSH1 0x40 MLOAD PUSH32 0x8C379A000000000000000000000000000000000000000000000000000000000 DUP2 MSTORE PUSH1 0x4 ADD PUSH2 0x595 SWAP1 PUSH2 0xD50 JUMP JUMPDEST PUSH1 0x40 MLOAD DUP1 SWAP2 SUB SWAP1 REVERT JUMPDEST PUSH1 0x1 PUSH1 0x0 SWAP1 SLOAD SWAP1 PUSH2 0x100 EXP SWAP1 DIV PUSH20 0xFFFFFFFFFFFFFFFFFFFFFFFFFFFFFFFFFFFFFFFF AND PUSH20 0xFFFFFFFFFFFFFFFFFFFFFFFFFFFFFFFFFFFFFFFF AND CALLER PUSH20 0xFFFFFFFFFFFFFFFFFFFFFFFFFFFFFFFFFFFFFFFF AND EQ PUSH2 0x62E JUMPI PUSH1 0x40 MLOAD PUSH32 0x8C379A000000000000000000000000000000000000000000000000000000000 DUP2 MSTORE PUSH1 0x4 ADD PUSH2 0x625 SWAP1 PUSH2 0xD30 JUMP JUMPDEST PUSH1 0x40 MLOAD DUP1 SWAP2 SUB SWAP1 REVERT JUMPDEST PUSH1 0x0 DUP1 DUP4 DUP2 SLOAD DUP2 LT PUSH2 0x643 JUMPI PUSH2 0x642 PUSH2 0x1010 JUMP JUMPDEST JUMPDEST SWAP1 PUSH1 0x0 MSTORE PUSH1 0x20 PUSH1 0x0 KECCAK256 SWAP1 PUSH1 0x4 MUL ADD SWAP1 POP PUSH1 0x3 DUP1 DUP2 GT ISZERO PUSH2 0x666 JUMPI PUSH2 0x665 PUSH2 0xFB2 JUMP JUMPDEST JUMPDEST DUP2 PUSH1 0x3 ADD PUSH1 0x0 SWAP1 SLOAD SWAP1 PUSH2 0x100 EXP SWAP1 DIV PUSH1 0xFF AND PUSH1 0x3 DUP2 GT ISZERO PUSH2 0x68A JUMPI PUSH2 0x689 PUSH2 0xFB2 JUMP JUMPDEST JUMPDEST EQ ISZERO PUSH2 0x6CB JUMPI PUSH1 0x40 MLOAD PUSH32 0x8C379A000000000000000000000000000000000000000000000000000000000 DUP2 MSTORE PUSH1 0x4 ADD PUSH2 0x6C2 SWAP1 PUSH2 0xCF0 JUMP JUMPDEST PUSH1 0x40 MLOAD DUP1 SWAP2 SUB SWAP1 REVERT JUMPDEST PUSH1 0x0 PUSH1 0x3 DUP2 GT ISZERO PUSH2 0x6DF JUMPI PUSH2 0x6DE PUSH2 0xFB2 JUMP JUMPDEST JUMPDEST DUP2 PUSH1 0x3 ADD PUSH1 0x0 SWAP1 SLOAD SWAP1 PUSH2 0x100 EXP SWAP1 DIV PUSH1 0xFF AND PUSH1 0x3 DUP2 GT ISZERO PUSH2 0x703 JUMPI PUSH2 0x702 PUSH2 0xFB2 JUMP JUMPDEST JUMPDEST EQ ISZERO PUSH2 0x73B JUMPI PUSH1 0x1 DUP2 PUSH1 0x3 ADD PUSH1 0x0 PUSH2 0x100 EXP DUP2 SLOAD DUP2 PUSH1 0xFF MUL NOT AND SWAP1 DUP4 PUSH1 0x3 DUP2 GT ISZERO PUSH2 0x731 JUMPI PUSH2 0x730 PUSH2 0xFB2 JUMP JUMPDEST JUMPDEST MUL OR SWAP1 SSTORE POP PUSH2 0x819 JUMP JUMPDEST PUSH1 0x1 PUSH1 0x3 DUP2 GT ISZERO PUSH2 0x74F JUMPI PUSH2 0x74E PUSH2 0xFB2 JUMP JUMPDEST JUMPDEST DUP2 PUSH1 0x3 ADD PUSH1 0x0 SWAP1 SLOAD SWAP1 PUSH2 0x100 EXP SWAP1 DIV PUSH1 0xFF AND PUSH1 0x3 DUP2 GT ISZERO PUSH2 0x773 JUMPI PUSH2 0x772 PUSH2 0xFB2 JUMP JUMPDEST JUMPDEST EQ ISZERO PUSH2 0x7AB JUMPI PUSH1 0x2 DUP2 PUSH1 0x3 ADD PUSH1 0x0 PUSH2 0x100 EXP DUP2 SLOAD DUP2 PUSH1 0xFF MUL NOT AND SWAP1 DUP4 PUSH1 0x3 DUP2 GT ISZERO PUSH2 0x7A1 JUMPI PUSH2 0x7A0 PUSH2 0xFB2 JUMP JUMPDEST JUMPDEST MUL OR SWAP1 SSTORE POP PUSH2 0x818 JUMP JUMPDEST PUSH1 0x2 PUSH1 0x3 DUP2 GT ISZERO PUSH2 0x7BF JUMPI PUSH2 0x7BE PUSH2 0xFB2 JUMP JUMPDEST JUMPDEST DUP2 PUSH1 0x3 ADD PUSH1 0x0 SWAP1 SLOAD SWAP1 PUSH2 0x100 EXP SWAP1 DIV PUSH1 0xFF AND PUSH1 0x3 DUP2 GT ISZERO PUSH2 0x7E3 JUMPI PUSH2 0x7E2 PUSH2 0xFB2 JUMP JUMPDEST JUMPDEST EQ ISZERO PUSH2 0x817 JUMPI PUSH1 0x3 DUP2 PUSH1 0x3 ADD PUSH1 0x0 PUSH2 0x100 EXP DUP2 SLOAD DUP2 PUSH1 0xFF MUL NOT AND SWAP1 DUP4 PUSH1 0x3 DUP2 GT ISZERO PUSH2 0x811 JUMPI PUSH2 0x810 PUSH2 0xFB2 JUMP JUMPDEST JUMPDEST MUL OR SWAP1 SSTORE POP JUMPDEST JUMPDEST JUMPDEST POP POP POP JUMP JUMPDEST DUP3 DUP1 SLOAD PUSH2 0x82A SWAP1 PUSH2 0xF20 JUMP JUMPDEST SWAP1 PUSH1 0x0 MSTORE PUSH1 0x20 PUSH1 0x0 KECCAK256 SWAP1 PUSH1 0x1F ADD PUSH1 0x20 SWAP1 DIV DUP2 ADD SWAP3 DUP3 PUSH2 0x84C JUMPI PUSH1 0x0 DUP6 SSTORE PUSH2 0x893 JUMP JUMPDEST DUP3 PUSH1 0x1F LT PUSH2 0x865 JUMPI DUP1 MLOAD PUSH1 0xFF NOT AND DUP4 DUP1 ADD OR DUP6 SSTORE PUSH2 0x893 JUMP JUMPDEST DUP3 DUP1 ADD PUSH1 0x1 ADD DUP6 SSTORE DUP3 ISZERO PUSH2 0x893 JUMPI SWAP2 DUP3 ADD JUMPDEST DUP3 DUP2 GT ISZERO PUSH2 0x892 JUMPI DUP3 MLOAD DUP3 SSTORE SWAP2 PUSH1 0x20 ADD SWAP2 SWAP1 PUSH1 0x1 ADD SWAP1 PUSH2 0x877 JUMP JUMPDEST JUMPDEST POP SWAP1 POP PUSH2 0x8A0 SWAP2 SWAP1 PUSH2 0x941 JUMP JUMPDEST POP SWAP1 JUMP JUMPDEST PUSH1 0x40 MLOAD DUP1 PUSH1 0x80 ADD PUSH1 0x40 MSTORE DUP1 PUSH1 0x0 PUSH20 0xFFFFFFFFFFFFFFFFFFFFFFFFFFFFFFFFFFFFFFFF AND DUP2 MSTORE PUSH1 0x20 ADD PUSH1 0x60 DUP2 MSTORE PUSH1 0x20 ADD PUSH1 0x60 DUP2 MSTORE PUSH1 0x20 ADD PUSH1 0x0 PUSH1 0x3 DUP2 GT ISZERO PUSH2 0x8EE JUMPI PUSH2 0x8ED PUSH2 0xFB2 JUMP JUMPDEST JUMPDEST DUP2 MSTORE POP SWAP1 JUMP JUMPDEST DUP3 DUP1 SLOAD DUP3 DUP3 SSTORE SWAP1 PUSH1 0x0 MSTORE PUSH1 0x20 PUSH1 0x0 KECCAK256 SWAP1 DUP2 ADD SWAP3 DUP3 ISZERO PUSH2 0x930 JUMPI SWAP2 PUSH1 0x20 MUL DUP3 ADD JUMPDEST DUP3 DUP2 GT ISZERO PUSH2 0x92F JUMPI DUP3 MLOAD DUP3 SSTORE SWAP2 PUSH1 0x20 ADD SWAP2 SWAP1 PUSH1 0x1 ADD SWAP1 PUSH2 0x914 JUMP JUMPDEST JUMPDEST POP SWAP1 POP PUSH2 0x93D SWAP2 SWAP1 PUSH2 0x941 JUMP JUMPDEST POP SWAP1 JUMP JUMPDEST JUMPDEST DUP1 DUP3 GT ISZERO PUSH2 0x95A JUMPI PUSH1 0x0 DUP2 PUSH1 0x0 SWAP1 SSTORE POP PUSH1 0x1 ADD PUSH2 0x942 JUMP JUMPDEST POP SWAP1 JUMP JUMPDEST PUSH1 0x0 PUSH2 0x971 PUSH2 0x96C DUP5 PUSH2 0xDD0 JUMP JUMPDEST PUSH2 0xDAB JUMP JUMPDEST SWAP1 POP DUP1 DUP4 DUP3 MSTORE PUSH1 0x20 DUP3 ADD SWAP1 POP DUP3 DUP6 PUSH1 0x20 DUP7 MUL DUP3 ADD GT ISZERO PUSH2 0x994 JUMPI PUSH2 0x993 PUSH2 0x1073 JUMP JUMPDEST JUMPDEST PUSH1 0x0 JUMPDEST DUP6 DUP2 LT ISZERO PUSH2 0x9C4 JUMPI DUP2 PUSH2 0x9AA DUP9 DUP3 PUSH2 0xA6C JUMP JUMPDEST DUP5 MSTORE PUSH1 0x20 DUP5 ADD SWAP4 POP PUSH1 0x20 DUP4 ADD SWAP3 POP POP PUSH1 0x1 DUP2 ADD SWAP1 POP PUSH2 0x997 JUMP JUMPDEST POP POP POP SWAP4 SWAP3 POP POP POP JUMP JUMPDEST PUSH1 0x0 PUSH2 0x9E1 PUSH2 0x9DC DUP5 PUSH2 0xDFC JUMP JUMPDEST PUSH2 0xDAB JUMP JUMPDEST SWAP1 POP DUP3 DUP2 MSTORE PUSH1 0x20 DUP2 ADD DUP5 DUP5 DUP5 ADD GT ISZERO PUSH2 0x9FD JUMPI PUSH2 0x9FC PUSH2 0x1078 JUMP JUMPDEST JUMPDEST PUSH2 0xA08 DUP5 DUP3 DUP6 PUSH2 0xEDE JUMP JUMPDEST POP SWAP4 SWAP3 POP POP POP JUMP JUMPDEST PUSH1 0x0 DUP3 PUSH1 0x1F DUP4 ADD SLT PUSH2 0xA25 JUMPI PUSH2 0xA24 PUSH2 0x106E JUMP JUMPDEST JUMPDEST DUP2 CALLDATALOAD PUSH2 0xA35 DUP5 DUP3 PUSH1 0x20 DUP7 ADD PUSH2 0x95E JUMP JUMPDEST SWAP2 POP POP SWAP3 SWAP2 POP POP JUMP JUMPDEST PUSH1 0x0 DUP3 PUSH1 0x1F DUP4 ADD SLT PUSH2 0xA53 JUMPI PUSH2 0xA52 PUSH2 0x106E JUMP JUMPDEST JUMPDEST DUP2 CALLDATALOAD PUSH2 0xA63 DUP5 DUP3 PUSH1 0x20 DUP7 ADD PUSH2 0x9CE JUMP JUMPDEST SWAP2 POP POP SWAP3 SWAP2 POP POP JUMP JUMPDEST PUSH1 0x0 DUP2 CALLDATALOAD SWAP1 POP PUSH2 0xA7B DUP2 PUSH2 0x119F JUMP JUMPDEST SWAP3 SWAP2 POP POP JUMP JUMPDEST PUSH1 0x0 DUP1 PUSH1 0x40 DUP4 DUP6 SUB SLT ISZERO PUSH2 0xA98 JUMPI PUSH2 0xA97 PUSH2 0x1082 JUMP JUMPDEST JUMPDEST PUSH1 0x0 DUP4 ADD CALLDATALOAD PUSH8 0xFFFFFFFFFFFFFFFF DUP2 GT ISZERO PUSH2 0xAB6 JUMPI PUSH2 0xAB5 PUSH2 0x107D JUMP JUMPDEST JUMPDEST PUSH2 0xAC2 DUP6 DUP3 DUP7 ADD PUSH2 0xA3E JUMP JUMPDEST SWAP3 POP POP PUSH1 0x20 DUP4 ADD CALLDATALOAD PUSH8 0xFFFFFFFFFFFFFFFF DUP2 GT ISZERO PUSH2 0xAE3 JUMPI PUSH2 0xAE2 PUSH2 0x107D JUMP JUMPDEST JUMPDEST PUSH2 0xAEF DUP6 DUP3 DUP7 ADD PUSH2 0xA10 JUMP JUMPDEST SWAP2 POP POP SWAP3 POP SWAP3 SWAP1 POP JUMP JUMPDEST PUSH1 0x0 PUSH1 0x20 DUP3 DUP5 SUB SLT ISZERO PUSH2 0xB0F JUMPI PUSH2 0xB0E PUSH2 0x1082 JUMP JUMPDEST JUMPDEST PUSH1 0x0 PUSH2 0xB1D DUP5 DUP3 DUP6 ADD PUSH2 0xA6C JUMP JUMPDEST SWAP2 POP POP SWAP3 SWAP2 POP POP JUMP JUMPDEST PUSH1 0x0 DUP1 PUSH1 0x40 DUP4 DUP6 SUB SLT ISZERO PUSH2 0xB3D JUMPI PUSH2 0xB3C PUSH2 0x1082 JUMP JUMPDEST JUMPDEST PUSH1 0x0 PUSH2 0xB4B DUP6 DUP3 DUP7 ADD PUSH2 0xA6C JUMP JUMPDEST SWAP3 POP POP PUSH1 0x20 DUP4 ADD CALLDATALOAD PUSH8 0xFFFFFFFFFFFFFFFF DUP2 GT ISZERO PUSH2 0xB6C JUMPI PUSH2 0xB6B PUSH2 0x107D JUMP JUMPDEST JUMPDEST PUSH2 0xB78 DUP6 DUP3 DUP7 ADD PUSH2 0xA3E JUMP JUMPDEST SWAP2 POP POP SWAP3 POP SWAP3 SWAP1 POP JUMP JUMPDEST PUSH2 0xB8B DUP2 PUSH2 0xE7D JUMP JUMPDEST DUP3 MSTORE POP POP JUMP JUMPDEST PUSH2 0xB9A DUP2 PUSH2 0xECC JUMP JUMPDEST DUP3 MSTORE POP POP JUMP JUMPDEST PUSH1 0x0 PUSH2 0xBAB DUP3 PUSH2 0xE2D JUMP JUMPDEST PUSH2 0xBB5 DUP2 DUP6 PUSH2 0xE38 JUMP JUMPDEST SWAP4 POP PUSH2 0xBC5 DUP2 DUP6 PUSH1 0x20 DUP7 ADD PUSH2 0xEED JUMP JUMPDEST PUSH2 0xBCE DUP2 PUSH2 0x1087 JUMP JUMPDEST DUP5 ADD SWAP2 POP POP SWAP3 SWAP2 POP POP JUMP JUMPDEST PUSH1 0x0 PUSH2 0xBE6 PUSH1 0x19 DUP4 PUSH2 0xE38 JUMP JUMPDEST SWAP2 POP PUSH2 0xBF1 DUP3 PUSH2 0x1098 JUMP JUMPDEST PUSH1 0x20 DUP3 ADD SWAP1 POP SWAP2 SWAP1 POP JUMP JUMPDEST PUSH1 0x0 PUSH2 0xC09 PUSH1 0xB DUP4 PUSH2 0xE38 JUMP JUMPDEST SWAP2 POP PUSH2 0xC14 DUP3 PUSH2 0x10C1 JUMP JUMPDEST PUSH1 0x20 DUP3 ADD SWAP1 POP SWAP2 SWAP1 POP JUMP JUMPDEST PUSH1 0x0 PUSH2 0xC2C PUSH1 0x16 DUP4 PUSH2 0xE38 JUMP JUMPDEST SWAP2 POP PUSH2 0xC37 DUP3 PUSH2 0x10EA JUMP JUMPDEST PUSH1 0x20 DUP3 ADD SWAP1 POP SWAP2 SWAP1 POP JUMP JUMPDEST PUSH1 0x0 PUSH2 0xC4F PUSH1 0x14 DUP4 PUSH2 0xE38 JUMP JUMPDEST SWAP2 POP PUSH2 0xC5A DUP3 PUSH2 0x1113 JUMP JUMPDEST PUSH1 0x20 DUP3 ADD SWAP1 POP SWAP2 SWAP1 POP JUMP JUMPDEST PUSH1 0x0 PUSH2 0xC72 PUSH1 0x22 DUP4 PUSH2 0xE38 JUMP JUMPDEST SWAP2 POP PUSH2 0xC7D DUP3 PUSH2 0x113C JUMP JUMPDEST PUSH1 0x40 DUP3 ADD SWAP1 POP SWAP2 SWAP1 POP JUMP JUMPDEST PUSH2 0xC91 DUP2 PUSH2 0xEC2 JUMP JUMPDEST DUP3 MSTORE POP POP JUMP JUMPDEST PUSH1 0x0 PUSH1 0x20 DUP3 ADD SWAP1 POP PUSH2 0xCAC PUSH1 0x0 DUP4 ADD DUP5 PUSH2 0xB82 JUMP JUMPDEST SWAP3 SWAP2 POP POP JUMP JUMPDEST PUSH1 0x0 PUSH1 0x60 DUP3 ADD SWAP1 POP PUSH2 0xCC7 PUSH1 0x0 DUP4 ADD DUP7 PUSH2 0xB82 JUMP JUMPDEST DUP2 DUP2 SUB PUSH1 0x20 DUP4 ADD MSTORE PUSH2 0xCD9 DUP2 DUP6 PUSH2 0xBA0 JUMP JUMPDEST SWAP1 POP PUSH2 0xCE8 PUSH1 0x40 DUP4 ADD DUP5 PUSH2 0xB91 JUMP JUMPDEST SWAP5 SWAP4 POP POP POP POP JUMP JUMPDEST PUSH1 0x0 PUSH1 0x20 DUP3 ADD SWAP1 POP DUP2 DUP2 SUB PUSH1 0x0 DUP4 ADD MSTORE PUSH2 0xD09 DUP2 PUSH2 0xBD9 JUMP JUMPDEST SWAP1 POP SWAP2 SWAP1 POP JUMP JUMPDEST PUSH1 0x0 PUSH1 0x20 DUP3 ADD SWAP1 POP DUP2 DUP2 SUB PUSH1 0x0 DUP4 ADD MSTORE PUSH2 0xD29 DUP2 PUSH2 0xBFC JUMP JUMPDEST SWAP1 POP SWAP2 SWAP1 POP JUMP JUMPDEST PUSH1 0x0 PUSH1 0x20 DUP3 ADD SWAP1 POP DUP2 DUP2 SUB PUSH1 0x0 DUP4 ADD MSTORE PUSH2 0xD49 DUP2 PUSH2 0xC1F JUMP JUMPDEST SWAP1 POP SWAP2 SWAP1 POP JUMP JUMPDEST PUSH1 0x0 PUSH1 0x20 DUP3 ADD SWAP1 POP DUP2 DUP2 SUB PUSH1 0x0 DUP4 ADD MSTORE PUSH2 0xD69 DUP2 PUSH2 0xC42 JUMP JUMPDEST SWAP1 POP SWAP2 SWAP1 POP JUMP JUMPDEST PUSH1 0x0 PUSH1 0x20 DUP3 ADD SWAP1 POP DUP2 DUP2 SUB PUSH1 0x0 DUP4 ADD MSTORE PUSH2 0xD89 DUP2 PUSH2 0xC65 JUMP JUMPDEST SWAP1 POP SWAP2 SWAP1 POP JUMP JUMPDEST PUSH1 0x0 PUSH1 0x20 DUP3 ADD SWAP1 POP PUSH2 0xDA5 PUSH1 0x0 DUP4 ADD DUP5 PUSH2 0xC88 JUMP JUMPDEST SWAP3 SWAP2 POP POP JUMP JUMPDEST PUSH1 0x0 PUSH2 0xDB5 PUSH2 0xDC6 JUMP JUMPDEST SWAP1 POP PUSH2 0xDC1 DUP3 DUP3 PUSH2 0xF52 JUMP JUMPDEST SWAP2 SWAP1 POP JUMP JUMPDEST PUSH1 0x0 PUSH1 0x40 MLOAD SWAP1 POP SWAP1 JUMP JUMPDEST PUSH1 0x0 PUSH8 0xFFFFFFFFFFFFFFFF DUP3 GT ISZERO PUSH2 0xDEB JUMPI PUSH2 0xDEA PUSH2 0x103F JUMP JUMPDEST JUMPDEST PUSH1 0x20 DUP3 MUL SWAP1 POP PUSH1 0x20 DUP2 ADD SWAP1 POP SWAP2 SWAP1 POP JUMP JUMPDEST PUSH1 0x0 PUSH8 0xFFFFFFFFFFFFFFFF DUP3 GT ISZERO PUSH2 0xE17 JUMPI PUSH2 0xE16 PUSH2 0x103F JUMP JUMPDEST JUMPDEST PUSH2 0xE20 DUP3 PUSH2 0x1087 JUMP JUMPDEST SWAP1 POP PUSH1 0x20 DUP2 ADD SWAP1 POP SWAP2 SWAP1 POP JUMP JUMPDEST PUSH1 0x0 DUP2 MLOAD SWAP1 POP SWAP2 SWAP1 POP JUMP JUMPDEST PUSH1 0x0 DUP3 DUP3 MSTORE PUSH1 0x20 DUP3 ADD SWAP1 POP SWAP3 SWAP2 POP POP JUMP JUMPDEST PUSH1 0x0 PUSH2 0xE54 DUP3 PUSH2 0xEC2 JUMP JUMPDEST SWAP2 POP PUSH2 0xE5F DUP4 PUSH2 0xEC2 JUMP JUMPDEST SWAP3 POP DUP3 DUP3 LT ISZERO PUSH2 0xE72 JUMPI PUSH2 0xE71 PUSH2 0xF83 JUMP JUMPDEST JUMPDEST DUP3 DUP3 SUB SWAP1 POP SWAP3 SWAP2 POP POP JUMP JUMPDEST PUSH1 0x0 PUSH2 0xE88 DUP3 PUSH2 0xEA2 JUMP JUMPDEST SWAP1 POP SWAP2 SWAP1 POP JUMP JUMPDEST PUSH1 0x0 DUP2 SWAP1 POP PUSH2 0xE9D DUP3 PUSH2 0x118B JUMP JUMPDEST SWAP2 SWAP1 POP JUMP JUMPDEST PUSH1 0x0 PUSH20 0xFFFFFFFFFFFFFFFFFFFFFFFFFFFFFFFFFFFFFFFF DUP3 AND SWAP1 POP SWAP2 SWAP1 POP JUMP JUMPDEST PUSH1 0x0 DUP2 SWAP1 POP SWAP2 SWAP1 POP JUMP JUMPDEST PUSH1 0x0 PUSH2 0xED7 DUP3 PUSH2 0xE8F JUMP JUMPDEST SWAP1 POP SWAP2 SWAP1 POP JUMP JUMPDEST DUP3 DUP2 DUP4 CALLDATACOPY PUSH1 0x0 DUP4 DUP4 ADD MSTORE POP POP POP JUMP JUMPDEST PUSH1 0x0 JUMPDEST DUP4 DUP2 LT ISZERO PUSH2 0xF0B JUMPI DUP1 DUP3 ADD MLOAD DUP2 DUP5 ADD MSTORE PUSH1 0x20 DUP2 ADD SWAP1 POP PUSH2 0xEF0 JUMP JUMPDEST DUP4 DUP2 GT ISZERO PUSH2 0xF1A JUMPI PUSH1 0x0 DUP5 DUP5 ADD MSTORE JUMPDEST POP POP POP POP JUMP JUMPDEST PUSH1 0x0 PUSH1 0x2 DUP3 DIV SWAP1 POP PUSH1 0x1 DUP3 AND DUP1 PUSH2 0xF38 JUMPI PUSH1 0x7F DUP3 AND SWAP2 POP JUMPDEST PUSH1 0x20 DUP3 LT DUP2 EQ ISZERO PUSH2 0xF4C JUMPI PUSH2 0xF4B PUSH2 0xFE1 JUMP JUMPDEST JUMPDEST POP SWAP2 SWAP1 POP JUMP JUMPDEST PUSH2 0xF5B DUP3 PUSH2 0x1087 JUMP JUMPDEST DUP2 ADD DUP2 DUP2 LT PUSH8 0xFFFFFFFFFFFFFFFF DUP3 GT OR ISZERO PUSH2 0xF7A JUMPI PUSH2 0xF79 PUSH2 0x103F JUMP JUMPDEST JUMPDEST DUP1 PUSH1 0x40 MSTORE POP POP POP JUMP JUMPDEST PUSH32 0x4E487B7100000000000000000000000000000000000000000000000000000000 PUSH1 0x0 MSTORE PUSH1 0x11 PUSH1 0x4 MSTORE PUSH1 0x24 PUSH1 0x0 REVERT JUMPDEST PUSH32 0x4E487B7100000000000000000000000000000000000000000000000000000000 PUSH1 0x0 MSTORE PUSH1 0x21 PUSH1 0x4 MSTORE PUSH1 0x24 PUSH1 0x0 REVERT JUMPDEST PUSH32 0x4E487B7100000000000000000000000000000000000000000000000000000000 PUSH1 0x0 MSTORE PUSH1 0x22 PUSH1 0x4 MSTORE PUSH1 0x24 PUSH1 0x0 REVERT JUMPDEST PUSH32 0x4E487B7100000000000000000000000000000000000000000000000000000000 PUSH1 0x0 MSTORE PUSH1 0x32 PUSH1 0x4 MSTORE PUSH1 0x24 PUSH1 0x0 REVERT JUMPDEST PUSH32 0x4E487B7100000000000000000000000000000000000000000000000000000000 PUSH1 0x0 MSTORE PUSH1 0x41 PUSH1 0x4 MSTORE PUSH1 0x24 PUSH1 0x0 REVERT JUMPDEST PUSH1 0x0 DUP1 REVERT JUMPDEST PUSH1 0x0 DUP1 REVERT JUMPDEST PUSH1 0x0 DUP1 REVERT JUMPDEST PUSH1 0x0 DUP1 REVERT JUMPDEST PUSH1 0x0 DUP1 REVERT JUMPDEST PUSH1 0x0 PUSH1 0x1F NOT PUSH1 0x1F DUP4 ADD AND SWAP1 POP SWAP2 SWAP1 POP JUMP JUMPDEST PUSH32 0x4F7264657220697320616C726561647920736869707065642E00000000000000 PUSH1 0x0 DUP3 ADD MSTORE POP JUMP JUMPDEST PUSH32 0x4E6F2070726F6475637473000000000000000000000000000000000000000000 PUSH1 0x0 DUP3 ADD MSTORE POP JUMP JUMPDEST PUSH32 0x596F75277265206E6F7420617574686F72697A65642E00000000000000000000 PUSH1 0x0 DUP3 ADD MSTORE POP JUMP JUMPDEST PUSH32 0x4E6F7420612076616C6964206F72646572206964000000000000000000000000 PUSH1 0x0 DUP3 ADD MSTORE POP JUMP JUMPDEST PUSH32 0x596F7520617265206E6F7420746865206F776E6572206F6620746865206F7264 PUSH1 0x0 DUP3 ADD MSTORE PUSH32 0x6572000000000000000000000000000000000000000000000000000000000000 PUSH1 0x20 DUP3 ADD MSTORE POP JUMP JUMPDEST PUSH1 0x4 DUP2 LT PUSH2 0x119C JUMPI PUSH2 0x119B PUSH2 0xFB2 JUMP JUMPDEST JUMPDEST POP JUMP JUMPDEST PUSH2 0x11A8 DUP2 PUSH2 0xEC2 JUMP JUMPDEST DUP2 EQ PUSH2 0x11B3 JUMPI PUSH1 0x0 DUP1 REVERT JUMPDEST POP JUMP INVALID LOG2 PUSH5 0x6970667358 0x22 SLT KECCAK256 0xB7 CALL 0xD9 NUMBER RETURNDATACOPY RETURN DUP9 0xEA SUB 0xD3 PUSH11 0xFAEC9E336DE8F1BA93C89E AND 0xBE 0xCF PUSH19 0x387AE769923E64736F6C634300080700330000 "
				},
				"gasEstimates": {
					"creation": {
						"codeDepositCost": "917600",
						"executionCost": "25221",
						"totalCost": "942821"
					},
					"external": {
						"advanceOrder(uint256)": "40179",
						"createOrder(string,uint256[])": "infinite",
						"orders(uint256)": "infinite",
						"owner()": "2558",
						"txCount()": "2407",
						"updateZip(uint256,string)": "infinite"
					}
				},
				"methodIdentifiers": {
					"advanceOrder(uint256)": "afe13a62",
					"createOrder(string,uint256[])": "6d9a65d8",
					"orders(uint256)": "a85c38ef",
					"owner()": "8da5cb5b",
					"txCount()": "3c540687",
					"updateZip(uint256,string)": "577dc0a0"
				}
			},
			"storageLayout": {
				"storage": [
					{
						"astId": 21,
						"contract": "contracts/StructsEnumsModifiers.sol:StructsEnumsModifiers",
						"label": "orders",
						"offset": 0,
						"slot": "0",
						"type": "t_array(t_struct(Order)17_storage)dyn_storage"
					},
					{
						"astId": 23,
						"contract": "contracts/StructsEnumsModifiers.sol:StructsEnumsModifiers",
						"label": "owner",
						"offset": 0,
						"slot": "1",
						"type": "t_address"
					},
					{
						"astId": 25,
						"contract": "contracts/StructsEnumsModifiers.sol:StructsEnumsModifiers",
						"label": "txCount",
						"offset": 0,
						"slot": "2",
						"type": "t_uint256"
					}
				],
				"types": {
					"t_address": {
						"encoding": "inplace",
						"label": "address",
						"numberOfBytes": "20"
					},
					"t_array(t_struct(Order)17_storage)dyn_storage": {
						"base": "t_struct(Order)17_storage",
						"encoding": "dynamic_array",
						"label": "struct StructsEnumsModifiers.Order[]",
						"numberOfBytes": "32"
					},
					"t_array(t_uint256)dyn_storage": {
						"base": "t_uint256",
						"encoding": "dynamic_array",
						"label": "uint256[]",
						"numberOfBytes": "32"
					},
					"t_enum(Status)6": {
						"encoding": "inplace",
						"label": "enum StructsEnumsModifiers.Status",
						"numberOfBytes": "1"
					},
					"t_string_storage": {
						"encoding": "bytes",
						"label": "string",
						"numberOfBytes": "32"
					},
					"t_struct(Order)17_storage": {
						"encoding": "inplace",
						"label": "struct StructsEnumsModifiers.Order",
						"members": [
							{
								"astId": 8,
								"contract": "contracts/StructsEnumsModifiers.sol:StructsEnumsModifiers",
								"label": "customer",
								"offset": 0,
								"slot": "0",
								"type": "t_address"
							},
							{
								"astId": 10,
								"contract": "contracts/StructsEnumsModifiers.sol:StructsEnumsModifiers",
								"label": "zipCode",
								"offset": 0,
								"slot": "1",
								"type": "t_string_storage"
							},
							{
								"astId": 13,
								"contract": "contracts/StructsEnumsModifiers.sol:StructsEnumsModifiers",
								"label": "products",
								"offset": 0,
								"slot": "2",
								"type": "t_array(t_uint256)dyn_storage"
							},
							{
								"astId": 16,
								"contract": "contracts/StructsEnumsModifiers.sol:StructsEnumsModifiers",
								"label": "status",
								"offset": 0,
								"slot": "3",
								"type": "t_enum(Status)6"
							}
						],
						"numberOfBytes": "128"
					},
					"t_uint256": {
						"encoding": "inplace",
						"label": "uint256",
						"numberOfBytes": "32"
					}
				}
			},
			"userdoc": {
				"kind": "user",
				"methods": {},
				"version": 1
			}
		}
	}
}