{
	"contracts/Transfers.sol": {
		"Bank": {
			"abi": [
				{
					"inputs": [],
					"name": "sendEtherToContract",
					"outputs": [],
					"stateMutability": "payable",
					"type": "function"
				},
				{
					"inputs": [],
					"name": "showBalance",
					"outputs": [
						{
							"internalType": "uint256",
							"name": "",
							"type": "uint256"
						}
					],
					"stateMutability": "view",
					"type": "function"
				},
				{
					"inputs": [
						{
							"internalType": "address payable",
							"name": "to",
							"type": "address"
						},
						{
							"internalType": "uint256",
							"name": "amount",
							"type": "uint256"
						}
					],
					"name": "withdraw",
					"outputs": [],
					"stateMutability": "nonpayable",
					"type": "function"
				}
			],
			"devdoc": {
				"kind": "dev",
				"methods": {},
				"version": 1
			},
			"evm": {
				"assembly": "    /* \"contracts/Transfers.sol\":64:689  contract Bank {... */\n  mstore(0x40, 0x80)\n  callvalue\n  dup1\n  iszero\n  tag_1\n  jumpi\n  0x00\n  dup1\n  revert\ntag_1:\n  pop\n  dataSize(sub_0)\n  dup1\n  dataOffset(sub_0)\n  0x00\n  codecopy\n  0x00\n  return\nstop\n\nsub_0: assembly {\n        /* \"contracts/Transfers.sol\":64:689  contract Bank {... */\n      mstore(0x40, 0x80)\n      jumpi(tag_1, lt(calldatasize, 0x04))\n      shr(0xe0, calldataload(0x00))\n      dup1\n      0x325ec768\n      eq\n      tag_2\n      jumpi\n      dup1\n      0x81b2d07b\n      eq\n      tag_3\n      jumpi\n      dup1\n      0xf3fef3a3\n      eq\n      tag_4\n      jumpi\n    tag_1:\n      0x00\n      dup1\n      revert\n        /* \"contracts/Transfers.sol\":129:227  function sendEtherToContract() payable external {... */\n    tag_2:\n      tag_5\n      tag_6\n      jump\t// in\n    tag_5:\n      stop\n        /* \"contracts/Transfers.sol\":233:328  function showBalance() external view returns(uint) {... */\n    tag_3:\n      callvalue\n      dup1\n      iszero\n      tag_7\n      jumpi\n      0x00\n      dup1\n      revert\n    tag_7:\n      pop\n      tag_8\n      tag_9\n      jump\t// in\n    tag_8:\n      mload(0x40)\n      tag_10\n      swap2\n      swap1\n      tag_11\n      jump\t// in\n    tag_10:\n      mload(0x40)\n      dup1\n      swap2\n      sub\n      swap1\n      return\n        /* \"contracts/Transfers.sol\":334:686  function withdraw(address payable to, uint amount) external {... */\n    tag_4:\n      callvalue\n      dup1\n      iszero\n      tag_12\n      jumpi\n      0x00\n      dup1\n      revert\n    tag_12:\n      pop\n      tag_13\n      0x04\n      dup1\n      calldatasize\n      sub\n      dup2\n      add\n      swap1\n      tag_14\n      swap2\n      swap1\n      tag_15\n      jump\t// in\n    tag_14:\n      tag_16\n      jump\t// in\n    tag_13:\n      stop\n        /* \"contracts/Transfers.sol\":129:227  function sendEtherToContract() payable external {... */\n    tag_6:\n        /* \"contracts/Transfers.sol\":211:220  msg.value */\n      callvalue\n        /* \"contracts/Transfers.sol\":187:195  balances */\n      0x00\n        /* \"contracts/Transfers.sol\":187:207  balances[msg.sender] */\n      dup1\n        /* \"contracts/Transfers.sol\":196:206  msg.sender */\n      caller\n        /* \"contracts/Transfers.sol\":187:207  balances[msg.sender] */\n      0xffffffffffffffffffffffffffffffffffffffff\n      and\n      0xffffffffffffffffffffffffffffffffffffffff\n      and\n      dup2\n      mstore\n      0x20\n      add\n      swap1\n      dup2\n      mstore\n      0x20\n      add\n      0x00\n      keccak256\n      0x00\n        /* \"contracts/Transfers.sol\":187:220  balances[msg.sender] += msg.value */\n      dup3\n      dup3\n      sload\n      tag_18\n      swap2\n      swap1\n      tag_19\n      jump\t// in\n    tag_18:\n      swap3\n      pop\n      pop\n      dup2\n      swap1\n      sstore\n      pop\n        /* \"contracts/Transfers.sol\":129:227  function sendEtherToContract() payable external {... */\n      jump\t// out\n        /* \"contracts/Transfers.sol\":233:328  function showBalance() external view returns(uint) {... */\n    tag_9:\n        /* \"contracts/Transfers.sol\":278:282  uint */\n      0x00\n        /* \"contracts/Transfers.sol\":301:309  balances */\n      dup1\n        /* \"contracts/Transfers.sol\":301:321  balances[msg.sender] */\n      0x00\n        /* \"contracts/Transfers.sol\":310:320  msg.sender */\n      caller\n        /* \"contracts/Transfers.sol\":301:321  balances[msg.sender] */\n      0xffffffffffffffffffffffffffffffffffffffff\n      and\n      0xffffffffffffffffffffffffffffffffffffffff\n      and\n      dup2\n      mstore\n      0x20\n      add\n      swap1\n      dup2\n      mstore\n      0x20\n      add\n      0x00\n      keccak256\n      sload\n        /* \"contracts/Transfers.sol\":294:321  return balances[msg.sender] */\n      swap1\n      pop\n        /* \"contracts/Transfers.sol\":233:328  function showBalance() external view returns(uint) {... */\n      swap1\n      jump\t// out\n        /* \"contracts/Transfers.sol\":334:686  function withdraw(address payable to, uint amount) external {... */\n    tag_16:\n        /* \"contracts/Transfers.sol\":552:561  bool sent */\n      0x00\n        /* \"contracts/Transfers.sol\":563:580  bytes memory data */\n      dup1\n        /* \"contracts/Transfers.sol\":584:586  to */\n      dup4\n        /* \"contracts/Transfers.sol\":584:591  to.call */\n      0xffffffffffffffffffffffffffffffffffffffff\n      and\n        /* \"contracts/Transfers.sol\":599:605  amount */\n      dup4\n        /* \"contracts/Transfers.sol\":584:610  to.call{value: amount}(\"\") */\n      mload(0x40)\n      tag_22\n      swap1\n      tag_23\n      jump\t// in\n    tag_22:\n      0x00\n      mload(0x40)\n      dup1\n      dup4\n      sub\n      dup2\n      dup6\n      dup8\n      gas\n      call\n      swap3\n      pop\n      pop\n      pop\n      returndatasize\n      dup1\n      0x00\n      dup2\n      eq\n      tag_26\n      jumpi\n      mload(0x40)\n      swap2\n      pop\n      and(add(returndatasize, 0x3f), not(0x1f))\n      dup3\n      add\n      0x40\n      mstore\n      returndatasize\n      dup3\n      mstore\n      returndatasize\n      0x00\n      0x20\n      dup5\n      add\n      returndatacopy\n      jump(tag_25)\n    tag_26:\n      0x60\n      swap2\n      pop\n    tag_25:\n      pop\n        /* \"contracts/Transfers.sol\":551:610  (bool sent, bytes memory data) = to.call{value: amount}(\"\") */\n      swap2\n      pop\n      swap2\n      pop\n        /* \"contracts/Transfers.sol\":620:622  to */\n      dup4\n        /* \"contracts/Transfers.sol\":620:631  to.transfer */\n      0xffffffffffffffffffffffffffffffffffffffff\n      and\n        /* \"contracts/Transfers.sol\":620:639  to.transfer(amount) */\n      0x08fc\n        /* \"contracts/Transfers.sol\":632:638  amount */\n      dup5\n        /* \"contracts/Transfers.sol\":620:639  to.transfer(amount) */\n      swap1\n      dup2\n      iszero\n      mul\n      swap1\n      mload(0x40)\n      0x00\n      mload(0x40)\n      dup1\n      dup4\n      sub\n      dup2\n      dup6\n      dup9\n      dup9\n      call\n      swap4\n      pop\n      pop\n      pop\n      pop\n      iszero\n      dup1\n      iszero\n      tag_28\n      jumpi\n      returndatasize\n      0x00\n      dup1\n      returndatacopy\n      revert(0x00, returndatasize)\n    tag_28:\n      pop\n        /* \"contracts/Transfers.sol\":673:679  amount */\n      dup3\n        /* \"contracts/Transfers.sol\":649:657  balances */\n      0x00\n        /* \"contracts/Transfers.sol\":649:669  balances[msg.sender] */\n      dup1\n        /* \"contracts/Transfers.sol\":658:668  msg.sender */\n      caller\n        /* \"contracts/Transfers.sol\":649:669  balances[msg.sender] */\n      0xffffffffffffffffffffffffffffffffffffffff\n      and\n      0xffffffffffffffffffffffffffffffffffffffff\n      and\n      dup2\n      mstore\n      0x20\n      add\n      swap1\n      dup2\n      mstore\n      0x20\n      add\n      0x00\n      keccak256\n      0x00\n        /* \"contracts/Transfers.sol\":649:679  balances[msg.sender] -= amount */\n      dup3\n      dup3\n      sload\n      tag_29\n      swap2\n      swap1\n      tag_30\n      jump\t// in\n    tag_29:\n      swap3\n      pop\n      pop\n      dup2\n      swap1\n      sstore\n      pop\n        /* \"contracts/Transfers.sol\":394:686  {... */\n      pop\n      pop\n        /* \"contracts/Transfers.sol\":334:686  function withdraw(address payable to, uint amount) external {... */\n      pop\n      pop\n      jump\t// out\n        /* \"#utility.yul\":7:162   */\n    tag_32:\n        /* \"#utility.yul\":61:66   */\n      0x00\n        /* \"#utility.yul\":99:105   */\n      dup2\n        /* \"#utility.yul\":86:106   */\n      calldataload\n        /* \"#utility.yul\":77:106   */\n      swap1\n      pop\n        /* \"#utility.yul\":115:156   */\n      tag_34\n        /* \"#utility.yul\":150:155   */\n      dup2\n        /* \"#utility.yul\":115:156   */\n      tag_35\n      jump\t// in\n    tag_34:\n        /* \"#utility.yul\":7:162   */\n      swap3\n      swap2\n      pop\n      pop\n      jump\t// out\n        /* \"#utility.yul\":168:307   */\n    tag_36:\n        /* \"#utility.yul\":214:219   */\n      0x00\n        /* \"#utility.yul\":252:258   */\n      dup2\n        /* \"#utility.yul\":239:259   */\n      calldataload\n        /* \"#utility.yul\":230:259   */\n      swap1\n      pop\n        /* \"#utility.yul\":268:301   */\n      tag_38\n        /* \"#utility.yul\":295:300   */\n      dup2\n        /* \"#utility.yul\":268:301   */\n      tag_39\n      jump\t// in\n    tag_38:\n        /* \"#utility.yul\":168:307   */\n      swap3\n      swap2\n      pop\n      pop\n      jump\t// out\n        /* \"#utility.yul\":313:803   */\n    tag_15:\n        /* \"#utility.yul\":389:395   */\n      0x00\n        /* \"#utility.yul\":397:403   */\n      dup1\n        /* \"#utility.yul\":446:448   */\n      0x40\n        /* \"#utility.yul\":434:443   */\n      dup4\n        /* \"#utility.yul\":425:432   */\n      dup6\n        /* \"#utility.yul\":421:444   */\n      sub\n        /* \"#utility.yul\":417:449   */\n      slt\n        /* \"#utility.yul\":414:533   */\n      iszero\n      tag_41\n      jumpi\n        /* \"#utility.yul\":452:531   */\n      tag_42\n      tag_43\n      jump\t// in\n    tag_42:\n        /* \"#utility.yul\":414:533   */\n    tag_41:\n        /* \"#utility.yul\":572:573   */\n      0x00\n        /* \"#utility.yul\":597:658   */\n      tag_44\n        /* \"#utility.yul\":650:657   */\n      dup6\n        /* \"#utility.yul\":641:647   */\n      dup3\n        /* \"#utility.yul\":630:639   */\n      dup7\n        /* \"#utility.yul\":626:648   */\n      add\n        /* \"#utility.yul\":597:658   */\n      tag_32\n      jump\t// in\n    tag_44:\n        /* \"#utility.yul\":587:658   */\n      swap3\n      pop\n        /* \"#utility.yul\":543:668   */\n      pop\n        /* \"#utility.yul\":707:709   */\n      0x20\n        /* \"#utility.yul\":733:786   */\n      tag_45\n        /* \"#utility.yul\":778:785   */\n      dup6\n        /* \"#utility.yul\":769:775   */\n      dup3\n        /* \"#utility.yul\":758:767   */\n      dup7\n        /* \"#utility.yul\":754:776   */\n      add\n        /* \"#utility.yul\":733:786   */\n      tag_36\n      jump\t// in\n    tag_45:\n        /* \"#utility.yul\":723:786   */\n      swap2\n      pop\n        /* \"#utility.yul\":678:796   */\n      pop\n        /* \"#utility.yul\":313:803   */\n      swap3\n      pop\n      swap3\n      swap1\n      pop\n      jump\t// out\n        /* \"#utility.yul\":809:1207   */\n    tag_46:\n        /* \"#utility.yul\":968:971   */\n      0x00\n        /* \"#utility.yul\":989:1072   */\n      tag_48\n        /* \"#utility.yul\":1070:1071   */\n      0x00\n        /* \"#utility.yul\":1065:1068   */\n      dup4\n        /* \"#utility.yul\":989:1072   */\n      tag_49\n      jump\t// in\n    tag_48:\n        /* \"#utility.yul\":982:1072   */\n      swap2\n      pop\n        /* \"#utility.yul\":1081:1174   */\n      tag_50\n        /* \"#utility.yul\":1170:1173   */\n      dup3\n        /* \"#utility.yul\":1081:1174   */\n      tag_51\n      jump\t// in\n    tag_50:\n        /* \"#utility.yul\":1199:1200   */\n      0x00\n        /* \"#utility.yul\":1194:1197   */\n      dup3\n        /* \"#utility.yul\":1190:1201   */\n      add\n        /* \"#utility.yul\":1183:1201   */\n      swap1\n      pop\n        /* \"#utility.yul\":809:1207   */\n      swap2\n      swap1\n      pop\n      jump\t// out\n        /* \"#utility.yul\":1213:1331   */\n    tag_52:\n        /* \"#utility.yul\":1300:1324   */\n      tag_54\n        /* \"#utility.yul\":1318:1323   */\n      dup2\n        /* \"#utility.yul\":1300:1324   */\n      tag_55\n      jump\t// in\n    tag_54:\n        /* \"#utility.yul\":1295:1298   */\n      dup3\n        /* \"#utility.yul\":1288:1325   */\n      mstore\n        /* \"#utility.yul\":1213:1331   */\n      pop\n      pop\n      jump\t// out\n        /* \"#utility.yul\":1337:1716   */\n    tag_23:\n        /* \"#utility.yul\":1521:1524   */\n      0x00\n        /* \"#utility.yul\":1543:1690   */\n      tag_57\n        /* \"#utility.yul\":1686:1689   */\n      dup3\n        /* \"#utility.yul\":1543:1690   */\n      tag_46\n      jump\t// in\n    tag_57:\n        /* \"#utility.yul\":1536:1690   */\n      swap2\n      pop\n        /* \"#utility.yul\":1707:1710   */\n      dup2\n        /* \"#utility.yul\":1700:1710   */\n      swap1\n      pop\n        /* \"#utility.yul\":1337:1716   */\n      swap2\n      swap1\n      pop\n      jump\t// out\n        /* \"#utility.yul\":1722:1944   */\n    tag_11:\n        /* \"#utility.yul\":1815:1819   */\n      0x00\n        /* \"#utility.yul\":1853:1855   */\n      0x20\n        /* \"#utility.yul\":1842:1851   */\n      dup3\n        /* \"#utility.yul\":1838:1856   */\n      add\n        /* \"#utility.yul\":1830:1856   */\n      swap1\n      pop\n        /* \"#utility.yul\":1866:1937   */\n      tag_59\n        /* \"#utility.yul\":1934:1935   */\n      0x00\n        /* \"#utility.yul\":1923:1932   */\n      dup4\n        /* \"#utility.yul\":1919:1936   */\n      add\n        /* \"#utility.yul\":1910:1916   */\n      dup5\n        /* \"#utility.yul\":1866:1937   */\n      tag_52\n      jump\t// in\n    tag_59:\n        /* \"#utility.yul\":1722:1944   */\n      swap3\n      swap2\n      pop\n      pop\n      jump\t// out\n        /* \"#utility.yul\":2031:2178   */\n    tag_49:\n        /* \"#utility.yul\":2132:2143   */\n      0x00\n        /* \"#utility.yul\":2169:2172   */\n      dup2\n        /* \"#utility.yul\":2154:2172   */\n      swap1\n      pop\n        /* \"#utility.yul\":2031:2178   */\n      swap3\n      swap2\n      pop\n      pop\n      jump\t// out\n        /* \"#utility.yul\":2184:2489   */\n    tag_19:\n        /* \"#utility.yul\":2224:2227   */\n      0x00\n        /* \"#utility.yul\":2243:2263   */\n      tag_64\n        /* \"#utility.yul\":2261:2262   */\n      dup3\n        /* \"#utility.yul\":2243:2263   */\n      tag_55\n      jump\t// in\n    tag_64:\n        /* \"#utility.yul\":2238:2263   */\n      swap2\n      pop\n        /* \"#utility.yul\":2277:2297   */\n      tag_65\n        /* \"#utility.yul\":2295:2296   */\n      dup4\n        /* \"#utility.yul\":2277:2297   */\n      tag_55\n      jump\t// in\n    tag_65:\n        /* \"#utility.yul\":2272:2297   */\n      swap3\n      pop\n        /* \"#utility.yul\":2431:2432   */\n      dup3\n        /* \"#utility.yul\":2363:2429   */\n      0xffffffffffffffffffffffffffffffffffffffffffffffffffffffffffffffff\n        /* \"#utility.yul\":2359:2433   */\n      sub\n        /* \"#utility.yul\":2356:2357   */\n      dup3\n        /* \"#utility.yul\":2353:2434   */\n      gt\n        /* \"#utility.yul\":2350:2457   */\n      iszero\n      tag_66\n      jumpi\n        /* \"#utility.yul\":2437:2455   */\n      tag_67\n      tag_68\n      jump\t// in\n    tag_67:\n        /* \"#utility.yul\":2350:2457   */\n    tag_66:\n        /* \"#utility.yul\":2481:2482   */\n      dup3\n        /* \"#utility.yul\":2478:2479   */\n      dup3\n        /* \"#utility.yul\":2474:2483   */\n      add\n        /* \"#utility.yul\":2467:2483   */\n      swap1\n      pop\n        /* \"#utility.yul\":2184:2489   */\n      swap3\n      swap2\n      pop\n      pop\n      jump\t// out\n        /* \"#utility.yul\":2495:2686   */\n    tag_30:\n        /* \"#utility.yul\":2535:2539   */\n      0x00\n        /* \"#utility.yul\":2555:2575   */\n      tag_70\n        /* \"#utility.yul\":2573:2574   */\n      dup3\n        /* \"#utility.yul\":2555:2575   */\n      tag_55\n      jump\t// in\n    tag_70:\n        /* \"#utility.yul\":2550:2575   */\n      swap2\n      pop\n        /* \"#utility.yul\":2589:2609   */\n      tag_71\n        /* \"#utility.yul\":2607:2608   */\n      dup4\n        /* \"#utility.yul\":2589:2609   */\n      tag_55\n      jump\t// in\n    tag_71:\n        /* \"#utility.yul\":2584:2609   */\n      swap3\n      pop\n        /* \"#utility.yul\":2628:2629   */\n      dup3\n        /* \"#utility.yul\":2625:2626   */\n      dup3\n        /* \"#utility.yul\":2622:2630   */\n      lt\n        /* \"#utility.yul\":2619:2653   */\n      iszero\n      tag_72\n      jumpi\n        /* \"#utility.yul\":2633:2651   */\n      tag_73\n      tag_68\n      jump\t// in\n    tag_73:\n        /* \"#utility.yul\":2619:2653   */\n    tag_72:\n        /* \"#utility.yul\":2678:2679   */\n      dup3\n        /* \"#utility.yul\":2675:2676   */\n      dup3\n        /* \"#utility.yul\":2671:2680   */\n      sub\n        /* \"#utility.yul\":2663:2680   */\n      swap1\n      pop\n        /* \"#utility.yul\":2495:2686   */\n      swap3\n      swap2\n      pop\n      pop\n      jump\t// out\n        /* \"#utility.yul\":2692:2796   */\n    tag_74:\n        /* \"#utility.yul\":2737:2744   */\n      0x00\n        /* \"#utility.yul\":2766:2790   */\n      tag_76\n        /* \"#utility.yul\":2784:2789   */\n      dup3\n        /* \"#utility.yul\":2766:2790   */\n      tag_77\n      jump\t// in\n    tag_76:\n        /* \"#utility.yul\":2755:2790   */\n      swap1\n      pop\n        /* \"#utility.yul\":2692:2796   */\n      swap2\n      swap1\n      pop\n      jump\t// out\n        /* \"#utility.yul\":2802:2928   */\n    tag_77:\n        /* \"#utility.yul\":2839:2846   */\n      0x00\n        /* \"#utility.yul\":2879:2921   */\n      0xffffffffffffffffffffffffffffffffffffffff\n        /* \"#utility.yul\":2872:2877   */\n      dup3\n        /* \"#utility.yul\":2868:2922   */\n      and\n        /* \"#utility.yul\":2857:2922   */\n      swap1\n      pop\n        /* \"#utility.yul\":2802:2928   */\n      swap2\n      swap1\n      pop\n      jump\t// out\n        /* \"#utility.yul\":2934:3011   */\n    tag_55:\n        /* \"#utility.yul\":2971:2978   */\n      0x00\n        /* \"#utility.yul\":3000:3005   */\n      dup2\n        /* \"#utility.yul\":2989:3005   */\n      swap1\n      pop\n        /* \"#utility.yul\":2934:3011   */\n      swap2\n      swap1\n      pop\n      jump\t// out\n        /* \"#utility.yul\":3017:3197   */\n    tag_68:\n        /* \"#utility.yul\":3065:3142   */\n      0x4e487b7100000000000000000000000000000000000000000000000000000000\n        /* \"#utility.yul\":3062:3063   */\n      0x00\n        /* \"#utility.yul\":3055:3143   */\n      mstore\n        /* \"#utility.yul\":3162:3166   */\n      0x11\n        /* \"#utility.yul\":3159:3160   */\n      0x04\n        /* \"#utility.yul\":3152:3167   */\n      mstore\n        /* \"#utility.yul\":3186:3190   */\n      0x24\n        /* \"#utility.yul\":3183:3184   */\n      0x00\n        /* \"#utility.yul\":3176:3191   */\n      revert\n        /* \"#utility.yul\":3326:3443   */\n    tag_43:\n        /* \"#utility.yul\":3435:3436   */\n      0x00\n        /* \"#utility.yul\":3432:3433   */\n      dup1\n        /* \"#utility.yul\":3425:3437   */\n      revert\n        /* \"#utility.yul\":3449:3563   */\n    tag_51:\n      pop\n      jump\t// out\n        /* \"#utility.yul\":3569:3707   */\n    tag_35:\n        /* \"#utility.yul\":3650:3682   */\n      tag_86\n        /* \"#utility.yul\":3676:3681   */\n      dup2\n        /* \"#utility.yul\":3650:3682   */\n      tag_74\n      jump\t// in\n    tag_86:\n        /* \"#utility.yul\":3643:3648   */\n      dup2\n        /* \"#utility.yul\":3640:3683   */\n      eq\n        /* \"#utility.yul\":3630:3701   */\n      tag_87\n      jumpi\n        /* \"#utility.yul\":3697:3698   */\n      0x00\n        /* \"#utility.yul\":3694:3695   */\n      dup1\n        /* \"#utility.yul\":3687:3699   */\n      revert\n        /* \"#utility.yul\":3630:3701   */\n    tag_87:\n        /* \"#utility.yul\":3569:3707   */\n      pop\n      jump\t// out\n        /* \"#utility.yul\":3713:3835   */\n    tag_39:\n        /* \"#utility.yul\":3786:3810   */\n      tag_89\n        /* \"#utility.yul\":3804:3809   */\n      dup2\n        /* \"#utility.yul\":3786:3810   */\n      tag_55\n      jump\t// in\n    tag_89:\n        /* \"#utility.yul\":3779:3784   */\n      dup2\n        /* \"#utility.yul\":3776:3811   */\n      eq\n        /* \"#utility.yul\":3766:3829   */\n      tag_90\n      jumpi\n        /* \"#utility.yul\":3825:3826   */\n      0x00\n        /* \"#utility.yul\":3822:3823   */\n      dup1\n        /* \"#utility.yul\":3815:3827   */\n      revert\n        /* \"#utility.yul\":3766:3829   */\n    tag_90:\n        /* \"#utility.yul\":3713:3835   */\n      pop\n      jump\t// out\n\n    auxdata: 0xa26469706673582212200c084aa29735baf4400dc4e53a76e4fc8d5757e9f82653c5e1b49424fcb076da64736f6c63430008070033\n}\n",
				"bytecode": {
					"linkReferences": {},
					"object": "608060405234801561001057600080fd5b5061047c806100206000396000f3fe6080604052600436106100345760003560e01c8063325ec7681461003957806381b2d07b14610043578063f3fef3a31461006e575b600080fd5b610041610097565b005b34801561004f57600080fd5b506100586100ee565b60405161006591906102f5565b60405180910390f35b34801561007a57600080fd5b506100956004803603810190610090919061026e565b610134565b005b346000803373ffffffffffffffffffffffffffffffffffffffff1673ffffffffffffffffffffffffffffffffffffffff16815260200190815260200160002060008282546100e5919061031b565b92505081905550565b60008060003373ffffffffffffffffffffffffffffffffffffffff1673ffffffffffffffffffffffffffffffffffffffff16815260200190815260200160002054905090565b6000808373ffffffffffffffffffffffffffffffffffffffff168360405161015b906102e0565b60006040518083038185875af1925050503d8060008114610198576040519150601f19603f3d011682016040523d82523d6000602084013e61019d565b606091505b50915091508373ffffffffffffffffffffffffffffffffffffffff166108fc849081150290604051600060405180830381858888f193505050501580156101e8573d6000803e3d6000fd5b50826000803373ffffffffffffffffffffffffffffffffffffffff1673ffffffffffffffffffffffffffffffffffffffff16815260200190815260200160002060008282546102379190610371565b9250508190555050505050565b60008135905061025381610418565b92915050565b6000813590506102688161042f565b92915050565b6000806040838503121561028557610284610410565b5b600061029385828601610244565b92505060206102a485828601610259565b9150509250929050565b60006102bb600083610310565b91506102c682610415565b600082019050919050565b6102da816103d7565b82525050565b60006102eb826102ae565b9150819050919050565b600060208201905061030a60008301846102d1565b92915050565b600081905092915050565b6000610326826103d7565b9150610331836103d7565b9250827fffffffffffffffffffffffffffffffffffffffffffffffffffffffffffffffff03821115610366576103656103e1565b5b828201905092915050565b600061037c826103d7565b9150610387836103d7565b92508282101561039a576103996103e1565b5b828203905092915050565b60006103b0826103b7565b9050919050565b600073ffffffffffffffffffffffffffffffffffffffff82169050919050565b6000819050919050565b7f4e487b7100000000000000000000000000000000000000000000000000000000600052601160045260246000fd5b600080fd5b50565b610421816103a5565b811461042c57600080fd5b50565b610438816103d7565b811461044357600080fd5b5056fea26469706673582212200c084aa29735baf4400dc4e53a76e4fc8d5757e9f82653c5e1b49424fcb076da64736f6c63430008070033",
					"opcodes": "PUSH1 0x80 PUSH1 0x40 MSTORE CALLVALUE DUP1 ISZERO PUSH2 0x10 JUMPI PUSH1 0x0 DUP1 REVERT JUMPDEST POP PUSH2 0x47C DUP1 PUSH2 0x20 PUSH1 0x0 CODECOPY PUSH1 0x0 RETURN INVALID PUSH1 0x80 PUSH1 0x40 MSTORE PUSH1 0x4 CALLDATASIZE LT PUSH2 0x34 JUMPI PUSH1 0x0 CALLDATALOAD PUSH1 0xE0 SHR DUP1 PUSH4 0x325EC768 EQ PUSH2 0x39 JUMPI DUP1 PUSH4 0x81B2D07B EQ PUSH2 0x43 JUMPI DUP1 PUSH4 0xF3FEF3A3 EQ PUSH2 0x6E JUMPI JUMPDEST PUSH1 0x0 DUP1 REVERT JUMPDEST PUSH2 0x41 PUSH2 0x97 JUMP JUMPDEST STOP JUMPDEST CALLVALUE DUP1 ISZERO PUSH2 0x4F JUMPI PUSH1 0x0 DUP1 REVERT JUMPDEST POP PUSH2 0x58 PUSH2 0xEE JUMP JUMPDEST PUSH1 0x40 MLOAD PUSH2 0x65 SWAP2 SWAP1 PUSH2 0x2F5 JUMP JUMPDEST PUSH1 0x40 MLOAD DUP1 SWAP2 SUB SWAP1 RETURN JUMPDEST CALLVALUE DUP1 ISZERO PUSH2 0x7A JUMPI PUSH1 0x0 DUP1 REVERT JUMPDEST POP PUSH2 0x95 PUSH1 0x4 DUP1 CALLDATASIZE SUB DUP2 ADD SWAP1 PUSH2 0x90 SWAP2 SWAP1 PUSH2 0x26E JUMP JUMPDEST PUSH2 0x134 JUMP JUMPDEST STOP JUMPDEST CALLVALUE PUSH1 0x0 DUP1 CALLER PUSH20 0xFFFFFFFFFFFFFFFFFFFFFFFFFFFFFFFFFFFFFFFF AND PUSH20 0xFFFFFFFFFFFFFFFFFFFFFFFFFFFFFFFFFFFFFFFF AND DUP2 MSTORE PUSH1 0x20 ADD SWAP1 DUP2 MSTORE PUSH1 0x20 ADD PUSH1 0x0 KECCAK256 PUSH1 0x0 DUP3 DUP3 SLOAD PUSH2 0xE5 SWAP2 SWAP1 PUSH2 0x31B JUMP JUMPDEST SWAP3 POP POP DUP2 SWAP1 SSTORE POP JUMP JUMPDEST PUSH1 0x0 DUP1 PUSH1 0x0 CALLER PUSH20 0xFFFFFFFFFFFFFFFFFFFFFFFFFFFFFFFFFFFFFFFF AND PUSH20 0xFFFFFFFFFFFFFFFFFFFFFFFFFFFFFFFFFFFFFFFF AND DUP2 MSTORE PUSH1 0x20 ADD SWAP1 DUP2 MSTORE PUSH1 0x20 ADD PUSH1 0x0 KECCAK256 SLOAD SWAP1 POP SWAP1 JUMP JUMPDEST PUSH1 0x0 DUP1 DUP4 PUSH20 0xFFFFFFFFFFFFFFFFFFFFFFFFFFFFFFFFFFFFFFFF AND DUP4 PUSH1 0x40 MLOAD PUSH2 0x15B SWAP1 PUSH2 0x2E0 JUMP JUMPDEST PUSH1 0x0 PUSH1 0x40 MLOAD DUP1 DUP4 SUB DUP2 DUP6 DUP8 GAS CALL SWAP3 POP POP POP RETURNDATASIZE DUP1 PUSH1 0x0 DUP2 EQ PUSH2 0x198 JUMPI PUSH1 0x40 MLOAD SWAP2 POP PUSH1 0x1F NOT PUSH1 0x3F RETURNDATASIZE ADD AND DUP3 ADD PUSH1 0x40 MSTORE RETURNDATASIZE DUP3 MSTORE RETURNDATASIZE PUSH1 0x0 PUSH1 0x20 DUP5 ADD RETURNDATACOPY PUSH2 0x19D JUMP JUMPDEST PUSH1 0x60 SWAP2 POP JUMPDEST POP SWAP2 POP SWAP2 POP DUP4 PUSH20 0xFFFFFFFFFFFFFFFFFFFFFFFFFFFFFFFFFFFFFFFF AND PUSH2 0x8FC DUP5 SWAP1 DUP2 ISZERO MUL SWAP1 PUSH1 0x40 MLOAD PUSH1 0x0 PUSH1 0x40 MLOAD DUP1 DUP4 SUB DUP2 DUP6 DUP9 DUP9 CALL SWAP4 POP POP POP POP ISZERO DUP1 ISZERO PUSH2 0x1E8 JUMPI RETURNDATASIZE PUSH1 0x0 DUP1 RETURNDATACOPY RETURNDATASIZE PUSH1 0x0 REVERT JUMPDEST POP DUP3 PUSH1 0x0 DUP1 CALLER PUSH20 0xFFFFFFFFFFFFFFFFFFFFFFFFFFFFFFFFFFFFFFFF AND PUSH20 0xFFFFFFFFFFFFFFFFFFFFFFFFFFFFFFFFFFFFFFFF AND DUP2 MSTORE PUSH1 0x20 ADD SWAP1 DUP2 MSTORE PUSH1 0x20 ADD PUSH1 0x0 KECCAK256 PUSH1 0x0 DUP3 DUP3 SLOAD PUSH2 0x237 SWAP2 SWAP1 PUSH2 0x371 JUMP JUMPDEST SWAP3 POP POP DUP2 SWAP1 SSTORE POP POP POP POP POP JUMP JUMPDEST PUSH1 0x0 DUP2 CALLDATALOAD SWAP1 POP PUSH2 0x253 DUP2 PUSH2 0x418 JUMP JUMPDEST SWAP3 SWAP2 POP POP JUMP JUMPDEST PUSH1 0x0 DUP2 CALLDATALOAD SWAP1 POP PUSH2 0x268 DUP2 PUSH2 0x42F JUMP JUMPDEST SWAP3 SWAP2 POP POP JUMP JUMPDEST PUSH1 0x0 DUP1 PUSH1 0x40 DUP4 DUP6 SUB SLT ISZERO PUSH2 0x285 JUMPI PUSH2 0x284 PUSH2 0x410 JUMP JUMPDEST JUMPDEST PUSH1 0x0 PUSH2 0x293 DUP6 DUP3 DUP7 ADD PUSH2 0x244 JUMP JUMPDEST SWAP3 POP POP PUSH1 0x20 PUSH2 0x2A4 DUP6 DUP3 DUP7 ADD PUSH2 0x259 JUMP JUMPDEST SWAP2 POP POP SWAP3 POP SWAP3 SWAP1 POP JUMP JUMPDEST PUSH1 0x0 PUSH2 0x2BB PUSH1 0x0 DUP4 PUSH2 0x310 JUMP JUMPDEST SWAP2 POP PUSH2 0x2C6 DUP3 PUSH2 0x415 JUMP JUMPDEST PUSH1 0x0 DUP3 ADD SWAP1 POP SWAP2 SWAP1 POP JUMP JUMPDEST PUSH2 0x2DA DUP2 PUSH2 0x3D7 JUMP JUMPDEST DUP3 MSTORE POP POP JUMP JUMPDEST PUSH1 0x0 PUSH2 0x2EB DUP3 PUSH2 0x2AE JUMP JUMPDEST SWAP2 POP DUP2 SWAP1 POP SWAP2 SWAP1 POP JUMP JUMPDEST PUSH1 0x0 PUSH1 0x20 DUP3 ADD SWAP1 POP PUSH2 0x30A PUSH1 0x0 DUP4 ADD DUP5 PUSH2 0x2D1 JUMP JUMPDEST SWAP3 SWAP2 POP POP JUMP JUMPDEST PUSH1 0x0 DUP2 SWAP1 POP SWAP3 SWAP2 POP POP JUMP JUMPDEST PUSH1 0x0 PUSH2 0x326 DUP3 PUSH2 0x3D7 JUMP JUMPDEST SWAP2 POP PUSH2 0x331 DUP4 PUSH2 0x3D7 JUMP JUMPDEST SWAP3 POP DUP3 PUSH32 0xFFFFFFFFFFFFFFFFFFFFFFFFFFFFFFFFFFFFFFFFFFFFFFFFFFFFFFFFFFFFFFFF SUB DUP3 GT ISZERO PUSH2 0x366 JUMPI PUSH2 0x365 PUSH2 0x3E1 JUMP JUMPDEST JUMPDEST DUP3 DUP3 ADD SWAP1 POP SWAP3 SWAP2 POP POP JUMP JUMPDEST PUSH1 0x0 PUSH2 0x37C DUP3 PUSH2 0x3D7 JUMP JUMPDEST SWAP2 POP PUSH2 0x387 DUP4 PUSH2 0x3D7 JUMP JUMPDEST SWAP3 POP DUP3 DUP3 LT ISZERO PUSH2 0x39A JUMPI PUSH2 0x399 PUSH2 0x3E1 JUMP JUMPDEST JUMPDEST DUP3 DUP3 SUB SWAP1 POP SWAP3 SWAP2 POP POP JUMP JUMPDEST PUSH1 0x0 PUSH2 0x3B0 DUP3 PUSH2 0x3B7 JUMP JUMPDEST SWAP1 POP SWAP2 SWAP1 POP JUMP JUMPDEST PUSH1 0x0 PUSH20 0xFFFFFFFFFFFFFFFFFFFFFFFFFFFFFFFFFFFFFFFF DUP3 AND SWAP1 POP SWAP2 SWAP1 POP JUMP JUMPDEST PUSH1 0x0 DUP2 SWAP1 POP SWAP2 SWAP1 POP JUMP JUMPDEST PUSH32 0x4E487B7100000000000000000000000000000000000000000000000000000000 PUSH1 0x0 MSTORE PUSH1 0x11 PUSH1 0x4 MSTORE PUSH1 0x24 PUSH1 0x0 REVERT JUMPDEST PUSH1 0x0 DUP1 REVERT JUMPDEST POP JUMP JUMPDEST PUSH2 0x421 DUP2 PUSH2 0x3A5 JUMP JUMPDEST DUP2 EQ PUSH2 0x42C JUMPI PUSH1 0x0 DUP1 REVERT JUMPDEST POP JUMP JUMPDEST PUSH2 0x438 DUP2 PUSH2 0x3D7 JUMP JUMPDEST DUP2 EQ PUSH2 0x443 JUMPI PUSH1 0x0 DUP1 REVERT JUMPDEST POP JUMP INVALID LOG2 PUSH5 0x6970667358 0x22 SLT KECCAK256 0xC ADDMOD 0x4A LOG2 SWAP8 CALLDATALOAD 0xBA DELEGATECALL BLOCKHASH 0xD 0xC4 0xE5 GASPRICE PUSH23 0xE4FC8D5757E9F82653C5E1B49424FCB076DA64736F6C63 NUMBER STOP ADDMOD SMOD STOP CALLER "
				},
				"gasEstimates": {
					"creation": {
						"codeDepositCost": "229600",
						"executionCost": "269",
						"totalCost": "229869"
					},
					"external": {
						"sendEtherToContract()": "infinite",
						"showBalance()": "2526",
						"withdraw(address,uint256)": "infinite"
					}
				},
				"methodIdentifiers": {
					"sendEtherToContract()": "325ec768",
					"showBalance()": "81b2d07b",
					"withdraw(address,uint256)": "f3fef3a3"
				}
			},
			"storageLayout": {
				"storage": [
					{
						"astId": 5,
						"contract": "contracts/Transfers.sol:Bank",
						"label": "balances",
						"offset": 0,
						"slot": "0",
						"type": "t_mapping(t_address,t_uint256)"
					}
				],
				"types": {
					"t_address": {
						"encoding": "inplace",
						"label": "address",
						"numberOfBytes": "20"
					},
					"t_mapping(t_address,t_uint256)": {
						"encoding": "mapping",
						"key": "t_address",
						"label": "mapping(address => uint256)",
						"numberOfBytes": "32",
						"value": "t_uint256"
					},
					"t_uint256": {
						"encoding": "inplace",
						"label": "uint256",
						"numberOfBytes": "32"
					}
				}
			},
			"userdoc": {
				"kind": "user",
				"methods": {},
				"version": 1
			}
		}
	}
}