{
	"data": {
		"bytecode": {
			"linkReferences": {},
			"object": "608060405234801561001057600080fd5b50610567806100206000396000f3fe608060405234801561001057600080fd5b50600436106100625760003560e01c80635cc5fb071461006757806362b44ce1146100715780637778f72c146100a1578063a168614d146100ab578063c84c7205146100c9578063fb8cbced146100f9575b600080fd5b61006f610117565b005b61008b60048036038101906100869190610346565b610153565b604051610098919061041c565b60405180910390f35b6100a961016e565b005b6100b3610201565b6040516100c09190610400565b60405180910390f35b6100e360048036038101906100de9190610346565b61024b565b6040516100f0919061041c565b60405180910390f35b610101610266565b60405161010e9190610400565b60405180910390f35b60005b600f8110156101505780600f82600f8110610138576101376104e6565b5b018190555080806101489061046e565b91505061011a565b50565b600f81600f811061016357600080fd5b016000915090505481565b600080600f806020026040519081016040528092919082600f80156101a8576020028201915b815481526020019060010190808311610194575b5050505050905060005b600f8110156101eb57808282600f81106101cf576101ce6104e6565b5b60200201818152505080806101e39061046e565b9150506101b2565b5080600090600f6101fd9291906102b1565b5050565b6102096102f1565b600f80806020026040519081016040528092919082600f8015610241576020028201915b81548152602001906001019080831161022d575b5050505050905090565b600081600f811061025b57600080fd5b016000915090505481565b61026e6102f1565b6000600f806020026040519081016040528092919082600f80156102a7576020028201915b815481526020019060010190808311610293575b5050505050905090565b82600f81019282156102e0579160200282015b828111156102df5782518255916020019190600101906102c4565b5b5090506102ed9190610314565b5090565b604051806101e00160405280600f90602082028036833780820191505090505090565b5b8082111561032d576000816000905550600101610315565b5090565b6000813590506103408161051a565b92915050565b60006020828403121561035c5761035b610515565b5b600061036a84828501610331565b91505092915050565b600061037f83836103e2565b60208301905092915050565b61039481610441565b61039e8184610459565b92506103a982610437565b8060005b838110156103da5781516103c18782610373565b96506103cc8361044c565b9250506001810190506103ad565b505050505050565b6103eb81610464565b82525050565b6103fa81610464565b82525050565b60006101e082019050610416600083018461038b565b92915050565b600060208201905061043160008301846103f1565b92915050565b6000819050919050565b6000600f9050919050565b6000602082019050919050565b600081905092915050565b6000819050919050565b600061047982610464565b91507fffffffffffffffffffffffffffffffffffffffffffffffffffffffffffffffff8214156104ac576104ab6104b7565b5b600182019050919050565b7f4e487b7100000000000000000000000000000000000000000000000000000000600052601160045260246000fd5b7f4e487b7100000000000000000000000000000000000000000000000000000000600052603260045260246000fd5b600080fd5b61052381610464565b811461052e57600080fd5b5056fea264697066735822122063f1cc4961d67ca6a55b47f88c7b7a1ba55da2ac3e99232b86872210904534b364736f6c63430008070033",
			"opcodes": "PUSH1 0x80 PUSH1 0x40 MSTORE CALLVALUE DUP1 ISZERO PUSH2 0x10 JUMPI PUSH1 0x0 DUP1 REVERT JUMPDEST POP PUSH2 0x567 DUP1 PUSH2 0x20 PUSH1 0x0 CODECOPY PUSH1 0x0 RETURN INVALID PUSH1 0x80 PUSH1 0x40 MSTORE CALLVALUE DUP1 ISZERO PUSH2 0x10 JUMPI PUSH1 0x0 DUP1 REVERT JUMPDEST POP PUSH1 0x4 CALLDATASIZE LT PUSH2 0x62 JUMPI PUSH1 0x0 CALLDATALOAD PUSH1 0xE0 SHR DUP1 PUSH4 0x5CC5FB07 EQ PUSH2 0x67 JUMPI DUP1 PUSH4 0x62B44CE1 EQ PUSH2 0x71 JUMPI DUP1 PUSH4 0x7778F72C EQ PUSH2 0xA1 JUMPI DUP1 PUSH4 0xA168614D EQ PUSH2 0xAB JUMPI DUP1 PUSH4 0xC84C7205 EQ PUSH2 0xC9 JUMPI DUP1 PUSH4 0xFB8CBCED EQ PUSH2 0xF9 JUMPI JUMPDEST PUSH1 0x0 DUP1 REVERT JUMPDEST PUSH2 0x6F PUSH2 0x117 JUMP JUMPDEST STOP JUMPDEST PUSH2 0x8B PUSH1 0x4 DUP1 CALLDATASIZE SUB DUP2 ADD SWAP1 PUSH2 0x86 SWAP2 SWAP1 PUSH2 0x346 JUMP JUMPDEST PUSH2 0x153 JUMP JUMPDEST PUSH1 0x40 MLOAD PUSH2 0x98 SWAP2 SWAP1 PUSH2 0x41C JUMP JUMPDEST PUSH1 0x40 MLOAD DUP1 SWAP2 SUB SWAP1 RETURN JUMPDEST PUSH2 0xA9 PUSH2 0x16E JUMP JUMPDEST STOP JUMPDEST PUSH2 0xB3 PUSH2 0x201 JUMP JUMPDEST PUSH1 0x40 MLOAD PUSH2 0xC0 SWAP2 SWAP1 PUSH2 0x400 JUMP JUMPDEST PUSH1 0x40 MLOAD DUP1 SWAP2 SUB SWAP1 RETURN JUMPDEST PUSH2 0xE3 PUSH1 0x4 DUP1 CALLDATASIZE SUB DUP2 ADD SWAP1 PUSH2 0xDE SWAP2 SWAP1 PUSH2 0x346 JUMP JUMPDEST PUSH2 0x24B JUMP JUMPDEST PUSH1 0x40 MLOAD PUSH2 0xF0 SWAP2 SWAP1 PUSH2 0x41C JUMP JUMPDEST PUSH1 0x40 MLOAD DUP1 SWAP2 SUB SWAP1 RETURN JUMPDEST PUSH2 0x101 PUSH2 0x266 JUMP JUMPDEST PUSH1 0x40 MLOAD PUSH2 0x10E SWAP2 SWAP1 PUSH2 0x400 JUMP JUMPDEST PUSH1 0x40 MLOAD DUP1 SWAP2 SUB SWAP1 RETURN JUMPDEST PUSH1 0x0 JUMPDEST PUSH1 0xF DUP2 LT ISZERO PUSH2 0x150 JUMPI DUP1 PUSH1 0xF DUP3 PUSH1 0xF DUP2 LT PUSH2 0x138 JUMPI PUSH2 0x137 PUSH2 0x4E6 JUMP JUMPDEST JUMPDEST ADD DUP2 SWAP1 SSTORE POP DUP1 DUP1 PUSH2 0x148 SWAP1 PUSH2 0x46E JUMP JUMPDEST SWAP2 POP POP PUSH2 0x11A JUMP JUMPDEST POP JUMP JUMPDEST PUSH1 0xF DUP2 PUSH1 0xF DUP2 LT PUSH2 0x163 JUMPI PUSH1 0x0 DUP1 REVERT JUMPDEST ADD PUSH1 0x0 SWAP2 POP SWAP1 POP SLOAD DUP2 JUMP JUMPDEST PUSH1 0x0 DUP1 PUSH1 0xF DUP1 PUSH1 0x20 MUL PUSH1 0x40 MLOAD SWAP1 DUP2 ADD PUSH1 0x40 MSTORE DUP1 SWAP3 SWAP2 SWAP1 DUP3 PUSH1 0xF DUP1 ISZERO PUSH2 0x1A8 JUMPI PUSH1 0x20 MUL DUP3 ADD SWAP2 JUMPDEST DUP2 SLOAD DUP2 MSTORE PUSH1 0x20 ADD SWAP1 PUSH1 0x1 ADD SWAP1 DUP1 DUP4 GT PUSH2 0x194 JUMPI JUMPDEST POP POP POP POP POP SWAP1 POP PUSH1 0x0 JUMPDEST PUSH1 0xF DUP2 LT ISZERO PUSH2 0x1EB JUMPI DUP1 DUP3 DUP3 PUSH1 0xF DUP2 LT PUSH2 0x1CF JUMPI PUSH2 0x1CE PUSH2 0x4E6 JUMP JUMPDEST JUMPDEST PUSH1 0x20 MUL ADD DUP2 DUP2 MSTORE POP POP DUP1 DUP1 PUSH2 0x1E3 SWAP1 PUSH2 0x46E JUMP JUMPDEST SWAP2 POP POP PUSH2 0x1B2 JUMP JUMPDEST POP DUP1 PUSH1 0x0 SWAP1 PUSH1 0xF PUSH2 0x1FD SWAP3 SWAP2 SWAP1 PUSH2 0x2B1 JUMP JUMPDEST POP POP JUMP JUMPDEST PUSH2 0x209 PUSH2 0x2F1 JUMP JUMPDEST PUSH1 0xF DUP1 DUP1 PUSH1 0x20 MUL PUSH1 0x40 MLOAD SWAP1 DUP2 ADD PUSH1 0x40 MSTORE DUP1 SWAP3 SWAP2 SWAP1 DUP3 PUSH1 0xF DUP1 ISZERO PUSH2 0x241 JUMPI PUSH1 0x20 MUL DUP3 ADD SWAP2 JUMPDEST DUP2 SLOAD DUP2 MSTORE PUSH1 0x20 ADD SWAP1 PUSH1 0x1 ADD SWAP1 DUP1 DUP4 GT PUSH2 0x22D JUMPI JUMPDEST POP POP POP POP POP SWAP1 POP SWAP1 JUMP JUMPDEST PUSH1 0x0 DUP2 PUSH1 0xF DUP2 LT PUSH2 0x25B JUMPI PUSH1 0x0 DUP1 REVERT JUMPDEST ADD PUSH1 0x0 SWAP2 POP SWAP1 POP SLOAD DUP2 JUMP JUMPDEST PUSH2 0x26E PUSH2 0x2F1 JUMP JUMPDEST PUSH1 0x0 PUSH1 0xF DUP1 PUSH1 0x20 MUL PUSH1 0x40 MLOAD SWAP1 DUP2 ADD PUSH1 0x40 MSTORE DUP1 SWAP3 SWAP2 SWAP1 DUP3 PUSH1 0xF DUP1 ISZERO PUSH2 0x2A7 JUMPI PUSH1 0x20 MUL DUP3 ADD SWAP2 JUMPDEST DUP2 SLOAD DUP2 MSTORE PUSH1 0x20 ADD SWAP1 PUSH1 0x1 ADD SWAP1 DUP1 DUP4 GT PUSH2 0x293 JUMPI JUMPDEST POP POP POP POP POP SWAP1 POP SWAP1 JUMP JUMPDEST DUP3 PUSH1 0xF DUP2 ADD SWAP3 DUP3 ISZERO PUSH2 0x2E0 JUMPI SWAP2 PUSH1 0x20 MUL DUP3 ADD JUMPDEST DUP3 DUP2 GT ISZERO PUSH2 0x2DF JUMPI DUP3 MLOAD DUP3 SSTORE SWAP2 PUSH1 0x20 ADD SWAP2 SWAP1 PUSH1 0x1 ADD SWAP1 PUSH2 0x2C4 JUMP JUMPDEST JUMPDEST POP SWAP1 POP PUSH2 0x2ED SWAP2 SWAP1 PUSH2 0x314 JUMP JUMPDEST POP SWAP1 JUMP JUMPDEST PUSH1 0x40 MLOAD DUP1 PUSH2 0x1E0 ADD PUSH1 0x40 MSTORE DUP1 PUSH1 0xF SWAP1 PUSH1 0x20 DUP3 MUL DUP1 CALLDATASIZE DUP4 CALLDATACOPY DUP1 DUP3 ADD SWAP2 POP POP SWAP1 POP POP SWAP1 JUMP JUMPDEST JUMPDEST DUP1 DUP3 GT ISZERO PUSH2 0x32D JUMPI PUSH1 0x0 DUP2 PUSH1 0x0 SWAP1 SSTORE POP PUSH1 0x1 ADD PUSH2 0x315 JUMP JUMPDEST POP SWAP1 JUMP JUMPDEST PUSH1 0x0 DUP2 CALLDATALOAD SWAP1 POP PUSH2 0x340 DUP2 PUSH2 0x51A JUMP JUMPDEST SWAP3 SWAP2 POP POP JUMP JUMPDEST PUSH1 0x0 PUSH1 0x20 DUP3 DUP5 SUB SLT ISZERO PUSH2 0x35C JUMPI PUSH2 0x35B PUSH2 0x515 JUMP JUMPDEST JUMPDEST PUSH1 0x0 PUSH2 0x36A DUP5 DUP3 DUP6 ADD PUSH2 0x331 JUMP JUMPDEST SWAP2 POP POP SWAP3 SWAP2 POP POP JUMP JUMPDEST PUSH1 0x0 PUSH2 0x37F DUP4 DUP4 PUSH2 0x3E2 JUMP JUMPDEST PUSH1 0x20 DUP4 ADD SWAP1 POP SWAP3 SWAP2 POP POP JUMP JUMPDEST PUSH2 0x394 DUP2 PUSH2 0x441 JUMP JUMPDEST PUSH2 0x39E DUP2 DUP5 PUSH2 0x459 JUMP JUMPDEST SWAP3 POP PUSH2 0x3A9 DUP3 PUSH2 0x437 JUMP JUMPDEST DUP1 PUSH1 0x0 JUMPDEST DUP4 DUP2 LT ISZERO PUSH2 0x3DA JUMPI DUP2 MLOAD PUSH2 0x3C1 DUP8 DUP3 PUSH2 0x373 JUMP JUMPDEST SWAP7 POP PUSH2 0x3CC DUP4 PUSH2 0x44C JUMP JUMPDEST SWAP3 POP POP PUSH1 0x1 DUP2 ADD SWAP1 POP PUSH2 0x3AD JUMP JUMPDEST POP POP POP POP POP POP JUMP JUMPDEST PUSH2 0x3EB DUP2 PUSH2 0x464 JUMP JUMPDEST DUP3 MSTORE POP POP JUMP JUMPDEST PUSH2 0x3FA DUP2 PUSH2 0x464 JUMP JUMPDEST DUP3 MSTORE POP POP JUMP JUMPDEST PUSH1 0x0 PUSH2 0x1E0 DUP3 ADD SWAP1 POP PUSH2 0x416 PUSH1 0x0 DUP4 ADD DUP5 PUSH2 0x38B JUMP JUMPDEST SWAP3 SWAP2 POP POP JUMP JUMPDEST PUSH1 0x0 PUSH1 0x20 DUP3 ADD SWAP1 POP PUSH2 0x431 PUSH1 0x0 DUP4 ADD DUP5 PUSH2 0x3F1 JUMP JUMPDEST SWAP3 SWAP2 POP POP JUMP JUMPDEST PUSH1 0x0 DUP2 SWAP1 POP SWAP2 SWAP1 POP JUMP JUMPDEST PUSH1 0x0 PUSH1 0xF SWAP1 POP SWAP2 SWAP1 POP JUMP JUMPDEST PUSH1 0x0 PUSH1 0x20 DUP3 ADD SWAP1 POP SWAP2 SWAP1 POP JUMP JUMPDEST PUSH1 0x0 DUP2 SWAP1 POP SWAP3 SWAP2 POP POP JUMP JUMPDEST PUSH1 0x0 DUP2 SWAP1 POP SWAP2 SWAP1 POP JUMP JUMPDEST PUSH1 0x0 PUSH2 0x479 DUP3 PUSH2 0x464 JUMP JUMPDEST SWAP2 POP PUSH32 0xFFFFFFFFFFFFFFFFFFFFFFFFFFFFFFFFFFFFFFFFFFFFFFFFFFFFFFFFFFFFFFFF DUP3 EQ ISZERO PUSH2 0x4AC JUMPI PUSH2 0x4AB PUSH2 0x4B7 JUMP JUMPDEST JUMPDEST PUSH1 0x1 DUP3 ADD SWAP1 POP SWAP2 SWAP1 POP JUMP JUMPDEST PUSH32 0x4E487B7100000000000000000000000000000000000000000000000000000000 PUSH1 0x0 MSTORE PUSH1 0x11 PUSH1 0x4 MSTORE PUSH1 0x24 PUSH1 0x0 REVERT JUMPDEST PUSH32 0x4E487B7100000000000000000000000000000000000000000000000000000000 PUSH1 0x0 MSTORE PUSH1 0x32 PUSH1 0x4 MSTORE PUSH1 0x24 PUSH1 0x0 REVERT JUMPDEST PUSH1 0x0 DUP1 REVERT JUMPDEST PUSH2 0x523 DUP2 PUSH2 0x464 JUMP JUMPDEST DUP2 EQ PUSH2 0x52E JUMPI PUSH1 0x0 DUP1 REVERT JUMPDEST POP JUMP INVALID LOG2 PUSH5 0x6970667358 0x22 SLT KECCAK256 PUSH4 0xF1CC4961 0xD6 PUSH29 0xA6A55B47F88C7B7A1BA55DA2AC3E99232B86872210904534B364736F6C PUSH4 0x43000807 STOP CALLER "
		},
		"gasEstimates": {
			"creation": {
				"codeDepositCost": "276600",
				"executionCost": "318",
				"totalCost": "276918"
			},
			"external": {
				"getArr()": "infinite",
				"getArr1()": "infinite",
				"listMyFor()": "infinite",
				"listMyWhile()": "infinite",
				"numbers0(uint256)": "infinite",
				"numbers1(uint256)": "infinite"
			}
		},
		"methodIdentifiers": {
			"getArr()": "fb8cbced",
			"getArr1()": "a168614d",
			"listMyFor()": "7778f72c",
			"listMyWhile()": "5cc5fb07",
			"numbers0(uint256)": "c84c7205",
			"numbers1(uint256)": "62b44ce1"
		}
	},
	"abi": [
		{
			"inputs": [],
			"name": "getArr",
			"outputs": [
				{
					"internalType": "uint256[15]",
					"name": "",
					"type": "uint256[15]"
				}
			],
			"stateMutability": "view",
			"type": "function"
		},
		{
			"inputs": [],
			"name": "getArr1",
			"outputs": [
				{
					"internalType": "uint256[15]",
					"name": "",
					"type": "uint256[15]"
				}
			],
			"stateMutability": "view",
			"type": "function"
		},
		{
			"inputs": [],
			"name": "listMyFor",
			"outputs": [],
			"stateMutability": "nonpayable",
			"type": "function"
		},
		{
			"inputs": [],
			"name": "listMyWhile",
			"outputs": [],
			"stateMutability": "nonpayable",
			"type": "function"
		},
		{
			"inputs": [
				{
					"internalType": "uint256",
					"name": "",
					"type": "uint256"
				}
			],
			"name": "numbers0",
			"outputs": [
				{
					"internalType": "uint256",
					"name": "",
					"type": "uint256"
				}
			],
			"stateMutability": "view",
			"type": "function"
		},
		{
			"inputs": [
				{
					"internalType": "uint256",
					"name": "",
					"type": "uint256"
				}
			],
			"name": "numbers1",
			"outputs": [
				{
					"internalType": "uint256",
					"name": "",
					"type": "uint256"
				}
			],
			"stateMutability": "view",
			"type": "function"
		}
	]
}